:100000000C9434000C9451000C9451000C94510049
:100010000C9451000C9451000C9451000C94870BDB
:100020000C9451000C9451000C9451000C9451000C
:100030000C9451000C9451000C9451000C945100FC
:100040000C9451000C9451000C949B110C945A1177
:100050000C9451000C9451000C9451000C945100DC
:100060000C9451000C94510011241FBECFEFD8E026
:10007000DEBFCDBF13E0A0E0B1E0ECE7F1E302C0EA
:1000800005900D92A430B107D9F715E0A4E0B3E0D4
:1000900001C01D92A132B107E1F70E94110D0C942D
:1000A000BC180C9400008430F9F0853038F48230AC
:1000B00089F08330A0F4813051F507C08630F1F02B
:1000C0008630B8F0873019F51EC080E091E00E94BC
:1000D000C212089584E091E00E94C212089588E05F
:1000E00091E00E94C21208958CE091E00E94C21239
:1000F000089580E191E00E94C212089584E191E0A8
:100100000E94C212089588E191E00E94C2120895EF
:10011000CF92DF92EF92FF920F931F93CF93DF93D3
:10012000CDB7DEB7E0970FB6F894DEBF0FBECDBFF8
:100130008C0101960E947315D8019C919C3609F49C
:100140005EC1933709F462C1943609F074C18130FD
:1001500009F465C0813038F0823009F4B0C08330D2
:1001600009F08EC1F1C00F2EFCE1EF2EF1E0FF2E61
:10017000F02DC8010396B7010E9499150E947315CE
:10018000D82E80E090E0B7010E9499150E94731567
:10019000C82E80E090E0B7010E9499150E94731567
:1001A000E82EF92E8FE191E00E94C2128D2D6C2D68
:1001B0004E2D5F2D0E94A6040E945300EDB7FEB79E
:1001C0003A970FB6F894FEBF0FBEEDBF31968E0181
:1001D0000F5F1F4FADB7BEB712961C930E931197CA
:1001E00086E291E093838283D4821582C68217824D
:1001F000E086F1860E94E515EDB7FEB73A960FB698
:10020000F894FEBF0FBEEDBFC8010E94C2128D2D33
:100210006C2D4E2D5F2D0E94440580E038C10F2EBD
:10022000F5E3EF2EF1E0FF2EF02DC8010396B701A4
:100230000E9499150E947315D82E80E090E0B701B6
:100240000E9499150E947315C82E80E090E0B701B6
:100250000E9499150E947315F82E8DB79EB70A97C4
:100260000FB6F8949EBF0FBE8DBFEDB7FEB73196A7
:100270008E010F5F1F4FADB7BEB712961C930E9342
:10028000119789E391E093838283D4821582C68299
:100290001782F08611860E94E515EDB7FEB73A96F3
:1002A0000FB6F894FEBF0FBEEDBFC8010E94C21288
:1002B0008D2D6C2D4F2D0E94850480E0E8C0CE016D
:1002C00089960E9430048FE491E00E94C21288A9AE
:1002D0000E9453008DB79EB740970FB6F8949EBF0B
:1002E0000FBE8DBFEDB7FEB731968E010F5F1F4F6A
:1002F000ADB7BEB712961C930E93119788E591E0A7
:10030000938382838CA5848315828DA5868317822F
:100310008EA59FA59187808789A5828713868AA548
:10032000848715868BA5868717860E94E515EDB70D
:10033000FEB770960FB6F894FEBF0FBEEDBFC801B2
:100340000E94C21280E0A3C00E9481057C0100D0FF
:1003500000D000D0EDB7FEB731968E010F5F1F4F72
:10036000ADB7BEB712961C930E93119787E791E035
:1003700093838283C70195958795959587959583F6
:1003800084830E94E515EDB7FEB736960FB6F89454
:10039000FEBF0FBEEDBFC8010E94C212F3E0EF2204
:1003A000FF2481E0E816F104C1F092E0E916F104BF
:1003B00024F4E114F10459F065C0A2E0EA16F10456
:1003C00091F0B3E0EB16F10409F05CC012C083E8D1
:1003D00091E00E94C21280E05AC08AE891E00E9437
:1003E000C21280E054C081E991E00E94C21280E014
:1003F0004EC088E991E00E94C21280E048C0883077
:1004000008F042C080930E0380E041C0813059F073
:10041000813018F08230D1F50AC08FE991E00E9456
:10042000C21280E034C00E94350380E030C00E94D8
:10043000A91080E02CC000D000D000D0EDB7FEB7EE
:1004400031967E010894E11CF11CADB7BEB712963F
:10045000FC92EE92119781EB91E093838283158356
:1004600004830E94E515EDB7FEB736960FB6F894F3
:10047000FEBF0FBEEDBFC7010E94C21281E007C0E0
:1004800082E005C080E003C082E001C082E0E09627
:100490000FB6F894DEBF0FBECDBFDF91CF911F9195
:1004A0000F91FF90EF90DF90CF900895809105031A
:1004B000882349F50E94D112882309F10E94DA129B
:1004C00090E00E9491158A3019F08D3071F417C0B8
:1004D00081E08093050380910403EDE1F3E0E80FF0
:1004E000F11D1082109204030AC090910403EDE103
:1004F000F3E0E90FF11D80839F5F909304038091E7
:100500000503882339F0109205038DE193E00E94E2
:100510008800089580E008958C3019F41092B90095
:1005200003C091E09093B9008093B80008950F93B1
:100530001F93CF93DF93182FECEBF0E084EA8083D6
:100540008081882374F000E0CCEBD0E081E090E083
:100550000E945D0B0F5F8881882324F00330B1F780
:1005600001C000E08091B900887F883011F08031AF
:10057000B1F40330B0F41093BB0084E88093BC0066
:10058000ECEBF0E080818823ECF79091B900987F44
:10059000983149F081E0903439F480E005C081E081
:1005A00003C081E001C080E0DF91CF911F910F91E6
:1005B0000895CF93DF93ECEBF0E024EAA9EBB0E0F1
:1005C000CBEBD0E034E844E9208390819923ECF729
:1005D0009C91987F983011F09031B1F788833083E7
:1005E00090819923ECF79C91987F903211F0983587
:1005F00029F44083908194FDFDCFE6CFDF91CF9128
:1006000008950E949702089584E98093BC00ECEB62
:10061000F0E0808184FDFDCF08958093BB0084E8E5
:100620008093BC00ECEBF0E080818823ECF79091A4
:10063000B900987F81E0983209F480E0089584EC55
:100640008093BC00ECEBF0E080818823ECF7809194
:10065000BB00089584E88093BC00ECEBF0E080815F
:100660008823ECF78091BB000895AF92BF92CF92A0
:10067000DF92FF920F931F93CF93DF93CDB7DEB737
:10068000E7970FB6F894DEBF0FBECDBFDE01D3965D
:10069000E2EDF1E085E001900D928150E1F78EEB03
:1006A00091E00E94C21202E010E0FF246E01089463
:1006B000C11CD11C0F2EF9ECAF2EF1E0BF2EF02D96
:1006C000802F0E9497028823F1F400D000D000D040
:1006D000EDB7FEB73196ADB7BEB71296DC92CE92AB
:1006E0001197B382A282158304830E94E5158DB70A
:1006F0009EB706960FB6F8949EBF0FBE8DBFC6017B
:100700000E94C212F3940E9404030E5F1F4F91E0F7
:1007100000301907A9F6FF2021F4CE01C3960E94EC
:10072000C21280ED91E00E94C212E7960FB6F894D3
:10073000DEBF0FBECDBFDF91CF911F910F91FF9014
:10074000DF90CF90BF90AF900895282F2F70982FF3
:100750009695969596959E70892F880F880F980F7D
:10076000892F820F0895282F30E086FF08C08F70F0
:1007700025FF02C02AE001C020E0820F08958F709B
:100780003695279536952795369527952670922F7D
:10079000990F990F290F820F0895982F92959F70A6
:1007A000990F292F220F220F920F8F70890F089512
:1007B0006AE00E9403158295807F890F08950F9348
:1007C0001F93CF93DF93082FEB0180ED0E949702D8
:1007D00011E0813009F010E01123A9F4802F0E946C
:1007E0000D0311E0813009F010E0112361F481ED77
:1007F0000E94010311E0813009F010E0112319F487
:100800000E942A0388830E940403812FDF91CF91E5
:100810001F910F9108951F93CF93DF93182FD62F19
:1008200080ED0E949702C1E0813009F0C0E0CC2346
:1008300081F4812F0E940D03C1E0813009F0C0E0F6
:10084000CC2339F48D2F0E940D03C1E0813009F0D3
:10085000C0E00E9404038C2FDF91CF911F91089577
:100860001F93CF93DF93EC0180ED0E94970211E07C
:10087000813009F010E01123C1F580E00E940D03E2
:1008800011E0813009F010E0112379F581ED0E942B
:10089000010311E0813009F010E0112331F50E94CD
:1008A0001F030E94A5038A830E941F030E94A503C1
:1008B00089830E941F030E94B30388830E941F0341
:1008C0008F830E941F030E94A5038B830E941F0336
:1008D0000E94A5038C830E942A030E94CD0390E00E
:1008E0008053984F9E838D8309C01E821D8218827B
:1008F00019821A8281E08C838B838F830E94040388
:10090000812FDF91CF911F910895CF93DF93C62F51
:10091000D42F8831C0F46C33B0F44C33A0F40E946F
:10092000D803682F82E00E940B048C2F0E94D8030A
:10093000682F81E00E940B048D2F0E94D803682F3E
:1009400080E00E940B04DF91CF9108954F925F9257
:100950006F927F928F929F92AF92BF92CF92DF92CF
:10096000EF92FF92482E4A01262F30E08EE090E071
:10097000821B930B6CE070E00E942315AA24BB2419
:1009800080EC92E1A0E0B0E0880E991EAA1EBB1E8A
:10099000CB01AA2797FDA095BA2F881A990AAA0A0F
:1009A000BB0ACB01880F991F680F791F660F771F4D
:1009B000660F771F620F731F882777FD8095982F2A
:1009C00029E930E040E050E00E94E414695C7140A5
:1009D0008040904025E030E040E050E00E94581513
:1009E00069017A01C40CD11CE11CF11CC501B401E0
:1009F0002DE631E040E050E00E94E4142B013C0180
:100A00004C0C5D1C6E1C7F1CC501B40124E030E061
:100A100040E050E00E94581569017A01C40CD51CD1
:100A2000E61CF71CC501B40124E630E040E050E0CC
:100A30000E945815C21AD30AE40AF50AC501B40186
:100A400020E931E040E050E00E945815C20ED31E6C
:100A5000E41EF51EC701B6016C527D4780409040F0
:100A600027E030E040E050E00E943615862FFF90EE
:100A7000EF90DF90CF90BF90AF909F908F907F903E
:100A80006F905F904F9008950F931F93CF93DF93D4
:100A9000C82FD62F81508F3138F5862F81508C305A
:100AA00018F58A01005D174083E0083E1807E0F45E
:100AB0008C2F0E94A604682F83E00E940B04802FD5
:100AC0000E94D803682F86E00E940B048D2F0E949D
:100AD000D803682F85E00E940B048C2F0E94D80356
:100AE000682F84E00E940B04DF91CF911F910F913A
:100AF0000895682F8150873018F483E00E940B041A
:100B000008950F931F93CF93DF9300D0CDB7DEB737
:100B100081E1BE016F5F7F4F0E94DF03098110E01A
:100B2000000F111F000F111F882331F482E1BE0155
:100B30006E5F7F4F0E94DF032A81229526952695BE
:100B4000237030E0022B132B11FF04C01D7F109582
:100B500001951F4F882311F000E010E0802F912FA6
:100B60000F900F90DF91CF911F910F910895CF9229
:100B7000DF92EF92FF92CF93DF93EC01882777FD0E
:100B80008095982F0E94F5136B017C0120E030E0E6
:100B900040E05FE30E94811420E030E048E452E44A
:100BA0000E945A130E94C213DC01CB01C817D90757
:100BB00004F1C701B60120E030E040EC5FE30E94A1
:100BC000811420E030E048E452E40E945A1320E00F
:100BD00030E040E85FE30E94F6120E94C213AB01CE
:100BE000BC0181E090E04C175D072CF480E090E0C0
:100BF00002C080E090E090E0DF91CF91FF90EF9015
:100C0000DF90CF900895CF92DF92EF92FF92CF9333
:100C1000DF93EC0164567040882777FD8095982F0C
:100C20000E94F5136B017C0120E030E040E05FE3BF
:100C30000E94811420E030E048E452E40E945A13FC
:100C40000E94C213DC01CB01C817D90704F1C70108
:100C5000B60120E030E040EC5FE30E94811420E028
:100C600030E048E452E40E945A1320E030E040E8CB
:100C70005FE30E94F6120E94C213AB01BC0181E047
:100C800090E04C175D072CF480E090E002C080E01B
:100C900090E090E0DF91CF91FF90EF90DF90CF90C8
:100CA0000895CF92DF92EF92FF92CF93DF93EC0102
:100CB0006C597F4F882777FD8095982F0E94F513F8
:100CC0006B017C0120E030E040E05FE30E94811492
:100CD00020E030E048E452E40E945A130E94C2131C
:100CE000DC01CB01C817D90704F1C701B60120E028
:100CF00030E040EC5FE30E94811420E030E048E403
:100D000052E40E945A1320E030E040E85FE30E9482
:100D1000F6120E94C213AB01BC0181E090E04C17B7
:100D20005D072CF480E090E002C080E090E090E06D
:100D3000DF91CF91FF90EF90DF90CF90089582E008
:100D40008093310310923203089521E01B9B20E031
:100D500080913303909134030196909334038093F0
:100D6000330380913203853618F086E08093310397
:100D700080913103843009F45BC0853030F48230D7
:100D800059F0833009F08BC034C0853009F47AC043
:100D9000863009F084C07DC0222309F080C0809194
:100DA00033039091340321E08039920728F41092A4
:100DB00034031092330308951092FF03109232030C
:100DC00020913203E22FF0E08091330390913403BD
:100DD000EE0FFF1FEB5CFC4F918380832F5F20930E
:100DE0003203109234031092330383E08093310373
:100DF0000895213009F053C020913203A22FB0E0B2
:100E000080913303909134031296E1E3F3E0AA0F4B
:100E1000BB1FAE0FBF1F11969C938E932F5F209325
:100E20003203109234031092330384E080830895D8
:100E30002223E1F420913203A22FB0E0809133030A
:100E4000909134031296E1E3F3E0AA0FBB1FAE0FBB
:100E5000BF1F11969C938E932F5F209332031092A5
:100E600034031092330383E0808308958091330329
:100E70009091340321E08139920788F085E08093D6
:100E800031030895222359F410923403109233034E
:100E9000089581E08093FF0385E0809331030895F6
:100EA0006F927F928F929F92AF92BF92CF92DF927A
:100EB000EF92FF920F931F93CF93DF935C01FC019E
:100EC0008485853009F090C0C681D7818A819B8155
:100ED00068E273E20E940306009709F487C0F501F7
:100EE0008085918584309105F1F48C819D816AEC37
:100EF00078E00E945106009709F47AC08E819F81A4
:100F000060E372E00E940306009709F473C0F501E4
:100F1000158214828FEF9FEFDC0180839183A2837F
:100F2000B38381E070C0843491050CF465C08C817A
:100F30009D8164E971E10E945106009709F45EC049
:100F400000E010E0CC24DD2476010F2EF6E06F2EB9
:100F50007724F02D6C0E7D1E88249924689483F8E4
:100F60008C0E9D1EF301E00FF11F8081918160E3E3
:100F700072E00E940306009709F442C0E401C00F2A
:100F8000D11F888199816AE976E00E945106009715
:100F900079F0D701C601880F991FAA1FBB1FCC2467
:100FA000DD247601C394C82AD92AEA2AFB2A0CC078
:100FB0008881998160E372E00E945106009711F1E7
:100FC000CC0CDD1CEE1CFF1C0C5F1F4F0038110504
:100FD00049F680E290E0F50195838483C082D18256
:100FE000E282F38281E00FC080E00DC080E00BC0A0
:100FF00080E009C080E007C080E005C080E003C059
:1010000080E001C080E0DF91CF911F910F91FF90B0
:10101000EF90DF90CF90BF90AF909F908F907F9098
:101020006F900895F894209131037894223039F02C
:1010300081E090E0253029F080E090E0089581E0A3
:1010400090E00895F89482E0809331031092320387
:1010500078940895FC01F89485E393E09783868360
:10106000DC0113972C91208711862091FF032287A2
:1010700013860497DC018C9184877894CF010E94B9
:101080005007882321F40E94220880E0089581E01F
:1010900008950F931F93CF93DF93CDB7DEB7649777
:1010A0000FB6F894DEBF0FBECDBF8091060382302D
:1010B000D9F1833030F4882371F0813009F041C1D7
:1010C00013C0843009F4B1C0843008F467C085309F
:1010D00009F037C1E4C080915B028F3009F031C163
:1010E00081E0809306032DC180915B02813051F431
:1010F00087ED91E00E94C2121092070382E0809374
:1011000006031FC1823051F48CEE91E00E94C2129E
:101110001092070384E08093060313C1803109F025
:1011200010C1109206030DC120915B022A3008F015
:1011300008C180910703E8E0F3E0E80FF11D208388
:1011400000D000D000D0EDB7FEB731968E010F5F12
:101150001F4FADB7BEB712961C930E93119780E048
:1011600092E093838283248315820E94E5158DB7D4
:101170009EB706960FB6F8949EBF0FBE8DBFC801EE
:101180000E94C212809107038F5F8093070386300D
:1011900008F4D7C083E080930603D3C080915B023C
:1011A000803109F0CEC083E092E00E94C212ADB758
:1011B000BEB750970FB6F894BEBF0FBEADBFEDB728
:1011C000FEB731968E010F5F1F4F12961C930E9340
:1011D000119782E192E09383828380910803848354
:1011E0001582809109038683178280910A03808784
:1011F000118680910B038287138680910C0384876C
:10120000158680910D03868717860E94E5158DB798
:101210009EB740960FB6F8949EBF0FBE8DBFC80113
:101220000E94C212109206038CC020915B022A30E9
:1012300008F087C080910703E8E0F3E0E80FF11DB4
:10124000208300D000D000D0EDB7FEB731968E01DC
:101250000F5F1F4FADB7BEB712961C930E93119739
:1012600080E092E093838283248315820E94E515B7
:101270008DB79EB706960FB6F8949EBF0FBE8DBF72
:10128000C8010E94C212809107038F5F80930703F9
:10129000863008F456C085E08093060352C08091E2
:1012A0005B02803109F04DC082E292E00E94C212DE
:1012B000ADB7BEB71E970FB6F894BEBF0FBEADBF99
:1012C000EDB7FEB731968E010F5F1F4F12961C933C
:1012D0000E93119781E392E09383828380910803B8
:1012E00084831582809109038683178280910A0383
:1012F0008087118680910B038287138680910C036F
:1013000090E0880F991F9C01220F331F220F331F7B
:10131000820F931F8053984F20910D03820F911DD0
:10132000958784870E94E5158DB79EB70E960FB6F8
:10133000F8949EBF0FBE8DBFC8010E94C2121092CA
:10134000060364960FB6F894DEBF0FBECDBFDF91E3
:10135000CF911F910F9108950F931F93CF93DF9318
:10136000CDB7DEB764970FB6F894DEBF0FBECDBF22
:1013700080E094E00E942A08882309F458C18091F3
:10138000000490910104A0910204B09103048D3AED
:1013900022E592072FEFA20720E0B20709F4E8C088
:1013A0008E3A22E592072FEFA20720E0B20708F05D
:1013B0005BC08D3D22E292072FEFA20720E0B2072B
:1013C00009F4C6C08E3D22E292072FEFA20720E06B
:1013D000B207E0F48F3E20E192072FEFA20720E052
:1013E000B20709F4E4C0873E28E192072FEFA20775
:1013F00020E0B20709F4D3C08D3F22E092072FEF1F
:10140000A20720E0B20709F0E2C0AAC0873C28E3A7
:1014100092072FEFA20720E0B20709F4CCC0883C66
:1014200028E392072FEFA20720E0B20750F48F3C89
:1014300020E392072FEFA20720E0B20709F0C7C010
:10144000AAC08D3B22E492072FEFA20720E0B2074B
:1014500009F48AC0853B2AE492072FEFA20720E017
:10146000B20709F0B4C088C0873628E992072FEF89
:10147000A20720E0B20709F486C0883628E992075F
:101480002FEFA20720E0B20770F58D3922E6920710
:101490002FEFA20720E0B20709F452C08E3922E6EE
:1014A00092072FEFA20720E0B20750F4853A2AE511
:1014B00092072FEFA20720E0B20709F088C07FC093
:1014C000873928E692072FEFA20720E0B20709F438
:1014D00056C085382AE792072FEFA20720E0B2070F
:1014E00009F075C060C08F3420EB92072FEFA20780
:1014F00020E0B20709F44BC0803520EB92072FEFB4
:10150000A20720E0B20750F4873528EA92072FEFB0
:10151000A20720E0B20709F05AC016C08D3322ECB2
:1015200092072FEFA20720E0B207B1F08F3F2FEF15
:1015300092072FEFA2072FEFB20709F048C043C070
:101540008AE080935B0246C08DE080935B0242C0DC
:101550008BE080935B023EC08CE080935B023AC0DC
:101560008EE080935B0236C08FE080935B0232C0D6
:1015700080E180935B022EC010925B022BC081E061
:1015800080935B0227C082E080935B0223C083E0EC
:1015900080935B021FC084E080935B021BC085E0E8
:1015A00080935B0217C086E080935B0213C087E0E4
:1015B00080935B020FC088E080935B020BC089E0E0
:1015C00080935B0207C081E180935B0203C082E1EC
:1015D00080935B0200D000D000D0EDB7FEB731960B
:1015E0008E010F5F1F4FADB7BEB712961C930E93BF
:1015F00011978FE392E09383828380915B02A7E44B
:10160000B2E0A80FB11D8C91848315820E94E5156C
:101610008DB79EB706960FB6F8949EBF0FBE8DBFCE
:10162000C8010E94C2120E9449080E9422086496C2
:101630000FB6F894DEBF0FBECDBFDF91CF911F91E3
:101640000F91089585B1887F85B995B180910E037A
:101650008770892B85B920E280E090E0A0E0B0E8B7
:101660003BB13F733BB940910F0350911003609120
:10167000110370911203482359236A237B234817CF
:1016800059076A077B0711F45D9A01C05D98B6950A
:10169000A795979587955F9A5F98215009F75E9A6D
:1016A0005E980895F89460911303709114038091EB
:1016B000150390911603789408958F929F92AF929C
:1016C000BF92CF92DF92EF92FF92CF93DF93EC0124
:1016D0000E94520B4B015C016E01EE24FF240E941C
:1016E000520BDC01CB0188199909AA09BB098C1599
:1016F0009D05AE05BF0598F3DF91CF91FF90EF9068
:10170000DF90CF90BF90AF909F908F9008951F92E1
:101710000F920FB60F9211242F933F934F935F9325
:101720006F937F938F939F93AF93BF93EF93FF93A9
:101730002D9A809117038F5F809317038431B8F03F
:101740000E948B0D8091130390911403A0911503B7
:10175000B09116030196A11DB11D809313039093C0
:101760001403A0931503B0931603109217030E945D
:10177000A5062D98FF91EF91BF91AF919F918F9109
:101780007F916F915F914F913F912F910F900FBE7D
:101790000F901F901895282F6AE00E940315982F2C
:1017A000990F392F330F330F930F8295807F291BA9
:1017B0002F70822B08950F931F93982F915096307E
:1017C00058F526E030E08901081B1109C801880F8F
:1017D000880F4AE050E060E070E08A019B0104C09D
:1017E000000F111F221F331F8A95D2F7D901C8019C
:1017F00040910F03509110036091110370911203F7
:10180000842B952BA62BB72B80930F03909310035B
:10181000A0931103B09312031F910F910895CF92DB
:10182000DF92EF92FF921F93CF93DF93CDB7DEB796
:1018300028970FB6F894DEBF0FBECDBF10920F03EE
:10184000109210031092110310921203CE01019610
:101850000E9430041B81812F89518230E8F58C81F0
:101860000E94CB0B182F8D810E94CB0B412F50E093
:1018700060E070E0032E3CE0440F551F661F771FA9
:101880003A95D1F7302D90E0A0E0B0E0482B592BED
:101890006A2B7B2B440F551F661F771F440F551F64
:1018A000661F771F440F551F661F771F440F551F74
:1018B000661F771F40930F0350931003609311032B
:1018C0007093120383E00E94DB0B86E00E94DB0B27
:1018D00084E080930E0371C0812F8B51823008F019
:1018E0003FC08E819F8164E670E00E940F15C82E74
:1018F000862F0E94CB0B182F8C2D0E94CB0B412FD3
:1019000050E060E070E0762F652F542F442790E080
:10191000A0E0B0E0482B592B6A2B7B2B440F551FBE
:10192000661F771F440F551F661F771F440F551FF3
:10193000661F771F440F551F661F771F40930F03C5
:1019400050931003609311037093120381E00E947F
:10195000DB0B86E00E94DB0B84E080930E032DC03E
:1019600089810E94CB0BC82E8A810E94CB0BDD247B
:10197000EE24FF24FE2CED2CDC2CCC2490E0A0E007
:10198000B0E0C82AD92AEA2AFB2A812F0E94CB0B71
:10199000FE2CED2CDC2CCC2490E0A0E0B0E0C82A9A
:1019A000D92AEA2AFB2AC0920F03D0921003E092B0
:1019B0001103F092120310920E0328960FB6F894BA
:1019C000DEBF0FBECDBFDF91CF911F91FF90EF9093
:1019D000DF90CF900895E0EBF0E08081826080831B
:1019E00082E08093B10083E68093B3001092B2004E
:1019F000E0E7F0E0808182608083089584B1877E93
:101A000084B985B1877E85B984B1876284B985B18F
:101A1000887D85B98AB1806E8AB98BB18F718BB997
:101A20000895CF93DF93CDB7DEB764970FB6F894E0
:101A3000DEBF0FBECDBF0E94EB0C0E949F068CE064
:101A40000E948C020E94FE0C83E390E00E94FD1134
:101A50008FE09CE06CE572E040E050E028EE33E07F
:101A60000E94AA0E82E29BE064E672E044E650E047
:101A700022E330E00E94AA0E8CEA99E06BE672E065
:101A800048EC50E024EF31E00E94AA0E789483E7FE
:101A900092E00E94C2128E010F5F1F4F0F2EFCEAD0
:101AA000EF2EF2E0FF2EF02D0F2EFDE1CF2EF3E012
:101AB000DF2EF02D0F2EFDE9AF2EF2E0BF2EF02D20
:101AC0000E94040E0E945602813019F08230C1F744
:101AD00004C0C5010E94C212F3CF00D000D000D0D4
:101AE000EDB7FEB73196ADB7BEB712961C930E9305
:101AF0001197F382E282D582C4820E94E5158DB7E8
:101B00009EB706960FB6F8949EBF0FBE8DBFC80154
:101B10000E94C212D5CF80910D0490910E040097BF
:101B200009F471C080E090E060E0ADE0B4E0FC0159
:101B3000EE0FFF1FE80FF91FEE0FFF1FEE0FFF1F45
:101B4000EE0FFF1FE80FF91FEA0FFB1F40895189B5
:101B500041155105A9F09C01220F331F280F391F91
:101B6000220F331F220F331F220F331F820F931FA9
:101B7000FD01E80FF91F41505040518B408B2BC0A5
:101B8000FC01EE0FFF1FE80FF91FEE0FFF1FEE0F16
:101B9000FF1FEE0FFF1FE80FF91FEA0FFB1F22893F
:101BA000338921503040338B228B2115310599F434
:101BB0009C01220F331F280F391F220F331F220FC2
:101BC000331F220F331F820F931FFD01E80FF91FF0
:101BD00084898160848B6F5F862F90E0FC01EE0F1B
:101BE000FF1FE80FF91FEE0FFF1FEE0FFF1FEE0F95
:101BF000FF1FE80FF91FEA0FFB1F2081318121151C
:101C0000310509F094CF08958F929F92AF92BF92C1
:101C1000CF92DF92EF92FF921F93CF93DF93809149
:101C20000D0490910E04009709F488C0C0E0D0E044
:101C300010E00F2EFDE0CF2EF4E0DF2EF02DFE01A0
:101C4000EE0FFF1FEC0FFD1FEE0FFF1FEE0FFF1F2C
:101C5000EE0FFF1FEC0FFD1FEC0DFD1D848983703F
:101C6000833009F054C00E94520B4B015C017E018D
:101C7000EE0CFF1CEC0EFD1EEE0CFF1CEE0CFF1C10
:101C8000EE0CFF1CEC0EFD1EEC0CFD1CD701ED91C3
:101C9000FC910995F70184898E7F848B86859785D1
:101CA000938B828B0E94520BAB01BC0148155905E6
:101CB0006A057B0558F4D501C40180959095A095DF
:101CC000B095480F591F6A1F7B1F04C04819590956
:101CD0006A097B09FE01EE0FFF1FEC0FFD1FEE0FDF
:101CE000FF1FEE0FFF1FEE0FFF1FEC0FFD1FEC0D90
:101CF000FD1D568B458B8789908DA0E0B0E0841741
:101D00009507A607B70718F4EF01588F4F8B1F5F91
:101D1000C12FD0E0FE01EE0FFF1FEC0FFD1FEE0FF5
:101D2000FF1FEE0FFF1FEE0FFF1FEC0FFD1FEC0D4F
:101D3000FD1D80819181009709F081CFDF91CF91C6
:101D40001F91FF90EF90DF90CF90BF90AF909F904A
:101D50008F9008954F925F926F927F928F929F9291
:101D6000AF92BF92CF92DF92EF92FF921F93CF93E9
:101D7000DF937C015B016A01B901109118031930EE
:101D800008F067C080911B0490911C040097D9F063
:101D9000C0E04DE054E0CF5F2C2F30E0C901880F48
:101DA000991F820F931F880F991F880F991F880F03
:101DB000991F820F931F840F951FFC0186859785BD
:101DC000009749F701C0C0E080E090E028EE33E0E2
:101DD00040E050E00E94E4140E9458158C2F90E0DF
:101DE000EC01CC0FDD1FC80FD91FCC0FDD1FCC0FAE
:101DF000DD1FCC0FDD1F4E01880E991EE401C35F6D
:101E0000DB4FF982E8823F872E873B8B2A8BB60116
:101E100080E090E028EE33E040E050E00E94E414DF
:101E20000E945815398B288B8C8982608E7F8C8B11
:101E30001E8A1D8A188E1F8AC401815F9B4FB501BF
:101E40004CE050E00E94A7151F5F1093180380E03C
:101E500001C086E0DF91CF911F91FF90EF90DF905E
:101E6000CF90BF90AF909F908F907F906F905F903A
:101E70004F900895BF92CF92DF92EF92FF920F930F
:101E80001F93CF93DF936C0180911B0490911C04EE
:101E9000009709F457C0C0E0D0E010E000E00F2E3A
:101EA000FDE0EF2EF4E0FF2EF02DBB24B394CE0125
:101EB000880F991F8C0F9D1F880F991F880F991FDE
:101EC000880F991F8C0F9D1F815F9B4FB6010E9449
:101ED0009E15282F392F21153105A1F4CE01880F29
:101EE000991F8C0F9D1F880F991F880F991F880FAE
:101EF000991FC80FD91FCE0DDF1D8C8982608C8B76
:101F00002B2D01C0202F1F5FC12FD0E0FE01EE0F4F
:101F1000FF1FEC0FFD1FEE0FFF1FEE0FFF1FEE0F59
:101F2000FF1FEC0FFD1FEE0DFF1D868597850097A7
:101F300029F0222309F4BBCF80E007C0222321F03F
:101F400080E003C085E001C084E0DF91CF911F9164
:101F50000F91FF90EF90DF90CF90BF900895BF92C8
:101F6000CF92DF92EF92FF920F931F93CF93DF9365
:101F70006C0180911B0490911C04009709F457C0D8
:101F8000C0E0D0E010E000E00F2EFDE0EF2EF4E026
:101F9000FF2EF02DBB24B394CE01880F991F8C0F18
:101FA0009D1F880F991F880F991F880F991F8C0FED
:101FB0009D1F815F9B4FB6010E949E15282F392FD0
:101FC00021153105A1F4CE01880F991F8C0F9D1F9B
:101FD000880F991F880F991F880F991FC80FD91F45
:101FE000CE0DDF1D8C898D7F8C8B2B2D01C0202F7A
:101FF0001F5FC12FD0E0FE01EE0FFF1FEC0FFD1F92
:10200000EE0FFF1FEE0FFF1FEE0FFF1FEC0FFD1F68
:10201000EE0DFF1D86859785009729F0222309F490
:10202000BBCF80E007C0222321F080E003C085E021
:1020300001C084E0DF91CF911F910F91FF90EF904D
:10204000DF90CF90BF9008958F929F92BF92CF92D2
:10205000DF92EF92FF920F931F93CF93DF936B0169
:1020600020911B0430911C042115310509F462C034
:10207000BC0180E090E028EE33E040E050E00E94B8
:10208000E4140E9458154901C0E0D0E010E000E0DF
:102090000F2EFDE0EF2EF4E0FF2EF02DBB24B394C5
:1020A000CE01880F991F8C0F9D1F880F991F880FD5
:1020B000991F880F991F8C0F9D1F815F9B4FB60141
:1020C0000E949E15282F392F2115310599F4CE0134
:1020D000880F991F8C0F9D1F880F991F880F991FBC
:1020E000880F991FC80FD91FCE0DDF1D9F868E86C2
:1020F0002B2D01C0202F1F5FC12FD0E0FE01EE0F5E
:10210000FF1FEC0FFD1FEE0FFF1FEE0FFF1FEE0F67
:10211000FF1FEC0FFD1FEE0DFF1D868597850097B5
:1021200029F0222309F4BCCF80E007C0222321F04C
:1021300080E003C085E001C084E0DF91CF911F9172
:102140000F91FF90EF90DF90CF90BF909F908F9076
:102150000895AF92BF92CF92DF92EF92FF921F93BA
:10216000CF93DF93CDB7DEB7C655D0400FB6F89406
:10217000DEBF0FBECDBFDE01D396EFEDF2E084E20D
:1021800001900D928150E1F7CE01C3960E94C212D8
:1021900040911B0450911C044115510509F479C06C
:1021A00020E030E010E07E010894E11CF11C0F2ECD
:1021B000FFEBAF2EF2E0BF2EF02D0F2EFDE0CF2E65
:1021C000F4E0DF2EF02D8DB79EB70E970FB6F89482
:1021D0009EBF0FBE8DBFADB7BEB71196EDB7FEB7B0
:1021E000F282E1821396BC92AE921297C901880FD7
:1021F000991F820F931F880F991F880F991F880FAF
:10220000991F820F931F9C01215F3B4F15963C93B2
:102210002E93149717965C934E931697F601E80F3A
:10222000F91F848918968C93189719961C92199700
:10223000858996891B969C938E931A978789908D92
:102240001D969C938E931C970E94E5158DB79EB7A3
:102250000E960FB6F8949EBF0FBE8DBFC7010E94A9
:10226000C2121F5F212F30E0F901EE0FFF1FE20FB6
:10227000F31FEE0FFF1FEE0FFF1FEE0FFF1FE20F0A
:10228000F31FEC0DFD1D468557854115510509F0DD
:102290009ACFCA5ADF4F0FB6F894DEBF0FBECDBF3C
:1022A000DF91CF911F91FF90EF90DF90CF90BF9083
:1022B000AF9008951F920F920FB60F9211242F9393
:1022C0003F934F935F938F939F93EF93FF939091DF
:1022D0001D0580911C059817E1F080911D05E09186
:1022E0001F05F0912005E80FF11D508140911D055B
:1022F000242F30E080911E0590E0019728173907C0
:1023000011F04F5F01C040E040931D055093C6009F
:1023100005C0E1ECF0E080818F7D8083FF91EF913B
:102320009F918F915F914F913F912F910F900FBE91
:102330000F901F9018951F920F920FB60F921124B5
:102340002F933F934F935F938F939F93EF93FF93BD
:10235000CF93DF930F92CDB7DEB750911805E8E128
:10236000F5E04291842F90E0228130E0215030400E
:102370008217930711F04F5F01C040E05417F1F04E
:102380008091C60090911705E0911A05F0911B0508
:10239000E90FF11D808340911705242F30E08091D3
:1023A000190590E001972817390711F04F5F01C018
:1023B00040E0409317051092160506C08091C600B4
:1023C000898381E0809316058091190390911A0307
:1023D000019690931A03809319030F90DF91CF9188
:1023E000FF91EF919F918F915F914F913F912F912D
:1023F0000F900FBE0F901F901895CF93DF93CDB71E
:10240000DEB764970FB6F894DEBF0FBECDBF9093D2
:10241000C5008093C40088E98093C100E0ECF0E03F
:1024200080818D7F808386E08093C200188A198A1C
:102430008EE18A8B8EEE94E09C8B8B8BDE01169660
:10244000FE01709685E001900D928150E1F7DE016A
:102450001B96FE01369685E001900D928150E1F7C2
:10246000ACE1B5E0FE013B9685E001900D92815014
:10247000E1F71B861C868AE08D878CE095E09F87BC
:102480008E87DE011196FE013B9685E001900D924C
:102490008150E1F7DE015096FE01319685E0019012
:1024A0000D928150E1F7A7E1B5E0FE01709685E05D
:1024B00001900D928150E1F764960FB6F894DEBF5B
:1024C0000FBECDBFDF91CF910895CF92DF92EF92F3
:1024D000FF920F931F93CF93DF93C82ECDE1D5E0EA
:1024E0008E0101501040EE24FF246894E1F8E00EC4
:1024F000F11EDD2404C081E090E00E945D0B588154
:10250000F8014081242F30E0F701808190E00197AD
:102510002817390711F04F5F01C04D2D541759F39B
:10252000F89490911D0580911C05981729F4E1EC11
:10253000F0E080818062808380911C05E0911F051E
:10254000F0912005E80FF11DC08240911C05242F59
:1025500030E080911E0590E001972817390711F0AF
:102560004F5F01C040E040931C057894DF91CF910C
:102570001F910F91FF90EF90DF90CF9008950E94F0
:1025800065120895CF93DF93EC018881882331F0A1
:1025900021960E94BF1289918823D9F7DF91CF91AC
:1025A0000895209118059091170581E0291709F4E5
:1025B00080E0089580911805E0911A05F0911B05BF
:1025C000E80FF11D808190911805492F50E020916E
:1025D000190530E0215030404217530711F09F5F3A
:1025E00001C090E09093180508955058BB27AA2782
:1025F0000ED04DC13ED130F043D120F031F49F3F99
:1026000011F41EF433C10EF4E095E7FB29C1E92F64
:102610004FD180F3BA17620773078407950718F044
:1026200071F49EF567C10EF4E0950B2EBA2FA02D24
:102630000B01B90190010C01CA01A0011124FF276F
:10264000591B99F0593F50F4503E68F11A16F0406A
:10265000A22F232F342F4427585FF3CF4695379569
:102660002795A795F0405395C9F77EF41F16BA0B2E
:10267000620B730B840BBAF09150A1F0FF0FBB1FDC
:10268000661F771F881FC2F70EC0BA0F621F731F25
:10269000841F48F4879577956795B795F7959E3F82
:1026A00008F0B3CF9395880F08F09927EE0F979510
:1026B000879508950CD0EBC0E3D040F0DAD030F02D
:1026C00021F45F3F19F0CCC0511115C1CFC0F0D03B
:1026D00098F39923C9F35523B1F3951B550BBB27E9
:1026E000AA2762177307840738F09F5F5F4F220F96
:1026F000331F441FAA1FA9F333D00E2E3AF0E0E88F
:1027000030D091505040E695001CCAF729D0FE2FDA
:1027100027D0660F771F881FBB1F2617370748076C
:10272000AB07B0E809F0BB0B802DBF01FF27935822
:102730005F4F2AF09E3F510568F092C0DCC05F3FBA
:10274000ECF3983EDCF3869577956795B795F7950A
:102750009F5FC9F7880F911D9695879597F9089502
:10276000E1E0660F771F881FBB1F6217730784079E
:10277000BA0720F0621B730B840BBA0BEE1F88F7AD
:10278000E095089504D06894B111B5C0089598D02B
:1027900088F09F5790F0B92F9927B751A0F0D1F04A
:1027A000660F771F881F991F1AF0BA95C9F712C0D4
:1027B000B13081F09FD0B1E008959CC0672F782F91
:1027C0008827B85F39F0B93FCCF386957795679540
:1027D000B395D9F73EF490958095709561957F4FAC
:1027E0008F4F9F4F0895E89409C097FB3EF4909552
:1027F0008095709561957F4F8F4F9F4F9923A9F0DA
:10280000F92F96E9BB279395F69587957795679568
:10281000B795F111F8CFFAF4BB0F11F460FF1BC0AC
:102820006F5F7F4F8F4F9F4F16C0882311F096E93F
:1028300011C0772321F09EE8872F762F05C06623ED
:1028400071F096E8862F70E060E02AF09A95660FA6
:10285000771F881FDAF7880F9695879597F908955F
:1028600097F99F6780E870E060E008959FEF80EC43
:10287000089500240A9416161706180609060895E6
:1028800000240A9412161306140605060895092E4C
:102890000394000C11F4882352F0BB0F40F4BF2BBB
:1028A00011F460FF04C06F5F7F4F8F4F9F4F0895FB
:1028B00057FD9058440F551F59F05F3F71F04795F1
:1028C000880F97FB991F61F09F3F79F087950895D6
:1028D000121613061406551FF2CF4695F1DF08C0F5
:1028E000161617061806991FF1CF86957105610512
:1028F00008940895E894BB2766277727CB0197F9BA
:1029000008950BD0C4CFB5DF28F0BADF18F09523B7
:1029100009F0A6CFABCF1124EECFCADFA0F3959F6D
:10292000D1F3950F50E0551F629FF001729FBB27B6
:10293000F00DB11D639FAA27F00DB11DAA1F649F62
:102940006627B00DA11D661F829F2227B00DA11D15
:10295000621F739FB00DA11D621F839FA00D611D9B
:10296000221F749F3327A00D611D231F849F600DBC
:10297000211D822F762F6A2F11249F5750408AF0F5
:10298000E1F088234AF0EE0FFF1FBB1F661F771F81
:10299000881F91505040A9F79E3F510570F060CFBD
:1029A000AACF5F3FECF3983EDCF386957795679569
:1029B000B795F795E7959F5FC1F7FE2B880F911D9F
:1029C0009695879597F90895629FD001739FF001BE
:1029D000829FE00DF11D649FE00DF11D929FF00DAF
:1029E000839FF00D749FF00D659FF00D9927729FE6
:1029F000B00DE11DF91F639FB00DE11DF91FBD0171
:102A0000CF0111240895991B79E004C0991F9617EE
:102A100008F0961B881F7A95C9F780950895AA1B20
:102A2000BB1B51E107C0AA1FBB1FA617B70710F0B9
:102A3000A61BB70B881F991F5A95A9F780959095EB
:102A4000BC01CD01089597FB092E07260AD077FD1A
:102A500004D0E5DF06D000201AF4709561957F4F11
:102A60000895F6F7909581959F4F0895A1E21A2E4B
:102A7000AA1BBB1BFD010DC0AA1FBB1FEE1FFF1F22
:102A8000A217B307E407F50720F0A21BB30BE40B72
:102A9000F50B661F771F881F991F1A9469F76095B9
:102AA0007095809590959B01AC01BD01CF01089573
:102AB00097FB092E05260ED057FD04D0D7DF0AD08C
:102AC000001C38F450954095309521953F4F4F4F5D
:102AD0005F4F0895F6F790958095709561957F4FBB
:102AE0008F4F9F4F0895FC0188279927E8942191E3
:102AF0002032E9F3293010F02E30C8F32B3241F0A8
:102B00002D3239F4689404C00E94DD15820F911DA6
:102B1000219120532A30C0F31EF4909581959F4F48
:102B200008959111089581548A5108F4805E855A60
:102B300008954BE153E00E94B6150895FB01DC01B6
:102B40008D91019080190110D9F3990B0895FB0123
:102B5000DC014150504048F001900D920020C9F72F
:102B600001C01D9241505040E0F70895FA01A19133
:102B7000B081009719F41097E1F0CD01DC01CD018F
:102B80000D90002011F4C00113C0FB0121912223FC
:102B900019F02015D9F7F3CFFB012191201519F475
:102BA0001E92119606C02223C1F70D900020A1F7B6
:102BB000D001FA01A193B08308957AE0979F902DF8
:102BC000879F802D910D11240895AEE0B0E0EBEECB
:102BD000F5E10C9493180D891E8986E08C831A8385
:102BE00009838FEF9FE79E838D83AE01475E5F4F22
:102BF000CE0101966F89788D0E940716EF81F885C6
:102C0000E00FF11F10822E96E4E00C94AF18ADE0B7
:102C1000B0E0EDE0F6E10C9485183C017D876C870F
:102C20005A01FC0117821682838181FFC8C12E01DF
:102C30000894411C511CF3019381EC85FD8593FDA3
:102C4000859193FF8191FD87EC87882309F4B3C1B7
:102C5000853241F493FD859193FF8191FD87EC8747
:102C6000853229F490E0B3010E94FB17E4CFFF24E2
:102C7000EE2410E01032B0F48B3269F08C3228F47C
:102C8000803251F0833271F40BC08D3239F08033D1
:102C900049F411602CC01260146029C0186027C06C
:102CA000106125C017FD2EC0282F20532A3098F41C
:102CB00016FF08C08F2D880FF82EFF0CFF0CF80EA2
:102CC000F20E15C08E2D880FE82EEE0CEE0CE80EDD
:102CD000E20E10620CC08E3221F416FD6CC110643D
:102CE00006C08C3611F4106802C0883659F4EC85A1
:102CF000FD8593FD859193FF8191FD87EC87882366
:102D000009F0B8CF982F9554933018F09052933023
:102D100038F424E030E0A20EB31E3FE339830FC045
:102D2000833631F0833781F0833509F05AC022C0F1
:102D3000F5018081898322E030E0A20EB31E21E0FC
:102D4000C22ED12C420114C092E0292E312C2A0C23
:102D50003B1CF5018080918016FF03C06F2D70E051
:102D600002C06FEF7FEFC4010E94F0176C015101A8
:102D70001F7715C082E0282E312C2A0C3B1CF50150
:102D80008080918016FF03C06F2D70E002C06FEF4E
:102D90007FEFC4010E94E5176C011068510113FD1B
:102DA0001CC006C080E290E0B3010E94FB17EA94C9
:102DB0008E2D90E0C816D906A8F30FC0F40117FDB8
:102DC000859117FF81914F0190E0B3010E94FB179D
:102DD000E110EA940894C108D108C114D10471F734
:102DE000E7C0843611F0893651F5F50117FF07C0A9
:102DF00080819181A281B38124E030E008C080818C
:102E00009181AA2797FDA095BA2F22E030E0A20E6B
:102E1000B31E012F0F76B7FF08C0B095A09590950F
:102E200081959F4FAF4FBF4F0068BC01CD01A201FC
:102E30002AE030E00E942718D82ED4183FC08537EA
:102E400021F41F7E2AE030E020C0197F8F36A9F0E0
:102E5000803720F4883509F0AEC00BC0803721F0F0
:102E6000883709F0A8C001C0106114FF09C01460C0
:102E700007C014FF08C0166006C028E030E005C097
:102E800020E130E002C020E132E0F50117FF07C089
:102E9000608171818281938144E050E006C060814D
:102EA000718180E090E042E050E0A40EB51EA201E6
:102EB0000E942718D82ED418012F0F7706FF09C0BB
:102EC0000E7FDF1430F404FF06C002FD04C00F7E45
:102ED00002C01D2D01C01F2D802F90E004FF0CC0EB
:102EE000FE01ED0DF11D2081203311F4097E09C092
:102EF00002FF06C01E5F05C086789070009709F03B
:102F00001F5F802E992403FD12C000FF0DC0FD2C11
:102F10001E1550F4FE0CF11A1E2D06C080E290E042
:102F2000B3010E94FB171F5F1E15C0F304C01E15DE
:102F300010F4E11A01C0EE2484FE0FC080E390E09B
:102F4000B3010E94FB1782FE1FC081FE03C088E50B
:102F500090E010C088E790E00DC0C40186789070C2
:102F6000009791F081FC02C080E201C08BE207FD76
:102F70008DE290E0B3010E94FB1706C080E390E071
:102F8000B3010E94FB17FA94DF14C0F3DA94F20144
:102F9000ED0DF11D808190E0B3010E94FB17DD2053
:102FA000A9F706C080E290E0B3010E94FB17EA9403
:102FB000EE20C1F740CEF3018681978102C08FEFEA
:102FC0009FEF2D96E2E10C94A118FC010590615051
:102FD00070400110D8F7809590958E0F9F1F08952F
:102FE000FC016150704001900110D8F780959095D8
:102FF0008E0F9F1F08950F931F93CF93DF938C0124
:10300000EB018B8181FF1BC082FF0DC02E813F81B0
:103010008C819D812817390764F4E881F981019337
:10302000F983E88306C0E885F985802F0995009724
:1030300031F48E819F8101969F838E8302C00FEFB2
:103040001FEFC801DF91CF911F910F910895FA01F1
:10305000AA27283051F1203181F1E8946F936E7FD7
:103060006E5F7F4F8F4F9F4FAF4FB1E03ED0B4E0C8
:103070003CD0670F781F891F9A1FA11D680F791F09
:103080008A1F911DA11D6A0F711D811D911DA11D1A
:1030900020D009F468943F912AE0269F112430192A
:1030A000305D3193DEF6CF010895462F4770405DC5
:1030B0004193B3E00FD0C9F7F6CF462F4F70405D74
:1030C0004A3318F0495D31FD4052419302D0A9F7CF
:1030D000EACFB4E0A6959795879577956795BA95C9
:1030E000C9F700976105710508959B01AC010A2E8F
:1030F00006945795479537952795BA95C9F7620F66
:10310000731F841F951FA01D08952F923F924F9209
:103110005F926F927F928F929F92AF92BF92CF9267
:10312000DF92EF92FF920F931F93CF93DF93CDB770
:10313000DEB7CA1BDB0B0FB6F894DEBF0FBECDBFE8
:1031400009942A88398848885F846E847D848C84B9
:103150009B84AA84B984C884DF80EE80FD800C81C2
:103160001B81AA81B981CE0FD11D0FB6F894DEBFA5
:0C3170000FBECDBFED010895F894FFCF15
:10317C004D6F6E005475650057656400546875009A
:10318C00467269005361740053756E003A2D004409
:10319C006174653A200020253032642D253032646C
:1031AC002D25640A003A2D2E0054696D653A2025B0
:1031BC003032643A253032643A253032640A0044A5
:1031CC0053333233313A200020253032642D2530F0
:1031DC0032642D25642C20253032643A253032643B
:1031EC002E253032640A004453333233313A2025D1
:1031FC00642E00303020B0430A00323520B0430A30
:10320C0000353020B0430A00373520B0430A004E59
:10321C006978696520626F6172642076302E310A9C
:10322C00004552522E434D445B25735D0A004932D2
:10323C00432D7363616E3A2000307825307820007E
:10324C000A006E6F6E6500456E7465722054696D70
:10325C0065202868686D6D7373293A00456E746536
:10326C00722044617465202864646D6D79793A002C
:10327C002564005365742D54696D6520455845438C
:10328C003A00256425643A256425643A256425644E
:10329C000A005365742D4461746520455845433AC2
:1032AC0000256425642D256425642D25640A006998
:1032BC00725B25635D0A0030313233343536373872
:1032CC0039554C52444F4148583F00124469737071
:1032DC006C6179005570646174650049525F726568
:1032EC006376004E6978696520626F61726420763E
:1032FC00302E312C20456D696C652C204D6172741B
:10330C00696A6E2C20526F6E616C640A00436F6D9B
:10331C006D616E64204572726F720A004E756D623B
:10332C006572204572726F7220282573290A002558
:10333C002D313173202535642030782530327820BA
:10334C00202025303364202020253033640A00549B
:10335C0061736B2D4E616D6520202054286D73298F
:10336C0020537461742054286D7329204D286D737B
:04337C00290A00001A
:00000001FF
