:100000000C94E2000C94FF000C94FF000C94FF0091
:100010000C94FF000C94FF000C94FF000C94B0189B
:100020000C94FF000C94FF000C94FF000C94FF0054
:100030000C94FF000C94FF000C94FF000C94FF0044
:100040000C94FF000C94FF000C94A8240C946724DB
:100050000C94FF000C94FF000C94FF000C94FF0024
:100060000C94FF000C94FF0008000000BE9224498D
:10007000123EABAAAA2ABECDCCCC4C3E00000080DA
:10008000BEABAAAAAA3E00000000BF000000803F4D
:100090000000000000084178D3BB4387D1133D190D
:1000A0000E3CC3BD4282AD2B3E68EC8276BED98F3A
:1000B000E1A93E4C80EFFFBE01C4FF7F3F0000007E
:1000C00000006E616E00696E660000407A10F35A9F
:1000D00000A0724E18090010A5D4E80000E8764888
:1000E000170000E40B54020000CA9A3B000000E134
:1000F000F505000080969800000040420F000000C7
:10010000A08601000000102700000000E8030000A6
:1001100000006400000000000A0000000000010070
:10012000000000002C76D888DC674F0823DFC1DF91
:10013000AE59E1B1B796E5E3E453C63AE651997694
:1001400096E8E6C28426EB898C9B62ED407C6FFCCE
:10015000EFBC9C9F40F2BAA56FA5F490055A2AF710
:100160005C936B6CF9676DC11BFCE0E40D47FEF519
:1001700020E6B500D0ED902E030094357705008081
:10018000841E080000204E0A000000C80C333333E0
:10019000330F986E12831141EF8D2114893BE65580
:1001A00016CFFEE6DB18D1844B381BF77C1D901D63
:1001B000A4BBE424203284725E228100C9F124ECC5
:1001C000A1E53D2711241FBECFEFD8E0DEBFCDBF94
:1001D00014E0A0E0B1E0E8E8FEE502C005900D9271
:1001E000AC33B107D9F716E0ACE3B4E001C01D921F
:1001F000A23EB107E1F70E94BD1F0C94422F0C9460
:100200000000EF92FF921F93CF93DF93C82F7B01E3
:100210008EEE0E94DB0B11E0813009F010E011231B
:1002200019F58C2F0E94510C11E0813009F010E07B
:100230001123D1F48FEE0E94450C11E0813009F0BA
:1002400010E0112389F40E94630CD82F80E0C82F9E
:10025000F701D183C0830E946E0C90E0C82BD92B8C
:10026000F701D183C08303C0F701118210820E947D
:10027000480C812FDF91CF911F91FF90EF9008954F
:10028000EF92FF921F93CF93DF93C82F7B018EEEE7
:100290000E94DB0B11E0813009F010E0112319F509
:1002A0008C2F0E94510C11E0813009F010E01123D5
:1002B000D1F48FEE0E94450C11E0813009F010E07E
:1002C000112389F40E94630CD82F80E0C82FF70116
:1002D000D183C0830E946E0C90E0C82BD92BF7010C
:1002E000D183C08303C0F701118210820E94480CA1
:1002F000812FDF91CF911F91FF90EF9008958F9202
:100300009F92AF92BF92CF92DF92EF92FF920F93A4
:100310001F93CF93DF938AEA65E874E00E9401019E
:10032000882309F0D0C18CEA6DEB74E00E940101D2
:10033000882309F0CAC18EEA6FEB74E00E940101C4
:10034000882309F0C4C180EB65EB74E00E94400192
:10035000882309F0BEC182EB69E974E00E94400184
:10036000882309F0B8C184EB67E874E00E9440017B
:10037000882309F0B2C186EB6EEC74E00E940101A3
:10038000882309F0ACC188EB6BE974E00E9401019D
:10039000882309F0A6C18AEB67EB74E00E94010193
:1003A000882309F0A0C18CEB60ED74E00E9401018C
:1003B000882309F09AC18EEB6FE774E00E94010177
:1003C000882309F094C16091BF047091C00488270C
:1003D00077FD8095982F0E94022720E030E040EAC8
:1003E0005BE30E94D327062F172FD82EC92E862F06
:1003F000912FAD2DBC2D8093C9049093CA04A09376
:10040000CB04B093CC046091B5047091B60480E045
:1004100090E00E9400272FE632E143E053E30E9480
:10042000D327C62FD72FF82EE92E862F9D2FAF2D3D
:10043000BE2D80938D0490938E04A0938F04B0936F
:1004400090048091CE049091CF04AA2797FDA095A7
:10045000BA2FBC01CD010E94022720E030E048EC19
:1004600057E30E94D327B62EA72E982E892E862FCB
:100470009A2DA92DB82D8093950490939604A0935E
:100480009704B09398048091990490919A04A0E005
:10049000B0E0BC01CD010E9400272DEC3CEC4CE407
:1004A00054E30E94D327DC01CB018093B1049093E5
:1004B000B204A093B304B093B404809187049091E4
:1004C0008804A0E0B0E0BC01CD010E940027DC015F
:1004D000CB018093810490938204A0938304B09312
:1004E00084048091D0049091D104AA2797FDA0950F
:1004F000BA2FBC01CD010E9402272AE037ED43EA62
:100500005DE30E94D327DC01CB018093B904909373
:10051000BA04A093BB04B093BC0480917F04909173
:100520008004AA2797FDA095BA2FBC01CD010E9497
:10053000022720E030E040E253E40E946726DC011D
:10054000CB018093AD049093AE04A093AF04B0931D
:10055000B0048091850490918604AA2797FDA09508
:10056000BA2FBC01CD010E940227DC01CB01809390
:10057000A1049093A204A093A304B093A404809137
:10058000BD049091BE04AA2797FDA095BA2FBC0187
:10059000CD010E94022720E030E040EA5CE30E94A7
:1005A000D327DC01CB018093C5049093C604A093AC
:1005B000C704B093C80480919B0490919C04AA271F
:1005C00097FDA095BA2FBC01CD010E94022720E023
:1005D00030E048E45AE30E94D327DC01CB0180934A
:1005E0009D0490939E04A0939F04B093A0048C2F2D
:1005F0009D2FAF2DBE2DBC01CD0120E030E040E0AD
:1006000057E40E94D327DC01CB018093A50490938B
:10061000A604A093A704B093A804802F912FAD2D1A
:10062000BC2DBC01CD010C2F1D2F2F2D3E2DA9015E
:1006300098010E94D327DC01CB0180939104909311
:100640009204A0939304B09394048C2F9D2FAF2D0C
:10065000BE2DBC01CD010B2D1A2D292D382DA90140
:1006600098010E94D327DC01CB018093C1049093B1
:10067000C204A093C304B093C4048CEE91E5A7E137
:10068000B0E480937B0490937C04A0937D04B093AA
:100690007E0480E394E3AEE7BFE38093A9049093E4
:1006A000AA04A093AB04B093AC0480E097E5A4E95E
:1006B000B6E38093890490938A04A0938B04B0934B
:1006C0008C0480E015C081E013C081E011C081E09E
:1006D0000FC081E00DC081E00BC081E009C081E066
:1006E00007C081E005C081E003C081E001C081E076
:1006F000DF91CF911F910F91FF90EF90DF90CF90FE
:10070000BF90AF909F908F900895CF92DF92EF921D
:10071000FF920F931F93CF93DF93C82F7B01C42EBB
:100720008EEE0E94DB0B01E0813009F000E0002337
:1007300069F58C2F0E94510C01E0813009F000E036
:10074000002321F58FEE0E94450C01E0813009F075
:1007500000E00023D9F4DD240894C108D1081C145A
:100760001D045CF40E94630CF701808311E0812F6B
:1007700090E08C159D05B4F003C0002339F410E01F
:10078000E701C10FD11D0E946E0C88830E94480CA6
:10079000802FDF91CF911F910F91FF90EF90DF900D
:1007A000CF900895E701C10FD11D0E94630C88838B
:1007B0001F5FDDCFCF938EEE0E94DB0BC1E0813057
:1007C00009F0C0E0CC2381F484EF0E94510CC1E019
:1007D000813009F0C0E0CC2339F48EE20E94510C44
:1007E000C1E0813009F0C0E00E94480C8C2FCF910D
:1007F0000895AF92BF92CF92DF92EF92FF920F9344
:100800001F93CF93DF9300D0CDB7DEB75C011A8280
:10081000198286EFBE016F5F7F4F0E944001182F43
:10082000882309F049C069817A8180E090E00E94C4
:1008300000272091810430918204409183045091DB
:1008400084040E9402262091B1043091B2044091A8
:10085000B3045091B4040E94D327C62E072FF82E5C
:10086000E92E862F902FAF2DBE2DBC01CD012091FA
:10087000AD043091AE044091AF045091B0040E9499
:1008800003269B01AC016091B9047091BA04809178
:10089000BB049091BC040E9467262E2DD02EEF2C15
:1008A000F22EA70196010E940326DC01CB01F5017F
:1008B00080839183A283B383812F0F900F90DF9168
:1008C000CF911F910F91FF90EF90DF90CF90BF904D
:1008D000AF900895CF93DF93823031F0833031F0C1
:1008E000813031F0D4E305C0D4EB03C0D4EF01C0B4
:1008F000D4E78EEE0E94DB0BC1E0813009F0C0E04E
:10090000CC2381F484EF0E94510CC1E0813009F0C6
:10091000C0E0CC2339F48D2F0E94510CC1E081300E
:1009200009F0C0E00E94480C8C2FDF91CF91089510
:100930002F923F924F925F926F927F929F92AF92CF
:10094000BF92CF92DF92EF92FF920F931F93CF93BC
:10095000DF93CDB7DEB727970FB6F894DEBF0FBE93
:10096000CDBF1C016A017B0186EFBE016F5F7F4F27
:1009700043E00E948503B82E882309F015C1C70102
:10098000B60120E030E048EC51E40E940226F62E49
:10099000E72ED82EC92E382F862F9E2DAD2DBC2D9B
:1009A000BC01CD010F2D1E2D232F3B2FA901980136
:1009B0000E94D327062F172FA82E992E698170E049
:1009C00080E090E00E94022720E030E040E853E41D
:1009D0000E94D3272B013C016A8170E080E090E007
:1009E0000E9402279B01AC01C301B2010E940326B1
:1009F0002B013C016B8170E080E090E00E940227B7
:100A000020E030E040E85BE30E94D3279B01AC018B
:100A1000C301B2010E9403266C837D838E839F8372
:100A2000802F912FAA2DB92DBC01CD0120919D04BD
:100A300030919E0440919F045091A0040E94D327BE
:100A40002B013C018F2D9E2DAD2DBC2DBC01CD0168
:100A50002091C5043091C6044091C7045091C80448
:100A60000E94D3279B01AC01C301B2010E9403265F
:100A70002091A1043091A2044091A3045091A404B8
:100A80000E9403269B01AC016C817D818E819F8138
:100A90000E9402266C837D838E839F83802F912FFB
:100AA000AA2DB92DBC01CD012091C1043091C20401
:100AB0004091C3045091C4040E94D3272B013C01F0
:100AC0008F2D9E2DAD2DBC2DBC01CD01209191040B
:100AD0003091920440919304509194040E94D32742
:100AE0009B01AC01C301B2010E9403262091A50421
:100AF0003091A6044091A7045091A8040E940326B7
:100B00009B01AC016C817D818E819F810E94672653
:100B1000F62EE72ED82EC92E382F862F9E2DAD2DDE
:100B2000BC2DBC01CD010F2D1E2D232F3B2FA90164
:100B300098010E94D327462F572F682F792FCB017A
:100B4000BA012091890430918A0440918B0450911C
:100B50008C040E94D3272B013C01802F912FAD2DB7
:100B6000BC2DBC01CD012091A9043091AA04409173
:100B7000AB045091AC040E94D3279B01AC01C3018C
:100B8000B2010E94032620917B0430917C044091A5
:100B90007D0450917E040E940326DC01CB01F1010B
:100BA00080839183A283B3838B2D27960FB6F8940D
:100BB000DEBF0FBECDBFDF91CF911F910F91FF9090
:100BC000EF90DF90CF90BF90AF909F907F906F900D
:100BD0005F904F903F902F9008958430F9F08530CA
:100BE00038F4823089F08330A0F4813051F507C0A9
:100BF0008630F1F08630B8F0873019F51EC080E0FD
:100C000091E00E94CF25089584E091E00E94CF25D5
:100C1000089588E091E00E94CF2508958CE091E04E
:100C20000E94CF25089580E191E00E94CF2508958C
:100C300084E191E00E94CF25089588E191E00E942F
:100C4000CF250895CF92DF92EF92FF920F931F93DB
:100C5000CF93DF93CDB7DEB7E0970FB6F894DEBF42
:100C60000FBECDBF7C0101960E94202D082FD70119
:100C70008C91853609F47EC2863630F4833671F065
:100C8000843609F0B5C285C0833709F488C2873736
:100C900009F4A2C28C3609F0ABC27AC2C70103962E
:100CA0000E94202DD82E033051F1043028F4013059
:100CB000A1F00230D8F408C0053099F1053040F1B8
:100CC000063009F040C036C08093C80584E190E04A
:100CD0006D2D0E94342F10E037C08093C90586E146
:100CE00090E06D2D0E94342F10E02EC08093CB0534
:100CF00088E190E06D2D0E94342F10E025C0809394
:100D0000C7058AE190E06D2D0E94342F10E01CC0D1
:100D10008093CD058CE190E06D2D0E94342F10E082
:100D200013C08093CA058EE190E06D2D0E94342F90
:100D300010E00AC08093CC0580E290E06D2D0E9407
:100D4000342F10E001C012E0EDB7FEB738970FB6B0
:100D5000F894FEBF0FBEEDBF3196ADB7BEB7129689
:100D6000FC92EE9211978CE191E09383828304834D
:100D70001582D68217820E94AC2EEDB7FEB7389648
:100D80000FB6F894FEBF0FBEEDBFC7010E94CF257E
:100D900066C2023009F4B8C0033030F4002371F0A9
:100DA000013009F049C264C0043009F44DC1043077
:100DB00008F4EFC0053009F03FC291C108E211E02C
:100DC000C7010396B8010E94292E0E94202DF82EFB
:100DD00080E090E0B8010E94292E0E94202DC82EAC
:100DE00080E090E0B8010E94292E0E94202DE82E7C
:100DF000D92E8BE291E00E94CF258F2D6C2D4E2DA8
:100E00005D2D0E94E10D0E94ED058DB79EB70A97FA
:100E10000FB6F8949EBF0FBE8DBFEDB7FEB73196EB
:100E20008E010F5F1F4FADB7BEB712961C930E9386
:100E3000119782E391E093838283F4821582C682C4
:100E40001782E086D1860E94AC2EEDB7FEB73A96A7
:100E50000FB6F894FEBF0FBEEDBFC8010E94CF25AC
:100E60008F2D6C2D4E2D5D2D0E947F0E10E0F7C151
:100E700001E411E0C7010396B8010E94292E0E94E7
:100E8000202DF82E80E090E0B8010E94292E0E94CB
:100E9000202DD82E80E090E0B8010E94292E0E94DB
:100EA000202DE82E8DB79EB70A970FB6F8949EBFF7
:100EB0000FBE8DBFEDB7FEB731968E010F5F1F4F8E
:100EC000ADB7BEB712961C930E93119785E491E0CF
:100ED00093838283F4821582D6821782E0861186FC
:100EE0000E94AC2EEDB7FEB73A960FB6F894FEBF4F
:100EF0000FBEEDBFC8010E94CF258F2D6D2D4E2D49
:100F00000E94C00D10E0ABC1CE0189960E946B0D0E
:100F10008BE591E00E94CF2588A90E94ED058DB751
:100F20009EB740970FB6F8949EBF0FBE8DBFEDB72A
:100F3000FEB731968E010F5F1F4FADB7BEB7129649
:100F40001C930E93119784E691E0938382838CA582
:100F5000848315828DA5868317828EA59FA5918790
:100F6000808789A5828713868AA5848715868BA5A5
:100F7000868717860E94AC2EEDB7FEB770960FB627
:100F8000F894FEBF0FBEEDBFC8010E94CF2510E050
:100F900066C10E94BC0E7C0100D000D000D0EDB72D
:100FA000FEB731968E010F5F1F4FADB7BEB71296D9
:100FB0001C930E93119783E891E093838283C7017A
:100FC0009595879595958795958384830E94AC2EFA
:100FD000EDB7FEB736960FB6F894FEBF0FBEEDBF65
:100FE000C8010E94CF25F3E0EF22FF2481E0E8163C
:100FF000F104C1F092E0E916F10424F4E114F104E3
:1010000059F01CC1A2E0EA16F10491F0B3E0EB162E
:10101000F10409F013C112C08FE891E00E94CF25BE
:1010200010E01DC186E991E00E94CF2510E017C1B4
:101030008DE991E00E94CF2510E011C184EA91E092
:101040000E94CF2510E00BC101E411E0C701039617
:10105000B8010E94292E0E94202DD82E80E090E019
:10106000B8010E94292E0E94202D082FE7E1ED15DE
:1010700008F4E6C08C3308F0E5C0D09255048093A4
:1010800054040E94870B8DB79EB708970FB6F8944B
:101090009EBF0FBE8DBFEDB7FEB731967E0108949F
:1010A000E11CF11CADB7BEB71296FC92EE921197FF
:1010B0008BEA91E093838283D48215820683178220
:1010C0000E94AC2EEDB7FEB738960FB6F894FEBF6F
:1010D0000FBEEDBFC7010E94CF2510E0C0C001E4E4
:1010E00011E0C7010396B8010E94292E0E94202D0D
:1010F000D82E80E090E0B8010E94292E0E94202D79
:10110000082FF7E1FD1508F49FC08C3308F09EC04E
:10111000D0925304809352040E94870B8DB79EB7E0
:1011200008970FB6F8949EBF0FBE8DBFEDB7FEB700
:1011300031967E010894E11CF11CADB7BEB7129642
:10114000FC92EE92119786ED91E093838283D48294
:101150001582068317820E94AC2EEDB7FEB7389633
:101160000FB6F894FEBF0FBEEDBFC7010E94CF259A
:1011700010E075C0002309F06BC088E090E06FEFCD
:101180000E94342F8FEF91E00E94CF2510E067C0BE
:10119000083008F05FC000934C0410E060C00130DC
:1011A00071F0013030F0023071F0033009F054C0BA
:1011B0000EC08DE092E00E94CF2510E050C00E944A
:1011C000790C10E04CC00E94B62310E048C081E0CA
:1011D00080936D0410E043C0033008F03FC00093DB
:1011E000510482E190E0602F0E94342F10E037C05C
:1011F00000D000D000D0EDB7FEB731968E010F5F62
:101200001F4FADB7BEB712961C930E9311978FE187
:1012100092E093838283F582E4820E94AC2EEDB744
:10122000FEB736960FB6F894FEBF0FBEEDBFC801ED
:101230000E94CF2511E013C012E011C010E00FC0D2
:1012400010E00DC010E00BC010E009C010E007C0B6
:1012500012E005C012E003C012E001C012E0812FCD
:10126000E0960FB6F894DEBF0FBECDBFDF91CF91F1
:101270001F910F91FF90EF90DF90CF900895809194
:101280003D04882349F50E94DE25882309F10E9448
:10129000E72590E00E94162E8A3019F08D3071F407
:1012A00017C081E080933D0480913C04E2EDF4E0BE
:1012B000E80FF11D108210923C040AC090913C048A
:1012C000E2EDF4E0E90FF11D80839F5F90933C0411
:1012D00080913D04882339F010923D0482ED94E022
:1012E0000E942206089580E008952F923F924F9227
:1012F0005F927F928F929F92AF92BF92CF92DF9236
:10130000EF92FF920F931F93CF93DF93249A2C9821
:1013100081E090E00E9486182C9A249880E293E065
:1013200003C0019709F478C01C99FBCF80E991E0D4
:1013300003C0019709F472C01C9BFBCF80E991E0C8
:1013400003C0019709F46CC01C99FBCFA0E0B0E08A
:1013500020E931E000E911E090E070E0C0E058E2FF
:1013600060E80F2EFFE8AF2EF1E0BF2EF02D0F2E1C
:10137000F6EE8F2EF4E09F2EF02DD0E00F2EF0E849
:101380007F2EF02D0F2EF0E9CF2EF1E0DF2EF0E0D2
:10139000EF2EF0E0FF2EF02D01C0942F83B1482FE7
:1013A000407184FD30C0992371F15332C8F0201789
:1013B000310708F48901C801A0E0B0E01601270157
:1013C000281A390A4A0A5B0AD201C101B695A795C3
:1013D00097958795B695A79597958795DC0107C052
:1013E000C8018A1B9B0B8217930708F0762B669522
:1013F00039F4F401EC0FF11D7083CF5F7D2F672D61
:101400005150950103C02150304061F0552329F619
:10141000249A2C9A80E007C08DEF05C08CEF03C0A2
:101420008BEF01C08EEFDF91CF911F910F91FF9055
:10143000EF90DF90CF90BF90AF909F908F907F9074
:101440005F904F903F902F9008950F931F93CF93ED
:10145000DF93EC018B010E9475099091E604937073
:101460009093E6042091E80423782093E804392F30
:1014700020E04091E70450E0242B352B398328836A
:101480004091E80450E04F775070542F442720914A
:10149000E90430E0242B352BF8013183208390912F
:1014A000E80499232CF4309521953F4F3183208314
:1014B000E6EEF4E02091E7049081920F2281920FF2
:1014C0002381920F2091EA0429138FEFDF91CF91AE
:1014D0001F910F9108954F925F926F927F928F921A
:1014E0009F92AF92BF92CF92DF92EF92FF920F93B3
:1014F0001F93CF93DF9300D000D0CDB7DEB74C0160
:10150000882777FD8095982F0E9402276B017C0128
:10151000B40180E090E00E94002720E030E04AE73C
:1015200054E40E9467260E9493272B013C01C701C7
:10153000B60122E03BE24AE851E40E94D3274B0186
:101540005C01C701B60120E030E944E155E40E94A6
:1015500003269B01AC01C501B4010E946726A301CB
:1015600092010E940326462E872EC82E092F862F11
:10157000982DAC2DB02FBC01CD0120E030E944E125
:1015800055E40E94D32769837A838B839C8362E02E
:101590007BE28AE891E4402F042D182D2C2D342F66
:1015A000A90198010E9402269B01AC0169817A8100
:1015B0008B819C810E9467260E94CF26862F972FC1
:1015C0000F900F900F900F90DF91CF911F910F917F
:1015D000FF90EF90DF90CF90BF90AF909F908F9053
:1015E0007F906F905F904F90089588E090E00E9408
:1015F0002C2F8F3F09F041C088E090E061E00E940D
:10160000342F8AE090E067E10E94342F8CE090E074
:101610006EE10E94342F8EE090E067E00E94342F4C
:1016200080E190E06EE10E94342F82E190E062E080
:101630000E94342F84E190E060E00E94342F86E124
:1016400090E062E00E94342F88E190E063E00E9425
:10165000342F8AE190E064E00E94342F8CE190E026
:1016600066E00E94342F8EE190E061E00E94342F0A
:1016700080E290E067E00E94342F08958AE090E0D5
:101680000E942C2F809355048CE090E00E942C2F18
:10169000809354048EE090E00E942C2F809353049A
:1016A00080E190E00E942C2F8093520482E190E030
:1016B0000E942C2F8093510484E190E00E942C2FF3
:1016C0008093C80586E190E00E942C2F8093C90585
:1016D00088E190E00E942C2F8093CB058AE190E076
:1016E0000E942C2F8093C7058CE190E00E942C2F44
:1016F0008093CD058EE190E00E942C2F8093CA0547
:1017000080E290E00E942C2F8093CC0508958AE01F
:1017100090E0609155040E94342F8CE090E060913D
:1017200054040E94342F8EE090E0609153040E9494
:10173000342F80E190E0609152040E94342F82E1C6
:1017400090E0609151040E94342F84E190E0609118
:10175000C8050E94342F86E190E06091C9050E947F
:10176000342F88E190E06091CB050E94342F8AE10C
:1017700090E06091C7050E94342F8CE190E0609169
:10178000CD050E94342F8EE190E06091CA050E9441
:10179000342F80E290E06091CC050E94342F0895B0
:1017A0008C3019F41092B90003C091E09093B90005
:1017B0008093B80008950F931F93CF93DF93182F52
:1017C000ECEBF0E084EA80838081882374F000E011
:1017D000CCEBD0E081E090E00E9486180F5F88811A
:1017E000882324F00330B1F701C000E08091B900F4
:1017F000887F883011F08031B1F40330B0F4109359
:10180000BB0084E88093BC00ECEBF0E0808188238F
:10181000ECF79091B900987F983149F081E09034CD
:1018200039F480E005C081E003C081E001C080E0C0
:10183000DF91CF911F910F910895CF93DF93ECEB40
:10184000F0E024EAA9EBB0E0CBEBD0E034E844E9E7
:10185000208390819923ECF79C91987F983011F028
:101860009031B1F78883308390819923ECF79C9174
:10187000987F903211F0983529F44083908194FD3F
:10188000FDCFE6CFDF91CF9108950E94DB0B089545
:1018900084E98093BC00ECEBF0E0808184FDFDCF17
:1018A00008958093BB0084E88093BC00ECEBF0E0EB
:1018B00080818823ECF79091B900987F81E098327D
:1018C00009F480E0089584EC8093BC00ECEBF0E038
:1018D00080818823ECF78091BB00089584E8809391
:1018E000BC00ECEBF0E080818823ECF78091BB003A
:1018F0000895AF92BF92CF92DF92FF920F931F9302
:10190000CF93DF93CDB7DEB7E2970FB6F894DEBF83
:101910000FBECDBF8CE292E00E94CF2502E010E026
:10192000FF246E010894C11CD11C0F2EF7E3AF2ECB
:10193000F2E0BF2EF02D802F0E94DB0B8823F1F404
:1019400000D000D000D0EDB7FEB73196ADB7BEB72E
:101950001296DC92CE921197B382A28215830483F1
:101960000E94AC2E8DB79EB706960FB6F8949EBF18
:101970000FBE8DBFC6010E94CF25F3940E94480C74
:101980000E5F1F4F91E000301907A9F6FF2021F4E8
:101990008EE392E00E94CF2583E492E00E94CF255F
:1019A000E2960FB6F894DEBF0FBECDBFDF91CF91A8
:1019B0001F910F91FF90DF90CF90BF90AF9008954F
:1019C000282F2F70982F9695969596959E70892F13
:1019D000880F880F980F892F820F0895282F30E0E5
:1019E00086FF08C08F7025FF02C02AE001C020E0FA
:1019F000820F08958F7036952795369527953695E1
:101A000027952670922F990F990F290F820F08950D
:101A1000982F92959F70990F292F220F220F920FC6
:101A20008F70890F08956AE00E94142C8295807F40
:101A3000890F08950F931F93CF93DF93082FEB0126
:101A400080ED0E94DB0B11E0813009F010E01123E2
:101A5000A9F4802F0E94510C11E0813009F010E0B0
:101A6000112361F481ED0E94450C11E0813009F0F1
:101A700010E0112319F40E946E0C88830E94480C18
:101A8000812FDF91CF911F910F9108951F93CF93D5
:101A9000DF93182FD62F80ED0E94DB0BC1E0813041
:101AA00009F0C0E0CC2381F4812F0E94510CC1E0E9
:101AB000813009F0C0E0CC2339F48D2F0E94510C05
:101AC000C1E0813009F0C0E00E94480C8C2FDF910A
:101AD000CF911F9108951F93CF93DF93EC0180ED79
:101AE0000E94DB0B11E0813009F010E01123C1F5F9
:101AF00080E00E94510C11E0813009F010E01123C8
:101B000079F581ED0E94450C11E0813009F010E07B
:101B1000112331F50E94630C0E94E00C8A830E941D
:101B2000630C0E94E00C89830E94630C0E94EE0CFF
:101B300088830E94630C8F830E94630C0E94E00CD8
:101B40008B830E94630C0E94E00C8C830E946E0CBD
:101B50000E94080D90E08053984F9E838D8309C0AA
:101B60001E821D82188219821A8281E08C838B83E7
:101B70008F830E94480C812FDF91CF911F91089590
:101B8000CF93DF93C62FD42F8831C0F46C33B0F4D9
:101B90004C33A0F40E94130D682F82E00E94460D82
:101BA0008C2F0E94130D682F81E00E94460D8D2F0F
:101BB0000E94130D682F80E00E94460DDF91CF91A7
:101BC00008954F925F926F927F928F929F92AF9201
:101BD000BF92CF92DF92EF92FF92482E4A01262FBA
:101BE00030E08EE090E0821B930B6CE070E00E948E
:101BF000342CAA24BB2480EC92E1A0E0B0E0880E53
:101C0000991EAA1EBB1ECB01AA2797FDA095BA2F2D
:101C1000881A990AAA0ABB0ACB01880F991F680F74
:101C2000791F660F771F660F771F620F731F882754
:101C300077FD8095982F29E930E040E050E00E9440
:101C4000F52B695C71408040904025E030E040E039
:101C500050E00E94692C69017A01C40CD11CE11C7E
:101C6000F11CC501B4012DE631E040E050E00E94D6
:101C7000F52B2B013C014C0C5D1C6E1C7F1CC5011F
:101C8000B40124E030E040E050E00E94692C69019A
:101C90007A01C40CD51CE61CF71CC501B40124E66E
:101CA00030E040E050E00E94692CC21AD30AE40AF6
:101CB000F50AC501B40120E931E040E050E00E949E
:101CC000692CC20ED31EE41EF51EC701B6016C526C
:101CD0007D478040904027E030E040E050E00E94A7
:101CE000472C862FFF90EF90DF90CF90BF90AF9062
:101CF0009F908F907F906F905F904F9008950F937B
:101D00001F93CF93DF93C82FD62F81508F3138F593
:101D1000862F81508C3018F58A01005D174083E0D2
:101D2000083E1807E0F48C2F0E94E10D682F83E035
:101D30000E94460D802F0E94130D682F86E00E949E
:101D4000460D8D2F0E94130D682F85E00E94460DD1
:101D50008C2F0E94130D682F84E00E94460DDF91A6
:101D6000CF911F910F910895682F8150873018F4FB
:101D700083E00E94460D08950F931F93CF93DF9346
:101D800000D0CDB7DEB781E1BE016F5F7F4F0E940B
:101D90001A0D098110E0000F111F000F111F882379
:101DA00031F482E1BE016E5F7F4F0E941A0D2A81DD
:101DB000229526952695237030E0022B132B11FFD8
:101DC00004C01D7F109501951F4F882311F000E07E
:101DD00010E0802F912F0F900F90DF91CF911F91E6
:101DE0000F910895CF92DF92EF92FF92CF93DF93FE
:101DF000EC01882777FD8095982F0E9402276B01C0
:101E00007C0120E030E040E05FE30E94D32720E047
:101E100030E048E452E40E9467260E94CF26DC01AD
:101E2000CB01C817D90704F1C701B60120E030E0A3
:101E300040EC5FE30E94D32720E030E048E452E426
:101E40000E94672620E030E040E85FE30E9403261E
:101E50000E94CF26AB01BC0181E090E04C175D07EA
:101E60002CF480E090E002C080E090E090E0DF9110
:101E7000CF91FF90EF90DF90CF900895CF92DF92B7
:101E8000EF92FF92CF93DF93EC0164567040882766
:101E900077FD8095982F0E9402276B017C0120E03E
:101EA00030E040E05FE30E94D32720E030E048E4E8
:101EB00052E40E9467260E94CF26DC01CB01C8179E
:101EC000D90704F1C701B60120E030E040EC5FE340
:101ED0000E94D32720E030E048E452E40E946726C5
:101EE00020E030E040E85FE30E9403260E94CF2616
:101EF000AB01BC0181E090E04C175D072CF480E061
:101F000090E002C080E090E090E0DF91CF91FF9000
:101F1000EF90DF90CF900895CF92DF92EF92FF92F3
:101F2000CF93DF93EC016C597F4F882777FD809525
:101F3000982F0E9402276B017C0120E030E040E0F6
:101F40005FE30E94D32720E030E048E452E40E949F
:101F500067260E94CF26DC01CB01C817D90704F100
:101F6000C701B60120E030E040EC5FE30E94D327D8
:101F700020E030E048E452E40E94672620E030E0B0
:101F800040E85FE30E9403260E94CF26AB01BC011C
:101F900081E090E04C175D072CF480E090E002C0F7
:101FA00080E090E090E0DF91CF91FF90EF90DF90A4
:101FB000CF90089582E08093EB041092EC04089592
:101FC00021E01B9B20E08091ED049091EE040196AE
:101FD0009093EE048093ED048091EC04853618F024
:101FE00086E08093EB048091EB04843009F45BC0BD
:101FF000853030F4823059F0833009F08BC034C022
:10200000853009F47AC0863009F084C07DC022236F
:1020100009F080C08091ED049091EE0421E08039B8
:10202000920728F41092EE041092ED040895109295
:10203000B9051092EC042091EC04E22FF0E08091BD
:10204000ED049091EE04EE0FFF1FE151FB4F9183E1
:1020500080832F5F2093EC041092EE041092ED0425
:1020600083E08093EB040895213009F053C0209160
:10207000EC04A22FB0E08091ED049091EE04129652
:10208000EBEEF4E0AA0FBB1FAE0FBF1F11969C939F
:102090008E932F5F2093EC041092EE041092ED04C7
:1020A00084E0808308952223E1F42091EC04A22FA0
:1020B000B0E08091ED049091EE041296EBEEF4E026
:1020C000AA0FBB1FAE0FBF1F11969C938E932F5F5D
:1020D0002093EC041092EE041092ED0483E08083D0
:1020E00008958091ED049091EE0421E081399207EA
:1020F00088F085E08093EB040895222359F4109230
:10210000EE041092ED04089581E08093B90585E016
:102110008093EB0408956F927F928F929F92AF927B
:10212000BF92CF92DF92EF92FF920F931F93CF93C4
:10213000DF935C01FC018485853009F090C0C68185
:10214000D7818A819B8168E273E20E943E0F0097EB
:1021500009F487C0F5018085918584309105F1F4FB
:102160008C819D816AEC78E00E948C0F009709F4C5
:102170007AC08E819F8160E372E00E943E0F0097DB
:1021800009F473C0F501158214828FEF9FEFDC0113
:1021900080839183A283B38381E070C084349105EE
:1021A0000CF465C08C819D8164E971E10E948C0F03
:1021B000009709F45EC000E010E0CC24DD24760135
:1021C0000F2EF6E06F2E7724F02D6C0E7D1E8824E6
:1021D0009924689483F88C0E9D1EF301E00FF11F83
:1021E0008081918160E372E00E943E0F009709F4C4
:1021F00042C0E401C00FD11F888199816AE976E06D
:102200000E948C0F009779F0D701C601880F991FA3
:10221000AA1FBB1FCC24DD247601C394C82AD92A67
:10222000EA2AFB2A0CC08881998160E372E00E944F
:102230008C0F009711F1CC0CDD1CEE1CFF1C0C5F09
:102240001F4F0038110549F680E290E0F5019583B3
:102250008483C082D182E282F38281E00FC080E079
:102260000DC080E00BC080E009C080E007C080E0C6
:1022700005C080E003C080E001C080E0DF91CF9125
:102280001F910F91FF90EF90DF90CF90BF90AF9094
:102290009F908F907F906F900895F8942091EB0419
:1022A0007894223039F081E090E0253029F080E008
:1022B00090E0089581E090E00895F89482E08093A2
:1022C000EB041092EC0478940895FC01F8948FEEDE
:1022D00094E097838683DC0113972C9120871186E5
:1022E0002091B905228713860497DC018C9184879D
:1022F0007894CF010E948B10882321F40E945D11F5
:1023000080E0089581E00895EF92FF920F931F936C
:10231000CF93DF93CDB7DEB764970FB6F894DEBFE7
:102320000FBECDBF80914404833009F4FFC08430D8
:1023300038F4813009F4C2C0823008F04DC00AC0C0
:10234000853009F4CAC1853008F456C1863009F0D9
:10235000B7C231C28091A8028F3021F481E080930E
:102360004404AEC2803121F482E080934404A8C2C8
:10237000883048F41092A90210924204109241044D
:1023800080933E049DC2883091F41092A9028091FE
:102390004104882331F41092420481E08093410487
:1023A0008FC281E08093A9021092410489C28930D2
:1023B00009F086C21092410480914204882331F4CE
:1023C0001092A90281E0809342047AC281E0809356
:1023D000A9021092420474C28091A802813089F44B
:1023E0001092450485E492E00E94BC2210925104B0
:1023F00080E066E044E50E94ED1983E080934404A8
:102400005FC2823089F41092450485E492E00E9414
:10241000BC221092510480E066E044E40E94ED1971
:1024200085E0809344044CC28330A9F480916C040D
:10243000882341F481E080936C0410926B04109225
:102440003F0406C080916B04882311F410926C0441
:102450001092440435C2843009F5109245048091ED
:102460006B04882369F481E080936B0480916C0491
:10247000882319F081E080933F0410926C040BC014
:1024800080913F04882329F081E080936C041092AE
:102490003F0410926B041092440412C2893009F078
:1024A0000FC280916D04813019F410926D0403C045
:1024B00081E080936D041092440402C28091A802CE
:1024C000882369F41092450480914304882321F401
:1024D00081E08093430427C01092430424C08130DC
:1024E00051F410924504809140048823E1F481E086
:1024F0008093400418C010924504883041F0893020
:1025000051F0873051F481E08093510406C082E09D
:102510008093510402C01092510482E190E06091D6
:1025200051040E94342F10924404CAC12091A80281
:102530002A3020F0203109F0C3C102C0203169F4F3
:102540001092440482E190E00E942C2F8093510469
:1025500085E492E00E944722B3C18091450488231C
:1025600019F4233040F0ACC1823011F0843019F4FA
:10257000263008F0A5C10F2EF6E4EF2EF4E0FF2E72
:10258000F02DF701E80FF11D208300D000D000D01E
:10259000EDB7FEB731968E010F5F1F4FADB7BEB7D7
:1025A00012961C930E9311978DE492E0938382838D
:1025B000248315820E94AC2E8DB79EB706960FB667
:1025C000F8949EBF0FBE8DBFC8010E94CF256091B9
:1025D0004504F701E60FF11D808144E50E94ED19E5
:1025E000809145048F5F80934504863008F468C16C
:1025F00084E08093440464C18091A8028E3009F085
:102600005FC180E592E00E94CF25ADB7BEB750977D
:102610000FB6F894BEBF0FBEADBFEDB7FEB7319693
:102620008E010F5F1F4F12961C930E9311978FE52B
:1026300092E0938382838091460484831582809103
:102640004704868317828091480480871186809191
:1026500049048287138680914A0484871586809175
:102660004B04868717860E94AC2E8DB79EB7409686
:102670000FB6F8949EBF0FBE8DBFC8010E94CF2534
:1026800080914604880F982F990F990F890F2091F8
:10269000470490914804990F692F660F660F690FE0
:1026A00030914904630F90914A04990F492F440FC8
:1026B000440F490F30914B04430F820F0E94C00D0D
:1026C0001092440482E190E00E942C2F80935104E8
:1026D00085E492E00E944722F3C02091A8022A30AC
:1026E00020F0203109F0ECC002C0203169F41092D2
:1026F000440482E190E00E942C2F8093510485E4F1
:1027000092E00E944722DCC080914504882319F49E
:10271000243080F0D5C0813041F49091460493304C
:1027200049F4223008F0CCC005C0823019F42230C0
:1027300008F0C6C00F2EF6E4EF2EF4E0FF2EF02DC9
:10274000F701E80FF11D208300D000D000D0EDB7D5
:10275000FEB731968E010F5F1F4FADB7BEB7129611
:102760001C930E9311978DE492E0938382832483CC
:1027700015820E94AC2E8DB79EB706960FB6F894C0
:102780009EBF0FBE8DBFC8010E94CF25609145043A
:10279000F701E60FF11D808144E40E94ED1980915C
:1027A00045048F5F80934504863008F489C086E035
:1027B0008093440485C08091A8028E3009F080C0C7
:1027C0008FE692E00E94CF25ADB7BEB71E970FB639
:1027D000F894BEBF0FBEADBFEDB7FEB731968E0108
:1027E0000F5F1F4F12961C930E9311978EE792E086
:1027F0009383828380914604848315828091470469
:1028000086831782809148048087118680914904CD
:102810008287138680914A0490E0880F991F9C015B
:10282000220F331F220F331F820F931F8053984FA5
:1028300020914B04820F911D958784870E94AC2EB6
:102840008DB79EB70E960FB6F8949EBF0FBE8DBF84
:10285000C8010E94CF2580914604880F982F990FB8
:10286000990F890F7091470490914804990F692F2F
:10287000660F660F690F20914904620F20914A0488
:1028800030E0220F331FA901440F551F440F551F7D
:10289000240F351FA9014053584F90914B04490F05
:1028A000511D870F0E947F0E1092440482E190E038
:1028B0000E942C2F8093510485E492E00E944722CD
:1028C00064960FB6F894DEBF0FBECDBFDF91CF91F7
:1028D0001F910F91FF90EF9008950F931F93CF9347
:1028E000DF93CDB7DEB764970FB6F894DEBF0FBEA7
:1028F000CDBF8AEB95E00E946511882309F458C189
:102900008091BA059091BB05A091BC05B091BD0521
:102910008D3A22E592072FEFA20720E0B20709F4D3
:10292000E8C08E3A22E592072FEFA20720E0B20717
:1029300008F05BC08D3D22E292072FEFA20720E056
:10294000B20709F4C6C08E3D22E292072FEFA2071C
:1029500020E0B207E0F48F3E20E192072FEFA207BC
:1029600020E0B20709F4E4C0873E28E192072FEF88
:10297000A20720E0B20709F4D3C08D3F22E09207FE
:102980002FEFA20720E0B20709F0E2C0AAC0873CFF
:1029900028E392072FEFA20720E0B20709F4CCC08A
:1029A000883C28E392072FEFA20720E0B20750F4FB
:1029B0008F3C20E392072FEFA20720E0B20709F037
:1029C000C7C0AAC08D3B22E492072FEFA20720E0E8
:1029D000B20709F48AC0853B2AE492072FEFA207C9
:1029E00020E0B20709F0B4C088C0873628E9920712
:1029F0002FEFA20720E0B20709F486C0883628E945
:102A000092072FEFA20720E0B20770F58D3922E67A
:102A100092072FEFA20720E0B20709F452C08E39C7
:102A200022E692072FEFA20720E0B20750F4853A82
:102A30002AE592072FEFA20720E0B20709F088C02D
:102A40007FC0873928E692072FEFA20720E0B20760
:102A500009F456C085382AE792072FEFA20720E035
:102A6000B20709F075C060C08F3420EB92072FEFDA
:102A7000A20720E0B20709F44BC0803520EB920793
:102A80002FEFA20720E0B20750F4873528EA92071B
:102A90002FEFA20720E0B20709F05AC016C08D330D
:102AA00022EC92072FEFA20720E0B207B1F08F3F90
:102AB0002FEF92072FEFA2072FEFB20709F048C0C0
:102AC00043C08AE08093A80246C08DE08093A802AC
:102AD00042C08BE08093A8023EC08CE08093A802A5
:102AE0003AC08EE08093A80236C08FE08093A8029F
:102AF00032C080E18093A8022EC01092A8022BC0A1
:102B000081E08093A80227C082E08093A80223C0BE
:102B100083E08093A8021FC084E08093A8021BC0BA
:102B200085E08093A80217C086E08093A80213C0B6
:102B300087E08093A8020FC088E08093A8020BC0B2
:102B400089E08093A80207C081E18093A80203C0B6
:102B500082E18093A80200D000D000D0EDB7FEB78C
:102B600031968E010F5F1F4FADB7BEB712961C9303
:102B70000E9311978CE892E0938382838091A80250
:102B8000A4E9B2E0A80FB11D8C91848315820E9444
:102B9000AC2E8DB79EB706960FB6F8949EBF0FBEAB
:102BA0008DBFC8010E94CF250E9484110E945D1133
:102BB00064960FB6F894DEBF0FBECDBFDF91CF9104
:102BC0001F910F910895DF92EF92FF920F931F9341
:102BD000CF93DF93CDB7DEB72A970FB6F894DEBF59
:102BE0000FBECDBFDE011196EAEAF2E08AE0019065
:102BF0000D928150E1F785B1887F85B995B18091BB
:102C00004C048770892B85B980914D0490914E04B6
:102C1000A0914F04B09150042091F203222309F4B3
:102C2000C9C0E92EF82E209151042130E9F121305C
:102C300020F0223009F0BEC06EC0882391F59923A0
:102C400019F020E3921769F5F0907104E8E0EF15B0
:102C5000E8F09E012F0D311DF901418150E060E047
:102C600070E0842B952BA62BB72B9070A0709A0147
:102C700011270027762F652F542F4427402B512BE7
:102C8000622B732B842B952BA62BB72BEF2DEF5F8D
:102C9000E0937104EA3008F48DC029E020937104B8
:102CA00089C01092710486C0882391F5F090710458
:102CB0009E012F0D311DF901418150E060E070E06F
:102CC000842B952BA62BB72BEE2019F0F0E3EF16F3
:102CD000A1F428E02F1588F09070A0709A011127B8
:102CE0000027762F652F542F4427402B512B622B22
:102CF000732B842B952BA62BB72BEF2DEF5FE09337
:102D00007104EA3008F456C029E02093710452C0DF
:102D1000109271044FC020917204821709F448C0C8
:102D20008C019D010070D0907104FE01ED0DF11D2C
:102D3000418150E060E070E0042B152B262B372BEF
:102D4000E09173049E1729F1EA2F1070B62FA52F7A
:102D5000942F8827802B912BA22BB32B20917404C6
:102D6000E21719F4F0E3EF1669F4A070BA015527E1
:102D70004427842B952BA62BB72B29E0D21659F488
:102D8000E093740420917104293029F4E0927304D3
:102D900002C0D901C801209171042F5F20937104F2
:102DA0002A3040F029E020937104F092720402C0AE
:102DB00010927104E0E240E050E060E070E82BB176
:102DC0002F732BB98A019B01082319232A233B2344
:102DD000041715072607370711F45D9A01C05D989F
:102DE00076956795579547955F9A5F98E15039F7C3
:102DF0005E9A5E982A960FB6F894DEBF0FBECDBFDE
:102E0000DF91CF911F910F91FF90EF90DF90089588
:102E10000F931F93CF93DF93CDB7DEB76E970FB6A7
:102E2000F894DEBF0FBECDBF809170048130B1F049
:102E3000813038F0823009F45BC0833009F0B1C0D2
:102E400067C00E94DA03882329F084EB92E00E9495
:102E5000CF25A7C081E080937004A3C087E594E0EC
:102E60000E94F903882359F01092700489EC92E0D3
:102E70000E94CF2582ED92E00E94CF2592C082E091
:102E80008093700489EC92E00E94CF258DB79EB7A5
:102E900008970FB6F8949EBF0FBE8DBFEDB7FEB773
:102EA00031968E010F5F1F4FADB7BEB712961C93C0
:102EB0000E93119788ED92E093838283809157045B
:102EC00090915804A0915904B0915A048483958339
:102ED000A683B7830E94AC2E8DB79EB708960FB617
:102EE000F8949EBF0FBE8DBFC8010E94CF2559C068
:102EF00084EF0E946A04882339F082EE92E00E94F7
:102F0000CF25109270044DC083E08093700449C0B7
:102F100040915704509158046091590470915A049B
:102F20008BE594E00E949804082F1092700489ECBD
:102F300092E00E94CF25002329F08FEE92E00E94BC
:102F4000CF252FC0ADB7BEB718970FB6F894BEBF48
:102F50000FBEADBFEDB7FEB731968E010F5F1F4FAD
:102F600012961C930E93119785EF92E093838283C0
:102F700080915B0490915C04A0915D04B0915E042B
:102F800084839583A683B7830E94AC2E8DB79EB7AA
:102F900008960FB6F8949EBF0FBE8DBFC8010E9461
:102FA000CF256E960FB6F894DEBF0FBECDBFDF9172
:102FB000CF911F910F9108950F931F93CF93DF939C
:102FC000CDB7DEB76E970FB6F894DEBF0FBECDBF9C
:102FD00083E694E061E674E00E94250A882309F004
:102FE0007BC0609161047091620480916304909150
:102FF00064040E946B0A9093600480935F0400D085
:1030000000D000D0EDB7FEB731968E010F5F1F4F95
:10301000ADB7BEB712961C930E93119781E093E063
:103020009383828380916304909164049583848365
:103030000E94AC2E8DB79EB706960FB6F8949EBF31
:103040000FBE8DBFC8010E94CF2500D000D000D098
:10305000EDB7FEB73196ADB7BEB712961C930E937F
:10306000119787E193E0938382838091610490912B
:103070006204958384830E94AC2E8DB79EB706961A
:103080000FB6F8949EBF0FBE8DBFC8010E94CF251A
:1030900000D000D000D0EDB7FEB73196ADB7BEB7C7
:1030A00012961C930E93119785E293E0938382838B
:1030B00080915F0490916004958384830E94AC2E7C
:1030C0008DB79EB706960FB6F8949EBF0FBE8DBF04
:1030D000C8010E94CF2504C08AE393E00E94CF2557
:1030E0006E960FB6F894DEBF0FBECDBFDF91CF91C5
:1030F0001F910F910895F894609165047091660492
:103100008091670490916804789408958F929F92BB
:10311000AF92BF92CF92DF92EF92FF92CF93DF9365
:10312000EC010E947B184B015C016E01EE24FF2430
:103130000E947B18DC01CB0188199909AA09BB09F7
:103140008C159D05AE05BF0598F3DF91CF91FF90DB
:10315000EF90DF90CF90BF90AF909F908F900895A9
:103160001F920F920FB60F9211242F933F934F93FC
:103170005F936F937F938F939F93AF93BF93EF93DF
:10318000FF932D9A809169048F5F80936904843145
:10319000B8F00E9498208091650490916604A091F7
:1031A0006704B09168040196A11DB11D8093650468
:1031B00090936604A0936704B09368041092690426
:1031C0000E94E00F2D98FF91EF91BF91AF919F91D9
:1031D0008F917F916F915F914F913F912F910F90C0
:1031E0000FBE0F901F901895BF92CF92DF92EF9273
:1031F000FF920F931F93CF93DF93CDB7DEB76C97FA
:103200000FB6F894DEBF0FBECDBFF22E2D8BD32E9E
:103210003E8BC42E4F8BE52E588F698F7A8F8B8F04
:103220009C8F4A8D5B8D633091F58FE163E00E9446
:10323000E10D90916E04992321F0913009F079C04D
:1032400015C067E00E94142C8FE1891B8E1509F0D0
:1032500070C081E08F1508F06CC0809156048823FF
:1032600009F067C081E080936E0463C08F2D8F5F8B
:103270006D2D4C2D0E94C00D81E08093560482E29A
:1032800090E061E00E94342F10926E0452C06A30C8
:1032900009F04FC08FE16AE00E94E10D67E00E94F3
:1032A000142C8FE1B82EB91A00D000D000D0EDB7A1
:1032B000FEB731968E010F5F1F4FADB7BEB71296A6
:1032C0001C930E93119780E593E093838283B482DD
:1032D00015820E94AC2E8DB79EB706960FB6F89455
:1032E0009EBF0FBE8DBFC8010E94CF2580916F0485
:1032F000882319F08130E9F40DC0BE14D1F492E0B6
:103300009F15B8F480915604882399F081E080934A
:103310006F040FC08F2D81506D2D4C2D0E94C00D5C
:103320001092560482E290E060E00E94342F1092E6
:103330006F046C960FB6F894DEBF0FBECDBFDF9161
:10334000CF911F910F91FF90EF90DF90CF90BF90A2
:103350000895282F6AE00E94142C982F990F392F76
:10336000330F330F930F8295807F291B2F70822B91
:1033700008950F931F93982F9150963058F526E09B
:1033800030E08901081B1109C801880F880F4AE045
:1033900050E060E070E08A019B0104C0000F111F43
:1033A000221F331F8A95D2F7D901C80140914D04DD
:1033B00050914E0460914F0470915004842B952BD2
:1033C000A62BB72B80934D0490934E04A0934F04EB
:1033D000B09350041F910F910895CF93C42F633081
:1033E00009F49EC0643030F46130A9F1623008F015
:1033F00066C00AC0653009F4ECC0653008F4BEC090
:10340000663009F019C10DC190E0A0E0B0E0409134
:103410004D0450914E0460914F0470915004842BE0
:10342000952BA62BB72B80934D0490934E04A0931D
:103430004F04B093500481E00E94B91982E00E94C9
:10344000B91983E00E94B91984E00E94B91985E096
:103450000E94B919F1C090E0A0E0B0E040914D04A5
:1034600050914E0460914F0470915004440F551FC9
:10347000661F771F440F551F661F771F440F551F88
:10348000661F771F440F551F661F771F842B952BD0
:10349000A62BB72B80934D0490934E04A0934F041A
:1034A000B093500481E00E94B91982E00E94B919DA
:1034B00083E00E94B91984E00E94B919BDC090E070
:1034C000A0E0B0E040914D0450914E0460914F0453
:1034D00070915004440F551F661F771F440F551FEE
:1034E000661F771F440F551F661F771F440F551F18
:1034F000661F771F842B952BA62BB72B80934D042B
:1035000090934E04A0934F04B093500481E00E9426
:10351000B91982E00E94B91983E00E94B9198CC0E0
:1035200090E0A0E0B0E040914D0450914E046091D5
:103530004F0470915004440F551F661F771F440FAE
:10354000551F661F771F440F551F661F771F440FB7
:10355000551F661F771F842B952BA62BB72B8093A7
:103560004D0490934E04A0934F04B093500481E017
:103570000E94B91982E00E94B9195EC090E0A0E0F3
:10358000B0E040914D0450914E0460914F04709111
:103590005004440F551F661F771F440F551F661FA9
:1035A000771F440F551F661F771F440F551F661F57
:1035B000771F842B952BA62BB72B80934D049093CC
:1035C0004E04A0934F04B093500481E00E94B919B7
:1035D00033C090E0A0E0B0E040914D0450914E0423
:1035E00060914F0470915004440F551F661F771F60
:1035F000440F551F661F771F440F551F661F771F07
:10360000440F551F661F771F842B952BA62BB72BB6
:1036100080934D0490934E04A0934F04B0935004B4
:103620000BC010924D0410924E0410924F04109251
:10363000500488B1807F88B980914D0490914E04E8
:10364000A0914F04B0915004B07080934D049093BA
:103650004E04A0934F04B0935004C43569F4B2688B
:1036600080934D0490934E04A0934F04B093500464
:1036700083E080934C040EC0C43461F4B86480933A
:103680004D0490934E04A0934F04B093500482E0F5
:1036900080934C04CF91089588B1807F88B9809140
:1036A0007504843009F462C0853050F4813059F1DA
:1036B0008130C8F08230B9F1833009F0BDC046C016
:1036C000873009F486C0883038F4853009F45EC04C
:1036D000863009F0B1C06DC0883009F48AC08930E5
:1036E00009F0AAC099C080E090E0A0E0B1E080932A
:1036F0004D0490934E04A0934F04B093500481E086
:1037000080937504089581E191E1A1E1B2E0809395
:103710004D0490934E04A0934F04B093500482E064
:1037200080937504089582E292E2A2E2B0E480936D
:103730004D0490934E04A0934F04B093500488B16D
:103740008C6088B983E080937504089583E393E3E4
:10375000A3E3B4E080934D0490934E04A0934F04F0
:10376000B093500484E080937504089584E494E455
:10377000A4E4B8E080934D0490934E04A0934F04CA
:10378000B093500485E080937504089585E595E530
:10379000A5E5B0E880934D0490934E04A0934F04A8
:1037A000B093500488B1896088B986E0809375042D
:1037B000089586E696E6A6E6B0E180934D049093E0
:1037C0004E04A0934F04B093500487E08093750497
:1037D000089587E797E7A7E7B0E280934D049093B9
:1037E0004E04A0934F04B093500488E08093750476
:1037F000089588E898E8A8E8BFEF80934D04909377
:103800004E04A0934F04B093500488B18A6088B9E5
:1038100089E080937504089589E999E9A9E9BFEFE2
:1038200080934D0490934E04A0934F04B0935004A2
:103830001092750410926D040895662331F00E9471
:10384000102D6CE370E00E94342C67E00E94142C71
:103850009330D1F0943028F4913071F0923080F4AC
:1038600007C09530C9F0953098F09630E9F418C04B
:1038700087E080934C04089581E080934C04089580
:1038800082E080934C04089584E080934C04089572
:1038900083E080934C04089585E080934C04089560
:1038A00086E080934C04089510924C040895CF93C1
:1038B000DF93CDB7DEB728970FB6F894DEBF0FBE03
:1038C000CDBF80915304821720F49091550429179D
:1038D00088F0821721F480915204381768F480919F
:1038E0005504821759F481E090915404391738F443
:1038F00080E005C080E003C080E001C081E0289640
:103900000FB6F894DEBF0FBECDBFDF91CF91089503
:103910004F925F926F927F928F929F92AF92BF92DF
:10392000CF92DF92EF92FF921F93CF93DF93CDB7A9
:10393000DEB728970FB6F894DEBF0FBECDBF10924A
:103940004D0410924E0410924F0410925004CE0178
:1039500001960E946B0D1092F2038091430488231C
:1039600011F41B8101C010E080914204882329F0EA
:103970008B8161E00E941D1C3FC08091410488231F
:1039800029F08B8160E00E941D1C36C08091A90245
:10399000882391F580913E048330D9F0843028F457
:1039A000813079F0823088F409C08530D1F08530DB
:1039B000A0F08630D1F08730F9F41BC010924C048F
:1039C0001BC081E080934C0417C082E080934C04BC
:1039D00013C084E080934C040FC083E080934C04B8
:1039E0000BC085E080934C0407C086E080934C04B4
:1039F00003C087E080934C0480916D04882319F004
:103A00000E944C1B78C229813A814B815C816D8177
:103A10007E818F8198850E94571C882321F4809194
:103A20006C048823D1F0809140048823B1F4809104
:103A30006B04882391F48AEA9AEAAAEAB0E08093B8
:103A40004D0490934E04A0934F04B093500488B15A
:103A5000807F88B910924C044EC2103109F45CC0CA
:103A6000113120F41F3009F09BC107C0183209F44E
:103A70009AC0123309F094C102C188B1807F88B91D
:103A800029813A814B815C816D817E818F8198850E
:103A90000E94F4188C810E94A919182F8D810E9410
:103AA000A919412F50E060E070E0032E3CE0440F84
:103AB000551F661F771F3A95D1F7302D90E0A0E093
:103AC000B0E0482B592B6A2B7B2B440F551F661FE8
:103AD000771F440F551F661F771F440F551F661F22
:103AE000771F440F551F661F771F40934D04509357
:103AF0004E0460934F047093500483E00E94B91900
:103B000086E00E94B9198091A902882309F4F3C1C3
:103B100082E080934C04EFC188B1807F88B98E81A8
:103B20009F8164E670E00E94202CC82E862F0E94A0
:103B3000A919182F8C2D0E94A919412F50E060E07F
:103B400070E0762F652F542F442790E0A0E0B0E07E
:103B5000482B592B6A2B7B2B440F551F661F771F51
:103B6000440F551F661F771F440F551F661F771F91
:103B7000440F551F661F771F40934D0450934E040A
:103B800060934F047093500481E00E94B91986E05D
:103B90000E94B9198091A902882309F4ACC182E07E
:103BA00080934C04A8C18090570490905804A09032
:103BB0005904B0905A04C501B4010E94D426C62EFF
:103BC000862F0E94A919482E552466247724440C78
:103BD000551C661C771C440C551C661C771C440C39
:103BE000551C661C771C440C551C661C771C6C2DE0
:103BF00070E080E090E00E9402279B01AC01C501CB
:103C0000B4010E94022620E030E040E251E40E942C
:103C1000D3270E94D426862F90E0A0E0B0E0482A67
:103C2000592A6A2A7B2AD301C201072E7CE0880F19
:103C3000991FAA1FBB1F7A95D1F7702DB260809390
:103C40004D0490934E04A0934F04B093500484E02D
:103C50000E94B91985E00E94B91986E00E94B9193D
:103C600088B18C7F88B988B18C6088B98091A902AD
:103C7000882309F440C181E080934C043CC18090CA
:103C80005B0490905C04A0905D04B0905E04C5015C
:103C9000B40120E030E048EC52E40E9467260E9424
:103CA000D426C62E862F0E94A919482E8C2D90E06E
:103CB00024E630E0829FB001839F700D929F700DCB
:103CC0001124882777FD8095982F0E9402279B0159
:103CD000AC01C501B4010E940226462F572F682F60
:103CE000792FCB01BA010E94D426862F0E94A919F0
:103CF000552466247724762C652C542C4424C82E15
:103D0000DD24EE24FF24C428D528E628F728C501A1
:103D1000B4010E94CF26882777FD8095982F0E94B6
:103D200002279B01AC01C501B4010E94022620E0DC
:103D300030E040E251E40E94D3270E94D426462F6F
:103D400050E042955295507F5427407F5427662774
:103D500057FD6095762F7860BE2DAD2D9C2D882760
:103D60006A017B01C82AD92AEA2AFB2AC0924D049B
:103D7000D0924E04E0924F04F092500486E00E94EC
:103D8000B91988B18A7F88B988B18A6088B9809169
:103D9000A902882309F4AFC086E080934C04ABC02D
:103DA00081E08093F20389810E94A919C82E8A813B
:103DB0000E94A919DD24EE24FF24FE2CED2CDC2C1E
:103DC000CC2490E0A0E0B0E0C82AD92AEA2AFB2A55
:103DD0008B810E94A919FE2CED2CDC2CCC2490E0C8
:103DE000A0E0B0E0C82AD92AEA2AFB2AC0924D04F2
:103DF000D0924E04E0924F04F092500488B1807F3C
:103E000088B98091A902882319F083E080934C043B
:103E10008B8180FF12C080914D0490914E04A0913F
:103E20004F04B0915004B86080934D0490934E04B9
:103E3000A0934F04B093500411C080914D04909111
:103E40004E04A0914F04B0915004B06880934D048B
:103E500090934E04A0934F04B09350048A8180FF46
:103E600012C080914D0490914E04A0914F04B091E6
:103E70005004B26080934D0490934E04A0934F047D
:103E8000B093500411C080914D0490914E04A091C4
:103E90004F04B0915004B06480934D0490934E044D
:103EA000A0934F04B093500480915604882391F05E
:103EB00080914D0490914E04A0914F04B091500414
:103EC000B06280934D0490934E04A0934F04B0933E
:103ED000500411C080914D0490914E04A0914F0464
:103EE000B0915004BF7D80934D0490934E04A093F5
:103EF0004F04B093500428960FB6F894DEBF0FBE5F
:103F0000CDBFDF91CF911F91FF90EF90DF90CF90C9
:103F1000BF90AF909F908F907F906F905F904F90E9
:103F20000895E0EBF0E080818260808382E08093FE
:103F3000B10083E68093B3001092B200E0E7F0E0B6
:103F4000808182608083089584B1877E84B985B141
:103F5000877E85B984B1876284B985B1887D85B94A
:103F600087B18F6087B988B1807F88B98AB1806E48
:103F70008AB98BB18F718BB90895CF93DF93CDB789
:103F8000DEB764970FB6F894DEBF0FBECDBF0E94B8
:103F9000911F0E94DA0F8CE00E94D00B0E94A41F98
:103FA0008BE390E00E94152D89E190E00E940A25A4
:103FB0000E947F0188E89CE16BE573E040E050E0FF
:103FC00028EE33E00E94B72183EE95E163E673E0CB
:103FD00044E650E022E330E00E94B7218DE694E110
:103FE0006AE673E046E950E024EF31E00E94B72131
:103FF0008CED97E162E773E04AEF50E028E833E1A7
:104000000E94B72188E097E168E773E04EE551E050
:1040100028E833E10E94B72178940E94F50A0E94B3
:104020003E0B82E290E00E942C2F91E0882309F45D
:1040300090E0909356048FE793E00E94CF2589EAA1
:1040400093E00E94CF258DB79EB70C970FB6F894DA
:104050009EBF0FBE8DBFEDB7FEB731968E010F5FCD
:104060001F4FADB7BEB712961C930E93119788EBF6
:1040700093E0938382838091550484831582809199
:10408000540486831782809153048087118680911F
:104090005204828713860E94AC2E8DB79EB70C9671
:1040A0000FB6F8949EBF0FBE8DBFC8010E94CF25EA
:1040B0008E010F5F1F4F0F2EFFEDEF2EF3E0FF2E4F
:1040C000F02D0F2EF2EDCF2EF4E0DF2EF02D0F2E7F
:1040D000F0EDAF2EF3E0BF2EF02D0E9411210E94D3
:1040E0003F09813019F08230C1F704C0C5010E9438
:1040F000CF25F3CF00D000D000D0EDB7FEB731967A
:10410000ADB7BEB712961C930E931197F382E2825D
:10411000D582C4820E94AC2E8DB79EB706960FB68C
:10412000F8949EBF0FBE8DBFC8010E94CF25D5CF8A
:104130008091CE059091CF05009709F471C080E081
:1041400090E060E0AEECB5E0FC01EE0FFF1FE80F81
:10415000F91FEE0FFF1FEE0FFF1FEE0FFF1FE80FFF
:10416000F91FEA0FFB1F4089518941155105A9F03C
:104170009C01220F331F280F391F220F331F220FDC
:10418000331F220F331F820F931FFD01E80FF91F0A
:1041900041505040518B408B2BC0FC01EE0FFF1F54
:1041A000E80FF91FEE0FFF1FEE0FFF1FEE0FFF1FAF
:1041B000E80FF91FEA0FFB1F228933892150304095
:1041C000338B228B2115310599F49C01220F331F6B
:1041D000280F391F220F331F220F331F220F331FC7
:1041E000820F931FFD01E80FF91F84898160848B82
:1041F0006F5F862F90E0FC01EE0FFF1FE80FF91FA5
:10420000EE0FFF1FEE0FFF1FEE0FFF1FE80FF91F4E
:10421000EA0FFB1F208131812115310509F094CF70
:1042200008958F929F92AF92BF92CF92DF92EF92BA
:10423000FF921F93CF93DF938091CE059091CF058E
:10424000009709F488C0C0E0D0E010E00F2EFEEC2B
:10425000CF2EF5E0DF2EF02DFE01EE0FFF1FEC0F4D
:10426000FD1FEE0FFF1FEE0FFF1FEE0FFF1FEC0FE6
:10427000FD1FEC0DFD1D84898370833009F054C04F
:104280000E947B184B015C017E01EE0CFF1CEC0EC2
:10429000FD1EEE0CFF1CEE0CFF1CEE0CFF1CEC0ECA
:1042A000FD1EEC0CFD1CD701ED91FC910995F70169
:1042B00084898E7F848B86859785938B828B0E94E1
:1042C0007B18AB01BC01481559056A057B0558F4FC
:1042D000D501C40180959095A095B095480F591FC0
:1042E0006A1F7B1F04C0481959096A097B09FE012E
:1042F000EE0FFF1FEC0FFD1FEE0FFF1FEE0FFF1F56
:10430000EE0FFF1FEC0FFD1FEC0DFD1D568B458BB7
:104310008789908DA0E0B0E084179507A607B707BE
:1043200018F4EF01588F4F8B1F5FC12FD0E0FE01B3
:10433000EE0FFF1FEC0FFD1FEE0FFF1FEE0FFF1F15
:10434000EE0FFF1FEC0FFD1FEC0DFD1D8081918115
:10435000009709F081CFDF91CF911F91FF90EF90EF
:10436000DF90CF90BF90AF909F908F9008954F9225
:104370005F926F927F928F929F92AF92BF92CF92F5
:10438000DF92EF92FF921F93CF93DF937C015B014B
:104390006A01B90110917604193008F067C0809164
:1043A000DC059091DD050097D9F0C0E04EEC55E0BA
:1043B000CF5F2C2F30E0C901880F991F820F931F08
:1043C000880F991F880F991F880F991F820F931FBD
:1043D000840F951FFC0186859785009749F701C0DA
:1043E000C0E080E090E028EE33E040E050E00E9442
:1043F000F52B0E94692C8C2F90E0EC01CC0FDD1F77
:10440000C80FD91FCC0FDD1FCC0FDD1FCC0FDD1F58
:104410004E01880E991EE401C253DA4FF982E882F8
:104420003F872E873B8B2A8BB60180E090E028EEF9
:1044300033E040E050E00E94F52B0E94692C398B5C
:10444000288B8C8982608E7F8C8B1E8A1D8A188EA9
:104450001F8AC40180539A4FB5014CE050E00E947E
:10446000372E1F5F1093760480E001C086E0DF9155
:10447000CF911F91FF90EF90DF90CF90BF90AF90C2
:104480009F908F907F906F905F904F900895BF9214
:10449000CF92DF92EF92FF920F931F93CF93DF9310
:1044A0006C018091DC059091DD05009709F457C0FF
:1044B000C0E0D0E010E000E00F2EFEECEF2EF5E0C3
:1044C000FF2EF02DBB24B394CE01880F991F8C0FC3
:1044D0009D1F880F991F880F991F880F991F8C0F98
:1044E0009D1F80539A4FB6010E942E2E282F392FE0
:1044F00021153105A1F4CE01880F991F8C0F9D1F46
:10450000880F991F880F991F880F991FC80FD91FEF
:10451000CE0DDF1D8C8982608C8B2B2D01C0202F4E
:104520001F5FC12FD0E0FE01EE0FFF1FEC0FFD1F3C
:10453000EE0FFF1FEE0FFF1FEE0FFF1FEC0FFD1F13
:10454000EE0DFF1D86859785009729F0222309F43B
:10455000BBCF80E007C0222321F080E003C085E0CC
:1045600001C084E0DF91CF911F910F91FF90EF90F8
:10457000DF90CF90BF900895BF92CF92DF92EF92DD
:10458000FF920F931F93CF93DF936C018091DC0513
:104590009091DD05009709F457C0C0E0D0E010E02D
:1045A00000E00F2EFEECEF2EF5E0FF2EF02DBB24E9
:1045B000B394CE01880F991F8C0F9D1F880F991FF0
:1045C000880F991F880F991F8C0F9D1F80539A4F3A
:1045D000B6010E942E2E282F392F21153105A1F466
:1045E000CE01880F991F8C0F9D1F880F991F880F70
:1045F000991F880F991FC80FD91FCE0DDF1D8C89F9
:104600008D7F8C8B2B2D01C0202F1F5FC12FD0E001
:10461000FE01EE0FFF1FEC0FFD1FEE0FFF1FEE0F51
:10462000FF1FEE0FFF1FEC0FFD1FEE0DFF1D868518
:104630009785009729F0222309F4BBCF80E007C0BB
:10464000222321F080E003C085E001C084E0DF91F7
:10465000CF911F910F91FF90EF90DF90CF90BF907F
:1046600008958F929F92BF92CF92DF92EF92FF9226
:104670000F931F93CF93DF936B012091DC05309153
:10468000DD052115310509F462C0BC0180E090E030
:1046900028EE33E040E050E00E94F52B0E94692CA8
:1046A0004901C0E0D0E010E000E00F2EFEECEF2E5C
:1046B000F5E0FF2EF02DBB24B394CE01880F991F97
:1046C0008C0F9D1F880F991F880F991F880F991FA6
:1046D0008C0F9D1F80539A4FB6010E942E2E282FBB
:1046E000392F2115310599F4CE01880F991F8C0FB0
:1046F0009D1F880F991F880F991F880F991FC80F3A
:10470000D91FCE0DDF1D9F868E862B2D01C0202F39
:104710001F5FC12FD0E0FE01EE0FFF1FEC0FFD1F4A
:10472000EE0FFF1FEE0FFF1FEE0FFF1FEC0FFD1F21
:10473000EE0DFF1D86859785009729F0222309F449
:10474000BCCF80E007C0222321F080E003C085E0D9
:1047500001C084E0DF91CF911F910F91FF90EF9006
:10476000DF90CF90BF909F908F900895AF92BF92AF
:10477000CF92DF92EF92FF921F93CF93DF93CDB74B
:10478000DEB7C655D0400FB6F894DEBF0FBECDBF22
:10479000DE01D396E3E1F4E084E201900D928150D2
:1047A000E1F7CE01C3960E94CF254091DC055091E0
:1047B000DD054115510509F479C020E030E010E035
:1047C0007E010894E11CF11C0F2EF3EFAF2EF3E0F5
:1047D000BF2EF02D0F2EFEECCF2EF5E0DF2EF02DAC
:1047E0008DB79EB70E970FB6F8949EBF0FBE8DBFC4
:1047F000ADB7BEB71196EDB7FEB7F282E182139660
:10480000BC92AE921297C901880F991F820F931F15
:10481000880F991F880F991F880F991F820F931F68
:104820009C0120533A4F15963C932E93149717965C
:104830005C934E931697F601E80FF91F848918963A
:104840008C93189719961C921997858996891B96AF
:104850009C938E931A978789908D1D969C938E9327
:104860001C970E94AC2E8DB79EB70E960FB6F8948B
:104870009EBF0FBE8DBFC7010E94CF251F5F212F96
:1048800030E0F901EE0FFF1FE20FF31FEE0FFF1FE5
:10489000EE0FFF1FEE0FFF1FE20FF31FEC0DFD1DCC
:1048A000468557854115510509F09ACFCA5ADF4F01
:1048B0000FB6F894DEBF0FBECDBFDF91CF911F9131
:1048C000FF90EF90DF90CF90BF90AF9008951F9230
:1048D0000F920FB60F9211242F933F934F935F9334
:1048E0008F939F93EF93FF939091DE068091DD0667
:1048F0009817E1F08091DE06E091E006F091E10684
:10490000E80FF11D50814091DE06242F30E08091A8
:10491000DF0690E001972817390711F04F5F01C0BB
:1049200040E04093DE065093C60005C0E1ECF0E0A5
:1049300080818F7D8083FF91EF919F918F915F9117
:104940004F913F912F910F900FBE0F901F90189590
:104950001F920F920FB60F9211242F933F934F93F4
:104960005F938F939F93EF93FF93CF93DF930F9278
:10497000CDB7DEB75091D906E9EDF6E04291842F2C
:1049800090E0228130E0215030408217930711F0EF
:104990004F5F01C040E05417F1F08091C600909144
:1049A000D806E091DB06F091DC06E90FF11D80836B
:1049B0004091D806242F30E08091DA0690E00197EC
:1049C0002817390711F04F5F01C040E04093D80627
:1049D0001092D70606C08091C600898381E080933B
:1049E000D70680917704909178040196909378048B
:1049F000809377040F90DF91CF91FF91EF919F917A
:104A00008F915F914F913F912F910F900FBE0F901B
:104A10001F901895CF93DF93CDB7DEB764970FB68D
:104A2000F894DEBF0FBECDBF9093C5008093C40045
:104A300088E98093C100E0ECF0E080818D7F808385
:104A400086E08093C200188A198A8EE18A8B8FEAE9
:104A500096E09C8B8B8BDE011696FE01709685E0AE
:104A600001900D928150E1F7DE011B96FE01369612
:104A700085E001900D928150E1F7ADEDB6E0FE01C9
:104A80003B9685E001900D928150E1F71B861C86D4
:104A90008AE08D878DEC96E09F878E87DE011196E8
:104AA000FE013B9685E001900D928150E1F7DE0119
:104AB0005096FE01319685E001900D928150E1F70C
:104AC000A8EDB6E0FE01709685E001900D92815050
:104AD000E1F764960FB6F894DEBF0FBECDBFDF914D
:104AE000CF910895CF92DF92EF92FF920F931F9391
:104AF000CF93DF93C82ECEEDD6E08E01015010404B
:104B0000EE24FF246894E1F8E00EF11EDD2404C0D9
:104B100081E090E00E9486185881F8014081242F9E
:104B200030E0F701808190E001972817390711F0F4
:104B30004F5F01C04D2D541759F3F8949091DE0644
:104B40008091DD06981729F4E1ECF0E08081806225
:104B500080838091DD06E091E006F091E106E80FA8
:104B6000F11DC0824091DD06242F30E08091DF06E8
:104B700090E001972817390711F04F5F01C040E01E
:104B80004093DD067894DF91CF911F910F91FF90B4
:104B9000EF90DF90CF9008950E9472250895CF93F3
:104BA000DF93EC018881882331F021960E94CC2587
:104BB00089918823D9F7DF91CF9108952091D90663
:104BC0009091D80681E0291709F480E0089580913A
:104BD000D906E091DB06F091DC06E80FF11D80813B
:104BE0009091D906492F50E02091DA0630E021500B
:104BF00030404217530711F09F5F01C090E090933F
:104C0000D90608955058BB27AA270ED04DC13ED1D2
:104C100030F043D120F031F49F3F11F41EF433C142
:104C20000EF4E095E7FB29C1E92F4FD180F3BA17C5
:104C3000620773078407950718F071F49EF567C142
:104C40000EF4E0950B2EBA2FA02D0B01B9019001A7
:104C50000C01CA01A0011124FF27591B99F0593FEB
:104C600050F4503E68F11A16F040A22F232F342F33
:104C70004427585FF3CF469537952795A795F04081
:104C80005395C9F77EF41F16BA0B620B730B840B96
:104C9000BAF09150A1F0FF0FBB1F661F771F881F4E
:104CA000C2F70EC0BA0F621F731F841F48F48795A6
:104CB00077956795B795F7959E3F08F0B3CF939595
:104CC000880F08F09927EE0F9795879508950CD0D7
:104CD000EBC0E3D040F0DAD030F021F45F3F19F0C0
:104CE000CCC0511115C1CFC0F0D098F39923C9F3AE
:104CF0005523B1F3951B550BBB27AA2762177307E2
:104D0000840738F09F5F5F4F220F331F441FAA1F95
:104D1000A9F333D00E2E3AF0E0E830D09150504055
:104D2000E695001CCAF729D0FE2F27D0660F771F03
:104D3000881FBB1F261737074807AB07B0E809F0E5
:104D4000BB0B802DBF01FF2793585F4F2AF09E3F7A
:104D5000510568F092C0DCC05F3FECF3983EDCF395
:104D6000869577956795B795F7959F5FC9F7880FF3
:104D7000911D9695879597F90895E1E0660F771F45
:104D8000881FBB1F621773078407BA0720F0621BD6
:104D9000730B840BBA0BEE1F88F7E095089504D0CF
:104DA0006894B111B5C0089598D088F09F5790F0DD
:104DB000B92F9927B751A0F0D1F0660F771F881F40
:104DC000991F1AF0BA95C9F712C0B13081F09FD07F
:104DD000B1E008959CC0672F782F8827B85F39F01D
:104DE000B93FCCF3869577956795B395D9F73EF49F
:104DF00090958095709561957F4F8F4F9F4F089547
:104E0000E89409C097FB3EF4909580957095619564
:104E10007F4F8F4F9F4F9923A9F0F92F96E9BB271A
:104E20009395F695879577956795B795F111F8CF96
:104E3000FAF4BB0F11F460FF1BC06F5F7F4F8F4F01
:104E40009F4F16C0882311F096E911C0772321F0F7
:104E50009EE8872F762F05C0662371F096E8862F8F
:104E600070E060E02AF09A95660F771F881FDAF7E6
:104E7000880F9695879597F9089597F99F6780E829
:104E800070E060E008959FEF80EC089500240A949C
:104E90001616170618060906089500240A94121615
:104EA0001306140605060895092E0394000C11F448
:104EB000882352F0BB0F40F4BF2B11F460FF04C0F5
:104EC0006F5F7F4F8F4F9F4F089557FD9058440F4E
:104ED000551F59F05F3F71F04795880F97FB991F59
:104EE00061F09F3F79F08795089512161306140616
:104EF000551FF2CF4695F1DF08C0161617061806A3
:104F0000991FF1CF86957105610508940895E8947D
:104F1000BB2766277727CB0197F908950EF0A6C027
:104F2000B2CF6894AACFD9DFC8F39923D1F3C6F3DF
:104F3000DF93CF931F930F93FF92C92FDD27882311
:104F40002AF02197660F771F881FDAF720E030E0FC
:104F500040E85FEB9FE3883920F0803E30F02196F7
:104F60008F7751DEE8E6F0E003C04DDEE5E9F0E0E2
:104F70008BD08B01BE01EC01FB2E6F57710975952B
:104F8000771F880B990B3EDF28E132E741E35FE3AF
:104F900016D0AF2D9801AE01FF900F911F91CF91C8
:104FA000DF9142DE81CF0BD07FCF70DF28F075DF3D
:104FB00018F0952309F061CF66CF1124A9CF85DFC2
:104FC000A0F3959FD1F3950F50E0551F629FF0011C
:104FD000729FBB27F00DB11D639FAA27F00DB11D75
:104FE000AA1F649F6627B00DA11D661F829F2227FE
:104FF000B00DA11D621F739FB00DA11D621F839F85
:10500000A00D611D221F749F3327A00D611D231F5A
:10501000849F600D211D822F762F6A2F11249F57A8
:1050200050408AF0E1F088234AF0EE0FFF1FBB1FCB
:10503000661F771F881F91505040A9F79E3F51056A
:1050400070F01BCF65CF5F3FECF3983EDCF38695A5
:1050500077956795B795F795E7959F5FC1F7FE2B15
:10506000880F911D9695879597F908959F3F31F088
:10507000915020F4879577956795B795880F911D86
:105080009695879597F90895DF93CF931F930F9384
:10509000FF92EF92DF927B018C01689405C0DA2EBB
:1050A000EF018DDFFE01E894A591259135914591A1
:1050B0005591AEF3EF01B8DDFE019701A801DA9436
:1050C00079F7DF90EF90FF900F911F91CF91DF91D3
:1050D0000895A5E1B0E0EFE6F8E20C94842C4C01D1
:1050E0007F876E87FC0117821682838181FD04C051
:1050F00076C34C855D8504C01E010894211C311CBB
:10510000F4019381EE85FF8593FD859193FF819155
:10511000FF87EE87882309F45EC3853241F493FD4F
:10512000859193FF8191FF87EE87853259F490E056
:10513000B4014C8B5D8B0E94802E4C895D895D870C
:105140004C87D7CFFF24DD2410E01032B0F48B322F
:1051500069F08C3228F4803251F0833271F40BC044
:105160008D3239F0803349F411602CC01260146024
:1051700029C0186027C0106125C017FD2EC0282F38
:1051800020532A3098F416FF08C08F2D880FF82E70
:10519000FF0CFF0CF80EF20E15C08D2D880FD82EC7
:1051A000DD0CDD0CD80ED20E10620CC08E3221F454
:1051B00016FD11C3106406C08C3611F4106802C0CD
:1051C000883659F4EE85FF8593FD859193FF819193
:1051D000FF87EE87882309F0B8CF982F9554933036
:1051E00018F41061805E06C0982F9556933008F031
:1051F000A2C11F7E16FD02C0E6E0FE2E1F7385369B
:1052000011F4106406C0863611F4106802C0F11063
:10521000FA9417FF07C0FBE3FF1548F0EF2CE39467
:1052200027E00DC027E02F1530F02F2D07C027E015
:105230007CE3E72E04C027E067E0F62EEE24CA01E7
:1052400004969D878C87FA016081718182819381A8
:10525000A1010E2D0E943E2D5C01C9802C2D30E055
:10526000398B288BC0FE03C0388933FF06C011FD7F
:1052700006C012FF06C000E205C00DE203C00BE24B
:1052800001C000E0888999898C709070009709F4BA
:105290003CC0002311F084E001C083E08D1558F478
:1052A000D81A13FD09C080E290E0B4010E94802E5C
:1052B000DA94C9F701C0DD24002329F0802F90E0A3
:1052C000B4010E94802E888983FD05C036ECE32E50
:1052D00030E0F32E11C022ECE22E20E0F22E0CC0C2
:1052E0000115110509F0805290E0B4010E94802E52
:1052F0000894E11CF11C04C0012F10E00071107033
:10530000F7018491882361F763C217FF0EC0EA0C8E
:10531000F889F4FF04C08A81813309F4EA941E14E9
:105320004CF528E02E1548F12CC016FD2AC08F2D13
:1053300090E08A159B0544F03CEFA3163FEFB306BF
:105340001CF0106801C0FA94FF2049F0E2E0F0E0A0
:10535000EC0FFD1FEF0DF11D80818033A1F317FFCE
:1053600010C0EF2CE3948F2D90E0A816B90644F4FA
:10537000FA1807C0EE24E39404C098E0E92E01C0B7
:10538000FF2417FF07C01A141B043CF495012F5F7C
:105390003F4F05C025E030E002C021E030E00023AF
:1053A00011F02F5F3F4FFF2029F08F2D90E00196E5
:1053B000280F391F8D2D90E02817390714F4D21AC1
:1053C00001C0DD24612E7724C3018970907000979D
:1053D00049F406C080E290E0B4010E94802EDA9485
:1053E000DD20C1F7002329F0802F90E0B4010E9456
:1053F000802E63FC09C006C080E390E0B4010E94E7
:10540000802EDA94DD20C1F717FF48C08501B7FE72
:1054100002C000E010E06624772495012E193109BE
:105420003B8B2A8B2501401A510A420C531C6F2DCD
:1054300070E0EE24FF24E61AF70A3FEF0F3F130750
:1054400029F48EE290E0B4010E94802EA016B106ED
:1054500054F02A893B89201731072CF4F201E60D1C
:10546000F71D818101C080E3015010400894611C48
:10547000711C0E151F052CF090E0B4010E94802EC7
:10548000DCCF0A151B0541F49A81963320F495333D
:1054900019F4388934FF81E390E049C08A8181336F
:1054A00011F09FEEC92290E0B4010E94802EFF20EF
:1054B00089F08EE290E0B4010E94802E12E0F101AA
:1054C000E10FF11D1F5F808190E0B4010E94802EEA
:1054D000FA94A9F764FE03C085E490E002C085E673
:1054E00090E0B4010E94802EB7FC05C0A114B10465
:1054F00041F4C4FE06C0B094A194B108B3948DE207
:1055000001C08BE290E0B4010E94802E80E305C0D0
:105510008F5FE6EFFFEFAE0EBF1EFAE0AF16B104ED
:10552000BCF790E0B4010E94802EC501C096B40182
:105530000E94802E4DC1833631F0833789F0833548
:1055400009F059C022C09A012E5F3F4F3D872C873A
:10555000FA018081898381E0E82EF12C510113C08A
:105560009A012E5F3F4F3D872C87FA01A080B180C2
:1055700016FF03C06F2D70E002C06FEF7FEFC50113
:105580000E94462E7C011F7714C09A012E5F3F4F68
:105590003D872C87FA01A080B18016FF03C06F2DD4
:1055A00070E002C06FEF7FEFC5010E941E2E7C01EC
:1055B000106813FD1CC006C080E290E0B4010E9498
:1055C000802EDA948D2D90E0E816F906A8F30FC02E
:1055D000F50117FD859117FF81915F0190E0B401FE
:1055E0000E94802ED110DA940894E108F108E114A9
:1055F000F10471F7EDC0843611F0893671F59A0126
:1056000017FF0AC02C5F3F4F3D872C87FA0180812E
:105610009181A281B3810BC02E5F3F4F3D872C87C4
:10562000FA0180819181AA2797FDA095BA2F012FB9
:105630000F76B7FF08C0B095A095909581959F4FC4
:10564000AF4FBF4F0068BC01CD01A1012AE030E09F
:105650000E94CE2EE82EE21841C0853721F41F7E2D
:105660002AE030E020C0197F8F36A9F0803720F47F
:10567000883509F0B0C00BC0803721F0883709F0B9
:10568000AAC001C0106114FF09C0146007C014FF54
:1056900008C0166006C028E030E005C020E130E018
:1056A00002C020E132E0CA0117FF09C004969D87BD
:1056B0008C87FA01608171818281938108C0029692
:1056C0009D878C87FA016081718180E090E0A10163
:1056D0000E94CE2EE82EE218012F0F7706FF09C098
:1056E0000E7FEF1430F404FF06C002FD04C00F7EED
:1056F00002C01E2D01C01F2D802F90E004FF0CC0A2
:10570000FE01EE0DF11D2081203311F4097E09C048
:1057100002FF06C01E5F05C086789070009709F0F2
:105720001F5FA02EBB2403FD12C000FF0DC0FE2C86
:105730001D1550F4FD0CF11A1D2D06C080E290E0FD
:10574000B4010E94802E1F5F1D15C0F304C01D15FB
:1057500010F4D11A01C0DD24A4FE0FC080E390E054
:10576000B4010E94802EA2FE1FC0A1FE03C088E5E6
:1057700090E010C088E790E00DC0C5018678907079
:10578000009791F0A1FC02C080E201C08BE207FD0E
:105790008DE290E0B4010E94802E06C080E390E08C
:1057A000B4010E94802EFA94EF14C0F3EA94F10140
:1057B000EE0DF11D808190E0B4010E94802EEE205C
:1057C000A9F706C080E290E0B4010E94802EDA942E
:1057D000DD20C1F78ECCF4018681978102C08FEF66
:1057E0009FEF6596E2E10C94A02C629FD001739F1D
:1057F000F001829FE00DF11D649FE00DF11D929F6D
:10580000F00D839FF00D749FF00D659FF00D9927AB
:10581000729FB00DE11DF91F639FB00DE11DF91FCF
:10582000BD01CF0111240895991B79E004C0991F8F
:10583000961708F0961B881F7A95C9F780950895EA
:10584000AA1BBB1B51E107C0AA1FBB1FA617B707A6
:1058500010F0A61BB70B881F991F5A95A9F78095C2
:105860009095BC01CD01089597FB092E07260AD01B
:1058700077FD04D0E5DF06D000201AF4709561951D
:105880007F4F0895F6F7909581959F4F0895A1E277
:105890001A2EAA1BBB1BFD010DC0AA1FBB1FEE1FAA
:1058A000FF1FA217B307E407F50720F0A21BB30BF5
:1058B000E40BF50B661F771F881F991F1A9469F771
:1058C00060957095809590959B01AC01BD01CF01CD
:1058D000089597FB092E05260ED057FD04D0D7DF7B
:1058E0000AD0001C38F450954095309521953F4FD3
:1058F0004F4F5F4F0895F6F790958095709561959D
:105900007F4F8F4F9F4F08952F923F924F925F92FC
:105910006F927F928F929F92AF92BF92CF92DF92BF
:10592000EF92FF920F931F93CF93DF93CDB7DEB724
:10593000CA1BDB0B0FB6F894DEBF0FBECDBF0994B8
:105940002A88398848885F846E847D848C849B840F
:10595000AA84B984C884DF80EE80FD800C811B811D
:10596000AA81B981CE0FD11D0FB6F894DEBF0FBE4C
:10597000CDBFED0108958F929F92AF92BF92CF92CB
:10598000DF92EF92FF92CF93DF93EC0188819981B0
:10599000AA81BB810097A105B10521F484E299EDAC
:1059A000ABE5B7E0BC01CD012DE133EF41E050E0C4
:1059B0000E94692C49015A0127EA31E440E050E095
:1059C0000E94F52B6B017C01C501B4012CEE34EF74
:1059D0004FEF5FEF0E94F52BDC01CB01C80ED91E03
:1059E000EA1EFB1EF7FE08C08FEF9FEFAFEFBFE789
:1059F000C80ED91EEA1EFB1EC882D982EA82FB822B
:105A0000C6019F77DF91CF91FF90EF90DF90CF900D
:105A1000BF90AF909F908F9008950E94BB2C0895E7
:105A200087E394E00E94BB2C0895A0E0B0E080934F
:105A3000370490933804A0933904B0933A0408953E
:105A4000FC0188279927E89421912032E9F3293035
:105A500010F02E30C8F32B3241F02D3239F4689417
:105A600004C00E94782E820F911D219120532A306C
:105A7000C0F31EF4909581959F4F0895283008F04B
:105A800027E03327DA01990F311D87FD91600096D9
:105A90006105710539F432602E5F3D9330E32A953C
:105AA000E1F708959F3F30F080387105610509F0F6
:105AB0003C5F3C5F3D93913008F08068911DDF931F
:105AC000CF931F930F93FF92EF92192F987F969584
:105AD000E92F96959695E90FFF27EC5DFE4F9927E4
