:100000000C94E2000C94FF000C94FF000C94FF0091
:100010000C94FF000C94FF000C94FF000C94D91575
:100020000C94FF000C94FF000C94FF000C94FF0054
:100030000C94FF000C94FF000C94FF000C94FF0044
:100040000C94FF000C94FF000C9408200C94C71F24
:100050000C94FF000C94FF000C94FF000C94FF0024
:100060000C94FF000C94FF0008000000BE9224498D
:10007000123EABAAAA2ABECDCCCC4C3E00000080DA
:10008000BEABAAAAAA3E00000000BF000000803F4D
:100090000000000000084178D3BB4387D1133D190D
:1000A0000E3CC3BD4282AD2B3E68EC8276BED98F3A
:1000B000E1A93E4C80EFFFBE01C4FF7F3F0000007E
:1000C00000006E616E00696E660000407A10F35A9F
:1000D00000A0724E18090010A5D4E80000E8764888
:1000E000170000E40B54020000CA9A3B000000E134
:1000F000F505000080969800000040420F000000C7
:10010000A08601000000102700000000E8030000A6
:1001100000006400000000000A0000000000010070
:10012000000000002C76D888DC674F0823DFC1DF91
:10013000AE59E1B1B796E5E3E453C63AE651997694
:1001400096E8E6C28426EB898C9B62ED407C6FFCCE
:10015000EFBC9C9F40F2BAA56FA5F490055A2AF710
:100160005C936B6CF9676DC11BFCE0E40D47FEF519
:1001700020E6B500D0ED902E030094357705008081
:10018000841E080000204E0A000000C80C333333E0
:10019000330F986E12831141EF8D2114893BE65580
:1001A00016CFFEE6DB18D1844B381BF77C1D901D63
:1001B000A4BBE424203284725E228100C9F124ECC5
:1001C000A1E53D2711241FBECFEFD8E0DEBFCDBF94
:1001D00013E0A0E0B1E0EEE7F4E502C005900D9277
:1001E000A039B107D9F716E0A0E9B3E001C01D922C
:1001F000AD32B107E1F70E94211B0C943D2A0C940B
:100200000000EF92FF921F93CF93DF93C82F7B01E3
:100210008EEE0E94CE0B11E0813009F010E0112328
:1002200019F58C2F0E94440C11E0813009F010E088
:100230001123D1F48FEE0E94380C11E0813009F0C7
:1002400010E0112389F40E94560CD82F80E0C82FAB
:10025000F701D183C0830E94610C90E0C82BD92B99
:10026000F701D183C08303C0F701118210820E947D
:100270003B0C812FDF91CF911F91FF90EF9008955C
:10028000EF92FF921F93CF93DF93C82F7B018EEEE7
:100290000E94CE0B11E0813009F010E0112319F516
:1002A0008C2F0E94440C11E0813009F010E01123E2
:1002B000D1F48FEE0E94380C11E0813009F010E08B
:1002C000112389F40E94560CD82F80E0C82FF70123
:1002D000D183C0830E94610C90E0C82BD92BF70119
:1002E000D183C08303C0F701118210820E943B0CAE
:1002F000812FDF91CF911F91FF90EF9008958F9202
:100300009F92AF92BF92CF92DF92EF92FF920F93A4
:100310001F93CF93DF938AEA6FEC73E00E94010191
:10032000882309F0D0C18CEA67E074E00E940101E3
:10033000882309F0CAC18EEA69E074E00E940101D5
:10034000882309F0C4C180EB6FEF73E00E94400185
:10035000882309F0BEC182EB63EE73E00E94400186
:10036000882309F0B8C184EB61ED73E00E9440017D
:10037000882309F0B2C186EB68E174E00E940101B4
:10038000882309F0ACC188EB65EE73E00E9401019F
:10039000882309F0A6C18AEB61E074E00E940101A4
:1003A000882309F0A0C18CEB6AE174E00E9401018E
:1003B000882309F09AC18EEB69EC73E00E94010179
:1003C000882309F094C16091090470910A04882778
:1003D00077FD8095982F0E94622220E030E040EA6D
:1003E0005BE30E943323062F172FD82EC92E862FAA
:1003F000912FAD2DBC2D8093130490931404A093E2
:100400001504B09316046091FF037091000480E01E
:1004100090E00E9460222FE632E143E053E30E9425
:100420003323C62FD72FF82EE92E862F9D2FAF2DE1
:10043000BE2D8093D7039093D803A093D903B09394
:10044000DA038091180490911904AA2797FDA095CA
:10045000BA2FBC01CD010E94622220E030E048ECBE
:1004600057E30E943323B62EA72E982E892E862F6F
:100470009A2DA92DB82D8093DF039093E003A093CC
:10048000E103B093E2038091E3039091E403A0E0E1
:10049000B0E0BC01CD010E9460222DEC3CEC4CE4AC
:1004A00054E30E943323DC01CB018093FB03909340
:1004B000FC03A093FD03B093FE038091D1039091C0
:1004C000D203A0E0B0E0BC01CD010E946022DC01BB
:1004D000CB018093CB039093CC03A093CD03B09337
:1004E000CE0380911A0490911B04AA2797FDA09532
:1004F000BA2FBC01CD010E9462222AE037ED43EA07
:100500005DE30E943323DC01CB01809303049093CD
:100510000404A0930504B09306048091C90390914C
:10052000CA03AA2797FDA095BA2FBC01CD010E944E
:10053000622220E030E040E253E40E94C721DC0167
:10054000CB018093F7039093F803A093F903B09342
:10055000FA038091CF039091D003AA2797FDA0952D
:10056000BA2FBC01CD010E946222DC01CB01809335
:10057000EB039093EC03A093ED03B093EE03809113
:10058000070490910804AA2797FDA095BA2FBC01F3
:10059000CD010E94622220E030E040EA5CE30E944C
:1005A0003323DC01CB0180930F0490931004A093BC
:1005B0001104B09312048091E5039091E603AA27F9
:1005C00097FDA095BA2FBC01CD010E94622220E0C8
:1005D00030E048E45AE30E943323DC01CB018093EE
:1005E000E7039093E803A093E903B093EA038C2F09
:1005F0009D2FAF2DBE2DBC01CD0120E030E040E0AD
:1006000057E40E943323DC01CB018093EF039093E6
:10061000F003A093F103B093F203802F912FAD2D3F
:10062000BC2DBC01CD010C2F1D2F2F2D3E2DA9015E
:1006300098010E943323DC01CB018093DB0390936C
:10064000DC03A093DD03B093DE038C2F9D2FAF2D31
:10065000BE2DBC01CD010B2D1A2D292D382DA90140
:1006600098010E943323DC01CB0180930B0490930B
:100670000C04A0930D04B0930E048CEE91E5A7E159
:10068000B0E48093C5039093C603A093C703B093CF
:10069000C80380E394E3AEE7BFE38093F303909352
:1006A000F403A093F503B093F60380E097E5A4E983
:1006B000B6E38093D3039093D403A093D503B09370
:1006C000D60380E015C081E013C081E011C081E055
:1006D0000FC081E00DC081E00BC081E009C081E066
:1006E00007C081E005C081E003C081E001C081E076
:1006F000DF91CF911F910F91FF90EF90DF90CF90FE
:10070000BF90AF909F908F900895CF92DF92EF921D
:10071000FF920F931F93CF93DF93C82F7B01C42EBB
:100720008EEE0E94CE0B01E0813009F000E0002344
:1007300069F58C2F0E94440C01E0813009F000E043
:10074000002321F58FEE0E94380C01E0813009F082
:1007500000E00023D9F4DD240894C108D1081C145A
:100760001D045CF40E94560CF701808311E0812F78
:1007700090E08C159D05B4F003C0002339F410E01F
:10078000E701C10FD11D0E94610C88830E943B0CC0
:10079000802FDF91CF911F910F91FF90EF90DF900D
:1007A000CF900895E701C10FD11D0E94560C888398
:1007B0001F5FDDCFCF938EEE0E94CE0BC1E0813064
:1007C00009F0C0E0CC2381F484EF0E94440CC1E026
:1007D000813009F0C0E0CC2339F48EE20E94440C51
:1007E000C1E0813009F0C0E00E943B0C8C2FCF911A
:1007F0000895AF92BF92CF92DF92EF92FF920F9344
:100800001F93CF93DF9300D0CDB7DEB75C011A8280
:10081000198286EFBE016F5F7F4F0E944001182F43
:10082000882309F049C069817A8180E090E00E94C4
:1008300060222091CB033091CC034091CD035091A5
:10084000CE030E9462212091FB033091FC03409172
:10085000FD035091FE030E943323C62E072FF82E6E
:10086000E92E862F902FAF2DBE2DBC01CD012091FA
:10087000F7033091F8034091F9035091FA030E9475
:1008800063219B01AC016091030470910404809189
:100890000504909106040E94C7212E2DD02EEF2C26
:1008A000F22EA70196010E946321DC01CB01F50124
:1008B00080839183A283B383812F0F900F90DF9168
:1008C000CF911F910F91FF90EF90DF90CF90BF904D
:1008D000AF900895CF93DF93823031F0833031F0C1
:1008E000813031F0D4E305C0D4EB03C0D4EF01C0B4
:1008F000D4E78EEE0E94CE0BC1E0813009F0C0E05B
:10090000CC2381F484EF0E94440CC1E0813009F0D3
:10091000C0E0CC2339F48D2F0E94440CC1E081301B
:1009200009F0C0E00E943B0C8C2FDF91CF9108951D
:100930002F923F924F925F926F927F929F92AF92CF
:10094000BF92CF92DF92EF92FF920F931F93CF93BC
:10095000DF93CDB7DEB727970FB6F894DEBF0FBE93
:10096000CDBF1C016A017B0186EFBE016F5F7F4F27
:1009700043E00E948503B82E882309F015C1C70102
:10098000B60120E030E048EC51E40E946221F62EEE
:10099000E72ED82EC92E382F862F9E2DAD2DBC2D9B
:1009A000BC01CD010F2D1E2D232F3B2FA901980136
:1009B0000E943323062F172FA82E992E698170E0ED
:1009C00080E090E00E94622220E030E040E853E4C2
:1009D0000E9433232B013C016A8170E080E090E0AB
:1009E0000E9462229B01AC01C301B2010E946321FB
:1009F0002B013C016B8170E080E090E00E9462225C
:100A000020E030E040E85BE30E9433239B01AC012F
:100A1000C301B2010E9463216C837D838E839F8317
:100A2000802F912FAA2DB92DBC01CD012091E70374
:100A30003091E8034091E9035091EA030E94332387
:100A40002B013C018F2D9E2DAD2DBC2DBC01CD0168
:100A500020910F0430911004409111045091120420
:100A60000E9433239B01AC01C301B2010E946321A8
:100A70002091EB033091EC034091ED035091EE0394
:100A80000E9463219B01AC016C817D818E819F81DD
:100A90000E9462216C837D838E839F83802F912FA0
:100AA000AA2DB92DBC01CD0120910B0430910C046D
:100AB00040910D0450910E040E9433232B013C0100
:100AC0008F2D9E2DAD2DBC2DBC01CD012091DB03C2
:100AD0003091DC034091DD035091DE030E9433230B
:100AE0009B01AC01C301B2010E9463212091EF037D
:100AF0003091F0034091F1035091F2030E94632181
:100B00009B01AC016C817D818E819F810E94C721F8
:100B1000F62EE72ED82EC92E382F862F9E2DAD2DDE
:100B2000BC2DBC01CD010F2D1E2D232F3B2FA90164
:100B300098010E943323462F572F682F792FCB011E
:100B4000BA012091D3033091D4034091D503509141
:100B5000D6030E9433232B013C01802F912FAD2D12
:100B6000BC2DBC01CD012091F3033091F4034091E1
:100B7000F5035091F6030E9433239B01AC01C3019E
:100B8000B2010E9463212091C5033091C6034091B8
:100B9000C7035091C8030E946321DC01CB01F1011E
:100BA00080839183A283B3838B2D27960FB6F8940D
:100BB000DEBF0FBECDBFDF91CF911F910F91FF9090
:100BC000EF90DF90CF90BF90AF909F907F906F900D
:100BD0005F904F903F902F9008958430F9F08530CA
:100BE00038F4823089F08330A0F4813051F507C0A9
:100BF0008630F1F08630B8F0873019F51EC080E0FD
:100C000091E00E942F21089584E091E00E942F211D
:100C1000089588E091E00E942F2108958CE091E0F2
:100C20000E942F21089580E191E00E942F210895D4
:100C300084E191E00E942F21089588E191E00E94D3
:100C40002F210895CF92DF92EF92FF920F931F937F
:100C5000CF93DF93CDB7DEB7E0970FB6F894DEBF42
:100C60000FBECDBF7C0101960E941B28082FD70123
:100C70008C91853609F47BC2863630F4833659F080
:100C8000843609F0AAC282C0833709F47EC287374E
:100C900009F0A3C297C2C70103960E941B28D82E51
:100CA000033051F1043028F40130A1F00230D8F4BF
:100CB00008C0053099F1053040F1063009F040C018
:100CC00036C08093120584E190E06D2D0E942F2A9A
:100CD00010E037C08093140586E190E06D2D0E94EE
:100CE0002F2A10E02EC08093160588E190E06D2D2C
:100CF0000E942F2A10E025C0809311058AE190E020
:100D00006D2D0E942F2A10E01CC0809318058CE1E5
:100D100090E06D2D0E942F2A10E013C080931505DE
:100D20008EE190E06D2D0E942F2A10E00AC0809382
:100D3000170580E290E06D2D0E942F2A10E001C07F
:100D400012E0EDB7FEB738970FB6F894FEBF0FBEAE
:100D5000EDBF3196ADB7BEB71296FC92EE921197E9
:100D60008CE191E09383828304831582D68217827B
:100D70000E94A729EDB7FEB738960FB6F894FEBFCC
:100D80000FBEEDBFC7010E942F215CC2023009F4E3
:100D9000B8C0033030F4002371F0013009F041C2D3
:100DA00064C0043009F44DC1043008F4EFC00530CC
:100DB00009F037C291C108E211E0C7010396B801FA
:100DC0000E9424290E941B28F82E80E090E0B801A0
:100DD0000E9424290E941B28C82E80E090E0B801C0
:100DE0000E9424290E941B28E82ED92E8BE291E034
:100DF0000E942F218F2D6C2D4E2D5D2D0E94DD0D1B
:100E00000E94ED058DB79EB70A970FB6F8949EBF66
:100E10000FBE8DBFEDB7FEB731968E010F5F1F4F2E
:100E2000ADB7BEB712961C930E93119782E391E073
:100E300093838283F4821582C6821782E086D186EC
:100E40000E94A729EDB7FEB73A960FB6F894FEBFF9
:100E50000FBEEDBFC8010E942F218F2D6C2D4E2D8E
:100E60005D2D0E947B0E10E0EDC101E411E0C70191
:100E70000396B8010E9424290E941B28E82E80E0D6
:100E800090E0B8010E9424290E941B28D82E80E0FF
:100E900090E0B8010E9424290E941B28F82E8DB7EB
:100EA0009EB70A970FB6F8949EBF0FBE8DBFEDB7E1
:100EB000FEB731968E010F5F1F4FADB7BEB71296CA
:100EC0001C930E93119785E491E093838283E482CF
:100ED0001582D6821782F08611860E94A729EDB767
:100EE000FEB73A960FB6F894FEBF0FBEEDBFC8012D
:100EF0000E942F218E2D6D2D4F2D0E94BC0D10E0D4
:100F0000A1C1CE0189960E94670D8BE591E00E94F8
:100F10002F2188A90E94ED058DB79EB740970FB687
:100F2000F8949EBF0FBE8DBFEDB7FEB731968E0110
:100F30000F5F1F4FADB7BEB712961C930E9311975C
:100F400084E691E0938382838CA5848315828DA5AA
:100F5000868317828EA59FA59187808789A5828722
:100F600013868AA5848715868BA5868717860E9497
:100F7000A729EDB7FEB770960FB6F894FEBF0FBE67
:100F8000EDBFC8010E942F2110E05CC10E94B80E85
:100F90007C0100D000D000D0EDB7FEB731968E01B5
:100FA0000F5F1F4FADB7BEB712961C930E931197EC
:100FB00083E891E093838283C70195958795959502
:100FC0008795958384830E94A729EDB7FEB736964F
:100FD0000FB6F894FEBF0FBEEDBFC8010E942F21CF
:100FE000F3E0EF22FF2481E0E816F104C1F092E083
:100FF000E916F10424F4E114F10459F014C1A2E05B
:10100000EA16F10491F0B3E0EB16F10409F00BC11C
:1010100012C08FE891E00E942F2110E013C186E9F1
:1010200091E00E942F2110E00DC18DE991E00E9416
:101030002F2110E007C184EA91E00E942F2110E0E7
:1010400001C101E411E0C7010396B8010E942429FF
:101050000E941B28D82E80E090E0B8010E9424292D
:101060000E941B28082FE7E1ED1508F4DEC08C3341
:1010700008F0DDC0D092A3038093A2030E947A0BF4
:101080008DB79EB708970FB6F8949EBF0FBE8DBF61
:10109000EDB7FEB731967E010894E11CF11CADB7A7
:1010A000BEB71296FC92EE9211978BEA91E0938371
:1010B0008283D4821582068317820E94A729EDB706
:1010C000FEB738960FB6F894FEBF0FBEEDBFC7014E
:1010D0000E942F2110E0B6C001E411E0C701039681
:1010E000B8010E9424290E941B28D82E80E090E09D
:1010F000B8010E9424290E941B28082FF7E1FD1542
:1011000008F497C08C3308F096C0D092A103809366
:10111000A0030E947A0B8DB79EB708970FB6F8947C
:101120009EBF0FBE8DBFEDB7FEB731967E0108940E
:10113000E11CF11CADB7BEB71296FC92EE9211976E
:101140008BEA91E093838283D4821582068317828F
:101150000E94A729EDB7FEB738960FB6F894FEBFE8
:101160000FBEEDBFC7010E942F2110E06BC000230E
:1011700009F063C088E090E06FEF0E942F2A8CEBAB
:1011800091E00E942F2110E05DC0013071F001302C
:1011900030F0023071F0033009F051C00EC08AEC1B
:1011A00091E00E942F2110E04DC00E946C0C10E0D5
:1011B00049C00E94161F10E045C081E08093B7032C
:1011C00010E040C00330E8F500939F0382E190E017
:1011D000602F0E942F2A10E035C000D000D000D030
:1011E000EDB7FEB731968E010F5F1F4FADB7BEB79B
:1011F00012961C930E9311978CED91E0938382834A
:10120000F582E4820E94A729EDB7FEB736960FB6A5
:10121000F894FEBF0FBEEDBFC8010E942F2111E060
:1012200011C012E00FC010E00DC010E00BC010E0C4
:1012300009C010E007C010E005C012E003C012E0D2
:1012400001C012E0812FE0960FB6F894DEBF0FBE0A
:10125000CDBFDF91CF911F910F91FF90EF90DF9065
:10126000CF90089580919103882349F50E943E21F3
:10127000882309F10E94472190E00E9411298A30B9
:1012800019F08D3071F417C081E080939103809143
:101290009003ECE1F4E0E80FF11D1082109290034E
:1012A0000AC090919003ECE1F4E0E90FF11D808316
:1012B0009F5F9093900380919103882339F010925F
:1012C00091038CE194E00E942206089580E0089545
:1012D0002F923F924F925F927F928F929F92AF9206
:1012E000BF92CF92DF92EF92FF920F931F93CF9313
:1012F000DF93249A2C9881E090E00E94AF152C9AFD
:10130000249880E293E003C0019709F478C01C9907
:10131000FBCF80E991E003C0019709F472C01C9BE8
:10132000FBCF80E991E003C0019709F46CC01C99E0
:10133000FBCFA0E0B0E020E931E000E911E090E06F
:1013400070E0C0E058E260E80F2EFFE8AF2EF1E059
:10135000BF2EF02D0F2EF0E38F2EF4E09F2EF02DF8
:10136000D0E00F2EF0E87F2EF02D0F2EF0E9CF2EDB
:10137000F1E0DF2EF0E0EF2EF0E0FF2EF02D01C0C7
:10138000942F83B1482F407184FD30C0992371F1AF
:101390005332C8F02017310708F48901C801A0E0D2
:1013A000B0E016012701281A390A4A0A5B0AD2015D
:1013B000C101B695A79597958795B695A7959795E9
:1013C0008795DC0107C0C8018A1B9B0B8217930716
:1013D00008F0762B669539F4F401EC0FF11D70835B
:1013E000CF5F7D2F672D5150950103C021503040B4
:1013F00061F0552329F6249A2C9A80E007C08DEFDE
:1014000005C08CEF03C08BEF01C08EEFDF91CF9151
:101410001F910F91FF90EF90DF90CF90BF90AF9012
:101420009F908F907F905F904F903F902F90089566
:101430000F931F93CF93DF93EC018B010E946809F8
:10144000909130049370909330042091320423786B
:1014500020933204392F20E04091310450E0242BB6
:10146000352B398328834091320450E04F775070F8
:10147000542F44272091330430E0242B352BF801DE
:10148000318320839091320499232CF43095219557
:101490003F4F31832083E0E3F4E0209131049081D9
:1014A000920F2281920F2381920F209134042913ED
:1014B0008FEFDF91CF911F910F9108954F925F921F
:1014C0006F927F928F929F92AF92BF92CF92DF9254
:1014D000EF92FF920F931F93CF93DF9300D000D032
:1014E000CDB7DEB74C01882777FD8095982F0E94F5
:1014F00062226B017C01B40180E090E00E946022D6
:1015000020E030E04AE754E40E94C7210E94F32221
:101510002B013C01C701B60122E03BE24AE851E45D
:101520000E9433234B015C01C701B60120E030E982
:1015300044E155E40E9463219B01AC01C501B40163
:101540000E94C721A30192010E946321462E872E8B
:10155000C82E092F862F982DAC2DB02FBC01CD01A0
:1015600020E030E944E155E40E94332369837A8323
:101570008B839C8362E07BE28AE891E4402F042D18
:10158000182D2C2D342FA90198010E9462219B0156
:10159000AC0169817A818B819C810E94C7210E9464
:1015A0002F22862F972F0F900F900F900F90DF9183
:1015B000CF911F910F91FF90EF90DF90CF90BF9050
:1015C000AF909F908F907F906F905F904F90089515
:1015D00088E090E00E94272A8F3F09F041C088E010
:1015E00090E061E00E942F2A8AE090E067E10E948B
:1015F0002F2A8CE090E06EE10E942F2A8EE090E08E
:1016000067E00E942F2A80E190E06EE10E942F2A7D
:1016100082E190E062E00E942F2A84E190E060E0A5
:101620000E942F2A86E190E062E00E942F2A88E142
:1016300090E063E00E942F2A8AE190E064E00E943B
:101640002F2A8CE190E066E00E942F2A8EE190E044
:1016500061E00E942F2A80E290E067E00E942F2A3A
:1016600008958AE090E00E94272A8093A3038CE0EB
:1016700090E00E94272A8093A2038EE090E00E94CF
:10168000272A8093A10380E190E00E94272A80937B
:10169000A00382E190E00E94272A80939F0384E1C7
:1016A00090E00E94272A8093120586E190E00E9434
:1016B000272A8093140588E190E00E94272A8093CE
:1016C00016058AE190E00E94272A809311058CE19B
:1016D00090E00E94272A809318058EE190E00E94F6
:1016E000272A8093150580E290E00E94272A8093A4
:1016F000170508958AE090E06091A3030E942F2AC5
:101700008CE090E06091A2030E942F2A8EE090E08E
:101710006091A1030E942F2A80E190E06091A003D4
:101720000E942F2A82E190E060919F030E942F2A5D
:1017300084E190E0609112050E942F2A86E190E0FA
:10174000609114050E942F2A88E190E060911605AF
:101750000E942F2A8AE190E0609111050E942F2AB1
:101760008CE190E0609118050E942F2A8EE190E0B4
:10177000609115050E942F2A80E290E06091170584
:101780000E942F2A08958C3019F41092B90003C0DA
:1017900091E09093B9008093B80008950F931F9340
:1017A000CF93DF93182FECEBF0E084EA8083808105
:1017B000882374F000E0CCEBD0E081E090E00E9460
:1017C000AF150F5F8881882324F00330B1F701C083
:1017D00000E08091B900887F883011F08031B1F449
:1017E0000330B0F41093BB0084E88093BC00ECEBB2
:1017F000F0E080818823ECF79091B900987F9831D0
:1018000049F081E0903439F480E005C081E003C004
:1018100081E001C080E0DF91CF911F910F91089589
:10182000CF93DF93ECEBF0E024EAA9EBB0E0CBEB55
:10183000D0E034E844E9208390819923ECF79C912F
:10184000987F983011F09031B1F788833083908180
:101850009923ECF79C91987F903211F0983529F4F8
:101860004083908194FDFDCFE6CFDF91CF91089525
:101870000E94CE0B089584E98093BC00ECEBF0E06D
:10188000808184FDFDCF08958093BB0084E8809320
:10189000BC00ECEBF0E080818823ECF79091B9007C
:1018A000987F81E0983209F480E0089584EC809379
:1018B000BC00ECEBF0E080818823ECF78091BB006A
:1018C000089584E88093BC00ECEBF0E080818823ED
:1018D000ECF78091BB000895AF92BF92CF92DF9258
:1018E000FF920F931F93CF93DF93CDB7DEB7E797A8
:1018F0000FB6F894DEBF0FBECDBFDE01D396EDEF7D
:10190000F1E085E001900D928150E1F789EE91E0E0
:101910000E942F2102E010E0FF246E010894C11CF8
:10192000D11C0F2EF4EFAF2EF1E0BF2EF02D802F43
:101930000E94CE0B8823F1F400D000D000D0EDB788
:10194000FEB73196ADB7BEB71296DC92CE92119724
:10195000B382A282158304830E94A7298DB79EB704
:1019600006960FB6F8949EBF0FBE8DBFC6010E94AB
:101970002F21F3940E943B0C0E5F1F4F91E000302B
:101980001907A9F6FF2021F4CE01C3960E942F214A
:101990008BEF91E00E942F21E7960FB6F894DEBFFF
:1019A0000FBECDBFDF91CF911F910F91FF90DF90C0
:1019B000CF90BF90AF900895282F2F70982F9695B5
:1019C000969596959E70892F880F880F980F892F6E
:1019D000820F0895282F30E086FF08C08F7025FF02
:1019E00002C02AE001C020E0820F08958F70369572
:1019F000279536952795369527952670922F990F1E
:101A0000990F290F820F0895982F92959F70990F23
:101A1000292F220F220F920F8F70890F08956AE0ED
:101A20000E9474278295807F890F08950F931F93DA
:101A3000CF93DF93082FEB0180ED0E94CE0B11E0D6
:101A4000813009F010E01123A9F4802F0E94440C8A
:101A500011E0813009F010E0112361F481ED0E9462
:101A6000380C11E0813009F010E0112319F40E94C4
:101A7000610C88830E943B0C812FDF91CF911F91D5
:101A80000F9108951F93CF93DF93182FD62F80EDDA
:101A90000E94CE0BC1E0813009F0C0E0CC2381F47C
:101AA000812F0E94440CC1E0813009F0C0E0CC23BA
:101AB00039F48D2F0E94440CC1E0813009F0C0E060
:101AC0000E943B0C8C2FDF91CF911F9108951F93A3
:101AD000CF93DF93EC0180ED0E94CE0B11E08130BB
:101AE00009F010E01123C1F580E00E94440C11E0E0
:101AF000813009F010E0112379F581ED0E94380C56
:101B000011E0813009F010E0112331F50E94560CEC
:101B10000E94DC0C8A830E94560C0E94DC0C898394
:101B20000E94560C0E94EA0C88830E94560C8F83F8
:101B30000E94560C0E94DC0C8B830E94560C0E9463
:101B4000DC0C8C830E94610C0E94040D90E0805399
:101B5000984F9E838D8309C01E821D821882198230
:101B60001A8281E08C838B838F830E943B0C812FB0
:101B7000DF91CF911F910895CF93DF93C62FD42F7C
:101B80008831C0F46C33B0F44C33A0F40E940F0DD4
:101B9000682F82E00E94420D8C2F0E940F0D682F4B
:101BA00081E00E94420D8D2F0E940F0D682F80E072
:101BB0000E94420DDF91CF9108954F925F926F92F4
:101BC0007F928F929F92AF92BF92CF92DF92EF92CD
:101BD000FF92482E4A01262F30E08EE090E0821BD3
:101BE000930B6CE070E00E949427AA24BB2480EC45
:101BF00092E1A0E0B0E0880E991EAA1EBB1ECB01A8
:101C0000AA2797FDA095BA2F881A990AAA0ABB0A93
:101C1000CB01880F991F680F791F660F771F660F1A
:101C2000771F620F731F882777FD8095982F29E90A
:101C300030E040E050E00E945527695C71408040F0
:101C4000904025E030E040E050E00E94C927690163
:101C50007A01C40CD11CE11CF11CC501B4012DE6B4
:101C600031E040E050E00E9455272B013C014C0C34
:101C70005D1C6E1C7F1CC501B40124E030E040E017
:101C800050E00E94C92769017A01C40CD51CE61CEA
:101C9000F71CC501B40124E630E040E050E00E94AA
:101CA000C927C21AD30AE40AF50AC501B40120E91A
:101CB00031E040E050E00E94C927C20ED31EE41E6E
:101CC000F51EC701B6016C527D478040904027E069
:101CD00030E040E050E00E94A727862FFF90EF9071
:101CE000DF90CF90BF90AF909F908F907F906F903C
:101CF0005F904F9008950F931F93CF93DF93C82F5A
:101D0000D62F81508F3138F5862F81508C3018F5C1
:101D10008A01005D174083E0083E1807E0F48C2F2D
:101D20000E94DD0D682F83E00E94420D802F0E94EB
:101D30000F0D682F86E00E94420D8D2F0E940F0D1F
:101D4000682F85E00E94420D8C2F0E940F0D682F96
:101D500084E00E94420DDF91CF911F910F91089571
:101D6000682F8150873018F483E00E94420D089557
:101D70000F931F93CF93DF9300D0CDB7DEB781E1F0
:101D8000BE016F5F7F4F0E94160D098110E0000FAA
:101D9000111F000F111F882331F482E1BE016E5F15
:101DA0007F4F0E94160D2A81229526952695237035
:101DB00030E0022B132B11FF04C01D7F10950195FD
:101DC0001F4F882311F000E010E0802F912F0F901B
:101DD0000F90DF91CF911F910F910895CF92DF92D5
:101DE000EF92FF92CF93DF93EC01882777FD8095E8
:101DF000982F0E9462226B017C0120E030E040E0DD
:101E00005FE30E94332320E030E048E452E40E9484
:101E1000C7210E942F22DC01CB01C817D90704F18A
:101E2000C701B60120E030E040EC5FE30E943323BD
:101E300020E030E048E452E40E94C72120E030E096
:101E400040E85FE30E9463210E942F22AB01BC01A6
:101E500081E090E04C175D072CF480E090E002C038
:101E600080E090E090E0DF91CF91FF90EF90DF90E5
:101E7000CF900895CF92DF92EF92FF92CF93DF93AE
:101E8000EC0164567040882777FD8095982F0E945A
:101E900062226B017C0120E030E040E05FE30E94C1
:101EA000332320E030E048E452E40E94C7210E943E
:101EB0002F22DC01CB01C817D90704F1C701B601F5
:101EC00020E030E040EC5FE30E94332320E030E08C
:101ED00048E452E40E94C72120E030E040E85FE39C
:101EE0000E9463210E942F22AB01BC0181E090E09F
:101EF0004C175D072CF480E090E002C080E090E099
:101F000090E0DF91CF91FF90EF90DF90CF90089518
:101F1000CF92DF92EF92FF92CF93DF93EC016C5957
:101F20007F4F882777FD8095982F0E9462226B0152
:101F30007C0120E030E040E05FE30E94332320E0BA
:101F400030E048E452E40E94C7210E942F22DC01C5
:101F5000CB01C817D90704F1C701B60120E030E072
:101F600040EC5FE30E94332320E030E048E452E499
:101F70000E94C72120E030E040E85FE30E94632137
:101F80000E942F22AB01BC0181E090E04C175D075D
:101F90002CF480E090E002C080E090E090E0DF91DF
:101FA000CF91FF90EF90DF90CF90089582E08093E3
:101FB000350410923604089521E01B9B20E08091A7
:101FC0003704909138040196909338048093370435
:101FD00080913604853618F086E080933504809130
:101FE0003504843009F45BC0853030F4823059F018
:101FF000833009F08BC034C0853009F47AC0863054
:1020000009F084C07DC0222309F080C0809137048C
:102010009091380421E08039920728F41092380416
:1020200010923704089510920305109236042091FF
:102030003604E22FF0E08091370490913804EE0FDF
:10204000FF1FE75CFB4F918380832F5F2093360453
:10205000109238041092370483E080933504089579
:10206000213009F053C020913604A22FB0E08091B6
:102070003704909138041296E5E3F4E0AA0FBB1FF1
:10208000AE0FBF1F11969C938E932F5F2093360443
:10209000109238041092370484E08083089522233C
:1020A000E1F420913604A22FB0E0809137049091A2
:1020B00038041296E5E3F4E0AA0FBB1FAE0FBF1F72
:1020C00011969C938E932F5F2093360410923804C0
:1020D0001092370483E080830895809137049091B3
:1020E000380421E08139920788F085E08093350437
:1020F0000895222359F41092380410923704089559
:1021000081E08093030585E08093350408956F9204
:102110007F928F929F92AF92BF92CF92DF92EF9277
:10212000FF920F931F93CF93DF935C01FC01848593
:10213000853009F090C0C681D7818A819B8168E291
:1021400073E20E943A0F009709F487C0F501808579
:10215000918584309105F1F48C819D816AEC78E061
:102160000E94880F009709F47AC08E819F8160E3F6
:1021700072E00E943A0F009709F473C0F5011582CE
:1021800014828FEF9FEFDC0180839183A283B3835E
:1021900081E070C0843491050CF465C08C819D8110
:1021A00064E971E10E94880F009709F45EC000E0C5
:1021B00010E0CC24DD2476010F2EF6E06F2E77247C
:1021C000F02D6C0E7D1E88249924689483F88C0E63
:1021D0009D1EF301E00FF11F8081918160E372E0A9
:1021E0000E943A0F009709F442C0E401C00FD11FCA
:1021F000888199816AE976E00E94880F009779F0DA
:10220000D701C601880F991FAA1FBB1FCC24DD244C
:102210007601C394C82AD92AEA2AFB2A0CC08881ED
:10222000998160E372E00E94880F009711F1CC0C55
:10223000DD1CEE1CFF1C0C5F1F4F0038110549F61A
:1022400080E290E0F50195838483C082D182E282AE
:10225000F38281E00FC080E00DC080E00BC080E021
:1022600009C080E007C080E005C080E003C080E0D6
:1022700001C080E0DF91CF911F910F91FF90EF900F
:10228000DF90CF90BF90AF909F908F907F906F9096
:102290000895F894209135047894223039F081E043
:1022A00090E0253029F080E090E0089581E090E012
:1022B0000895F89482E0809335041092360478945F
:1022C0000895FC01F89489E394E097838683DC0108
:1022D00013972C912087118620910305228713865E
:1022E0000497DC018C9184877894CF010E94871039
:1022F000882321F40E94591180E0089581E0089517
:102300000F931F93CF93DF93CDB7DEB764970FB6CC
:10231000F894DEBF0FBECDBF809192038230D9F119
:10232000833030F4882371F0813009F041C113C04B
:10233000843009F4B1C0843008F467C0853009F0F6
:1023400037C1E4C0809186028F3009F031C181E04D
:10235000809392032DC180918602813051F482E0F6
:1023600092E00E942F211092930382E080939203C7
:102370001FC1823051F487E192E00E942F21109218
:10238000930384E08093920313C1803109F010C15C
:10239000109292030DC1209186022A3008F008C1E4
:1023A00080919303E4E9F3E0E80FF11D208300D06E
:1023B00000D000D0EDB7FEB731968E010F5F1F4FF2
:1023C000ADB7BEB712961C930E9311978BE292E0B5
:1023D00093838283248315820E94A7298DB79EB799
:1023E00006960FB6F8949EBF0FBE8DBFC8010E941F
:1023F0002F21809193038F5F80939303863008F49D
:10240000D7C083E080939203D3C08091860280314D
:1024100009F0CEC08EE292E00E942F21ADB7BEB788
:1024200050970FB6F894BEBF0FBEADBFEDB7FEB765
:1024300031968E010F5F1F4F12961C930E931197CA
:102440008DE392E093838283809194038483158249
:1024500080919503868317828091960380871186E9
:1024600080919703828713868091980384871586CD
:1024700080919903868717860E94A7298DB79EB7FA
:1024800040960FB6F8949EBF0FBE8DBFC8010E9444
:102490002F21109292038CC0209186022A3008F0DE
:1024A00087C080919303E4E9F3E0E80FF11D2083F6
:1024B00000D000D000D0EDB7FEB731968E010F5F8F
:1024C0001F4FADB7BEB712961C930E9311978BE2B8
:1024D00092E093838283248315820E94A7298DB77B
:1024E0009EB706960FB6F8949EBF0FBE8DBFC8016B
:1024F0000E942F21809193038F5F809393038630F6
:1025000008F456C085E08093920352C08091860201
:10251000803109F04DC08DE492E00E942F21ADB7CB
:10252000BEB71E970FB6F894BEBF0FBEADBFEDB7D6
:10253000FEB731968E010F5F1F4F12961C930E93BC
:1025400011978CE592E09383828380919403848336
:1025500015828091950386831782809196038087E8
:10256000118680919703828713868091980390E06B
:10257000880F991F9C01220F331F220F331F820FD8
:10258000931F8053984F20919903820F911D958737
:1025900084870E94A7298DB79EB70E960FB6F89430
:1025A0009EBF0FBE8DBFC8010E942F2110929203C3
:1025B00064960FB6F894DEBF0FBECDBFDF91CF910A
:1025C0001F910F9108950F931F93CF93DF93CDB772
:1025D000DEB764970FB6F894DEBF0FBECDBF84E0C0
:1025E00095E00E946111882309F458C18091040587
:1025F00090910505A0910605B09107058D3A22E559
:1026000092072FEFA20720E0B20709F4E8C08E3A44
:1026100022E592072FEFA20720E0B20708F05BC087
:102620008D3D22E292072FEFA20720E0B20709F4C6
:10263000C6C08E3D22E292072FEFA20720E0B2072C
:10264000E0F48F3E20E192072FEFA20720E0B207CF
:1026500009F4E4C0873E28E192072FEFA20720E0AB
:10266000B20709F4D3C08D3F22E092072FEFA207F3
:1026700020E0B20709F0E2C0AAC0873C28E3920735
:102680002FEFA20720E0B20709F4CCC0883C28E372
:1026900092072FEFA20720E0B20750F48F3C20E30F
:1026A00092072FEFA20720E0B20709F0C7C0AAC027
:1026B0008D3B22E492072FEFA20720E0B20709F436
:1026C0008AC0853B2AE492072FEFA20720E0B207D9
:1026D00009F0B4C088C0873628E992072FEFA20717
:1026E00020E0B20709F486C0883628E992072FEF68
:1026F000A20720E0B20770F58D3922E692072FEF8E
:10270000A20720E0B20709F452C08E3922E69207F0
:102710002FEFA20720E0B20750F4853A2AE592078E
:102720002FEFA20720E0B20709F088C07FC08739E9
:1027300028E692072FEFA20720E0B20709F456C05F
:1027400085382AE792072FEFA20720E0B20709F0A9
:1027500075C060C08F3420EB92072FEFA20720E0F6
:10276000B20709F44BC0803520EB92072FEFA20788
:1027700020E0B20750F4873528EA92072FEFA2072E
:1027800020E0B20709F05AC016C08D3322EC920740
:102790002FEFA20720E0B207B1F08F3F2FEF920793
:1027A0002FEFA2072FEFB20709F048C043C08AE01D
:1027B0008093860246C08DE08093860242C08BE003
:1027C000809386023EC08CE0809386023AC08EE001
:1027D0008093860236C08FE08093860232C080E10B
:1027E000809386022EC0109286022BC081E08093D7
:1027F000860227C082E08093860223C083E0809314
:1028000086021FC084E0809386021BC085E080930F
:10281000860217C086E08093860213C087E080930B
:1028200086020FC088E0809386020BC089E0809307
:10283000860207C081E18093860203C082E1809313
:10284000860200D000D000D0EDB7FEB731968E01E1
:102850000F5F1F4FADB7BEB712961C930E93119723
:102860008AE692E09383828380918602A2E7B2E0B7
:10287000A80FB11D8C91848315820E94A7298DB762
:102880009EB706960FB6F8949EBF0FBE8DBFC801C7
:102890000E942F210E9480110E94591164960FB648
:1028A000F894DEBF0FBECDBFDF91CF911F910F9186
:1028B00008950F931F93CF93DF93CDB7DEB72A9779
:1028C0000FB6F894DEBF0FBECDBFDE011196E7E86C
:1028D000F2E08AE001900D928150E1F785B1887FA6
:1028E00085B995B180919A038770892B85B94091FC
:1028F0009B0350919C0360919D0370919E03809176
:102900004A03882309F49CC0252F80919F038130BE
:1029100049F0813020F0823009F048C023C0109285
:10292000BB0344C05523D9F42091BB03FE01E20F41
:10293000F11D818190E0A0E0B0E0BA2FA92F982F7F
:102940008827482B592B6A2B7B2B822F8F5F8093F4
:10295000BB038A3058F189E08093BB0327C01092F3
:10296000BB0324C08091BC035817F1F05070309124
:10297000BB03FE01E30FF11D818190E0A0E0B0E018
:10298000BA2FA92F982F8827482B592B6A2B7B2BDE
:10299000832F8F5F8093BB038A3040F089E0809360
:1029A000BB032093BC0302C01092BB03242F809171
:1029B0009F03813049F0813020F0823009F040C01F
:1029C0001FC01092BD033CC04423B9F42091BD0345
:1029D000FE01E20FF11D818190E0A0E0B0E0482B04
:1029E000592B6A2B7B2B822F8F5F8093BD038A30FC
:1029F00038F189E08093BD0323C01092BD0320C04D
:102A00008091BE034817D1F040703091BD03FE01A4
:102A1000E30FF11D818190E0A0E0B0E0482B592B3D
:102A20006A2B7B2B832F8F5F8093BD038A3040F00E
:102A300089E08093BD032093BE0302C01092BD03C2
:102A4000E0E280E090E0A0E0B0E82BB12F732BB97A
:102A50008C019D010423152326233723081719070A
:102A60002A073B0711F45D9A01C05D98B695A795BA
:102A7000979587955F9A5F98E15039F75E9A5E98CF
:102A80002A960FB6F894DEBF0FBECDBFDF91CF916F
:102A90001F910F9108958091BA038130A1F0813088
:102AA00028F08230E9F08330C9F52AC00E94DA03A9
:102AB000882329F081E992E00E942F21089581E086
:102AC0008093BA03089584EA93E00E94F90388236F
:102AD00019F01092BA03089582E08093BA03089522
:102AE00084EF0E946A04882339F086EA92E00E940B
:102AF0002F211092BA03089583E08093BA030895BA
:102B00004091A4035091A5036091A6037091A7037F
:102B100088EA93E00E9498041092BA03089580EB2B
:102B200093E06EEA73E00E94180A6091AE03709120
:102B3000AF038091B0039091B1030E945E0A90931D
:102B4000AD038093AC030895F8946091B203709143
:102B5000B3038091B4039091B503789408958F9254
:102B60009F92AF92BF92CF92DF92EF92FF92CF935C
:102B7000DF93EC010E94A4154B015C016E01EE2471
:102B8000FF240E94A415DC01CB0188199909AA0928
:102B9000BB098C159D05AE05BF0598F3DF91CF915C
:102BA000FF90EF90DF90CF90BF90AF909F908F906D
:102BB00008951F920F920FB60F9211242F933F93F7
:102BC0004F935F936F937F938F939F93AF93BF9335
:102BD000EF93FF932D9A8091B6038F5F8093B60396
:102BE0008431B8F00E94F81B8091B2039091B30336
:102BF000A091B403B091B5030196A11DB11D8093BE
:102C0000B2039093B303A093B403B093B5031092AF
:102C1000B6030E94DC0F2D98FF91EF91BF91AF9109
:102C20009F918F917F916F915F914F913F912F91E4
:102C30000F900FBE0F901F901895EF92FF920F9379
:102C40001F93CF93DF93CDB7DEB728970FB6F894D5
:102C5000DEBF0FBECDBF122F2983F32E3A83E42EA1
:102C60004B83052F5C836D837E838F8398874E8192
:102C70005F81633089F58FE163E00E94DD0D909103
:102C8000B803992321F0913009F053C014C067E0D4
:102C90000E9474278FE1891B801709F04AC0123007
:102CA00008F447C080911305882309F042C081E0F1
:102CB0008093B8033EC0812F8F5F6F2D4E2D0E94F1
:102CC000BC0D81E08093130582E290E061E00E94F8
:102CD0002F2A1092B8032DC06A3059F58FE16AE0AF
:102CE0000E94DD0D9091B903992319F0913009F5F7
:102CF00011C067E00E9474278FE1891B8017C9F417
:102D00001330B8F080911305882399F081E0809307
:102D1000B9030FC0812F81506F2D4E2D0E94BC0D25
:102D20001092130582E290E060E00E942F2A109238
:102D3000B90328960FB6F894DEBF0FBECDBFDF9162
:102D4000CF911F910F91FF90EF900895282F6AE087
:102D50000E947427982F990F392F330F330F930F39
:102D60008295807F291B2F70822B08950F931F93CC
:102D7000982F9150963058F526E030E08901081BD5
:102D80001109C801880F880F4AE050E060E070E048
:102D90008A019B0104C0000F111F221F331F8A9557
:102DA000D2F7D901C80140919B0350919C036091D7
:102DB0009D0370919E03842B952BA62BB72B80939C
:102DC0009B0390939C03A0939D03B0939E031F913C
:102DD0000F9108958091BF03843009F45FC085305E
:102DE00050F4813059F18130C8F08230B9F183302C
:102DF00009F0B4C043C0873009F480C0883038F48B
:102E0000853009F45BC0863009F0A8C067C08830FF
:102E100009F484C0893009F0A1C090C080E090E03E
:102E2000A0E0B1E080939B0390939C03A0939D034B
:102E3000B0939E0381E08093BF0390C081E191E154
:102E4000A1E1B2E080939B0390939C03A0939D0328
:102E5000B0939E0382E08093BF0380C082E292E23F
:102E6000A2E2B0E480939B0390939C03A0939D0304
:102E7000B0939E0383E08093BF0370C083E393E32A
:102E8000A3E3B4E080939B0390939C03A0939D03E2
:102E9000B0939E0384E08093BF0360C084E494E415
:102EA000A4E4B8E080939B0390939C03A0939D03BC
:102EB000B0939E0385E08093BF0350C085E595E500
:102EC000A5E5B0E880939B0390939C03A0939D039A
:102ED000B0939E0386E08093BF0340C086E696E6EB
:102EE000A6E6B0E180939B0390939C03A0939D037F
:102EF000B0939E0387E08093BF0330C087E797E7D6
:102F0000A7E7B0E280939B0390939C03A0939D035B
:102F1000B0939E0388E08093BF0320C088E898E8C0
:102F2000A8E8BFEF80939B0390939C03A0939D031D
:102F3000B0939E0389E08093BF0310C089E999E9AB
:102F4000A9E9BFEF80939B0390939C03A0939D03FB
:102F5000B0939E031092BF031092B7038091BF03FA
:102F6000877080939A030895CF93DF93CDB7DEB730
:102F700028970FB6F894DEBF0FBECDBF8091A10396
:102F8000821720F49091A303291788F0821721F467
:102F90008091A003381768F48091A303821759F435
:102FA00081E09091A203391738F480E005C080E0F9
:102FB00003C080E001C081E028960FB6F894DEBF20
:102FC0000FBECDBFDF91CF9108958F929F92AF92A8
:102FD000BF92CF92DF92EF92FF920F931F93CF9306
:102FE000DF93CDB7DEB728970FB6F894DEBF0FBEDC
:102FF000CDBF10929B0310929C0310929D031092E0
:103000009E03CE0101960E94670D10924A038091A3
:10301000B703882319F00E94EA16DAC229813A819F
:103020004B815C816D817E818F8198850E94B41770
:10303000882369F08AEA9AEAAAEAB0E080939B03BF
:1030400090939C03A0939D03B0939E03C1C21B81E8
:10305000133209F49AC0143230F4193171F01A3174
:1030600009F023C252C0193209F43CC1123309F4E9
:1030700096C1183209F019C2EAC029813A814B8100
:103080005C816D817E818F8198850E941D168C8167
:103090000E94A616182F8D810E94A616412F50E07F
:1030A00060E070E0032E3CE0440F551F661F771F61
:1030B0003A95D1F7302D90E0A0E0B0E0482B592BA5
:1030C0006A2B7B2B440F551F661F771F440F551F1C
:1030D000661F771F440F551F661F771F440F551F2C
:1030E000661F771F40939B0350939C0360939D033F
:1030F00070939E0383E00E94B61686E00E94B61687
:103100008091140580939A0363C28E819F8164E647
:1031100070E00E948027082F862F0E94A616182F85
:10312000802F0E94A616412F50E060E070E0762FBD
:10313000652F542F442790E0A0E0B0E0482B592B96
:103140006A2B7B2B440F551F661F771F440F551F9B
:10315000661F771F440F551F661F771F440F551FAB
:10316000661F771F40939B0350939C0360939D03BE
:1031700070939E0381E00E94B61686E00E94B61608
:103180008091140580939A0323C2C090A403D09029
:10319000A503E090A603F090A703C701B6010E9423
:1031A0003422162F862F0E94A616882E9924AA2430
:1031B000BB24880C991CAA1CBB1C880C991CAA1C3B
:1031C000BB1C880C991CAA1CBB1C880C991CAA1C33
:1031D000BB1C612F70E080E090E00E9462229B01A6
:1031E000AC01C701B6010E94622120E030E040E25C
:1031F00051E40E9433230E943422862F90E0A0E005
:10320000B0E0882A992AAA2ABB2AD501C401072E30
:103210007CE0880F991FAA1FBB1F7A95D1F7702DEC
:10322000B26080939B0390939C03A0939D03B09303
:103230009E0384E00E94B61685E00E94B61686E0E2
:103240000E94B6168091160580939A03C1C1C09062
:10325000B003D090B103C6016AE070E00E948027FD
:10326000162F862F0E94A616212F30E0220F331F23
:10327000A901440F551F440F551F240F351FC21AB3
:10328000D30AA60160E070E0706190E0A0E0B0E0D9
:10329000880F991FAA1FBB1F880F991FAA1FBB1F4A
:1032A000880F991FAA1FBB1F880F991FAA1FBB1F3A
:1032B000482B592B6A2B7B2B40939B0350939C03E9
:1032C00060939D0370939E0381E00E94B61682E096
:1032D0000E94B61683E00E94B61680911105809375
:1032E0009A0376C1C090AC03D090AD03C6016AE0EA
:1032F00070E00E949427162F862F0E94A616482F52
:1033000050E060E070E0440F551F661F771F440FC8
:10331000551F661F771F440F551F661F771F440FE9
:10332000551F661F771F812F90E0880F991F9C0102
:10333000220F331F220F331F820F931FC81AD90A7F
:10334000EE24D7FCE094FE2C4C295D296E297F29C0
:10335000440F551F661F771F440F551F661F771FA9
:10336000440F551F661F771F440F551F661F771F99
:10337000786040939B0350939C0360939D037093EC
:103380009E0381E00E94B61682E00E94B61686E097
:103390000E94B6168091180580939A0319C1C090B7
:1033A000A803D090A903E090AA03F090AB03C70153
:1033B000B60120E030E048EC52E40E94C7210E94B0
:1033C0003422162F862F0E94A616882E812F90E079
:1033D00024E630E0829FB001839F700D929F700DB4
:1033E0001124882777FD8095982F0E9462229B01E7
:1033F000AC01C701B6010E946221462F572F682FEA
:10340000792FCB01BA010E943422862F0E94A61682
:103410009924AA24BB24BA2CA92C982C882490E0A7
:10342000A0E0B0E0882A992AAA2ABB2AC701B601DF
:103430000E942F22882777FD8095982F0E94622274
:103440009B01AC01C701B6010E94622120E030E07F
:1034500040E251E40E9433230E943422462F50E080
:1034600042955295507F5427407F5427662757FD39
:103470006095762F7860BA2DA92D982D88274A015E
:103480005B01882A992AAA2ABB2A80929B039092E0
:103490009C03A0929D03B0929E0386E00E94B61604
:1034A0008091150580939A0393C081E080934A032D
:1034B00089810E94A616C82E0A81802F0E94A61616
:1034C000DD24EE24FF24FE2CED2CDC2CCC2490E01B
:1034D000A0E0B0E0C82AD92AEA2AFB2A812F0E945C
:1034E000A616FE2CED2CDC2CCC2490E0A0E0B0E065
:1034F0008C299D29AE29BF29112329F42091170574
:1035000020939A0310C02091120520939A0310FF74
:103510000AC0B86080939B0390939C03A0939D0383
:10352000B0939E0309C0B06880939B0390939C0363
:10353000A0939D03B0939E0300FF12C080919B0354
:1035400090919C03A0919D03B0919E03B2608093E3
:103550009B0390939C03A0939D03B0939E0311C083
:1035600080919B0390919C03A0919D03B0919E0339
:10357000B06480939B0390939C03A0939D03B093AE
:103580009E0380911305882391F080919B03909175
:103590009C03A0919D03B0919E03B06280939B0316
:1035A00090939C03A0939D03B0939E0311C08091C0
:1035B0009B0390919C03A0919D03B0919E03BF7DBE
:1035C00080939B0390939C03A0939D03B0939E03D1
:1035D00028960FB6F894DEBF0FBECDBFDF91CF9116
:1035E0001F910F91FF90EF90DF90CF90BF90AF9021
:1035F0009F908F900895E0EBF0E08081826080835F
:1036000082E08093B10083E68093B3001092B20011
:10361000E0E7F0E0808182608083089584B1877E56
:1036200084B985B1877E85B984B1876284B985B153
:10363000887D85B98AB1806E8AB98BB18F718BB95B
:103640000895CF93DF93CDB7DEB764970FB6F894A4
:10365000DEBF0FBECDBF0E94FB1A0E94D60F8CE0CA
:103660000E94C30B0E940E1B83E390E00E946A201D
:103670000E947F0185EE97E163EB72E040E050E04D
:1036800028EE33E00E94171D89E594E16BEB72E0B0
:1036900044E650E022E330E00E94171D83EE92E101
:1036A00062EC72E046E950E024EF31E00E94171D21
:1036B0008FE895E16AEC72E04AEF50E028E833E1E8
:1036C0000E94171D8BE495E160ED72E04EE551E03C
:1036D00028EE33E00E94171D78940E94E80A0E94A9
:1036E000310B82E290E00E94272A91E0882309F4BE
:1036F00090E09093130587ED92E00E942F2181E0E6
:1037000093E00E942F218DB79EB70C970FB6F894C7
:103710009EBF0FBE8DBFEDB7FEB731968E010F5F16
:103720001F4FADB7BEB712961C930E93119780E151
:1037300093E0938382838091A30384831582809195
:10374000A203868317828091A103808711868091CE
:10375000A003828713860E94A7298DB79EB70C9677
:103760000FB6F8949EBF0FBE8DBFC8010E942F21D7
:103770008E010F5F1F4F0F2EF7E3EF2EF3E0FF2EAA
:10378000F02D0F2EFCE1CF2EF4E0DF2EF02D0F2ECA
:10379000F8E2AF2EF3E0BF2EF02D0E94711C0E94C4
:1037A0003209813019F08230C1F704C0C5010E948E
:1037B0002F21F3CF00D000D000D0EDB7FEB7319667
:1037C000ADB7BEB712961C930E931197F382E282A7
:1037D000D582C4820E94A7298DB79EB706960FB6E0
:1037E000F8949EBF0FBE8DBFC8010E942F21D5CF78
:1037F0008091190590911A05009709F471C080E035
:1038000090E060E0A9E1B5E0FC01EE0FFF1FE80FDA
:10381000F91FEE0FFF1FEE0FFF1FEE0FFF1FE80F48
:10382000F91FEA0FFB1F4089518941155105A9F085
:103830009C01220F331F280F391F220F331F220F25
:10384000331F220F331F820F931FFD01E80FF91F53
:1038500041505040518B408B2BC0FC01EE0FFF1F9D
:10386000E80FF91FEE0FFF1FEE0FFF1FEE0FFF1FF8
:10387000E80FF91FEA0FFB1F2289338921503040DE
:10388000338B228B2115310599F49C01220F331FB4
:10389000280F391F220F331F220F331F220F331F10
:1038A000820F931FFD01E80FF91F84898160848BCB
:1038B0006F5F862F90E0FC01EE0FFF1FE80FF91FEE
:1038C000EE0FFF1FEE0FFF1FEE0FFF1FE80FF91F98
:1038D000EA0FFB1F208131812115310509F094CFBA
:1038E00008958F929F92AF92BF92CF92DF92EF9204
:1038F000FF921F93CF93DF938091190590911A0542
:10390000009709F488C0C0E0D0E010E00F2EF9E184
:10391000CF2EF5E0DF2EF02DFE01EE0FFF1FEC0F96
:10392000FD1FEE0FFF1FEE0FFF1FEE0FFF1FEC0F2F
:10393000FD1FEC0DFD1D84898370833009F054C098
:103940000E94A4154B015C017E01EE0CFF1CEC0EE5
:10395000FD1EEE0CFF1CEE0CFF1CEE0CFF1CEC0E13
:10396000FD1EEC0CFD1CD701ED91FC910995F701B2
:1039700084898E7F848B86859785938B828B0E942A
:10398000A415AB01BC01481559056A057B0558F41F
:10399000D501C40180959095A095B095480F591F09
:1039A0006A1F7B1F04C0481959096A097B09FE0177
:1039B000EE0FFF1FEC0FFD1FEE0FFF1FEE0FFF1F9F
:1039C000EE0FFF1FEC0FFD1FEC0DFD1D568B458B01
:1039D0008789908DA0E0B0E084179507A607B70708
:1039E00018F4EF01588F4F8B1F5FC12FD0E0FE01FD
:1039F000EE0FFF1FEC0FFD1FEE0FFF1FEE0FFF1F5F
:103A0000EE0FFF1FEC0FFD1FEC0DFD1D808191815E
:103A1000009709F081CFDF91CF911F91FF90EF9038
:103A2000DF90CF90BF90AF909F908F9008954F926E
:103A30005F926F927F928F929F92AF92BF92CF923E
:103A4000DF92EF92FF921F93CF93DF937C015B0194
:103A50006A01B9011091C003193008F067C0809164
:103A60002705909128050097D9F0C0E049E155E07D
:103A7000CF5F2C2F30E0C901880F991F820F931F51
:103A8000880F991F880F991F880F991F820F931F06
:103A9000840F951FFC0186859785009749F701C023
:103AA000C0E080E090E028EE33E040E050E00E948B
:103AB00055270E94C9278C2F90E0EC01CC0FDD1F09
:103AC000C80FD91FCC0FDD1FCC0FDD1FCC0FDD1FA2
:103AD0004E01880E991EE401C75EDA4FF982E88232
:103AE0003F872E873B8B2A8BB60180E090E028EE43
:103AF00033E040E050E00E9455270E94C927398BEF
:103B0000288B8C8982608E7F8C8B1E8A1D8A188EF2
:103B10001F8AC401855E9A4FB5014CE050E00E94B7
:103B200032291F5F1093C00380E001C086E0DF915F
:103B3000CF911F91FF90EF90DF90CF90BF90AF900B
:103B40009F908F907F906F905F904F900895BF925D
:103B5000CF92DF92EF92FF920F931F93CF93DF9359
:103B60006C018091270590912805009709F457C0B2
:103B7000C0E0D0E010E000E00F2EF9E1EF2EF5E01C
:103B8000FF2EF02DBB24B394CE01880F991F8C0F0C
:103B90009D1F880F991F880F991F880F991F8C0FE1
:103BA0009D1F855E9A4FB6010E942929282F392F23
:103BB00021153105A1F4CE01880F991F8C0F9D1F8F
:103BC000880F991F880F991F880F991FC80FD91F39
:103BD000CE0DDF1D8C8982608C8B2B2D01C0202F98
:103BE0001F5FC12FD0E0FE01EE0FFF1FEC0FFD1F86
:103BF000EE0FFF1FEE0FFF1FEE0FFF1FEC0FFD1F5D
:103C0000EE0DFF1D86859785009729F0222309F484
:103C1000BBCF80E007C0222321F080E003C085E015
:103C200001C084E0DF91CF911F910F91FF90EF9041
:103C3000DF90CF90BF900895BF92CF92DF92EF9226
:103C4000FF920F931F93CF93DF936C018091270511
:103C500090912805009709F457C0C0E0D0E010E02B
:103C600000E00F2EF9E1EF2EF5E0FF2EF02DBB2442
:103C7000B394CE01880F991F8C0F9D1F880F991F39
:103C8000880F991F880F991F8C0F9D1F855E9A4F73
:103C9000B6010E942929282F392F21153105A1F4B9
:103CA000CE01880F991F8C0F9D1F880F991F880FB9
:103CB000991F880F991FC80FD91FCE0DDF1D8C8942
:103CC0008D7F8C8B2B2D01C0202F1F5FC12FD0E04B
:103CD000FE01EE0FFF1FEC0FFD1FEE0FFF1FEE0F9B
:103CE000FF1FEE0FFF1FEC0FFD1FEE0DFF1D868562
:103CF0009785009729F0222309F4BBCF80E007C005
:103D0000222321F080E003C085E001C084E0DF9140
:103D1000CF911F910F91FF90EF90DF90CF90BF90C8
:103D200008958F929F92BF92CF92DF92EF92FF926F
:103D30000F931F93CF93DF936B0120912705309151
:103D400028052115310509F462C0BC0180E090E02E
:103D500028EE33E040E050E00E9455270E94C9273A
:103D60004901C0E0D0E010E000E00F2EF9E1EF2EB5
:103D7000F5E0FF2EF02DBB24B394CE01880F991FE0
:103D80008C0F9D1F880F991F880F991F880F991FEF
:103D90008C0F9D1F855E9A4FB6010E942929282FFE
:103DA000392F2115310599F4CE01880F991F8C0FF9
:103DB0009D1F880F991F880F991F880F991FC80F83
:103DC000D91FCE0DDF1D9F868E862B2D01C0202F83
:103DD0001F5FC12FD0E0FE01EE0FFF1FEC0FFD1F94
:103DE000EE0FFF1FEE0FFF1FEE0FFF1FEC0FFD1F6B
:103DF000EE0DFF1D86859785009729F0222309F493
:103E0000BCCF80E007C0222321F080E003C085E022
:103E100001C084E0DF91CF911F910F91FF90EF904F
:103E2000DF90CF90BF909F908F900895AF92BF92F8
:103E3000CF92DF92EF92FF921F93CF93DF93CDB794
:103E4000DEB7C655D0400FB6F894DEBF0FBECDBF6B
:103E5000DE01D396EBE6F3E084E201900D9281500F
:103E6000E1F7CE01C3960E942F2140912705509182
:103E700028054115510509F479C020E030E010E033
:103E80007E010894E11CF11C0F2EFBE4AF2EF3E041
:103E9000BF2EF02D0F2EF9E1CF2EF5E0DF2EF02D05
:103EA0008DB79EB70E970FB6F8949EBF0FBE8DBF0D
:103EB000ADB7BEB71196EDB7FEB7F282E1821396A9
:103EC000BC92AE921297C901880F991F820F931F5F
:103ED000880F991F880F991F880F991F820F931FB2
:103EE0009C01255E3A4F15963C932E931497179696
:103EF0005C934E931697F601E80FF91F8489189684
:103F00008C93189719961C921997858996891B96F8
:103F10009C938E931A978789908D1D969C938E9370
:103F20001C970E94A7298DB79EB70E960FB6F894DE
:103F30009EBF0FBE8DBFC7010E942F211F5F212F83
:103F400030E0F901EE0FFF1FE20FF31FEE0FFF1F2E
:103F5000EE0FFF1FEE0FFF1FE20FF31FEC0DFD1D15
:103F6000468557854115510509F09ACFCA5ADF4F4A
:103F70000FB6F894DEBF0FBECDBFDF91CF911F917A
:103F8000FF90EF90DF90CF90BF90AF9008951F9279
:103F90000F920FB60F9211242F933F934F935F937D
:103FA0008F939F93EF93FF9390912906809128061A
:103FB0009817E1F080912906E0912B06F0912C06EC
:103FC000E80FF11D508140912906242F30E08091A7
:103FD0002A0690E001972817390711F04F5F01C0BA
:103FE00040E0409329065093C60005C0E1ECF0E0A4
:103FF00080818F7D8083FF91EF919F918F915F9161
:104000004F913F912F910F900FBE0F901F901895D9
:104010001F920F920FB60F9211242F933F934F933D
:104020005F938F939F93EF93FF93CF93DF930F92C1
:10403000CDB7DEB750912406E4E2F6E04291842F3A
:1040400090E0228130E0215030408217930711F038
:104050004F5F01C040E05417F1F08091C60090918D
:104060002306E0912606F0912706E90FF11D8083D3
:1040700040912306242F30E08091250690E001979F
:104080002817390711F04F5F01C040E04093230625
:104090001092220606C08091C600898381E0809339
:1040A00022068091C1039091C20301969093C203AE
:1040B0008093C1030F90DF91CF91FF91EF919F917A
:1040C0008F915F914F913F912F910F900FBE0F9065
:1040D0001F901895CF93DF93CDB7DEB764970FB6D7
:1040E000F894DEBF0FBECDBF9093C5008093C4008F
:1040F00088E98093C100E0ECF0E080818D7F8083CF
:1041000086E08093C200188A198A8EE18A8B8AEF32
:1041100095E09C8B8B8BDE011696FE01709685E0F8
:1041200001900D928150E1F7DE011B96FE0136965B
:1041300085E001900D928150E1F7A8E2B6E0FE0122
:104140003B9685E001900D928150E1F71B861C861D
:104150008AE08D8788E196E09F878E87DE01119641
:10416000FE013B9685E001900D928150E1F7DE0162
:104170005096FE01319685E001900D928150E1F755
:10418000A3E2B6E0FE01709685E001900D928150A9
:10419000E1F764960FB6F894DEBF0FBECDBFDF9196
:1041A000CF910895CF92DF92EF92FF920F931F93DA
:1041B000CF93DF93C82EC9E2D6E08E0101501040A4
:1041C000EE24FF246894E1F8E00EF11EDD2404C023
:1041D00081E090E00E94AF155881F8014081242FC2
:1041E00030E0F701808190E001972817390711F03E
:1041F0004F5F01C04D2D541759F3F8949091290643
:1042000080912806981729F4E1ECF0E08081806223
:10421000808380912806E0912B06F0912C06E80F10
:10422000F11DC08240912806242F30E080912A069B
:1042300090E001972817390711F04F5F01C040E067
:10424000409328067894DF91CF911F910F91FF90B2
:10425000EF90DF90CF9008950E94D2200895CF93E1
:10426000DF93EC018881882331F021960E942C2174
:1042700089918823D9F7DF91CF9108952091240661
:104280009091230681E0291709F480E00895809138
:104290002406E0912606F0912706E80FF11D8081A3
:1042A00090912406492F50E02091250630E02150BE
:1042B00030404217530711F09F5F01C090E0909388
:1042C000240608955058BB27AA270ED04DC13ED1D1
:1042D00030F043D120F031F49F3F11F41EF433C18C
:1042E0000EF4E095E7FB29C1E92F4FD180F3BA170F
:1042F000620773078407950718F071F49EF567C18C
:104300000EF4E0950B2EBA2FA02D0B01B9019001F0
:104310000C01CA01A0011124FF27591B99F0593F34
:1043200050F4503E68F11A16F040A22F232F342F7C
:104330004427585FF3CF469537952795A795F040CA
:104340005395C9F77EF41F16BA0B620B730B840BDF
:10435000BAF09150A1F0FF0FBB1F661F771F881F97
:10436000C2F70EC0BA0F621F731F841F48F48795EF
:1043700077956795B795F7959E3F08F0B3CF9395DE
:10438000880F08F09927EE0F9795879508950CD020
:10439000EBC0E3D040F0DAD030F021F45F3F19F009
:1043A000CCC0511115C1CFC0F0D098F39923C9F3F7
:1043B0005523B1F3951B550BBB27AA27621773072B
:1043C000840738F09F5F5F4F220F331F441FAA1FDF
:1043D000A9F333D00E2E3AF0E0E830D0915050409F
:1043E000E695001CCAF729D0FE2F27D0660F771F4D
:1043F000881FBB1F261737074807AB07B0E809F02F
:10440000BB0B802DBF01FF2793585F4F2AF09E3FC3
:10441000510568F092C0DCC05F3FECF3983EDCF3DE
:10442000869577956795B795F7959F5FC9F7880F3C
:10443000911D9695879597F90895E1E0660F771F8E
:10444000881FBB1F621773078407BA0720F0621B1F
:10445000730B840BBA0BEE1F88F7E095089504D018
:104460006894B111B5C0089598D088F09F5790F026
:10447000B92F9927B751A0F0D1F0660F771F881F89
:10448000991F1AF0BA95C9F712C0B13081F09FD0C8
:10449000B1E008959CC0672F782F8827B85F39F066
:1044A000B93FCCF3869577956795B395D9F73EF4E8
:1044B00090958095709561957F4F8F4F9F4F089590
:1044C000E89409C097FB3EF49095809570956195AE
:1044D0007F4F8F4F9F4F9923A9F0F92F96E9BB2764
:1044E0009395F695879577956795B795F111F8CFE0
:1044F000FAF4BB0F11F460FF1BC06F5F7F4F8F4F4B
:104500009F4F16C0882311F096E911C0772321F040
:104510009EE8872F762F05C0662371F096E8862FD8
:1045200070E060E02AF09A95660F771F881FDAF72F
:10453000880F9695879597F9089597F99F6780E872
:1045400070E060E008959FEF80EC089500240A94E5
:104550001616170618060906089500240A9412165E
:104560001306140605060895092E0394000C11F491
:10457000882352F0BB0F40F4BF2B11F460FF04C03E
:104580006F5F7F4F8F4F9F4F089557FD9058440F97
:10459000551F59F05F3F71F04795880F97FB991FA2
:1045A00061F09F3F79F0879508951216130614065F
:1045B000551FF2CF4695F1DF08C0161617061806EC
:1045C000991FF1CF86957105610508940895E894C7
:1045D000BB2766277727CB0197F908950EF0A6C071
:1045E000B2CF6894AACFD9DFC8F39923D1F3C6F329
:1045F000DF93CF931F930F93FF92C92FDD2788235B
:104600002AF02197660F771F881FDAF720E030E045
:1046100040E85FEB9FE3883920F0803E30F0219640
:104620008F7751DEE8E6F0E003C04DDEE5E9F0E02B
:104630008BD08B01BE01EC01FB2E6F577109759574
:10464000771F880B990B3EDF28E132E741E35FE3F8
:1046500016D0AF2D9801AE01FF900F911F91CF9111
:10466000DF9142DE81CF0BD07FCF70DF28F075DF86
:1046700018F0952309F061CF66CF1124A9CF85DF0B
:10468000A0F3959FD1F3950F50E0551F629FF00165
:10469000729FBB27F00DB11D639FAA27F00DB11DBE
:1046A000AA1F649F6627B00DA11D661F829F222747
:1046B000B00DA11D621F739FB00DA11D621F839FCE
:1046C000A00D611D221F749F3327A00D611D231FA4
:1046D000849F600D211D822F762F6A2F11249F57F2
:1046E00050408AF0E1F088234AF0EE0FFF1FBB1F15
:1046F000661F771F881F91505040A9F79E3F5105B4
:1047000070F01BCF65CF5F3FECF3983EDCF38695EE
:1047100077956795B795F795E7959F5FC1F7FE2B5E
:10472000880F911D9695879597F908959F3F31F0D1
:10473000915020F4879577956795B795880F911DCF
:104740009695879597F90895DF93CF931F930F93CD
:10475000FF92EF92DF927B018C01689405C0DA2E04
:10476000EF018DDFFE01E894A591259135914591EA
:104770005591AEF3EF01B8DDFE019701A801DA947F
:1047800079F7DF90EF90FF900F911F91CF91DF911C
:104790000895A5E1B0E0EFECF3E20C94E4274C01BE
:1047A0007F876E87FC0117821682838181FD04C09A
:1047B00076C34C855D8504C01E010894211C311C04
:1047C000F4019381EE85FF8593FD859193FF81919F
:1047D000FF87EE87882309F45EC3853241F493FD99
:1047E000859193FF8191FF87EE87853259F490E0A0
:1047F000B4014C8B5D8B0E947B294C895D895D8760
:104800004C87D7CFFF24DD2410E01032B0F48B3278
:1048100069F08C3228F4803251F0833271F40BC08D
:104820008D3239F0803349F411602CC0126014606D
:1048300029C0186027C0106125C017FD2EC0282F81
:1048400020532A3098F416FF08C08F2D880FF82EB9
:10485000FF0CFF0CF80EF20E15C08D2D880FD82E10
:10486000DD0CDD0CD80ED20E10620CC08E3221F49D
:1048700016FD11C3106406C08C3611F4106802C016
:10488000883659F4EE85FF8593FD859193FF8191DC
:10489000FF87EE87882309F0B8CF982F955493307F
:1048A00018F41061805E06C0982F9556933008F07A
:1048B000A2C11F7E16FD02C0E6E0FE2E1F738536E4
:1048C00011F4106406C0863611F4106802C0F110AD
:1048D000FA9417FF07C0FBE3FF1548F0EF2CE394B1
:1048E00027E00DC027E02F1530F02F2D07C027E05F
:1048F0007CE3E72E04C027E067E0F62EEE24CA0131
:1049000004969D878C87FA016081718182819381F1
:10491000A1010E2D0E9439285C01C9802C2D30E0A8
:10492000398B288BC0FE03C0388933FF06C011FDC8
:1049300006C012FF06C000E205C00DE203C00BE294
:1049400001C000E0888999898C709070009709F403
:104950003CC0002311F084E001C083E08D1558F4C1
:10496000D81A13FD09C080E290E0B4010E947B29AF
:10497000DA94C9F701C0DD24002329F0802F90E0EC
:10498000B4010E947B29888983FD05C036ECE32EA3
:1049900030E0F32E11C022ECE22E20E0F22E0CC00B
:1049A0000115110509F0805290E0B4010E947B29A5
:1049B0000894E11CF11C04C0012F10E0007110707C
:1049C000F7018491882361F763C217FF0EC0EA0CD8
:1049D000F889F4FF04C08A81813309F4EA941E1433
:1049E0004CF528E02E1548F12CC016FD2AC08F2D5D
:1049F00090E08A159B0544F03CEFA3163FEFB30609
:104A00001CF0106801C0FA94FF2049F0E2E0F0E0E9
:104A1000EC0FFD1FEF0DF11D80818033A1F317FF17
:104A200010C0EF2CE3948F2D90E0A816B90644F443
:104A3000FA1807C0EE24E39404C098E0E92E01C000
:104A4000FF2417FF07C01A141B043CF495012F5FC5
:104A50003F4F05C025E030E002C021E030E00023F8
:104A600011F02F5F3F4FFF2029F08F2D90E001962E
:104A7000280F391F8D2D90E02817390714F4D21A0A
:104A800001C0DD24612E7724C301897090700097E6
:104A900049F406C080E290E0B4010E947B29DA94D8
:104AA000DD20C1F7002329F0802F90E0B4010E949F
:104AB0007B2963FC09C006C080E390E0B4010E943A
:104AC0007B29DA94DD20C1F717FF48C08501B7FEC6
:104AD00002C000E010E06624772495012E19310908
:104AE0003B8B2A8B2501401A510A420C531C6F2D17
:104AF00070E0EE24FF24E61AF70A3FEF0F3F13079A
:104B000029F48EE290E0B4010E947B29A016B10640
:104B100054F02A893B89201731072CF4F201E60D65
:104B2000F71D818101C080E3015010400894611C91
:104B3000711C0E151F052CF090E0B4010E947B291A
:104B4000DCCF0A151B0541F49A81963320F4953386
:104B500019F4388934FF81E390E049C08A818133B8
:104B600011F09FEEC92290E0B4010E947B29FF2042
:104B700089F08EE290E0B4010E947B2912E0F101FD
:104B8000E10FF11D1F5F808190E0B4010E947B293D
:104B9000FA94A9F764FE03C085E490E002C085E6BC
:104BA00090E0B4010E947B29B7FC05C0A114B104B8
:104BB00041F4C4FE06C0B094A194B108B3948DE250
:104BC00001C08BE290E0B4010E947B2980E305C024
:104BD0008F5FE6EFFFEFAE0EBF1EFAE0AF16B10437
:104BE000BCF790E0B4010E947B29C501C096B401D6
:104BF0000E947B294DC1833631F0833789F083359C
:104C000009F059C022C09A012E5F3F4F3D872C8783
:104C1000FA018081898381E0E82EF12C510113C0D3
:104C20009A012E5F3F4F3D872C87FA01A080B1800B
:104C300016FF03C06F2D70E002C06FEF7FEFC5015C
:104C40000E9441297C011F7714C09A012E5F3F4FBB
:104C50003D872C87FA01A080B18016FF03C06F2D1D
:104C600070E002C06FEF7FEFC5010E9419297C013F
:104C7000106813FD1CC006C080E290E0B4010E94E1
:104C80007B29DA948D2D90E0E816F906A8F30FC081
:104C9000F50117FD859117FF81915F0190E0B40147
:104CA0000E947B29D110DA940894E108F108E114FC
:104CB000F10471F7EDC0843611F0893671F59A016F
:104CC00017FF0AC02C5F3F4F3D872C87FA01808178
:104CD0009181A281B3810BC02E5F3F4F3D872C870E
:104CE000FA0180819181AA2797FDA095BA2F012F03
:104CF0000F76B7FF08C0B095A095909581959F4F0E
:104D0000AF4FBF4F0068BC01CD01A1012AE030E0E8
:104D10000E94C929E82EE21841C0853721F41F7E80
:104D20002AE030E020C0197F8F36A9F0803720F4C8
:104D3000883509F0B0C00BC0803721F0883709F002
:104D4000AAC001C0106114FF09C0146007C014FF9D
:104D500008C0166006C028E030E005C020E130E061
:104D600002C020E132E0CA0117FF09C004969D8706
:104D70008C87FA01608171818281938108C00296DB
:104D80009D878C87FA016081718180E090E0A101AC
:104D90000E94C929E82EE218012F0F7706FF09C0EB
:104DA0000E7FEF1430F404FF06C002FD04C00F7E36
:104DB00002C01E2D01C01F2D802F90E004FF0CC0EB
:104DC000FE01EE0DF11D2081203311F4097E09C092
:104DD00002FF06C01E5F05C086789070009709F03C
:104DE0001F5FA02EBB2403FD12C000FF0DC0FE2CD0
:104DF0001D1550F4FD0CF11A1D2D06C080E290E047
:104E0000B4010E947B291F5F1D15C0F304C01D154E
:104E100010F4D11A01C0DD24A4FE0FC080E390E09D
:104E2000B4010E947B29A2FE1FC0A1FE03C088E539
:104E300090E010C088E790E00DC0C50186789070C2
:104E4000009791F0A1FC02C080E201C08BE207FD57
:104E50008DE290E0B4010E947B2906C080E390E0DF
:104E6000B4010E947B29FA94EF14C0F3EA94F10193
:104E7000EE0DF11D808190E0B4010E947B29EE20AF
:104E8000A9F706C080E290E0B4010E947B29DA9481
:104E9000DD20C1F78ECCF4018681978102C08FEFAF
:104EA0009FEF6596E2E10C940028629FD001739F0A
:104EB000F001829FE00DF11D649FE00DF11D929FB6
:104EC000F00D839FF00D749FF00D659FF00D9927F5
:104ED000729FB00DE11DF91F639FB00DE11DF91F19
:104EE000BD01CF0111240895991B79E004C0991FD9
:104EF000961708F0961B881F7A95C9F78095089534
:104F0000AA1BBB1B51E107C0AA1FBB1FA617B707EF
:104F100010F0A61BB70B881F991F5A95A9F780950B
:104F20009095BC01CD01089597FB092E07260AD064
:104F300077FD04D0E5DF06D000201AF47095619566
:104F40007F4F0895F6F7909581959F4F0895A1E2C0
:104F50001A2EAA1BBB1BFD010DC0AA1FBB1FEE1FF3
:104F6000FF1FA217B307E407F50720F0A21BB30B3E
:104F7000E40BF50B661F771F881F991F1A9469F7BA
:104F800060957095809590959B01AC01BD01CF0116
:104F9000089597FB092E05260ED057FD04D0D7DFC4
:104FA0000AD0001C38F450954095309521953F4F1C
:104FB0004F4F5F4F0895F6F79095809570956195E6
:104FC0007F4F8F4F9F4F08952F923F924F925F9246
:104FD0006F927F928F929F92AF92BF92CF92DF9209
:104FE000EF92FF920F931F93CF93DF93CDB7DEB76E
:104FF000CA1BDB0B0FB6F894DEBF0FBECDBF099402
:105000002A88398848885F846E847D848C849B8458
:10501000AA84B984C884DF80EE80FD800C811B8166
:10502000AA81B981CE0FD11D0FB6F894DEBF0FBE95
:10503000CDBFED010895FC0188279927E8942191BF
:105040002032E9F3293010F02E30C8F32B3241F032
:105050002D3239F4689404C00E947329820F911D87
:10506000219120532A30C0F31EF4909581959F4FD3
:105070000895283008F027E03327DA01990F311D11
:1050800087FD916000966105710539F432602E5FED
:105090003D9330E32A95E1F708959F3F30F0803843
:1050A0007105610509F03C5F3C5F3D93913008F06C
:1050B0008068911DDF93CF931F930F93FF92EF9220
:1050C000192F987F9695E92F96959695E90FFF27CA
:1050D000EC5DFE4F99273327EE24FF24A701E7015B
:1050E00005900894079428F4360FE71EF81E491F10
:1050F000511D660F771F881F991F0694A1F7059011
:10510000079428F4E70EF81E491F561FC11D770F9C
:10511000881F991F661F0694A1F70590079428F42D
:10512000F80E491F561FC71FD11D880F991F661FF4
:10513000771F0694A1F70590079420F4490F561F96
:10514000C71FD81F990F661F771F881F0694A9F7DE
:1051500084911095177041F0D695C795579547954E
:10516000F794E7941A95C1F7EAECF0E0689415908B
:10517000159135916591959105907FE27395E118B0
:10518000F10A430B560BC90BD009C0F7E10CF11E15
:10519000431F561FC91FD01D7EF4703311F48A952A
:1051A000E6CFE894015030F0080F0AF40027021708
:1051B00008F4202F2395022F7A3328F079E37D938A
:1051C0002A95E9F710C07D932A9589F6069497955C
:1051D0006795379517951794E118F10A430B560B0D
:1051E000C90BD00998F023957E9173957A3308F016
:1051F00070E37C932013B8F77E9170617D9330F05B
:10520000839571E37D9370E32A95E1F71124EF9084
:10521000FF900F911F91CF91DF91992787FD909576
:1052200008959111089581548A5108F4805E855A39
:105230000895FC010590615070400110D8F78095E9
:1052400090958E0F9F1F089543EC53E00E944C29C8
:105250000895FB01DC018D91019080190110D9F3B3
:10526000990B0895FB01DC014150504048F001903A
:105270000D920020C9F701C01D9241505040E0F747
:105280000895FC016150704001900110D8F780959D
:1052900090958E0F9F1F0895FA01A191B0810097FC
:1052A00019F41097E1F0CD01DC01CD010D90002043
:1052B00011F4C00113C0FB012191222319F0201524
:1052C000D9F7F3CFFB012191201519F41E92119605
:1052D00006C02223C1F70D900020A1F7D001FA01EA
:1052E000A193B08308957AE0979F902D879F802D9A
:1052F000910D112408950F931F93CF93DF938C0189
:10530000EB018B8181FF1BC082FF0DC02E813F818D
:105310008C819D812817390764F4E881F981019314
:10532000F983E88306C0E885F985802F0995009701
:1053300031F48E819F8101969F838E8302C00FEF8F
:105340001FEFC801DF91CF911F910F910895AEE03B
:10535000B0E0EDEAF9E20C94F2270D891E8986E0AF
:105360008C831A8309838FEF9FE79E838D83AE0121
:10537000475E5F4FCE0101966F89788D0E94C923E9
:10538000EF81F885E00FF11F10822E96E4E00C9477
:105390000E28FA01AA27283051F1203181F1E89432
:1053A0006F936E7F6E5F7F4F8F4F9F4FAF4FB1E018
:1053B0003ED0B4E03CD0670F781F891F9A1FA11D13
:1053C000680F791F8A1F911DA11D6A0F711D811D14
:1053D000911DA11D20D009F468943F912AE0269FD9
:1053E00011243019305D3193DEF6CF010895462F38
:1053F0004770405D4193B3E00FD0C9F7F6CF462F19
:105400004F70405D4A3318F0495D31FD4052419381
:1054100002D0A9F7EACFB4E0A6959795879577953E
:105420006795BA95C9F700976105710508959B01C5
:10543000AC010A2E06945795479537952795BA954E
:10544000C9F7620F731F841F951FA01D0895F99956
:10545000FECF92BD81BDF89A992780B50895262F79
:10546000F999FECF1FBA92BD81BD20BD0FB6F89449
:0E547000FA9AF99A0FBE01960895F894FFCFAC
:10547E004D6F6E0054756500576564005468750075
:10548E00467269005361740053756E00636F6C5BF6
:10549E0025645D3D25640A003A2D00446174653A29
:1054AE00200020253032642D253032642D25640AEB
:1054BE00003A2D2E0054696D653A20253032643A3B
:1054CE00253032643A253032640A00445333323385
:1054DE00313A200020253032642D253032642D25BE
:1054EE00642C20253032643A253032642E25303239
:1054FE00640A004453333233313A2025642E00308F
:10550E003020B0430A00323520B0430A0035302037
:10551E00B0430A00373520B0430A0054696D653A2E
:10552E0020253032643A253032640A004545505207
:10553E004F4D2072657365740A004E697869652057
:10554E00626F6172642076302E310A004552522EFF
:10555E00434D445B25735D0A004932432D736361ED
:10556E006E3A2000307825307820000A006E6F6E7B
:10557E006500456E7465722054696D6520286868F3
:10558E006D6D7373293A00456E74657220446174B3
:10559E0065202864646D6D79793A00256400536541
:1055AE00742D54696D6520455845433A0025642590
:1055BE00643A256425643A256425640A00536574AB
:1055CE002D4461746520455845433A002564256491
:1055DE002D256425642D25640A0069725B25635DA3
:1055EE000A0030313233343536373839554C52445F
:1055FE004F4148583F00120B16212C37424D58632D
:10560E0000626D703138303A2073746172745F5479
:10561E00206572720A0073746172745F5020657235
:10562E00720A00446973706C61790055706461741C
:10563E00650049525F726563760044485432320009
:10564E00424D50313830004E6978696520626F6185
:10565E0072642076302E322C20456D696C652C20BC
:10566E004D617274696A6E2C20526F6E616C640AA1
:10567E0000426C616E6B696E672066726F6D200002
:10568E00253032643A2530326420746F2025303252
:10569E00643A253032640A00436F6D6D616E64208A
:1056AE004572726F720A004E756D62657220457298
:1056BE00726F7220282573290A0001252D3131734E
:1056CE002025356420307825303278202020253072
:1056DE003364202020253033640A005461736B2D0F
:1056EE004E616D6520202054286D732920537461FE
:1056FE00742054286D7329204D286D73290A0000DB
:00000001FF
