:100000000C94E2000C94FF000C94FF000C94551E1D
:100010000C94FF000C94FF000C94FF000C94CB1682
:100020000C94FF000C94FF000C94FF000C94FF0054
:100030000C94FF000C94FF000C94FF000C94FF0044
:100040000C94FF000C94FF000C943B240C94FA23B6
:100050000C94FF000C94FF000C94FF000C94FF0024
:100060000C94FF000C94FF0008000000BE9224498D
:10007000123EABAAAA2ABECDCCCC4C3E00000080DA
:10008000BEABAAAAAA3E00000000BF000000803F4D
:100090000000000000084178D3BB4387D1133D190D
:1000A0000E3CC3BD4282AD2B3E68EC8276BED98F3A
:1000B000E1A93E4C80EFFFBE01C4FF7F3F0000007E
:1000C00000006E616E00696E660000407A10F35A9F
:1000D00000A0724E18090010A5D4E80000E8764888
:1000E000170000E40B54020000CA9A3B000000E134
:1000F000F505000080969800000040420F000000C7
:10010000A08601000000102700000000E8030000A6
:1001100000006400000000000A0000000000010070
:10012000000000002C76D888DC674F0823DFC1DF91
:10013000AE59E1B1B796E5E3E453C63AE651997694
:1001400096E8E6C28426EB898C9B62ED407C6FFCCE
:10015000EFBC9C9F40F2BAA56FA5F490055A2AF710
:100160005C936B6CF9676DC11BFCE0E40D47FEF519
:1001700020E6B500D0ED902E030094357705008081
:10018000841E080000204E0A000000C80C333333E0
:10019000330F986E12831141EF8D2114893BE65580
:1001A00016CFFEE6DB18D1844B381BF77C1D901D63
:1001B000A4BBE424203284725E228100C9F124ECC5
:1001C000A1E53D2711241FBECFEFD8E0DEBFCDBF94
:1001D00013E0A0E0B1E0EEE1F0E602C005900D9280
:1001E000A83AB107D9F716E0A8EAB3E001C01D921A
:1001F000AB34B107E1F70E94391F0C940D300C9419
:100200000000EF92FF921F93CF93DF93C82F7B01E3
:100210008EEE0E94410D11E0813009F010E01123B3
:1002200019F58C2F0E94B70D11E0813009F010E014
:100230001123D1F48FEE0E94AB0D11E0813009F053
:1002400010E0112389F40E94C90DD82F80E0C82F37
:10025000F701D183C0830E94D40D90E0C82BD92B25
:10026000F701D183C08303C0F701118210820E947D
:10027000AE0D812FDF91CF911F91FF90EF900895E8
:10028000EF92FF921F93CF93DF93C82F7B018EEEE7
:100290000E94410D11E0813009F010E0112319F5A1
:1002A0008C2F0E94B70D11E0813009F010E011236E
:1002B000D1F48FEE0E94AB0D11E0813009F010E017
:1002C000112389F40E94C90DD82F80E0C82FF701AF
:1002D000D183C0830E94D40D90E0C82BD92BF701A5
:1002E000D183C08303C0F701118210820E94AE0D3A
:1002F000812FDF91CF911F91FF90EF9008958F9202
:100300009F92AF92BF92CF92DF92EF92FF920F93A4
:100310001F93CF93DF938AEA67EF73E00E94010196
:10032000882309F0D0C18CEA6FE274E00E940101D9
:10033000882309F0CAC18EEA61E374E00E940101DA
:10034000882309F0C4C180EB67E274E00E94400199
:10035000882309F0BEC182EB6BE074E00E9440018B
:10036000882309F0B8C184EB69EF73E00E94400173
:10037000882309F0B2C186EB60E474E00E940101B9
:10038000882309F0ACC188EB6DE074E00E940101A4
:10039000882309F0A6C18AEB69E274E00E9401019A
:1003A000882309F0A0C18CEB62E474E00E94010193
:1003B000882309F09AC18EEB61EF73E00E9401017E
:1003C000882309F094C16091310470913204882728
:1003D00077FD8095982F0E949E2620E030E040EA2D
:1003E0005BE30E946F27062F172FD82EC92E862F6A
:1003F000912FAD2DBC2D80933B0490933C04A09392
:100400003D04B0933E04609127047091280480E07D
:1004100090E00E949C262FE632E143E053E30E94E5
:100420006F27C62FD72FF82EE92E862F9D2FAF2DA1
:10043000BE2D8093FF0390930004A0930104B0931A
:1004400002048091400490914104AA2797FDA09551
:10045000BA2FBC01CD010E949E2620E030E048EC7E
:1004600057E30E946F27B62EA72E982E892E862F2F
:100470009A2DA92DB82D8093070490930804A0937A
:100480000904B0930A0480910B0490910C04A0E03D
:10049000B0E0BC01CD010E949C262DEC3CEC4CE46C
:1004A00054E30E946F27DC01CB01809323049093D7
:1004B0002404A0932504B09326048091F90390911D
:1004C000FA03A0E0B0E0BC01CD010E949C26DC0153
:1004D000CB018093F3039093F403A093F503B093BF
:1004E000F6038091420490914304AA2797FDA095BA
:1004F000BA2FBC01CD010E949E262AE037ED43EAC7
:100500005DE30E946F27DC01CB0180932B04909365
:100510002C04A0932D04B0932E048091F1039091AC
:10052000F203AA2797FDA095BA2FBC01CD010E9426
:100530009E2620E030E040E253E40E940326DC01E6
:10054000CB0180931F0490932004A0932104B093C7
:1005500022048091F7039091F803AA2797FDA095B4
:10056000BA2FBC01CD010E949E26DC01CB018093F5
:10057000130490931404A0931504B093160480916F
:100580002F0490913004AA2797FDA095BA2FBC01A3
:10059000CD010E949E2620E030E040EA5CE30E940C
:1005A0006F27DC01CB018093370490933804A0932C
:1005B0003904B0933A0480910D0490910E04AA2757
:1005C00097FDA095BA2FBC01CD010E949E2620E088
:1005D00030E048E45AE30E946F27DC01CB018093AE
:1005E0000F0490931004A0931104B09312048C2F65
:1005F0009D2FAF2DBE2DBC01CD0120E030E040E0AD
:1006000057E40E946F27DC01CB018093170490937D
:100610001804A0931904B0931A04802F912FAD2DC4
:10062000BC2DBC01CD010C2F1D2F2F2D3E2DA9015E
:1006300098010E946F27DC01CB0180930304909303
:100640000404A0930504B09306048C2F9D2FAF2DB6
:10065000BE2DBC01CD010B2D1A2D292D382DA90140
:1006600098010E946F27DC01CB01809333049093A3
:100670003404A0933504B09336048CEE91E5A7E1E1
:10068000B0E48093ED039093EE03A093EF03B09357
:10069000F00380E394E3AEE7BFE380931B04909301
:1006A0001C04A0931D04B0931E0480E097E5A4E908
:1006B000B6E38093FB039093FC03A093FD03B093F8
:1006C000FE0380E015C081E013C081E011C081E02D
:1006D0000FC081E00DC081E00BC081E009C081E066
:1006E00007C081E005C081E003C081E001C081E076
:1006F000DF91CF911F910F91FF90EF90DF90CF90FE
:10070000BF90AF909F908F900895CF92DF92EF921D
:10071000FF920F931F93CF93DF93C82F7B01C42EBB
:100720008EEE0E94410D01E0813009F000E00023CF
:1007300069F58C2F0E94B70D01E0813009F000E0CF
:10074000002321F58FEE0E94AB0D01E0813009F00E
:1007500000E00023D9F4DD240894C108D1081C145A
:100760001D045CF40E94C90DF701808311E0812F04
:1007700090E08C159D05B4F003C0002339F410E01F
:10078000E701C10FD11D0E94D40D88830E94AE0DD8
:10079000802FDF91CF911F910F91FF90EF90DF900D
:1007A000CF900895E701C10FD11D0E94C90D888324
:1007B0001F5FDDCFCF938EEE0E94410DC1E08130EF
:1007C00009F0C0E0CC2381F484EF0E94B70DC1E0B2
:1007D000813009F0C0E0CC2339F48EE20E94B70DDD
:1007E000C1E0813009F0C0E00E94AE0D8C2FCF91A6
:1007F0000895AF92BF92CF92DF92EF92FF920F9344
:100800001F93CF93DF9300D0CDB7DEB75C011A8280
:10081000198286EFBE016F5F7F4F0E944001182F43
:10082000882309F049C069817A8180E090E00E94C4
:100830009C262091F3033091F4034091F5035091ED
:10084000F6030E949E2520912304309124044091B8
:100850002504509126040E946F27C62E072FF82EDC
:10086000E92E862F902FAF2DBE2DBC01CD012091FA
:100870001F043091200440912104509122040E94D1
:100880009F259B01AC0160912B0470912C048091F9
:100890002D0490912E040E9403262E2DD02EEF2C95
:1008A000F22EA70196010E949F25DC01CB01F501E4
:1008B00080839183A283B383812F0F900F90DF9168
:1008C000CF911F910F91FF90EF90DF90CF90BF904D
:1008D000AF900895CF93DF93823031F0833031F0C1
:1008E000813031F0D4E305C0D4EB03C0D4EF01C0B4
:1008F000D4E78EEE0E94410DC1E0813009F0C0E0E6
:10090000CC2381F484EF0E94B70DC1E0813009F05F
:10091000C0E0CC2339F48D2F0E94B70DC1E08130A7
:1009200009F0C0E00E94AE0D8C2FDF91CF910895A9
:100930002F923F924F925F926F927F929F92AF92CF
:10094000BF92CF92DF92EF92FF920F931F93CF93BC
:10095000DF93CDB7DEB727970FB6F894DEBF0FBE93
:10096000CDBF1C016A017B0186EFBE016F5F7F4F27
:1009700043E00E948503B82E882309F015C1C70102
:10098000B60120E030E048EC51E40E949E25F62EAE
:10099000E72ED82EC92E382F862F9E2DAD2DBC2D9B
:1009A000BC01CD010F2D1E2D232F3B2FA901980136
:1009B0000E946F27062F172FA82E992E698170E0AD
:1009C00080E090E00E949E2620E030E040E853E482
:1009D0000E946F272B013C016A8170E080E090E06B
:1009E0000E949E269B01AC01C301B2010E949F257B
:1009F0002B013C016B8170E080E090E00E949E261C
:100A000020E030E040E85BE30E946F279B01AC01EF
:100A1000C301B2010E949F256C837D838E839F83D7
:100A2000802F912FAA2DB92DBC01CD0120910F044B
:100A30003091100440911104509112040E946F27CC
:100A40002B013C018F2D9E2DAD2DBC2DBC01CD0168
:100A500020913704309138044091390450913A0480
:100A60000E946F279B01AC01C301B2010E949F2528
:100A700020911304309114044091150450911604F0
:100A80000E949F259B01AC016C817D818E819F819D
:100A90000E949E256C837D838E839F83802F912F60
:100AA000AA2DB92DBC01CD0120913304309134041D
:100AB00040913504509136040E946F272B013C0170
:100AC0008F2D9E2DAD2DBC2DBC01CD012091030499
:100AD0003091040440910504509106040E946F2750
:100AE0009B01AC01C301B2010E949F252091170414
:100AF000309118044091190450911A040E949F25C6
:100B00009B01AC016C817D818E819F810E940326B7
:100B1000F62EE72ED82EC92E382F862F9E2DAD2DDE
:100B2000BC2DBC01CD010F2D1E2D232F3B2FA90164
:100B300098010E946F27462F572F682F792FCB01DE
:100B4000BA012091FB033091FC034091FD035091C9
:100B5000FE030E946F272B013C01802F912FAD2DAA
:100B6000BC2DBC01CD0120911B0430911C0440918F
:100B70001D0450911E040E946F279B01AC01C3010C
:100B8000B2010E949F252091ED033091EE03409128
:100B9000EF035091F0030E949F25DC01CB01F1018E
:100BA00080839183A283B3838B2D27960FB6F8940D
:100BB000DEBF0FBECDBFDF91CF911F910F91FF9090
:100BC000EF90DF90CF90BF90AF909F907F906F900D
:100BD0005F904F903F902F9008958430F9F08530CA
:100BE00038F4823089F08330A0F4813051F507C0A9
:100BF0008630F1F08630B8F0873019F51EC080E0FD
:100C000091E00E946B25089584E091E00E946B259D
:100C1000089588E091E00E946B2508958CE091E0B2
:100C20000E946B25089580E191E00E946B25089554
:100C300084E191E00E946B25089588E191E00E9493
:100C40006B2508959F92AF92BF92CF92DF92EF9261
:100C5000FF920F931F93CF93DF93CDB7DEB7E49747
:100C60000FB6F894DEBF0FBECDBF7C0101960E9487
:100C7000EB2D082F8AE39DE2AEE2B0E089AB9AABA0
:100C8000ABABBCABD7018C918C3609F49EC38D36CF
:100C900050F4843609F48CC0853609F4CBC283360F
:100CA00009F0F5C30AC0833709F4C5C3873709F4CF
:100CB000E2C38D3609F0EBC38FC3C70103960E94D0
:100CC000EB2DD82E033051F1043028F40130A1F07F
:100CD0000230D8F408C0053099F1053040F10630F3
:100CE00009F040C036C08093650484E190E06D2D2A
:100CF0000E94FF2F10E037C08093660486E190E0E9
:100D00006D2D0E94FF2F10E02EC08093680488E1B3
:100D100090E06D2D0E94FF2F10E025C080936404A9
:100D20008AE190E06D2D0E94FF2F10E01CC080939F
:100D300032058CE190E06D2D0E94FF2F10E013C072
:100D4000809367048EE190E06D2D0E94FF2F10E0EC
:100D50000AC08093310580E290E06D2D0E94FF2F44
:100D600010E001C012E0EDB7FEB738970FB6F89467
:100D7000FEBF0FBEEDBF3196ADB7BEB71296FC9267
:100D8000EE9211978CE191E0938382830483158224
:100D9000D68217820E94772FEDB7FEB738960FB62E
:100DA000F894FEBF0FBEEDBFC7010E946B25A8C31C
:100DB000023009F4C2C0033030F4002371F0013076
:100DC00009F089C369C0043009F48BC1043008F408
:100DD0002DC1053009F07FC3D7C1C7010396BE01FD
:100DE0006F5C7F4F0E94F42E0E94EB2DE82E80E076
:100DF00090E0BE016F5C7F4F0E94F42E0E94EB2DAD
:100E0000D82E80E090E0BE016F5C7F4F0E94F42EF0
:100E10000E94EB2DC82EB92E88E291E00E946B252E
:100E20008E2D6D2D4C2D5B2D0E94500F0E94ED05D7
:100E30002DB73EB72A5030400FB6F8943EBF0FBED4
:100E40002DBFEDB7FEB731968E010F5F1F4FADB7C7
:100E5000BEB712961C930E9311978FE291E0938385
:100E60008283E4821582D6821782C086B1860E9470
:100E7000772FEDB7FEB73A960FB6F894FEBF0FBEC8
:100E8000EDBFC8010E946B258E2D6D2D4C2D5B2D65
:100E90000E94EE0F10E034C3C7010396BE016F5CE1
:100EA0007F4F0E94F42E0E94EB2DE82E80E090E010
:100EB000BE016F5C7F4F0E94F42E0E94EB2DD82E56
:100EC00080E090E0BE016F5C7F4F0E94F42E0E9494
:100ED000EB2DC82E2DB73EB72A5030400FB6F894F0
:100EE0003EBF0FBE2DBFEDB7FEB731968E010F5F2F
:100EF0001F4FADB7BEB712961C930E9311978EE39A
:100F000091E093838283E4821582D6821782C08621
:100F100011860E94772FEDB7FEB73A960FB6F89478
:100F2000FEBF0FBEEDBFC8010E946B258E2D6D2D3B
:100F30004C2D0E942F0F10E0E3C2CE0189960E9433
:100F4000DA0E84E591E00E946B2588A90E94ED05E8
:100F50002DB73EB7205130400FB6F8943EBF0FBEBC
:100F60002DBFEDB7FEB731968E010F5F1F4FADB7A6
:100F7000BEB712961C930E9311978DE591E0938363
:100F800082838CA5848315828DA5868317828EA586
:100F90009FA59187808789A5828713868AA58487E4
:100FA00015868BA5868717860E94772FEDB7FEB72B
:100FB00070960FB6F894FEBF0FBEEDBFC8010E9439
:100FC0006B25E090C70329A53AA54BA55CA56DA5A7
:100FD0007EA58FA598A90E9442192DB73EB728502B
:100FE00030400FB6F8943EBF0FBE2DBFEDB7FEB731
:100FF0003196ADB7BEB712961C930E9311972BE79F
:1010000031E033832283E4821582868317820E9433
:10101000772FEDB7FEB738960FB6F894FEBF0FBE28
:10102000EDBFC8010E946B2510E06AC20E942B1020
:101030007C0100D000D000D0EDB7FEB731968E0114
:101040000F5F1F4FADB7BEB712961C930E9311974B
:1010500081E991E093838283C70195958795959562
:101060008795958384830E94772FEDB7FEB73696D8
:101070000FB6F894FEBF0FBEEDBFC8010E946B25EE
:10108000F3E0EF22FF2421E0E216F104C1F032E0A8
:10109000E316F10424F4E114F10459F01EC282E0D5
:1010A000E816F10491F093E0E916F10409F015C295
:1010B00012C08DE991E00E946B2510E021C284EA04
:1010C00091E00E946B2510E01BC28BEA91E00E9428
:1010D0006B2510E015C282EB91E00E946B2510E0B9
:1010E0000FC2C7010396BE016F5C7F4F0E94F42EB2
:1010F0000E94EB2D182F80E090E0BE016F5C7F4FC7
:101100000E94F42E0E94EB2D082F183108F0E7C141
:101110008C3308F0E6C11093C6038093C5038AE0C0
:1011200090E0612F0E94FF2F8CE090E06091C5035A
:101130000E94FF2FADB7BEB718970FB6F894BEBF89
:101140000FBEADBFEDB7FEB731967E010894E11C2E
:10115000F11C1296FC92EE92119789EB91E0938329
:10116000828314831582068317820E94772FEDB73E
:10117000FEB738960FB6F894FEBF0FBEEDBFC7019D
:101180000E946B2510E0BCC1C7010396BE016F5CD5
:101190007F4F0E94F42E0E94EB2D182F80E090E0EC
:1011A000BE016F5C7F4F0E94F42E0E94EB2D082F32
:1011B000183108F098C18C3308F097C11093C4031C
:1011C0008093C3038EE090E0612F0E94FF2F80E1A7
:1011D00090E06091C3030E94FF2F2DB73EB72850C7
:1011E00030400FB6F8943EBF0FBE2DBFEDB7FEB72F
:1011F00031967E010894E11CF11CADB7BEB7129682
:10120000FC92EE92119784EE91E093838283148393
:101210001582068317820E94772FEDB7FEB73896A6
:101220000FB6F894FEBF0FBEEDBFC7010E946B253D
:1012300010E066C1002309F05AC1C7010396BE0140
:101240006F5C7F4F0E94F42E0E94EB2DD82E80E021
:1012500090E0BE016F5C7F4F0E94F42E0E94EB2D48
:10126000C82E80E090E0BE016F5C7F4F0E94F42E9C
:101270000E94EB2DE82EF92E80E090E0BE016F5C1D
:101280007F4F0E94F42E0E94EB2DB82E8091C70351
:10129000882331F0F7E1BF1611F0B39401C0BB24ED
:1012A00080E090E0BE016F5C7F4F0E94F42E0E94B0
:1012B000EB2DA82E80E090E0BE016F5C7F4F0E9476
:1012C000F42E0E94EB2D8B3319F0982E939401C0CD
:1012D000992425EEE21627E0F206A0F08D2D6C2D64
:1012E000A7010E94EE0F8B2D6A2D492D0E942F0F12
:1012F00081E08093BF038093C20310924003109259
:101300003F0302C01092BF0388E291E00E946B2568
:101310008D2D6C2DA7010E94500F0E94ED058DB7F9
:101320009EB70A970FB6F8949EBF0FBE8DBFEDB75C
:10133000FEB731968E010F5F1F4FADB7BEB7129645
:101340001C930E9311978DE092E093838283D48255
:101350001582C6821782F186E0860E94772FEDB74C
:10136000FEB73A960FB6F894FEBF0FBEEDBFC801A8
:101370000E946B252DB73EB72A5030400FB6F89427
:101380003EBF0FBE2DBFEDB7FEB73196ADB7BEB7AE
:1013900012961C930E93119788E192E093838283B7
:1013A000B4821582A6821782908611860E94772FBA
:1013B000EDB7FEB73A960FB6F894FEBF0FBEEDBF7D
:1013C000C8010E946B2510E09BC0083008F091C056
:1013D0000093B30310E094C0053008F08CC00430D3
:1013E00031F500D000D000D0EDB7FEB731968E01B8
:1013F0000F5F1F4FADB7BEB712961C930E93119798
:1014000088E292E0938382838091440384831582EF
:101410000E94772FEDB7FEB736960FB6F894FEBF51
:101420000FBEEDBFC8010E946B2510E069C000939C
:10143000440310E065C0013071F0013030F002303B
:1014400071F0033009F059C00EC085E493E00E94AA
:101450006B2510E055C00E94DF0D10E051C00E94C6
:10146000492310E04DC09091DB0381E089278093F0
:10147000DB0310E045C0033008F041C00093420395
:1014800082E190E0602F0E94FF2F10E039C000D071
:1014900000D000D0EDB7FEB731968E010F5F1F4F21
:1014A000ADB7BEB712961C930E93119788E392E0E6
:1014B00093838283F582E4820E94772FEDB7FEB793
:1014C00036960FB6F894FEBF0FBEEDBFC8010E945E
:1014D0006B2511E015C012E013C010E011C010E040
:1014E0000FC010E00DC010E00BC010E009C010E00C
:1014F00007C012E005C012E003C012E001C012E014
:10150000812FE4960FB6F894DEBF0FBECDBFDF91FA
:10151000CF911F910F91FF90EF90DF90CF90BF90F0
:10152000AF909F9008958091A903882349F50E9468
:101530007A25882309F10E94832590E00E94E12EFC
:101540008A3019F08D3071F417C081E08093A903BF
:101550008091A803E4E4F4E0E80FF11D10821092FA
:10156000A8030AC09091A803E4E4F4E0E90FF11D98
:1015700080839F5F9093A8038091A903882339F00B
:101580001092A90384E494E00E942206089580E06A
:1015900008952F923F924F925F927F928F929F92E7
:1015A000AF92BF92CF92DF92EF92FF920F931F9371
:1015B000CF93DF93249A2C9881E090E00E94A116AB
:1015C000249880E293E003C0019709F476C01C9947
:1015D000FBCF80E991E003C0019709F470C01C9B28
:1015E000FBCF80E991E003C0019709F46AC01C9920
:1015F000FBCFA0E0B0E020E931E000E911E090E0AD
:1016000070E0C0E058E260E80F2EFFE8AF2EF1E096
:10161000BF2EF02D0F2EF8E58F2EF4E09F2EF02D2B
:10162000D0E00F2EF0E87F2EF02D0F2EF0E9CF2E18
:10163000F1E0DF2EF0E0EF2EF0E0FF2EF02D01C004
:10164000942F83B1482F407184FD30C0992371F1EC
:101650005332C8F02017310708F48901C801A0E00F
:10166000B0E016012701281A390A4A0A5B0AD2019A
:10167000C101B695A79597958795B695A795979526
:101680008795DC0107C0C8018A1B9B0B8217930753
:1016900008F0762B669539F4F401EC0FF11D708398
:1016A000CF5F7D2F672D5150950103C021503040F1
:1016B00051F0552329F680E007C08DEF05C08CEF6F
:1016C00003C08BEF01C08EEFDF91CF911F910F917F
:1016D000FF90EF90DF90CF90BF90AF909F908F9052
:1016E0007F905F904F903F902F9008950F931F939E
:1016F000CF93DF93EC018B010E94C90A90915804AB
:1017000093709093580420915A04237820935A049C
:10171000392F20E04091590450E0242B352B398398
:10172000288340915A0450E04F775070542F44273B
:1017300020915B0430E0242B352BF801318320838A
:1017400090915A0499232CF4309521953F4F318381
:101750002083E8E5F4E0209159049081920F2281E2
:10176000920F2381920F20915C0429138FEFDF9158
:10177000CF911F910F9108954F925F926F927F9238
:101780008F929F92AF92BF92CF92DF92EF92FF9291
:101790000F931F93CF93DF9300D000D0CDB7DEB768
:1017A0004C01882777FD8095982F0E949E266B011B
:1017B0007C01B40180E090E00E949C2620E030E0B3
:1017C0004AE754E40E9403260E942F272B013C0184
:1017D000C701B60122E03BE24AE851E40E946F27CC
:1017E0004B015C01C701B60120E030E944E155E45A
:1017F0000E949F259B01AC01C501B4010E940326F4
:10180000A30192010E949F25462E872EC82E092FE4
:10181000862F982DAC2DB02FBC01CD0120E030E9F2
:1018200044E155E40E946F2769837A838B839C830C
:1018300062E07BE28AE891E4402F042D182D2C2DE4
:10184000342FA90198010E949E259B01AC0169815A
:101850007A818B819C810E9403260E946B26862FB1
:10186000972F0F900F900F900F90DF91CF911F91B6
:101870000F91FF90EF90DF90CF90BF90AF909F902F
:101880008F907F906F905F904F90089588E090E0E8
:101890000E94F72F8F3F09F046C088E090E061E09A
:1018A0000E94FF2F8AE090E067E10E94FF2F8CE00A
:1018B00090E06EE10E94FF2F8EE090E067E00E94D2
:1018C000FF2F80E190E06EE10E94FF2F82E190E027
:1018D00061E00E94FF2F84E190E060E00E94FF2F12
:1018E00086E190E062E00E94FF2F88E190E063E0F3
:1018F0000E94FF2F8AE190E064E00E94FF2F8CE1BC
:1019000090E066E00E94FF2F8EE190E061E00E948F
:10191000FF2F80E290E067E00E94FF2F82E290E0DC
:1019200060E00E94FF2F08958AE090E00E94F72F68
:101930008093C6038CE090E00E94F72F8093C5034C
:101940008EE090E00E94F72F8093C40380E190E046
:101950000E94F72F8093C30382E190E00E94F72F4B
:101960008093420384E190E00E94F72F8093650406
:1019700086E190E00E94F72F8093660488E190E072
:101980000E94F72F809368048AE190E00E94F72F6D
:10199000809364048CE190E00E94F72F80933205DD
:1019A0008EE190E00E94F72F8093670480E290E040
:1019B0000E94F72F8093310582E290E00E94F72F7A
:1019C00091E0882309F490E09093C70308958AE09A
:1019D00090E06091C6030E94FF2F8CE090E0609140
:1019E000C5030E94FF2F8EE090E06091C4030E9427
:1019F000FF2F80E190E06091C3030E94FF2F82E1FE
:101A000090E0609142030E94FF2F84E190E060919A
:101A100065040E94FF2F86E190E0609166040E94B9
:101A2000FF2F88E190E0609168040E94FF2F8AE117
:101A300090E0609164040E94FF2F8CE190E060913F
:101A400032050E94FF2F8EE190E0609167040E94B2
:101A5000FF2F80E290E0609131050E94FF2F82E22B
:101A600090E06091C7030E94FF2F08958C3019F415
:101A70001092B90003C091E09093B9008093B80030
:101A800008950F931F93CF93DF93182FECEBF0E0A3
:101A900084EA80838081882374F000E0CCEBD0E07E
:101AA00081E090E00E94A1160F5F8881882324F0D6
:101AB0000330B1F701C000E08091B900887F883021
:101AC00011F08031B1F40330B0F41093BB0084E81E
:101AD0008093BC00ECEBF0E080818823ECF79091E0
:101AE000B900987F983149F081E0903439F480E072
:101AF00005C081E003C081E001C080E0DF91CF91AB
:101B00001F910F910895CF93DF93ECEBF0E024EA5F
:101B1000A9EBB0E0CBEBD0E034E844E9208390813E
:101B20009923ECF79C91987F983011F09031B1F7A0
:101B30008883308390819923ECF79C91987F903231
:101B400011F0983529F44083908194FDFDCFE6CFC4
:101B5000DF91CF9108950E94410D089584E980930B
:101B6000BC00ECEBF0E0808184FDFDCF0895809314
:101B7000BB0084E88093BC00ECEBF0E0808188231C
:101B8000ECF79091B900987F81E0983209F480E0F9
:101B9000089584EC8093BC00ECEBF0E08081882316
:101BA000ECF78091BB00089584E88093BC00ECEBD7
:101BB000F0E080818823ECF78091BB000895AF921C
:101BC000BF92CF92DF92FF920F931F93CF93DF9339
:101BD000CDB7DEB7E7970FB6F894DEBF0FBECDBF27
:101BE000DE01D396E9E5F2E085E001900D928150A7
:101BF000E1F785E492E00E946B2502E010E0FF240B
:101C00006E010894C11CD11C0F2EF0E5AF2EF2E03E
:101C1000BF2EF02D802F0E94410D8823F1F400D0BB
:101C200000D000D0EDB7FEB73196ADB7BEB7129673
:101C3000DC92CE921197B382A282158304830E9414
:101C4000772F8DB79EB706960FB6F8949EBF0FBE3E
:101C50008DBFC6010E946B25F3940E94AE0D0E5FEE
:101C60001F4F91E000301907A9F6FF2021F4CE01A3
:101C7000C3960E946B2587E592E00E946B25E7964C
:101C80000FB6F894DEBF0FBECDBFDF91CF911F918D
:101C90000F91FF90DF90CF90BF90AF900895282FC5
:101CA0002F70982F9695969596959E70892F880FF0
:101CB000880F980F892F820F0895282F30E086FF14
:101CC00008C08F7025FF02C02AE001C020E0820F0B
:101CD00008958F70369527953695279536952795D3
:101CE0002670922F990F990F290F820F0895982F20
:101CF00092959F70990F292F220F220F920F8F70AC
:101D0000890F08956AE00E94B02B8295807F890F29
:101D100008950F931F93CF93DF93082FEB0180ED6E
:101D20000E94410D11E0813009F010E01123A9F467
:101D3000802F0E94B70D11E0813009F010E01123CF
:101D400061F481ED0E94AB0D11E0813009F010E0EB
:101D5000112319F40E94D40D88830E94AE0D812FA7
:101D6000DF91CF911F910F9108951F93CF93DF9330
:101D7000182FD62F80ED0E94410DC1E0813009F06F
:101D8000C0E0CC2381F4812F0E94B70DC1E08130E7
:101D900009F0C0E0CC2339F48D2F0E94B70DC1E0CB
:101DA000813009F0C0E00E94AE0D8C2FDF91CF9101
:101DB0001F9108951F93CF93DF93EC0180ED0E9454
:101DC000410D11E0813009F010E01123C1F580E0F0
:101DD0000E94B70D11E0813009F010E0112379F570
:101DE00081ED0E94AB0D11E0813009F010E011236C
:101DF00031F50E94C90D0E944F0E8A830E94C90DC1
:101E00000E944F0E89830E94C90D0E945D0E888337
:101E10000E94C90D8F830E94C90D0E944F0E8B83B3
:101E20000E94C90D0E944F0E8C830E94D40D0E9407
:101E3000770E90E08053984F9E838D8309C01E8259
:101E40001D82188219821A8281E08C838B838F8392
:101E50000E94AE0D812FDF91CF911F910895CF93F6
:101E6000DF93C62FD42F8831C0F46C33B0F44C33D9
:101E7000A0F40E94820E682F82E00E94B50E8C2F83
:101E80000E94820E682F81E00E94B50E8D2F0E9465
:101E9000820E682F80E00E94B50EDF91CF910895E9
:101EA0004F925F926F927F928F929F92AF92BF926A
:101EB000CF92DF92EF92FF92482E4A01262F30E018
:101EC0008EE090E0821B930B6CE070E00E94D02BC0
:101ED000AA24BB2480EC92E1A0E0B0E0880E991E19
:101EE000AA1EBB1ECB01AA2797FDA095BA2F881A60
:101EF000990AAA0ABB0ACB01880F991F680F791F9C
:101F0000660F771F660F771F620F731F882777FD95
:101F10008095982F29E930E040E050E00E94912B15
:101F2000695C71408040904025E030E040E050E046
:101F30000E94052C69017A01C40CD11CE11CF11C22
:101F4000C501B4012DE631E040E050E00E94912B44
:101F50002B013C014C0C5D1C6E1C7F1CC501B401A7
:101F600024E030E040E050E00E94052C69017A0155
:101F7000C40CD51CE61CF71CC501B40124E630E0F6
:101F800040E050E00E94052CC21AD30AE40AF50A88
:101F9000C501B40120E931E040E050E00E94052C89
:101FA000C20ED31EE41EF51EC701B6016C527D475A
:101FB0008040904027E030E040E050E00E94E32B7A
:101FC000862FFF90EF90DF90CF90BF90AF909F90C3
:101FD0008F907F906F905F904F9008950F931F9315
:101FE000CF93DF93C82FD62F81508F3138F5862FAE
:101FF00081508C3018F58A01005D174083E0083E5F
:102000001807E0F48C2F0E94500F682F83E00E9485
:10201000B50E802F0E94820E682F86E00E94B50EBA
:102020008D2F0E94820E682F85E00E94B50E8C2FA6
:102030000E94820E682F84E00E94B50EDF91CF913E
:102040001F910F910895682F8150873018F483E015
:102050000E94B50E08950F931F93CF93DF9300D086
:10206000CDB7DEB781E1BE016F5F7F4F0E94890E61
:10207000098110E0000F111F000F111F882331F498
:1020800082E1BE016E5F7F4F0E94890E2A812295F8
:1020900026952695237030E0022B132B11FF04C0E8
:1020A0001D7F109501951F4F882311F000E010E06F
:1020B000802F912F0F900F90DF91CF911F910F9153
:1020C00008958617970748F021E030E04817590730
:1020D00010F420E030E0C901089580E090E0089518
:1020E000AF92BF92CF92DF92EF92FF920F931F9326
:1020F000CF93DF931092AB031092AC031092AD0319
:102100001092AE030091BD03043418F4043009F0BA
:102110009EC080916B0490916C0468E072E048E589
:1021200052E00E946110882309F493C00430C1F486
:1021300080916D0490916E0468E770E040EA50E091
:102140000E946110882309F486C080916F049091E9
:1021500070046DE170E049E250E00E94611080C0BF
:1021600080916D0490916E0464E071E04CE251E066
:102170000E946110882309F470C0802F90E00197BD
:10218000843091050CF46BC0CFE6D4E0CE01049608
:1021900010E0055010405801B694A794AA0CBB1C3F
:1021A000AA0CBB1CA80EB91ECC24DD2476018881A4
:1021B00099816DE170E049E250E00E94611088234E
:1021C00049F4C092AB03D092AC03E092AD03F0921D
:1021D000AE0346C00A811B81C8016FE570E043E78A
:1021E00050E00E946110882369F0CC0CDD1CEE1CCD
:1021F000FF1C81E090E0A0E0B0E0C82AD92AEA2ADA
:10220000FB2A16C0C8016DE170E049E250E00E946F
:102210006110882349F4C092AB03D092AC03E092E2
:10222000AD03F092AE031CC0CC0CDD1CEE1CFF1CF9
:102230002496CA15DB0509F0BACFC092AB03D09241
:10224000AC03E092AD03F092AE0381E009C080E000
:1022500007C080E005C080E003C080E001C081E0ED
:10226000DF91CF911F910F91FF90EF90DF90CF9072
:10227000BF90AF900895EF92FF921F93CF93DF939B
:10228000CDB7DEB72A970FB6F894DEBF0FBECDBF2D
:102290008091AB039091AC03A091AD03B091AE03DC
:1022A0008D3A22E592072FEFA20720E0B20709F44A
:1022B000D7C08E3A22E592072FEFA20720E0B2079F
:1022C00008F05BC08D3D22E292072FEFA20720E0CD
:1022D000B20709F4BDC08E3D22E292072FEFA2079C
:1022E00020E0B207E0F48F3E20E192072FEFA20733
:1022F00020E0B20709F4C4C0873E28E192072FEF1F
:10230000A20720E0B20709F4B7C08D3F22E0920790
:102310002FEFA20720E0B20709F0BAC09DC0873CAA
:1023200028E392072FEFA20720E0B20709F4AAC022
:10233000883C28E392072FEFA20720E0B20750F471
:102340008F3C20E392072FEFA20720E0B20709F0AD
:102350009FC090C08D3B22E492072FEFA20720E0A0
:10236000B20709F47BC0853B2AE492072FEFA2074E
:1023700020E0B20709F08CC075C0873628E99207C3
:102380002FEFA20720E0B20709F470C0883628E9D1
:1023900092072FEFA20720E0B20770F58D3922E6F1
:1023A00092072FEFA20720E0B20709F44FC08E3941
:1023B00022E692072FEFA20720E0B20750F4853AF9
:1023C0002AE592072FEFA20720E0B20709F060C0CC
:1023D0005BC0873928E692072FEFA20720E0B207FB
:1023E00009F442C085382AE792072FEFA20720E0C0
:1023F000B20709F04DC042C08F3420EB92072FEF97
:10240000A20720E0B207A1F1803520EB92072FEF61
:10241000A20720E0B20748F4873528EA92072FEF99
:10242000A20720E0B207A1F535C08D3322EC920758
:102430002FEFA20720E0B20769F08F3F2FEF92073E
:102440002FEFA2072FEFB20719F520C01AE023C023
:102450001BE021C01CE01FC01EE01DC01FE01BC010
:1024600010E119C010E017C011E015C012E013C050
:1024700013E011C014E00FC015E00DC016E00BC052
:1024800017E009C018E007C019E005C011E103C05A
:1024900012E101C01DE000D000D000D0EDB7FEB7C2
:1024A00031967E010894E11CF11CADB7BEB71296BF
:1024B000FC92EE9211978EE592E093838283A6E6DA
:1024C000B2E0A10FB11D8C91848315820E94772FF9
:1024D0008DB79EB706960FB6F8949EBF0FBE8DBF00
:1024E000C7010E946B25812F2A960FB6F894DEBF94
:1024F0000FBECDBFDF91CF911F91FF90EF90089558
:102500008A3018F590915D04913051F0913018F0B7
:102510009230C9F413C08330C0F480935E040895F0
:1025200090915E04923029F4843078F480935F04B3
:102530000895923050F480935F040895863028F413
:10254000809360040895809361040895282F6AE0C1
:102550000E94B02B982F990F392F330F330F930F01
:102560008295807F291B2F70822B0895CF93DF9354
:102570009C01E8EEF3E0BF010E94BC2BCB018F7001
:102580009070EC01C295D295D07FDC27C07FDC270C
:102590006E9FC0016F9F900D7E9F900D1124F901D9
:1025A000E81BF90B24E630E0CF01B9010E94BC2BF7
:1025B000CB018F7090708C2B9D2BEC01C295D29526
:1025C000D07FDC27C07FDC27629FC001639F900D16
:1025D000729F900D1124E81BF90BCF016AE070E0A7
:1025E0000E94BC2BCB018F7090708C2B9D2BAC016B
:1025F00042955295507F5427407F5427CB01880F36
:10260000991F660F771F660F771F660F771F680F7A
:10261000791FE61BF70BEF70F0704E2B5F2B842FAA
:10262000952FDF91CF9108958231B1F49091C1033C
:102630009923A1F49091DB03992381F49091AF0346
:102640009F5F9093AF03993C48F01092B9031092AA
:10265000B8031092B00308951092AF039091B003A5
:10266000973078F4943008F0D8C1913009F4D5C18E
:102670009130E8F0923009F468C0933009F0CBC192
:1026800095C0993009F4F9C09A3038F4973009F4BC
:10269000C8C0983009F0BFC1DAC09B3009F4BDC191
:1026A0009B3008F40BC19C3009F0B5C128C18823C8
:1026B00021F481E08093B0030895813041F482E0F9
:1026C0008093B0031092B2031092B1030895823048
:1026D00041F483E08093B0031092B2031092B103EF
:1026E0000895833049F48AE792E00E946B251092A6
:1026F000B2031092B1030895863041F487E08093CD
:10270000B0031092B2031092B1030895873041F4E0
:1027100088E08093B0031092B2031092B103089541
:10272000883041F489E08093B0031092B203109294
:10273000B1030895893009F070C18AE08093B00335
:102740001092B2031092B10308958091B103909159
:10275000B20301969093B2038093B1038233910543
:1027600028F01092BA031092B003089585E493E024
:10277000FC0101900020E9F73197E81B8E0F911DB5
:10278000FC0135972081205320935E04FC01339790
:102790002081205320935F040297FC0180818053A5
:1027A0008093600484E08093BA0308958091B1031C
:1027B0009091B20301969093B2038093B1038E314E
:1027C000910528F01092BA031092B00308958091F9
:1027D0003F03909140036CE370E00E94BC2B80EDBE
:1027E00092E0861B970B0E94B612292F2F70209320
:1027F0005F049C01329522952F7023273F70232779
:102800002F70209360048F70809361048AE080931E
:1028100062048091BF038093630485E08093BA03D0
:1028200008958091B1039091B20301969093B20301
:102830008093B103F2E088359F0728F01092C1031E
:102840001092B003089581E08093C10308958091B0
:10285000B1039091B20301969093B2038093B103B8
:1028600022E08835920728F01092DB031092B00323
:10287000089581E08093DB0308958091C6030E9450
:10288000A612982F92959F7090935E048F708093FC
:102890005F048091C5030E94A612982F92959F70A5
:1028A000909360048F708093610410925D0481E0C6
:1028B0008093B9038CE08093B00308958091C403A2
:1028C0000E94A612982F92959F7090935E048F702D
:1028D00080935F048091C3030E94A612982F929563
:1028E0009F70909360048F708093610410925D04D8
:1028F00082E08093B9038CE08093B00308959091B7
:102900005D04EEE5F4E0E90FF11D20818B30D1F09C
:102910008C3018F48A3048F00BC08D3071F08D3057
:10292000D8F08E3009F079C020C00E94801208953E
:10293000822F8F5F0E9480120895822F81500E9403
:1029400080120895992321F483E080935D04089513
:10295000915090935D040895933019F410925D04A2
:1029600008959F5F90935D0408958091B90381302D
:1029700041F580915E04880F982F990F990F890F68
:1029800090915F04682F690F6093C6038091600483
:10299000880F982F990F990F890F90916104890FD3
:1029A0008093C5038AE090E00E94FF2F8CE090E0C6
:1029B0006091C5030E94FF2F1092B9031092B003DB
:1029C0000895823051F580915E04880F982F990FF9
:1029D000990F890F90915F04682F690F6093C4036A
:1029E00080916004880F982F990F990F890F90910B
:1029F0006104890F8093C3038EE090E00E94FF2F53
:102A000080E190E06091C3030E94FF2F1092B90310
:102A10001092B00308951092B00308958091AA0314
:102A20008823B9F00E947010882319F00E943B118E
:102A300001C082E1E9E6F4E02FE235E01192119263
:102A4000E217F307D9F792E090933E031092AA039E
:102A500001C082E10E9414130895DF92EF92FF9269
:102A60000F931F93CF93DF93CDB7DEB72A970FB69F
:102A7000F894DEBF0FBECDBFDE011196EEE7F2E0A7
:102A80008AE001900D928150E1F785B1887F85B988
:102A900095B18091B3038770892B85B98091B40378
:102AA0009091B503A091B603B091B7032091410373
:102AB000222309F4C9C0E92EF82E209142032130C7
:102AC000E9F1213020F0223009F0BEC06EC0882329
:102AD00091F5992319F020E3921769F5F090DF033F
:102AE000E8E0EF15E8F09E012F0D311DF90141815D
:102AF00050E060E070E0842B952BA62BB72B9070F4
:102B0000A0709A0111270027762F652F542F442794
:102B1000402B512B622B732B842B952BA62BB72B81
:102B2000EF2DEF5FE093DF03EA3008F48DC029E07A
:102B30002093DF0389C01092DF0386C0882391F5BC
:102B4000F090DF039E012F0D311DF901418150E00E
:102B500060E070E0842B952BA62BB72BEE2019F0AC
:102B6000F0E3EF16A1F428E02F1588F09070A07024
:102B70009A0111270027762F652F542F4427402BC9
:102B8000512B622B732B842B952BA62BB72BEF2D60
:102B9000EF5FE093DF03EA3008F456C029E02093AA
:102BA000DF0352C01092DF034FC02091E003821771
:102BB00009F448C08C019D010070D090DF03FE0134
:102BC000ED0DF11D418150E060E070E0042B152B0C
:102BD000262B372BE091E1039E1729F1EA2F107085
:102BE000B62FA52F942F8827802B912BA22BB32BA8
:102BF0002091E203E21719F4F0E3EF1669F4A070F4
:102C0000BA0155274427842B952BA62BB72B29E0F7
:102C1000D21659F4E093E2032091DF03293029F41E
:102C2000E092E10302C0D901C8012091DF032F5FC8
:102C30002093DF032A3040F029E02093DF03F09255
:102C4000E00302C01092DF03E0E240E050E060E009
:102C500070E82BB12F732BB98A019B01082319232C
:102C60002A233B23041715072607370711F45D9A1B
:102C700001C05D9876956795579547955F9A5F98DF
:102C8000E15039F75E9A5E982A960FB6F894DEBF47
:102C90000FBECDBFDF91CF911F910F91FF90EF90AD
:102CA000DF9008958091DE038130A1F0813028F01B
:102CB0008230E9F08330C9F52AC00E94DA03882304
:102CC00029F088E892E00E946B25089581E08093C6
:102CD000DE03089588EC93E00E94F903882319F03D
:102CE0001092DE03089582E08093DE03089584EF5E
:102CF0000E946A04882339F08DE992E00E946B25D6
:102D00001092DE03089583E08093DE0308954091DE
:102D1000C8035091C9036091CA037091CB038CEC36
:102D200093E00E9498041092DE030895F894609155
:102D3000D6037091D7038091D8039091D9037894EA
:102D400008958F929F92AF92BF92CF92DF92EF92AF
:102D5000FF92CF93DF93EC010E9496164B015C012A
:102D60006E01EE24FF240E949616DC01CB01881927
:102D70009909AA09BB098C159D05AE05BF0598F3F5
:102D8000DF91CF91FF90EF90DF90CF90BF90AF9009
:102D90009F908F9008951F920F920FB60F9211245B
:102DA0002F933F934F935F936F937F938F939F9353
:102DB000AF93BF93EF93FF932D9A0E942B208091A6
:102DC000D6039091D703A091D803B091D90301966F
:102DD000A11DB11D8093D6039093D703A093D80370
:102DE000B093D9032D98FF91EF91BF91AF919F912F
:102DF0008F917F916F915F914F913F912F910F90A4
:102E00000FBE0F901F901895EF92FF920F931F9394
:102E1000CF93DF93CDB7DEB728970FB6F894DEBF18
:102E20000FBECDBF122F2983F32E3A83042F4B837D
:102E3000E52E5C83262F6D837E838F8398874E815A
:102E40005F81633009F042C08FE163E00E94500F60
:102E50009091DC03913031F1913020F0923009F003
:102E600081C02CC067E00E94B02B8FE1891B8E15BA
:102E700041F4123031F4FF2079F481E08093DC03D7
:102E800071C0E81618F41092C70398C08E1520F48C
:102E900081E08093C70397C0123008F063C010929E
:102EA000C7038CC083E060E0402F0E942F0F82E0B8
:102EB0008093DC0381E08093C70385C0FF2011F07D
:102EC0001092DC0381E08093C7037DC06A3009F073
:102ED0003FC08FE16AE00E94500F9091DD03913076
:102EE00029F1913018F09230E9F52BC067E00E948B
:102EF000B02B8FE1891B8E1541F4133031F4FF2084
:102F000079F481E08093DD032DC08E1518F41092C2
:102F1000C70354C0E81620F481E08093C70353C070
:102F2000133000F581E08093C7034DC082E060E07C
:102F3000402F0E942F0F82E08093DD031092C70381
:102F40003DC0143010F01092DD031092C70336C05C
:102F50002350283018F01092C70330C081E08093CE
:102F6000C70331C082E290E00E94F72F9091C7031F
:102F7000992391F0882361F5173118F4812F8F5F21
:102F800001C080E06F2D402F0E942F0F82E290E061
:102F900061E00E94FF2F1CC08823D1F0112319F09B
:102FA000812F815001C087E16F2D402F0E942F0F8C
:102FB00082E290E060E00E94FF2F0AC082E290E08F
:102FC0000E94F72FE9CF82E290E00E94F72FD2CF44
:102FD00028960FB6F894DEBF0FBECDBFDF91CF911C
:102FE0001F910F91FF90EF90089584ED93E062EDB3
:102FF00073E00E94760B882379F46091D20370917C
:10300000D3038091D4039091D5030E94BC0B90937D
:10301000D1038093D00308958AEA92E00E946B2541
:103020000895282F6AE00E94B02B982F990F392F0E
:10303000330F330F930F8295807F291B2F70822BC4
:1030400008950F931F93982F9150963058F526E0CE
:1030500030E08901081B1109C801880F880F4AE078
:1030600050E060E070E08A019B0104C0000F111F76
:10307000221F331F8A95D2F7D901C8014091B403AA
:103080005091B5036091B6037091B703842B952BD3
:10309000A62BB72B8093B4039093B503A093B603EC
:1030A000B093B7031F910F91089588B1807F88B9BD
:1030B0008091E303843009F462C0853050F481309C
:1030C00059F18130C8F08230B9F1833009F0BDC0C8
:1030D00046C0873009F486C0883038F4853009F45A
:1030E0005EC0863009F0B1C06DC0883009F48AC076
:1030F000893009F0AAC099C080E090E0A0E0B1E07A
:103100008093B4039093B503A093B603B093B70331
:1031100081E08093E30399C081E191E1A1E1B2E014
:103120008093B4039093B503A093B603B093B70311
:1031300082E08093E30389C082E292E2A2E2B0E4FB
:103140008093B4039093B503A093B603B093B703F1
:1031500088B18C6088B983E08093E30376C083E311
:1031600093E3A3E3B4E08093B4039093B503A093F7
:10317000B603B093B70384E08093E30366C084E4AE
:1031800094E4A4E4B8E08093B4039093B503A093CF
:10319000B603B093B70385E08093E30356C085E59B
:1031A00095E5A5E5B0E88093B4039093B503A093AB
:1031B000B603B093B70388B1896088B986E080937D
:1031C000E30343C086E696E6A6E6B0E18093B40347
:1031D0009093B503A093B603B093B70387E08093B1
:1031E000E30333C087E797E7A7E7B0E28093B40330
:1031F0009093B503A093B603B093B70388E0809390
:10320000E30323C088E898E8A8E8BFEF8093B403FD
:103210009093B503A093B603B093B70388B18A60C7
:1032200088B989E08093E30310C089E999E9A9E9A5
:10323000BFEF8093B4039093B503A093B603B0930C
:10324000B7031092E3031092DB038091E3038770CE
:103250008093B303089590E0880F991F880F991FFA
:10326000AC01440F551F9A01220F331F860F911D89
:10327000840F951F820F931FB901660F771F860F6A
:10328000971F0895EF92FF920F931F93CF93DF93B1
:10329000CDB7DEB728970FB6F894DEBF0FBECDBF0F
:1032A000822F632F0E942B197C018091C6036091AD
:1032B000C5030E942B198C018091C4036091C30344
:1032C0000E942B190817190760F0E016F106A8F400
:1032D00021E030E08E159F0510F420E030E0C901B8
:1032E00011C0E016F10660F021E030E0E816F906C2
:1032F00010F020E030E0C90105C081E090E002C09C
:1033000080E090E09091C103992311F091E089272A
:1033100028960FB6F894DEBF0FBECDBFDF91CF91D8
:103320001F910F91FF90EF9008958091BE0381301F
:10333000D9F0813020F0823009F044C01FC0809164
:103340003F039091400301969093400380933F0385
:1033500028EA803C9207E0F11092BF031092E40348
:1033600081E08093BE0308951092E50380EC92E023
:103370000E946B2582E08093BE0308958091BF0375
:10338000882319F01092BE0308959091E403892FC9
:103390008F5F8093E403863038F01092BE03109262
:1033A000400310923F0308958091E5038F5F80935F
:1033B000E5038C3368F09E5F9093E40381E0809393
:1033C000BE0308951092400310923F031092BE0373
:1033D00008958F929F92AF92BF92CF92DF92EF9219
:1033E000FF920F931F93CF93DF93CDB7DEB728974C
:1033F0000FB6F894DEBF0FBECDBF1092B40310928B
:10340000B5031092B6031092B703CE0101960E9445
:10341000DA0E0E949519109241038091C20388230D
:1034200079F084E0809344038091E6038F5F80937A
:10343000E603833048F01092E6031092C20304C002
:1034400083E08093440319C080914403823091F05B
:10345000833018F48130A1F406C0833071F08430D9
:1034600079F487E00EC00E94DB2D68E070E00E94D6
:10347000D02B07C08B81877004C08091430301C0AB
:1034800080E08093B3038091DB03882319F00E94CE
:103490005518E9C329813A814B815C816D817E8118
:1034A0008F8198850E944219882389F08AEA9AEAD6
:1034B000AAEAB0E08093B4039093B503A093B60357
:1034C000B093B70388B1807F88B91092B30380911D
:1034D000BA03843009F06AC040915E0450E060E0B5
:1034E00070E0440F551F661F771F440F551F661F5E
:1034F000771F440F551F661F771F440F551F661F08
:10350000771F80915F0490E0A0E0B0E0482B592B3A
:103510006A2B7B2B440F551F661F771F440F551FC7
:10352000661F771F440F551F661F771F440F551FD7
:10353000661F771F8091600490E0A0E0B0E0842BCC
:10354000952BA62BB72B880F991FAA1FBB1F880F7F
:10355000991FAA1FBB1F880F991FAA1FBB1F880F87
:10356000991FAA1FBB1F8093B4039093B503A09328
:10357000B603B093B70381E00E94211882E00E9455
:10358000211886E00E9421188091B4039091B50320
:10359000A091B603B091B703B4608093B403909345
:1035A000B503A093B603B093B7035DC3853009F0AC
:1035B0004DC02EE534E080915E0490E0A0E0B0E0E4
:1035C000880F991FAA1FBB1F880F991FAA1FBB1F17
:1035D000880F991FAA1FBB1F880F991FAA1FBB1F07
:1035E000F90131962A5F3F4F419150E060E070E071
:1035F000842B952BA62BB72B880F991FAA1FBB1FB7
:10360000880F991FAA1FBB1F880F991FAA1FBB1FD6
:10361000880F991FAA1FBB1FE217F30729F7809392
:10362000B4039093B503A093B603B093B70380910E
:103630006304813021F482E08093B30303C081E00E
:103640008093B30386E00E9421180DC38091B903D3
:10365000882309F4BAC040915E0450E060E070E055
:10366000440F551F661F771F440F551F661F771F96
:10367000440F551F661F771F440F551F661F771F86
:1036800080915F0490E0A0E0B0E0482B592B6A2BBA
:103690007B2B440F551F661F771F440F551F661F56
:1036A000771F440F551F661F771F440F551F661F56
:1036B000771F8091600490E0A0E0B0E0482B592B88
:1036C0006A2B7B2B440F551F661F771F440F551F16
:1036D000661F771F440F551F661F771F440F551F26
:1036E000661F771F8091610490E0A0E0B0E0842B1A
:1036F000952BA62BB72B880F991FAA1FBB1F880FCE
:10370000991FAA1FBB1F880F991FAA1FBB1F880FD5
:10371000991FAA1FBB1F8093B4039093B503A09376
:10372000B603B093B7032091E703222381F12091E0
:103730005D04213079F0213018F02230F9F414C002
:10374000AF608093B4039093B503A093B603B09396
:10375000B7031DC0906F8093B4039093B503A093FB
:10376000B603B093B70313C09F608093B4039093E4
:10377000B503A093B603B093B70309C0806F8093DD
:10378000B4039093B503A093B603B093B7038091AD
:10379000B4039091B503A091B603B091B703B460A0
:1037A0008093B4039093B503A093B603B093B7038B
:1037B00081E00E94211886E00E9421189091E70381
:1037C00081E089278093E7034EC28B81803109F421
:1037D00057C0813138F4882309F491C18F3009F042
:1037E0009AC107C0883209F494C0823309F093C1AA
:1037F000F2C088B1807F88B98C810E941118182F7F
:103800008D810E941118412F50E060E070E0032E7E
:103810003CE0440F551F661F771F3A95D1F7302DB6
:1038200090E0A0E0B0E0482B592B6A2B7B2BDB010A
:10383000CA01880F991FAA1FBB1F880F991FAA1FB3
:10384000BB1F880F991FAA1FBB1F880F991FAA1F94
:10385000BB1F8093B4039093B503A093B603B093BA
:10386000B70383E00E94211886E00E94211880910E
:103870004403833009F0F7C182E08093B303F3C1BE
:1038800088B1807F88B98E819F8164E670E00E9454
:10389000BC2B082F862F0E941118182F802F0E94F2
:1038A0001118412F50E060E070E0762F652F542F03
:1038B000442790E0A0E0B0E0482B592B6A2B7B2BEB
:1038C000DB01CA01880F991FAA1FBB1F880F991F10
:1038D000AA1FBB1F880F991FAA1FBB1F880F991F04
:1038E000AA1FBB1F8093B4039093B503A093B603A4
:1038F000B093B70381E00E94211886E00E9421184E
:1039000080914403833009F0AEC182E08093B30319
:10391000AAC18090C8039090C903A090CA03B09038
:10392000CB03C501B4010E947026C62E862F0E94CB
:103930001118182F6C2D70E080E090E00E949E26F8
:103940009B01AC01C501B4010E949E2520E030E03E
:1039500040E251E40E946F270E947026862F90E07B
:10396000A0E0B0E0B061412F50E060E070E0440FB3
:10397000551F661F771F440F551F661F771F440F83
:10398000551F661F771F440F551F661F771F842B17
:10399000952BA62BB72B8093B4039093B503A093DC
:1039A000B603B093B70381E00E94211882E00E9421
:1039B000211883E00E94211888B18C7F88B988B1D2
:1039C0008C6088B980914403833009F04CC181E058
:1039D0008093B30348C18090CC039090CD03A09016
:1039E000CE03B090CF03C501B40120E030E048EC35
:1039F00052E40E9403260E947026C62E862F0E9443
:103A00001118082F2C2D30E084E690E0289FB0019B
:103A1000299F700D389F700D1124882777FD8095A0
:103A2000982F0E949E269B01AC01C501B4010E9403
:103A30009E25462F572F682F792FCB01BA010E9460
:103A40007026862F0E941118182FC501B4010E94FC
:103A50006B26882777FD8095982F0E949E269B01D4
:103A6000AC01C501B4010E949E2520E030E040E297
:103A700051E40E946F270E947026862F90E0A0E0FC
:103A8000B0E0B061402F50E060E070E0762F652F2D
:103A9000542F4427012F10E020E030E0402B512B21
:103AA000622B732B440F551F661F771F440F551F42
:103AB000661F771F440F551F661F771F440F551F42
:103AC000661F771F842B952BA62BB72B8093B403EF
:103AD0009093B503A093B603B093B70381E00E941F
:103AE000211888B18A7F88B988B18A6088B98091A5
:103AF0004403833009F0B7C08093B303B4C080910E
:103B00004203882341F080914403833021F4809163
:103B100031058093B30381E08093410329813A8189
:103B20004B815C816D817E818F8198850E94041715
:103B300089810E941118C82E8A810E941118DD24E3
:103B4000EE24FF24FE2CED2CDC2CCC2490E0A0E015
:103B5000B0E0C82AD92AEA2AFB2A8B810E941118D0
:103B6000FE2CED2CDC2CCC2490E0A0E0B0E0C82AA8
:103B7000D92AEA2AFB2AC092B403D092B503E09274
:103B8000B603F092B70388B1807F88B98B8180FF3C
:103B90000CC0D701C601B8608093B4039093B503FD
:103BA000A093B603B093B70311C08091B403909172
:103BB000B503A091B603B091B703B0688093B40386
:103BC0009093B503A093B603B093B7038A8180FFA7
:103BD00012C08091B4039091B503A091B603B09147
:103BE000B703B2608093B4039093B503A093B60378
:103BF000B093B70311C08091B4039091B503A09125
:103C0000B603B091B703B0648093B4039093B50347
:103C1000A093B603B093B7038091C703882391F0B4
:103C20008091B4039091B503A091B603B091B7030E
:103C3000B0628093B4039093B503A093B603B0939E
:103C4000B70311C08091B4039091B503A091B6035E
:103C5000B091B703BF7D8093B4039093B503A09355
:103C6000B603B093B70328960FB6F894DEBF0FBE25
:103C7000CDBFDF91CF911F910F91FF90EF90DF901B
:103C8000CF90BF90AF909F908F900895109280003A
:103C900084E0809381001092850010928400089542
:103CA000809184009091850008951F920F920FB625
:103CB0000F9211242F933F934F935F936F937F93B2
:103CC0008F939F93AF93BF93EF93FF930E94501EE8
:103CD00023B1522F58702091BB033091BC0382173F
:103CE000930728F420953095280F391F04C0BC0194
:103CF000621B730B9B0140913E03433099F04430AB
:103D000071F1423009F051C0552309F04EC0909333
:103D10006A048093690421E02093BD0323E020938B
:103D20003E0343C0552309F440C04091BD034336D0
:103D300078F4E42FF0E0EE0FFF1FE759FB4F3183DB
:103D400020834F5F4093BD0324E020933E032DC0AA
:103D500021E02093AA0325E020933E0326C05523AB
:103D600021F574E0233E370738F021E02093AA03C1
:103D700025E020933E0319C04091BD03433678F4FB
:103D8000E42FF0E0EE0FFF1FE759FB4F3183208354
:103D90004F5F4093BD0323E020933E0306C021E024
:103DA0002093AA0325E020933E039093BC038093C5
:103DB000BB03FF91EF91BF91AF919F918F917F9145
:103DC0006F915F914F913F912F910F900FBE0F9088
:103DD0001F901895E0EBF0E080818260808385E0A1
:103DE0008093B1008CE78093B3001092B200E0E7BB
:103DF000F0E0808182608083089584B1877E84B9F9
:103E000085B1877E85B984B1876284B985B1887DA3
:103E100085B9E8E6F0E0808181608083EBE6F0E040
:103E200080818860808387B18F6087B988B1807F07
:103E300088B98AB1806E8AB98BB18F718BB90895B8
:103E4000CF93DF9300D0CDB7DEB780914706909136
:103E50004806009711F48BE496E09E012F5F3F4FD8
:103E6000A901481B590BCA010F900F90DF91CF9108
:103E70000895CF93DF93CDB7DEB764970FB6F8946C
:103E8000DEBF0FBECDBF0E94461E0E94EA1E8CE020
:103E90000E94360D0E94FD1E8BE390E00E94E02DF3
:103EA00088E090E00E949D240E947F0189EE99E1C4
:103EB00064EC72E040E050E028EE33E00E944A21DA
:103EC0008DE295E16CEC72E044E650E022E330E0F4
:103ED0000E944A218EE095E163ED72E046E950E0F0
:103EE00024E630E00E944A2182E596E16BED72E023
:103EF0004EE551E028E833E10E944A2178940E947F
:103F0000460C0E94940C82E290E00E94F72F91E010
:103F1000882309F490E09093C70385E493E00E941E
:103F20006B2582EE92E00E946B258DB79EB70C97B1
:103F30000FB6F8949EBF0FBE8DBFEDB7FEB731969A
:103F40008E010F5F1F4FADB7BEB712961C930E9335
:103F5000119781EF92E0938382838091C6038483DB
:103F600015828091C503868317828091C403808760
:103F700011868091C303828713860E94772F8DB7A5
:103F80009EB70C960FB6F8949EBF0FBE8DBFC801AA
:103F90000E946B250E94201F00D000D000D0EDB7FA
:103FA000FEB73196ADB7BEB712961C930E9311971C
:103FB00029E033E033832283958384830E94772F23
:103FC0008DB79EB706960FB6F8949EBF0FBE8DBFF5
:103FD000C8010E946B258E010F5F1F4F0F2EFBE261
:103FE000EF2EF3E0FF2EF02D0F2EF4E4CF2EF4E0B1
:103FF000DF2EF02D0F2EFCE1AF2EF3E0BF2EF02DC3
:104000000E94A4200E94930A813019F08230C1F7E7
:1040100004C0C5010E946B25F3CF00D000D000D0B2
:10402000EDB7FEB73196ADB7BEB712961C930E939F
:104030001197F382E282D582C4820E94772F8DB7D6
:104040009EB706960FB6F8949EBF0FBE8DBFC801EF
:104050000E946B25D5CF8091330590913405009750
:1040600009F471C080E090E060E0A3E3B5E0FC01FA
:10407000EE0FFF1FE80FF91FEE0FFF1FEE0FFF1FE0
:10408000EE0FFF1FE80FF91FEA0FFB1F4089518950
:1040900041155105A9F09C01220F331F280F391F2C
:1040A000220F331F220F331F220F331F820F931F44
:1040B000FD01E80FF91F41505040518B408B2BC040
:1040C000FC01EE0FFF1FE80FF91FEE0FFF1FEE0FB1
:1040D000FF1FEE0FFF1FE80FF91FEA0FFB1F2289DA
:1040E000338921503040338B228B2115310599F4CF
:1040F0009C01220F331F280F391F220F331F220F5D
:10410000331F220F331F820F931FFD01E80FF91F8A
:1041100084898160848B6F5F862F90E0FC01EE0FB5
:10412000FF1FE80FF91FEE0FFF1FEE0FFF1FEE0F2F
:10413000FF1FE80FF91FEA0FFB1F208131812115B6
:10414000310509F094CF08958F929F92AF92BF925C
:10415000CF92DF92EF92FF921F93CF93DF938091E4
:10416000330590913405009709F488C0C0E0D0E091
:1041700010E00F2EF3E3CF2EF5E0DF2EF02DFE0141
:10418000EE0FFF1FEC0FFD1FEE0FFF1FEE0FFF1FC7
:10419000EE0FFF1FEC0FFD1FEC0DFD1D84898370DA
:1041A000833009F054C00E9496164B015C017E01D9
:1041B000EE0CFF1CEC0EFD1EEE0CFF1CEE0CFF1CAB
:1041C000EE0CFF1CEC0EFD1EEC0CFD1CD701ED915E
:1041D000FC910995F70184898E7F848B868597856C
:1041E000938B828B0E949616AB01BC014815590532
:1041F0006A057B0558F4D501C40180959095A0957A
:10420000B095480F591F6A1F7B1F04C048195909F0
:104210006A097B09FE01EE0FFF1FEC0FFD1FEE0F79
:10422000FF1FEE0FFF1FEE0FFF1FEC0FFD1FEC0D2A
:10423000FD1D568B458B8789908DA0E0B0E08417DB
:104240009507A607B70718F4EF01588F4F8B1F5F2C
:10425000C12FD0E0FE01EE0FFF1FEC0FFD1FEE0F90
:10426000FF1FEE0FFF1FEE0FFF1FEC0FFD1FEC0DEA
:10427000FD1D80819181009709F081CFDF91CF9161
:104280001F91FF90EF90DF90CF90BF90AF909F90E5
:104290008F9008954F925F926F927F928F929F922C
:1042A000AF92BF92CF92DF92EF92FF921F93CF9384
:1042B000DF937C015B016A01B9011091E8031930B9
:1042C00008F067C080914105909142050097D9F0B0
:1042D000C0E043E355E0CF5F2C2F30E0C901880FE9
:1042E000991F820F931F880F991F880F991F880F9E
:1042F000991F820F931F840F951FFC018685978558
:10430000009749F701C0C0E080E090E028EE33E07C
:1043100040E050E00E94912B0E94052C8C2F90E0F1
:10432000EC01CC0FDD1FC80FD91FCC0FDD1FCC0F48
:10433000DD1FCC0FDD1F4E01880E991EE401CD5C00
:10434000DA4FF982E8823F872E873B8B2A8BB601B2
:1043500080E090E028EE33E040E050E00E94912BB6
:104360000E94052C398B288B8C8982608E7F8C8BE8
:104370001E8A1D8A188E1F8AC4018B5C9A4FB50154
:104380004CE050E00E94022F1F5F1093E80380E092
:1043900001C086E0DF91CF911F91FF90EF90DF90F9
:1043A000CF90BF90AF909F908F907F906F905F90D5
:1043B0004F900895BF92CF92DF92EF92FF920F93AA
:1043C0001F93CF93DF936C0180914105909142053B
:1043D000009709F457C0C0E0D0E010E000E00F2ED5
:1043E000F3E3EF2EF5E0FF2EF02DBB24B394CE01C6
:1043F000880F991F8C0F9D1F880F991F880F991F79
:10440000880F991F8C0F9D1F8B5C9A4FB6010E94DD
:10441000F92E282F392F21153105A1F4CE01880F4F
:10442000991F8C0F9D1F880F991F880F991F880F48
:10443000991FC80FD91FCE0DDF1D8C8982608C8B10
:104440002B2D01C0202F1F5FC12FD0E0FE01EE0FEA
:10445000FF1FEC0FFD1FEE0FFF1FEE0FFF1FEE0FF4
:10446000FF1FEC0FFD1FEE0DFF1D86859785009742
:1044700029F0222309F4BBCF80E007C0222321F0DA
:1044800080E003C085E001C084E0DF91CF911F91FF
:104490000F91FF90EF90DF90CF90BF900895BF9263
:1044A000CF92DF92EF92FF920F931F93CF93DF9300
:1044B0006C018091410590914205009709F457C025
:1044C000C0E0D0E010E000E00F2EF3E3EF2EF5E0C7
:1044D000FF2EF02DBB24B394CE01880F991F8C0FB3
:1044E0009D1F880F991F880F991F880F991F8C0F88
:1044F0009D1F8B5C9A4FB6010E94F92E282F392FF1
:1045000021153105A1F4CE01880F991F8C0F9D1F35
:10451000880F991F880F991F880F991FC80FD91FDF
:10452000CE0DDF1D8C898D7F8C8B2B2D01C0202F14
:104530001F5FC12FD0E0FE01EE0FFF1FEC0FFD1F2C
:10454000EE0FFF1FEE0FFF1FEE0FFF1FEC0FFD1F03
:10455000EE0DFF1D86859785009729F0222309F42B
:10456000BBCF80E007C0222321F080E003C085E0BC
:1045700001C084E0DF91CF911F910F91FF90EF90E8
:10458000DF90CF90BF9008958F929F92BF92CF926D
:10459000DF92EF92FF920F931F93CF93DF936B0104
:1045A00020914105309142052115310509F462C081
:1045B000BC0180E090E028EE33E040E050E00E9453
:1045C000912B0E94052C4901C0E0D0E010E000E0F2
:1045D0000F2EF3E3EF2EF5E0FF2EF02DBB24B39466
:1045E000CE01880F991F8C0F9D1F880F991F880F70
:1045F000991F880F991F8C0F9D1F8B5C9A4FB601D6
:104600000E94F92E282F392F2115310599F4CE015A
:10461000880F991F8C0F9D1F880F991F880F991F56
:10462000880F991FC80FD91FCE0DDF1D9F868E865C
:104630002B2D01C0202F1F5FC12FD0E0FE01EE0FF8
:10464000FF1FEC0FFD1FEE0FFF1FEE0FFF1FEE0F02
:10465000FF1FEC0FFD1FEE0DFF1D86859785009750
:1046600029F0222309F4BCCF80E007C0222321F0E7
:1046700080E003C085E001C084E0DF91CF911F910D
:104680000F91FF90EF90DF90CF90BF909F908F9011
:104690000895AF92BF92CF92DF92EF92FF921F9355
:1046A000CF93DF93CDB7DEB7C655D0400FB6F894A1
:1046B000DEBF0FBECDBFDE01D396E9E7F3E084E2B3
:1046C00001900D928150E1F7CE01C3960E946B25B7
:1046D00040914105509142054115510509F479C0B9
:1046E00020E030E010E07E010894E11CF11C0F2E68
:1046F000F9E5AF2EF3E0BF2EF02D0F2EF3E3CF2E12
:10470000F5E0DF2EF02D8DB79EB70E970FB6F8941B
:104710009EBF0FBE8DBFADB7BEB71196EDB7FEB74A
:10472000F282E1821396BC92AE921297C901880F71
:10473000991F820F931F880F991F880F991F880F49
:10474000991F820F931F9C012B5C3A4F15963C9347
:104750002E93149717965C934E931697F601E80FD5
:10476000F91F848918968C93189719961C9219979B
:10477000858996891B969C938E931A978789908D2D
:104780001D969C938E931C970E94772F8DB79EB792
:104790000E960FB6F8949EBF0FBE8DBFC7010E9444
:1047A0006B251F5F212F30E0F901EE0FFF1FE20F95
:1047B000F31FEE0FFF1FEE0FFF1FEE0FFF1FE20FA5
:1047C000F31FEC0DFD1D468557854115510509F078
:1047D0009ACFCA5ADF4F0FB6F894DEBF0FBECDBFD7
:1047E000DF91CF911F91FF90EF90DF90CF90BF901E
:1047F000AF9008951F920F920FB60F9211242F932E
:104800003F934F935F938F939F93EF93FF93909179
:104810004306809142069817E1F080914306E091AB
:104820004506F0914606E80FF11D50814091430680
:10483000242F30E08091440690E001972817390733
:1048400011F04F5F01C040E0409343065093C60013
:1048500005C0E1ECF0E080818F7D8083FF91EF91D6
:104860009F918F915F914F913F912F910F900FBE2C
:104870000F901F9018951F920F920FB60F92112450
:104880002F933F934F935F938F939F93EF93FF9358
:10489000CF93DF930F92CDB7DEB750913E06EEE394
:1048A000F6E04291842F90E0228130E021503040A8
:1048B0008217930711F04F5F01C040E05417F1F0E9
:1048C0008091C60090913D06E0914006F09141062E
:1048D000E90FF11D808340913D06242F30E0809147
:1048E0003F0690E001972817390711F04F5F01C08C
:1048F00040E040933D0610923C0606C08091C60001
:10490000898381E080933C068091E9039091EA03DA
:1049100001969093EA038093E9030F90DF91CF9182
:10492000FF91EF919F918F915F914F913F912F91C7
:104930000F900FBE0F901F901895CF93DF93CDB7B8
:10494000DEB764970FB6F894DEBF0FBECDBF90936D
:10495000C5008093C40088E98093C100E0ECF0E0DA
:1049600080818D7F808386E08093C200188A198AB7
:104970008EE18A8B84E196E09C8B8B8BDE01169610
:10498000FE01709685E001900D928150E1F7DE0105
:104990001B96FE01369685E001900D928150E1F75D
:1049A000A2E4B6E0FE013B9685E001900D928150B5
:1049B000E1F71B861C868AE08D8782E396E09F875D
:1049C0008E87DE011196FE013B9685E001900D92E7
:1049D0008150E1F7DE015096FE01319685E00190AD
:1049E0000D928150E1F7ADE3B6E0FE01709685E0EF
:1049F00001900D928150E1F764960FB6F894DEBFF6
:104A00000FBECDBFDF91CF910895CF92DF92EF928D
:104A1000FF920F931F93CF93DF93C82EC3E4D6E08A
:104A20008E0101501040EE24FF246894E1F8E00E5E
:104A3000F11EDD2404C081E090E00E94A11658819F
:104A4000F8014081242F30E0F701808190E0019748
:104A50002817390711F04F5F01C04D2D541759F336
:104A6000F8949091430680914206981729F4E1EC5E
:104A7000F0E080818062808380914206E09145066B
:104A8000F0914606E80FF11DC08240914206242FA6
:104A900030E08091440690E001972817390711F023
:104AA0004F5F01C040E0409342067894DF91CF9180
:104AB0001F910F91FF90EF90DF90CF900895CF93CB
:104AC000C82F8A3019F48DE00E9405258C2F0E9492
:104AD0000525CF910895CF93DF93EC01888188233A
:104AE00031F021960E945F2589918823D9F7DF91C3
:104AF000CF91089520913E0690913D0681E02917BF
:104B000009F480E0089580913E06E0914006F0911E
:104B10004106E80FF11D808190913E06492F50E03B
:104B200020913F0630E0215030404217530711F0EA
:104B30009F5F01C090E090933E0608955058BB27B8
:104B4000AA270ED04DC13ED130F043D120F031F430
:104B50009F3F11F41EF433C10EF4E095E7FB29C129
:104B6000E92F4FD180F3BA176207730784079507BF
:104B700018F071F49EF567C10EF4E0950B2EBA2F74
:104B8000A02D0B01B90190010C01CA01A001112453
:104B9000FF27591B99F0593F50F4503E68F11A16FF
:104BA000F040A22F232F342F4427585FF3CF469590
:104BB00037952795A795F0405395C9F77EF41F16B2
:104BC000BA0B620B730B840BBAF09150A1F0FF0F7C
:104BD000BB1F661F771F881FC2F70EC0BA0F621F68
:104BE000731F841F48F4879577956795B795F79558
:104BF0009E3F08F0B3CF9395880F08F09927EE0FEA
:104C00009795879508950CD0EBC0E3D040F0DAD0AB
:104C100030F021F45F3F19F0CCC0511115C1CFC065
:104C2000F0D098F39923C9F35523B1F3951B550B95
:104C3000BB27AA2762177307840738F09F5F5F4F6F
:104C4000220F331F441FAA1FA9F333D00E2E3AF0B0
:104C5000E0E830D091505040E695001CCAF729D0CA
:104C6000FE2F27D0660F771F881FBB1F2617370719
:104C70004807AB07B0E809F0BB0B802DBF01FF2749
:104C800093585F4F2AF09E3F510568F092C0DCC0F8
:104C90005F3FECF3983EDCF3869577956795B79583
:104CA000F7959F5FC9F7880F911D9695879597F99E
:104CB0000895E1E0660F771F881FBB1F6217730717
:104CC0008407BA0720F0621B730B840BBA0BEE1F2C
:104CD00088F7E095089504D06894B111B5C008959F
:104CE00098D088F09F5790F0B92F9927B751A0F02E
:104CF000D1F0660F771F881F991F1AF0BA95C9F770
:104D000012C0B13081F09FD0B1E008959CC0672FF0
:104D1000782F8827B85F39F0B93FCCF3869577951F
:104D20006795B395D9F73EF4909580957095619508
:104D30007F4F8F4F9F4F0895E89409C097FB3EF433
:104D400090958095709561957F4F8F4F9F4F9923D8
:104D5000A9F0F92F96E9BB279395F6958795779556
:104D60006795B795F111F8CFFAF4BB0F11F460FF16
:104D70001BC06F5F7F4F8F4F9F4F16C0882311F06E
:104D800096E911C0772321F09EE8872F762F05C082
:104D9000662371F096E8862F70E060E02AF09A951D
:104DA000660F771F881FDAF7880F9695879597F912
:104DB000089597F99F6780E870E060E008959FEF9D
:104DC00080EC089500240A941616170618060906A2
:104DD000089500240A941216130614060506089571
:104DE000092E0394000C11F4882352F0BB0F40F4F9
:104DF000BF2B11F460FF04C06F5F7F4F8F4F9F4F39
:104E0000089557FD9058440F551F59F05F3F71F0BA
:104E10004795880F97FB991F61F09F3F79F0879521
:104E20000895121613061406551FF2CF4695F1DFAA
:104E300008C0161617061806991FF1CF869571053A
:104E4000610508940895E894BB2766277727CB016E
:104E500097F908950EF0A6C0B2CF6894AACFD9DF13
:104E6000C8F39923D1F3C6F3DF93CF931F930F9326
:104E7000FF92C92FDD2788232AF02197660F771F1D
:104E8000881FDAF720E030E040E85FEB9FE38839E5
:104E900020F0803E30F021968F7751DEE8E6F0E09A
:104EA00003C04DDEE5E9F0E08BD08B01BE01EC01E3
:104EB000FB2E6F5771097595771F880B990B3EDF95
:104EC00028E132E741E35FE316D0AF2D9801AE0150
:104ED000FF900F911F91CF91DF9142DE81CF0BD0D8
:104EE0007FCF70DF28F075DF18F0952309F061CFD0
:104EF00066CF1124A9CF85DFA0F3959FD1F3950F3D
:104F000050E0551F629FF001729FBB27F00DB11D4D
:104F1000639FAA27F00DB11DAA1F649F6627B00DDD
:104F2000A11D661F829F2227B00DA11D621F739FC6
:104F3000B00DA11D621F839FA00D611D221F749FD4
:104F40003327A00D611D231F849F600D211D822F1B
:104F5000762F6A2F11249F5750408AF0E1F0882362
:104F60004AF0EE0FFF1FBB1F661F771F881F91506F
:104F70005040A9F79E3F510570F01BCF65CF5F3FB2
:104F8000ECF3983EDCF3869577956795B795F795A2
:104F9000E7959F5FC1F7FE2B880F911D969587952A
:104FA00097F908959F3F31F0915020F487957795B8
:104FB0006795B795880F911D9695879597F90895F0
:104FC000DF93CF931F930F93FF92EF92DF927B01BA
:104FD0008C01689405C0DA2EEF018DDFFE01E894A4
:104FE000A5912591359145915591AEF3EF01B8DD2D
:104FF000FE019701A801DA9479F7DF90EF90FF9016
:105000000F911F91CF91DF910895A5E1B0E0EBE002
:10501000F8E20C94202C4C017F876E87FC011782EC
:105020001682838181FD04C076C34C855D8504C0F2
:105030001E010894211C311CF4019381EE85FF852B
:1050400093FD859193FF8191FF87EE87882309F473
:105050005EC3853241F493FD859193FF8191FF8773
:10506000EE87853259F490E0B4014C8B5D8B0E9441
:105070004B2F4C895D895D874C87D7CFFF24DD247A
:1050800010E01032B0F48B3269F08C3228F48032A8
:1050900051F0833271F40BC08D3239F0803349F412
:1050A00011602CC01260146029C0186027C0106104
:1050B00025C017FD2EC0282F20532A3098F416FF44
:1050C00008C08F2D880FF82EFF0CFF0CF80EF20E83
:1050D00015C08D2D880FD82EDD0CDD0CD80ED20E0C
:1050E00010620CC08E3221F416FD11C3106406C08C
:1050F0008C3611F4106802C0883659F4EE85FF85AD
:1051000093FD859193FF8191FF87EE87882309F0B6
:10511000B8CF982F9554933018F41061805E06C074
:10512000982F9556933008F0A2C11F7E16FD02C03D
:10513000E6E0FE2E1F73853611F4106406C0863635
:1051400011F4106802C0F110FA9417FF07C0FBE3D6
:10515000FF1548F0EF2CE39427E00DC027E02F1552
:1051600030F02F2D07C027E07CE3E72E04C027E0B6
:1051700067E0F62EEE24CA0104969D878C87FA011B
:105180006081718182819381A1010E2D0E94092E7F
:105190005C01C9802C2D30E0398B288BC0FE03C008
:1051A000388933FF06C011FD06C012FF06C000E2B9
:1051B00005C00DE203C00BE201C000E088899989B7
:1051C0008C709070009709F43CC0002311F084E0CB
:1051D00001C083E08D1558F4D81A13FD09C080E290
:1051E00090E0B4010E944B2FDA94C9F701C0DD248E
:1051F000002329F0802F90E0B4010E944B2F888972
:1052000083FD05C036ECE32E30E0F32E11C022EC16
:10521000E22E20E0F22E0CC00115110509F080529B
:1052200090E0B4010E944B2F0894E11CF11C04C0D3
:10523000012F10E000711070F7018491882361F74D
:1052400063C217FF0EC0EA0CF889F4FF04C08A811C
:10525000813309F4EA941E144CF528E02E1548F128
:105260002CC016FD2AC08F2D90E08A159B0544F0B6
:105270003CEFA3163FEFB3061CF0106801C0FA9490
:10528000FF2049F0E2E0F0E0EC0FFD1FEF0DF11D13
:1052900080818033A1F317FF10C0EF2CE3948F2D92
:1052A00090E0A816B90644F4FA1807C0EE24E39477
:1052B00004C098E0E92E01C0FF2417FF07C01A14AC
:1052C0001B043CF495012F5F3F4F05C025E030E003
:1052D00002C021E030E0002311F02F5F3F4FFF209C
:1052E00029F08F2D90E00196280F391F8D2D90E029
:1052F0002817390714F4D21A01C0DD24612E77244F
:10530000C30189709070009749F406C080E290E074
:10531000B4010E944B2FDA94DD20C1F7002329F05D
:10532000802F90E0B4010E944B2F63FC09C006C09F
:1053300080E390E0B4010E944B2FDA94DD20C1F7A6
:1053400017FF48C08501B7FE02C000E010E06624E8
:10535000772495012E1931093B8B2A8B2501401AA0
:10536000510A420C531C6F2D70E0EE24FF24E61A04
:10537000F70A3FEF0F3F130729F48EE290E0B401E4
:105380000E944B2FA016B10654F02A893B892017A2
:1053900031072CF4F201E60DF71D818101C080E395
:1053A000015010400894611C711C0E151F052CF053
:1053B00090E0B4010E944B2FDCCF0A151B0541F48D
:1053C0009A81963320F4953319F4388934FF81E3B8
:1053D00090E049C08A81813311F09FEEC92290E0AC
:1053E000B4010E944B2FFF2089F08EE290E0B401BF
:1053F0000E944B2F12E0F101E10FF11D1F5F808130
:1054000090E0B4010E944B2FFA94A9F764FE03C008
:1054100085E490E002C085E690E0B4010E944B2F45
:10542000B7FC05C0A114B10441F4C4FE06C0B09499
:10543000A194B108B3948DE201C08BE290E0B40175
:105440000E944B2F80E305C08F5FE6EFFFEFAE0EAB
:10545000BF1EFAE0AF16B104BCF790E0B4010E94A1
:105460004B2FC501C096B4010E944B2F4DC183360E
:1054700031F0833789F0833509F059C022C09A0191
:105480002E5F3F4F3D872C87FA018081898381E021
:10549000E82EF12C510113C09A012E5F3F4F3D873A
:1054A0002C87FA01A080B18016FF03C06F2D70E039
:1054B00002C06FEF7FEFC5010E94112F7C011F77A3
:1054C00014C09A012E5F3F4F3D872C87FA01A080C0
:1054D000B18016FF03C06F2D70E002C06FEF7FEF49
:1054E000C5010E94E92E7C01106813FD1CC006C096
:1054F00080E290E0B4010E944B2FDA948D2D90E071
:10550000E816F906A8F30FC0F50117FD859117FFFE
:1055100081915F0190E0B4010E944B2FD110DA9489
:105520000894E108F108E114F10471F7EDC0843644
:1055300011F0893671F59A0117FF0AC02C5F3F4FB1
:105540003D872C87FA0180819181A281B3810BC0B4
:105550002E5F3F4F3D872C87FA0180819181AA27DA
:1055600097FDA095BA2F012F0F76B7FF08C0B09511
:10557000A095909581959F4FAF4FBF4F0068BC019C
:10558000CD01A1012AE030E00E94992FE82EE21817
:1055900041C0853721F41F7E2AE030E020C0197F0A
:1055A0008F36A9F0803720F4883509F0B0C00BC0E1
:1055B000803721F0883709F0AAC001C0106114FFBC
:1055C00009C0146007C014FF08C0166006C028E0B8
:1055D00030E005C020E130E002C020E132E0CA0145
:1055E00017FF09C004969D878C87FA01608171813D
:1055F0008281938108C002969D878C87FA01608121
:10560000718180E090E0A1010E94992FE82EE218BC
:10561000012F0F7706FF09C00E7FEF1430F404FF4F
:1056200006C002FD04C00F7E02C01E2D01C01F2D4A
:10563000802F90E004FF0CC0FE01EE0DF11D2081D3
:10564000203311F4097E09C002FF06C01E5F05C0A9
:1056500086789070009709F01F5FA02EBB2403FD91
:1056600012C000FF0DC0FE2C1D1550F4FD0CF11AE8
:105670001D2D06C080E290E0B4010E944B2F1F5FF9
:105680001D15C0F304C01D1510F4D11A01C0DD248E
:10569000A4FE0FC080E390E0B4010E944B2FA2FE55
:1056A0001FC0A1FE03C088E590E010C088E790E02D
:1056B0000DC0C50186789070009791F0A1FC02C0E2
:1056C00080E201C08BE207FD8DE290E0B4010E9410
:1056D0004B2F06C080E390E0B4010E944B2FFA9458
:1056E000EF14C0F3EA94F101EE0DF11D808190E01A
:1056F000B4010E944B2FEE20A9F706C080E290E093
:10570000B4010E944B2FDA94DD20C1F78ECCF40156
:105710008681978102C08FEF9FEF6596E2E10C943E
:105720003C2C629FD001739FF001829FE00DF11D20
:10573000649FE00DF11D929FF00D839FF00D749F0B
:10574000F00D659FF00D9927729FB00DE11DF91FB7
:10575000639FB00DE11DF91FBD01CF011124089514
:10576000991B79E004C0991F961708F0961B881FB3
:105770007A95C9F780950895AA1BBB1B51E107C014
:10578000AA1FBB1FA617B70710F0A61BB70B881FD1
:10579000991F5A95A9F780959095BC01CD01089560
:1057A00097FB092E07260AD077FD04D0E5DF06D047
:1057B00000201AF4709561957F4F0895F6F7909543
:1057C00081959F4F0895A1E21A2EAA1BBB1BFD01D4
:1057D0000DC0AA1FBB1FEE1FFF1FA217B307E407D0
:1057E000F50720F0A21BB30BE40BF50B661F771F28
:1057F000881F991F1A9469F7609570958095909508
:105800009B01AC01BD01CF01089597FB092E052630
:105810000ED057FD04D0D7DF0AD0001C38F45095C5
:105820004095309521953F4F4F4F5F4F0895F6F7C4
:1058300090958095709561957F4F8F4F9F4F0895FC
:105840002F923F924F925F926F927F928F929F9290
:10585000AF92BF92CF92DF92EF92FF920F931F937E
:10586000CF93DF93CDB7DEB7CA1BDB0B0FB6F8942F
:10587000DEBF0FBECDBF09942A88398848885F846F
:105880006E847D848C849B84AA84B984C884DF80E0
:10589000EE80FD800C811B81AA81B981CE0FD11DC4
:1058A0000FB6F894DEBF0FBECDBFED010895CF93C4
:1058B000DF93AC018230910510F442E050E0E091BA
:1058C0004906F0914A0620E030E0A0E0B0E024C0B4
:1058D0008081918184179507D0F08417950771F422
:1058E00082819381109729F013969C938E9312973F
:1058F0002CC090934A068093490627C02115310594
:1059000019F08217930718F49C01BD01EF019281F1
:105910008381DF01E92FF82F3097D1F6211531056A
:10592000F9F0C901841B950B8430910580F48A81BC
:105930009B816115710521F0FB019383828304C073
:1059400090934A0680934906FE01329642C0FE01BA
:10595000E80FF91F4193519302979983888339C0C7
:105960008091470690914806009741F480919F03EB
:105970009091A003909348068093470620919D0341
:1059800030919E032115310541F42DB73EB780912A
:10599000A1039091A203281B390BE0914706F091D7
:1059A0004806E217F30798F42E1B3F0B2417350720
:1059B00070F0CA0102962817390748F08E0F9F1F12
:1059C00090934806809347064193519302C0E0E0CC
:1059D000F0E0CF01DF91CF9108950F931F93CF9304
:1059E000DF939C01009709F48CC0DC011297139699
:1059F0001C921E9212976091490670914A06611599
:105A0000710589F48D919C911197820F931F2091BC
:105A10004706309148062817390769F5B0934806BC
:105A2000A09347066EC0FB0140E050E001C0FC01BE
:105A3000EA17FB0730F482819381AF010097B9F731
:105A40001FC0E9012297FB83EA8308811981C901FC
:105A5000800F911F8E179F0759F480819181800FCD
:105A6000911F029699838883828193819B838A8385
:105A70004115510529F4B0934A06A093490641C047
:105A8000FA01B383A283C191D191EC0FFD1FAE1730
:105A9000BF0781F4F901929182918C0F9D1F0296AC
:105AA000DA0111969C938E938281938113969C9335
:105AB0008E931297E0E0F0E002C0FB01BC01DB0135
:105AC00012968D919C9113970097B9F7CB0102968E
:105AD0002D913C911197820F931F20914706309191
