:100000000C9400010C941D010C941D010C941D0115
:100010000C941D010C941D010C941D010C94EB0F0C
:100020000C941D010C941D010C941D010C941D01D8
:100030000C941D010C941D010C941D010C941D01C8
:100040000C941D010C941D010C9462190C941D1943
:100050000C941D010C941D010C941D010C941D01A8
:100060000C941D010C941D0129012E01330138014E
:100070003D01420147018A0193019C01A501AE01A6
:10008000B701C001480A020B8A0A3A0B910B1B0CFC
:100090007A0CA311B311C311D611E611F61109128E
:1000A000191229123C12CB12CB12111311137A140C
:1000B0007A147A147A147A147A147A147A147A14D0
:1000C0007A147A147A147A147A147A147A147A14C0
:1000D0007A147A147A147A145D135D137A147A14EC
:1000E0007A147A147A147A147A147A14DE13DE13DA
:1000F000F6141715451570159815BD15DF156E61A9
:100100006E00696E660000407A10F35A00A0724ECD
:1001100018090010A5D4E80000E87648170000E4AC
:100120000B54020000CA9A3B000000E1F5050000F4
:1001300080969800000040420F000000A086010059
:100140000000102700000000E80300000000640029
:10015000000000000A000000000001000000000094
:100160002C76D888DC674F0823DFC1DFAE59E1B1B8
:10017000B796E5E3E453C63AE651997696E8E6C2C7
:100180008426EB898C9B62ED407C6FFCEFBC9C9FCE
:1001900040F2BAA56FA5F490055A2AF75C936B6CF0
:1001A000F9676DC11BFCE0E40D47FEF520E6B500E4
:1001B000D0ED902E0300943577050080841E080052
:1001C00000204E0A000000C80C333333330F986E02
:1001D00012831141EF8D2114893BE65516CFFEE6BF
:1001E000DB18D1844B381BF77C1D901DA4BBE42485
:1001F000203284725E228100C9F124ECA1E53D2702
:1002000011241FBECFEFD8E0DEBFCDBF14E0A0E0C9
:10021000B1E0EAEFF6E402C005900D92A231B10719
:10022000D9F726E0A2E1B4E001C01D92AA36B207D8
:10023000E1F70E9435160C947B230C94000090E0AB
:10024000FC013197E730F10530F5EC5CFF4F0C9481
:100250007B2080E191E00E94891A089584E191E079
:100260000E94891A089588E191E00E94891A0895F0
:100270008CE191E00E94891A089580E291E00E9449
:10028000891A089584E291E00E94891A089588E20B
:1002900091E00E94891A0895AF92BF92CF92DF92A7
:1002A000EF92FF920F931F93CF93DF93CDB7DEB7FB
:1002B000E0970FB6F894DEBF0FBECDBF8C0101965C
:1002C0000E944B217C01282FF80180818C3609F493
:1002D00010C230F4833671F0843609F473C06CC2F6
:1002E000863709F43EC2873709F457C2833709F0CD
:1002F00063C206C2C80103960E944B216C01FF2411
:10030000F7E0EF16F10408F044C0F701E55CFF4F99
:100310000C947B2080934805682F84E190E00E9434
:100320006523B12C39C080935005682F86E190E099
:100330000E946523B12C30C080935205682F88E15C
:1003400090E00E946523B12C27C080934105682F5F
:100350008AE190E00E946523B12C1EC08093550570
:10036000682F8CE190E00E946523B12C15C080932A
:100370005105682F8EE190E00E946523B12C0CC0DE
:1003800080935405682F80E290E00E946523B12C91
:1003900003C06894BB24B1F8DD24DF92CF92FF92B2
:1003A000EF922CE231E03F932F931F930F930E9423
:1003B000DD22C8010E94891A0FB6F894DEBF0FBE75
:1003C000CDBF2CC2FF2492E0E916F10409F4A3C0CA
:1003D00044F4E114F10491F0EA94EF2809F45BC0CD
:1003E00004C284E0E816F10409F40DC10CF4C6C09F
:1003F000E5E0EE16F10409F441C1F7C168E371E0EC
:10040000C80103960E9454220E944B218C0168E38C
:1004100071E080E090E00E9454220E944B217C0118
:1004200068E371E080E090E00E9454220E944B213A
:10043000A82EB92E8BE391E00E94891A4A2D5B2DDC
:100440006E2D802F0E9424070E941F01BF92AF9241
:10045000970133273F932F93980133273F932F938F
:1004600022E431E03F932F93CE0101966C01DF929D
:100470008F930E94DD22C6010E94891A4A2D5B2DAE
:100480006E2D802F0E94B8070FB6F894DEBF0FBE06
:10049000CDBFB12CC3C161E571E0C80103960E94D4
:1004A00054220E944B217C0161E571E080E090E0E4
:1004B0000E9454220E944B216C0161E571E080E0B2
:1004C00090E00E9454220E944B215C0199279F9347
:1004D0008F93C60199279F938F93C70199279F9365
:1004E0008F9385E591E09F938F938E010F5F1F4F50
:1004F0001F930F930E94DD22C8010E94891A4A2D82
:100500006C2D8E2D0E9403070FB6F894DEBF0FBE30
:10051000CDBFB12C83C1CE0189960E94AD068BE67A
:1005200091E00E94891A88A90E941F018BA51F9241
:100530008F938AA51F928F9389A51F928F938FA562
:100540008F938EA58F938DA51F928F938CA51F924D
:100550008F9384E791E09F938F938E010F5F1F4FDE
:100560001F930F930E94DD22C8010E94891A0FB6C3
:10057000F894DEBF0FBECDBFB12C50C10E94EE0774
:100580007C0195958795959587959F938F9383E9A2
:1005900091E09F938F938E010F5F1F4F1F930F93D7
:1005A0000E94DD22C8010E94891A0F900F900F90BF
:1005B0000F900F900F90C70183709927813091059C
:1005C00081F01CF4892B39F014C18230910579F047
:1005D000039799F00EC18FE991E00E94891AB12C1E
:1005E0001DC186EA91E00E94891AB12C17C18DEADB
:1005F00091E00E94891AB12C11C184EB91E00E9414
:10060000891AB12C0BC161E571E0C80103960E9403
:1006100054220E944B218C0161E571E080E090E062
:100620000E9454220E944B217C01F7E1F01708F44C
:10063000E2C08BE38E1508F4E0C000933604E0922C
:1006400035040E94EB04FF24FF92EF9211271F93C1
:100650000F938BEB91E09F938F938E010F5F1F4F52
:100660001F930F930E94DD22C8010E94891A0FB6C2
:10067000F894DEBF0FBECDBFB12CD0C061E571E0F4
:10068000C80103960E9454220E944B218C0161E50F
:1006900071E080E090E00E9454220E944B217C0196
:1006A000F7E1F01708F4ABC08BE38E1508F4A9C08E
:1006B00000933404E09233040E94EB04FF24FF9281
:1006C000EF9211271F930F9386EE91E09F938F93E4
:1006D0008E010F5F1F4F1F930F930E94DD22C801F1
:1006E0000E94891A0FB6F894DEBF0FBECDBFB12CA1
:1006F00095C0283008F087C0E0922C04B12C8EC041
:10070000FF24F1E0EF16F104F9F01CF4EF2851F0AA
:100710007EC092E0E916F104D9F0E3E0EE16F104B0
:10072000D9F075C083E293E00E94891A8FE092E0CD
:100730000E94891A81E292E00E94891A80E592E083
:100740000E94891AB12C6AC00E94B205B12C66C001
:100750000E94A018B12C62C081E080934704B12CA4
:100760005DC0C70199278130910561F08230910504
:1007700081F0892BA1F481E0809349051092530503
:10078000B12C10C081E08093490580935305B12CB2
:1007900009C010924905B12C05C0B12C03C0689462
:1007A000BB24B1F82330B8F5E09232046E2D82E11B
:1007B00090E00E94652332C01F930F9382E792E07E
:1007C0009F938F938E010F5F1F4F1F930F930E9474
:1007D000DD22C8010E94891A0F900F900F900F9090
:1007E0000F900F90BB24B39419C06894BB24B1F848
:1007F00015C0B12C13C0B12C11C0B12C0FC0B12C3D
:100800000DC0B12C0BC06894BB24B1F807C068942C
:10081000BB24B1F803C06894BB24B1F88B2DE096DB
:100820000FB6F894DEBF0FBECDBFDF91CF911F9101
:100830000F91FF90EF90DF90CF90BF90AF90089511
:100840008091140481112CC00E94981A882321F1F0
:100850000E94A11A90E00E9441229C0133272A3075
:10086000310521F02D303105B9F00CC081E08093C5
:100870001404E0911504F0E0E55BFB4F1082109248
:1008800015040AC0E091150491E09E0F90931504A1
:10089000F0E0E55BFB4F808380911404882339F0FE
:1008A000109214048BE494E00E944C01089580E0BF
:1008B000089588E090E00E945D238F3F09F041C0D9
:1008C00061E088E090E00E94652367E18AE090E0C3
:1008D0000E9465236EE18CE090E00E94652367E052
:1008E0008EE090E00E9465236EE180E190E00E943E
:1008F000652362E082E190E00E94652360E084E18C
:1009000090E00E94652362E086E190E00E9465230A
:1009100063E088E190E00E94652364E08AE190E072
:100920000E94652366E08CE190E00E94652361E00F
:100930008EE190E00E94652367E080E290E00E94F3
:10094000652308958AE090E00E945D238093360439
:100950008CE090E00E945D23809335048EE090E06F
:100960000E945D238093340480E190E00E945D2327
:100970008093330482E190E00E945D2380933204EF
:1009800084E190E00E945D238093480586E190E039
:100990000E945D238093500588E190E00E945D23D2
:1009A000809352058AE190E00E945D238093410587
:1009B0008CE190E00E945D23809355058EE190E0EC
:1009C0000E945D238093510580E290E00E945D23A8
:1009D000809354050895609136048AE090E00E9467
:1009E0006523609135048CE090E00E94652360915E
:1009F00034048EE090E00E9465236091330480E12E
:100A000090E00E9465236091320482E190E00E94B0
:100A100065236091480584E190E00E946523609120
:100A2000500586E190E00E9465236091520588E1BF
:100A300090E00E946523609141058AE190E00E9468
:100A40006523609155058CE190E00E9465236091DB
:100A500051058EE190E00E9465236091540580E28B
:100A600090E00E94652308958C3019F41092B9002B
:100A700003C091E09093B9008093B80008950F935C
:100A80001F93CF93DF93082FECEBF0E094EA908371
:100A90009081992374F010E0CCEBD0E081E090E0FD
:100AA0000E94C60F1F5F9881992324F01330B1F77D
:100AB00001C010E09091B900987F983011F090310A
:100AC000B1F41330B0F40093BB0084E88093BC0011
:100AD000ECEBF0E080818823ECF79091B900987FEF
:100AE000983149F081E0903439F480E005C081E02C
:100AF00003C081E001C080E0DF91CF911F910F9191
:100B0000089584E98093BC00ECEBF0E0808184FDE3
:100B1000FDCF08958093BB0084E88093BC00ECEB8C
:100B2000F0E080818823ECF79091B900987F81E014
:100B3000983209F480E0089584EC8093BC00ECEBDB
:100B4000F0E080818823ECF78091BB00089584E871
:100B50008093BC00ECEBF0E080818823ECF780917F
:100B6000BB000895BF92CF92DF92EF92FF920F9356
:100B70001F93CF93DF93CDB7DEB7E7970FB6F89407
:100B8000DEBF0FBECDBF85E0E1E9F2E0DE01D39626
:100B900001900D928A95E1F78FE792E00E94891A01
:100BA00002E010E0B12C0F2EFAE8CF2EF2E0DF2E9B
:100BB000F02DCE0101967C01802F0E943F0581110E
:100BC00012C01F930F93DF92CF92FF92EF920E9479
:100BD000DD22C7010E94891AB3940F900F900F90E5
:100BE0000F900F900F900E9481050E5F1F4F01150F
:100BF00091E0190709F7B11004C0CE01C3960E9415
:100C0000891A83E293E00E94891AE7960FB6F89456
:100C1000DEBF0FBECDBFDF91CF911F910F91FF902F
:100C2000EF90DF90CF90BF900895982F969596956E
:100C300096959E70292F220F220F920F8F70890F89
:100C4000089586FF09C0982F9F7085FF02C08AE033
:100C500001C080E0890F0895982F9F708073282F1E
:100C600030E0359527953595279535952795822F31
:100C7000880F880F280F822F890F0895982F92953B
:100C80009F70990F292F220F220F920F8F70890FBB
:100C900008959DEC899F912D112496959695969592
:100CA000292F220F322F330F330F230F821B20E106
:100CB000929F800D112408950F931F93CF93DF937C
:100CC000082FEB0180ED0E943F0511E0813009F013
:100CD00010E0111115C0802F0E948A0511E08130AB
:100CE00009F010E011110CC081ED0E943F0511E0E8
:100CF000813009F010E0111103C00E94A70588831C
:100D00000E948105812FDF91CF911F910F9108954E
:100D10001F93CF93DF93182FD62F80ED0E943F05AE
:100D2000C1E0813009F0C0E0C11110C0812F0E94E4
:100D30008A05C1E0813009F0C0E0C11107C08D2FE4
:100D40000E948A05C1E0813009F0C0E00E9481055F
:100D50008C2FDF91CF911F9108951F93CF93DF9335
:100D6000EC0180ED0E943F0511E0813009F010E0B8
:100D7000111139C080E00E948A0511E0813009F02C
:100D800010E0111130C081ED0E943F0511E081306B
:100D900009F010E0111127C00E949C050E94150661
:100DA0008A830E949C050E94150689830E949C05E7
:100DB0000E94210688830E949C058F830E949C05C7
:100DC0000E9415068B830E949C050E9415068C8349
:100DD0000E94A7050E943E06282F30E02053384F7E
:100DE0003E832D8309C01E821D82188219821A82B9
:100DF00081E08C838B838F830E948105812FDF911B
:100E0000CF911F910895CF93DF93C62FD42F8831B0
:100E1000C0F46C33B0F44C33A0F40E944906682F40
:100E200082E00E9488068C2F0E944906682F81E08C
:100E30000E9488068D2F0E944906682F80E00E943C
:100E40008806DF91CF9108958F929F92AF92BF92C3
:100E5000CF92DF92EF92FF92CF93C82F6A01262F95
:100E600030E08EE090E0821B930B6CE070E00E941B
:100E70002620E12CF12C80ECC80E82E1D81EE11C6A
:100E8000F11C4B01AA2497FCA094BA2CC818D908CD
:100E9000EA08FB08DB01AA0FBB1F6A0F7B1FDB01FF
:100EA000AA0FBB1FAA0FBB1F2A0F3B1FD901139705
:100EB00029E930E00E9490206E5F7F4F8F4F9F4F57
:100EC00025E030E040E050E00E945C2049015A01FA
:100ED0008C0E911CA11CB11CADE6B1E0A7019601DE
:100EE0000E949720860E971EA81EB91ED701C60124
:100EF000FF201CF40396A11DB11DB595A7959795EC
:100F00008795B595A79597958795880E991EAA1EE2
:100F1000BB1EC701B60124E630E040E050E00E946D
:100F20005C20821A930AA40AB50AC701B60120E917
:100F300031E040E050E00E945C20820E931EA41E2F
:100F4000B51EC501B4016C527D478109910927E0A6
:100F500030E040E050E00E943A20862FCF91FF9091
:100F6000EF90DF90CF90BF90AF909F908F900895BB
:100F70000F931F93CF93DF93182F062F9FEF980F98
:100F80009F3138F58FEF860F8C3018F5EA01C05D80
:100F9000D740C83E83E0D807E0F4812F0E942407A1
:100FA000682F83E00E9488068C2F0E944906682FD4
:100FB00086E00E948806802F0E944906682F85E0FF
:100FC0000E948806812F0E944906682F84E00E94B3
:100FD0008806DF91CF911F910F9108950F931F9372
:100FE000CF93DF9300D0CDB7DEB7BE016F5F7F4FE9
:100FF00081E10E945C06098110E0000F111F000FC3
:10100000111F811106C0BE016E5F7F4F82E10E94F9
:101010005C069A8192959695969593709801292BE6
:1010200031FF04C03D7F319521953109882319F0A6
:1010300080E090E002C0822F932F0F900F90DF91FD
:10104000CF911F910F910895CF92DF92EF92FF926F
:10105000CF93DF93EC0164567109882777FD809563
:10106000982F0E94BC1B6B017C0120E030E040E027
:101070005FE30E94481C20E030E048E452E40E9414
:10108000211B0E94891BC617D707FCF020E030E027
:1010900040EC5FE3C701B6010E94481C20E030E04D
:1010A00048E452E40E94211B20E030E040E85FE386
:1010B0000E94BD1A0E94891B31E020E06C177D0759
:1010C0000CF430E0832F922F02C080E090E081701A
:1010D0009927DF91CF91FF90EF90DF90CF90089507
:1010E000CF92DF92EF92FF92CF93DF93EC016C5996
:1010F0007F4F882777FD8095982F0E94BC1B6B013E
:101100007C0120E030E040E05FE30E94481C20E0EA
:1011100030E048E452E40E94211B0E94891BC6175C
:10112000D707FCF020E030E040EC5FE3C701B601F8
:101130000E94481C20E030E048E452E40E94211B59
:1011400020E030E040E85FE30E94BD1A0E94891B66
:1011500031E020E06C177D070CF430E0832F922FF4
:1011600002C080E090E081709927DF91CF91FF90DD
:10117000EF90DF90CF90089582E080935F0410920B
:101180006004089583B183FB222720F9E1E6F4E0AF
:10119000808191810196918380838091600485365E
:1011A00018F086E080935F0480915F04843009F436
:1011B00051C028F4823051F0833089F10895853090
:1011C00009F46DC0863009F471C00895211174C00E
:1011D00080916104909162048039914028F41092CA
:1011E000620410926104089510922D05E0E6F4E087
:1011F0001082A08181E08A0F8083B0E0E1E6F4E014
:1012000080819181AA0FBB1FAD59BB4F11969C9352
:101210008E931182108283E080935F0408952130C1
:1012200009F04AC0E0E6F4E0A08181E08A0F808303
:10123000B0E0E1E6F4E080819181AA0FBB1FAD59D7
:10124000BB4F11969C938E931182108284E0809301
:101250005F040895211118C0E0E6F4E0A08181E068
:101260008A0F8083B0E0E1E6F4E080819181AA0FEB
:10127000BB1FAD59BB4F11969C938E931182108268
:1012800083E080935F0408958091610490916204EB
:101290008139914088F085E080935F0408952111A1
:1012A0000BC01092620410926104089581E0809353
:1012B0002D0585E080935F040895AF92BF92CF9291
:1012C000DF92EF92FF920F931F93CF93DF935C0116
:1012D000FC018485853009F076C0C681D7818A817A
:1012E0009B8168E273E20E942408892B09F46DC097
:1012F000F5018085918584309105F1F48C819D8183
:101300006AEC78E00E947008892B09F460C08E8135
:101310009F8160E372E00E942408892B09F459C080
:10132000F501158214828FEF9FEFDC01808391839A
:10133000A283B38381E056C0843491050CF44BC082
:101340008C819D8164E971E10E947008892B09F408
:1013500044C0269600E210E0C12CD12C7601888191
:10136000998160E372E00E942408892BC1F18A818F
:101370009B816AE976E00E947008892B39F0CC0CD9
:10138000DD1CEE1CFF1C6894C0F80CC08A819B8198
:1013900060E372E00E947008892B19F1CC0CDD1C0F
:1013A000EE1CFF1C01501109249601151105B9F618
:1013B00080E290E0F50195838483C082D182E2824D
:1013C000F38281E00FC080E00DC080E00BC080E0C0
:1013D00009C080E007C080E005C080E003C080E075
:1013E00001C080E0DF91CF911F910F91FF90EF90AE
:1013F000DF90CF90BF90AF900895F89482E08093F3
:101400005F041092600478940895CF93F89423E6D3
:1014100034E0FC01378326832091600430E031877B
:10142000208720912D0530E03387228720915F04AB
:10143000248778940E945D09C82F811102C00E9400
:10144000FD098C2FCF9108954F925F926F927F92FA
:101450008F929F92AF92BF92CF92DF92EF92FF92C4
:101460000F931F93CF93DF93CDB7DEB764970FB67B
:10147000F894DEBF0FBECDBF80911D0490E0873091
:10148000910508F0D6C2FC01EE5BFF4F0C947B2067
:10149000809104018F3021F481E080931D04C9C242
:1014A000803121F482E080931D04C3C2883048F467
:1014B00010922304109222041092210480931E049F
:1014C000B8C2883091F410922304809121048111D4
:1014D00006C01092220481E080932104AAC281E018
:1014E0008093230410922104A4C2893009F0A1C280
:1014F0001092210480912204811106C010922304CD
:1015000081E08093220495C281E0809323041092AD
:1015100022048FC2809104018130A1F410921C0436
:1015200086E992E00E945A181092320444E550E095
:1015300066E070E080E090E00E94E61483E0809333
:101540001D0477C28230A1F410921C0486E992E057
:101550000E945A181092320444E450E066E070E0B1
:1015600080E090E00E94E61485E080931D0461C253
:101570008730A9F480914604811108C081E08093EE
:1015800046041092450410921F0406C08091450441
:10159000811102C01092460410921D044AC2883084
:1015A00009F510921C048091450481110DC081E061
:1015B0008093450480914604882319F081E080934C
:1015C0001F04109246040BC080911F04882329F049
:1015D00081E08093460410921F04109245041092FB
:1015E0001D0427C2893009F024C28091470481304C
:1015F00019F41092470403C081E0809347041092CD
:101600001D0417C28091040181110DC010921C04A9
:1016100080912404811104C081E08093240427C0B8
:101620001092240424C0813051F410921C04809143
:10163000200481111CC081E08093200418C0109206
:101640001C04883041F0893051F0873051F481E03A
:101650008093320406C082E08093320402C010926C
:1016600032046091320482E190E00E94652310927E
:101670001D04DFC1809104018A3020F0803109F01F
:10168000D8C102C0803169F410921D0482E190E05B
:101690000E945D238093320486E992E00E94141830
:1016A000C8C1E0911C04E11103C0833040F0C1C106
:1016B000E23011F0E43019F4863008F0BAC1F0E0FD
:1016C000EA5EFB4F80831F928F938EE992E09F9397
:1016D0008F938E010F5F1F4F1F930F930E94DD2288
:1016E000C8010E94891A60911C0470E0FB01EA5E47
:1016F000FB4F808144E550E090E00E94E614809129
:101700001C048F5F80931C040F900F900F900F901C
:101710000F900F90863008F48CC184E080931D04F4
:1017200088C1809104018E3009F083C181EA92E082
:101730000E94891A0F2EFBE1AF2EF4E0BF2EF02D90
:10174000F50180811F928F930F2EFAE18F2EF4E026
:101750009F2EF02DF40180811F928F930F2EF9E1BF
:10176000EF2EF4E0FF2EF02DF70180811F928F9372
:101770000F2EF8E1CF2EF4E0DF2EF02DF601808160
:101780001F928F930F2EF7E14F2EF4E05F2EF02D76
:10179000F20180811F928F930F2EF6E16F2EF4E0FD
:1017A0007F2EF02DF30180811F928F9380EB92E0CA
:1017B0009F938F938E010F5F1F4F1F930F930E9474
:1017C000DD22C8010E94891AF4018081880F482F08
:1017D000440F440F840FF5019081890F482F50E08A
:1017E000F6018081880F682F660F660F860FF7015C
:1017F0009081890F682F70E0F3018081880F982F06
:10180000990F990F890FF2019081890F90E00E9442
:10181000030710921D0482E190E00E945D238093F3
:10182000320486E992E00E9414180FB6F894DEBFE5
:101830000FBECDBFFEC0809104018A3020F0803100
:1018400009F0F7C002C0803169F410921D0482E1F2
:1018500090E00E945D238093320486E992E00E942A
:101860001418E7C0E0911C04E11103C0843080F03B
:10187000E0C0E13041F490911604933049F4823095
:1018800008F0D7C005C0E23019F4823008F0D1C0AA
:10189000F0E0EA5EFB4F80831F928F938EE992E027
:1018A0009F938F938E010F5F1F4F1F930F930E9483
:1018B000DD22C8010E94891A60911C0470E0FB01BE
:1018C000EA5EFB4F808144E450E090E00E94E61421
:1018D00080911C048F5F80931C040F900F900F90D9
:1018E0000F900F900F90863008F4A3C086E080938D
:1018F0001D049FC0809104018E3009F09AC080ECD5
:1019000092E00E94891A0F2EFAE18F2EF4E09F2EAA
:10191000F02DF401208130E0C901880F991F220FBA
:10192000331F220F331F220F331F820F931F805349
:10193000984F0F2EFBE1AF2EF4E0BF2EF02DF501F6
:101940002081820F911D9F938F930F2EF9E1EF2E2F
:10195000F4E0FF2EF02DF70180811F928F930F2E60
:10196000F8E1CF2EF4E0DF2EF02DF60180811F92FA
:101970008F930F2EF7E14F2EF4E05F2EF02DF20142
:1019800080811F928F930F2EF6E16F2EF4E07F2E51
:10199000F02DF30180811F928F938FEC92E09F9343
:1019A0008F938E010F5F1F4F1F930F930E94DD22B5
:1019B000C8010E94891AF401808190E0AC01440FB3
:1019C000551F880F991F880F991F880F991F480F5F
:1019D000591F4053584FF5018081480F511DF601A2
:1019E0008081880F682F660F660F860FF701908140
:1019F000890F682F70E0F3018081880F982F990F6D
:101A0000990F890FF2019081890F90E00E94B80729
:101A100010921D0482E190E00E945D2380933204C5
:101A200086E992E00E9414180FB6F894DEBF0FBE4C
:101A3000CDBF64960FB6F894DEBF0FBECDBFDF9169
:101A4000CF911F910F91FF90EF90DF90CF90BF90BB
:101A5000AF909F908F907F906F905F904F90089580
:101A60000F931F93CF93DF93CDB7DEB764970FB675
:101A7000F894DEBF0FBECDBF8EE295E00E94050A4E
:101A8000882309F4FEC080912E0590912F05A09126
:101A90003005B09131058D3A22E592072FEFA2076C
:101AA000B10509F49CC008F03FC08D3D22E29207C9
:101AB0002FEFA207B10509F482C0B8F48F3E20E1F0
:101AC00092072FEFA207B10509F4A8C0873E28E1CD
:101AD00092072FEFA207B10509F498C08D3F9240FD
:101AE000AF4FB10509F0AAC072C0873C28E3920746
:101AF0002FEFA207B10509F495C038F48F3C90434D
:101B0000AF4FB10509F47EC099C08D3B22E4920726
:101B10002FEFA207B10509F45EC0853B9A44AF4F91
:101B2000B10509F460C08AC0873628E992072FEF13
:101B3000A207B10509F45EC0F0F48D3922E69207E0
:101B40002FEFA207B10599F138F4853A9A45AF4FC6
:101B5000B10509F46BC072C0873928E692072FEFF0
:101B6000A207B10509F442C085389A47AF4FB105C5
:101B700009F450C063C08F3420EB92072FEFA20707
:101B8000B105E1F130F48735984AAF4FB10599F0CE
:101B900055C08D3322EC92072FEFA207B10599F0C3
:101BA0008F3F9F4FAF4FBF4F09F444C047C08AE0FB
:101BB0008093040146C08DE08093040142C08BE015
:101BC000809304013EC08CE0809304013AC08EE013
:101BD0008093040136C08FE08093040132C080E11D
:101BE000809304012EC0109204012BC081E08093E9
:101BF000040127C082E08093040123C083E0809326
:101C000004011FC084E0809304011BC085E0809321
:101C1000040117C086E08093040113C087E080931D
:101C200004010FC088E0809304010BC089E0809319
:101C3000040107C081E18093040103C082E1809325
:101C40000401E0910401F0E0EB51FD4F80811F920F
:101C50008F938DED92E09F938F938E010F5F1F4FB7
:101C60001F930F930E94DD22C8010E94891A0E94CF
:101C7000240A0E94FD090F900F900F900F900F9073
:101C80000F9064960FB6F894DEBF0FBECDBFDF9104
:101C9000CF911F910F910895CF92DF92EF92FF9213
:101CA0000F931F93CF93DF93CDB7DEB72A970FB66D
:101CB000F894DEBF0FBECDBF8AE0E6E0F1E0DE01C2
:101CC000119601900D928A95E1F780912E049091E2
:101CD0002F04A0913004B0913104AC01BD01442720
:101CE000552766276C017D012FE0C222DD24EE24FA
:101CF000FF240B2EB4E1CC0CDD1CEE1CFF1CBA95AE
:101D0000D1F7B02D8C019D01007F112722273327A9
:101D10000F2EFCE0000F111F221F331FFA95D1F781
:101D2000F02D0C291D292E293F29042B152B262B9C
:101D3000372BAC01BD0144275F7066277727440F1E
:101D4000551F661F771F440F551F661F771F440FCF
:101D5000551F661F771F440F551F661F771F042BE3
:101D6000152B262B372BAC01BD014427507F66274E
:101D70007727689413F87695679557954795169445
:101D8000D1F7042B152B262B372BAC01BD01442793
:101D900055276F707727032E3CE07695679557950A
:101DA00047953A95D1F7302D042B152B262B372B41
:101DB000AC01BD0144275527607F7727032E34E10E
:101DC00076956795579547953A95D1F7302D042B21
:101DD000152B262B372B40912D04509105015523AF
:101DE00009F47BC0892F50913204513039F018F03A
:101DF0005230C1F030C01092290439C081110FC097
:101E000080912904FE01E80FF11D9181192B8F5F4C
:101E10008A3008F494C089E08093290492C010921B
:101E200029048FC050912804851791F011275091F3
:101E30002904FE01E50FF11D6181162B5F5F5A3009
:101E400008F481C059E050932904809328047DC090
:101E5000109229047AC0D901C80188279927BB2785
:101E60006A2F513039F018F05230B9F519C010927C
:101E7000270433C0611111C080912704FE01E80FCF
:101E8000F11D9181292B8F5F8A3018F480932704EC
:101E900024C089E08093270420C0109227041DC02D
:101EA000509126046517B9F050912704FE01E50F03
:101EB000F11D21816C017D01E22A970186015F5F9E
:101EC0005A3018F45093270408C089E080932704FF
:101ED0006093260402C01092270498E080E85BB16A
:101EE0005F735BB9582F5423581302C05D9A01C029
:101EF0005D9886955F9A5F98915089F7E0E280E05F
:101F000090E0A0E0B0E84BB14F734BB9AC01BD011C
:101F10004023512362237323481759076A077B071D
:101F200011F45D9A01C05D98B695A7959795879530
:101F30005F9A5F98E15039F75E9A5E980DC0809382
:101F40002904622F97CF50932904D901C80188270B
:101F50009927BB276A2FA4CF2A960FB6F894DEBF25
:101F60000FBECDBFDF91CF911F910F91FF90EF90EA
:101F7000DF90CF900895F8946091400470914104EF
:101F80008091420490914304789408958F929F9297
:101F9000AF92BF92CF92DF92EF92FF926C010E94BC
:101FA000BB0F4B015C01E12CF12C0E94BB0FAB017C
:101FB000BC01481959096A097B094C155D056E0574
:101FC0007F0598F3FF90EF90DF90CF90BF90AF9098
:101FD0009F908F9008951F920F920FB60F92112429
:101FE0002F933F934F935F936F937F938F939F9321
:101FF000AF93BF93EF93FF932D9A809144048F5F2B
:10200000809344048431B8F00E94CA168091400441
:1020100090914104A0914204B09143040196A11D06
:10202000B11D8093400490934104A0934204B09367
:102030004304109244040E94C2082D98FF91EF912E
:10204000BF91AF919F918F917F916F915F914F91D0
:102050003F912F910F900FBE0F901F901895BF9238
:10206000CF92DF92EF92FF920F931F93CF93DF9364
:10207000CDB7DEB76C970FB6F894DEBF0FBECDBFFD
:102080007A8F8B8FF22EE32ED42EC52E4A8D5B8D48
:10209000633009F067C08FE10E94240725E2829F28
:1020A000212D1124982F921B9695920F9695969517
:1020B000B92EBB0CBB0CBB0CB91AB81A8B2D0F2E4A
:1020C000FFE1BF2EF02DB80E1F92BF9289EF92E074
:1020D0009F938F938E010F5F1F4F1F930F930E944B
:1020E000DD22C8010E94891A0F900F900F900F9067
:1020F0000F900F9080912B04813009F118F08230FD
:1021000051F1A3C0BC1009C082E0F81211C0E11067
:102110009CC081E080932B0498C0CB1418F41092DB
:10212000370493C0BC1420F481E0809337048DC041
:1021300081E08F1508F489C01092370486C04D2DB8
:1021400060E083E00E94030782E080932B0481E03B
:10215000809337047AC0E11010922B0481E08093C1
:10216000370473C06A3009F067C08FE10E9424070A
:1021700025E2829F212D1124982F921B9695920F74
:1021800096959695B92EBB0CBB0CBB0CB91AB81A18
:102190008B2D0F2EFFE1BF2EF02DB80E1F92BF9298
:1021A00084E093E09F938F938E010F5F1F4F1F93E7
:1021B0000F930E94DD22C8010E94891A0F900F9090
:1021C0000F900F900F900F9080912A04813009F1A9
:1021D00018F0823049F139C0BC1009C083E0F81210
:1021E00011C0E11032C081E080932A042EC0BC14DB
:1021F00018F41092370429C0CB1420F481E08093A6
:10220000370423C082E08F1500F181E0809337040A
:102210001CC04D2D60E082E00E94030782E08093A5
:102220002A041092370411C083E08F1510F4109225
:102230002A041092370409C06350683018F01092D5
:10224000370403C081E0809337046C960FB6F8948E
:10225000DEBF0FBECDBFDF91CF911F910F91FF90D9
:10226000EF90DF90CF90BF9008959DEC899F912DC6
:102270001124969596959695292F220F322F330F7C
:10228000330F230F9295907F821B8F70892B0895B7
:102290000F931F9381111AC010922C0488B1807F74
:1022A00088B980912E0490912F04A0913004B091B0
:1022B0003104BB278A6A9A6AAA6A80932E04909393
:1022C0002F04A0933004B09331042BC026E030E0FB
:1022D0008901081B1109C801880F880F4AE050E0E6
:1022E00060E070E08A019B0104C0000F111F221FF3
:1022F000331F8A95D2F7D901C80140912E0450911D
:102300002F046091300470913104842B952BA62BFF
:10231000B72B80932E0490932F04A0933004B09396
:1023200031041F910F91089588B1807F88B9809101
:10233000250490E08A30910508F0ACC0FC01E75B11
:10234000FF4F0C947B2080E090E0A0E0B1E0809310
:102350002E0490932F04A0933004B093310481E0B5
:1023600080932504089581E191E1A1E1B2E0809399
:102370002E0490932F04A0933004B093310482E094
:1023800080932504089582E292E2A2E2B0E4809371
:102390002E0490932F04A0933004B093310488B19D
:1023A0008C6088B983E080932504089583E393E3E8
:1023B000A3E3B4E080932E0490932F04A093300401
:1023C000B093310484E080932504089584E494E478
:1023D000A4E4B8E080932E0490932F04A0933004DB
:1023E000B093310485E080932504089585E595E553
:1023F000A5E5B0E880932E0490932F04A0933004B9
:10240000B093310488B1896088B986E0809325044F
:10241000089586E696E6A6E6B0E180932E049093B2
:102420002F04A0933004B093310487E080932504F7
:10243000089587E797E7A7E7B0E280932E0490938B
:102440002F04A0933004B093310488E080932504D6
:10245000089588E898E8A8E8BFEF80932E04909349
:102460002F04A0933004B093310488B18A6088B9F6
:1024700089E080932504089589E999E9A9E9BFEFE6
:1024800080932E0490932F04A0933004B0933104D2
:10249000109225040895CF93DF93CDB7DEB7289728
:1024A0000FB6F894DEBF0FBECDBF80913404821703
:1024B00020F490913604291788F0821304C080918B
:1024C0003304381768F48091360482130BC081E01E
:1024D00090913504391738F480E005C080E003C0DE
:1024E00080E001C081E028960FB6F894DEBF0FBEF1
:1024F000CDBFDF91CF910895BF92CF92DF92EF923F
:10250000FF920F931F93CF93DF93CDB7DEB7E09782
:102510000FB6F894DEBF0FBECDBF10922E041092FE
:102520002F04109230041092310410922D04CE0129
:1025300001960E94AD061092050180914704882300
:1025400019F00E94941132C280914905882341F00C
:1025500080915305882311F0299A28C2299826C210
:1025600029813A814B815C816D817E818F81988543
:102570000E944B12882311F0299818C2299A8B8146
:1025800090E0FC013F97E532F10508F0B3C1ED5A48
:10259000FF4F0C947B2029813A814B815C816D81B6
:1025A0007E818F8198850E942F108C810E94351129
:1025B000182F8D810E943511412F50E060E070E0AE
:1025C000032E3CE0440F551F661F771F3A95D1F745
:1025D000302D482B440F551F661F771F440F551F82
:1025E000661F771F440F551F661F771F440F551F27
:1025F000661F771F40932E0450932F04609330047E
:102600007093310483E00E94481186E00E944811D3
:1026100080912304882309F4C9C182E080932C04AB
:10262000C5C188B1807F88B9EE80FF80970136955B
:10263000279536952795ABE7B4E10E9481208C0160
:1026400016950795802F0E943511182F8E2D94E630
:10265000099F801911240E943511412F50E060E03C
:1026600070E0762F652F542F4427482B440F551FB9
:10267000661F771F440F551F661F771F440F551F96
:10268000661F771F440F551F661F771F40932E0448
:1026900050932F04609330047093310481E00E94C2
:1026A000481186E00E94481180912304882309F490
:1026B0007DC182E080932C0479C1C0903804D09011
:1026C0003904E0903A04F0903B04C701B6010E943F
:1026D0008E1B162F862F0E943511082F612F70E058
:1026E00080E090E00E94BC1B9B01AC01C701B601D9
:1026F0000E94BC1A20E030E040E251E40E94481CF5
:102700000E948E1B462F50E060E070E07064802FC6
:1027100090E0A0E0B0E0880F991FAA1FBB1F880FB0
:10272000991FAA1FBB1F880F991FAA1FBB1F880FC5
:10273000991FAA1FBB1F482B592B6A2B7B2B409339
:102740002E0450932F04609330047093310488B1A9
:10275000807F88B9429A439A81E00E94481182E0C2
:102760000E94481183E00E94481185E293E00E9494
:10277000891A1F921F9389ED92E09F938F937E0198
:1027800089E0E80EF11CFF92EF920E94DD22C70162
:102790000E94891A0F900F900F900F900F900F903A
:1027A0001A3018F484E00E94481180912304882391
:1027B00009F4FCC081E080932C04F8C0C0903C0474
:1027C000D0903D04E0903E04F0903F0420E030E0E3
:1027D00048EC52E4C701B6010E94211B0E948E1BE7
:1027E000162F862F0E943511082F94E6199FB001ED
:1027F0001124882777FD8095982F0E94BC1B9B0190
:10280000AC01C701B6010E94BC1A0E948E1B862F24
:102810000E943511B82EC701B6010E94891B882776
:1028200077FD8095982F0E94BC1B9B01AC01C701CE
:10283000B6010E94BC1A20E030E040E251E40E9460
:10284000481C0E948E1B462F50E060E070E07064D0
:102850008B2D90E0A0E0B0E0902B880F991FAA1F6D
:10286000BB1F880F991FAA1FBB1F880F991FAA1F84
:10287000BB1F880F991FAA1FBB1F482B592B6A2B00
:102880007B2B40932E0450932F046093300470935D
:10289000310488B1807F88B9419A439A81E00E94CF
:1028A000481186E393E00E94891A1F921F9389EDD5
:1028B00092E09F938F937E0189E0E80EF11CFF92D6
:1028C000EF920E94DD22C7010E94891A0F900F909B
:1028D0000F900F900F900F901A3018F482E00E9422
:1028E000481180912304882309F460C086E0809316
:1028F0002C045CC081E08093050129813A814B81E1
:102900005C816D817E818F8198850E942F108981E5
:102910000E943511C82E8A810E943511D12CE12CDC
:10292000F12CFE2CED2CDC2CCC24C82A8B810E94AF
:102930003511FE2CED2CDC2CCC24C82AC0922E04A0
:10294000D0922F04E0923004F092310488B1807F5D
:1029500088B980912304882319F083E080932C04A4
:1029600080912E0490912F04A0913004B0913104F5
:1029700020912D04226020932D04209137042223DE
:1029800059F08860B06880932E0490932F04A09330
:102990003004B09331040AC0877FB06880932E045E
:1029A00090932F04A0933004B0933104E0960FB6B7
:1029B000F894DEBF0FBECDBFDF91CF911F910F9175
:1029C000FF90EF90DF90CF90BF9008950F931F93EB
:1029D000CF93582FC42F062F10E00730110508F0B1
:1029E000F9C0F801E858FF4F0C947B2080912E0429
:1029F00090912F04A0913004B0913104852B8093E5
:102A00002E0490932F04A0933004B093310481E0FE
:102A10000E94481182E00E94481183E00E94481100
:102A200084E00E94481185E00E944811D3C0809143
:102A30002E0490912F04A0913004B0913104880F9E
:102A4000991FAA1FBB1F880F991FAA1FBB1F880FA2
:102A5000991FAA1FBB1F880F991FAA1FBB1F852B79
:102A600080932E0490932F04A0933004B0933104EC
:102A700081E00E94481182E00E94481183E00E9498
:102A8000481184E00E944811A5C080912E049091C5
:102A90002F04A0913004B0913104880F991FAA1F10
:102AA000BB1F880F991FAA1FBB1F880F991FAA1F42
:102AB000BB1F880F991FAA1FBB1F852B80932E0455
:102AC00090932F04A0933004B093310481E00E94CE
:102AD000481182E00E94481183E00E9448117AC0A8
:102AE00080912E0490912F04A0913004B091310474
:102AF000880F991FAA1FBB1F880F991FAA1FBB1FF2
:102B0000880F991FAA1FBB1F880F991FAA1FBB1FE1
:102B1000852B80932E0490932F04A0933004B093C0
:102B2000310481E00E94481182E00E94481152C0A5
:102B300080912E0490912F04A0913004B091310423
:102B4000880F991FAA1FBB1F880F991FAA1FBB1FA1
:102B5000880F991FAA1FBB1F880F991FAA1FBB1F91
:102B6000852B80932E0490932F04A0933004B09370
:102B7000310481E00E9448112DC080912E04909173
:102B80002F04A0913004B0913104880F991FAA1F1F
:102B9000BB1F880F991FAA1FBB1F880F991FAA1F51
:102BA000BB1F880F991FAA1FBB1F852B80932E0464
:102BB00090932F04A0933004B09331040BC0109273
:102BC0002E0410922F04109230041092310488B118
:102BD000807F88B980912E0490912F04A0913004B9
:102BE000B0913104BB2780932E0490932F04A093BF
:102BF0003004B093310482E080932D04C43521F475
:102C000083E080932C0405C0C43419F482E08093DF
:102C10002C04CF911F910F910895E0EBF0E080819B
:102C20008260808382E08093B10083E68093B3006A
:102C30001092B200E0E7F0E0808182608083089526
:102C400023982B9884B1836284B985B18C7D85B932
:102C500087B18F6087B988B1807F88B98AB1806E6B
:102C60008AB98BB18F718BB90895CF93DF93CDB7AC
:102C7000DEB764970FB6F894DEBF0FBECDBF0E94DB
:102C80000D160E94BC088CE00E9434050E9420169C
:102C90008BE390E00E94402189E190E00E94C719F7
:102CA00028EE33E040E050E066E972E08CE792E124
:102CB0000E949B1722E330E044E650E06BE473E0AF
:102CC0008CE49EE00E949B1724EF31E046E950E03F
:102CD00062E573E080E39DE00E949B1778940E9478
:102CE00059040E94A2048AE593E00E94891A85E8AB
:102CF00093E00E94891A809133041F928F938091F0
:102D000034041F928F93809135041F928F9380918A
:102D100036041F928F9384E993E09F938F938E01E3
:102D20000F5F1F4F1F930F930E94DD22C8010E9467
:102D3000891A0FB6F894DEBF0FBECDBF0F2EFBE48D
:102D4000CF2EF4E0DF2EF02D0F2EFBEBEF2EF3E075
:102D5000FF2EF02D0E9415170E942004813019F0DB
:102D6000823031F0F7CF8CEA93E00E94891AF2CFDB
:102D7000DF92CF92FF92EF921F930F930E94DD227A
:102D8000C8010E94891A0F900F900F900F900F901A
:102D90000F90E0CF8091560590915705892B09F44B
:102DA00043C080E090E050E049E1489FF001499F36
:102DB000F00D1124EA5AFA4F208931892115310585
:102DC00061F0489FF001499FF00D1124EA5AFA4F33
:102DD00021503109318B208B19C0489FF001499F48
:102DE000F00D1124EA5AFA4F228933892150310912
:102DF000338B228B232B51F4489FF001499FF00D18
:102E00001124EA5AFA4F84898160848B5F5F852F91
:102E100090E0489FF001499FF00D1124EA5AFA4FC3
:102E200020813181232B09F60895AF92BF92CF9272
:102E3000DF92EF92FF920F931F93CF93DF938091D6
:102E4000560590915705892B09F46AC0C0E0D0E07F
:102E500010E009E10C9FF0010D9FF00D1124EA5ADA
:102E6000FA4F84898370833009F04BC00E94BB0FF6
:102E70006B017C010C9FC0010D9F900D11249C01E2
:102E80002A5A3A4F5901D901ED91FC910995F50162
:102E900084898E7F848B86859785938B828B0E9415
:102EA000BB0F6C157D058E059F0550F4DC01CB0131
:102EB0008C199D09AE09BF090197A109B10906C086
:102EC000DC01CB018C199D09AE09BF090C9FF001F3
:102ED0000D9FF00D1124EA5AFA4F968B858BC78807
:102EE000D08CE12CF12CC816D906EA06FB0648F472
:102EF0000C9FF0010D9FF00D1124EA5AFA4F908FAC
:102F0000878B1F5FC12FD0E00C9FF0010D9FF00D4C
:102F10001124EA5AFA4F80819181892B09F09ACFC6
:102F2000DF91CF911F910F91FF90EF90DF90CF90A5
:102F3000BF90AF9008954F925F926F927F929F9251
:102F4000AF92BF92CF92DF92EF92FF920F931F93B7
:102F5000CF93DF936C018B017A019090480488E055
:102F6000891598F08091640590916505892B79F019
:102F7000A12C49E1A3944A9DF0011124EA5AFA4F89
:102F800086859785892BB1F703C086E03DC0A12CCB
:102F9000A8EEB3E00E9481200F2EF8EE4F2EF3E052
:102FA0005F2E612C712CF02DA30192010E945C20F8
:102FB00089E1A89E50011124E501CA5ADA4FD9824D
:102FC000C8823F872E873B8B2A8B9701A8EEB3E000
:102FD0000E948120A30192010E945C20398B288BE2
:102FE0008C898E7F82608C8B1E8A1D8A188E1F8A28
:102FF0004CE050E0B801C501885A9A4F0E94622205
:1030000093949092480480E0DF91CF911F910F91AB
:10301000FF90EF90DF90CF90BF90AF909F907F9008
:103020006F905F904F900895EF92FF920F931F93D0
:10303000CF93DF938C018091640590916505892B76
:1030400079F1C0E0D0E0F12C0F2EF9E1EF2EF02D58
:10305000EC9EC001ED9E900D1124B801885A9A4F44
:103060000E945922892B69F489E18C9FF0018D9F80
:10307000F00D1124EA5AFA4F84898260848B80E033
:1030800012C0F394CF2DD0E0EC9EF001ED9EF00D38
:103090001124EA5AFA4F26853785232BC9F602C038
:1030A00085E001C084E0DF91CF911F910F91FF90E7
:1030B000EF900895EF92FF920F931F93CF93DF93BA
:1030C0008C018091640590916505892B79F1C0E0B0
:1030D000D0E0F12C0F2EF9E1EF2EF02DEC9EC00187
:1030E000ED9E900D1124B801885A9A4F0E945922E2
:1030F000892B69F489E18C9FF0018D9FF00D1124DB
:10310000EA5AFA4F84898D7F848B80E012C0F39451
:10311000CF2DD0E0EC9EF001ED9EF00D1124EA5A87
:10312000FA4F26853785232BC9F602C085E001C0FA
:1031300084E0DF91CF911F910F91FF90EF90089560
:10314000CF92DF92EF92FF920F931F93CF93DF9373
:10315000CDB7DEB7C655D1090FB6F894DEBF0FBEA6
:10316000CDBF84E2EEEEF3E0DE01D39601900D9246
:103170008A95E1F7CE01C3960E94891A20916405D1
:10318000309165052115310509F447C080E090E0D4
:10319000D12C0F2EF9E1CF2EF02D0F2EFEECEF2EBD
:1031A000F3E0FF2EF02D8E010F5F1F4FC89EA00190
:1031B000C99E500D1124FA01EA5AFA4F808D8F935F
:1031C00087898F9386898F9385898F9384891F92AE
:1031D0008F933F932F93CA01885A9A4F9F938F934F
:1031E000FF92EF921F930F930E94DD22C8010E946D
:1031F000891AD3948D2D90E0C89EF001C99EF00DE0
:103200001124EA5AFA4F268537850FB6F894DEBFA7
:103210000FBECDBF2115310549F6CA5ADF4F0FB693
:10322000F894DEBF0FBECDBFDF91CF911F910F91FC
:10323000FF90EF90DF90CF9008951F920F920FB6FE
:103240000F9211242F933F934F935F938F939F93EC
:10325000AF93BF93EF93FF939091660680916506BD
:103260009817E1F0E6E6F6E08081A0916806B0915B
:103270006906A80FB11D5C914081242F30E0809138
:10328000670690E001972817390711F04F5F01C0DA
:1032900040E0409366065093C60005C0E1ECF0E0C4
:1032A00080818F7D8083FF91EF91BF91AF919F913E
:1032B0008F915F914F913F912F910F900FBE0F9083
:1032C0001F9018951F920F920FB60F9211242F93F3
:1032D0003F934F935F938F939F93AF93BF93EF93DE
:1032E000FF93CF93DF931F92CDB7DEB75091610666
:1032F00040916006242F30E08091620690E00197B3
:103300002817390711F04F5F01C040E05417F1F062
:103310008091C600E0E6F6E09081A0916306B0914E
:103320006406A90FB11D8C934081242F30E0809159
:10333000620690E001972817390711F04F5F01C02E
:1033400040E04093600610925F0606C08091C60080
:10335000898381E080935F068091490490914A04BB
:10336000019690934A04809349040F90DF91CF9186
:10337000FF91EF91BF91AF919F918F915F914F918D
:103380003F912F910F900FBE0F901F901895CF93E4
:10339000DF93CDB7DEB769970FB6F894DEBF0FBEE7
:1033A000CDBF9093C5008093C40088E98093C1008D
:1033B000E0ECF0E080818D7F808386E08093C20026
:1033C0001D8A1E8A8EE18F8B87E396E0998F888F06
:1033D00085E0FE017596DE011B9601900D928A959F
:1033E000E1F785E0FE013B96DE01509601900D92DB
:1033F0008A95E1F785E0FE017096A5E6B6E00190BA
:103400000D928A95E1F71D8A1E8A8AE08F8B85E5E9
:1034100096E0998F888F85E0FE017596DE01119602
:1034200001900D928A95E1F785E0FE013196DE016B
:10343000169601900D928A95E1F785E0FE01369689
:10344000A0E6B6E001900D928A95E1F769960FB675
:10345000F894DEBF0FBECDBFDF91CF910895CF921C
:10346000DF92EF92FF920F931F93CF93DF93D82EAB
:103470000F2EF6E6EF2EF6E0FF2EF02D05E616E015
:10348000C7E6D6E0C12C04C081E090E00E94C60FE0
:10349000F7019081F8018081482F50E0288130E0C9
:1034A000215031094217530711F08F5F01C08C2D55
:1034B000981751F3F89490916606809165069813D9
:1034C00005C0E1ECF0E0808180628083E5E6F6E013
:1034D0008081A0916806B0916906A80FB11DDC92A9
:1034E0004081242F30E08091670690E001972817F3
:1034F000390711F04F5F01C040E0409365067894B2
:10350000DF91CF911F910F91FF90EF90DF90CF90BF
:103510000895CF93DF93EC018881882331F02196C1
:103520000E942F1A89918111FBCFDF91CF910895CD
:10353000209161069091600681E0291301C080E02E
:103540000895E1E6F6E08081A0916306B0916406FB
:10355000A80FB11D8C919081492F50E020916206F7
:1035600030E0215031094217530711F09F5F01C02D
:1035700090E09093610608955058BB27AA270ED07B
:103580004DC13ED130F043D120F031F49F3F11F4D2
:103590001EF433C10EF4E095E7FB29C1E92F4FD1AA
:1035A00080F3BA17620773078407950718F071F460
:1035B0009EF567C10EF4E0950B2EBA2FA02D0B01DE
:1035C000B90190010C01CA01A0011124FF27591B68
:1035D00099F0593F50F4503E68F11A16F040A22F6E
:1035E000232F342F4427585FF3CF469537952795DF
:1035F000A795F0405395C9F77EF41F16BA0B620BDE
:10360000730B840BBAF09150A1F0FF0FBB1F661F24
:10361000771F881FC2F70EC0BA0F621F731F841F67
:1036200048F4879577956795B795F7959E3F08F08D
:10363000B3CF9395880F08F09927EE0F979587954C
:1036400008950CD0EBC0E3D040F0DAD030F021F494
:103650005F3F19F0CCC0511115C1CFC0F0D098F325
:103660009923C9F35523B1F3951B550BBB27AA2703
:1036700062177307840738F09F5F5F4F220F331F75
:10368000441FAA1FA9F333D00E2E3AF0E0E830D041
:1036900091505040E695001CCAF729D0FE2F27D044
:1036A000660F771F881FBB1F261737074807AB0712
:1036B000B0E809F0BB0B802DBF01FF2793585F4F87
:1036C0002AF09E3F510568F092C0DCC05F3FECF3EA
:1036D000983EDCF3869577956795B795F7959F5F4C
:1036E000C9F7880F911D9695879597F90895E1E0A0
:1036F000660F771F881FBB1F621773078407BA07FF
:1037000020F0621B730B840BBA0BEE1F88F7E09559
:10371000089504D06894B111B5C0089598D088F088
:103720009F5790F0B92F9927B751A0F0D1F0660FAD
:10373000771F881F991F1AF0BA95C9F712C0B130C8
:1037400081F09FD0B1E008959CC0672F782F882723
:10375000B85F39F0B93FCCF3869577956795B39507
:10376000D9F73EF490958095709561957F4F8F4F76
:103770009F4F0895E89409C097FB3EF4909580957B
:10378000709561957F4F8F4F9F4F9923A9F0F92F27
:1037900096E9BB279395F695879577956795B795A5
:1037A000F111F8CFFAF4BB0F11F460FF1BC06F5F8B
:1037B0007F4F8F4F9F4F16C0882311F096E911C09D
:1037C000772321F09EE8872F762F05C0662371F0BE
:1037D00096E8862F70E060E02AF09A95660F771FD2
:1037E000881FDAF7880F9695879597F9089597F9C6
:1037F0009F6780E870E060E008959FEF80EC089597
:1038000000240A94161617061806090608950024BF
:103810000A9412161306140605060895092E039439
:10382000000C11F4882352F0BB0F40F4BF2B11F4AD
:1038300060FF04C06F5F7F4F8F4F9F4F089557FD0C
:103840009058440F551F59F05F3F71F04795880F0E
:1038500097FB991F61F09F3F79F0879508951216A5
:1038600013061406551FF2CF4695F1DF08C0161651
:1038700017061806991FF1CF869571056105089402
:103880000895E894BB2766277727CB0197F9089519
:103890000BD0C4CFB5DF28F0BADF18F0952309F0BC
:1038A000A6CFABCF1124EECFCADFA0F3959FD1F303
:1038B000950F50E0551F629FF001729FBB27F00DDE
:1038C000B11D639FAA27F00DB11DAA1F649F662733
:1038D000B00DA11D661F829F2227B00DA11D621F82
:1038E000739FB00DA11D621F839FA00D611D221F3C
:1038F000749F3327A00D611D231F849F600D211D20
:10390000822F762F6A2F11249F5750408AF0E1F0C2
:1039100088234AF0EE0FFF1FBB1F661F771F881F0B
:1039200091505040A9F79E3F510570F060CFAACF4B
:103930005F3FECF3983EDCF3869577956795B795F6
:10394000F795E7959F5FC1F7FE2B880F911D969520
:10395000879597F90895A3E1B0E0E1EBFCE10C94C1
:10396000A2207C011B016A01FC011782168283815F
:1039700081FF66C3BE016F5F7F4F4B01F7019381EB
:10398000F10193FD859193FF81911F01882309F433
:1039900053C3853239F493FD859193FF81911F01C3
:1039A000853239F4B70190E00E94AB2256016501DF
:1039B000E5CF10E0512C20E02032A0F48B3269F0EA
:1039C00030F4803259F0833269F420612CC08D329A
:1039D00039F0803339F4216026C02260246023C08E
:1039E000286021C027FD27C030ED380F3A3078F429
:1039F00026FF06C0FAE01F9F300D1124132F13C0BD
:103A00006AE0569E300D1124532E20620CC08E3277
:103A100021F426FD11C3206406C08C3611F4206801
:103A200002C0883641F4F10193FD859193FF8191A5
:103A30001F018111C1CF9BEB980F933018F42061C7
:103A4000805E06C09BE9980F933008F0AAC12F7ED4
:103A500026FF16E02F73722E853621F4F22FF064C4
:103A60007F2E08C0863621F4622F6068762E02C051
:103A70001111115077FE07C01C3348F444244394BD
:103A8000410E27E00BC0183030F4212F06C027E08C
:103A90004CE3442E03C027E017E0412C560174E0AC
:103AA000A70EB11CF6016081718182819381042D82
:103AB000A4010E9469216C01098100FF02C003FF7B
:103AC00006C071FC07C072FC08C0612C08C03DE252
:103AD000632E05C02BE2622E02C090E2692E802F79
:103AE0008C7099F1662011F084E001C083E08515A7
:103AF00010F0512C0BC0581A73FC08C0B70180E2BB
:103B000090E00E94AB225A94C9F7F3CF662029F0C7
:103B1000B701862D90E00E94AB2203FD03C002E0B6
:103B200011E002C00EEF10E0F72DF0717F2EF801CA
:103B30008491882309F476C271108052B70190E015
:103B40000E94AB220F5F1F4FF2CF77FE0FC04C0CCD
:103B500004FF04C08A81813309F44A94141474F573
:103B6000F8E0F41578F588E0482E2CC076FC2AC0E1
:103B7000812F90E08C159D059CF06CEFC6166FEFC1
:103B8000D60674F0772D7068772E0AC0E2E0F0E078
:103B9000EC0FFD1FE10FF11D8081803319F41150EE
:103BA0001111F4CF77FE0EC044244394410E812FAF
:103BB00090E0C816D9062CF41C1904C04424439480
:103BC00001C010E077FE07C01C141D043CF49601F0
:103BD0002F5F3F4F05C025E030E002C021E030E01C
:103BE000662011F02F5F3F4F112331F0412F50E03D
:103BF0004F5F5F4F240F351F452D50E024173507C9
:103C000014F4521A01C0512C872D897049F45520A3
:103C100039F0B70180E290E00E94AB225A94F7CFCE
:103C2000662029F0B701862D90E00E94AB2273FC3C
:103C300009C0552039F0B70180E390E00E94AB2223
:103C40005A94F7CF77FE5FC09C2D8D2DD7FE02C012
:103C500090E080E0692E782E40E050E0C6018419A3
:103C600091099D878C87960126193709280D391DE2
:103C7000812F90E0EE27FF27E81BF90BFF87EE87E7
:103C8000FFEF6F167F0669F4B7018EE290E02B8B91
:103C90003A8B488B598B0E94AB22598948893A89C3
:103CA0002B89C614D70454F06C857D85661577057D
:103CB0002CF4F901E40FF51F818101C080E371E06C
:103CC000671A71084F5F5F4FEE85FF856E167F069E
:103CD0006CF0B70190E02B8B3A8B488B598B0E948C
:103CE000AB222B893A8948895989CACF6C147D0443
:103CF00039F49A81963318F4953311F404FF81E373
:103D0000B70190E04BC08A81813309F00F7EB70183
:103D100090E00E94AB22111105C074FE18C085E42A
:103D200090E017C0B7018EE290E00E94AB2282E0E3
:103D300066246394680EF401E80FF11D8081B701D9
:103D400090E00E94AB22115041F3862DF1CF85E621
:103D500090E0B7010E94AB22D7FC05C0C114D1048A
:103D600039F404FF05C0D194C194D1088DE201C09B
:103D70008BE2B70190E00E94AB2280E36AE0C616B6
:103D8000D1042CF08F5FFAE0CF1AD108F7CFB7013A
:103D900090E00E94AB22B701C601C0960E94AB2200
:103DA00041C1833631F0833779F0833509F058C04B
:103DB00021C0560172E0A70EB11CF60180818983F3
:103DC00001E010E0640114C05601F2E0AF0EB11C36
:103DD000F601C080D18026FF03C0612F70E002C0D1
:103DE0006FEF7FEFC6012B8B0E9471228C012B8914
:103DF0002F7715C05601F2E0AF0EB11CF601C0805E
:103E0000D18026FF03C0612F70E002C06FEF7FEF0B
:103E1000C6012B8B0E9449228C012B892068722EAF
:103E200023FD1AC0852D90E008171907A8F4B701E3
:103E300080E290E00E94AB225A94F4CFF60177FC26
:103E4000859177FE81916F01B70190E00E94AB22CE
:103E500051105A94015011090115110579F7E2C06A
:103E6000843611F0893651F5560127FF09C0F4E078
:103E7000AF0EB11CF60160817181828193810AC00D
:103E8000F2E0AF0EB11CF60160817181882777FDE9
:103E90008095982F022F0F7697FF08C090958095F8
:103EA000709561957F4F8F4F9F4F00682AE030E0FB
:103EB000A4010E94FF22C82EC8183EC0022F8537D9
:103EC00021F40F7E2AE030E01DC0097F8F3691F08B
:103ED00018F4883559F0B0C0803719F0883711F0E0
:103EE000ABC0006104FF09C0046007C024FF08C024
:103EF000066006C028E030E005C020E130E002C0E6
:103F000020E132E0560107FF09C0F4E0AF0EB11C1A
:103F1000F601608171818281938108C0F2E0AF0E69
:103F2000B11CF6016081718180E090E0A4010E94E3
:103F3000FF22C82EC8180F7706FF0BC0202F2E7F38
:103F4000C11650F404FF0AC002FD08C0202F2E7EC7
:103F500005C0DC2C202F03C0DC2C01C0D12E24FF97
:103F60000DC0FE01EC0DF11D8081803311F4297E1E
:103F700009C022FF06C0D394D39404C0822F867850
:103F800009F0D39423FD13C020FF06C01C2DD514C7
:103F900018F4150D1D19D52CD51468F4B70180E25D
:103FA00090E02B8B0E94AB22D3942B89F5CFD514B4
:103FB00010F45D1801C0512C24FF12C0B70180E33A
:103FC00090E02B8B0E94AB222B8922FF17C021FF90
:103FD00003C088E590E002C088E790E0B7010CC01C
:103FE000822F867859F021FD02C080E201C08BE269
:103FF00027FD8DE2B70190E00E94AB22C11638F494
:10400000B70180E390E00E94AB221150F7CFCA9431
:10401000F401EC0DF11D8081B70190E00E94AB220C
:10402000C110F5CF552009F4C2CCB70180E290E071
:104030000E94AB225A94F6CFF7018681978102C085
:104040008FEF9FEF6396E2E10C94BE2097FB072E63
:1040500016F4009407D077FD09D00E94D92007FC00
:1040600005D03EF4909581959F4F08957095619588
:104070007F4F0895A1E21A2EAA1BBB1BFD010DC0A4
:10408000AA1FBB1FEE1FFF1FA217B307E407F50708
:1040900020F0A21BB30BE40BF50B661F771F881FE4
:1040A000991F1A9469F760957095809590959B017A
:1040B000AC01BD01CF010895052E97FB1EF40094BD
:1040C0000E94732057FD07D00E943A2007FC03D0BE
:1040D0004EF40C94732050954095309521953F4FA8
:1040E0004F4F5F4F089590958095709561957F4FE4
:1040F0008F4F9F4F0895EE0FFF1F0590F491E02D15
:104100000994A29FB001B39FC001A39F700D811DB0
:104110001124911DB29F700D811D1124911D0895D0
:104120000E948120B7FF0895821B930B08950E947F
:104130008120A59F900DB49F900DA49F800D911D8F
:10414000112408952F923F924F925F926F927F9227
:104150008F929F92AF92BF92CF92DF92EF92FF9297
:104160000F931F93CF93DF93CDB7DEB7CA1BDB0B43
:104170000FB6F894DEBF0FBECDBF09942A883988E8
:1041800048885F846E847D848C849B84AA84B984EF
:10419000C884DF80EE80FD800C811B81AA81B981FB
:1041A000CE0FD11D0FB6F894DEBF0FBECDBFED010F
:1041B0000895AA1BBB1B51E107C0AA1FBB1FA6176E
:1041C000B70710F0A61BB70B881F991F5A95A9F7C0
:1041D00080959095BC01CD0108958F929F92AF92EA
:1041E000BF92CF92DF92EF92FF92CF93DF93EC01D9
:1041F000688179818A819B816115710581059105AD
:1042000021F464E279ED8BE597E02DE133EF41E0B5
:1042100050E00E945C2049015A019B01AC01A7EAD1
:10422000B1E40E9497206B017C01ACEEB4EFA501D4
:1042300094010E947623C60ED71EE81EF91EF7FED3
:1042400006C081E0C81AD108E10880E8F80AC882EF
:10425000D982EA82FB82C6019F77DF91CF91FF90DE
:10426000EF90DF90CF90BF90AF909F908F90089588
:104270000E94ED20089580E091E00E94ED200895D5
:10428000A0E0B0E08093000190930101A0930201AF
:10429000B09303010895FC0188279927E8942191A0
:1042A0002032E9F3293010F02E30C8F32B3241F0E0
:1042B0002D3239F4689404C00E94A322820F911D0C
:1042C000219120532A30C0F31EF4909581959F4F81
:1042D0000895283008F027E03327DA01990F311DBF
:1042E00087FD916000966105710539F432602E5F9B
:1042F0003D9330E32A95E1F708959F3F30F08038F1
:104300007105610509F03C5F3C5F3D93913008F019
:104310008068911DDF93CF931F930F93FF92EF92CD
:10432000192F987F9695E92F96959695E90FFF2777
:10433000E05AFE4F99273327EE24FF24A701E70117
:1043400005900894079428F4360FE71EF81E491FBD
:10435000511D660F771F881F991F0694A1F70590BE
:10436000079428F4E70EF81E491F561FC11D770F4A
:10437000881F991F661F0694A1F70590079428F4DB
:10438000F80E491F561FC71FD11D880F991F661FA2
:10439000771F0694A1F70590079420F4490F561F44
:1043A000C71FD81F990F661F771F881F0694A9F78C
:1043B00084911095177041F0D695C79557954795FC
:1043C000F794E7941A95C1F7E6E0F1E06894159048
:1043D000159135916591959105907FE27395E1185E
:1043E000F10A430B560BC90BD009C0F7E10CF11EC3
:1043F000431F561FC91FD01D7EF4703311F48A95D8
:10440000E6CFE894015030F0080F0AF400270217B5
:1044100008F4202F2395022F7A3328F079E37D9337
:104420002A95E9F710C07D932A9589F60694979509
:104430006795379517951794E118F10A430B560BBA
:10444000C90BD00998F023957E9173957A3308F0C3
:1044500070E37C932013B8F77E9170617D9330F008
:10446000839571E37D9370E32A95E1F71124EF9032
:10447000FF900F911F91CF91DF91992787FD909524
:1044800008959111089581548A5108F4805E855AE7
:104490000895FC010590615070400110D8F7809597
:1044A00090958E0F9F1F089542E154E00E947C2258
:1044B0000895FB01DC018D91019080190110D9F361
:1044C000990B0895FB01DC014150504048F00190E8
:1044D0000D920020C9F701C01D9241505040E0F7F5
:1044E0000895FC016150704001900110D8F780954B
:1044F00090958E0F9F1F0895FA01A191B0810097AA
:1045000019F41097E1F0CD01DC01CD010D900020F0
:1045100011F4C00113C0FB012191222319F02015D1
:10452000D9F7F3CFFB012191201519F41E921196B2
:1045300006C02223C1F70D900020A1F7D001FA0197
:10454000A193B08308957AE0979F902D879F802D47
:10455000910D112408950F931F93CF93DF93182F7C
:10456000092FEB018B8181FD03C08FEF9FEF20C0EE
:1045700082FF10C04E815F812C813D81421753071D
:104580007CF4E881F9819F012F5F3F4F39832883B5
:10459000108306C0E885F985812F0995892B29F7B5
:1045A0002E813F812F5F3F4F3F832E83812F902F9E
:1045B000DF91CF911F910F910895AEE0B0E0E3EE4F
:1045C000F2E20C94B0200D891E8986E08C831A8358
:1045D00009838FEF9FE79E838D83AE01475E5F4F18
:1045E0006F89788DCE0101960E94AB1CEF81F88512
:1045F000E00FF11F10822E96E4E00C94CC20FA011B
:10460000AA27283051F1203181F1E8946F936E7F11
:104610006E5F7F4F8F4F9F4FAF4FB1E03ED0B4E002
:104620003CD0670F781F891F9A1FA11D680F791F43
:104630008A1F911DA11D6A0F711D811D911DA11D54
:1046400020D009F468943F912AE0269F1124301964
:10465000305D3193DEF6CF010895462F4770405DFF
:104660004193B3E00FD0C9F7F6CF462F4F70405DAE
:104670004A3318F0495D31FD4052419302D0A9F709
:10468000EACFB4E0A6959795879577956795BA9503
:10469000C9F700976105710508959B01AC010A2EC9
:1046A00006945795479537952795BA95C9F7620FA0
:1046B000731F841F951FA01D0895F999FECF92BD09
:1046C00081BDF89A992780B50895262FF999FECFD4
:1046D0001FBA92BD81BD20BD0FB6F894FA9AF99A1F
:1046E0000FBE01960895B7FF0C9497200E94972063
:0A46F000821B930B0895F894FFCF8E
:1046FA000100000012010B16212C37424D586300AD
:10470A004D6F6E00547565005765640054687500F6
:10471A00467269005361740053756E00636F6C5B77
:10472A0025645D3D25640A003A2D00446174653AAA
:10473A00200020253032642D253032642D25640A6C
:10474A00003A2D2E0054696D653A20253032643ABC
:10475A00253032643A253032640A00445333323306
:10476A00313A200020253032642D253032642D253F
:10477A00642C20253032643A253032643A253032AE
:10478A00640A004453333233313A2025642E003010
:10479A003020B0430A00323520B0430A00353020B9
:1047AA00B0430A00373520B0430A0053746172746B
:1047BA002D54696D6520666F7220626C616E6B693B
:1047CA006E67204E69786965733A20253032643AFB
:1047DA00253032640A00456E642D54696D65206681
:1047EA006F7220626C616E6B696E67204E697869C0
:1047FA0065733A20253032643A253032640A004E15
:10480A006978696520626F6172642076302E320A97
:10481A00004D616E756661637475726564206279B4
:10482A0020582D4C656E7420456C656374726F6EEA
:10483A0069637320616E642076644C6F67740A0042
:10484A00436F707972696768742070726F746563F8
:10485A00746564206279204475746368206C61779A
:10486A000A004552522E434D445B25735D0A0049A6
:10487A0032432D7363616E3A2000307825307820F8
:10488A00006E6F6E6500446973706C61790025640F
:10489A00005365742D54696D6520455845433A00A7
:1048AA00256425643A256425643A256425640A004A
:1048BA005365742D4461746520455845433A002573
:1048CA006425642D256425642D25640A0069725BBC
:1048DA0025635D0A0030313233343536373839557D
:1048EA004C52444F4148583F006C73756E30333D0B
:1048FA0025640A006C73756E31303D25640A0064C4
:10490A00687432323A2052483D25642E25642025A7
:10491A00252C200A00426C616E6B5F7A65726F20EB
:10492A0054656D702000426C616E6B5F7A65726FC0
:10493A0020507265737375726520005570646174D6
:10494A00650049525F72656376004E697869652031
:10495A00626F6172642076302E33302C20456D6987
:10496A006C652C204D617274696A6E2C20526F6ED0
:10497A00616C640A00426C616E6B696E67206672D4
:10498A006F6D2000253032643A2530326420746F0E
:10499A0020253032643A253032640A00436F6D6D47
:1049AA00616E64204572726F720A004E756D62659F
:1049BA0072204572726F7220282573290A00252DEC
:1049CA003131732025356420307825303278202023
:1049DA002025303364202020253033640A005461B6
:1049EA00736B2D4E616D6520202054286D7329202C
:1049FA00537461742054286D7329204D286D7329CE
:024A0A000A00A0
:00000001FF
