:100000000C9444010C9461010C9461010C94610105
:100010000C9461010C9461010C9461010C942F10FB
:100020000C9461010C9461010C9461010C946101C8
:100030000C9461010C9461010C9461010C946101B8
:100040000C9461010C9461010C94E91A0C94A41AAB
:100050000C9461010C9461010C9461010C94610198
:100060000C9461010C9461016D01720177017C01B6
:10007000810186018B01CE01D701E001E901F20186
:10008000FB0104028C0A460BCE0A7E0BD50B5F0CDB
:10009000BE0C4F125F126F1282129212A212B51290
:1000A000C512D512E81208130E1314131A132013D5
:1000B00026132C1308130E1314131A1320132613CC
:1000C0002C1308130E1314131A13201326132C13B6
:1000D00008130E1314131A13201326132C130813CA
:1000E0000E1314131A13201326132C1308130E13B4
:1000F00014131A13201326132C1308130E1314139E
:100100001A13201326132C1308130E1314131A1387
:10011000201326132C1308130E1314131A13AB13E6
:10012000B113B713BD13C313C913CF13D5130814D9
:10013000081450145014C515C515C515C515C51599
:10014000C515C515C515C515C515C515C515C515DF
:10015000C515C515C515C515C515C515C515C515CF
:100160009E149E14C515C515C515C515C515C5150F
:10017000C515C5152715271554167516A316CE16C1
:10018000F6161B173D176E616E00696E6600004023
:100190007A10F35A00A0724E18090010A5D4E80096
:1001A00000E87648170000E40B54020000CA9A3BAE
:1001B000000000E1F5050000809698000000404234
:1001C0000F000000A08601000000102700000000C2
:1001D000E803000000006400000000000A000000C6
:1001E00000000100000000002C76D888DC674F0872
:1001F00023DFC1DFAE59E1B1B796E5E3E453C63A78
:10020000E651997696E8E6C28426EB898C9B62EDEE
:10021000407C6FFCEFBC9C9F40F2BAA56FA5F490A8
:10022000055A2AF75C936B6CF9676DC11BFCE0E41F
:100230000D47FEF520E6B500D0ED902E0300943575
:1002400077050080841E080000204E0A000000C8C8
:100250000C333333330F986E12831141EF8D211419
:10026000893BE65516CFFEE6DB18D1844B381BF7E9
:100270007C1D901DA4BBE424203284725E22810088
:10028000C9F124ECA1E53D2711241FBECFEFD8E032
:10029000DEBFCDBF13E0A0E0B1E0E8E0FAE402C0C9
:1002A00005900D92AC3FB107D9F726E0ACEFB3E073
:1002B00001C01D92A435B207E1F70E94AD170C945E
:1002C00002250C94000090E0FC013197E730F10525
:1002D00030F5EC5CFF4F0C94022280E191E00E942B
:1002E000101C089584E191E00E94101C089588E19B
:1002F00091E00E94101C08958CE191E00E94101C76
:10030000089580E291E00E94101C089584E291E03B
:100310000E94101C089588E291E00E94101C08952C
:10032000AF92BF92CF92DF92EF92FF920F931F9303
:10033000CF93DF93CDB7DEB7E0970FB6F894DEBF6B
:100340000FBECDBF8C0101960E94D2227C01282FC6
:10035000F80180818C3609F410C230F4833671F0D4
:10036000843609F473C06CC2863709F43EC28737FD
:1003700009F457C2833709F063C206C2C801039665
:100380000E94D2226C01FF24F7E0EF16F10408F07E
:1003900044C0F701E55CFF4F0C94022280933205C4
:1003A000682F84E190E00E94EC24B12C39C0809346
:1003B0003A05682F86E190E00E94EC24B12C30C011
:1003C00080933C05682F88E190E00E94EC24B12CDA
:1003D00027C080932B05682F8AE190E00E94EC24CF
:1003E000B12C1EC080933F05682F8CE190E00E94E5
:1003F000EC24B12C15C080933B05682F8EE190E072
:100400000E94EC24B12C0CC080933E05682F80E242
:1004100090E00E94EC24B12C03C06894BB24B1F896
:10042000DD24DF92CF92FF92EF922CE231E03F93F6
:100430002F931F930F930E946424C8010E94101CE5
:100440000FB6F894DEBF0FBECDBF2CC2FF2492E0E2
:10045000E916F10409F4A3C044F4E114F10491F0A5
:10046000EA94EF2809F45BC004C284E0E816F104C2
:1004700009F40DC10CF4C6C0E5E0EE16F10409F470
:1004800041C1F7C168E371E0C80103960E94DB2314
:100490000E94D2228C0168E371E080E090E00E942B
:1004A000DB230E94D2227C0168E371E080E090E0CF
:1004B0000E94DB230E94D222A82EB92E8BE391E06A
:1004C0000E94101C4A2D5B2D6E2D802F0E94680704
:1004D0000E946301BF92AF92970133273F932F93FE
:1004E000980133273F932F9322E431E03F932F93DA
:1004F000CE0101966C01DF928F930E946424C601A5
:100500000E94101C4A2D5B2D6E2D802F0E94FC072F
:100510000FB6F894DEBF0FBECDBFB12CC3C161E5ED
:1005200071E0C80103960E94DB230E94D2227C0165
:1005300061E571E080E090E00E94DB230E94D2221E
:100540006C0161E571E080E090E00E94DB230E9495
:10055000D2225C0199279F938F93C60199279F937D
:100560008F93C70199279F938F9385E591E09F9380
:100570008F938E010F5F1F4F1F930F930E94642470
:10058000C8010E94101C4A2D6C2D8E2D0E94470719
:100590000FB6F894DEBF0FBECDBFB12C83C1CE0124
:1005A00089960E94F1068BE691E00E94101C88A9B2
:1005B0000E9463018BA51F928F938AA51F928F9330
:1005C00089A51F928F938FA58F938EA58F938DA54D
:1005D0001F928F938CA51F928F9384E791E09F9336
:1005E0008F938E010F5F1F4F1F930F930E94642400
:1005F000C8010E94101C0FB6F894DEBF0FBECDBF1D
:10060000B12C50C10E9432087C0195958795959533
:1006100087959F938F9383E991E09F938F938E01AA
:100620000F5F1F4F1F930F930E946424C8010E9405
:10063000101C0F900F900F900F900F900F90C7010C
:10064000837099278130910581F01CF4892B39F052
:1006500014C18230910579F0039799F00EC18FE9AA
:1006600091E00E94101CB12C1DC186EA91E00E940D
:10067000101CB12C17C18DEA91E00E94101CB12C06
:1006800011C184EB91E00E94101CB12C0BC161E5FB
:1006900071E0C80103960E94DB230E94D2228C01E4
:1006A00061E571E080E090E00E94DB230E94D222AD
:1006B0007C01F7E1F01708F4E2C08BE38E1508F433
:1006C000E0C000932004E0921F040E942F05FF2445
:1006D000FF92EF9211271F930F938BEB91E09F9363
:1006E0008F938E010F5F1F4F1F930F930E946424FF
:1006F000C8010E94101C0FB6F894DEBF0FBECDBF1C
:10070000B12CD0C061E571E0C80103960E94DB23E3
:100710000E94D2228C0161E571E080E090E00E94AD
:10072000DB230E94D2227C01F7E1F01708F4ABC072
:100730008BE38E1508F4A9C000931E04E0921D04FB
:100740000E942F05FF24FF92EF9211271F930F9312
:1007500086EE91E09F938F938E010F5F1F4F1F9343
:100760000F930E946424C8010E94101C0FB6F894D5
:10077000DEBF0FBECDBFB12C95C0283008F087C0BA
:10078000E0921604B12C8EC0FF24F1E0EF16F104C4
:10079000F9F01CF4EF2851F07EC092E0E916F10464
:1007A000D9F0E3E0EE16F104D9F075C086EB93E0E2
:1007B0000E94101C8FE092E00E94101C81E292E0E7
:1007C0000E94101C80E592E00E94101CB12C6AC0AF
:1007D0000E94F605B12C66C00E94271AB12C62C097
:1007E00081E080933104B12C5DC0C701992781302D
:1007F000910561F08230910581F0892BA1F481E0AF
:100800008093330510923D05B12C10C081E0809398
:10081000330580933D05B12C09C010923305B12CEE
:1008200005C0B12C03C06894BB24B1F82330B8F5DF
:10083000E0921C046E2D82E190E00E94EC2432C014
:100840001F930F9382E792E09F938F938E010F5F28
:100850001F4F1F930F930E946424C8010E94101C15
:100860000F900F900F900F900F900F90BB24B394A8
:1008700019C06894BB24B1F815C0B12C13C0B12CB9
:1008800011C0B12C0FC0B12C0DC0B12C0BC068949D
:10089000BB24B1F807C06894BB24B1F803C06894C6
:1008A000BB24B1F88B2DE0960FB6F894DEBF0FBED7
:1008B000CDBFDF91CF911F910F91FF90EF90DF900F
:1008C000CF90BF90AF9008958091FE0381112CC00E
:1008D0000E941F1C882321F10E94281C90E00E9486
:1008E000C8239C0133272A30310521F02D303105F2
:1008F000B9F00CC081E08093FE03E091FF03F0E0CB
:10090000EB5CFB4F10821092FF030AC0E091FF03E3
:1009100091E09E0F9093FF03F0E0EB5CFB4F808330
:100920008091FE03882339F01092FE0385E394E062
:100930000E949001089580E0089588E090E00E9470
:10094000E4248F3F09F041C061E088E090E00E941C
:10095000EC2467E18AE090E00E94EC246EE18CE0F8
:1009600090E00E94EC2467E08EE090E00E94EC248E
:100970006EE180E190E00E94EC2462E082E190E090
:100980000E94EC2460E084E190E00E94EC246FEF90
:1009900086E190E00E94EC246FEF88E190E00E94F5
:1009A000EC246FEF8AE190E00E94EC246FEF8CE181
:1009B00090E00E94EC246FEF8EE190E00E94EC2426
:1009C0006FEF80E290E00E94EC2408958AE090E0CE
:1009D0000E94E424809320048CE090E00E94E424B0
:1009E00080931F048EE090E00E94E42480931E0414
:1009F00080E190E00E94E42480931D0482E190E075
:100A00000E94E42480931C0484E190E00E94E4248A
:100A10008093320586E190E00E94E42480933A05B9
:100A200088E190E00E94E42480933C058AE190E014
:100A30000E94E42480932B058CE190E00E94E42442
:100A400080933F058EE190E00E94E42480933B0573
:100A500080E290E00E94E42480933E050895609136
:100A600020048AE090E00E94EC2460911F048CE056
:100A700090E00E94EC2460911E048EE090E00E94C1
:100A8000EC2460911D0480E190E00E94EC246091D0
:100A90001C0482E190E00E94EC246091320584E124
:100AA00090E00E94EC2460913A0586E190E00E947B
:100AB000EC2460913C0588E190E00E94EC24609178
:100AC0002B058AE190E00E94EC2460913F058CE1C7
:100AD00090E00E94EC2460913B058EE190E00E9442
:100AE000EC2460913E0580E290E00E94EC240895A1
:100AF0008C3019F41092B90003C091E09093B900C2
:100B00008093B80008950F931F93CF93DF93082F1E
:100B1000ECEBF0E094EA90839081992374F010E07C
:100B2000CCEBD0E081E090E00E940A101F5F98813A
:100B3000992324F01330B1F701C010E09091B9006F
:100B4000987F983011F09031B1F41330B0F40093E5
:100B5000BB0084E88093BC00ECEBF0E0808188234C
:100B6000ECF79091B900987F983149F081E090348A
:100B700039F480E005C081E003C081E001C080E07D
:100B8000DF91CF911F910F91089584E98093BC006C
:100B9000ECEBF0E0808184FDFDCF08958093BB00F5
:100BA00084E88093BC00ECEBF0E080818823ECF7D4
:100BB0009091B900987F81E0983209F480E008951F
:100BC00084EC8093BC00ECEBF0E080818823ECF7B0
:100BD0008091BB00089584E88093BC00ECEBF0E0CA
:100BE00080818823ECF78091BB000895BF92CF925B
:100BF000DF92EF92FF920F931F93CF93DF93CDB7C6
:100C0000DEB7E7970FB6F894DEBF0FBECDBF85E025
:100C1000E1E9F2E0DE01D39601900D928A95E1F7C9
:100C20008FE792E00E94101C02E010E0B12C0F2E22
:100C3000FAE8CF2EF2E0DF2EF02DCE0101967C01F6
:100C4000802F0E948305811112C01F930F93DF92A2
:100C5000CF92FF92EF920E946424C7010E94101C61
:100C6000B3940F900F900F900F900F900F900E94E1
:100C7000C5050E5F1F4F011591E0190709F7B11067
:100C800004C0CE01C3960E94101C86EB93E00E9424
:100C9000101CE7960FB6F894DEBF0FBECDBFDF91F4
:100CA000CF911F910F91FF90EF90DF90CF90BF9069
:100CB0000895982F9695969596959E70292F220FB8
:100CC000220F920F8F70890F089586FF09C0982F09
:100CD0009F7085FF02C08AE001C080E0890F0895FF
:100CE000982F9F708073282F30E035952795359584
:100CF000279535952795822F880F880F280F822FEB
:100D0000890F0895982F92959F70990F292F220F80
:100D1000220F920F8F70890F08959DEC899F912D5E
:100D20001124969596959695292F220F322F330FE1
:100D3000330F230F821B20E1929F800D1124089511
:100D40000F931F93CF93DF93082FEB0180ED0E9449
:100D5000830511E0813009F010E0111115C0802FDA
:100D60000E94CE0511E0813009F010E011110CC095
:100D700081ED0E94830511E0813009F010E011112E
:100D800003C00E94EB0588830E94C505812FDF9177
:100D9000CF911F910F9108951F93CF93DF93182F39
:100DA000D62F80ED0E948305C1E0813009F0C0E0BC
:100DB000C11110C0812F0E94CE05C1E0813009F021
:100DC000C0E0C11107C08D2F0E94CE05C1E0813067
:100DD00009F0C0E00E94C5058C2FDF91CF911F91D3
:100DE00008951F93CF93DF93EC0180ED0E9483055C
:100DF00011E0813009F010E0111139C080E00E944B
:100E0000CE0511E0813009F010E0111130C081ED04
:100E10000E94830511E0813009F010E0111127C014
:100E20000E94E0050E9459068A830E94E0050E9404
:100E3000590689830E94E0050E94650688830E9406
:100E4000E0058F830E94E0050E9459068B830E9473
:100E5000E0050E9459068C830E94EB050E948206E1
:100E6000282F30E02053384F3E832D8309C01E8247
:100E70001D82188219821A8281E08C838B838F8372
:100E80000E94C505812FDF91CF911F910895CF93C7
:100E9000DF93C62FD42F8831C0F46C33B0F44C33B9
:100EA000A0F40E948D06682F82E00E94CC068C2F51
:100EB0000E948D06682F81E00E94CC068D2F0E9433
:100EC0008D06682F80E00E94CC06DF91CF910895B7
:100ED0008F929F92AF92BF92CF92DF92EF92FF924A
:100EE000CF93C82F6A01262F30E08EE090E0821B5E
:100EF000930B6CE070E00E94AD21E12CF12C80ECB2
:100F0000C80E82E1D81EE11CF11C4B01AA2497FCFB
:100F1000A094BA2CC818D908EA08FB08DB01AA0F6C
:100F2000BB1F6A0F7B1FDB01AA0FBB1FAA0FBB1FD2
:100F30002A0F3B1FD901139729E930E00E9417229D
:100F40006E5F7F4F8F4F9F4F25E030E040E050E0D5
:100F50000E94E32149015A018C0E911CA11CB11C75
:100F6000ADE6B1E0A70196010E941E22860E971EF3
:100F7000A81EB91ED701C601FF201CF40396A11DAF
:100F8000B11DB595A79597958795B595A795979513
:100F90008795880E991EAA1EBB1EC701B60124E6BE
:100FA00030E040E050E00E94E321821A930AA40A54
:100FB000B50AC701B60120E931E040E050E00E94E7
:100FC000E321820E931EA41EB51EC501B4016C520E
:100FD0007D478109910927E030E040E050E00E9420
:100FE000C121862FCF91FF90EF90DF90CF90BF90DF
:100FF000AF909F908F9008950F931F93CF93DF939F
:10100000182F062F9FEF980F9F3138F58FEF860F1F
:101010008C3018F5EA01C05DD740C83E83E0D807A0
:10102000E0F4812F0E946807682F83E00E94CC06BD
:101030008C2F0E948D06682F86E00E94CC06802FA0
:101040000E948D06682F85E00E94CC06812F0E94A9
:101050008D06682F84E00E94CC06DF91CF911F910E
:101060000F9108950F931F93CF93DF9300D0CDB7C7
:10107000DEB7BE016F5F7F4F81E10E94A00609814C
:1010800010E0000F111F000F111F811106C0BE01DB
:101090006E5F7F4F82E10E94A0069A81929596959D
:1010A000969593709801292B31FF04C03D7F3195AF
:1010B00021953109882319F080E090E002C0822F49
:1010C000932F0F900F90DF91CF911F910F91089563
:1010D000CF92DF92EF92FF92CF93DF93EC016456B1
:1010E0007109882777FD8095982F0E94431D6B0119
:1010F0007C0120E030E040E05FE30E94CF1D20E073
:1011000030E048E452E40E94A81C0E94101DC6175B
:10111000D707FCF020E030E040EC5FE3C701B60108
:101120000E94CF1D20E030E048E452E40E94A81C59
:1011300020E030E040E85FE30E94441C0E94101D64
:1011400031E020E06C177D070CF430E0832F922F04
:1011500002C080E090E081709927DF91CF91FF90ED
:10116000EF90DF90CF900895CF92DF92EF92FF92B1
:10117000CF93DF93EC016C597F4F882777FD8095E3
:10118000982F0E94431D6B017C0120E030E040E07D
:101190005FE30E94CF1D20E030E048E452E40E946B
:1011A000A81C0E94101DC617D707FCF020E030E0F5
:1011B00040EC5FE3C701B6010E94CF1D20E030E0A4
:1011C00048E452E40E94A81C20E030E040E85FE3DD
:1011D0000E94441C0E94101D31E020E06C177D0726
:1011E0000CF430E0832F922F02C080E090E08170F9
:1011F0009927DF91CF91FF90EF90DF90CF900895E6
:1012000082E08093490410924A04089583B183FBDD
:10121000222720F9EBE4F4E080819181019691830B
:10122000808380914A04853618F086E080934904D3
:1012300080914904843009F451C028F4823051F07F
:10124000833089F10895853009F46DC0863009F442
:1012500071C00895211174C080914B0490914C0489
:101260008039914028F410924C0410924B04089558
:1012700010921705EAE4F4E01082A08181E08A0F61
:101280008083B0E0EBE4F4E080819181AA0FBB1F82
:10129000A35BBB4F11969C938E931182108283E0C7
:1012A000809349040895213009F04AC0EAE4F4E04B
:1012B000A08181E08A0F8083B0E0EBE4F4E08081DC
:1012C0009181AA0FBB1FA35BBB4F11969C938E937A
:1012D0001182108284E0809349040895211118C07E
:1012E000EAE4F4E0A08181E08A0F8083B0E0EBE4DF
:1012F000F4E080819181AA0FBB1FA35BBB4F1196C5
:101300009C938E931182108283E080934904089508
:1013100080914B0490914C048139914088F085E094
:1013200080934904089521110BC010924C0410922F
:101330004B04089581E08093170585E0809349046C
:101340000895AF92BF92CF92DF92EF92FF920F93E8
:101350001F93CF93DF935C01FC018485853009F0F6
:1013600076C0C681D7818A819B8168E273E20E9440
:101370006808892B09F46DC0F5018085918584305A
:101380009105F1F48C819D816AEC78E00E94B408AB
:10139000892B09F460C08E819F8160E372E00E9416
:1013A0006808892B09F459C0F501158214828FEF62
:1013B0009FEFDC0180839183A283B38381E056C0D9
:1013C000843491050CF44BC08C819D8164E971E1FA
:1013D0000E94B408892B09F444C0269600E210E06C
:1013E000C12CD12C76018881998160E372E00E9442
:1013F0006808892BC1F18A819B816AE976E00E94A5
:10140000B408892B39F0CC0CDD1CEE1CFF1C689451
:10141000C0F80CC08A819B8160E372E00E94B4082E
:10142000892B19F1CC0CDD1CEE1CFF1C015011099D
:10143000249601151105B9F680E290E0F501958337
:101440008483C082D182E282F38281E00FC080E097
:101450000DC080E00BC080E009C080E007C080E0E4
:1014600005C080E003C080E001C080E0DF91CF9143
:101470001F910F91FF90EF90DF90CF90BF90AF90B2
:101480000895F89482E08093490410924A04789475
:101490000895CF93F8942DE434E0FC01378326833C
:1014A00020914A0430E0318720872091170530E0F1
:1014B0003387228720914904248778940E94A109C8
:1014C000C82F811102C00E94410A8C2FCF9108952C
:1014D0004F925F926F927F928F929F92AF92BF9244
:1014E000CF92DF92EF92FF920F931F93CF93DF93F0
:1014F000CDB7DEB764970FB6F894DEBF0FBECDBF91
:101500008091070490E08730910508F0D6C2FC0175
:10151000EE5BFF4F0C940222809104018F3021F486
:1015200081E080930704C9C2803121F482E0809376
:101530000704C3C2883048F410920D0410920C04C2
:1015400010920B0480930804B8C2883091F4109272
:101550000D0480910B04811106C010920C0481E0EF
:1015600080930B04AAC281E080930D0410920B04B7
:10157000A4C2893009F0A1C210920B0480910C041E
:10158000811106C010920D0481E080930C0495C275
:1015900081E080930D0410920C048FC280910401AD
:1015A0008130A1F41092060486E992E00E94E119CC
:1015B00010921C0444E550E066E070E080E090E0AA
:1015C0000E94441683E08093070477C28230A1F41E
:1015D0001092060486E992E00E94E11910921C0420
:1015E00044E450E066E070E080E090E00E94441641
:1015F00085E08093070461C28730A9F480913004AC
:10160000811108C081E08093300410922F04109261
:10161000090406C080912F04811102C01092300489
:10162000109207044AC2883009F51092060480918E
:101630002F0481110DC081E080932F04809130042C
:10164000882319F081E080930904109230040BC0C4
:1016500080910904882329F081E08093300410925E
:10166000090410922F041092070427C2893009F050
:1016700024C280913104813019F41092310403C0E6
:1016800081E0809331041092070417C28091040115
:1016900081110DC01092060480910E04811104C0C6
:1016A00081E080930E0427C010920E0424C0813084
:1016B00051F41092060480910A0481111CC081E04B
:1016C00080930A0418C010920604883041F08930D3
:1016D00051F0873051F481E080931C0406C082E011
:1016E00080931C0402C010921C0460911C0482E1CF
:1016F00090E00E94EC2410920704DFC18091040165
:101700008A3020F0803109F0D8C102C0803169F4FC
:101710001092070482E190E00E94E42480931C046C
:1017200086E992E00E949B19C8C1E0910604E1118C
:1017300003C0833040F0C1C1E23011F0E43019F44D
:10174000863008F0BAC1F0E0E050FC4F80831F9271
:101750008F938EE992E09F938F938E010F5F1F4FBF
:101760001F930F930E946424C8010E94101C609173
:10177000060470E0FB01E050FC4F808144E550E03E
:1017800090E00E944416809106048F5F80930604C7
:101790000F900F900F900F900F900F90863008F4DD
:1017A0008CC184E08093070488C1809104018E304D
:1017B00009F083C181EA92E00E94101C0F2EF5E02F
:1017C000AF2EF4E0BF2EF02DF50180811F928F9394
:1017D0000F2EF4E08F2EF4E09F2EF02DF401808187
:1017E0001F928F930F2EF3E0EF2EF4E0FF2EF02DDB
:1017F000F70180811F928F930F2EF2E0CF2EF4E03D
:10180000DF2EF02DF60180811F928F930F2EF1E0D5
:101810004F2EF4E05F2EF02DF20180811F928F9306
:101820000F2EF0E06F2EF4E07F2EF02DF30180817B
:101830001F928F9380EB92E09F938F938E010F5FA7
:101840001F4F1F930F930E946424C8010E94101C15
:10185000F4018081880F482F440F440F840FF50155
:101860009081890F482F50E0F6018081880F682F02
:10187000660F660F860FF7019081890F682F70E061
:10188000F3018081880F982F990F990F890FF2012A
:101890009081890F90E00E9447071092070482E12F
:1018A00090E00E94E42480931C0486E992E00E9468
:1018B0009B190FB6F894DEBF0FBECDBFFEC080915E
:1018C00004018A3020F0803109F0F7C002C0803175
:1018D00069F41092070482E190E00E94E42480936E
:1018E0001C0486E992E00E949B19E7C0E09106047F
:1018F000E11103C0843080F0E0C0E13041F4909108
:101900000004933049F4823008F0D7C005C0E230BB
:1019100019F4823008F0D1C0F0E0E050FC4F808331
:101920001F928F938EE992E09F938F938E010F5FAA
:101930001F4F1F930F930E946424C8010E94101C24
:101940006091060470E0FB01E050FC4F808144E4AC
:1019500050E090E00E944416809106048F5F8093CF
:1019600006040F900F900F900F900F900F908630FD
:1019700008F4A3C086E0809307049FC0809104010F
:101980008E3009F09AC080EC92E00E94101C0F2E5D
:10199000F4E08F2EF4E09F2EF02DF401208130E052
:1019A000C901880F991F220F331F220F331F220FE7
:1019B000331F820F931F8053984F0F2EF5E0AF2EE9
:1019C000F4E0BF2EF02DF5012081820F911D9F9331
:1019D0008F930F2EF3E0EF2EF4E0FF2EF02DF701A2
:1019E00080811F928F930F2EF2E0CF2EF4E0DF2E36
:1019F000F02DF60180811F928F930F2EF1E04F2E74
:101A0000F4E05F2EF02DF20180811F928F930F2E54
:101A1000F0E06F2EF4E07F2EF02DF30180811F9215
:101A20008F938FEC92E09F938F938E010F5F1F4FE8
:101A30001F930F930E946424C8010E94101CF4019C
:101A4000808190E0AC01440F551F880F991F880FCB
:101A5000991F880F991F480F591F4053584FF50180
:101A60008081480F511DF6018081880F682F660F15
:101A7000660F860FF7019081890F682F70E0F301E0
:101A80008081880F982F990F990F890FF20190810B
:101A9000890F90E00E94FC071092070482E190E019
:101AA0000E94E42480931C0486E992E00E949B1922
:101AB0000FB6F894DEBF0FBECDBF64960FB6F89494
:101AC000DEBF0FBECDBFDF91CF911F910F91FF9071
:101AD000EF90DF90CF90BF90AF909F908F907F90CE
:101AE0006F905F904F9008950F931F93CF93DF9364
:101AF000CDB7DEB764970FB6F894DEBF0FBECDBF8B
:101B000088E195E00E94490A882309F4FEC080918B
:101B1000180590911905A0911A05B0911B058D3AF1
:101B200022E592072FEFA207B10509F49CC008F047
:101B30003FC08D3D22E292072FEFA207B10509F4C5
:101B400082C0B8F48F3E20E192072FEFA207B105C3
:101B500009F4A8C0873E28E192072FEFA207B1053C
:101B600009F498C08D3F9240AF4FB10509F0AAC06B
:101B700072C0873C28E392072FEFA207B10509F452
:101B800095C038F48F3C9043AF4FB10509F47EC047
:101B900099C08D3B22E492072FEFA207B10509F40B
:101BA0005EC0853B9A44AF4FB10509F460C08AC05E
:101BB000873628E992072FEFA207B10509F45EC026
:101BC000F0F48D3922E692072FEFA207B10599F1C3
:101BD00038F4853A9A45AF4FB10509F46BC072C02D
:101BE000873928E692072FEFA207B10509F442C012
:101BF00085389A47AF4FB10509F450C063C08F34A0
:101C000020EB92072FEFA207B105E1F130F4873501
:101C1000984AAF4FB10599F055C08D3322EC920729
:101C20002FEFA207B10599F08F3F9F4FAF4FBF4FE6
:101C300009F444C047C08AE08093040146C08DE0A7
:101C40008093040142C08BE0809304013EC08CE08D
:101C5000809304013AC08EE08093040136C08FE087
:101C60008093040132C080E1809304012EC0109261
:101C700004012BC081E08093040127C082E080939F
:101C8000040123C083E0809304011FC084E080939B
:101C900004011BC085E08093040117C086E0809397
:101CA000040113C087E0809304010FC088E0809393
:101CB00004010BC089E08093040107C081E1809397
:101CC000040103C082E180930401E0910401F0E08B
:101CD000EB51FD4F80811F928F938DED92E09F938A
:101CE0008F938E010F5F1F4F1F930F930E946424E9
:101CF000C8010E94101C0E94680A0E94410A0F90AD
:101D00000F900F900F900F900F9064960FB6F8946D
:101D1000DEBF0FBECDBFDF91CF911F910F91089510
:101D2000CF92DF92EF92FF920F931F93CF93DF93A7
:101D3000CDB7DEB72A970FB6F894DEBF0FBECDBF82
:101D40008AE0E6E0F1E0DE01119601900D928A95BD
:101D5000E1F78091180490911904A0911A04B091B0
:101D60001B04AC01BD014427552766276C017D018A
:101D70002FE0C222DD24EE24FF240B2EB4E1CC0C94
:101D8000DD1CEE1CFF1CBA95D1F7B02D8C019D0116
:101D9000007F1127222733270F2EFCE0000F111F91
:101DA000221F331FFA95D1F7F02D0C291D292E295A
:101DB0003F29042B152B262B372BAC01BD014427C3
:101DC0005F7066277727440F551F661F771F440FE4
:101DD000551F661F771F440F551F661F771F440F3F
:101DE000551F661F771F042B152B262B372BAC0195
:101DF000BD014427507F66277727689413F87695AE
:101E00006795579547951694D1F7042B152B262BDC
:101E1000372BAC01BD01442755276F707727032E60
:101E20003CE076956795579547953A95D1F7302DD3
:101E3000042B152B262B372BAC01BD01442755272E
:101E4000607F7727032E34E1769567955795479500
:101E50003A95D1F7302D042B152B262B372B40919B
:101E6000170450910501552309F47BC0892F509127
:101E70001C04513039F018F05230C1F030C01092CB
:101E8000130439C081110FC080911304FE01E80FC3
:101E9000F11D9181192B8F5F8A3008F494C089E07D
:101EA0008093130492C0109213048FC050911204B7
:101EB000851791F0112750911304FE01E50FF11DD4
:101EC0006181162B5F5F5A3008F481C059E050934E
:101ED0001304809312047DC0109213047AC0D901B8
:101EE000C80188279927BB276A2F513039F018F08D
:101EF0005230B9F519C01092110433C0611111C0EC
:101F000080911104FE01E80FF11D9181292B8F5F53
:101F10008A3018F48093110424C089E0809311045E
:101F200020C0109211041DC0509110046517B9F023
:101F300050911104FE01E50FF11D21816C017D011D
:101F4000E22A970186015F5F5A3018F4509311041A
:101F500008C089E0809311046093100402C01092BD
:101F6000110498E080E85BB15F735BB9582F54238C
:101F7000581302C05D9A01C05D9886955F9A5F987C
:101F8000915089F7E0E280E090E0A0E0B0E84BB14A
:101F90004F734BB9AC01BD0140235123622373231E
:101FA000481759076A077B0711F45D9A01C05D98CD
:101FB000B695A795979587955F9A5F98E15039F701
:101FC0005E9A5E980DC080931304622F97CF509352
:101FD0001304D901C80188279927BB276A2FA4CFEA
:101FE0002A960FB6F894DEBF0FBECDBFDF91CF911A
:101FF0001F910F91FF90EF90DF90CF900895F8948C
:1020000060912A0470912B0480912C0490912D04EE
:10201000789408958F929F92AF92BF92CF92DF9261
:10202000EF92FF926C010E94FF0F4B015C01E12CCB
:10203000F12C0E94FF0FAB01BC01481959096A0934
:102040007B094C155D056E057F0598F3FF90EF90B9
:10205000DF90CF90BF90AF909F908F9008951F9288
:102060000F920FB60F9211242F933F934F935F93CC
:102070006F937F938F939F93AF93BF93EF93FF9350
:102080002D9A80912E048F5F80932E048431B8F0B6
:102090000E94511880912A0490912B04A0912C0445
:1020A000B0912D040196A11DB11D80932A04909337
:1020B0002B04A0932C04B0932D0410922E040E94A4
:1020C00006092D98FF91EF91BF91AF919F918F914C
:1020D0007F916F915F914F913F912F910F900FBE24
:1020E0000F901F90189528E090E8392F382371F051
:1020F000289A00000000000000000000000000001E
:102100000000000000000000289807C0289A000086
:10211000000000000000000028989695215029F743
:102120000895CF92DF92EF92FF920F931F93CF9378
:10213000DF93F894CCE2D5E00F2EF4E3EF2EF5E038
:10214000FF2EF02D05E215E00F2EF2E3CF2EF5E085
:10215000DF2EF02D89910E947310F70181917F018C
:102160000E947310F80181918F010E947310CC15A9
:10217000DD0581F77894DF91CF911F910F91FF904A
:10218000EF90DF90CF900895CF93DF93ECE2F5E0EE
:10219000C4E3D5E0A5E2B5E022E335E0619389939D
:1021A0004D93E217F307D1F70E949110DF91CF9181
:1021B0000895BF92CF92DF92EF92FF920F931F93F9
:1021C000CF93DF93CDB7DEB76C970FB6F894DEBF31
:1021D0000FBECDBF7A8F8B8FF22EE32ED42EC52E5D
:1021E0004A8D5B8D633009F067C08FE10E946807FC
:1021F00025E2829F212D1124982F921B9695920FF4
:1022000096959695B92EBB0CBB0CBB0CB91AB81A97
:102210008B2D0F2EFFE1BF2EF02DB80E1F92BF9217
:1022200089EF92E09F938F938E010F5F1F4F1F9353
:102230000F930E946424C8010E94101C0F900F90FD
:102240000F900F900F900F9080911504813009F13D
:1022500018F0823051F1A3C0BC1009C082E0F8121E
:1022600011C0E1109CC081E08093150498C0CB148C
:1022700018F41092210493C0BC1420F481E08093E0
:1022800021048DC081E08F1508F489C010922104CB
:1022900086C04D2D60E083E00E94470782E0809376
:1022A000150481E0809321047AC0E1101092150496
:1022B00081E08093210473C06A3009F067C08FE128
:1022C0000E94680725E2829F212D1124982F921BDE
:1022D0009695920F96959695B92EBB0CBB0CBB0CA0
:1022E000B91AB81A8B2D0F2EFFE1BF2EF02DB80EA4
:1022F0001F92BF9284E093E09F938F938E010F5FB4
:102300001F4F1F930F930E946424C8010E94101C4A
:102310000F900F900F900F900F900F9080911404DA
:10232000813009F118F0823049F139C0BC1009C080
:1023300083E0F81211C0E11032C081E080931404F0
:102340002EC0BC1418F41092210429C0CB1420F420
:1023500081E08093210423C082E08F1500F181E0A9
:10236000809321041CC04D2D60E082E00E9447074D
:1023700082E0809314041092210411C083E08F1531
:1023800010F4109214041092210409C063506830B4
:1023900018F01092210403C081E0809321046C9610
:1023A0000FB6F894DEBF0FBECDBFDF91CF911F9166
:1023B0000F91FF90EF90DF90CF90BF9008959DEC2C
:1023C000899F912D1124969596959695292F220FE8
:1023D000322F330F330F230F9295907F821B8F7014
:1023E000892B08950F931F9381111CC040E060E07A
:1023F0000E94C41088B1807F88B9809118049091A0
:102400001904A0911A04B0911B04BB278A6A9A6A26
:10241000AA6A8093180490931904A0931A04B093A5
:102420001B042BC026E030E08901081B1109C801FC
:10243000880F880F4AE050E060E070E08A019B015D
:1024400004C0000F111F221F331F8A95D2F7D90134
:10245000C801409118045091190460911A047091B8
:102460001B04842B952BA62BB72B809318049093D9
:102470001904A0931A04B0931B041F910F9108959F
:1024800088B1807F88B980910F0490E08A309105EF
:1024900008F0ACC0FC01E75BFF4F0C94022280E027
:1024A00090E0A0E0B1E08093180490931904A09309
:1024B0001A04B0931B0481E080930F04089581E116
:1024C00091E1A1E1B2E08093180490931904A093E4
:1024D0001A04B0931B0482E080930F04089582E2F3
:1024E00092E2A2E2B0E48093180490931904A093BE
:1024F0001A04B0931B0488B18C6088B983E0809380
:102500000F04089583E393E3A3E3B4E080931804F6
:1025100090931904A0931A04B0931B0484E0809351
:102520000F04089584E494E4A4E4B8E080931804CC
:1025300090931904A0931A04B0931B0485E0809330
:102540000F04089585E595E5A5E5B0E880931804A6
:1025500090931904A0931A04B0931B0488B1896066
:1025600088B986E080930F04089586E696E6A6E68D
:10257000B0E18093180490931904A0931A04B093C7
:102580001B0487E080930F04089587E797E7A7E788
:10259000B0E28093180490931904A0931A04B093A6
:1025A0001B0488E080930F04089588E898E8A8E861
:1025B000BFEF8093180490931904A0931A04B0936A
:1025C0001B0488B18A6088B989E080930F0408955C
:1025D00089E999E9A9E9BFEF809318049093190458
:1025E000A0931A04B0931B0410920F04089566235D
:1025F00031F00E94C2226CE370E00E94AD2190E0B5
:102600008C33910578F5FC01ED5AFF4F0C940222B2
:102610004FEF6FEF8FEF0E94C410089540E060E02D
:102620008FEF0E94C410089540E06FEF80E00E9499
:10263000C41008954FEF60E080E00E94C410089538
:1026400040E06FEF8FEF0E94C41008954FEF60E0FD
:102650008FEF0E94C41008954FEF6FEF80E00E944B
:10266000C410089540E060E080E00E94C410089526
:10267000CF93DF93CDB7DEB728970FB6F894DEBFC0
:102680000FBECDBF80911E04821720F490912004CC
:10269000291788F0821304C080911D04381768F44C
:1026A0008091200482130BC081E090911F043917A0
:1026B00038F480E005C080E003C080E001C081E024
:1026C00028960FB6F894DEBF0FBECDBFDF91CF9135
:1026D0000895BF92CF92DF92EF92FF920F931F93D4
:1026E000CF93DF93CDB7DEB7E0970FB6F894DEBF98
:1026F0000FBECDBF109218041092190410921A0444
:1027000010921B0410921704CE0101960E94F1064C
:102710001092050180910C04882329F061E08B81DF
:102720000E94F71247C080910B04882329F060E0D3
:102730008B810E94F7123EC080910D0481113AC036
:102740008091080490E088309105A0F5FC01E157E4
:10275000FF4F0C94022240E060E080E00E94C41031
:1027600029C040E060E08FEF0E94C41023C040E029
:102770006FEF80E00E94C4101DC04FEF60E080E06A
:102780000E94C41017C040E06FEF8FEF0E94C4108A
:1027900011C04FEF60E08FEF0E94C4100BC04FEFED
:1027A0006FEF80E00E94C41005C04FEF6FEF8FEF16
:1027B0000E94C41080913104882319F00E944012B5
:1027C00053C280913305882341F080913D058823D1
:1027D00011F0299A49C2299847C229813A814B812F
:1027E0005C816D817E818F8198850E94381388235A
:1027F00011F0299839C2299A8B8190E0FC013F970A
:10280000E532F10508F0C1C1E956FF4F0C940222F0
:1028100029813A814B815C816D817E818F81988590
:102820000E94D9108C810E94DF11182F8D810E9487
:10283000DF11412F50E060E070E0032E3CE0440FD8
:10284000551F661F771F3A95D1F7302D482B440F3F
:10285000551F661F771F440F551F661F771F440FB4
:10286000551F661F771F440F551F661F771F409324
:1028700018045093190460931A0470931B0483E0A6
:102880000E94F21186E00E94F21180910D048823CB
:1028900009F4EAC140E06FEF80E00E94C410E4C197
:1028A00088B1807F88B9EE80FF80970136952795A3
:1028B00036952795ABE7B4E10E9408228C01169566
:1028C0000795802F0E94DF11182F8E2D94E6099F07
:1028D000801911240E94DF11412F50E060E070E068
:1028E000762F652F542F4427482B440F551F661F02
:1028F000771F440F551F661F771F440F551F661F14
:10290000771F440F551F661F771F4093180450937D
:10291000190460931A0470931B0481E00E94F21161
:1029200086E00E94F21180910D04882309F49CC175
:1029300040E06FEF80E00E94C41096C1C090220476
:10294000D0902304E0902404F090250420E030E0AF
:1029500040E251E4C701B6010E94CF1D0E94151D3F
:10296000162F862F0E94DF11082F612F70E080E064
:1029700090E00E94431D9B01AC01C701B6010E947B
:10298000431C20E030E040E251E40E94CF1D0E9451
:10299000151D462F50E060E070E07064802F90E0DD
:1029A000A0E0B0E0880F991FAA1FBB1F880F991FD6
:1029B000AA1FBB1F880F991FAA1FBB1F880F991F33
:1029C000AA1FBB1F482B592B6A2B7B2B4093180443
:1029D0005093190460931A0470931B0488B1807F8C
:1029E00088B9429A439A81E00E94F21182E00E94E3
:1029F000F21183E00E94F2118FE093E00E94101C1C
:102A00001F921F9389ED92E09F938F937E0189E03F
:102A1000E80EF11CFF92EF920E946424C7010E940D
:102A2000101C0F900F900F900F900F900F901A3076
:102A300018F484E00E94F21180910D04882309F4B7
:102A400013C140E060E08FEF0E94C4100DC1C09040
:102A50002604D0902704E0902804F090290420E078
:102A600030E048EC52E4C701B6010E94A81C0E9465
:102A7000151D162F862F0E94DF11082F94E6199F2F
:102A8000B0011124882777FD8095982F0E94431D5F
:102A90009B01AC01C701B6010E94431C0E94151D99
:102AA000862F0E94DF11B82EC701B6010E94101DAB
:102AB000882777FD8095982F0E94431D9B01AC01CC
:102AC000C701B6010E94431C20E030E040E251E41F
:102AD0000E94CF1D0E94151D462F50E060E070E05F
:102AE00070648B2D90E0A0E0B0E0902B880F991FD0
:102AF000AA1FBB1F880F991FAA1FBB1F880F991FF2
:102B0000AA1FBB1F880F991FAA1FBB1F482B592B39
:102B10006A2B7B2B409318045093190460931A047A
:102B200070931B0488B1807F88B9419A439A81E0F1
:102B30000E94F21180E293E00E94101C1F921F93EA
:102B400089ED92E09F938F937E0189E0E80EF11C5E
:102B5000FF92EF920E946424C7010E94101C0F9004
:102B60000F900F900F900F900F901A3018F482E092
:102B70000E94F21180910D04882309F475C04FEF73
:102B800060E08FEF0E94C4106FC081E08093050168
:102B900029813A814B815C816D817E818F8198850D
:102BA0000E94D91089810E94DF11C82E8A810E945B
:102BB000DF11D12CE12CF12CFE2CED2CDC2CCC24C3
:102BC000C82A8B810E94DF11FE2CED2CDC2CCC243A
:102BD000C82AC0921804D0921904E0921A04F09204
:102BE0001B0488B1807F88B980910D04882329F067
:102BF00040E06FEF8FEF0E94C4108B8180FF12C006
:102C00008091180490911904A0911A04B0911B04AA
:102C1000B4608093180490931904A0931A04B0939D
:102C20001B0411C08091180490911904A0911A04FA
:102C3000B0911B04B0688093180490931904A0937A
:102C40001A04B0931B048A8180FF04C082E0809341
:102C5000170403C082E08093170480912104882325
:102C600019F08AE080931704E0960FB6F894DEBF5F
:102C70000FBECDBFDF91CF911F910F91FF90EF90CD
:102C8000DF90CF90BF9008950F931F93CF93582F4D
:102C9000C42F062F10E00730110508F0F9C0F80125
:102CA000E454FF4F0C94022280911804909119046F
:102CB000A0911A04B0911B04852B80931804909363
:102CC0001904A0931A04B0931B0481E00E94F2112E
:102CD00082E00E94F21183E00E94F21184E00E94DF
:102CE000F21185E00E94F211D3C0809118049091F6
:102CF0001904A0911A04B0911B04880F991FAA1FF0
:102D0000BB1F880F991FAA1FBB1F880F991FAA1FDF
:102D1000BB1F880F991FAA1FBB1F852B8093180408
:102D200090931904A0931A04B0931B0481E00E94AD
:102D3000F21182E00E94F21183E00E94F21184E01D
:102D40000E94F211A5C08091180490911904A091DD
:102D50001A04B0911B04880F991FAA1FBB1F880F6C
:102D6000991FAA1FBB1F880F991FAA1FBB1F880F7F
:102D7000991FAA1FBB1F852B8093180490931904D9
:102D8000A0931A04B0931B0481E00E94F21182E028
:102D90000E94F21183E00E94F2117AC0809118041F
:102DA00090911904A0911A04B0911B04880F991FE7
:102DB000AA1FBB1F880F991FAA1FBB1F880F991F2F
:102DC000AA1FBB1F880F991FAA1FBB1F852B8093AB
:102DD000180490931904A0931A04B0931B0481E083
:102DE0000E94F21182E00E94F21152C080911804F8
:102DF00090911904A0911A04B0911B04880F991F97
:102E0000AA1FBB1F880F991FAA1FBB1F880F991FDE
:102E1000AA1FBB1F880F991FAA1FBB1F852B80935A
:102E2000180490931904A0931A04B0931B0481E032
:102E30000E94F2112DC08091180490911904A09164
:102E40001A04B0911B04880F991FAA1FBB1F880F7B
:102E5000991FAA1FBB1F880F991FAA1FBB1F880F8E
:102E6000991FAA1FBB1F852B8093180490931904E8
:102E7000A0931A04B0931B040BC010921804109274
:102E8000190410921A0410921B0488B1807F88B92B
:102E900010921704C435D1F480911804909119044C
:102EA000A0911A04B0911B04B06880931804909309
:102EB0001904A0931A04B0931B0482E080931704B2
:102EC00040E06FEF8FEF0E94C4101BC0C434C9F400
:102ED0008091180490911904A0911A04B0911B04D8
:102EE000B0688093180490931904A0931A04B093C7
:102EF0001B0482E08093170440E06FEF80E00E94A3
:102F0000C410CF911F910F910895E0EBF0E0808104
:102F10008260808382E08093B10083E68093B30077
:102F20001092B200E0E7F0E0808182608083089533
:102F300023982B9884B1836284B985B18C7D85B93F
:102F400087B18F6087B988B1807F88B98AB1806E78
:102F50008AB98BB18F718BB90895CF93DF93CDB7B9
:102F6000DEB764970FB6F894DEBF0FBECDBF0E94E8
:102F700085170E9400098CE00E9478050E9498172E
:102F80008BE390E00E94C72289E190E00E944E1BF3
:102F900028EE33E040E050E066E972E089E693E134
:102FA0000E94221922E330E044E650E065E373E03A
:102FB00080E99EE00E94221924EF31E046E950E0CA
:102FC0006CE373E084E79DE00E94221978940E94EC
:102FD0009D040E94E60482E290E00E94E42491E0D5
:102FE000811101C090E09093210484E493E00E9459
:102FF000101C8FE693E00E94101C80911D041F920C
:103000008F9380911E041F928F9380911F041F92B3
:103010008F93809120041F928F938EE793E09F936C
:103020008F938E010F5F1F4F1F930F930E94642495
:10303000C8010E94101C40E060E080E00E94C410C3
:103040000FB6F894DEBF0FBECDBF0F2EF5E3CF2E27
:10305000F4E0DF2EF02D0F2EF5EAEF2EF3E0FF2E39
:10306000F02D0E949C180E946404813019F0823077
:1030700031F0F7CF86E993E00E94101CF2CFDF9287
:10308000CF92FF92EF921F930F930E946424C80186
:103090000E94101C0F900F900F900F900F900F90A8
:1030A000E0CF8091400590914105892B09F443C000
:1030B00080E090E050E049E1489FF001499FF00D29
:1030C0001124E05CFA4F208931892115310561F026
:1030D000489FF001499FF00D1124E05CFA4F215008
:1030E0003109318B208B19C0489FF001499FF00DA9
:1030F0001124E05CFA4F2289338921503109338B46
:10310000228B232B51F4489FF001499FF00D11248D
:10311000E05CFA4F84898160848B5F5F852F90E04B
:10312000489FF001499FF00D1124E05CFA4F208187
:103130003181232B09F60895AF92BF92CF92DF928F
:10314000EF92FF920F931F93CF93DF9380914005EF
:1031500090914105892B09F46AC0C0E0D0E010E0ED
:1031600009E10C9FF0010D9FF00D1124E05CFA4F76
:1031700084898370833009F04BC00E94FF0F6B017C
:103180007C010C9FC0010D9F900D11249C01205CBF
:103190003A4F5901D901ED91FC910995F5018489C6
:1031A0008E7F848B86859785938B828B0E94FF0F01
:1031B0006C157D058E059F0550F4DC01CB018C1943
:1031C0009D09AE09BF090197A109B10906C0DC013B
:1031D000CB018C199D09AE09BF090C9FF0010D9F11
:1031E000F00D1124E05CFA4F968B858BC788D08C4C
:1031F000E12CF12CC816D906EA06FB0648F40C9F10
:10320000F0010D9FF00D1124E05CFA4F908F878B39
:103210001F5FC12FD0E00C9FF0010D9FF00D112416
:10322000E05CFA4F80819181892B09F09ACFDF9180
:10323000CF911F910F91FF90EF90DF90CF90BF90B3
:10324000AF9008954F925F926F927F929F92AF924C
:10325000BF92CF92DF92EF92FF920F931F93CF9383
:10326000DF936C018B017A019090320488E089151C
:1032700098F080914E0590914F05892B79F0A12C03
:1032800049E1A3944A9DF0011124E05CFA4F868540
:103290009785892BB1F703C086E03DC0A12CA8EE2D
:1032A000B3E00E9408220F2EF8EE4F2EF3E05F2EBF
:1032B000612C712CF02DA30192010E94E32189E180
:1032C000A89E50011124E501C05CDA4FD982C88262
:1032D0003F872E873B8B2A8B9701A8EEB3E00E9495
:1032E0000822A30192010E94E321398B288B8C894B
:1032F0008E7F82608C8B1E8A1D8A188E1F8A4CE0FE
:1033000050E0B801C5018E5B9A4F0E94E923939467
:103310009092320480E0DF91CF911F910F91FF9046
:10332000EF90DF90CF90BF90AF909F907F906F9085
:103330005F904F900895EF92FF920F931F93CF935A
:10334000DF938C0180914E0590914F05892B79F187
:10335000C0E0D0E0F12C0F2EF9E1EF2EF02DEC9E25
:10336000C001ED9E900D1124B8018E5B9A4F0E9412
:10337000E023892B69F489E18C9FF0018D9FF00D8A
:103380001124E05CFA4F84898260848B80E012C053
:10339000F394CF2DD0E0EC9EF001ED9EF00D1124C2
:1033A000E05CFA4F26853785232BC9F602C085E0FD
:1033B00001C084E0DF91CF911F910F91FF90EF90BA
:1033C0000895EF92FF920F931F93CF93DF938C0199
:1033D00080914E0590914F05892B79F1C0E0D0E0A6
:1033E000F12C0F2EF9E1EF2EF02DEC9EC001ED9E99
:1033F000900D1124B8018E5B9A4F0E94E023892B17
:1034000069F489E18C9FF0018D9FF00D1124E05C3F
:10341000FA4F84898D7F848B80E012C0F394CF2D86
:10342000D0E0EC9EF001ED9EF00D1124E05CFA4F2F
:1034300026853785232BC9F602C085E001C084E0CC
:10344000DF91CF911F910F91FF90EF900895CF9250
:10345000DF92EF92FF920F931F93CF93DF93CDB73D
:10346000DEB7C655D1090FB6F894DEBF0FBECDBF8B
:1034700084E2E8EDF3E0DE01D39601900D928A95A7
:10348000E1F7CE01C3960E94101C20914E053091A9
:103490004F052115310509F447C080E090E0D12C9B
:1034A0000F2EF9E1CF2EF02D0F2EF8EBEF2EF3E0DB
:1034B000FF2EF02D8E010F5F1F4FC89EA001C99EE9
:1034C000500D1124FA01E05CFA4F808D8F938789AB
:1034D0008F9386898F9385898F9384891F928F9389
:1034E0003F932F93CA018E5B9A4F9F938F93FF92C6
:1034F000EF921F930F930E946424C8010E94101C36
:10350000D3948D2D90E0C89EF001C99EF00D11243A
:10351000E05CFA4F268537850FB6F894DEBF0FBE04
:10352000CDBF2115310549F6CA5ADF4F0FB6F894C1
:10353000DEBF0FBECDBFDF91CF911F910F91FF90E6
:10354000EF90DF90CF9008951F920F920FB60F92D9
:1035500011242F933F934F935F938F939F93AF9338
:10356000BF93EF93FF939091500680914F06981769
:10357000E1F0E0E5F6E08081A0915206B0915306BB
:10358000A80FB11D5C914081242F30E0809151063D
:1035900090E001972817390711F04F5F01C040E014
:1035A000409350065093C60005C0E1ECF0E08081E6
:1035B0008F7D8083FF91EF91BF91AF919F918F910C
:1035C0005F914F913F912F910F900FBE0F901F90E1
:1035D00018951F920F920FB60F9211242F933F93BD
:1035E0004F935F938F939F93AF93BF93EF93FF930B
:1035F000CF93DF931F92CDB7DEB750914B0640912A
:103600004A06242F30E080914C0690E0019728175D
:10361000390711F04F5F01C040E05417F1F080917D
:10362000C600EAE4F6E09081A0914D06B0914E0606
:10363000A90FB11D8C934081242F30E080914C065E
:1036400090E001972817390711F04F5F01C040E063
:1036500040934A061092490606C08091C6008983AD
:1036600081E080934906809133049091340401965F
:1036700090933404809333040F90DF91CF91FF91A6
:10368000EF91BF91AF919F918F915F914F913F913A
:103690002F910F900FBE0F901F901895CF93DF932F
:1036A000CDB7DEB769970FB6F894DEBF0FBECDBFBA
:1036B0009093C5008093C40088E98093C100E0EC3A
:1036C000F0E080818D7F808386E08093C2001D8A38
:1036D0001E8A8EE18F8B81E296E0998F888F85E03C
:1036E000FE017596DE011B9601900D928A95E1F719
:1036F00085E0FE013B96DE01509601900D928A9581
:10370000E1F785E0FE017096AFE4B6E001900D921E
:103710008A95E1F71D8A1E8A8AE08F8B8FE396E0F7
:10372000998F888F85E0FE017596DE0111960190D4
:103730000D928A95E1F785E0FE013196DE0116963D
:1037400001900D928A95E1F785E0FE013696AAE494
:10375000B6E001900D928A95E1F769960FB6F8945C
:10376000DEBF0FBECDBFDF91CF910895CF92DF9224
:10377000EF92FF920F931F93CF93DF93D82E0F2ECC
:10378000F0E5EF2EF6E0FF2EF02D0FE416E0C1E598
:10379000D6E0C12C04C081E090E00E940A10F7013D
:1037A0009081F8018081482F50E0288130E021503D
:1037B00031094217530711F08F5F01C08C2D981704
:1037C00051F3F8949091500680914F06981305C0DC
:1037D000E1ECF0E0808180628083EFE4F6E08081BC
:1037E000A0915206B0915306A80FB11DDC92408102
:1037F000242F30E08091510690E001972817390777
:1038000011F04F5F01C040E040934F067894DF9184
:10381000CF911F910F91FF90EF90DF90CF9008957F
:10382000CF93DF93EC018881882331F021960E94A9
:10383000B61B89918111FBCFDF91CF910895209123
:103840004B0690914A0681E0291301C080E008955B
:10385000EBE4F6E08081A0914D06B0914E06A80FF2
:10386000B11D8C919081492F50E020914C0630E0A1
:10387000215031094217530711F09F5F01C090E0BA
:1038800090934B0608955058BB27AA270ED04DC1E0
:103890003ED130F043D120F031F49F3F11F41EF4BB
:1038A00033C10EF4E095E7FB29C1E92F4FD180F336
:1038B000BA17620773078407950718F071F49EF52D
:1038C00067C10EF4E0950B2EBA2FA02D0B01B901A4
:1038D00090010C01CA01A0011124FF27591B99F086
:1038E000593F50F4503E68F11A16F040A22F232F92
:1038F000342F4427585FF3CF469537952795A795E2
:10390000F0405395C9F77EF41F16BA0B620B730B88
:10391000840BBAF09150A1F0FF0FBB1F661F771FF9
:10392000881FC2F70EC0BA0F621F731F841F48F4AE
:10393000879577956795B795F7959E3F08F0B3CF34
:103940009395880F08F09927EE0F9795879508951E
:103950000CD0EBC0E3D040F0DAD030F021F45F3F80
:1039600019F0CCC0511115C1CFC0F0D098F39923F4
:10397000C9F35523B1F3951B550BBB27AA27621733
:103980007307840738F09F5F5F4F220F331F441F78
:10399000AA1FA9F333D00E2E3AF0E0E830D09150B0
:1039A0005040E695001CCAF729D0FE2F27D0660F9D
:1039B000771F881FBB1F261737074807AB07B0E8DC
:1039C00009F0BB0B802DBF01FF2793585F4F2AF0F2
:1039D0009E3F510568F092C0DCC05F3FECF3983E1B
:1039E000DCF3869577956795B795F7959F5FC9F74F
:1039F000880F911D9695879597F90895E1E0660FD8
:103A0000771F881FBB1F621773078407BA0720F050
:103A1000621B730B840BBA0BEE1F88F7E0950895B9
:103A200004D06894B111B5C0089598D088F09F571C
:103A300090F0B92F9927B751A0F0D1F0660F771FFA
:103A4000881F991F1AF0BA95C9F712C0B13081F0DA
:103A50009FD0B1E008959CC0672F782F8827B85F6A
:103A600039F0B93FCCF3869577956795B395D9F73B
:103A70003EF490958095709561957F4F8F4F9F4F45
:103A80000895E89409C097FB3EF490958095709551
:103A900061957F4F8F4F9F4F9923A9F0F92F96E99A
:103AA000BB279395F695879577956795B795F1110F
:103AB000F8CFFAF4BB0F11F460FF1BC06F5F7F4FAC
:103AC0008F4F9F4F16C0882311F096E911C07723BE
:103AD00021F09EE8872F762F05C0662371F096E8C7
:103AE000862F70E060E02AF09A95660F771F881F96
:103AF000DAF7880F9695879597F9089597F99F6754
:103B000080E870E060E008959FEF80EC0895002465
:103B10000A941616170618060906089500240A9432
:103B200012161306140605060895092E0394000CB8
:103B300011F4882352F0BB0F40F4BF2B11F460FF47
:103B400004C06F5F7F4F8F4F9F4F089557FD905870
:103B5000440F551F59F05F3F71F04795880F97FB51
:103B6000991F61F09F3F79F087950895121613060B
:103B70001406551FF2CF4695F1DF08C0161617063A
:103B80001806991FF1CF869571056105089408956F
:103B9000E894BB2766277727CB0197F908950BD0C8
:103BA000C4CFB5DF28F0BADF18F0952309F0A6CF0F
:103BB000ABCF1124EECFCADFA0F3959FD1F3950FC1
:103BC00050E0551F629FF001729FBB27F00DB11DA1
:103BD000639FAA27F00DB11DAA1F649F6627B00D31
:103BE000A11D661F829F2227B00DA11D621F739F1A
:103BF000B00DA11D621F839FA00D611D221F749F28
:103C00003327A00D611D231F849F600D211D822F6E
:103C1000762F6A2F11249F5750408AF0E1F08823B5
:103C20004AF0EE0FFF1FBB1F661F771F881F9150C2
:103C30005040A9F79E3F510570F060CFAACF5F3F7B
:103C4000ECF3983EDCF3869577956795B795F795F5
:103C5000E7959F5FC1F7FE2B880F911D969587957D
:103C600097F90895A3E1B0E0E8E3FEE10C9429227E
:103C70007C011B016A01FC0117821682838181FF8E
:103C800066C3BE016F5F7F4F4B01F7019381F10166
:103C900093FD859193FF81911F01882309F453C3FC
:103CA000853239F493FD859193FF81911F0185320F
:103CB00039F4B70190E00E94322456016501E5CF46
:103CC00010E0512C20E02032A0F48B3269F030F467
:103CD000803259F0833269F420612CC08D3239F082
:103CE000803339F4216026C02260246023C028601C
:103CF00021C027FD27C030ED380F3A3078F426FF79
:103D000006C0FAE01F9F300D1124132F13C06AE084
:103D1000569E300D1124532E20620CC08E3221F499
:103D200026FD11C3206406C08C3611F4206802C041
:103D3000883641F4F10193FD859193FF81911F0134
:103D40008111C1CF9BEB980F933018F42061805EF6
:103D500006C09BE9980F933008F0AAC12F7E26FF7A
:103D600016E02F73722E853621F4F22FF0647F2E29
:103D700008C0863621F4622F6068762E02C01111C9
:103D8000115077FE07C01C3348F444244394410E7D
:103D900027E00BC0183030F4212F06C027E04CE399
:103DA000442E03C027E017E0412C560174E0A70E13
:103DB000B11CF6016081718182819381042DA4017F
:103DC0000E94F0226C01098100FF02C003FF06C0BF
:103DD00071FC07C072FC08C0612C08C03DE2632E74
:103DE00005C02BE2622E02C090E2692E802F8C70FB
:103DF00099F1662011F084E001C083E0851510F090
:103E0000512C0BC0581A73FC08C0B70180E290E037
:103E10000E9432245A94C9F7F3CF662029F0B701E3
:103E2000862D90E00E94322403FD03C00AE811E0D1
:103E300002C006E811E0F72DF0717F2EF8018491A1
:103E4000882309F476C271108052B70190E00E9475
:103E500032240F5F1F4FF2CF77FE0FC04C0C04FFD0
:103E600004C08A81813309F44A94141474F5F8E08B
:103E7000F41578F588E0482E2CC076FC2AC0812FF6
:103E800090E08C159D059CF06CEFC6166FEFD60682
:103E900074F0772D7068772E0AC0E2E0F0E0EC0F46
:103EA000FD1FE10FF11D8081803319F411501111B4
:103EB000F4CF77FE0EC044244394410E812F90E04E
:103EC000C816D9062CF41C1904C04424439401C01C
:103ED00010E077FE07C01C141D043CF496012F5F10
:103EE0003F4F05C025E030E002C021E030E0662011
:103EF00011F02F5F3F4F112331F0412F50E04F5F02
:103F00005F4F240F351F452D50E02417350714F45B
:103F1000521A01C0512C872D897049F4552039F06F
:103F2000B70180E290E00E9432245A94F7CF6620D5
:103F300029F0B701862D90E00E94322473FC09C05D
:103F4000552039F0B70180E390E00E9432245A9462
:103F5000F7CF77FE5FC09C2D8D2DD7FE02C090E07D
:103F600080E0692E782E40E050E0C6018419910966
:103F70009D878C87960126193709280D391D812FB9
:103F800090E0EE27FF27E81BF90BFF87EE87FFEF96
:103F90006F167F0669F4B7018EE290E02B8B3A8BA7
:103FA000488B598B0E943224598948893A892B8938
:103FB000C614D70454F06C857D85661577052CF4FE
:103FC000F901E40FF51F818101C080E371E0671AF8
:103FD00071084F5F5F4FEE85FF856E167F066CF0B0
:103FE000B70190E02B8B3A8B488B598B0E9432247F
:103FF0002B893A8948895989CACF6C147D0439F4D0
:104000009A81963318F4953311F404FF81E3B701D4
:1040100090E04BC08A81813309F00F7EB70190E0B8
:104020000E943224111105C074FE18C085E490E08E
:1040300017C0B7018EE290E00E94322482E066242D
:104040006394680EF401E80FF11D8081B70190E0E0
:104050000E943224115041F3862DF1CF85E690E085
:10406000B7010E943224D7FC05C0C114D10439F431
:1040700004FF05C0D194C194D1088DE201C08BE248
:10408000B70190E00E94322480E36AE0C616D104B2
:104090002CF08F5FFAE0CF1AD108F7CFB70190E08C
:1040A0000E943224B701C601C0960E94322441C149
:1040B000833631F0833779F0833509F058C021C059
:1040C000560172E0A70EB11CF6018081898301E0E0
:1040D00010E0640114C05601F2E0AF0EB11CF6010D
:1040E000C080D18026FF03C0612F70E002C06FEF57
:1040F0007FEFC6012B8B0E94F8238C012B892F7731
:1041000015C05601F2E0AF0EB11CF601C080D1809F
:1041100026FF03C0612F70E002C06FEF7FEFC60182
:104120002B8B0E94D0238C012B892068722E23FDBB
:104130001AC0852D90E008171907A8F4B70180E28E
:1041400090E00E9432245A94F4CFF60177FC8591D6
:1041500077FE81916F01B70190E00E9432245110E7
:104160005A94015011090115110579F7E2C08436FE
:1041700011F0893651F5560127FF09C0F4E0AF0E62
:10418000B11CF60160817181828193810AC0F2E0E5
:10419000AF0EB11CF60160817181882777FD809593
:1041A000982F022F0F7697FF08C0909580957095F5
:1041B00061957F4F8F4F9F4F00682AE030E0A40148
:1041C0000E948624C82EC8183EC0022F853721F4CD
:1041D0000F7E2AE030E01DC0097F8F3691F018F481
:1041E000883559F0B0C0803719F0883711F0ABC06E
:1041F000006104FF09C0046007C024FF08C0066016
:1042000006C028E030E005C020E130E002C020E137
:1042100032E0560107FF09C0F4E0AF0EB11CF60111
:10422000608171818281938108C0F2E0AF0EB11C80
:10423000F6016081718180E090E0A4010E948624F3
:10424000C82EC8180F7706FF0BC0202F2E7FC1166F
:1042500050F404FF0AC002FD08C0202F2E7E05C0C6
:10426000DC2C202F03C0DC2C01C0D12E24FF0DC07C
:10427000FE01EC0DF11D8081803311F4297E09C00F
:1042800022FF06C0D394D39404C0822F867809F00D
:10429000D39423FD13C020FF06C01C2DD51418F4A1
:1042A000150D1D19D52CD51468F4B70180E290E0E6
:1042B0002B8B0E943224D3942B89F5CFD51410F484
:1042C0005D1801C0512C24FF12C0B70180E390E0BB
:1042D0002B8B0E9432242B8922FF17C021FF03C0A1
:1042E00088E590E002C088E790E0B7010CC0822F1B
:1042F000867859F021FD02C080E201C08BE227FDE3
:104300008DE2B70190E00E943224C11638F4B70163
:1043100080E390E00E9432241150F7CFCA94F40158
:10432000EC0DF11D8081B70190E00E943224C11094
:10433000F5CF552009F4C2CCB70180E290E00E948D
:1043400032245A94F6CFF7018681978102C08FEF0D
:104350009FEF6396E2E10C94452297FB072E16F43B
:10436000009407D077FD09D00E94602207FC05D099
:104370003EF4909581959F4F0895709561957F4F7C
:104380000895A1E21A2EAA1BBB1BFD010DC0AA1F96
:10439000BB1FEE1FFF1FA217B307E407F50720F0AE
:1043A000A21BB30BE40BF50B661F771F881F991F29
:1043B0001A9469F760957095809590959B01AC0172
:1043C000BD01CF010895052E97FB1EF400940E94B5
:1043D000FA2157FD07D00E94C12107FC03D04EF4FB
:1043E0000C94FA2150954095309521953F4F4F4FB1
:1043F0005F4F089590958095709561957F4F8F4F91
:104400009F4F0895EE0FFF1F0590F491E02D099442
:10441000A29FB001B39FC001A39F700D811D112405
:10442000911DB29F700D811D1124911D08950E9450
:104430000822B7FF0895821B930B08950E9408225B
:10444000A59F900DB49F900DA49F800D911D1124E8
:1044500008952F923F924F925F926F927F928F9228
:104460009F92AF92BF92CF92DF92EF92FF920F9303
:104470001F93CF93DF93CDB7DEB7CA1BDB0B0FB60D
:10448000F894DEBF0FBECDBF09942A8839884888CA
:104490005F846E847D848C849B84AA84B984C88460
:1044A000DF80EE80FD800C811B81AA81B981CE0F57
:1044B000D11D0FB6F894DEBF0FBECDBFED0108953C
:1044C000AA1BBB1B51E107C0AA1FBB1FA617B7073A
:1044D00010F0A61BB70B881F991F5A95A9F7809556
:1044E0009095BC01CD0108958F929F92AF92BF929B
:1044F000CF92DF92EF92FF92CF93DF93EC0168812E
:1045000079818A819B81611571058105910521F46D
:1045100064E279ED8BE597E02DE133EF41E050E087
:104520000E94E32149015A019B01AC01A7EAB1E4D1
:104530000E941E226B017C01ACEEB4EFA501940138
:104540000E94FD24C60ED71EE81EF91EF7FE06C007
:1045500081E0C81AD108E10880E8F80AC882D98247
:10456000EA82FB82C6019F77DF91CF91FF90EF90A7
:10457000DF90CF90BF90AF909F908F9008950E9452
:104580007422089580E091E00E9474220895A0E0D2
:10459000B0E08093000190930101A0930201B093D9
:1045A00003010895FC0188279927E894219120327E
:1045B000E9F3293010F02E30C8F32B3241F02D32C0
:1045C00039F4689404C00E942A24820F911D21911D
:1045D00020532A30C0F31EF4909581959F4F089583
:1045E000283008F027E03327DA01990F311D87FDC5
:1045F000916000966105710539F432602E5F3D933C
:1046000030E32A95E1F708959F3F30F08038710537
:10461000610509F03C5F3C5F3D93913008F0806894
:10462000911DDF93CF931F930F93FF92EF92192F5A
:10463000987F9695E92F96959695E90FFF27E85173
:10464000FE4F99273327EE24FF24A701E7010590A9
:104650000894079428F4360FE71EF81E491F511DD1
:10466000660F771F881F991F0694A1F7059007947E
:1046700028F4E70EF81E491F561FC11D770F881F2B
:10468000991F661F0694A1F70590079428F4F80E69
:10469000491F561FC71FD11D880F991F661F771FFF
:1046A0000694A1F70590079420F4490F561FC71FE1
:1046B000D81F990F661F771F881F0694A9F784914A
:1046C0001095177041F0D695C79557954795F79473
:1046D000E7941A95C1F7EEE8F1E06894159015910A
:1046E00035916591959105907FE27395E118F10AF6
:1046F000430B560BC90BD009C0F7E10CF11E431F49
:10470000561FC91FD01D7EF4703311F48A95E6CF71
:10471000E894015030F0080F0AF40027021708F45B
:10472000202F2395022F7A3328F079E37D932A9561
:10473000E9F710C07D932A9589F6069497956795B9
:10474000379517951794E118F10A430B560BC90BCF
:10475000D00998F023957E9173957A3308F070E331
:104760007C932013B8F77E9170617D9330F0839530
:1047700071E37D9370E32A95E1F71124EF90FF90A8
:104780000F911F91CF91DF91992787FD9095089503
:104790009111089581548A5108F4805E855A0895D4
:1047A000FC010590615070400110D8F780959095FC
:1047B0008E0F9F1F08954CEF53E00E94032408952D
:1047C000FB01DC018D91019080190110D9F3990B47
:1047D0000895FB01DC014150504048F001900D92DA
:1047E0000020C9F701C01D9241505040E0F70895E4
:1047F000FC016150704001900110D8F780959095B0
:104800008E0F9F1F0895FA01A191B081009719F4AE
:104810001097E1F0CD01DC01CD010D90002011F4E5
:10482000C00113C0FB012191222319F02015D9F7F3
:10483000F3CFFB012191201519F41E92119606C0A9
:104840002223C1F70D900020A1F7D001FA01A19316
:10485000B08308957AE0979F902D879F802D910DCA
:10486000112408950F931F93CF93DF93182F092FCF
:10487000EB018B8181FD03C08FEF9FEF20C082FF92
:1048800010C04E815F812C813D81421753077CF41B
:10489000E881F9819F012F5F3F4F3983288310837F
:1048A00006C0E885F985812F0995892B29F72E8186
:1048B0003F812F5F3F4F3F832E83812F902FDF91CA
:1048C000CF911F910F910895AEE0B0E0EAE6F4E2D7
:1048D0000C9437220D891E8986E08C831A83098304
:1048E0008FEF9FE79E838D83AE01475E5F4F6F8999
:1048F000788DCE0101960E94321EEF81F885E00F7F
:10490000F11F10822E96E4E00C945322FA01AA279C
:10491000283051F1203181F1E8946F936E7F6E5F02
:104920007F4F8F4F9F4FAF4FB1E03ED0B4E03CD0B0
:10493000670F781F891F9A1FA11D680F791F8A1F93
:10494000911DA11D6A0F711D811D911DA11D20D0FA
:1049500009F468943F912AE0269F11243019305DB4
:104960003193DEF6CF010895462F4770405D4193A5
:10497000B3E00FD0C9F7F6CF462F4F70405D4A33F2
:1049800018F0495D31FD4052419302D0A9F7EACFBA
:10499000B4E0A6959795879577956795BA95C9F7E9
:1049A00000976105710508959B01AC010A2E0694DC
:1049B0005795479537952795BA95C9F7620F731F95
:1049C000841F951FA01D0895F999FECF92BD81BD4A
:1049D000F89A992780B50895262FF999FECF1FBA26
:1049E00092BD81BD20BD0FB6F894FA9AF99A0FBE18
:1049F00001960895B7FF0C941E220E941E22821B6E
:084A0000930B0895F894FFCF19
:104A08000100000012010B16212C37424D5863009B
:104A18004D6F6E00547565005765640054687500E5
:104A2800467269005361740053756E00636F6C5B66
:104A380025645D3D25640A003A2D00446174653A99
:104A4800200020253032642D253032642D25640A5B
:104A5800003A2D2E0054696D653A20253032643AAB
:104A6800253032643A253032640A004453333233F5
:104A7800313A200020253032642D253032642D252E
:104A8800642C20253032643A253032643A2530329D
:104A9800640A004453333233313A2025642E0030FF
:104AA8003020B0430A00323520B0430A00353020A8
:104AB800B0430A00373520B0430A0053746172745A
:104AC8002D54696D6520666F7220626C616E6B692A
:104AD8006E67204E69786965733A20253032643AEA
:104AE800253032640A00456E642D54696D65206670
:104AF8006F7220626C616E6B696E67204E697869AF
:104B080065733A20253032643A253032640A004E03
:104B18006978696520626F6172642076302E320A86
:104B2800004D616E756661637475726564206279A3
:104B380020582D4C656E7420456C656374726F6ED9
:104B480069637320616E642076644C6F67740A0031
:104B5800436F707972696768742070726F746563E7
:104B6800746564206279204475746368206C617789
:104B78000A004552522E434D445B25735D0A004995
:104B880032432D7363616E3A2000307825307820E7
:104B9800006E6F6E6500446973706C6179002564FE
:104BA800005365742D54696D6520455845433A0096
:104BB800256425643A256425643A256425640A0039
:104BC8005365742D4461746520455845433A002562
:104BD8006425642D256425642D25640A0069725BAB
:104BE80025635D0A0030313233343536373839556C
:104BF8004C52444F4148583F006C73756E30333DFA
:104C080025640A006C73756E31303D25640A0042D4
:104C18006C616E6B5F7A65726F2054656D702000F1
:104C2800426C616E6B5F7A65726F20507265737348
:104C380075726520005570646174650049525F7231
:104C4800656376004E6978696520626F61726420D9
:104C580076302E33302C20456D696C652C204D61E3
:104C68007274696A6E2C20526F6E616C640A00421D
:104C78006C616E6B696E672066726F6D20002530FF
:104C880032643A2530326420746F20253032643A19
:104C9800253032640A00436F6D6D616E6420457281
:104CA800726F720A004E756D626572204572726F7E
:104CB8007220282573290A00252D313173202535C6
:104CC8006420307825303278202020253033642045
:104CD8002020253033640A005461736B2D4E616DBA
:104CE8006520202054286D73292053746174205442
:0C4CF800286D7329204D286D73290A00D7
:00000001FF
