:100000000C94E2000C94FF000C94FF000C94FF0091
:100010000C94FF000C94FF000C94FF000C9413163A
:100020000C94FF000C94FF000C94FF000C94FF0054
:100030000C94FF000C94FF000C94FF000C94FF0044
:100040000C94FF000C94FF000C94A31F0C94621FEF
:100050000C94FF000C94FF000C94FF000C94FF0024
:100060000C94FF000C94FF0008000000BE9224498D
:10007000123EABAAAA2ABECDCCCC4C3E00000080DA
:10008000BEABAAAAAA3E00000000BF000000803F4D
:100090000000000000084178D3BB4387D1133D190D
:1000A0000E3CC3BD4282AD2B3E68EC8276BED98F3A
:1000B000E1A93E4C80EFFFBE01C4FF7F3F0000007E
:1000C00000006E616E00696E660000407A10F35A9F
:1000D00000A0724E18090010A5D4E80000E8764888
:1000E000170000E40B54020000CA9A3B000000E134
:1000F000F505000080969800000040420F000000C7
:10010000A08601000000102700000000E8030000A6
:1001100000006400000000000A0000000000010070
:10012000000000002C76D888DC674F0823DFC1DF91
:10013000AE59E1B1B796E5E3E453C63AE651997694
:1001400096E8E6C28426EB898C9B62ED407C6FFCCE
:10015000EFBC9C9F40F2BAA56FA5F490055A2AF710
:100160005C936B6CF9676DC11BFCE0E40D47FEF519
:1001700020E6B500D0ED902E030094357705008081
:10018000841E080000204E0A000000C80C333333E0
:10019000330F986E12831141EF8D2114893BE65580
:1001A00016CFFEE6DB18D1844B381BF77C1D901D63
:1001B000A4BBE424203284725E228100C9F124ECC5
:1001C000A1E53D2711241FBECFEFD8E0DEBFCDBF94
:1001D00013E0A0E0B1E0E4EBF3E502C005900D927E
:1001E000A63AB107D9F716E0A6EAB3E001C01D921E
:1001F000A334B107E1F70E94BC1A0C94D8290C94DF
:100200000000EF92FF921F93CF93DF93C82F7B01E3
:100210008EEE0E94CE0B11E0813009F010E0112328
:1002200019F58C2F0E94440C11E0813009F010E088
:100230001123D1F48FEE0E94380C11E0813009F0C7
:1002400010E0112389F40E94560CD82F80E0C82FAB
:10025000F701D183C0830E94610C90E0C82BD92B99
:10026000F701D183C08303C0F701118210820E947D
:100270003B0C812FDF91CF911F91FF90EF9008955C
:10028000EF92FF921F93CF93DF93C82F7B018EEEE7
:100290000E94CE0B11E0813009F010E0112319F516
:1002A0008C2F0E94440C11E0813009F010E01123E2
:1002B000D1F48FEE0E94380C11E0813009F010E08B
:1002C000112389F40E94560CD82F80E0C82FF70123
:1002D000D183C0830E94610C90E0C82BD92BF70119
:1002E000D183C08303C0F701118210820E943B0CAE
:1002F000812FDF91CF911F91FF90EF9008958F9202
:100300009F92AF92BF92CF92DF92EF92FF920F93A4
:100310001F93CF93DF938AEA65EE73E00E94010199
:10032000882309F0D0C18CEA6DE174E00E940101DC
:10033000882309F0CAC18EEA6FE174E00E940101CE
:10034000882309F0C4C180EB65E174E00E9440019C
:10035000882309F0BEC182EB69EF73E00E9440017F
:10036000882309F0B8C184EB67EE73E00E94400176
:10037000882309F0B2C186EB6EE274E00E940101AD
:10038000882309F0ACC188EB6BEF73E00E94010198
:10039000882309F0A6C18AEB67E174E00E9401019D
:1003A000882309F0A0C18CEB60E374E00E94010196
:1003B000882309F09AC18EEB6FED73E00E94010172
:1003C000882309F094C160911F047091200488274C
:1003D00077FD8095982F0E94FD2120E030E040EAD3
:1003E0005BE30E94CE22062F172FD82EC92E862F10
:1003F000912FAD2DBC2D8093290490932A04A093B6
:100400002B04B0932C04609115047091160480E0C5
:1004100090E00E94FB212FE632E143E053E30E948B
:10042000CE22C62FD72FF82EE92E862F9D2FAF2D47
:10043000BE2D8093ED039093EE03A093EF03B09352
:10044000F00380912E0490912F04AA2797FDA09588
:10045000BA2FBC01CD010E94FD2120E030E048EC24
:1004600057E30E94CE22B62EA72E982E892E862FD5
:100470009A2DA92DB82D8093F5039093F603A093A0
:10048000F703B093F8038091F9039091FA03A0E089
:10049000B0E0BC01CD010E94FB212DEC3CEC4CE412
:1004A00054E30E94CE22DC01CB018093110490938F
:1004B0001204A0931304B09314048091E703909165
:1004C000E803A0E0B0E0BC01CD010E94FB21DC010B
:1004D000CB018093E1039093E203A093E303B093F5
:1004E000E4038091300490913104AA2797FDA095F0
:1004F000BA2FBC01CD010E94FD212AE037ED43EA6D
:100500005DE30E94CE22DC01CB018093190490931D
:100510001A04A0931B04B0931C048091DF039091F4
:10052000E003AA2797FDA095BA2FBC01CD010E9438
:10053000FD2120E030E040E253E40E946221DC0132
:10054000CB0180930D0490930E04A0930F04B093FD
:1005500010048091E5039091E603AA2797FDA095EA
:10056000BA2FBC01CD010E94FD21DC01CB0180939B
:10057000010490930204A0930304B09304048091B7
:100580001D0490911E04AA2797FDA095BA2FBC01C7
:10059000CD010E94FD2120E030E040EA5CE30E94B2
:1005A000CE22DC01CB018093250490932604A093F6
:1005B0002704B09328048091FB039091FC03AA27A1
:1005C00097FDA095BA2FBC01CD010E94FD2120E02E
:1005D00030E048E45AE30E94CE22DC01CB01809354
:1005E000FD039093FE03A093FF03B09300048C2FB0
:1005F0009D2FAF2DBE2DBC01CD0120E030E040E0AD
:1006000057E40E94CE22DC01CB0180930504909335
:100610000604A0930704B0930804802F912FAD2DFA
:10062000BC2DBC01CD010C2F1D2F2F2D3E2DA9015E
:1006300098010E94CE22DC01CB018093F1039093BC
:10064000F203A093F303B093F4038C2F9D2FAF2DEF
:10065000BE2DBC01CD010B2D1A2D292D382DA90140
:1006600098010E94CE22DC01CB018093210490935B
:100670002204A0932304B09324048CEE91E5A7E117
:10068000B0E48093DB039093DC03A093DD03B0938D
:10069000DE0380E394E3AEE7BFE380930904909325
:1006A0000A04A0930B04B0930C0480E097E5A4E93E
:1006B000B6E38093E9039093EA03A093EB03B0932E
:1006C000EC0380E015C081E013C081E011C081E03F
:1006D0000FC081E00DC081E00BC081E009C081E066
:1006E00007C081E005C081E003C081E001C081E076
:1006F000DF91CF911F910F91FF90EF90DF90CF90FE
:10070000BF90AF909F908F900895CF92DF92EF921D
:10071000FF920F931F93CF93DF93C82F7B01C42EBB
:100720008EEE0E94CE0B01E0813009F000E0002344
:1007300069F58C2F0E94440C01E0813009F000E043
:10074000002321F58FEE0E94380C01E0813009F082
:1007500000E00023D9F4DD240894C108D1081C145A
:100760001D045CF40E94560CF701808311E0812F78
:1007700090E08C159D05B4F003C0002339F410E01F
:10078000E701C10FD11D0E94610C88830E943B0CC0
:10079000802FDF91CF911F910F91FF90EF90DF900D
:1007A000CF900895E701C10FD11D0E94560C888398
:1007B0001F5FDDCFCF938EEE0E94CE0BC1E0813064
:1007C00009F0C0E0CC2381F484EF0E94440CC1E026
:1007D000813009F0C0E0CC2339F48EE20E94440C51
:1007E000C1E0813009F0C0E00E943B0C8C2FCF911A
:1007F0000895AF92BF92CF92DF92EF92FF920F9344
:100800001F93CF93DF9300D0CDB7DEB75C011A8280
:10081000198286EFBE016F5F7F4F0E944001182F43
:10082000882309F049C069817A8180E090E00E94C4
:10083000FB212091E1033091E2034091E3035091C9
:10084000E4030E94FD202091110430911204409194
:100850001304509114040E94CE22C62E072FF82EA6
:10086000E92E862F902FAF2DBE2DBC01CD012091FA
:100870000D0430910E0440910F04509110040E9419
:10088000FE209B01AC016091190470911A048091C3
:100890001B0490911C040E9462212E2DD02EEF2C5F
:1008A000F22EA70196010E94FE20DC01CB01F5018A
:1008B00080839183A283B383812F0F900F90DF9168
:1008C000CF911F910F91FF90EF90DF90CF90BF904D
:1008D000AF900895CF93DF93823031F0833031F0C1
:1008E000813031F0D4E305C0D4EB03C0D4EF01C0B4
:1008F000D4E78EEE0E94CE0BC1E0813009F0C0E05B
:10090000CC2381F484EF0E94440CC1E0813009F0D3
:10091000C0E0CC2339F48D2F0E94440CC1E081301B
:1009200009F0C0E00E943B0C8C2FDF91CF9108951D
:100930002F923F924F925F926F927F929F92AF92CF
:10094000BF92CF92DF92EF92FF920F931F93CF93BC
:10095000DF93CDB7DEB727970FB6F894DEBF0FBE93
:10096000CDBF1C016A017B0186EFBE016F5F7F4F27
:1009700043E00E948503B82E882309F015C1C70102
:10098000B60120E030E048EC51E40E94FD20F62E54
:10099000E72ED82EC92E382F862F9E2DAD2DBC2D9B
:1009A000BC01CD010F2D1E2D232F3B2FA901980136
:1009B0000E94CE22062F172FA82E992E698170E053
:1009C00080E090E00E94FD2120E030E040E853E428
:1009D0000E94CE222B013C016A8170E080E090E011
:1009E0000E94FD219B01AC01C301B2010E94FE20C7
:1009F0002B013C016B8170E080E090E00E94FD21C2
:100A000020E030E040E85BE30E94CE229B01AC0195
:100A1000C301B2010E94FE206C837D838E839F837D
:100A2000802F912FAA2DB92DBC01CD012091FD035E
:100A30003091FE034091FF03509100040E94CE22AA
:100A40002B013C018F2D9E2DAD2DBC2DBC01CD0168
:100A500020912504309126044091270450912804C8
:100A60000E94CE229B01AC01C301B2010E94FE2074
:100A70002091010430910204409103045091040438
:100A80000E94FE209B01AC016C817D818E819F8143
:100A90000E94FD206C837D838E839F83802F912F06
:100AA000AA2DB92DBC01CD01209121043091220441
:100AB00040912304509124040E94CE222B013C013A
:100AC0008F2D9E2DAD2DBC2DBC01CD012091F103AC
:100AD0003091F2034091F3035091F4030E94CE222F
:100AE0009B01AC01C301B2010E94FE2020910504CC
:100AF0003091060440910704509108040E94FE20A2
:100B00009B01AC016C817D818E819F810E9462215D
:100B1000F62EE72ED82EC92E382F862F9E2DAD2DDE
:100B2000BC2DBC01CD010F2D1E2D232F3B2FA90164
:100B300098010E94CE22462F572F682F792FCB0184
:100B4000BA012091E9033091EA034091EB035091FF
:100B5000EC030E94CE222B013C01802F912FAD2D62
:100B6000BC2DBC01CD012091090430910A044091B3
:100B70000B0450910C040E94CE229B01AC01C301D6
:100B8000B2010E94FE202091DB033091DC034091F2
:100B9000DD035091DE030E94FE20DC01CB01F10158
:100BA00080839183A283B3838B2D27960FB6F8940D
:100BB000DEBF0FBECDBFDF91CF911F910F91FF9090
:100BC000EF90DF90CF90BF90AF909F907F906F900D
:100BD0005F904F903F902F9008958430F9F08530CA
:100BE00038F4823089F08330A0F4813051F507C0A9
:100BF0008630F1F08630B8F0873019F51EC080E0FD
:100C000091E00E94CA20089584E091E00E94CA20E9
:100C1000089588E091E00E94CA2008958CE091E058
:100C20000E94CA20089580E191E00E94CA200895A0
:100C300084E191E00E94CA20089588E191E00E9439
:100C4000CA200895CF92DF92EF92FF920F931F93E5
:100C5000CF93DF93CDB7DEB7E0970FB6F894DEBF42
:100C60000FBECDBF7C0101960E94B627082FD70189
:100C70008C91853609F47BC2863630F4833659F080
:100C8000843609F0AAC282C0833709F47EC287374E
:100C900009F0A3C297C2C70103960E94B627D82EB7
:100CA000033051F1043028F40130A1F00230D8F4BF
:100CB00008C0053099F1053040F1063009F040C018
:100CC00036C08093280584E190E06D2D0E94CA29EA
:100CD00010E037C080932A0586E190E06D2D0E94D8
:100CE000CA2910E02EC080932C0588E190E06D2D7C
:100CF0000E94CA2910E025C0809327058AE190E070
:100D00006D2D0E94CA2910E01CC080932E058CE135
:100D100090E06D2D0E94CA2910E013C080932B052E
:100D20008EE190E06D2D0E94CA2910E00AC08093E8
:100D30002D0580E290E06D2D0E94CA2910E001C0CF
:100D400012E0EDB7FEB738970FB6F894FEBF0FBEAE
:100D5000EDBF3196ADB7BEB71296FC92EE921197E9
:100D60008CE191E09383828304831582D68217827B
:100D70000E944229EDB7FEB738960FB6F894FEBF31
:100D80000FBEEDBFC7010E94CA205CC2023009F449
:100D9000B8C0033030F4002371F0013009F041C2D3
:100DA00064C0043009F44DC1043008F4EFC00530CC
:100DB00009F037C291C108E211E0C7010396B801FA
:100DC0000E94BF280E94B627F82E80E090E0B8016C
:100DD0000E94BF280E94B627C82E80E090E0B8018C
:100DE0000E94BF280E94B627E82ED92E8BE291E000
:100DF0000E94CA208F2D6C2D4E2D5D2D0E94DD0D81
:100E00000E94ED058DB79EB70A970FB6F8949EBF66
:100E10000FBE8DBFEDB7FEB731968E010F5F1F4F2E
:100E2000ADB7BEB712961C930E93119782E391E073
:100E300093838283F4821582C6821782E086D186EC
:100E40000E944229EDB7FEB73A960FB6F894FEBF5E
:100E50000FBEEDBFC8010E94CA208F2D6C2D4E2DF4
:100E60005D2D0E947B0E10E0EDC101E411E0C70191
:100E70000396B8010E94BF280E94B627E82E80E0A2
:100E800090E0B8010E94BF280E94B627D82E80E0CB
:100E900090E0B8010E94BF280E94B627F82E8DB7B7
:100EA0009EB70A970FB6F8949EBF0FBE8DBFEDB7E1
:100EB000FEB731968E010F5F1F4FADB7BEB71296CA
:100EC0001C930E93119785E491E093838283E482CF
:100ED0001582D6821782F08611860E944229EDB7CC
:100EE000FEB73A960FB6F894FEBF0FBEEDBFC8012D
:100EF0000E94CA208E2D6D2D4F2D0E94BC0D10E03A
:100F0000A1C1CE0189960E94670D8BE591E00E94F8
:100F1000CA2088A90E94ED058DB79EB740970FB6ED
:100F2000F8949EBF0FBE8DBFEDB7FEB731968E0110
:100F30000F5F1F4FADB7BEB712961C930E9311975C
:100F400084E691E0938382838CA5848315828DA5AA
:100F5000868317828EA59FA59187808789A5828722
:100F600013868AA5848715868BA5868717860E9497
:100F70004229EDB7FEB770960FB6F894FEBF0FBECC
:100F8000EDBFC8010E94CA2010E05CC10E94B80EEB
:100F90007C0100D000D000D0EDB7FEB731968E01B5
:100FA0000F5F1F4FADB7BEB712961C930E931197EC
:100FB00083E891E093838283C70195958795959502
:100FC0008795958384830E944229EDB7FEB73696B4
:100FD0000FB6F894FEBF0FBEEDBFC8010E94CA2035
:100FE000F3E0EF22FF2481E0E816F104C1F092E083
:100FF000E916F10424F4E114F10459F014C1A2E05B
:10100000EA16F10491F0B3E0EB16F10409F00BC11C
:1010100012C08FE891E00E94CA2010E013C186E957
:1010200091E00E94CA2010E00DC18DE991E00E947C
:10103000CA2010E007C184EA91E00E94CA2010E0B3
:1010400001C101E411E0C7010396B8010E94BF2865
:101050000E94B627D82E80E090E0B8010E94BF28F9
:101060000E94B627082FE7E1ED1508F4DEC08C33A7
:1010700008F0DDC0D092B9038093B8030E947A0BC8
:101080008DB79EB708970FB6F8949EBF0FBE8DBF61
:10109000EDB7FEB731967E010894E11CF11CADB7A7
:1010A000BEB71296FC92EE9211978BEA91E0938371
:1010B0008283D4821582068317820E944229EDB76B
:1010C000FEB738960FB6F894FEBF0FBEEDBFC7014E
:1010D0000E94CA2010E0B6C001E411E0C7010396E7
:1010E000B8010E94BF280E94B627D82E80E090E069
:1010F000B8010E94BF280E94B627082FF7E1FD150E
:1011000008F497C08C3308F096C0D092B703809350
:10111000B6030E947A0B8DB79EB708970FB6F89466
:101120009EBF0FBE8DBFEDB7FEB731967E0108940E
:10113000E11CF11CADB7BEB71296FC92EE9211976E
:101140008BEA91E093838283D4821582068317828F
:101150000E944229EDB7FEB738960FB6F894FEBF4D
:101160000FBEEDBFC7010E94CA2010E06BC0002374
:1011700009F063C088E090E06FEF0E94CA298CEB11
:1011800091E00E94CA2010E05DC0013071F0013092
:1011900030F0023071F0033009F051C00EC08AEC1B
:1011A00091E00E94CA2010E04DC00E946C0C10E03B
:1011B00049C00E94B11E10E045C081E08093CD037C
:1011C00010E040C00330E8F50093B50382E190E001
:1011D000602F0E94CA2910E035C000D000D000D096
:1011E000EDB7FEB731968E010F5F1F4FADB7BEB79B
:1011F00012961C930E9311978CED91E0938382834A
:10120000F582E4820E944229EDB7FEB736960FB60A
:10121000F894FEBF0FBEEDBFC8010E94CA2011E0C6
:1012200011C012E00FC010E00DC010E00BC010E0C4
:1012300009C010E007C010E005C012E003C012E0D2
:1012400001C012E0812FE0960FB6F894DEBF0FBE0A
:10125000CDBFDF91CF911F910F91FF90EF90DF9065
:10126000CF9008958091A703882349F50E94D92043
:10127000882309F10E94E22090E00E94AC288A3085
:1012800019F08D3071F417C081E08093A70380912D
:10129000A603E2E3F4E0E80FF11D10821092A6032A
:1012A0000AC09091A603E2E3F4E0E90FF11D808308
:1012B0009F5F9093A6038091A703882339F0109233
:1012C000A70382E394E00E942206089580E0089537
:1012D0002F923F924F925F927F928F929F92AF9206
:1012E000BF92CF92DF92EF92FF920F931F93CF9313
:1012F000DF93249A2C9881E090E00E94E9152C9AC3
:10130000249880E293E003C0019709F478C01C9907
:10131000FBCF80E991E003C0019709F472C01C9BE8
:10132000FBCF80E991E003C0019709F46CC01C99E0
:10133000FBCFA0E0B0E020E931E000E911E090E06F
:1013400070E0C0E058E260E80F2EFFE8AF2EF1E059
:10135000BF2EF02D0F2EF6E48F2EF4E09F2EF02DF1
:10136000D0E00F2EF0E87F2EF02D0F2EF0E9CF2EDB
:10137000F1E0DF2EF0E0EF2EF0E0FF2EF02D01C0C7
:10138000942F83B1482F407184FD30C0992371F1AF
:101390005332C8F02017310708F48901C801A0E0D2
:1013A000B0E016012701281A390A4A0A5B0AD2015D
:1013B000C101B695A79597958795B695A7959795E9
:1013C0008795DC0107C0C8018A1B9B0B8217930716
:1013D00008F0762B669539F4F401EC0FF11D70835B
:1013E000CF5F7D2F672D5150950103C021503040B4
:1013F00061F0552329F6249A2C9A80E007C08DEFDE
:1014000005C08CEF03C08BEF01C08EEFDF91CF9151
:101410001F910F91FF90EF90DF90CF90BF90AF9012
:101420009F908F907F905F904F903F902F90089566
:101430000F931F93CF93DF93EC018B010E946809F8
:101440009091460493709093460420914804237829
:1014500020934804392F20E04091470450E0242B8A
:10146000352B398328834091480450E04F775070E2
:10147000542F44272091490430E0242B352BF801C8
:10148000318320839091480499232CF43095219541
:101490003F4F31832083E6E4F4E0209147049081BC
:1014A000920F2281920F2381920F20914A042913D7
:1014B0008FEFDF91CF911F910F9108954F925F921F
:1014C0006F927F928F929F92AF92BF92CF92DF9254
:1014D000EF92FF920F931F93CF93DF9300D000D032
:1014E000CDB7DEB74C01882777FD8095982F0E94F5
:1014F000FD216B017C01B40180E090E00E94FB21A2
:1015000020E030E04AE754E40E9462210E948E22EB
:101510002B013C01C701B60122E03BE24AE851E45D
:101520000E94CE224B015C01C701B60120E030E9E8
:1015300044E155E40E94FE209B01AC01C501B401C9
:101540000E946221A30192010E94FE20462E872E56
:10155000C82E092F862F982DAC2DB02FBC01CD01A0
:1015600020E030E944E155E40E94CE2269837A8389
:101570008B839C8362E07BE28AE891E4402F042D18
:10158000182D2C2D342FA90198010E94FD209B01BC
:10159000AC0169817A818B819C810E9462210E94C9
:1015A000CA21862F972F0F900F900F900F90DF91E9
:1015B000CF911F910F91FF90EF90DF90CF90BF9050
:1015C000AF909F908F907F906F905F904F90089515
:1015D00088E090E00E94C2298F3F09F041C088E076
:1015E00090E061E00E94CA298AE090E067E10E94F1
:1015F000CA298CE090E06EE10E94CA298EE090E05A
:1016000067E00E94CA2980E190E06EE10E94CA2949
:1016100082E190E062E00E94CA2984E190E060E00B
:101620000E94CA2986E190E062E00E94CA2988E10E
:1016300090E063E00E94CA298AE190E064E00E94A1
:10164000CA298CE190E066E00E94CA298EE190E010
:1016500061E00E94CA2980E290E067E00E94CA2906
:1016600008958AE090E00E94C2298093B9038CE03B
:1016700090E00E94C2298093B8038EE090E00E941F
:10168000C2298093B70380E190E00E94C229809331
:10169000B60382E190E00E94C2298093B50384E101
:1016A00090E00E94C2298093280586E190E00E9484
:1016B000C22980932A0588E190E00E94C229809384
:1016C0002C058AE190E00E94C229809327058CE1D5
:1016D00090E00E94C22980932E058EE190E00E9446
:1016E000C22980932B0580E290E00E94C22980935A
:1016F0002D0508958AE090E06091B9030E94CA29FF
:101700008CE090E06091B8030E94CA298EE090E0DE
:101710006091B7030E94CA2980E190E06091B6030E
:101720000E94CA2982E190E06091B5030E94CA2913
:1017300084E190E0609128050E94CA2986E190E04A
:1017400060912A050E94CA2988E190E060912C05E9
:101750000E94CA298AE190E0609127050E94CA2967
:101760008CE190E060912E050E94CA298EE190E004
:1017700060912B050E94CA2980E290E060912D05BE
:101780000E94CA2908958C3019F41092B90003C040
:1017900091E09093B9008093B80008950F931F9340
:1017A000CF93DF93182FECEBF0E084EA8083808105
:1017B000882374F000E0CCEBD0E081E090E00E9460
:1017C000E9150F5F8881882324F00330B1F701C049
:1017D00000E08091B900887F883011F08031B1F449
:1017E0000330B0F41093BB0084E88093BC00ECEBB2
:1017F000F0E080818823ECF79091B900987F9831D0
:1018000049F081E0903439F480E005C081E003C004
:1018100081E001C080E0DF91CF911F910F91089589
:10182000CF93DF93ECEBF0E024EAA9EBB0E0CBEB55
:10183000D0E034E844E9208390819923ECF79C912F
:10184000987F983011F09031B1F788833083908180
:101850009923ECF79C91987F903211F0983529F4F8
:101860004083908194FDFDCFE6CFDF91CF91089525
:101870000E94CE0B089584E98093BC00ECEBF0E06D
:10188000808184FDFDCF08958093BB0084E8809320
:10189000BC00ECEBF0E080818823ECF79091B9007C
:1018A000987F81E0983209F480E0089584EC809379
:1018B000BC00ECEBF0E080818823ECF78091BB006A
:1018C000089584E88093BC00ECEBF0E080818823ED
:1018D000ECF78091BB000895AF92BF92CF92DF9258
:1018E000FF920F931F93CF93DF93CDB7DEB7E797A8
:1018F0000FB6F894DEBF0FBECDBFDE01D396EDEF7D
:10190000F1E085E001900D928150E1F789EE91E0E0
:101910000E94CA2002E010E0FF246E010894C11C5E
:10192000D11C0F2EF4EFAF2EF1E0BF2EF02D802F43
:101930000E94CE0B8823F1F400D000D000D0EDB788
:10194000FEB73196ADB7BEB71296DC92CE92119724
:10195000B382A282158304830E9442298DB79EB769
:1019600006960FB6F8949EBF0FBE8DBFC6010E94AB
:10197000CA20F3940E943B0C0E5F1F4F91E0003091
:101980001907A9F6FF2021F4CE01C3960E94CA20B0
:101990008BEF91E00E94CA20E7960FB6F894DEBF65
:1019A0000FBECDBFDF91CF911F910F91FF90DF90C0
:1019B000CF90BF90AF900895282F2F70982F9695B5
:1019C000969596959E70892F880F880F980F892F6E
:1019D000820F0895282F30E086FF08C08F7025FF02
:1019E00002C02AE001C020E0820F08958F70369572
:1019F000279536952795369527952670922F990F1E
:101A0000990F290F820F0895982F92959F70990F23
:101A1000292F220F220F920F8F70890F08956AE0ED
:101A20000E940F278295807F890F08950F931F933F
:101A3000CF93DF93082FEB0180ED0E94CE0B11E0D6
:101A4000813009F010E01123A9F4802F0E94440C8A
:101A500011E0813009F010E0112361F481ED0E9462
:101A6000380C11E0813009F010E0112319F40E94C4
:101A7000610C88830E943B0C812FDF91CF911F91D5
:101A80000F9108951F93CF93DF93182FD62F80EDDA
:101A90000E94CE0BC1E0813009F0C0E0CC2381F47C
:101AA000812F0E94440CC1E0813009F0C0E0CC23BA
:101AB00039F48D2F0E94440CC1E0813009F0C0E060
:101AC0000E943B0C8C2FDF91CF911F9108951F93A3
:101AD000CF93DF93EC0180ED0E94CE0B11E08130BB
:101AE00009F010E01123C1F580E00E94440C11E0E0
:101AF000813009F010E0112379F581ED0E94380C56
:101B000011E0813009F010E0112331F50E94560CEC
:101B10000E94DC0C8A830E94560C0E94DC0C898394
:101B20000E94560C0E94EA0C88830E94560C8F83F8
:101B30000E94560C0E94DC0C8B830E94560C0E9463
:101B4000DC0C8C830E94610C0E94040D90E0805399
:101B5000984F9E838D8309C01E821D821882198230
:101B60001A8281E08C838B838F830E943B0C812FB0
:101B7000DF91CF911F910895CF93DF93C62FD42F7C
:101B80008831C0F46C33B0F44C33A0F40E940F0DD4
:101B9000682F82E00E94420D8C2F0E940F0D682F4B
:101BA00081E00E94420D8D2F0E940F0D682F80E072
:101BB0000E94420DDF91CF9108954F925F926F92F4
:101BC0007F928F929F92AF92BF92CF92DF92EF92CD
:101BD000FF92482E4A01262F30E08EE090E0821BD3
:101BE000930B6CE070E00E942F27AA24BB2480ECAA
:101BF00092E1A0E0B0E0880E991EAA1EBB1ECB01A8
:101C0000AA2797FDA095BA2F881A990AAA0ABB0A93
:101C1000CB01880F991F680F791F660F771F660F1A
:101C2000771F620F731F882777FD8095982F29E90A
:101C300030E040E050E00E94F026695C7140804056
:101C4000904025E030E040E050E00E9464276901C8
:101C50007A01C40CD11CE11CF11CC501B4012DE6B4
:101C600031E040E050E00E94F0262B013C014C0C9A
:101C70005D1C6E1C7F1CC501B40124E030E040E017
:101C800050E00E94642769017A01C40CD51CE61C4F
:101C9000F71CC501B40124E630E040E050E00E94AA
:101CA0006427C21AD30AE40AF50AC501B40120E97F
:101CB00031E040E050E00E946427C20ED31EE41ED3
:101CC000F51EC701B6016C527D478040904027E069
:101CD00030E040E050E00E944227862FFF90EF90D6
:101CE000DF90CF90BF90AF909F908F907F906F903C
:101CF0005F904F9008950F931F93CF93DF93C82F5A
:101D0000D62F81508F3138F5862F81508C3018F5C1
:101D10008A01005D174083E0083E1807E0F48C2F2D
:101D20000E94DD0D682F83E00E94420D802F0E94EB
:101D30000F0D682F86E00E94420D8D2F0E940F0D1F
:101D4000682F85E00E94420D8C2F0E940F0D682F96
:101D500084E00E94420DDF91CF911F910F91089571
:101D6000682F8150873018F483E00E94420D089557
:101D70000F931F93CF93DF9300D0CDB7DEB781E1F0
:101D8000BE016F5F7F4F0E94160D098110E0000FAA
:101D9000111F000F111F882331F482E1BE016E5F15
:101DA0007F4F0E94160D2A81229526952695237035
:101DB00030E0022B132B11FF04C01D7F10950195FD
:101DC0001F4F882311F000E010E0802F912F0F901B
:101DD0000F90DF91CF911F910F910895CF92DF92D5
:101DE000EF92FF92CF93DF93EC01882777FD8095E8
:101DF000982F0E94FD216B017C0120E030E040E043
:101E00005FE30E94CE2220E030E048E452E40E94EA
:101E100062210E94CA21DC01CB01C817D90704F155
:101E2000C701B60120E030E040EC5FE30E94CE2223
:101E300020E030E048E452E40E94622120E030E0FB
:101E400040E85FE30E94FE200E94CA21AB01BC0172
:101E500081E090E04C175D072CF480E090E002C038
:101E600080E090E090E0DF91CF91FF90EF90DF90E5
:101E7000CF900895CF92DF92EF92FF92CF93DF93AE
:101E8000EC0164567040882777FD8095982F0E945A
:101E9000FD216B017C0120E030E040E05FE30E9427
:101EA000CE2220E030E048E452E40E9462210E9409
:101EB000CA21DC01CB01C817D90704F1C701B6015B
:101EC00020E030E040EC5FE30E94CE2220E030E0F2
:101ED00048E452E40E94622120E030E040E85FE301
:101EE0000E94FE200E94CA21AB01BC0181E090E06B
:101EF0004C175D072CF480E090E002C080E090E099
:101F000090E0DF91CF91FF90EF90DF90CF90089518
:101F1000CF92DF92EF92FF92CF93DF93EC016C5957
:101F20007F4F882777FD8095982F0E94FD216B01B8
:101F30007C0120E030E040E05FE30E94CE2220E020
:101F400030E048E452E40E9462210E94CA21DC0190
:101F5000CB01C817D90704F1C701B60120E030E072
:101F600040EC5FE30E94CE2220E030E048E452E4FF
:101F70000E94622120E030E040E85FE30E94FE2002
:101F80000E94CA21AB01BC0181E090E04C175D07C3
:101F90002CF480E090E002C080E090E090E0DF91DF
:101FA000CF91FF90EF90DF90CF90089582E08093E3
:101FB0004B0410924C04089521E01B9B20E080917B
:101FC0004D0490914E04019690934E0480934D04DD
:101FD00080914C04853618F086E080934B04809104
:101FE0004B04843009F45BC0853030F4823059F002
:101FF000833009F08BC034C0853009F47AC0863054
:1020000009F084C07DC0222309F080C080914D0476
:1020100090914E0421E08039920728F410924E04EA
:1020200010924D0408951092190510924C042091BD
:102030004C04E22FF0E080914D0490914E04EE0F9D
:10204000FF1FE15BFB4F918380832F5F20934C0444
:1020500010924E0410924D0483E080934B04089537
:10206000213009F053C020914C04A22FB0E08091A0
:102070004D0490914E041296EBE4F4E0AA0FBB1FBE
:10208000AE0FBF1F11969C938E932F5F20934C042D
:1020900010924E0410924D0484E080830895222310
:1020A000E1F420914C04A22FB0E080914D04909176
:1020B0004E041296EBE4F4E0AA0FBB1FAE0FBF1F55
:1020C00011969C938E932F5F20934C0410924E0494
:1020D00010924D0483E08083089580914D04909187
:1020E0004E0421E08139920788F085E080934B040B
:1020F0000895222359F410924E0410924D0408952D
:1021000081E08093190585E080934B0408956F92D8
:102110007F928F929F92AF92BF92CF92DF92EF9277
:10212000FF920F931F93CF93DF935C01FC01848593
:10213000853009F090C0C681D7818A819B8168E291
:1021400073E20E943A0F009709F487C0F501808579
:10215000918584309105F1F48C819D816AEC78E061
:102160000E94880F009709F47AC08E819F8160E3F6
:1021700072E00E943A0F009709F473C0F5011582CE
:1021800014828FEF9FEFDC0180839183A283B3835E
:1021900081E070C0843491050CF465C08C819D8110
:1021A00064E971E10E94880F009709F45EC000E0C5
:1021B00010E0CC24DD2476010F2EF6E06F2E77247C
:1021C000F02D6C0E7D1E88249924689483F88C0E63
:1021D0009D1EF301E00FF11F8081918160E372E0A9
:1021E0000E943A0F009709F442C0E401C00FD11FCA
:1021F000888199816AE976E00E94880F009779F0DA
:10220000D701C601880F991FAA1FBB1FCC24DD244C
:102210007601C394C82AD92AEA2AFB2A0CC08881ED
:10222000998160E372E00E94880F009711F1CC0C55
:10223000DD1CEE1CFF1C0C5F1F4F0038110549F61A
:1022400080E290E0F50195838483C082D182E282AE
:10225000F38281E00FC080E00DC080E00BC080E021
:1022600009C080E007C080E005C080E003C080E0D6
:1022700001C080E0DF91CF911F910F91FF90EF900F
:10228000DF90CF90BF90AF909F908F907F906F9096
:102290000895F89420914B047894223039F081E02D
:1022A00090E0253029F080E090E0089581E090E012
:1022B0000895F89482E080934B0410924C04789433
:1022C0000895FC01F8948FE494E097838683DC0101
:1022D00013972C9120871186209119052287138648
:1022E0000497DC018C9184877894CF010E94871039
:1022F000882321F40E94591180E0089581E0089517
:102300000F931F93CF93DF93CDB7DEB764970FB6CC
:10231000F894DEBF0FBECDBF8091A8038230D9F103
:10232000833030F4882371F0813009F041C113C04B
:10233000843009F4B1C0843008F467C0853009F0F6
:1023400037C1E4C0809186028F3009F031C181E04D
:102350008093A8032DC180918602813051F482E0E0
:1023600092E00E94CA201092A90382E08093A80301
:102370001FC1823051F487E192E00E94CA2010927E
:10238000A90384E08093A80313C1803109F010C130
:102390001092A8030DC1209186022A3008F008C1CE
:1023A0008091A903EAEAF3E0E80FF11D208300D051
:1023B00000D000D0EDB7FEB731968E010F5F1F4FF2
:1023C000ADB7BEB712961C930E9311978BE292E0B5
:1023D00093838283248315820E9442298DB79EB7FE
:1023E00006960FB6F8949EBF0FBE8DBFC8010E941F
:1023F000CA208091A9038F5F8093A903863008F4D7
:10240000D7C083E08093A803D3C080918602803137
:1024100009F0CEC08EE292E00E94CA20ADB7BEB7EE
:1024200050970FB6F894BEBF0FBEADBFEDB7FEB765
:1024300031968E010F5F1F4F12961C930E931197CA
:102440008DE392E0938382838091AA038483158233
:102450008091AB03868317828091AC0380871186BD
:102460008091AD03828713868091AE0384871586A1
:102470008091AF03868717860E9442298DB79EB749
:1024800040960FB6F8949EBF0FBE8DBFC8010E9444
:10249000CA201092A8038CC0209186022A3008F02E
:1024A00087C08091A903EAEAF3E0E80FF11D2083D9
:1024B00000D000D000D0EDB7FEB731968E010F5F8F
:1024C0001F4FADB7BEB712961C930E9311978BE2B8
:1024D00092E093838283248315820E9442298DB7E0
:1024E0009EB706960FB6F8949EBF0FBE8DBFC8016B
:1024F0000E94CA208091A9038F5F8093A903863030
:1025000008F456C085E08093A80352C080918602EB
:10251000803109F04DC08DE492E00E94CA20ADB731
:10252000BEB71E970FB6F894BEBF0FBEADBFEDB7D6
:10253000FEB731968E010F5F1F4F12961C930E93BC
:1025400011978CE592E0938382838091AA03848320
:1025500015828091AB03868317828091AC038087BC
:1025600011868091AD03828713868091AE0390E03F
:10257000880F991F9C01220F331F220F331F820FD8
:10258000931F8053984F2091AF03820F911D958721
:1025900084870E9442298DB79EB70E960FB6F89495
:1025A0009EBF0FBE8DBFC8010E94CA201092A80313
:1025B00064960FB6F894DEBF0FBECDBFDF91CF910A
:1025C0001F910F9108950F931F93CF93DF93CDB772
:1025D000DEB764970FB6F894DEBF0FBECDBF8AE1B9
:1025E00095E00E946111882309F458C180911A0571
:1025F00090911B05A0911C05B0911D058D3A22E517
:1026000092072FEFA20720E0B20709F4E8C08E3A44
:1026100022E592072FEFA20720E0B20708F05BC087
:102620008D3D22E292072FEFA20720E0B20709F4C6
:10263000C6C08E3D22E292072FEFA20720E0B2072C
:10264000E0F48F3E20E192072FEFA20720E0B207CF
:1026500009F4E4C0873E28E192072FEFA20720E0AB
:10266000B20709F4D3C08D3F22E092072FEFA207F3
:1026700020E0B20709F0E2C0AAC0873C28E3920735
:102680002FEFA20720E0B20709F4CCC0883C28E372
:1026900092072FEFA20720E0B20750F48F3C20E30F
:1026A00092072FEFA20720E0B20709F0C7C0AAC027
:1026B0008D3B22E492072FEFA20720E0B20709F436
:1026C0008AC0853B2AE492072FEFA20720E0B207D9
:1026D00009F0B4C088C0873628E992072FEFA20717
:1026E00020E0B20709F486C0883628E992072FEF68
:1026F000A20720E0B20770F58D3922E692072FEF8E
:10270000A20720E0B20709F452C08E3922E69207F0
:102710002FEFA20720E0B20750F4853A2AE592078E
:102720002FEFA20720E0B20709F088C07FC08739E9
:1027300028E692072FEFA20720E0B20709F456C05F
:1027400085382AE792072FEFA20720E0B20709F0A9
:1027500075C060C08F3420EB92072FEFA20720E0F6
:10276000B20709F44BC0803520EB92072FEFA20788
:1027700020E0B20750F4873528EA92072FEFA2072E
:1027800020E0B20709F05AC016C08D3322EC920740
:102790002FEFA20720E0B207B1F08F3F2FEF920793
:1027A0002FEFA2072FEFB20709F048C043C08AE01D
:1027B0008093860246C08DE08093860242C08BE003
:1027C000809386023EC08CE0809386023AC08EE001
:1027D0008093860236C08FE08093860232C080E10B
:1027E000809386022EC0109286022BC081E08093D7
:1027F000860227C082E08093860223C083E0809314
:1028000086021FC084E0809386021BC085E080930F
:10281000860217C086E08093860213C087E080930B
:1028200086020FC088E0809386020BC089E0809307
:10283000860207C081E18093860203C082E1809313
:10284000860200D000D000D0EDB7FEB731968E01E1
:102850000F5F1F4FADB7BEB712961C930E93119723
:102860008AE692E09383828380918602A2E7B2E0B7
:10287000A80FB11D8C91848315820E9442298DB7C7
:102880009EB706960FB6F8949EBF0FBE8DBFC801C7
:102890000E94CA200E9480110E94591164960FB6AE
:1028A000F894DEBF0FBECDBFDF91CF911F910F9186
:1028B0000895DF92EF92FF920F931F93CF93DF93D0
:1028C000CDB7DEB72A970FB6F894DEBF0FBECDBFE7
:1028D000DE011196E7E8F2E08AE001900D92815066
:1028E000E1F785B1887F85B995B18091B003877094
:1028F000892B85B98091B1039091B203A091B30364
:10290000B091B40320916003222309F4C9C0E92ED9
:10291000F82E2091B5032130E9F1213020F022304A
:1029200009F0BEC06EC0882391F5992319F020E309
:10293000921769F5F090D103E8E0EF15E8F09E01F9
:102940002F0D311DF901418150E060E070E0842BD2
:10295000952BA62BB72B9070A0709A0111270027FA
:10296000762F652F542F4427402B512B622B732B2E
:10297000842B952BA62BB72BEF2DEF5FE093D10384
:10298000EA3008F48DC029E02093D10389C0109269
:10299000D10386C0882391F5F090D1039E012F0DBD
:1029A000311DF901418150E060E070E0842B952BEE
:1029B000A62BB72BEE2019F0F0E3EF16A1F428E0D8
:1029C0002F1588F09070A0709A0111270027762F9C
:1029D000652F542F4427402B512B622B732B842BB4
:1029E000952BA62BB72BEF2DEF5FE093D103EA30A9
:1029F00008F456C029E02093D10352C01092D103AD
:102A00004FC02091D203821709F448C08C019D0168
:102A10000070D090D103FE01ED0DF11D418150E019
:102A200060E070E0042B152B262B372BE091D303AD
:102A30009E1729F1EA2F1070B62FA52F942F882703
:102A4000802B912BA22BB32B2091D403E21719F4E6
:102A5000F0E3EF1669F4A070BA0155274427842BE0
:102A6000952BA62BB72B29E0D21659F4E093D4036B
:102A70002091D103293029F4E092D30302C0D90177
:102A8000C8012091D1032F5F2093D1032A3040F059
:102A900029E02093D103F092D20302C01092D10317
:102AA000E0E240E050E060E070E82BB12F732BB91A
:102AB0008A019B01082319232A233B2304171507A6
:102AC0002607370711F45D9A01C05D9876956795E2
:102AD000579547955F9A5F98E15039F75E9A5E98EF
:102AE0002A960FB6F894DEBF0FBECDBFDF91CF910F
:102AF0001F910F91FF90EF90DF9008958091D00388
:102B00008130A1F0813028F08230E9F08330C9F5BE
:102B10002AC00E94DA03882329F081E992E00E940A
:102B2000CA20089581E08093D00308958AEB93E052
:102B30000E94F903882319F01092D003089582E0CF
:102B40008093D003089584EF0E946A04882339F0AB
:102B500086EA92E00E94CA201092D003089583E092
:102B60008093D00308954091BA035091BB036091C4
:102B7000BC037091BD038EEB93E00E949804109209
:102B8000D003089586EC93E064EC73E00E94180A89
:102B9000882379F46091C4037091C5038091C603C2
:102BA0009091C7030E945E0A9093C3038093C2036F
:102BB000089583EB92E00E94CA200895F8946091F2
:102BC000C8037091C9038091CA039091CB03789494
:102BD00008958F929F92AF92BF92CF92DF92EF9221
:102BE000FF92CF93DF93EC010E94DE154B015C0155
:102BF0006E01EE24FF240E94DE15DC01CB01881952
:102C00009909AA09BB098C159D05AE05BF0598F366
:102C1000DF91CF91FF90EF90DF90CF90BF90AF907A
:102C20009F908F9008951F920F920FB60F921124CC
:102C30002F933F934F935F936F937F938F939F93C4
:102C4000AF93BF93EF93FF932D9A8091CC038F5F47
:102C50008093CC038431B8F00E94931B8091C80309
:102C60009091C903A091CA03B091CB030196A11D15
:102C7000B11D8093C8039093C903A093CA03B09376
:102C8000CB031092CC030E94DC0F2D98FF91EF91A3
:102C9000BF91AF919F918F917F916F915F914F9174
:102CA0003F912F910F900FBE0F901F901895EF92AC
:102CB000FF920F931F93CF93DF93CDB7DEB7289783
:102CC0000FB6F894DEBF0FBECDBF122F2983F32EAF
:102CD0003A83E42E4B83052F5C836D837E838F8341
:102CE00098874E815F81633089F58FE163E00E94B0
:102CF000DD0D9091CE03992321F0913009F053C05E
:102D000014C067E00E940F278FE1891B801709F02C
:102D10004AC0123008F447C080912905882309F081
:102D200042C081E08093CE033EC0812F8F5F6F2D24
:102D30004E2D0E94BC0D81E08093290582E290E037
:102D400061E00E94CA291092CE032DC06A3059F565
:102D50008FE16AE00E94DD0D9091CF03992319F075
:102D6000913009F511C067E00E940F278FE1891BA0
:102D70008017C9F41330B8F080912905882399F0A1
:102D800081E08093CF030FC0812F81506F2D4E2D96
:102D90000E94BC0D1092290582E290E060E00E9442
:102DA000CA291092CF0328960FB6F894DEBF0FBE43
:102DB000CDBFDF91CF911F910F91FF90EF900895BC
:102DC000282F6AE00E940F27982F990F392F330F71
:102DD000330F930F8295807F291B2F70822B0895CC
:102DE0000F931F93982F9150963058F526E030E0BE
:102DF0008901081B1109C801880F880F4AE050E0BB
:102E000060E070E08A019B0104C0000F111F221FC7
:102E1000331F8A95D2F7D901C8014091B10350916F
:102E2000B2036091B3037091B403842B952BA62B4E
:102E3000B72B8093B1039093B203A093B303B093E5
:102E4000B4031F910F9108958091D503843009F444
:102E50005FC0853050F4813059F18130C8F0823044
:102E6000B9F1833009F0B4C043C0873009F480C0A1
:102E7000883038F4853009F45BC0863009F0A8C08A
:102E800067C0883009F484C0893009F0A1C090C0BF
:102E900080E090E0A0E0B1E08093B1039093B203B2
:102EA000A093B303B093B40381E08093D50390C0A3
:102EB00081E191E1A1E1B2E08093B1039093B2038B
:102EC000A093B303B093B40382E08093D50380C092
:102ED00082E292E2A2E2B0E48093B1039093B20363
:102EE000A093B303B093B40383E08093D50370C081
:102EF00083E393E3A3E3B4E08093B1039093B2033D
:102F0000A093B303B093B40384E08093D50360C06F
:102F100084E494E4A4E4B8E08093B1039093B20312
:102F2000A093B303B093B40385E08093D50350C05E
:102F300085E595E5A5E5B0E88093B1039093B203EC
:102F4000A093B303B093B40386E08093D50340C04D
:102F500086E696E6A6E6B0E18093B1039093B203CD
:102F6000A093B303B093B40387E08093D50330C03C
:102F700087E797E7A7E7B0E28093B1039093B203A6
:102F8000A093B303B093B40388E08093D50320C02B
:102F900088E898E8A8E8BFEF8093B1039093B20364
:102FA000A093B303B093B40389E08093D50310C01A
:102FB00089E999E9A9E9BFEF8093B1039093B2033E
:102FC000A093B303B093B4031092D5031092CD0332
:102FD0008091D50387708093B0030895CF93DF93DA
:102FE000CDB7DEB728970FB6F894DEBF0FBECDBFC2
:102FF0008091B703821720F49091B903291788F0C4
:10300000821721F48091B603381768F48091B903D0
:10301000821759F481E09091B803391738F480E0B1
:1030200005C080E003C080E001C081E028960FB6B3
:10303000F894DEBF0FBECDBFDF91CF9108958F9280
:103040009F92AF92BF92CF92DF92EF92FF920F9337
:103050001F93CF93DF93CDB7DEB728970FB6F894C1
:10306000DEBF0FBECDBF1092B1031092B20310921B
:10307000B3031092B403CE0101960E94670D109223
:1030800060038091CD03882319F00E9424173BC26E
:1030900029813A814B815C816D817E818F81988508
:1030A0000E94EE17882369F08AEA9AEAAAEAB0E059
:1030B0008093B1039093B203A093B303B093B4038E
:1030C00022C21B811A3109F455C01B3120F4193179
:1030D00009F078C107C0133209F48CC0123309F02B
:1030E00071C1EAC029813A814B815C816D817E8109
:1030F0008F8198850E9457168C810E94E016182FA8
:103100008D810E94E016412F50E060E070E0032EB8
:103110003CE0440F551F661F771F3A95D1F7302DBD
:1031200090E0A0E0B0E0482B592B6A2B7B2B440F9A
:10313000551F661F771F440F551F661F771F440FCB
:10314000551F661F771F440F551F661F771F40933B
:10315000B1035093B2036093B3037093B40383E05D
:103160000E94F01686E00E94F01680912A05809356
:10317000B003C9C18E819F8164E670E00E941B2765
:10318000082F862F0E94E016182F802F0E94E0162D
:10319000412F50E060E070E0762F652F542F4427D8
:1031A00090E0A0E0B0E0482B592B6A2B7B2B440F1A
:1031B000551F661F771F440F551F661F771F440F4B
:1031C000551F661F771F440F551F661F771F4093BB
:1031D000B1035093B2036093B3037093B40381E0DF
:1031E0000E94F01686E00E94F01680912A058093D6
:1031F000B00389C1C090BA03D090BB03E090BC0378
:10320000F090BD03C701B6010E94CF21162F862F73
:103210000E94E016882E9924AA24BB24880C991CAD
:10322000AA1CBB1C880C991CAA1CBB1C880C991CD2
:10323000AA1CBB1C880C991CAA1CBB1C612F70E02B
:1032400080E090E00E94FD219B01AC01C701B60126
:103250000E94FD2020E030E040E251E40E94CE22B6
:103260000E94CF21862F90E0A0E0B0E0882A992A22
:10327000AA2ABB2AD501C401072E7CE0880F991F1A
:10328000AA1FBB1F7A95D1F7702DB2608093B1034E
:103290009093B203A093B303B093B40384E00E946D
:1032A000F01685E00E94F01686E00E94F0168091EC
:1032B0002C058093B00327C1C090BE03D090BF03FC
:1032C000E090C003F090C103C701B60120E030E0F8
:1032D00048EC52E40E9462210E94CF21162F862FD3
:1032E0000E94E016882E812F90E024E630E0829F35
:1032F000B001839F700D929F700D1124882777FD78
:103300008095982F0E94FD219B01AC01C701B60159
:103310000E94FD20462F572F682F792FCB01BA012D
:103320000E94CF21862F0E94E0169924AA24BB2454
:10333000BA2CA92C982C882490E0A0E0B0E0882A30
:10334000992AAA2ABB2AC701B6010E94CA21882746
:1033500077FD8095982F0E94FD219B01AC01C7014C
:10336000B6010E94FD2020E030E040E251E40E94DE
:10337000CE220E94CF21462F50E042955295507F99
:103380005427407F5427662757FD6095762F786035
:10339000BA2DA92D982D88274A015B01882A992AE0
:1033A000AA2ABB2A8092B1039092B203A092B303DF
:1033B000B092B40386E00E94F01680912B058093B2
:1033C000B003A1C081E08093600389810E94E01670
:1033D000C82E0A81802F0E94E016DD24EE24FF24EF
:1033E000FE2CED2CDC2CCC2490E0A0E0B0E0C82A30
:1033F000D92AEA2AFB2A812F0E94E016FE2CED2C06
:10340000DC2CCC2490E0A0E0B0E0C82AD92AEA2A3B
:10341000FB2A112329F480912D058093B00317C056
:10342000809128058093B00310FF11C080E090E0E8
:10343000A0E0B8E0C82AD92AEA2AFB2AC092B10340
:10344000D092B203E092B303F092B40310C080E0D4
:1034500090E0A0E0B0E8C82AD92AEA2AFB2AC09264
:10346000B103D092B203E092B303F092B40300FF31
:1034700012C08091B1039091B203A091B303B091B7
:10348000B403B2608093B1039093B203A093B303EB
:10349000B093B40311C08091B1039091B203A09195
:1034A000B303B091B403B0648093B1039093B203BB
:1034B000A093B303B093B40380912905882391F0BE
:1034C0008091B1039091B203A091B303B091B40382
:1034D000B0628093B1039093B203A093B303B0930F
:1034E000B40311C08091B1039091B203A091B303D2
:1034F000B091B403BF7D8093B1039093B203A093C6
:10350000B303B093B40328960FB6F894DEBF0FBE92
:10351000CDBFDF91CF911F910F91FF90EF90DF9082
:10352000CF90BF90AF909F908F900895E0EBF0E028
:1035300080818260808382E08093B10083E6809303
:10354000B3001092B200E0E7F0E0808182608083F7
:10355000089584B1877E84B985B1877E85B984B1A9
:10356000876284B985B1887D85B98AB1806E8AB950
:103570008BB18F718BB90895CF93DF93CDB7DEB741
:1035800064970FB6F894DEBF0FBECDBF0E94961AA7
:103590000E94D60F8CE00E94C30B0E94A91A89E1F9
:1035A00090E00E9405200E947F018FE198E169EC84
:1035B00072E040E050E028EE33E00E94B21C89E562
:1035C00094E161ED72E044E650E022E330E00E94D5
:1035D000B21C83EE92E168ED72E046E950E024EF20
:1035E00031E00E94B21C82EC95E160EE72E04AEF9D
:1035F00050E028E833E10E94B21C8EE795E166EEC8
:1036000072E04EE551E028EE33E00E94B21C78945F
:103610000E94E80A0E94310B82E290E00E94C229D7
:1036200091E0882309F490E0909329058DEE92E0D3
:103630000E94CA2087E193E00E94CA208DB79EB7FE
:103640000C970FB6F8949EBF0FBE8DBFEDB7FEB7B7
:1036500031968E010F5F1F4FADB7BEB712961C9308
:103660000E93119786E293E0938382838091B9034E
:10367000848315828091B803868317828091B70373
:10368000808711868091B603828713860E94422923
:103690008DB79EB70C960FB6F8949EBF0FBE8DBF28
:1036A000C8010E94CA208E010F5F1F4F0F2EFDE43C
:1036B000EF2EF3E0FF2EF02D0F2EF2E3CF2EF4E0ED
:1036C000DF2EF02D0F2EFEE3AF2EF3E0BF2EF02DF8
:1036D0000E940C1C0E943209813019F08230C1F71F
:1036E00004C0C5010E94CA20F3CF00D000D000D092
:1036F000EDB7FEB73196ADB7BEB712961C930E93D9
:103700001197F382E282D582C4820E9442298DB74A
:103710009EB706960FB6F8949EBF0FBE8DBFC80128
:103720000E94CA20D5CF80912F0590913005009737
:1037300009F471C080E090E060E0AFE2B5E0FC0128
:10374000EE0FFF1FE80FF91FEE0FFF1FEE0FFF1F19
:10375000EE0FFF1FE80FF91FEA0FFB1F4089518989
:1037600041155105A9F09C01220F331F280F391F65
:10377000220F331F220F331F220F331F820F931F7D
:10378000FD01E80FF91F41505040518B408B2BC079
:10379000FC01EE0FFF1FE80FF91FEE0FFF1FEE0FEA
:1037A000FF1FEE0FFF1FE80FF91FEA0FFB1F228913
:1037B000338921503040338B228B2115310599F408
:1037C0009C01220F331F280F391F220F331F220F96
:1037D000331F220F331F820F931FFD01E80FF91FC4
:1037E00084898160848B6F5F862F90E0FC01EE0FEF
:1037F000FF1FE80FF91FEE0FFF1FEE0FFF1FEE0F69
:10380000FF1FE80FF91FEA0FFB1F208131812115EF
:10381000310509F094CF08958F929F92AF92BF9295
:10382000CF92DF92EF92FF921F93CF93DF9380911D
:103830002F0590913005009709F488C0C0E0D0E0D2
:1038400010E00F2EFFE2CF2EF5E0DF2EF02DFE016F
:10385000EE0FFF1FEC0FFD1FEE0FFF1FEE0FFF1F00
:10386000EE0FFF1FEC0FFD1FEC0DFD1D8489837013
:10387000833009F054C00E94DE154B015C017E01CB
:10388000EE0CFF1CEC0EFD1EEE0CFF1CEE0CFF1CE4
:10389000EE0CFF1CEC0EFD1EEC0CFD1CD701ED9197
:1038A000FC910995F70184898E7F848B86859785A5
:1038B000938B828B0E94DE15AB01BC014815590524
:1038C0006A057B0558F4D501C40180959095A095B3
:1038D000B095480F591F6A1F7B1F04C0481959092A
:1038E0006A097B09FE01EE0FFF1FEC0FFD1FEE0FB3
:1038F000FF1FEE0FFF1FEE0FFF1FEC0FFD1FEC0D64
:10390000FD1D568B458B8789908DA0E0B0E0841714
:103910009507A607B70718F4EF01588F4F8B1F5F65
:10392000C12FD0E0FE01EE0FFF1FEC0FFD1FEE0FC9
:10393000FF1FEE0FFF1FEE0FFF1FEC0FFD1FEC0D23
:10394000FD1D80819181009709F081CFDF91CF919A
:103950001F91FF90EF90DF90CF90BF90AF909F901E
:103960008F9008954F925F926F927F928F929F9265
:10397000AF92BF92CF92DF92EF92FF921F93CF93BD
:10398000DF937C015B016A01B9011091D603193004
:1039900008F067C080913D0590913E050097D9F0F1
:1039A000C0E04FE255E0CF5F2C2F30E0C901880F17
:1039B000991F820F931F880F991F880F991F880FD7
:1039C000991F820F931F840F951FFC018685978591
:1039D000009749F701C0C0E080E090E028EE33E0B6
:1039E00040E050E00E94F0260E9464278C2F90E077
:1039F000EC01CC0FDD1FC80FD91FCC0FDD1FCC0F82
:103A0000DD1FCC0FDD1F4E01880E991EE401C15D44
:103A1000DA4FF982E8823F872E873B8B2A8BB601EB
:103A200080E090E028EE33E040E050E00E94F02695
:103A30000E946427398B288B8C8982608E7F8C8BC7
:103A40001E8A1D8A188E1F8AC4018F5C9A4FB50189
:103A50004CE050E00E94CD281F5F1093D60380E019
:103A600001C086E0DF91CF911F91FF90EF90DF9032
:103A7000CF90BF90AF909F908F907F906F905F900E
:103A80004F900895BF92CF92DF92EF92FF920F93E3
:103A90001F93CF93DF936C0180913D0590913E057C
:103AA000009709F457C0C0E0D0E010E000E00F2E0E
:103AB000FFE2EF2EF5E0FF2EF02DBB24B394CE01F4
:103AC000880F991F8C0F9D1F880F991F880F991FB2
:103AD000880F991F8C0F9D1F8F5C9A4FB6010E9413
:103AE000C428282F392F21153105A1F4CE01880FC4
:103AF000991F8C0F9D1F880F991F880F991F880F82
:103B0000991FC80FD91FCE0DDF1D8C8982608C8B49
:103B10002B2D01C0202F1F5FC12FD0E0FE01EE0F23
:103B2000FF1FEC0FFD1FEE0FFF1FEE0FFF1FEE0F2D
:103B3000FF1FEC0FFD1FEE0DFF1D8685978500977B
:103B400029F0222309F4BBCF80E007C0222321F013
:103B500080E003C085E001C084E0DF91CF911F9138
:103B60000F91FF90EF90DF90CF90BF900895BF929C
:103B7000CF92DF92EF92FF920F931F93CF93DF9339
:103B80006C0180913D0590913E05009709F457C066
:103B9000C0E0D0E010E000E00F2EFFE2EF2EF5E0F5
:103BA000FF2EF02DBB24B394CE01880F991F8C0FEC
:103BB0009D1F880F991F880F991F880F991F8C0FC1
:103BC0009D1F8F5C9A4FB6010E94C428282F392F61
:103BD00021153105A1F4CE01880F991F8C0F9D1F6F
:103BE000880F991F880F991F880F991FC80FD91F19
:103BF000CE0DDF1D8C898D7F8C8B2B2D01C0202F4E
:103C00001F5FC12FD0E0FE01EE0FFF1FEC0FFD1F65
:103C1000EE0FFF1FEE0FFF1FEE0FFF1FEC0FFD1F3C
:103C2000EE0DFF1D86859785009729F0222309F464
:103C3000BBCF80E007C0222321F080E003C085E0F5
:103C400001C084E0DF91CF911F910F91FF90EF9021
:103C5000DF90CF90BF9008958F929F92BF92CF92A6
:103C6000DF92EF92FF920F931F93CF93DF936B013D
:103C700020913D0530913E052115310509F462C0C2
:103C8000BC0180E090E028EE33E040E050E00E948C
:103C9000F0260E9464274901C0E0D0E010E000E077
:103CA0000F2EFFE2EF2EF5E0FF2EF02DBB24B39494
:103CB000CE01880F991F8C0F9D1F880F991F880FA9
:103CC000991F880F991F8C0F9D1F8F5C9A4FB6010B
:103CD0000E94C428282F392F2115310599F4CE01CF
:103CE000880F991F8C0F9D1F880F991F880F991F90
:103CF000880F991FC80FD91FCE0DDF1D9F868E8696
:103D00002B2D01C0202F1F5FC12FD0E0FE01EE0F31
:103D1000FF1FEC0FFD1FEE0FFF1FEE0FFF1FEE0F3B
:103D2000FF1FEC0FFD1FEE0DFF1D86859785009789
:103D300029F0222309F4BCCF80E007C0222321F020
:103D400080E003C085E001C084E0DF91CF911F9146
:103D50000F91FF90EF90DF90CF90BF909F908F904A
:103D60000895AF92BF92CF92DF92EF92FF921F938E
:103D7000CF93DF93CDB7DEB7C655D0400FB6F894DA
:103D8000DEBF0FBECDBFDE01D396E1E8F3E084E2F3
:103D900001900D928150E1F7CE01C3960E94CA2096
:103DA00040913D0550913E054115510509F479C0FA
:103DB00020E030E010E07E010894E11CF11C0F2EA1
:103DC000F1E6AF2EF3E0BF2EF02D0F2EFFE2CF2E47
:103DD000F5E0DF2EF02D8DB79EB70E970FB6F89455
:103DE0009EBF0FBE8DBFADB7BEB71196EDB7FEB784
:103DF000F282E1821396BC92AE921297C901880FAB
:103E0000991F820F931F880F991F880F991F880F82
:103E1000991F820F931F9C012F5C3A4F15963C937C
:103E20002E93149717965C934E931697F601E80F0E
:103E3000F91F848918968C93189719961C921997D4
:103E4000858996891B969C938E931A978789908D66
:103E50001D969C938E931C970E9442298DB79EB706
:103E60000E960FB6F8949EBF0FBE8DBFC7010E947D
:103E7000CA201F5F212F30E0F901EE0FFF1FE20F74
:103E8000F31FEE0FFF1FEE0FFF1FEE0FFF1FE20FDE
:103E9000F31FEC0DFD1D468557854115510509F0B1
:103EA0009ACFCA5ADF4F0FB6F894DEBF0FBECDBF10
:103EB000DF91CF911F91FF90EF90DF90CF90BF9057
:103EC000AF9008951F920F920FB60F9211242F9367
:103ED0003F934F935F938F939F93EF93FF939091B3
:103EE0003F0680913E069817E1F080913F06E091F1
:103EF0004106F0914206E80FF11D508140913F06C6
:103F0000242F30E08091400690E001972817390770
:103F100011F04F5F01C040E040933F065093C60050
:103F200005C0E1ECF0E080818F7D8083FF91EF910F
:103F30009F918F915F914F913F912F910F900FBE65
:103F40000F901F9018951F920F920FB60F92112489
:103F50002F933F934F935F938F939F93EF93FF9391
:103F6000CF93DF930F92CDB7DEB750913A06EAE3D5
:103F7000F6E04291842F90E0228130E021503040E1
:103F80008217930711F04F5F01C040E05417F1F022
:103F90008091C60090913906E0913C06F0913D0673
:103FA000E90FF11D808340913906242F30E0809184
:103FB0003B0690E001972817390711F04F5F01C0C9
:103FC00040E0409339061092380606C08091C60042
:103FD000898381E0809338068091D7039091D8033C
:103FE00001969093D8038093D7030F90DF91CF91E0
:103FF000FF91EF919F918F915F914F913F912F9101
:104000000F900FBE0F901F901895CF93DF93CDB7F1
:10401000DEB764970FB6F894DEBF0FBECDBF9093A6
:10402000C5008093C40088E98093C100E0ECF0E013
:1040300080818D7F808386E08093C200188A198AF0
:104040008EE18A8B80E196E09C8B8B8BDE0116964D
:10405000FE01709685E001900D928150E1F7DE013E
:104060001B96FE01369685E001900D928150E1F796
:10407000AEE3B6E0FE013B9685E001900D928150E3
:10408000E1F71B861C868AE08D878EE296E09F878B
:104090008E87DE011196FE013B9685E001900D9220
:1040A0008150E1F7DE015096FE01319685E00190E6
:1040B0000D928150E1F7A9E3B6E0FE01709685E02C
:1040C00001900D928150E1F764960FB6F894DEBF2F
:1040D0000FBECDBFDF91CF910895CF92DF92EF92C7
:1040E000FF920F931F93CF93DF93C82ECFE3D6E0B9
:1040F0008E0101501040EE24FF246894E1F8E00E98
:10410000F11EDD2404C081E090E00E94E915588191
:10411000F8014081242F30E0F701808190E0019781
:104120002817390711F04F5F01C04D2D541759F36F
:10413000F89490913F0680913E06981729F4E1EC9F
:10414000F0E080818062808380913E06E0914106AC
:10415000F0914206E80FF11DC08240913E06242FE7
:1041600030E08091400690E001972817390711F060
:104170004F5F01C040E040933E067894DF91CF91BD
:104180001F910F91FF90EF90DF90CF9008950E94C4
:104190006D200895CF93DF93EC018881882331F05F
:1041A00021960E94C72089918823D9F7DF91CF916A
:1041B000089520913A069091390681E0291709F473
:1041C00080E0089580913A06E0913C06F0913D062A
:1041D000E80FF11D808190913A06492F50E020911F
:1041E0003B0630E0215030404217530711F09F5FEB
:1041F00001C090E090933A0608955058BB27AA2733
:104200000ED04DC13ED130F043D120F031F49F3F6C
:1042100011F41EF433C10EF4E095E7FB29C1E92F38
:104220004FD180F3BA17620773078407950718F018
:1042300071F49EF567C10EF4E0950B2EBA2FA02DF8
:104240000B01B90190010C01CA01A0011124FF2743
:10425000591B99F0593F50F4503E68F11A16F0403E
:10426000A22F232F342F4427585FF3CF469537953D
:104270002795A795F0405395C9F77EF41F16BA0B02
:10428000620B730B840BBAF09150A1F0FF0FBB1FB0
:10429000661F771F881FC2F70EC0BA0F621F731FF9
:1042A000841F48F4879577956795B795F7959E3F56
:1042B00008F0B3CF9395880F08F09927EE0F9795E4
:1042C000879508950CD0EBC0E3D040F0DAD030F001
:1042D00021F45F3F19F0CCC0511115C1CFC0F0D00F
:1042E00098F39923C9F35523B1F3951B550BBB27BD
:1042F000AA2762177307840738F09F5F5F4F220F6A
:10430000331F441FAA1FA9F333D00E2E3AF0E0E862
:1043100030D091505040E695001CCAF729D0FE2FAE
:1043200027D0660F771F881FBB1F26173707480740
:10433000AB07B0E809F0BB0B802DBF01FF279358F6
:104340005F4F2AF09E3F510568F092C0DCC05F3F8E
:10435000ECF3983EDCF3869577956795B795F795DE
:104360009F5FC9F7880F911D9695879597F90895D6
:10437000E1E0660F771F881FBB1F62177307840772
:10438000BA0720F0621B730B840BBA0BEE1F88F781
:10439000E095089504D06894B111B5C0089598D0FF
:1043A00088F09F5790F0B92F9927B751A0F0D1F01E
:1043B000660F771F881F991F1AF0BA95C9F712C0A8
:1043C000B13081F09FD0B1E008959CC0672F782F65
:1043D0008827B85F39F0B93FCCF386957795679514
:1043E000B395D9F73EF490958095709561957F4F80
:1043F0008F4F9F4F0895E89409C097FB3EF4909526
:104400008095709561957F4F8F4F9F4F9923A9F0AD
:10441000F92F96E9BB279395F6958795779567953C
:10442000B795F111F8CFFAF4BB0F11F460FF1BC080
:104430006F5F7F4F8F4F9F4F16C0882311F096E913
:1044400011C0772321F09EE8872F762F05C06623C1
:1044500071F096E8862F70E060E02AF09A95660F7A
:10446000771F881FDAF7880F9695879597F9089533
:1044700097F99F6780E870E060E008959FEF80EC17
:10448000089500240A9416161706180609060895BA
:1044900000240A9412161306140605060895092E20
:1044A0000394000C11F4882352F0BB0F40F4BF2B8F
:1044B00011F460FF04C06F5F7F4F8F4F9F4F0895CF
:1044C00057FD9058440F551F59F05F3F71F04795C5
:1044D000880F97FB991F61F09F3F79F087950895AA
:1044E000121613061406551FF2CF4695F1DF08C0C9
:1044F000161617061806991FF1CF869571056105E6
:1045000008940895E894BB2766277727CB0197F98D
:1045100008950EF0A6C0B2CF6894AACFD9DFC8F331
:104520009923D1F3C6F3DF93CF931F930F93FF9299
:10453000C92FDD2788232AF02197660F771F881F50
:10454000DAF720E030E040E85FEB9FE3883920F0C5
:10455000803E30F021968F7751DEE8E6F0E003C030
:104560004DDEE5E9F0E08BD08B01BE01EC01FB2EC6
:104570006F5771097595771F880B990B3EDF28E1FE
:1045800032E741E35FE316D0AF2D9801AE01FF9013
:104590000F911F91CF91DF9142DE81CF0BD07FCF62
:1045A00070DF28F075DF18F0952309F061CF66CF32
:1045B0001124A9CF85DFA0F3959FD1F3950F50E08B
:1045C000551F629FF001729FBB27F00DB11D639FC5
:1045D000AA27F00DB11DAA1F649F6627B00DA11D6B
:1045E000661F829F2227B00DA11D621F739FB00D11
:1045F000A11D621F839FA00D611D221F749F332781
:10460000A00D611D231F849F600D211D822F762F19
:104610006A2F11249F5750408AF0E1F088234AF016
:10462000EE0FFF1FBB1F661F771F881F9150504062
:10463000A9F79E3F510570F01BCF65CF5F3FECF3AC
:10464000983EDCF3869577956795B795F795E7954E
:104650009F5FC1F7FE2B880F911D9695879597F95F
:1046600008959F3F31F0915020F487957795679595
:10467000B795880F911D9695879597F90895DF93C3
:10468000CF931F930F93FF92EF92DF927B018C01E8
:10469000689405C0DA2EEF018DDFFE01E894A59144
:1046A0002591359145915591AEF3EF01B8DDFE01AD
:1046B0009701A801DA9479F7DF90EF90FF900F91BE
:1046C0001F91CF91DF910895A5E1B0E0EAE6F3E212
:1046D0000C947F274C017F876E87FC01178216821E
:1046E000838181FD04C076C34C855D8504C01E01B5
:1046F0000894211C311CF4019381EE85FF8593FD04
:10470000859193FF8191FF87EE87882309F45EC32B
:10471000853241F493FD859193FF8191FF87EE8768
:10472000853259F490E0B4014C8B5D8B0E941629C0
:104730004C895D895D874C87D7CFFF24DD2410E04D
:104740001032B0F48B3269F08C3228F4803251F0A0
:10475000833271F40BC08D3239F0803349F411602B
:104760002CC01260146029C0186027C0106125C0D9
:1047700017FD2EC0282F20532A3098F416FF08C0AA
:104780008F2D880FF82EFF0CFF0CF80EF20E15C0BF
:104790008D2D880FD82EDD0CDD0CD80ED20E1062B8
:1047A0000CC08E3221F416FD11C3106406C08C3685
:1047B00011F4106802C0883659F4EE85FF8593FD28
:1047C000859193FF8191FF87EE87882309F0B8CF09
:1047D000982F9554933018F41061805E06C0982F7E
:1047E0009556933008F0A2C11F7E16FD02C0E6E088
:1047F000FE2E1F73853611F4106406C0863611F440
:10480000106802C0F110FA9417FF07C0FBE3FF1510
:1048100048F0EF2CE39427E00DC027E02F1530F08F
:104820002F2D07C027E07CE3E72E04C027E067E0D8
:10483000F62EEE24CA0104969D878C87FA016081CA
:10484000718182819381A1010E2D0E94D4275C0188
:10485000C9802C2D30E0398B288BC0FE03C03889ED
:1048600033FF06C011FD06C012FF06C000E205C0FE
:104870000DE203C00BE201C000E0888999898C70C9
:104880009070009709F43CC0002311F084E001C04F
:1048900083E08D1558F4D81A13FD09C080E290E02A
:1048A000B4010E941629DA94C9F701C0DD2400235F
:1048B00029F0802F90E0B4010E941629888983FD99
:1048C00005C036ECE32E30E0F32E11C022ECE22ED0
:1048D00020E0F22E0CC00115110509F0805290E085
:1048E000B4010E9416290894E11CF11C04C0012F98
:1048F00010E000711070F7018491882361F763C2A2
:1049000017FF0EC0EA0CF889F4FF04C08A818133D6
:1049100009F4EA941E144CF528E02E1548F12CC039
:1049200016FD2AC08F2D90E08A159B0544F03CEFC0
:10493000A3163FEFB3061CF0106801C0FA94FF20E5
:1049400049F0E2E0F0E0EC0FFD1FEF0DF11D80817A
:104950008033A1F317FF10C0EF2CE3948F2D90E06C
:10496000A816B90644F4FA1807C0EE24E39404C06C
:1049700098E0E92E01C0FF2417FF07C01A141B049A
:104980003CF495012F5F3F4F05C025E030E002C0A9
:1049900021E030E0002311F02F5F3F4FFF2029F08E
:1049A0008F2D90E00196280F391F8D2D90E028174C
:1049B000390714F4D21A01C0DD24612E7724C30113
:1049C00089709070009749F406C080E290E0B401CD
:1049D0000E941629DA94DD20C1F7002329F0802FE8
:1049E00090E0B4010E94162963FC09C006C080E370
:1049F00090E0B4010E941629DA94DD20C1F717FF78
:104A000048C08501B7FE02C000E010E066247724AC
:104A100095012E1931093B8B2A8B2501401A510A29
:104A2000420C531C6F2D70E0EE24FF24E61AF70AA7
:104A30003FEF0F3F130729F48EE290E0B4010E948C
:104A40001629A016B10654F02A893B892017310790
:104A50002CF4F201E60DF71D818101C080E30150C5
:104A600010400894611C711C0E151F052CF090E07D
:104A7000B4010E941629DCCF0A151B0541F49A8166
:104A8000963320F4953319F4388934FF81E390E0AC
:104A900049C08A81813311F09FEEC92290E0B401B0
:104AA0000E941629FF2089F08EE290E0B4010E9456
:104AB000162912E0F101E10FF11D1F5F808190E0E6
:104AC000B4010E941629FA94A9F764FE03C085E494
:104AD00090E002C085E690E0B4010E941629B7FC80
:104AE00005C0A114B10441F4C4FE06C0B094A19461
:104AF000B108B3948DE201C08BE290E0B4010E9452
:104B0000162980E305C08F5FE6EFFFEFAE0EBF1EF4
:104B1000FAE0AF16B104BCF790E0B4010E94162988
:104B2000C501C096B4010E9416294DC1833631F0EB
:104B3000833789F0833509F059C022C09A012E5F6E
:104B40003F4F3D872C87FA018081898381E0E82EE1
:104B5000F12C510113C09A012E5F3F4F3D872C87E6
:104B6000FA01A080B18016FF03C06F2D70E002C073
:104B70006FEF7FEFC5010E94DC287C011F7714C016
:104B80009A012E5F3F4F3D872C87FA01A080B180AC
:104B900016FF03C06F2D70E002C06FEF7FEFC501FD
:104BA0000E94B4287C01106813FD1CC006C080E27E
:104BB00090E0B4010E941629DA948D2D90E0E81659
:104BC000F906A8F30FC0F50117FD859117FF819134
:104BD0005F0190E0B4010E941629D110DA94089484
:104BE000E108F108E114F10471F7EDC0843611F029
:104BF000893671F59A0117FF0AC02C5F3F4F3D8738
:104C00002C87FA0180819181A281B3810BC02E5F34
:104C10003F4F3D872C87FA0180819181AA2797FD1C
:104C2000A095BA2F012F0F76B7FF08C0B095A095B9
:104C3000909581959F4FAF4FBF4F0068BC01CD014C
:104C4000A1012AE030E00E946429E82EE21841C068
:104C5000853721F41F7E2AE030E020C0197F8F368F
:104C6000A9F0803720F4883509F0B0C00BC0803738
:104C700021F0883709F0AAC001C0106114FF09C0F3
:104C8000146007C014FF08C0166006C028E030E0BA
:104C900005C020E130E002C020E132E0CA0117FF88
:104CA00009C004969D878C87FA0160817181828199
:104CB000938108C002969D878C87FA01608171817B
:104CC00080E090E0A1010E946429E82EE218012F03
:104CD0000F7706FF09C00E7FEF1430F404FF06C003
:104CE00002FD04C00F7E02C01E2D01C01F2D802FAB
:104CF00090E004FF0CC0FE01EE0DF11D2081203379
:104D000011F4097E09C002FF06C01E5F05C0867847
:104D10009070009709F01F5FA02EBB2403FD12C006
:104D200000FF0DC0FE2C1D1550F4FD0CF11A1D2DB9
:104D300006C080E290E0B4010E9416291F5F1D1595
:104D4000C0F304C01D1510F4D11A01C0DD24A4FE67
:104D50000FC080E390E0B4010E941629A2FE1FC09C
:104D6000A1FE03C088E590E010C088E790E00DC088
:104D7000C50186789070009791F0A1FC02C080E296
:104D800001C08BE207FD8DE290E0B4010E9416297C
:104D900006C080E390E0B4010E941629FA94EF1453
:104DA000C0F3EA94F101EE0DF11D808190E0B401B1
:104DB0000E941629EE20A9F706C080E290E0B40117
:104DC0000E941629DA94DD20C1F78ECCF401868189
:104DD000978102C08FEF9FEF6596E2E10C949B27CD
:104DE000629FD001739FF001829FE00DF11D649FCF
:104DF000E00DF11D929FF00D839FF00D749FF00D5B
:104E0000659FF00D9927729FB00DE11DF91F639FFB
:104E1000B00DE11DF91FBD01CF0111240895991BAB
:104E200079E004C0991F961708F0961B881F7A95A1
:104E3000C9F780950895AA1BBB1B51E107C0AA1FA3
:104E4000BB1FA617B70710F0A61BB70B881F991F2B
:104E50005A95A9F780959095BC01CD01089597FBCF
:104E6000092E07260AD077FD04D0E5DF06D0002002
:104E70001AF4709561957F4F0895F6F79095819596
:104E80009F4F0895A1E21A2EAA1BBB1BFD010DC066
:104E9000AA1FBB1FEE1FFF1FA217B307E407F507EA
:104EA00020F0A21BB30BE40BF50B661F771F881FC6
:104EB000991F1A9469F760957095809590959B015C
:104EC000AC01BD01CF01089597FB092E05260ED038
:104ED00057FD04D0D7DF0AD0001C38F45095409518
:104EE000309521953F4F4F4F5F4F0895F6F79095BE
:104EF0008095709561957F4F8F4F9F4F08952F92AA
:104F00003F924F925F926F927F928F929F92AF9259
:104F1000BF92CF92DF92EF92FF920F931F93CF93A6
:104F2000DF93CDB7DEB7CA1BDB0B0FB6F894DEBF3D
:104F30000FBECDBF09942A88398848885F846E8463
:104F40007D848C849B84AA84B984C884DF80EE80AD
:104F5000FD800C811B81AA81B981CE0FD11D0FB6B6
:104F6000F894DEBF0FBECDBFED010895FC01882788
:104F70009927E89421912032E9F3293010F02E305E
:104F8000C8F32B3241F02D3239F4689404C00E94EA
:104F90000E29820F911D219120532A30C0F31EF457
:104FA000909581959F4F0895283008F027E033278A
:104FB000DA01990F311D87FD916000966105710539
:104FC00039F432602E5F3D9330E32A95E1F708957E
:104FD0009F3F30F080387105610509F03C5F3C5F10
:104FE0003D93913008F08068911DDF93CF931F931C
:104FF0000F93FF92EF92192F987F9695E92F969530
:105000009695E90FFF27EC5DFE4F99273327EE2495
:10501000FF24A701E70105900894079428F4360FB0
:10502000E71EF81E491F511D660F771F881F991F25
:105030000694A1F70590079428F4E70EF81E491F7F
:10504000561FC11D770F881F991F661F0694A1F771
:105050000590079428F4F80E491F561FC71FD11D4D
:10506000880F991F661F771F0694A1F70590079474
:1050700020F4490F561FC71FD81F990F661F771FAF
:10508000881F0694A9F784911095177041F0D69562
:10509000C79557954795F794E7941A95C1F7EAECA9
:1050A000F0E0689415901591359165919591059072
:1050B0007FE27395E118F10A430B560BC90BD00937
:1050C000C0F7E10CF11E431F561FC91FD01D7EF40F
:1050D000703311F48A95E6CFE894015030F0080F50
:1050E0000AF40027021708F4202F2395022F7A33A1
:1050F00028F079E37D932A95E9F710C07D932A95EE
:1051000089F6069497956795379517951794E11842
:10511000F10A430B560BC90BD00998F023957E91E9
:1051200073957A3308F070E37C932013B8F77E917F
:1051300070617D9330F0839571E37D9370E32A95E0
:10514000E1F71124EF90FF900F911F91CF91DF9124
:10515000992787FD909508959111089581548A515A
:1051600008F4805E855A0895FC01059061507040F6
:105170000110D8F7809590958E0F9F1F089549EDE7
:1051800053E00E94E7280895FB01DC018D91019016
:1051900080190110D9F3990B0895FB01DC014150EE
:1051A000504048F001900D920020C9F701C01D92B7
:1051B00041505040E0F70895FC016150704001906B
:1051C0000110D8F7809590958E0F9F1F0895FA01D2
:1051D000A191B081009719F41097E1F0CD01DC01A5
:1051E000CD010D90002011F4C00113C0FB012191ED
:1051F000222319F02015D9F7F3CFFB0121912015B7
:1052000019F41E92119606C02223C1F70D900020BA
:10521000A1F7D001FA01A193B08308957AE0979F96
:10522000902D879F802D910D112408950F931F932A
:10523000CF93DF938C01EB018B8181FF1BC082FF39
:105240000DC02E813F818C819D812817390764F420
:10525000E881F9810193F983E88306C0E885F9853F
:10526000802F0995009731F48E819F8101969F834D
:105270008E8302C00FEF1FEFC801DF91CF911F9106
:105280000F910895AEE0B0E0E8E4F9E20C948D27C8
:105290000D891E8986E08C831A8309838FEF9FE72F
:1052A0009E838D83AE01475E5F4FCE0101966F896D
:1052B000788D0E946423EF81F885E00FF11F108242
:1052C0002E96E4E00C94A927FA01AA27283051F180
:1052D000203181F1E8946F936E7F6E5F7F4F8F4F27
:1052E0009F4FAF4FB1E03ED0B4E03CD0670F781F86
:1052F000891F9A1FA11D680F791F8A1F911DA11D6B
:105300006A0F711D811D911DA11D20D009F46894A3
:105310003F912AE0269F11243019305D3193DEF64B
:10532000CF010895462F4770405D4193B3E00FD001
:10533000C9F7F6CF462F4F70405D4A3318F0495DEC
:1053400031FD4052419302D0A9F7EACFB4E0A695CF
:105350009795879577956795BA95C9F700976105F1
:10536000710508959B01AC010A2E06945795479547
:1053700037952795BA95C9F7620F731F841F951F3C
:10538000A01D0895F999FECF92BD81BDF89A992785
:1053900080B50895262FF999FECF1FBA92BD81BD21
:1053A00020BD0FB6F894FA9AF99A0FBE01960895A7
:0453B000F894FFCF9F
:1053B4004D6F6E0054756500576564005468750040
:1053C400467269005361740053756E00636F6C5BC1
:1053D40025645D3D25640A003A2D00446174653AF4
:1053E400200020253032642D253032642D25640AB6
:1053F400003A2D2E0054696D653A20253032643A06
:10540400253032643A253032640A0044533332334F
:10541400313A200020253032642D253032642D2588
:10542400642C20253032643A253032642E25303203
:10543400640A004453333233313A2025642E003059
:105444003020B0430A00323520B0430A0035302002
:10545400B0430A00373520B0430A0054696D653AF9
:1054640020253032643A253032640A0045455052D2
:105474004F4D2072657365740A004E697869652022
:10548400626F6172642076302E310A004552522ECA
:10549400434D445B25735D0A004932432D736361B8
:1054A4006E3A2000307825307820000A006E6F6E46
:1054B4006500456E7465722054696D6520286868BE
:1054C4006D6D7373293A00456E746572204461747E
:1054D40065202864646D6D79793A0025640053650C
:1054E400742D54696D6520455845433A002564255B
:1054F400643A256425643A256425640A0053657476
:105504002D4461746520455845433A00256425645B
:105514002D256425642D25640A0069725B25635D6D
:105524000A0030313233343536373839554C524429
:105534004F4148583F00120B16212C37424D5863F7
:1055440000626D703138303A2073746172745F5444
:10555400206572720A0073746172745F5020657200
:10556400720A00646874323220636865636B737511
:105574006D206572726F720A00446973706C617990
:10558400005570646174650049525F72656376000A
:10559400444854323200424D50313830004E69781C
:1055A400696520626F6172642076302E322C20454A
:1055B4006D696C652C204D617274696A6E2C205281
:1055C4006F6E616C640A00426C616E6B696E672079
:1055D40066726F6D2000253032643A2530326420C3
:1055E400746F20253032643A253032640A00436FE8
:1055F4006D6D616E64204572726F720A004E756D36
:10560400626572204572726F7220282573290A0020
:1056140001252D3131732025356420307825303231
:105624007820202025303364202020253033640A5C
:10563400005461736B2D4E616D6520202054286DDC
:10564400732920537461742054286D7329204D28C4
:065654006D73290A00003D
:00000001FF
