:100000000C9444010C9461010C9461010C94610105
:100010000C9461010C9461010C9461010C946416C0
:100020000C9461010C9461010C9461010C946101C8
:100030000C9461010C9461010C9461010C946101B8
:100040000C9461010C9461010C944E210C940921D3
:100050000C9461010C9461010C9461010C94610198
:100060000C9461010C9461018B06900695069A062A
:100070009F06A406A906E906F206FB0604070D077B
:1000800016071F0761101B11A3105311AA11341278
:1000900093121C182C183C184F185F186F188218F0
:1000A0009218A218B518D518D918DD18E118E51856
:1000B000E918ED18D518D918DD18E118E518E91870
:1000C000ED18D518D918DD18E118E518E918ED185C
:1000D000D518D918DD18E118E518E918ED18D51864
:1000E000D918DD18E118E518E918ED18D518D91850
:1000F000DD18E118E518E918ED18D518D918DD183C
:10010000E118E518E918ED18D518D918DD18E11827
:10011000E518E918ED18D518D918DD18E118961961
:1001200099199D19A119A519A919AD19B119F11993
:10013000F119301A301AEF1BEF1BEF1BEF1BEF1BEF
:10014000EF1BEF1BEF1BEF1BEF1BEF1B7C1A7C1A47
:10015000EF1BEF1BEF1BEF1BEF1BEF1BEF1BEF1B4F
:10016000D21AD21AEF1BEF1BEF1BEF1BEF1BEF1B7B
:10017000EF1BEF1B531B531BB81CD91C071D321D53
:100180005A1D7F1DA11D6E616E00696E66000040E4
:100190007A10F35A00A0724E18090010A5D4E80096
:1001A00000E87648170000E40B54020000CA9A3BAE
:1001B000000000E1F5050000809698000000404234
:1001C0000F000000A08601000000102700000000C2
:1001D000E803000000006400000000000A000000C6
:1001E00000000100000000002C76D888DC674F0872
:1001F00023DFC1DFAE59E1B1B796E5E3E453C63A78
:10020000E651997696E8E6C28426EB898C9B62EDEE
:10021000407C6FFCEFBC9C9F40F2BAA56FA5F490A8
:10022000055A2AF75C936B6CF9676DC11BFCE0E41F
:100230000D47FEF520E6B500D0ED902E0300943575
:1002400077050080841E080000204E0A000000C8C8
:100250000C333333330F986E12831141EF8D211419
:10026000893BE65516CFFEE6DB18D1844B381BF7E9
:100270007C1D901DA4BBE424203284725E22810088
:10028000C9F124ECA1E53D2711241FBECFEFD8E032
:10029000DEBFCDBF14E0A0E0B1E0E2EDF6E502C0C4
:1002A00005900D92A03EB107D9F727E0A0EEB4E08B
:1002B00001C01D92A438B207E1F70E940B1E0C94F6
:1002C000672B0C940000FF920F931F93CF93DF9343
:1002D000182FEB018EEE0E94550BFF24F394813012
:1002E00009F0F12CF11022C0812F0E94A30BFF24F2
:1002F000F394813009F0F12CF11018C08FEE0E94B8
:10030000970BFF24F394813009F0F12CF1100EC00B
:100310000E94B50B082F10E0102F002719830883C7
:100320000E94C00B082B1983088302C0198218820F
:100330000E949A0B8F2DDF91CF911F910F91FF900B
:100340000895FF920F931F93CF93DF93182FEB0124
:100350008EEE0E94550BFF24F394813009F0F12CAE
:10036000F11022C0812F0E94A30BFF24F39481304F
:1003700009F0F12CF11018C08FEE0E94970BFF24AA
:10038000F394813009F0F12CF1100EC00E94B50BEE
:10039000082F10E0102F0027198308830E94C00B3C
:1003A000082B1983088302C0198218820E949A0BB5
:1003B0008F2DDF91CF911F910F91FF9008954F9254
:1003C0005F926F927F928F929F92AF92BF92CF92E5
:1003D000DF92EF92FF921F93CF93DF93CDB7DEB7FB
:1003E00064970FB6F894DEBF0FBECDBF67E275E02D
:1003F0008AEA0E946301182F81114CC26FE575E0F3
:100400008CEA0E946301182F811144C261E675E0F5
:100410008EEA0E946301182F81113CC267E575E0E6
:1004200080EB0E94A101182F811134C26BE375E0AB
:1004300082EB0E94A101182F81112CC269E275E0A4
:1004400084EB0E94A101182F811124C260E775E09E
:1004500086EB0E946301182F81111CC26DE375E0C9
:1004600088EB0E946301182F811114C269E575E0C1
:100470008AEB0E946301182F81110CC262E775E0BC
:100480008CEB0E946301182F811104C261E275E0B8
:100490008EEB0E946301182F8111FCC18091280509
:1004A0008F93809127058F9380E191E09F938F93A5
:1004B000CE0101967C01FF928F930E94C92AC70149
:1004C0000E947522809160058F9380915F058F93C4
:1004D00088E191E09F938F93FF92EF920E94C92A47
:1004E000C7010E947522809162058F9380916105FA
:1004F0008F9380E291E09F938F93FF92EF920E94FF
:10050000C92AC7010E947522809158058F93809156
:1005100057058F9388E291E09F938F93FF92EF921C
:100520000E94C92AC7010E94752280913C058F93C1
:1005300080913B058F9380E391E09F938F93FF928F
:10054000EF920E94C92AC7010E94752280912A0554
:100550008F93809129058F9388E391E09F938F93E8
:10056000FF92EF920E94C92A0FB6F894DEBF0FBE29
:10057000CDBFC7010E947522809171058F93809134
:1005800070058F9380E491E09F938F93FF92EF9299
:100590000E94C92AC7010E94752280913E058F934F
:1005A00080913D058F9388E491E09F938F93FF9214
:1005B000EF920E94C92AC7010E94752280915A05B4
:1005C0008F93809159058F9380E591E09F938F934E
:1005D000FF92EF920E94C92AC7010E947522809162
:1005E00073058F93809172058F9387E591E09F93B8
:1005F0008F93FF92EF920E94C92AC7010E94752231
:10060000809122058F93809121058F938EE591E053
:100610009F938F93FF92EF920E94C92AC7010E9475
:1006200075226091610570916205882777FD80953C
:10063000982F0E94A82320E030E040EA5BE30E946C
:1006400034242B013C0160936B0570936C058093FF
:100650006D0590936E05609157057091580580E087
:1006600090E00E94A6232FE632E143E053E30E948C
:1006700034246B017C0160932F05709330058093C7
:10068000310590933205609170057091710588274E
:1006900077FD8095982F0E94A82320E030E048EC59
:1006A00057E30E9434244B015C016093370570933B
:1006B00038058093390590933A0560913B05709118
:1006C0003C0580E090E00E94A6232DEC3CEC4CE43D
:1006D00054E30E943424609353057093540580932F
:1006E0005505909356056091290570912A0580E083
:1006F00090E00E94A62360932305709324058093C5
:1007000025059093260560917205709173058827E1
:1007100077FD8095982F0E94A8232AE037ED43EAC1
:100720005DE30E94342460935B0570935C058093C5
:100730005D0590935E0560912105709122058827E3
:1007400077FD8095982F0E94A82320E030E040E2BA
:1007500053E40E940D2360934F05709350058093DE
:1007600051059093520560912705709128058827BF
:1007700077FD8095982F0E94A8236093430570937E
:100780004405809345059093460560915F057091FF
:100790006005882777FD8095982F0E94A82320E088
:1007A00030E040EA5CE30E94342460936705709374
:1007B00068058093690590936A0560913D05709185
:1007C0003E05882777FD8095982F0E94A82320E07A
:1007D00030E048E45AE30E94342460933F0570936C
:1007E0004005809341059093420520E030E040E0D1
:1007F00057E4C701B6010E94342460934705709303
:1008000048058093490590934A05A7019601C301C5
:10081000B2010E94342460933305709334058093B1
:10082000350590933605A5019401C701B6010E94D4
:1008300034246093630570936405809365059093F9
:1008400066058CEE91E5A7E1B0E480931D059093D9
:100850001E05A0931F05B093200580E394E3AEE747
:10086000BFE380934B0590934C05A0934D05B09347
:100870004E0580E097E5A4E9B6E380932B059093BD
:100880002C05A0932D05B0932E050FB6F894DEBF6E
:100890000FBECDBF812F64960FB6F894DEBF0FBE9A
:1008A000CDBFDF91CF911F91FF90EF90DF90CF9060
:1008B000BF90AF909F908F907F906F905F904F9080
:1008C0000895CF92DF92EF92FF920F931F93CF93F1
:1008D000DF93C82F8B01E42E8EEE0E94550BCC24A3
:1008E000C394813009F0C12CC1103AC08C2F0E94F2
:1008F000A30BCC24C394813009F0C12CC11030C0AB
:100900008FEE0E94970BCC24C394813009F0C12C48
:10091000C11026C0F12C81E0E81AF1081E141F0452
:10092000CCF090E005C0292F30E02E153F053CF0BB
:10093000E801C90FD11D0E94C00B888311C0DD24BE
:10094000D394D90EE801C90FD11D0E94B50B88833D
:100950009D2DE9CF0E94B50BF801808391E0E3CF94
:100960000E949A0B8C2DDF91CF911F910F91FF90D8
:10097000EF90DF90CF900895CF938EEE0E94550BAD
:10098000C1E0813009F0C0E0C11110C084EF0E94C5
:10099000A30BC1E0813009F0C0E0C11107C08EE2B5
:1009A0000E94A30BC1E0813009F0C0E00E949A0BC5
:1009B0008C2FCF910895BF92CF92DF92EF92FF924A
:1009C0000F931F93CF93DF9300D0CDB7DEB78C0189
:1009D0001A821982BE016F5F7F4F86EF0E94A101CC
:1009E000B82E81113BC069817A8180E090E00E943D
:1009F000A62320912305309124054091250550918F
:100A000026050E94A822209153053091540540915B
:100A10005505509156050E9434246B017C012091AC
:100A20004F053091500540915105509152050E945B
:100A3000A9229B01AC0160915B0570915C058091DE
:100A40005D0590915E050E940D23A70196010E940D
:100A5000A922F80160837183828393838B2D0F9089
:100A60000F90DF91CF911F910F91FF90EF90DF904A
:100A7000CF90BF900895CF93DF93823031F08330D1
:100A800031F0813031F0D4E305C0D4EB03C0D4EFB2
:100A900001C0D4E78EEE0E94550BC1E0813009F011
:100AA000C0E0C11110C084EF0E94A30BC1E08130EF
:100AB00009F0C0E0C11107C08D2F0E94A30BC1E057
:100AC000813009F0C0E00E949A0B8C2FDF91CF910A
:100AD00008952F923F924F925F926F927F928F92E2
:100AE0009F92AF92BF92CF92DF92EF92FF921F93AD
:100AF000CF93DF93CDB7DEB727970FB6F894DEBF5D
:100B00000FBECDBF1C016A017B0143E0BE016F5FD8
:100B10007F4F86EF0E946104182F8111D9C020E019
:100B200030E048EC51E4C701B6010E94A8226B01F5
:100B30007C019B01AC010E9434244B015C01698162
:100B400070E080E090E00E94A82320E030E040E8E0
:100B500053E40E9434242B013C016A8170E080E060
:100B600090E00E94A8239B01AC01C301B2010E9446
:100B7000A9222B013C016B8170E080E090E00E9493
:100B8000A82320E030E040E85BE30E9434249B018E
:100B9000AC01C301B2010E94A9226C837D838E83C4
:100BA0009F8320913F053091400540914105509130
:100BB0004205C501B4010E9434242B013C0120915F
:100BC0006705309168054091690550916A05C70134
:100BD000B6010E9434249B01AC01C301B2010E9402
:100BE000A92220914305309144054091450550913B
:100BF00046050E94A9229B01AC016C817D818E81FA
:100C00009F810E94A8222B013C0120916305309115
:100C100064054091650550916605C501B4010E94C7
:100C200034244B015C01209133053091340540910F
:100C3000350550913605C701B6010E9434249B0149
:100C4000AC01C501B4010E94A92220914705309151
:100C500048054091490550914A050E94A9229B01EF
:100C6000AC01C301B2010E940D236B017C019B0109
:100C7000AC010E94342420912B0530912C05409129
:100C80002D0550912E050E9434244B015C012091CA
:100C90004B0530914C0540914D0550914E05C701D3
:100CA000B6010E9434249B01AC01C501B4010E942D
:100CB000A92220911D0530911E0540911F055091DC
:100CC00020050E94A922F1016083718382839383AE
:100CD000812F27960FB6F894DEBF0FBECDBFDF91F0
:100CE000CF911F91FF90EF90DF90CF90BF90AF908A
:100CF0009F908F907F906F905F904F903F902F903C
:100D0000089590E0FC013197E730F10530F5EC5C97
:100D1000FF4F0C94672885E691E00E9475220895A4
:100D200089E691E00E94752208958DE691E00E9487
:100D30007522089581E791E00E947522089585E764
:100D400091E00E947522089589E791E00E94752242
:100D500008958DE791E00E9475220895AF92BF92A9
:100D6000CF92DF92EF92FF920F931F93CF93DF9377
:100D7000CDB7DEB7E0970FB6F894DEBF0FBECDBF9C
:100D80008C0101960E9437297C01982FF8018081FF
:100D90008C3609F40DC230F4833659F0843609F4E8
:100DA00070C049C2833709F40AC2873709F438C2D0
:100DB00042C2C80103960E9437296C01FF24F7E064
:100DC000EF16F10408F044C0F701E55CFF4F0C9406
:100DD000672880936A06682F84E190E00E94512B77
:100DE000B12C39C080936B06682F86E190E00E9499
:100DF000512BB12C30C080936D06682F88E190E0B4
:100E00000E94512BB12C27C080936906682F8AE17C
:100E100090E00E94512BB12C1EC080936F06682F6A
:100E20008CE190E00E94512BB12C15C080936C0690
:100E3000682F8EE190E00E94512BB12C0CC0809362
:100E40006E06682F80E290E00E94512BB12C03C007
:100E50006894BB24B1F8DD24DF92CF92FF92EF9229
:100E600021E831E03F932F931F930F930E94C92AEB
:100E7000C8010E9475220FB6F894DEBF0FBECDBF29
:100E80000CC2FF2492E0E916F10409F4A3C044F473
:100E9000E114F10491F0EA94EF2809F45BC0E4C195
:100EA00084E0E816F10409F40DC10CF4C6C0E5E0D5
:100EB000EE16F10409F441C1D7C16DE871E0C80133
:100EC00003960E94402A0E9437298C016DE871E048
:100ED00080E090E00E94402A0E9437297C016DE862
:100EE00071E080E090E00E94402A0E943729A82EFD
:100EF000B92E80E991E00E9475224A2D5B2D6E2D5E
:100F0000802F0E943D0D0E948106BF92AF929701F3
:100F100033273F932F93980133273F932F9327E94C
:100F200031E03F932F93CE0101966C01DF928F93B6
:100F30000E94C92AC6010E9475224A2D5B2D6E2D82
:100F4000802F0E94D10D0FB6F894DEBF0FBECDBF2B
:100F5000B12CA3C166EA71E0C80103960E94402A41
:100F60000E9437297C0166EA71E080E090E00E94EF
:100F7000402A0E9437296C0166EA71E080E090E027
:100F80000E94402A0E9437295C0199279F938F93E2
:100F9000C60199279F938F93C70199279F938F939A
:100FA0008AEA91E09F938F938E010F5F1F4F1F93EB
:100FB0000F930E94C92AC8010E9475224A2D6C2DE8
:100FC0008E2D0E941C0D0FB6F894DEBF0FBECDBF54
:100FD000B12C63C1CE0189960E94C60C80EC91E0D1
:100FE0000E94752288A90E9481068BA51F928F936B
:100FF0008AA51F928F9389A51F928F938FA58F9398
:101000008EA58F938DA51F928F938CA51F928F9382
:1010100089EC91E09F938F938E010F5F1F4F1F9379
:101020000F930E94C92AC8010E9475220FB6F89436
:10103000DEBF0FBECDBFB12C30C10E94070E7C01B8
:1010400095958795959587959F938F9388EE91E0D9
:101050009F938F938E010F5F1F4F1F930F930E94DB
:10106000C92AC8010E9475220F900F900F900F900F
:101070000F900F90C701837099278130910581F0FF
:101080001CF4892B39F0F4C08230910579F0039774
:1010900099F0EEC084EF91E00E947522B12CFDC062
:1010A0008BEF91E00E947522B12CF7C082E092E0B4
:1010B0000E947522B12CF1C089E092E00E94752255
:1010C000B12CEBC066EA71E0C80103960E94402A89
:1010D0000E9437298C0166EA71E080E090E00E946E
:1010E000402A0E9437297C01F7E1F01708F4C2C0BA
:1010F0008BE38E1508F4C0C000930405E09203054D
:101100000E94010BFF24FF92EF9211271F930F9370
:1011100080E192E09F938F938E010F5F1F4F1F938B
:101120000F930E94C92AC8010E9475220FB6F89435
:10113000DEBF0FBECDBFB12CB0C066EA71E0C80102
:1011400003960E94402A0E9437298C0166EA71E0CA
:1011500080E090E00E94402A0E9437297C01F7E15C
:10116000F01708F48BC08BE38E1508F489C0009348
:101170000205E09201050E94010BFF24FF92EF920D
:1011800011271F930F938BE392E09F938F938E0110
:101190000F5F1F4F1F930F930E94C92AC8010E941F
:1011A00075220FB6F894DEBF0FBECDBFB12C75C04F
:1011B000983008F067C0E092FB04B12C6EC0FF24A9
:1011C000F1E0EF16F104F9F01CF4EF2851F05EC0E5
:1011D00092E0E916F104D9F0E3E0EE16F104D9F05B
:1011E00055C082E693E00E94752284E692E00E9458
:1011F000752286E792E00E94752285EA92E00E94BD
:101200007522B12C4AC00E94CB0BB12C46C00E9463
:101210008C20B12C42C081E080931905B12C3DC0D7
:101220009330C0F5E09200056E2D82E190E00E94BF
:10123000512BB12C32C01F930F9387EC92E09F93F8
:101240008F938E010F5F1F4F1F930F930E94C92A28
:10125000C8010E9475220F900F900F900F900F9071
:101260000F90BB24B39419C06894BB24B1F815C087
:10127000B12C13C0B12C11C0B12C0FC0B12C0DC0BA
:10128000B12C0BC06894BB24B1F807C06894BB2490
:10129000B1F803C06894BB24B1F88B2DE0960FB66B
:1012A000F894DEBF0FBECDBFDF91CF911F910F919C
:1012B000FF90EF90DF90CF90BF90AF900895809116
:1012C000E20481112CC00E948422882321F10E9413
:1012D0008D2290E00E942D2A9C0133272A3031056F
:1012E00021F02D303105B9F00CC081E08093E2048B
:1012F000E091E304F0E0EC58FA4F10821092E3041E
:101300000AC0E091E30491E09E0F9093E304F0E0C3
:10131000EC58FA4F80838091E204882339F01092D0
:10132000E20484E795E00E94AE06089580E0089507
:10133000BF92CF92DF92EF92FF920F931F93CF93C2
:10134000DF93249A2C9881E090E00E943F162C9A1B
:10135000249880E293E004C00197009709F46DC0DF
:101360001C99FACF80E991E004C00197009709F435
:1013700066C01C9BFACF80E991E004C001970097FA
:1013800009F45FC01C99FACF80E090E020E931E0D9
:10139000E0E9F1E0B0E000E010E0D8E26894BB24BE
:1013A000B7F80F2EFFE8EF2EF02DFF24F394C12C99
:1013B0006894DD24D7F840E951E060E070E0A3B123
:1013C000CA2FC071A4FD2CC0BB2351F1D33298F0B9
:1013D0002E173F0708F4F901DB01CA018E1B9F0B92
:1013E000A109B109B695A79597958795B695A79543
:1013F0009795879507C0DF01A81BB90BA217B30704
:1014000008F00B29B69441F4A12FB0E0A857BA4FC9
:101410000C931F5F0C2DBD2CD1502E2D3F2D05C0E0
:10142000215031092115310571F0DD2311F0BC2F58
:10143000C6CF249A2C9A80E007C08DEF05C08CEFB0
:1014400003C08BEF01C08EEFDF91CF911F910F9101
:10145000FF90EF90DF90CF90BF9008950F931F9370
:10146000CF93DF938C01EB010E949809E8E8F5E047
:10147000208123702083EAE8F5E0908193789083BF
:1014800030E0322F222790918905292BD8012D9306
:101490003C9320812F7730E0322F222790918B05CB
:1014A000292B39832883908199232CF43195219518
:1014B0003109398328832091890590918805920FFD
:1014C00020918A05920F20918B05920F20918C0517
:1014D00029138FEFDF91CF911F910F91089588E02D
:1014E00090E00E94492B8F3F09F041C061E088E005
:1014F00090E00E94512B67E18AE090E00E94512B1E
:101500006EE18CE090E00E94512B67E08EE090E06D
:101510000E94512B6EE180E190E00E94512B62E02D
:1015200082E190E00E94512B60E084E190E00E9413
:10153000512B62E086E190E00E94512B63E088E14C
:1015400090E00E94512B64E08AE190E00E94512BD0
:1015500066E08CE190E00E94512B61E08EE190E02A
:101560000E94512B67E080E290E00E94512B089589
:101570008AE090E00E94492B809304058CE090E083
:101580000E94492B809303058EE090E00E94492B36
:101590008093020580E190E00E94492B8093010531
:1015A00082E190E00E94492B8093000584E190E065
:1015B0000E94492B80936A0686E190E00E94492BA5
:1015C00080936B0688E190E00E94492B80936D0622
:1015D0008AE190E00E94492B809369068CE190E0BB
:1015E0000E94492B80936F068EE190E00E94492B68
:1015F00080936C0680E290E00E94492B80936E06F7
:101600000895609104058AE090E00E94512B60915A
:1016100003058CE090E00E94512B609102058EE062
:1016200090E00E94512B6091010580E190E00E94C2
:10163000512B6091000582E190E00E94512B609156
:101640006A0684E190E00E94512B60916B0686E16E
:1016500090E00E94512B60916D0688E190E00E941D
:10166000512B609169068AE190E00E94512B6091B4
:101670006F068CE190E00E94512B60916C068EE128
:1016800090E00E94512B60916E0680E290E00E94F3
:10169000512B08958C3019F41092B90003C091E0D9
:1016A0009093B9008093B80008950F931F93CF9340
:1016B000DF93082FECEBF0E094EA9083908199237C
:1016C00074F010E0CCEBD0E081E090E00E943F1697
:1016D0001F5F9881992324F01330B1F701C010E007
:1016E0009091B900987F983011F09031B1F4133097
:1016F000B0F40093BB0084E88093BC00ECEBF0E016
:1017000080818823ECF79091B900987F983149F057
:1017100081E0903439F480E005C081E003C081E0CD
:1017200001C080E0DF91CF911F910F9108950E9439
:10173000550B089584E98093BC00ECEBF0E08081C8
:1017400084FDFDCF08958093BB0084E88093BC00A6
:10175000ECEBF0E080818823ECF79091B900987F62
:1017600081E0983209F480E0089584EC8093BC0015
:10177000ECEBF0E080818823ECF78091BB000895CA
:1017800084E88093BC00ECEBF0E080818823ECF7E8
:101790008091BB000895BF92CF92DF92EF92FF92AB
:1017A0000F931F93CF93DF93CDB7DEB7E7970FB6B5
:1017B000F894DEBF0FBECDBF85E0E6EEF2E0DE01BD
:1017C000D39601900D928A95E1F784ED92E00E9404
:1017D000752202E010E0B12C0F2EFFEDCF2EF2E0CB
:1017E000DF2EF02DCE0101967C01802F0E94550B3B
:1017F000811112C01F930F93DF92CF92FF92EF924D
:101800000E94C92AC7010E947522B3940F900F90BD
:101810000F900F900F900F900E949A0B0E5F1F4F2A
:10182000011591E0190709F7B11004C0CE01C39664
:101830000E94752282E693E00E947522E7960FB619
:10184000F894DEBF0FBECDBFDF91CF911F910F91F6
:10185000FF90EF90DF90CF90BF900895982F9695CE
:10186000969596959E70292F220F220F920F8F70BA
:10187000890F089586FF09C0982F9F7085FF02C0C9
:101880008AE001C080E0890F0895982F9F708073CF
:10189000282F30E03595279535952795359527954F
:1018A000822F880F880F280F822F890F0895982F75
:1018B00092959F70990F292F220F220F920F8F70F0
:1018C000890F08959DEC899F912D112496959695E9
:1018D0009695292F220F322F330F330F230F821BA0
:1018E00020E1929F800D112408950F931F93CF93B1
:1018F000DF93082FEB0180ED0E94550B11E0813042
:1019000009F010E0111115C0802F0E94A30B11E007
:10191000813009F010E011110CC081ED0E94550BCF
:1019200011E0813009F010E0111103C00E94C00BDA
:1019300088830E949A0B812FDF91CF911F910F9185
:1019400008951F93CF93DF93182FD62F80ED0E9419
:10195000550BC1E0813009F0C0E0C11110C0812FEA
:101960000E94A30BC1E0813009F0C0E0C11107C0A3
:101970008D2F0E94A30BC1E0813009F0C0E00E94CE
:101980009A0B8C2FDF91CF911F9108951F93CF93C6
:10199000DF93EC0180ED0E94550B11E0813009F0DE
:1019A00010E0111139C080E00E94A30B11E08130DA
:1019B00009F010E0111130C081ED0E94550B11E0CB
:1019C000813009F010E0111127C00E94B50B0E9470
:1019D0002E0C8A830E94B50B0E942E0C89830E94D4
:1019E000B50B0E943A0C88830E94B50B8F830E942E
:1019F000B50B0E942E0C8B830E94B50B0E942E0CFF
:101A00008C830E94C00B0E94570C282F30E020537B
:101A1000384F3E832D8309C01E821D821882198291
:101A20001A8281E08C838B838F830E949A0B812F93
:101A3000DF91CF911F910895CF93DF93C62FD42FBD
:101A40008831C0F46C33B0F44C33A0F40E94620CC3
:101A5000682F82E00E94A10C8C2F0E94620C682FDC
:101A600081E00E94A10C8D2F0E94620C682F80E003
:101A70000E94A10CDF91CF9108958F929F92AF9217
:101A8000BF92CF92DF92EF92FF92CF93C82F6A015D
:101A9000262F30E08EE090E0821B930B6CE070E02C
:101AA0000E941228E12CF12C80ECC80E82E1D81E95
:101AB000E11CF11C4B01AA2497FCA094BA2CC81875
:101AC000D908EA08FB08DB01AA0FBB1F6A0F7B1FBE
:101AD000DB01AA0FBB1FAA0FBB1F2A0F3B1FD90197
:101AE000139729E930E00E947C286E5F7F4F8F4F6B
:101AF0009F4F25E030E040E050E00E944828490137
:101B00005A018C0E911CA11CB11CADE6B1E0A701DD
:101B100096010E948328860E971EA81EB91ED70123
:101B2000C601FF201CF40396A11DB11DB595A79514
:101B300097958795B595A79597958795880E991E42
:101B4000AA1EBB1EC701B60124E630E040E050E00B
:101B50000E944828821A930AA40AB50AC701B6014E
:101B600020E931E040E050E00E944828820E931EB8
:101B7000A41EB51EC501B4016C527D4781099109AF
:101B800027E030E040E050E00E942628862FCF91E9
:101B9000FF90EF90DF90CF90BF90AF909F908F908D
:101BA00008950F931F93CF93DF93182F062F9FEF66
:101BB000980F9F3138F58FEF860F8C3018F5EA01BA
:101BC000C05DD740C83E83E0D807E0F4812F0E9473
:101BD0003D0D682F83E00E94A10C8C2F0E94620CA7
:101BE000682F86E00E94A10C802F0E94620C682F53
:101BF00085E00E94A10C812F0E94620C682F84E076
:101C00000E94A10CDF91CF911F910F9108950F9326
:101C10001F93CF93DF9300D0CDB7DEB7BE016F5FC8
:101C20007F4F81E10E94750C098110E0000F111FA8
:101C3000000F111F811106C0BE016E5F7F4F82E150
:101C40000E94750C9A81929596959695937098013D
:101C5000292B31FF04C03D7F31952195310988231F
:101C600019F080E090E002C0822F932F0F900F9028
:101C7000DF91CF911F910F910895CF92DF92EF9254
:101C8000FF92CF93DF93EC0164567109882777FDAB
:101C90008095982F0E94A8236B017C0120E030E002
:101CA00040E05FE30E94342420E030E048E452E466
:101CB0000E940D230E947523C617D707FCF020E071
:101CC00030E040EC5FE3C701B6010E94342420E01D
:101CD00030E048E452E40E940D2320E030E040E888
:101CE0005FE30E94A9220E94752331E020E06C1777
:101CF0007D070CF430E0832F922F02C080E090E04B
:101D000081709927DF91CF91FF90EF90DF90CF9076
:101D10000895CF92DF92EF92FF92CF93DF93EC0181
:101D20006C597F4F882777FD8095982F0E94A823B4
:101D30006B017C0120E030E040E05FE30E9434244E
:101D400020E030E048E452E40E940D230E94752315
:101D5000C617D707FCF020E030E040EC5FE3C70196
:101D6000B6010E94342420E030E048E452E40E94AE
:101D70000D2320E030E040E85FE30E94A9220E94AA
:101D8000752331E020E06C177D070CF430E0832FE1
:101D9000922F02C080E090E081709927DF91CF916F
:101DA000FF90EF90DF90CF90089582E080938D05B3
:101DB00010928E05089583B183FB222720F9EFE866
:101DC000F5E08081918101969183808380918E05D9
:101DD000853618F086E080938D0580918D058430DE
:101DE00009F451C028F4823051F0833089F108950C
:101DF000853009F46DC0863009F471C00895211151
:101E000074C080918F05909190058039914028F49D
:101E10001092900510928F05089510925B06EEE8DF
:101E2000F5E01082A08181E08A0F8083B0E0EFE8C6
:101E3000F5E080819181AA0FBB1FAF56BA4F119672
:101E40009C938E931182108283E080938D05089578
:101E5000213009F04AC0EEE8F5E0A08181E08A0F68
:101E60008083B0E0EFE8F5E080819181AA0FBB1F8D
:101E7000AF56BA4F11969C938E931182108284E0D4
:101E800080938D050895211118C0EEE8F5E0A0813A
:101E900081E08A0F8083B0E0EFE8F5E080819181F6
:101EA000AA0FBB1FAF56BA4F11969C938E93118207
:101EB000108283E080938D05089580918F05909125
:101EC00090058139914088F085E080938D050895D3
:101ED00021110BC01092900510928F05089581E09A
:101EE00080935B0685E080938D050895AF92BF9245
:101EF000CF92DF92EF92FF920F931F93CF93DF93D6
:101F00005C01FC018485853009F076C0C681D781EB
:101F10008A819B8168E273E20E943D0E892B09F45D
:101F20006DC0F5018085918584309105F1F48C8137
:101F30009D816AEC78E00E94890E892B09F460C0CB
:101F40008E819F8160E372E00E943D0E892B09F42F
:101F500059C0F501158214828FEF9FEFDC01808359
:101F60009183A283B38381E056C0843491050CF43D
:101F70004BC08C819D8164E971E10E94890E892B9F
:101F800009F444C0269600E210E0C12CD12C760161
:101F90008881998160E372E00E943D0E892BC1F136
:101FA0008A819B816AE976E00E94890E892B39F04B
:101FB000CC0CDD1CEE1CFF1C6894C0F80CC08A81A0
:101FC0009B8160E372E00E94890E892B19F1CC0C91
:101FD000DD1CEE1CFF1C0150110924960115110592
:101FE000B9F680E290E0F50195838483C082D182C6
:101FF000E282F38281E00FC080E00DC080E00BC080
:1020000080E009C080E007C080E005C080E003C038
:1020100080E001C080E0DF91CF911F910F91FF9090
:10202000EF90DF90CF90BF90AF900895F89482E04A
:1020300080938D0510928E0578940895CF93F8942F
:1020400021E935E0FC013783268320918E0530E0BD
:102050003187208720915B0630E0338722872091EB
:102060008D05248778940E94760FC82F811102C0B5
:102070000E9416108C2FCF9108954F925F926F920D
:102080007F928F929F92AF92BF92CF92DF92EF9208
:10209000FF920F931F93CF93DF93CDB7DEB7649773
:1020A0000FB6F894DEBF0FBECDBF8091EB0490E079
:1020B0008730910508F0D6C2FC01EE5BFF4F0C940F
:1020C0006728809104018F3021F481E08093EB0434
:1020D000C9C2803121F482E08093EB04C3C288300E
:1020E00048F41092F1041092F0041092EF048093DF
:1020F000EC04B8C2883091F41092F1048091EF049E
:10210000811106C01092F00481E08093EF04AAC20E
:1021100081E08093F1041092EF04A4C2893009F0A9
:10212000A1C21092EF048091F004811106C01092B8
:10213000F10481E08093F00495C281E08093F10482
:102140001092F0048FC2809104018130A1F41092AA
:10215000EA048BEE92E00E9446201092000544E5CE
:1021600050E066E070E080E090E00E94A81C83E010
:102170008093EB0477C28230A1F41092EA048BEED4
:1021800092E00E9446201092000544E450E066E090
:1021900070E080E090E00E94A81C85E08093EB0452
:1021A00061C28330A9F480911805811108C081E0D3
:1021B00080931805109217051092ED0406C08091C7
:1021C0001705811102C0109218051092EB044AC243
:1021D000843009F51092EA048091170581110DC031
:1021E00081E08093170580911805882319F081E01C
:1021F0008093ED04109218050BC08091ED048823A4
:1022000029F081E0809318051092ED0410921705D3
:102210001092EB0427C2893009F024C2809119057D
:10222000813019F41092190503C081E080931905DB
:102230001092EB0417C28091040181110DC010921D
:10224000EA048091F204811104C081E08093F204D9
:1022500027C01092F20424C0813051F41092EA0495
:102260008091EE0481111CC081E08093EE0418C0BF
:102270001092EA04883041F0893051F0873051F4EF
:1022800081E08093000506C082E08093000502C0D3
:10229000109200056091000582E190E00E94512BB0
:1022A0001092EB04DFC1809104018A3020F080316C
:1022B00009F0D8C102C0803169F41092EB0482E1C8
:1022C00090E00E94492B809300058BEE92E00E94E3
:1022D0000020C8C1E091EA04E11103C0833040F05E
:1022E000C1C1E23011F0E43019F4863008F0BAC10F
:1022F000F0E0EC51FB4F80831F928F9383EF92E0CD
:102300009F938F938E010F5F1F4F1F930F930E9418
:10231000C92AC8010E9475226091EA0470E0FB019D
:10232000EC51FB4F808144E550E090E00E94A81CF6
:102330008091EA048F5F8093EA040F900F900F90D2
:102340000F900F900F90863008F48CC184E080933A
:10235000EB0488C1809104018E3009F083C186EFBF
:1023600092E00E9475220F2EF9EEAF2EF4E0BF2E00
:10237000F02DF50180811F928F930F2EF8EE8F2E96
:10238000F4E09F2EF02DF40180811F928F930F2E89
:10239000F7EEEF2EF4E0FF2EF02DF70180811F9273
:1023A0008F930F2EF6EECF2EF4E0DF2EF02DF601F8
:1023B00080811F928F930F2EF5EE4F2EF4E05F2E4B
:1023C000F02DF20180811F928F930F2EF4EE6F2E6D
:1023D000F4E07F2EF02DF30180811F928F9385E032
:1023E00093E09F938F938E010F5F1F4F1F930F9367
:1023F0000E94C92AC8010E947522F4018081880FB9
:10240000482F440F440F840FF5019081890F482F06
:1024100050E0F6018081880F682F660F660F860FE7
:10242000F7019081890F682F70E0F3018081880F98
:10243000982F990F990F890FF2019081890F90E0E1
:102440000E941C0D1092EB0482E190E00E94492B47
:10245000809300058BEE92E00E9400200FB6F89466
:10246000DEBF0FBECDBFFEC0809104018A3020F0D8
:10247000803109F0F7C002C0803169F41092EB049A
:1024800082E190E00E94492B809300058BEE92E060
:102490000E940020E7C0E091EA04E11103C084300B
:1024A00080F0E0C0E13041F49091E404933049F4CD
:1024B000823008F0D7C005C0E23019F4823008F04D
:1024C000D1C0F0E0EC51FB4F80831F928F9383EFDC
:1024D00092E09F938F938E010F5F1F4F1F930F9377
:1024E0000E94C92AC8010E9475226091EA0470E026
:1024F000FB01EC51FB4F808144E450E090E00E94EE
:10250000A81C8091EA048F5F8093EA040F900F90DB
:102510000F900F900F900F90863008F4A3C086E0C4
:102520008093EB049FC0809104018E3009F09AC023
:1025300085E193E00E9475220F2EF8EE8F2EF4E0D5
:102540009F2EF02DF401208130E0C901880F991FE2
:10255000220F331F220F331F220F331F820F931FAF
:102560008053984F0F2EF9EEAF2EF4E0BF2EF02DD2
:10257000F5012081820F911D9F938F930F2EF7EE0F
:10258000EF2EF4E0FF2EF02DF70180811F928F9344
:102590000F2EF6EECF2EF4E0DF2EF02DF601808127
:1025A0001F928F930F2EF5EE4F2EF4E05F2EF02D3D
:1025B000F20180811F928F930F2EF4EE6F2EF4E0C4
:1025C0007F2EF02DF30180811F928F9384E293E0A0
:1025D0009F938F938E010F5F1F4F1F930F930E9446
:1025E000C92AC8010E947522F401808190E0AC01E3
:1025F000440F551F880F991F880F991F880F991F27
:10260000480F591F4053584FF5018081480F511D05
:10261000F6018081880F682F660F660F860FF7011D
:102620009081890F682F70E0F3018081880F982FC7
:10263000990F990F890FF2019081890F90E00E9404
:10264000D10D1092EB0482E190E00E94492B80931F
:1026500000058BEE92E00E9400200FB6F894DEBFDA
:102660000FBECDBF64960FB6F894DEBF0FBECDBFD0
:10267000DF91CF911F910F91FF90EF90DF90CF905E
:10268000BF90AF909F908F907F906F905F904F9092
:1026900008950F931F93CF93DF93CDB7DEB7649761
:1026A0000FB6F894DEBF0FBECDBF8CE596E00E945A
:1026B0001E10882309F4FEC080915C0690915D068F
:1026C000A0915E06B0915F068D3A22E592072FEF4A
:1026D000A207B10509F49CC008F03FC08D3D22E27D
:1026E00092072FEFA207B10509F482C0B8F48F3E1C
:1026F00020E192072FEFA207B10509F4A8C0873E99
:1027000028E192072FEFA207B10509F498C08D3F89
:102710009240AF4FB10509F0AAC072C0873C28E3D0
:1027200092072FEFA207B10509F495C038F48F3C4A
:102730009043AF4FB10509F47EC099C08D3B22E4B0
:1027400092072FEFA207B10509F45EC0853B9A44BA
:10275000AF4FB10509F460C08AC0873628E99207F7
:102760002FEFA207B10509F45EC0F0F48D3922E61F
:1027700092072FEFA207B10599F138F4853A9A45EF
:10278000AF4FB10509F46BC072C0873928E69207D4
:102790002FEFA207B10509F442C085389A47AF4F21
:1027A000B10509F450C063C08F3420EB92072FEFBE
:1027B000A207B105E1F130F48735984AAF4FB10572
:1027C00099F055C08D3322EC92072FEFA207B10587
:1027D00099F08F3F9F4FAF4FBF4F09F444C047C0A0
:1027E0008AE08093040146C08DE08093040142C0DA
:1027F0008BE0809304013EC08CE0809304013AC0DA
:102800008EE08093040136C08FE08093040132C0D3
:1028100080E1809304012EC0109204012BC081E05E
:102820008093040127C082E08093040123C083E0E9
:10283000809304011FC084E0809304011BC085E0E5
:102840008093040117C086E08093040113C087E0E1
:10285000809304010FC088E0809304010BC089E0DD
:102860008093040107C081E18093040103C082E1E9
:1028700080930401E0910401F0E0E65CFC4F80816C
:102880001F928F9382E393E09F938F938E010F5F4C
:102890001F4F1F930F930E94C92AC8010E947522DF
:1028A0000E943D100E9416100F900F900F900F90F5
:1028B0000F900F9064960FB6F894DEBF0FBECDBF99
:1028C000DF91CF911F910F9108950F931F93CF9395
:1028D000DF93CDB7DEB72A970FB6F894DEBF0FBEF1
:1028E000CDBF8AE0E6E0F1E0DE01119601900D92A5
:1028F0008A95E1F785B1887F85B995B18091FB0410
:102900008770892B85B90091FC041091FD042091FA
:10291000FE043091FF0480910501882309F473C0FF
:10292000812F40910005413039F018F04230C1F05C
:1029300030C01092F70434C011110FC08091F70419
:10294000FE01E80FF11D9181192B8F5F8A3008F489
:102950007BC089E08093F70479C01092F70476C0B9
:102960004091F604141791F011274091F704FE01ED
:10297000E40FF11D5181152B4F5F4A3008F468C0F8
:1029800049E04093F7048093F60464C01092F70482
:1029900061C0802F413039F018F04230A1F519C0E4
:1029A0001092F50430C0811111C08091F504FE0130
:1029B000E80FF11D9181092B8F5F8A3018F4809305
:1029C000F50421C089E08093F5041DC01092F50440
:1029D0001AC09091F4048917A1F000279091F50492
:1029E000FE01E90FF11D4181042B9F5F9A3018F41D
:1029F0009093F50408C099E09093F5048093F40453
:102A000002C01092F504E0E280E090E0A0E0B0E8BF
:102A10004BB14F734BB9AC01BD014023512362232D
:102A20007323481759076A077B0711F45D9A01C0A1
:102A30005D98B695A795979587955F9A5F98E150B1
:102A400039F75E9A5E9808C08093F704802FABCF69
:102A50004093F704802FBDCF2A960FB6F894DEBFBF
:102A60000FBECDBFDF91CF911F910F9108950F93AE
:102A70001F93CF93DF93CDB7DEB76E970FB6F89461
:102A8000DEBF0FBECDBF6EE075E080E195E00E9435
:102A90002E0A40911005509111059A01ADECBCEC45
:102AA0000E946D289695879596958795969587951A
:102AB000282F332727FD30956AE0860240195109F7
:102AC00011245F934F933F932F938EE493E09F9352
:102AD0008F938E010F5F1F4F1F930F930E94C92A80
:102AE000C8010E9475220FB6F894DEBF0FBECDBF9D
:102AF0006E960FB6F894DEBF0FBECDBFDF91CF91BB
:102B00001F910F9108950F931F93CF93DF93CDB72C
:102B1000DEB76E970FB6F894DEBF0FBECDBF8091C3
:102B2000F8048130A9F038F0823009F449C08330CC
:102B300009F456C08EC00E94BC04882329F084E6A4
:102B400093E00E94752285C081E08093F80481C0E3
:102B500086E095E00E94DB04882359F01092F80487
:102B600089E793E00E94752282E893E00E94752233
:102B700070C082E08093F80489E793E00E94752298
:102B8000809109058F93809108058F9380910705A7
:102B90008F93809106058F9388E893E09F938F939E
:102BA0008E010F5F1F4F1F930F930E94C92AC80108
:102BB0000E9475220FB6F894DEBF0FBECDBF49C08C
:102BC00084EF0E943B05882339F082E993E00E945C
:102BD00075221092F8043DC083E08093F80439C058
:102BE000409106055091070560910805709109050F
:102BF0008AE095E00E946905182F1092F80489E791
:102C000093E00E947522112329F08FE993E00E943E
:102C100075221FC080910D058F9380910C058F93B5
:102C200080910B058F9380910A058F9385EA93E03D
:102C30009F938F938E010F5F1F4F1F930F930E94DF
:102C4000C92AC8010E9475220FB6F894DEBF0FBED4
:102C5000CDBF6E960FB6F894DEBF0FBECDBFDF912D
:102C6000CF911F910F910895F89460911205709182
:102C700013058091140590911505789408958F920D
:102C80009F92AF92BF92CF92DF92EF92FF926C0130
:102C90000E9434164B015C01E12CF12C0E94341689
:102CA000AB01BC01481959096A097B094C155D053E
:102CB0006E057F0598F3FF90EF90DF90CF90BF9067
:102CC000AF909F908F9008951F920F920FB60F9222
:102CD00011242F933F934F935F936F937F938F9321
:102CE0009F93AF93BF93EF93FF932D9A8091160517
:102CF0008F5F809316058431B8F00E94B61E8091D4
:102D0000120590911305A0911405B0911505019637
:102D1000A11DB11D8093120590931305A093140576
:102D2000B0931505109216050E94DB0E2D98FF91A9
:102D3000EF91BF91AF919F918F917F916F915F9133
:102D40004F913F912F910F900FBE0F901F901895AC
:102D5000BF92CF92DF92EF92FF920F931F93CF9388
:102D6000DF93CDB7DEB76C970FB6F894DEBF0FBE1A
:102D7000CDBF7A8F8B8FF22EE32ED42EC52E4A8DA7
:102D80005B8D633009F067C08FE10E943D0D25E245
:102D9000829F212D1124982F921B9695920F969524
:102DA0009695B92EBB0CBB0CBB0CB91AB81A8B2D5F
:102DB0000F2EFFE1BF2EF02DB80E1F92BF9281EBB8
:102DC00093E09F938F938E010F5F1F4F1F930F937D
:102DD0000E94C92AC8010E9475220F900F900F907F
:102DE0000F900F900F908091FA04813009F118F044
:102DF000823051F1A3C0BC1009C082E0F81211C0AA
:102E0000E1109CC081E08093FA0498C0CB1418F4C0
:102E10001092050593C0BC1420F481E08093050551
:102E20008DC081E08F1508F489C01092050586C019
:102E30004D2D60E083E00E941C0D82E08093FA0437
:102E400081E0809305057AC0E1101092FA0481E0D8
:102E50008093050573C06A3009F067C08FE10E9456
:102E60003D0D25E2829F212D1124982F921B9695CE
:102E7000920F96959695B92EBB0CBB0CBB0CB91A4C
:102E8000B81A8B2D0F2EFFE1BF2EF02DB80E1F921A
:102E9000BF928CEB93E09F938F938E010F5F1F4F38
:102EA0001F930F930E94C92AC8010E9475220F9098
:102EB0000F900F900F900F900F908091F904813038
:102EC00009F118F0823049F139C0BC1009C083E023
:102ED000F81211C0E11032C081E08093F9042EC0D5
:102EE000BC1418F41092050529C0CB1420F481E01D
:102EF0008093050523C082E08F1500F181E0809367
:102F000005051CC04D2D60E082E00E941C0D82E092
:102F10008093F9041092050511C083E08F1510F419
:102F20001092F9041092050509C06350683018F03A
:102F30001092050503C081E0809305056C960FB6DD
:102F4000F894DEBF0FBECDBFDF91CF911F910F91DF
:102F5000FF90EF90DF90CF90BF9008959DEC899FF8
:102F6000912D1124969596959695292F220F322F03
:102F7000330F330F230F9295907F821B8F70892B15
:102F800008950F931F9381111AC01092FB0488B10A
:102F9000807F88B98091FC049091FD04A091FE048B
:102FA000B091FF04BB278A6A9A6AAA6A8093FC04DC
:102FB0009093FD04A093FE04B093FF042BC026E081
:102FC00030E08901081B1109C801880F880F4AE009
:102FD00050E060E070E08A019B0104C0000F111F07
:102FE000221F331F8A95D2F7D901C8014091FC04F2
:102FF0005091FD046091FE047091FF04842B952B89
:10300000A62BB72B8093FC049093FD04A093FE04A1
:10301000B093FF041F910F91089588B1807F88B904
:103020008091F30490E08A30910508F0ACC0FC0177
:10303000E75BFF4F0C94672880E090E0A0E0B1E0F0
:103040008093FC049093FD04A093FE04B093FF04CE
:1030500081E08093F304089581E191E1A1E1B2E080
:103060008093FC049093FD04A093FE04B093FF04AE
:1030700082E08093F304089582E292E2A2E2B0E457
:103080008093FC049093FD04A093FE04B093FF048E
:1030900088B18C6088B983E08093F304089583E35A
:1030A00093E3A3E3B4E08093FC049093FD04A09326
:1030B000FE04B093FF0484E08093F304089584E455
:1030C00094E4A4E4B8E08093FC049093FD04A093FE
:1030D000FE04B093FF0485E08093F304089585E532
:1030E00095E5A5E5B0E88093FC049093FD04A093DA
:1030F000FE04B093FF0488B1896088B986E08093AC
:10310000F304089586E696E6A6E6B0E18093FC0413
:103110009093FD04A093FE04B093FF0487E0809396
:10312000F304089587E797E7A7E7B0E28093FC04EC
:103130009093FD04A093FE04B093FF0488E0809375
:10314000F304089588E898E8A8E8BFEF8093FC04AA
:103150009093FD04A093FE04B093FF0488B18A60AD
:1031600088B989E08093F304089589E999E9A9E988
:10317000BFEF8093FC049093FD04A093FE04B093F2
:10318000FF041092F3040895662331F00E9427296A
:103190006CE370E00E94122890E08C33910508F5F2
:1031A000FC01ED5AFF4F0C94672887E08093FB04E5
:1031B000089581E08093FB04089582E08093FB04EE
:1031C000089584E08093FB04089583E08093FB04DA
:1031D000089585E08093FB04089586E08093FB04C6
:1031E00008951092FB040895CF93DF93CDB7DEB717
:1031F00028970FB6F894DEBF0FBECDBF80910205B1
:10320000821720F490910405291788F0821304C0D6
:1032100080910105381768F48091040582130BC072
:1032200081E090910305391738F480E005C080E013
:1032300003C080E001C081E028960FB6F894DEBF9D
:103240000FBECDBFDF91CF910895BF92CF92DF9295
:10325000EF92FF920F931F93CF93DF93CDB7DEB71B
:10326000E0970FB6F894DEBF0FBECDBF1092FC04FE
:103270001092FD041092FE041092FF04CE010196FC
:103280000E94C60C1092050180EC91E00E9475220C
:103290008B811F928F938A811F928F9389811F92B6
:1032A0008F938F818F938E818F938D811F928F93B8
:1032B0008C811F928F9387EC93E09F938F938E0165
:1032C000075F1F4F1F930F930E94C92AC8010E94D6
:1032D00075220FB6F894DEBF0FBECDBF8091F20409
:1032E000811102C01B8101C010E09091F00499236C
:1032F00029F061E08B810E94C41836C08091EF04F0
:10330000882329F060E08B810E94C4182DC0809131
:10331000F104811129C04091EC0450E0483051057E
:1033200018F5FA01E157FF4F0C9467281092FB043F
:103330001BC081E08093FB0417C082E08093FB04F4
:1033400013C084E08093FB040FC083E08093FB04F0
:103350000BC085E08093FB0407C086E08093FB04EC
:1033600003C087E08093FB040091EE04909119055F
:10337000992319F00E940D18DBC229813A814B81F3
:103380005C816D817E818F8198850E94F418811106
:1033900004C0809118058823C1F0011116C08091E6
:1033A0001705811112C08AEA9AEAAAEAB0E080936E
:1033B000FC049093FD04A093FE04B093FF0488B135
:1033C000807F88B91092FB04B3C2812F90E0FC018A
:1033D0003F97E532F10508F002C2E956FF4F0C9421
:1033E000672888B1807F88B98C810E94AE17182F1A
:1033F0008D810E94AE17412F50E060E070E0032EF7
:103400003CE0440F551F661F771F3A95D1F7302DCA
:10341000482B440F551F661F771F440F551F661F0B
:10342000771F440F551F661F771F440F551F661FD8
:10343000771F4093FC045093FD046093FE04709347
:10344000FF0483E00E94C11786E00E94C1178091AB
:10345000F104882309F46CC282E08093FB0468C203
:1034600088B1807F88B9EE80FF80970136952795D7
:1034700036952795ABE7B4E10E946D288C0116952F
:103480000795802F0E94AE17182F8E2D94E6099F66
:10349000801911240E94AE17412F50E060E070E0C7
:1034A000762F652F542F4427482B440F551F661F36
:1034B000771F440F551F661F771F440F551F661F48
:1034C000771F440F551F661F771F4093FC045093CE
:1034D000FD046093FE047093FF0481E00E94C11715
:1034E00086E00E94C1178091F104882309F420C26C
:1034F00082E08093FB041CC2E0901005F09011055F
:1035000024E6E20EF11C9701ADECBCEC0E946D28A4
:103510008C01169507951695079516950795802F9A
:103520000E94AE17482FC7012AE0029F8019910917
:103530001124A0E0B0E0B06150E060E070E0440F22
:10354000551F661F771F440F551F661F771F440FB7
:10355000551F661F771F440F551F661F771F842B4B
:10356000952BA62BB72B8093FC049093FD04A0937E
:10357000FE04B093FF0481E00E94C11782E00E9424
:10358000C11783E00E94C11788B1807F88B9409A33
:10359000439A8091F104882309F4CAC184E080939E
:1035A000FB04C6C1C0900605D0900705E090080551
:1035B000F0900905C701B6010E947A23162F862FC5
:1035C0000E94AE17082F612F70E080E090E00E940B
:1035D000A8239B01AC01C701B6010E94A82220E0EC
:1035E00030E040E251E40E9434240E947A23462FC6
:1035F00050E060E070E07061802F90E0A0E0B0E00B
:10360000880F991FAA1FBB1F880F991FAA1FBB1FD6
:10361000880F991FAA1FBB1F880F991FAA1FBB1FC6
:10362000482B592B6A2B7B2B4093FC045093FD04B1
:103630006093FE047093FF0488B1807F88B9429A3A
:10364000439A81E00E94C11782E00E94C11783E083
:103650000E94C11786EE93E00E9475221F921F936D
:103660008EE293E09F938F937E0189E0E80EF11C38
:10367000FF92EF920E94C92AC7010E9475220F9003
:103680000F900F900F900F900F901A3018F484E065
:103690000E94C1178091F104882309F449C181E097
:1036A0008093FB0445C1C0900A05D0900B05E090C3
:1036B0000C05F0900D0520E030E048EC52E4C70125
:1036C000B6010E940D230E947A23162F862F0E9496
:1036D000AE17082F94E6199FB0011124882777FDB3
:1036E0008095982F0E94A8239B01AC01C701B601C9
:1036F0000E94A8220E947A23862F0E94AE17B82E1D
:10370000C701B6010E947523882777FD8095982F01
:103710000E94A8239B01AC01C701B6010E94A82208
:1037200020E030E040E251E40E9434240E947A23F9
:10373000462F50E060E070E070618B2D90E0A0E0DB
:10374000B0E0902B880F991FAA1FBB1F880F991FED
:10375000AA1FBB1F880F991FAA1FBB1F880F991F85
:10376000AA1FBB1F482B592B6A2B7B2B4093FC04B1
:103770005093FD046093FE047093FF0488B1807F32
:1037800088B9419A439A81E00E94C11787EF93E07C
:103790000E9475221F921F938EE293E09F938F9356
:1037A0007E0129E0E20EF11CFF92EF920E94C92AED
:1037B000C7010E9475220F900F900F900F900F90ED
:1037C0000F901A3018F482E00E94C1178091F10422
:1037D000882309F4ADC086E08093FB04A9C081E092
:1037E0008093050129813A814B815C816D817E81C5
:1037F0008F8198850E94A81689810E94AE17C82ED5
:103800008A810E94AE17D12CE12CF12CFE2CED2CDC
:10381000DC2CCC24C82A8B810E94AE17FE2CED2C08
:10382000DC2CCC24C82AC092FC04D092FD04E09287
:10383000FE04F092FF0488B1807F88B98091F10482
:10384000882319F083E08093FB048B8180FF12C0F2
:103850008091FC049091FD04A091FE04B091FF04BE
:10386000B8608093FC049093FD04A093FE04B09391
:10387000FF0411C08091FC049091FD04A091FE040E
:10388000B091FF04B0688093FC049093FD04A09372
:10389000FE04B093FF048A8180FF12C08091FC0473
:1038A0009091FD04A091FE04B091FF04B26080935A
:1038B000FC049093FD04A093FE04B093FF0411C098
:1038C0008091FC049091FD04A091FE04B091FF044E
:1038D000B0648093FC049093FD04A093FE04B09325
:1038E000FF0480910505882391F08091FC0490915C
:1038F000FD04A091FE04B091FF04B0628093FC042B
:103900009093FD04A093FE04B093FF0411C0809136
:10391000FC049091FD04A091FE04B091FF04BF7DD2
:103920008093FC049093FD04A093FE04B093FF04E5
:10393000E0960FB6F894DEBF0FBECDBFDF91CF91FA
:103940001F910F91FF90EF90DF90CF90BF9008955F
:103950000F931F93CF93582FC42F062F10E00730DB
:10396000110508F0F9C0F801E454FF4F0C946728E2
:103970008091FC049091FD04A091FE04B091FF049D
:10398000852B8093FC049093FD04A093FE04B093D8
:10399000FF0481E00E94C11782E00E94C11783E00A
:1039A0000E94C11784E00E94C11785E00E94C117E0
:1039B000D3C08091FC049091FD04A091FE04B091CD
:1039C000FF04880F991FAA1FBB1F880F991FAA1FEA
:1039D000BB1F880F991FAA1FBB1F880F991FAA1F03
:1039E000BB1F852B8093FC049093FD04A093FE04E1
:1039F000B093FF0481E00E94C11782E00E94C117CA
:103A000083E00E94C11784E00E94C117A5C0809185
:103A1000FC049091FD04A091FE04B091FF04880F76
:103A2000991FAA1FBB1F880F991FAA1FBB1F880FB2
:103A3000991FAA1FBB1F880F991FAA1FBB1F852B89
:103A40008093FC049093FD04A093FE04B093FF04C4
:103A500081E00E94C11782E00E94C11783E00E94AA
:103A6000C1177AC08091FC049091FD04A091FE04DE
:103A7000B091FF04880F991FAA1FBB1F880F991FC1
:103A8000AA1FBB1F880F991FAA1FBB1F880F991F52
:103A9000AA1FBB1F852B8093FC049093FD04A09369
:103AA000FE04B093FF0481E00E94C11782E00E94EF
:103AB000C11752C08091FC049091FD04A091FE04B6
:103AC000B091FF04880F991FAA1FBB1F880F991F71
:103AD000AA1FBB1F880F991FAA1FBB1F880F991F02
:103AE000AA1FBB1F852B8093FC049093FD04A09319
:103AF000FE04B093FF0481E00E94C1172DC08091A5
:103B0000FC049091FD04A091FE04B091FF04880F85
:103B1000991FAA1FBB1F880F991FAA1FBB1F880FC1
:103B2000991FAA1FBB1F880F991FAA1FBB1F852B98
:103B30008093FC049093FD04A093FE04B093FF04D3
:103B40000BC01092FC041092FD041092FE0410921F
:103B5000FF0488B1807F88B98091FC049091FD04B6
:103B6000A091FE04B091FF04BB27C43569F4B2688C
:103B70008093FC049093FD04A093FE04B093FF0493
:103B800083E08093FB0417C0C43449F08093FC04A5
:103B90009093FD04A093FE04B093FF040CC0B8649E
:103BA0008093FC049093FD04A093FE04B093FF0463
:103BB00082E08093FB04CF911F910F910895E0EB79
:103BC000F0E080818260808382E08093B10083E6B0
:103BD0008093B3001092B200E0E7F0E08081826051
:103BE0008083089584B1877E84B985B1877E85B945
:103BF00084B1876284B985B1887D85B987B18F60CA
:103C000087B988B1807F88B98AB1806E8AB98BB153
:103C10008F718BB90895CF93DF93CDB7DEB76497DB
:103C20000FB6F894DEBF0FBECDBF0E94DF1D0E940D
:103C3000D50E8CE00E944A0B0E94F21D8BE390E0AF
:103C40000E942C2983E390E00E94B3210E94DF01AF
:103C500028EE33E040E050E06BEE72E085E299E15F
:103C60000E94871F22E330E044E650E06CE074E0FD
:103C700085E694E10E94871F24EF31E046E950E099
:103C800063E174E089E493E10E94871F28E833E14F
:103C90004AEF50E06BE174E087E395E10E94871FF3
:103CA00028E833E14EE551E061E274E083E895E114
:103CB0000E94871F78940E946F0A0E94B80A88E2C7
:103CC00094E00E94752282E594E00E947522809122
:103CD00001051F928F93809102051F928F9380910F
:103CE00003051F928F93809104051F928F9381E6A5
:103CF00094E09F938F938E010F5F1F4F1F930F933D
:103D00000E94C92AC8010E9475220FB6F894DEBF2E
:103D10000FBECDBF0F2EF4E7CF2EF5E0DF2EF02D36
:103D20000F2EF8E8EF2EF4E0FF2EF02D0E94011F79
:103D30000E945F09813019F0823031F0F7CF89E7B6
:103D400094E00E947522F2CFDF92CF92FF92EF9221
:103D50001F930F930E94C92AC8010E9475220F90D9
:103D60000F900F900F900F900F90E0CF8091700602
:103D700090917106892B09F443C080E090E050E0F7
:103D800049E1489FF001499FF00D1124E059F94F96
:103D9000208931892115310561F0489FF001499F43
:103DA000F00D1124E059F94F21503109318B208B4E
:103DB00019C0489FF001499FF00D1124E059F94FB7
:103DC0002289338921503109338B228B232B51F4E3
:103DD000489FF001499FF00D1124E059F94F848963
:103DE0008160848B5F5F852F90E0489FF001499F41
:103DF000F00D1124E059F94F20813181232B09F670
:103E00000895AF92BF92CF92DF92EF92FF920F93FD
:103E10001F93CF93DF938091700690917106892B49
:103E200009F46AC0C0E0D0E010E009E10C9FF001A5
:103E30000D9FF00D1124E059F94F84898370833070
:103E400009F04BC00E9434166B017C010C9FC0012D
:103E50000D9F900D11249C012059394F5901D90112
:103E6000ED91FC910995F50184898E7F848B86857F
:103E70009785938B828B0E9434166C157D058E0579
:103E80009F0550F4DC01CB018C199D09AE09BF09D7
:103E90000197A109B10906C0DC01CB018C199D096C
:103EA000AE09BF090C9FF0010D9FF00D1124E059E0
:103EB000F94F968B858BC788D08CE12CF12CC816D6
:103EC000D906EA06FB0648F40C9FF0010D9FF00DA1
:103ED0001124E059F94F908F878B1F5FC12FD0E0DD
:103EE0000C9FF0010D9FF00D1124E059F94F8081D6
:103EF0009181892B09F09ACFDF91CF911F910F917A
:103F0000FF90EF90DF90CF90BF90AF9008954F92C9
:103F10005F926F927F929F92AF92BF92CF92DF9209
:103F2000EF92FF920F931F93CF93DF936C018B015E
:103F30007A0190901A0588E0891598F080917E06A4
:103F400090917F06892B79F0A12C49E1A3944A9D99
:103F5000F0011124E059F94F86859785892BB1F737
:103F600003C086E03DC0A12CA8EEB3E00E946D28FE
:103F70000F2EF8EE4F2EF3E05F2E612C712CF02DFA
:103F8000A30192010E94482889E1A89E50011124B2
:103F9000E501C059D94FD982C8823F872E873B8B14
:103FA0002A8B9701A8EEB3E00E946D28A30192012D
:103FB0000E944828398B288B8C898E7F82608C8B5D
:103FC0001E8A1D8A188E1F8A4CE050E0B801C50178
:103FD0008E58994F0E944E2A939490921A0580E031
:103FE000DF91CF911F910F91FF90EF90DF90CF90D5
:103FF000BF90AF909F907F906F905F904F9008958B
:10400000EF92FF920F931F93CF93DF938C018091D8
:104010007E0690917F06892B79F1C0E0D0E0F12CEB
:104020000F2EF9E1EF2EF02DEC9EC001ED9E900DCC
:104030001124B8018E58994F0E94452A892B69F4A2
:1040400089E18C9FF0018D9FF00D1124E059F94F0B
:1040500084898260848B80E012C0F394CF2DD0E0FD
:10406000EC9EF001ED9EF00D1124E059F94F2685EC
:104070003785232BC9F602C085E001C084E0DF91BB
:10408000CF911F910F91FF90EF900895EF92FF92C3
:104090000F931F93CF93DF938C0180917E069091B5
:1040A0007F06892B79F1C0E0D0E0F12C0F2EF9E1E9
:1040B000EF2EF02DEC9EC001ED9E900D1124B80165
:1040C0008E58994F0E94452A892B69F489E18C9F6B
:1040D000F0018D9FF00D1124E059F94F84898D7FF7
:1040E000848B80E012C0F394CF2DD0E0EC9EF001E1
:1040F000ED9EF00D1124E059F94F26853785232BCD
:10410000C9F602C085E001C084E0DF91CF911F9124
:104110000F91FF90EF900895CF92DF92EF92FF9270
:104120000F931F93CF93DF93CDB7DEB7C655D10959
:104130000FB6F894DEBF0FBECDBF84E2EBEBF4E028
:10414000DE01D39601900D928A95E1F7CE01C396D8
:104150000E94752220917E0630917F06211531053F
:1041600009F447C080E090E0D12C0F2EF9E1CF2E6A
:10417000F02D0F2EFBE9EF2EF4E0FF2EF02D8E0137
:104180000F5F1F4FC89EA001C99E500D1124FA0158
:10419000E059F94F808D8F9387898F9386898F930C
:1041A00085898F9384891F928F933F932F93CA01A0
:1041B0008E58994F9F938F93FF92EF921F930F9377
:1041C0000E94C92AC8010E947522D3948D2D90E0C7
:1041D000C89EF001C99EF00D1124E059F94F2685C3
:1041E00037850FB6F894DEBF0FBECDBF2115310560
:1041F00049F6CA5ADF4F0FB6F894DEBF0FBECDBFE7
:10420000DF91CF911F910F91FF90EF90DF90CF90B2
:1042100008951F920F920FB60F9211242F933F9380
:104220004F935F938F939F93AF93BF93EF93FF93BE
:104230009091800780917F079817E1F0E0E8F7E020
:104240008081A0918207B0918307A80FB11D5C9176
:104250004081242F30E08091810790E0019728175A
:10426000390711F04F5F01C040E040938007509341
:10427000C60005C0E1ECF0E080818F7D8083FF9176
:10428000EF91BF91AF919F918F915F914F913F912E
:104290002F910F900FBE0F901F9018951F920F92A5
:1042A0000FB60F9211242F933F934F935F938F93E9
:1042B0009F93AF93BF93EF93FF93CF93DF931F929F
:1042C000CDB7DEB750917B0740917A07242F30E0BD
:1042D00080917C0790E001972817390711F04F5F14
:1042E00001C040E05417F1F08091C600EAE7F7E022
:1042F0009081A0917D07B0917E07A90FB11D8C938D
:104300004081242F30E080917C0790E001972817AE
:10431000390711F04F5F01C040E040937A071092D7
:10432000790706C08091C600898381E08093790770
:1043300080911B0590911C05019690931C0580931C
:104340001B050F90DF91CF91FF91EF91BF91AF913E
:104350009F918F915F914F913F912F910F900FBE41
:104360000F901F901895CF93DF93CDB7DEB7699765
:104370000FB6F894DEBF0FBECDBF9093C5008093FB
:10438000C40088E98093C100E0ECF0E080818D7F7B
:10439000808386E08093C2001D8A1E8A8EE18F8B07
:1043A00081E597E0998F888F85E0FE017596DE01A3
:1043B0001B9601900D928A95E1F785E0FE013B96F0
:1043C000DE01509601900D928A95E1F785E0FE019D
:1043D0007096AFE7B7E001900D928A95E1F71D8ADC
:1043E0001E8A8AE08F8B8FE697E0998F888F85E011
:1043F000FE017596DE01119601900D928A95E1F706
:1044000085E0FE013196DE01169601900D928A95A7
:10441000E1F785E0FE013696AAE7B7E001900D923C
:104420008A95E1F769960FB6F894DEBF0FBECDBF4F
:10443000DF91CF910895CF92DF92EF92FF920F9389
:104440001F93CF93DF93D82E0F2EF0E8EF2EF7E0D7
:10445000FF2EF02D0FE717E0C1E8D7E0C12C04C014
:1044600081E090E00E943F16F7019081F801808181
:10447000482F50E0288130E021503109421753077E
:1044800011F08F5F01C08C2D981751F3F894909123
:10449000800780917F07981305C0E1ECF0E08081F0
:1044A00080628083EFE7F7E08081A0918207B0917E
:1044B0008307A80FB11DDC924081242F30E080914A
:1044C000810790E001972817390711F04F5F01C06D
:1044D00040E040937F077894DF91CF911F910F9137
:1044E000FF90EF90DF90CF900895CF93DF93EC0192
:1044F0008881882331F021960E941B2289918111A5
:10450000FBCFDF91CF91089520917B0790917A079F
:1045100081E0291301C080E00895EBE7F7E0808196
:10452000A0917D07B0917E07A80FB11D8C9190815D
:10453000492F50E020917C0730E02150310942178B
:10454000530711F09F5F01C090E090937B0708959F
:104550005058BB27AA270ED04DC13ED130F043D1D1
:1045600020F031F49F3F11F41EF433C10EF4E095B6
:10457000E7FB29C1E92F4FD180F3BA176207730710
:104580008407950718F071F49EF567C10EF4E09565
:104590000B2EBA2FA02D0B01B90190010C01CA01FD
:1045A000A0011124FF27591B99F0593F50F4503EA8
:1045B00068F11A16F040A22F232F342F4427585F9A
:1045C000F3CF469537952795A795F0405395C9F7B2
:1045D0007EF41F16BA0B620B730B840BBAF091506A
:1045E000A1F0FF0FBB1F661F771F881FC2F70EC009
:1045F000BA0F621F731F841F48F4879577956795DC
:10460000B795F7959E3F08F0B3CF9395880F08F0C4
:104610009927EE0F9795879508950CD0EBC0E3D0BE
:1046200040F0DAD030F021F45F3F19F0CCC05111E6
:1046300015C1CFC0F0D098F39923C9F35523B1F336
:10464000951B550BBB27AA2762177307840738F001
:104650009F5F5F4F220F331F441FAA1FA9F333D060
:104660000E2E3AF0E0E830D091505040E695001C14
:10467000CAF729D0FE2F27D0660F771F881FBB1FD0
:10468000261737074807AB07B0E809F0BB0B802DAA
:10469000BF01FF2793585F4F2AF09E3F510568F0F6
:1046A00092C0DCC05F3FECF3983EDCF386957795D3
:1046B0006795B795F7959F5FC9F7880F911D9695F8
:1046C000879597F90895E1E0660F771F881FBB1F54
:1046D000621773078407BA0720F0621B730B840B01
:1046E000BA0BEE1F88F7E095089504D06894B111D5
:1046F000B5C0089598D088F09F5790F0B92F9927AA
:10470000B751A0F0D1F0660F771F881F991F1AF0DC
:10471000BA95C9F712C0B13081F09FD0B1E00895C9
:104720009CC0672F782F8827B85F39F0B93FCCF34A
:10473000869577956795B395D9F73EF490958095D2
:10474000709561957F4F8F4F9F4F0895E89409C0F2
:1047500097FB3EF490958095709561957F4F8F4FB4
:104760009F4F9923A9F0F92F96E9BB279395F695CA
:10477000879577956795B795F111F8CFFAF4BB0F48
:1047800011F460FF1BC06F5F7F4F8F4F9F4F16C0AC
:10479000882311F096E911C0772321F09EE8872F36
:1047A000762F05C0662371F096E8862F70E060E0F2
:1047B0002AF09A95660F771F881FDAF7880F96956B
:1047C000879597F9089597F99F6780E870E060E012
:1047D00008959FEF80EC089500240A94161617069A
:1047E00018060906089500240A94121613061406E2
:1047F00005060895092E0394000C11F4882352F045
:10480000BB0F40F4BF2B11F460FF04C06F5F7F4FFC
:104810008F4F9F4F089557FD9058440F551F59F0E3
:104820005F3F71F04795880F97FB991F61F09F3F9D
:1048300079F087950895121613061406551FF2CFC6
:104840004695F1DF08C0161617061806991FF1CF16
:1048500086957105610508940895E894BB2766273D
:104860007727CB0197F908950BD0C4CFB5DF28F097
:10487000BADF18F0952309F0A6CFABCF1124EECF05
:10488000CADFA0F3959FD1F3950F50E0551F629FAB
:10489000F001729FBB27F00DB11D639FAA27F00D99
:1048A000B11DAA1F649F6627B00DA11D661F829FC0
:1048B0002227B00DA11D621F739FB00DA11D621FA5
:1048C000839FA00D611D221F749F3327A00D611DC2
:1048D000231F849F600D211D822F762F6A2F1124A4
:1048E0009F5750408AF0E1F088234AF0EE0FFF1FF7
:1048F000BB1F661F771F881F91505040A9F79E3F2E
:10490000510570F060CFAACF5F3FECF3983EDCF327
:10491000869577956795B795F795E7959F5FC1F76A
:10492000FE2B880F911D9695879597F90895A3E121
:10493000B0E0EDE9F4E20C948E287C011B016A01E1
:10494000FC0117821682838181FF66C3BE016F5FFF
:104950007F4F4B01F7019381F10193FD859193FF07
:1049600081911F01882309F453C3853239F493FDE3
:10497000859193FF81911F01853239F4B70190E051
:104980000E94972A56016501E5CF10E0512C20E0E6
:104990002032A0F48B3269F030F4803259F0833247
:1049A00069F420612CC08D3239F0803339F42160F4
:1049B00026C02260246023C0286021C027FD27C0B4
:1049C00030ED380F3A3078F426FF06C0FAE01F9F2A
:1049D000300D1124132F13C06AE0569E300D1124A0
:1049E000532E20620CC08E3221F426FD11C32064A8
:1049F00006C08C3611F4206802C0883641F4F101FB
:104A000093FD859193FF81911F018111C1CF9BEB94
:104A1000980F933018F42061805E06C09BE9980FD0
:104A2000933008F0AAC12F7E26FF16E02F73722E56
:104A3000853621F4F22FF0647F2E08C0863621F4EB
:104A4000622F6068762E02C01111115077FE07C0E8
:104A50001C3348F444244394410E27E00BC0183023
:104A600030F4212F06C027E04CE3442E03C027E09A
:104A700017E0412C560174E0A70EB11CF6016081CD
:104A8000718182819381042DA4010E9455296C01BA
:104A9000098100FF02C003FF06C071FC07C072FC61
:104AA00008C0612C08C03DE2632E05C02BE2622ED7
:104AB00002C090E2692E802F8C7099F1662011F06F
:104AC00084E001C083E0851510F0512C0BC0581A0A
:104AD00073FC08C0B70180E290E00E94972A5A94C4
:104AE000C9F7F3CF662029F0B701862D90E00E9428
:104AF000972A03FD03C00AE811E002C006E811E0AE
:104B0000F72DF0717F2EF8018491882309F476C285
:104B100071108052B70190E00E94972A0F5F1F4FDB
:104B2000F2CF77FE0FC04C0C04FF04C08A818133A2
:104B300009F44A94141474F5F8E0F41578F588E053
:104B4000482E2CC076FC2AC0812F90E08C159D0544
:104B50009CF06CEFC6166FEFD60674F0772D706878
:104B6000772E0AC0E2E0F0E0EC0FFD1FE10FF11D2F
:104B70008081803319F411501111F4CF77FE0EC0EB
:104B800044244394410E812F90E0C816D9062CF49A
:104B90001C1904C04424439401C010E077FE07C0F0
:104BA0001C141D043CF496012F5F3F4F05C025E007
:104BB00030E002C021E030E0662011F02F5F3F4F6F
:104BC000112331F0412F50E04F5F5F4F240F351F0D
:104BD000452D50E02417350714F4521A01C0512C0A
:104BE000872D897049F4552039F0B70180E290E0B3
:104BF0000E94972A5A94F7CF662029F0B701862D94
:104C000090E00E94972A73FC09C0552039F0B70143
:104C100080E390E00E94972A5A94F7CF77FE5FC016
:104C20009C2D8D2DD7FE02C090E080E0692E782E5D
:104C300040E050E0C601841991099D878C87960158
:104C400026193709280D391D812F90E0EE27FF27FF
:104C5000E81BF90BFF87EE87FFEF6F167F0669F4FD
:104C6000B7018EE290E02B8B3A8B488B598B0E94D8
:104C7000972A598948893A892B89C614D70454F050
:104C80006C857D85661577052CF4F901E40FF51F19
:104C9000818101C080E371E0671A71084F5F5F4F47
:104CA000EE85FF856E167F066CF0B70190E02B8BCA
:104CB0003A8B488B598B0E94972A2B893A894889CD
:104CC0005989CACF6C147D0439F49A81963318F44B
:104CD000953311F404FF81E3B70190E04BC08A8162
:104CE000813309F00F7EB70190E00E94972A1111DD
:104CF00005C074FE18C085E490E017C0B7018EE2CD
:104D000090E00E94972A82E066246394680EF40182
:104D1000E80FF11D8081B70190E00E94972A1150A1
:104D200041F3862DF1CF85E690E0B7010E94972AE6
:104D3000D7FC05C0C114D10439F404FF05C0D194D7
:104D4000C194D1088DE201C08BE2B70190E00E94CE
:104D5000972A80E36AE0C616D1042CF08F5FFAE050
:104D6000CF1AD108F7CFB70190E00E94972AB70178
:104D7000C601C0960E94972A41C1833631F083371D
:104D800079F0833509F058C021C0560172E0A70EB2
:104D9000B11CF6018081898301E010E0640114C038
:104DA0005601F2E0AF0EB11CF601C080D18026FFA3
:104DB00003C0612F70E002C06FEF7FEFC6012B8B45
:104DC0000E945D2A8C012B892F7715C05601F2E0D5
:104DD000AF0EB11CF601C080D18026FF03C0612F49
:104DE00070E002C06FEF7FEFC6012B8B0E94352A67
:104DF0008C012B892068722E23FD1AC0852D90E02E
:104E000008171907A8F4B70180E290E00E94972ADA
:104E10005A94F4CFF60177FC859177FE81916F016A
:104E2000B70190E00E94972A51105A94015011093D
:104E30000115110579F7E2C0843611F0893651F574
:104E4000560127FF09C0F4E0AF0EB11CF6016081E6
:104E50007181828193810AC0F2E0AF0EB11CF6012C
:104E600060817181882777FD8095982F022F0F76BA
:104E700097FF08C090958095709561957F4F8F4FF3
:104E80009F4F00682AE030E0A4010E94EB2AC82E60
:104E9000C8183EC0022F853721F40F7E2AE030E08B
:104EA0001DC0097F8F3691F018F4883559F0B0C0D5
:104EB000803719F0883711F0ABC0006104FF09C0DA
:104EC000046007C024FF08C0066006C028E030E088
:104ED00005C020E130E002C020E132E0560107FFCA
:104EE00009C0F4E0AF0EB11CF601608171818281CE
:104EF000938108C0F2E0AF0EB11CF60160817181B0
:104F000080E090E0A4010E94EB2AC82EC8180F7719
:104F100006FF0BC0202F2E7FC11650F404FF0AC0DD
:104F200002FD08C0202F2E7E05C0DC2C202F03C0E0
:104F3000DC2C01C0D12E24FF0DC0FE01EC0DF11DB3
:104F40008081803311F4297E09C022FF06C0D394EA
:104F5000D39404C0822F867809F0D39423FD13C024
:104F600020FF06C01C2DD51418F4150D1D19D52CC5
:104F7000D51468F4B70180E290E02B8B0E94972A49
:104F8000D3942B89F5CFD51410F45D1801C0512CA2
:104F900024FF12C0B70180E390E02B8B0E94972A78
:104FA0002B8922FF17C021FF03C088E590E002C0D3
:104FB00088E790E0B7010CC0822F867859F021FD78
:104FC00002C080E201C08BE227FD8DE2B70190E0D4
:104FD0000E94972AC11638F4B70180E390E00E943E
:104FE000972A1150F7CFCA94F401EC0DF11D80817E
:104FF000B70190E00E94972AC110F5CF552009F41F
:10500000C2CCB70180E290E00E94972A5A94F6CF72
:10501000F7018681978102C08FEF9FEF6396E2E1EF
:105020000C94AA2897FB072E16F4009407D077FD5E
:1050300009D00E94C52807FC05D03EF490958195C3
:105040009F4F0895709561957F4F0895A1E21A2EA4
:10505000AA1BBB1BFD010DC0AA1FBB1FEE1FFF1F1C
:10506000A217B307E407F50720F0A21BB30BE40B6C
:10507000F50B661F771F881F991F1A9469F76095B3
:105080007095809590959B01AC01BD01CF0108956D
:10509000052E97FB1EF400940E945F2857FD07D051
:1050A0000E94262807FC03D04EF40C945F285095EC
:1050B0004095309521953F4F4F4F5F4F0895909504
:1050C0008095709561957F4F8F4F9F4F0895EE0F9C
:1050D000FF1F0590F491E02D0994A29FB001B39FAA
:1050E000C001A39F700D811D1124911DB29F700DF1
:1050F000811D1124911D08950E946D28B7FF089508
:10510000821B930B08950E946D28A59F900DB49F5C
:10511000900DA49F800D911D112408952F923F9210
:105120004F925F926F927F928F929F92AF92BF92B7
:10513000CF92DF92EF92FF920F931F93CF93DF9363
:10514000CDB7DEB7CA1BDB0B0FB6F894DEBF0FBEC0
:10515000CDBF09942A88398848885F846E847D840D
:105160008C849B84AA84B984C884DF80EE80FD800F
:105170000C811B81AA81B981CE0FD11D0FB6F89485
:10518000DEBF0FBECDBFED010895AA1BBB1B51E1D1
:1051900007C0AA1FBB1FA617B70710F0A61BB70BA7
:1051A000881F991F5A95A9F780959095BC01CD014C
:1051B00008958F929F92AF92BF92CF92DF92EF921B
:1051C000FF92CF93DF93EC01688179818A819B8183
:1051D000611571058105910521F464E279ED8BE596
:1051E00097E02DE133EF41E050E00E94482849016B
:1051F0005A019B01AC01A7EAB1E40E9483286B012C
:105200007C01ACEEB4EFA50194010E94622BC60EA6
:10521000D71EE81EF91EF7FE06C081E0C81AD108A5
:10522000E10880E8F80AC882D982EA82FB82C601D6
:105230009F77DF91CF91FF90EF90DF90CF90BF905D
:10524000AF909F908F9008950E94D928089580E094
:1052500091E00E94D9280895A0E0B0E08093000179
:1052600090930101A0930201B09303010895FC0102
:1052700088279927E89421912032E9F3293010F00A
:105280002E30C8F32B3241F02D3239F4689404C02B
:105290000E948F2A820F911D219120532A30C0F342
:1052A0001EF4909581959F4F0895283008F027E0CF
:1052B0003327DA01990F311D87FD91600096610552
:1052C000710539F432602E5F3D9330E32A95E1F7A2
:1052D00008959F3F30F080387105610509F03C5F0B
:1052E0003C5F3D93913008F08068911DDF93CF9330
:1052F0001F930F93FF92EF92192F987F9695E92FA6
:1053000096959695E90FFF27E851FE4F9927332789
:10531000EE24FF24A701E70105900894079428F4E0
:10532000360FE71EF81E491F511D660F771F881F95
:10533000991F0694A1F70590079428F4E70EF81E2C
:10534000491F561FC11D770F881F991F661F06949E
:10535000A1F70590079428F4F80E491F561FC71FA0
:10536000D11D880F991F661F771F0694A1F705901E
:10537000079420F4490F561FC71FD81F990F661FA7
:10538000771F881F0694A9F784911095177041F034
:10539000D695C79557954795F794E7941A95C1F711
:1053A000EEE8F1E06894159015913591659195912D
:1053B00005907FE27395E118F10A430B560BC90B78
:1053C000D009C0F7E10CF11E431F561FC91FD01DA5
:1053D0007EF4703311F48A95E6CFE894015030F0F2
:1053E000080F0AF40027021708F4202F2395022F34
:1053F0007A3328F079E37D932A95E9F710C07D93FD
:105400002A9589F606949795679537951795179479
:10541000E118F10A430B560BC90BD00998F02395FC
:105420007E9173957A3308F070E37C932013B8F77C
:105430007E9170617D9330F0839571E37D9370E38D
:105440002A95E1F71124EF90FF900F911F91CF91D2
:10545000DF91992787FD90950895911108958154C2
:105460008A5108F4805E855A0895FC0105906150C8
:1054700070400110D8F7809590958E0F9F1F08956A
:1054800040EE54E00E94682A0895FB01DC018D91F2
:10549000019080190110D9F3990B0895FB01DC01EB
:1054A0004150504048F001900D920020C9F701C0D2
:1054B0001D9241505040E0F70895FC01615070404A
:1054C00001900110D8F7809590958E0F9F1F089539
:1054D000FA01A191B081009719F41097E1F0CD0184
:1054E000DC01CD010D90002011F4C00113C0FB01BF
:1054F0002191222319F02015D9F7F3CFFB01219137
:10550000201519F41E92119606C02223C1F70D90A2
:105510000020A1F7D001FA01A193B08308957AE0A9
:10552000979F902D879F802D910D112408950F93A3
:105530001F93CF93DF93182F092FEB018B8181FDF0
:1055400003C08FEF9FEF20C082FF10C04E815F81AC
:105550002C813D81421753077CF4E881F9819F013A
:105560002F5F3F4F39832883108306C0E885F98574
:10557000812F0995892B29F72E813F812F5F3F4F7E
:105580003F832E83812F902FDF91CF911F910F9119
:105590000895AEE0B0E0EFECFAE20C949C280D899F
:1055A0001E8986E08C831A8309838FEF9FE79E8391
:1055B0008D83AE01475E5F4F6F89788DCE01019676
:1055C0000E949724EF81F885E00FF11F10822E963C
:1055D000E4E00C94B828FA01AA27283051F12031D0
:1055E00081F1E8946F936E7F6E5F7F4F8F4F9F4F77
:1055F000AF4FB1E03ED0B4E03CD0670F781F891FB9
:105600009A1FA11D680F791F8A1F911DA11D6A0F86
:10561000711D811D911DA11D20D009F468943F9139
:105620002AE0269F11243019305D3193DEF6CF0138
:105630000895462F4770405D4193B3E00FD0C9F7FE
:10564000F6CF462F4F70405D4A3318F0495D31FD6B
:105650004052419302D0A9F7EACFB4E0A6959795BE
:10566000879577956795BA95C9F700976105710594
:1056700008959B01AC010A2E0694579547953795DE
:105680002795BA95C9F7620F731F841F951FA01D38
:105690000895F999FECF92BD81BDF89A992780B5FA
:1056A0000895262FF999FECF1FBA92BD81BD20BD66
:1056B0000FB6F894FA9AF99A0FBE01960895B7FFBB
:1056C0000C9483280E948328821B930B0895F894DE
:0256D000FFCF0A
:1056D2000100000012010B16212C37424D586300C5
:1056E2004143313A25640A004143323A25640A00B3
:1056F2004143333A25640A004143343A25640A009F
:105702004143353A25640A004143363A25640A008A
:105712005642313A25640A005642323A25640A005A
:105722004D423A25640A004D433A25640A004D442D
:105732003A25640A004D6F6E005475650057656422
:105742000054687500467269005361740053756EA7
:1057520000636F6C5B25645D3D25640A003A2D0091
:10576200446174653A200020253032642D253032A0
:10577200642D25640A003A2D2E0054696D653A2085
:10578200253032643A253032643A253032640A00D8
:105792004453333233313A200020253032642D25F0
:1057A2003032642D25642C20253032643A25303283
:1057B200643A253032640A004453333233313A209A
:1057C20025642E00303020B0430A00323520B04329
:1057D2000A00353020B0430A00373520B0430A00B2
:1057E20053746172742D54696D6520666F72206204
:1057F2006C616E6B696E67204E69786965733A20D9
:10580200253032643A253032640A00456E642D54E4
:10581200696D6520666F7220626C616E6B696E677E
:10582200204E69786965733A20253032643A253012
:1058320032640A004E6978696520626F6172642081
:1058420076302E320A004D616E7566616374757230
:10585200656420627920582D4C656E7420456C6514
:105862006374726F6E69637320616E642076644C38
:105872006F67740A00436F70797269676874207089
:10588200726F746563746564206279204475746311
:1058920068206C61770A004552522E434D445B25C5
:1058A200735D0A004932432D7363616E3A20003002
:1058B2007825307820006E6F6E6500446973706CD5
:1058C2006179002564005365742D54696D65204526
:1058D2005845433A00256425643A256425643A25EF
:1058E2006425640A005365742D446174652045582B
:1058F20045433A00256425642D256425642D2564DD
:105902000A0069725B25635D0A0030313233343537
:1059120036373839554C52444F4148583F00646835
:105922007432323A2052483D25642E2564202525C2
:105932002C200A00626D703138303A207374617223
:10594200745F54206572720A00626D703138303AA9
:105952002000546572720A0025342E316620B0434D
:105962000A0073746172745F50206572720A00508B
:105972006572720A0025342E3166206D6261720AE8
:10598200006C73756E30333D25640A006C73756E5E
:1059920031303D25640A0020253032642D25303215
:1059A200642D25642C20253032643A253032642E51
:1059B200253032640A00426C616E6B5F7A65726FE9
:1059C2002054656D702000426C616E6B5F7A657267
:1059D2006F20507265737375726520005570646133
:1059E20074650049525F72656376004448543232EE
:1059F20000424D50313830004E6978696520626F3F
:105A02006172642076302E322C20456D696C652CD3
:105A1200204D617274696A6E2C20526F6E616C64E3
:105A22000A00426C616E6B696E672066726F6D2050
:105A320000253032643A2530326420746F202530DC
:105A420032643A253032640A00436F6D6D616E64D0
:105A5200204572726F720A004E756D626572204542
:105A620072726F7220282573290A00252D31317335
:105A720020253564203078253032782020202530CA
:105A82003364202020253033640A005461736B2D67
:105A92004E616D6520202054286D73292053746156
:105AA200742054286D7329204D286D73290A000033
:00000001FF
