:100000000C94B5000C94D2000C94D2000C94D20045
:100010000C94D2000C94D2000C94D2000C947F1853
:100020000C94D2000C94D2000C94D2000C94D20008
:100030000C94D2000C94D2000C94D2000C94D200F8
:100040000C94D2000C94D2000C94E2260C94A126BD
:100050000C94D2000C94D2000C94D2000C94D200D8
:100060000C94D2000C94D2006E616E00696E660032
:1000700000407A10F35A00A0724E18090010A5D45F
:10008000E80000E87648170000E40B54020000CABC
:100090009A3B000000E1F505000080969800000002
:1000A00040420F000000A086010000001027000061
:1000B0000000E803000000006400000000000A00E7
:1000C000000000000100000000002C76D888DC67EA
:1000D0004F0823DFC1DFAE59E1B1B796E5E3E45342
:1000E000C63AE651997696E8E6C28426EB898C9B5F
:1000F00062ED407C6FFCEFBC9C9F40F2BAA56FA5FF
:10010000F490055A2AF75C936B6CF9676DC11BFC80
:10011000E0E40D47FEF520E6B500D0ED902E03009B
:10012000943577050080841E080000204E0A0000E8
:1001300000C80C333333330F986E12831141EF8DA7
:100140002114893BE65516CFFEE6DB18D1844B38E7
:100150001BF77C1D901DA4BBE424203284725E2218
:100160008100C9F124ECA1E53D2711241FBECFEF8A
:10017000D8E0DEBFCDBF13E0A0E0B1E0ECE0F2E6F6
:1001800002C005900D92AE3FB107D9F716E0AEEF71
:10019000B3E001C01D92A837B107E1F70E94012228
:1001A0000C9404310C9400001F93CF93DF93182F0D
:1001B000D62F8CEE0E949B0CC1E0813009F0C0E08C
:1001C000CC2381F4812F0E94110DC1E0813009F010
:1001D000C0E0CC2339F48D2F0E94110DC1E0813095
:1001E00009F0C0E00E94080D8C2FDF91CF911F9184
:1001F00008951F93CF93DF93182FEB018CEE0E948D
:100200009B0C91E0813009F090E09883992301F5EF
:10021000812F0E94110D91E0813009F090E09883C8
:100220009923B1F48DEE0E94050D91E0813009F023
:1002300090E09883992321F40E942E0DC82F01C0CD
:10024000C0E00E94080D8C2FDF91CF911F9108957F
:10025000C0E0F7CF0F931F93CF93DF93082FEB01ED
:100260000E94F900182F802F8F5FBE010E94F900B5
:10027000382F20E0812F90E0282B392B822F932FCD
:10028000DF91CF911F910F910895CF92DF92FF924E
:100290000F931F93CF93DF93F82E162FE901188247
:1002A000662389F0C42ED52E00E0802F8F0DBE016D
:1002B0000E94F900F60181936F010F5F011719F099
:1002C0008881882391F3DF91CF911F910F91FF9047
:1002D000DF90CF9008950F931F93CF93DF930F92EA
:1002E000CDB7DEB7198288E8BE016F5F7F4F0E94ED
:1002F0002A0190933504809334048AE8BE016F5F2D
:100300007F4F0E942A0190933904809338048CE82F
:10031000BE016F5F7F4F0E942A0190934E0480932D
:100320004D048EE8BE016F5F7F4F0E942A019093BB
:1003300043048093420480E9BE016F5F7F4F0E94B7
:100340002A0190933C0480933B0482E9BE016F5FD5
:100350007F4F0E942A01909345048093440484E9CE
:10036000BE016F5F7F4F0E942A0190933E048093ED
:100370003D0486E9BE016F5F7F4F0E942A01909382
:1003800041048093400488E9BE016F5F7F4F0E9463
:100390002A019093500480934F048AE9BE016F5F55
:1003A0007F4F0E942A0190933304809332048CE99A
:1003B000BE016F5F7F4F0E942A0190934704809394
:1003C00046048EE9BE016F5F7F4F0E942A01909321
:1003D0004C0480934B0481EABE016F5F7F4F0E9403
:1003E000F90080933A0481EEBE016F5F7F4F0E9457
:1003F0002A01909352048093510483EEBE016F5FF3
:100400007F4F0E94F90080934A0484EEBE016F5F23
:100410007F4F0E94F900082F85EEBE016F5F7F4F6E
:100420000E94F900182F282F30E02F703070802F95
:1004300090E082959295907F9827807F9827822BD5
:10044000932B909337048093360486EEBE016F5F42
:100450007F4F0E94F90012951F70212F30E090E02D
:1004600082959295907F9827807F9827282B392B0B
:10047000309349042093480487EEBE016F5F7F4F9D
:100480000E94F90080933F0489810F90DF91CF9102
:100490001F910F910895EF92FF921F93CF93DF93D7
:1004A000CDB7DEB76F970FB6F894DEBF0FBECDBFE6
:1004B000198280EDBE016F5F7F4F0E94F900182FF7
:1004C00080E091E00E9409288981882329F080E159
:1004D00091E00E94092857C089E191E00E94092813
:1004E000103661F586E291E00E94092880EE66EB05
:1004F0000E94D400898382E090E00E94551889818F
:10050000882309F040C08AE291E00E9409280E94F5
:100510006B0191E0882309F490E0998385E391E0F1
:100520000E9409288981882321F08DE391E00E94AF
:10053000092886E291E00E94092825C000D000D059
:1005400000D0EDB7FEB73196EE24FF246894E1F8B1
:10055000EC0EFD1EADB7BEB71296FC92EE9211974F
:1005600082E491E093838283148315820E946E302B
:100570008DB79EB706960FB6F8949EBF0FBE8DBF7F
:10058000C7010E94092882EF61E00E94D40089839C
:1005900085EF60E10E94D400898384EF67E50E94C3
:1005A000D4006F960FB6F894DEBF0FBECDBFDF91BB
:1005B000CF911F91FF90EF9008958F929F92AF92ED
:1005C000BF92CF92DF92EF92FF920F931F93CF9340
:1005D000DF93CDB7DEB76F970FB6F894DEBF0FBECF
:1005E000CDBF1F8E8AEFBE01615E7F4F0E94F90072
:1005F000082F8BEFBE01615E7F4F0E94F900C82E6D
:100600008CEFBE01615E7F4F0E94F900DD24EE2475
:10061000FF24CC0CDD1CEE1CFF1CCC0CDD1CEE1CE6
:10062000FF1CCC0CDD1CEE1CFF1CCC0CDD1CEE1CDE
:10063000FF1C402F50E060E070E0032E3CE0440FD0
:10064000551F661F771F3A95D1F7302D4C295D292C
:100650006E297F2982958F7090E0A0E0B0E0482B52
:10066000592B6A2B7B2B8091340490913504A0E0A8
:10067000B0E06A017B01689413F8F594E794D7948D
:10068000C7941694D1F7C81AD90AEA0AFB0A6894E3
:1006900012F875956795579547951694D1F7880F79
:1006A000991FAA1FBB1F8A019B01081B190B2A0B4C
:1006B0003B0BC901B801209138043091390444271B
:1006C00037FD4095542F0E94B72D4B015C01072E3A
:1006D0007BE0B594A794979487947A95D1F7702D81
:1006E000C701B601A70196010E94B72D052E5CE057
:1006F00095958795779567955A95D1F7502D2091C7
:100700004D0430914E04442737FD4095542F0E94EC
:10071000B72D6B017C010B2EBEE0F594E794D794C6
:10072000C794BA95D1F7B02D8C0C9D1CAE1CBF1C84
:100730008092530490925404A0925504B0925604AF
:10074000D501C401880F991FAA1FBB1F880F991FCD
:10075000AA1FBB1F880D991DAA1DBB1D80589F4F46
:10076000AF4FBF4FC92EDA2EEB2EFF24E7FCFA94D1
:100770002DB73EB7285030400FB6F8943EBF0FBE9D
:100780002DBFEDB7FEB731968E010F5F1F4FADB78E
:10079000BEB712961C930E93119780E591E0938358
:1007A0008283C482D582E682F7820E946E302DB7A2
:1007B0003EB7285F3F4F0FB6F8943EBF0FBE2DBF28
:1007C000C8010E9409286C2D7D2D8E2D9F2D6F96BE
:1007D0000FB6F894DEBF0FBECDBFDF91CF911F9152
:1007E0000F91FF90EF90DF90CF90BF90AF909F90D0
:1007F0008F9008953F924F925F926F927F928F9267
:100800009F92AF92BF92CF92DF92EF92FF920F939F
:100810001F93CF93DF93CDB7DEB7AD970FB6F894A4
:10082000DEBF0FBECDBF1F8E87EFBE01615E7F4F63
:100830000E94F900382E88EFBE01615E7F4F0E9452
:10084000F900182F89EFBE01615E7F4F0E94F90009
:10085000082F8090530490905404A0905504B090B9
:100860005604B594A7949794879480E096E0AFEFF0
:10087000BFEF880E991EAA1EBB1EA50194015595B7
:100880004795379527955595479537952795CA01EB
:10089000B9010E94B72D68A379A38AA39BA3A09155
:1008A0004F04B0915004BDA3ACA3E0914004F0917B
:1008B0004104FFA3EEA320913D0430913E0439A7EB
:1008C00028A76091440470914504882777FD80959E
:1008D000982F28A139A14AA15BA1012E1DE05595B1
:1008E0004795379527951A95D1F7102D0E94B72D6A
:1008F0006B017C01689412F8F594E794D794C7943F
:100900001694D1F760913B0470913C04882777FDE1
:100910008095982FA50194010E94B72DDC01CB0191
:10092000B595A795979587958C0D9D1DAE1DBF1DFF
:10093000072E72E1B595A795979587957A95D1F78A
:10094000702DBC01CD01605070488F4F9F4F20919A
:1009500042043091430440E050E00E94B72DDC0196
:10096000CB012C013D01032E3FE075946794579411
:1009700047943A95D1F7302D411451046104710424
:1009800009F45CC1812F90E0A0E0B0E0880F991FCE
:10099000AA1FBB1F880F991FAA1FBB1F880F991F73
:1009A000AA1FBB1F880F991FAA1FBB1F432D50E012
:1009B00060E070E0032E3CE0440F551F661F771F78
:1009C0003A95D1F7302D482B592B6A2B7B2B02956A
:1009D0000F70802F90E0A0E0B0E08A019B01082B0F
:1009E000192B2A2B3B2B0AA71BA72CA73DA768A1D5
:1009F00079A18AA19BA1052E5BE0959587957795B6
:100A000067955A95D1F7502D0CA11DA19801442747
:100A100037FD4095542F0E94B72D6B017C010EA12C
:100A20001FA1B801882777FD8095982FA501940113
:100A30000E94B72DDC01CB01880F991FAA1FBB1F95
:100A4000C80ED91EEA1EFB1EF594E794D794C794EE
:100A5000F594E794D794C7948AA59BA5ACA5BDA5AA
:100A6000B095A095909581959F4FAF4FBF4F08A52A
:100A700019A5A801662757FD6095762FBA0155275D
:100A80004427C40ED51EE61EF71E0B2EBCE0F594BF
:100A9000E794D794C794BA95D1F7B02D8C199D09D6
:100AA000AE09BF09BC01CD0125E33CE040E050E0C8
:100AB0000E94B72DDC01CB0180509040A04BBC437D
:100AC0006AF0BC01CD01660F771F881F991FA30133
:100AD00092010E94092E69017A010CC0BC01CD016E
:100AE000A30192010E94092E69017A01CC0CDD1C40
:100AF000EE1CFF1CA7019601689412F856954795C5
:100B0000379527951694D1F780914B0490914C041A
:100B10004C01AA2497FCA094BA2CCA01B9010E94E6
:100B2000B72DDC01CB019C01AD01012E1DE05695D6
:100B30004795379527951A95D1F7102DC501B40122
:100B40000E94B72D4B015C01072E7CE0B594A79461
:100B5000979487947A95D1F7702DC701B601969531
:100B60008795779567959695879577956795209161
:100B7000460430914704442737FD4095542F0E9486
:100B8000B72DDC01CB01072E7DE0B595A795979594
:100B900087957A95D1F7702D880E991EAA1EBB1ED7
:100BA0008091320490913304AA2797FDA095BA2F23
:100BB000880E991EAA1EBB1E689413F8B594A794BC
:100BC000979487941694D1F7C80CD91CEA1CFB1C87
:100BD000C701B6012AE030E040E050E00E94092E53
:100BE000C22ED32EE42EF52E8DB79EB708970FB6E2
:100BF000F8949EBF0FBE8DBFEDB7FEB731968E0144
:100C00000F5F1F4FADB7BEB712961C930E9311978F
:100C100089E591E0938382832483358346835783D8
:100C20000E946E30EDB7FEB738960FB6F894FEBF4F
:100C30000FBEEDBFC8010E94092803C0CC24DD24EB
:100C400076016C2D7D2D8E2D9F2DAD960FB6F894CF
:100C5000DEBF0FBECDBFDF91CF911F910F91FF90EF
:100C6000EF90DF90CF90BF90AF909F908F907F904C
:100C70006F905F904F903F9008954F925F926F9268
:100C80007F928F929F92AF92BF92CF92DF92EF921C
:100C9000FF920F931F93CF93DF93CDB7DEB76F977C
:100CA0000FB6F894DEBF0FBECDBF1F8E8DEFBE0115
:100CB000615E7F4F0E94F900182F8EEFBE01615ECA
:100CC0007F4F0E94F900082F8091530490915404A3
:100CD000A0915504B09156040F2EF0E0CF2EF4ED04
:100CE000DF2EFEEFEF2EFFEFFF2EF02DC80ED91EE8
:100CF000EA1EFB1E2091480430914904442737FD29
:100D00004095542FC701B6010E94B72DDC01CB01DD
:100D100040E050E460E070E04A015B01881A990A03
:100D2000AA0ABB0A412F50E060E070E0762F652FE1
:100D3000542F442710E020E030E0402B512B622B51
:100D4000732B032E3EE0440F551F661F771F3A9505
:100D5000D1F7302D8091360490913704AA2797FD62
:100D6000A095BA2F072E74E1880F991FAA1FBB1FE9
:100D70007A95D1F7702D481B590B6A0B7B0B840EAB
:100D8000951EA61EB71E24013501032E3FE0769462
:100D90006794579447943A95D1F7302D20914A049F
:100DA00030E040E050E0C701B6010E94B72D4B0192
:100DB0005C01072E7BE0B694A794979487947A956C
:100DC000D1F7702D80E090E8A0E0B0E0880E991E89
:100DD000AA1EBB1E20913F04332727FD3095432FC9
:100DE000532FC701B6010E94B72DDC01CB019C0136
:100DF000AD01012E1AE056954795379527951A951E
:100E0000D1F7102DC501B4010E94B72D052E5AE06F
:100E100096958795779567955A95D1F7502D60509F
:100E20007040804E9F4F20915104309152044427CE
:100E300037FD4095542F0E94B72DDC01CB01805027
:100E4000904EAF4FBF4F9C01AD01012E1EE0569555
:100E50004795379527951A95D1F7102DC301B20103
:100E60000E94B72D6B017C019B01AC01012E1FE09C
:100E700056954795379527951A95D1F7102DCA01A4
:100E8000B9010E94B72D689416F8969587957795C5
:100E900067951694D1F720913A0430E040E050E095
:100EA0000E94B72DDC01CB01689413F8B695A79585
:100EB000979587951694D1F7C81AD90AEA0AFB0ABA
:100EC00091E0C91690E0D90690E0E90699E1F906AB
:100ED00050F00F2EF0E0CF2EF0E0DF2EF0E0EF2EFE
:100EE000F9E1FF2EF02DC701B601052E5CE09695C5
:100EF0008795779567955A95D1F7502D2DE730E076
:100F000040E050E00E94B72D6B017C01689416F818
:100F1000F694E794D794C7941694D1F7ADB7BEB7BB
:100F200018970FB6F894BEBF0FBEADBFEDB7FEB7B2
:100F300031968E010F5F1F4F12961C930E931197DF
:100F400082E691E093838283C482D582E682F7822F
:100F50000E946E308DB79EB708960FB6F8949EBF6C
:100F60000FBE8DBFC8010E9409286C2D7D2D8E2DCE
:100F70009F2D6F960FB6F894DEBF0FBECDBFDF91E9
:100F8000CF911F910F91FF90EF90DF90CF90BF9086
:100F9000AF909F908F907F906F905F904F9008954B
:100FA0008430F9F0853038F4823089F08330A0F451
:100FB000813051F507C08630F1F08630B8F08730C7
:100FC00019F51EC08BE691E00E94092808958FE66E
:100FD00091E00E940928089583E791E00E94092882
:100FE000089587E791E00E94092808958BE791E032
:100FF0000E94092808958FE791E00E94092808952A
:1010000083E891E00E9409280895CF92DF92EF9241
:10101000FF920F931F93CF93DF93CDB7DEB7E09787
:101020000FB6F894DEBF0FBECDBF7C0101960E94C3
:10103000E22E082FD7018C918D3609F48FC28E369F
:1010400050F4843609F492C08C3609F480C2833699
:1010500009F00AC310C0833709F4C0C2843720F4F2
:10106000803709F001C3A9C2863709F4D7C2873790
:1010700009F0FAC2EDC2C70103960E94E22ED82EF3
:10108000033051F1043028F40130A1F00230D8F4DB
:1010900008C0053099F1053040F1063009F040C034
:1010A00036C08093550584E190E06D2D0E94F630A6
:1010B00010E037C080935D0586E190E06D2D0E94C1
:1010C000F63010E02EC08093600588E190E06D2D31
:1010D0000E94F63010E025C080934D058AE190E033
:1010E0006D2D0E94F63010E01CC0809363058CE1EA
:1010F00090E06D2D0E94F63010E013C080935E05E5
:101100008EE190E06D2D0E94F63010E00AC08093D1
:10111000620580E290E06D2D0E94F63010E001C083
:1011200012E0EDB7FEB738970FB6F894FEBF0FBECA
:10113000EDBF3196ADB7BEB71296FC92EE92119705
:1011400087E891E09383828304831582D682178295
:101150000E946E30EDB7FEB738960FB6F894FEBF1A
:101160000FBEEDBFC7010E940928B9C2023009F4C1
:10117000B8C0033030F4002371F0013009F098C298
:1011800064C0043009F44DC1043008F4EFC00530E8
:1011900009F08EC291C103E911E0C7010396B801BD
:1011A0000E94EB2F0E94E22EE82E80E090E0B80132
:1011B0000E94EB2F0E94E22ED82E80E090E0B80132
:1011C0000E94EB2F0E94E22EF82EC92E86E991E0B4
:1011D0000E9409288E2D6D2D4F2D5C2D0E94AA0E88
:1011E0000E94D0078DB79EB70A970FB6F8949EBF9E
:1011F0000FBE8DBFEDB7FEB731968E010F5F1F4F4B
:10120000ADB7BEB712961C930E9311978DE991E07E
:1012100093838283E4821582D6821782F086C18608
:101220000E946E30EDB7FEB73A960FB6F894FEBF47
:101230000FBEEDBFC8010E9409288E2D6D2D4F2DC8
:101240005C2D0E94480F10E04AC20CEA11E0C70171
:101250000396B8010E94EB2F0E94E22EF82E80E048
:1012600090E0B8010E94EB2F0E94E22ED82E80E081
:1012700090E0B8010E94EB2F0E94E22EE82E8DB77D
:101280009EB70A970FB6F8949EBF0FBE8DBFEDB7FD
:10129000FEB731968E010F5F1F4FADB7BEB71296E6
:1012A0001C930E93119780EB91E093838283F482D9
:1012B0001582D6821782E08611860E946E30EDB7C5
:1012C000FEB73A960FB6F894FEBF0FBEEDBFC80149
:1012D0000E9409288F2D6D2D4E2D0E94890E10E041
:1012E000FEC1CE0189960E94340E86EC91E00E94E8
:1012F000092888A90E94D0078DB79EB740970FB6DE
:10130000F8949EBF0FBE8DBFEDB7FEB731968E012C
:101310000F5F1F4FADB7BEB712961C930E93119778
:101320008FEC91E0938382838CA5848315828DA5B5
:10133000868317828EA59FA59187808789A582873E
:1013400013868AA5848715868BA5868717860E94B3
:101350006E30EDB7FEB770960FB6F894FEBF0FBEB5
:10136000EDBFC8010E94092810E0B9C10E94850F95
:101370007C0100D000D000D0EDB7FEB731968E01D1
:101380000F5F1F4FADB7BEB712961C930E93119708
:101390008EEE91E093838283C7019595879595950D
:1013A0008795958384830E946E30EDB7FEB736969D
:1013B0000FB6F894FEBF0FBEEDBFC8010E9409280A
:1013C000F3E0EF22FF2481E0E816F104C1F092E09F
:1013D000E916F10424F4E114F10459F06BC1A2E020
:1013E000EA16F10491F0B3E0EB16F10409F062C1E2
:1013F00012C08AEF91E00E94092810E070C181E0DC
:1014000092E00E94092810E06AC188E092E00E9400
:10141000092810E064C18FE092E00E94092810E0E2
:101420005EC10CEA11E0C7010396B8010E94EB2FE0
:101430000E94E22ED82E80E090E0B8010E94EB2FAF
:101440000E94E22E082FE7E1ED1508F435C18C3338
:1014500008F034C1D0921404809313040E94470C06
:101460008DB79EB708970FB6F8949EBF0FBE8DBF7D
:10147000EDB7FEB731967E010894E11CF11CADB7C3
:10148000BEB71296FC92EE92119786E192E093839A
:101490008283D4821582068317820E946E30EDB754
:1014A000FEB738960FB6F894FEBF0FBEEDBFC7016A
:1014B0000E94092810E013C10CEA11E0C70103964D
:1014C000B8010E94EB2F0E94E22ED82E80E090E01F
:1014D000B8010E94EB2F0E94E22E082FF7E1FD15C4
:1014E00008F4EEC08C3308F0EDC0D0921204809363
:1014F00011040E94470C8DB79EB708970FB6F89459
:101500009EBF0FBE8DBFEDB7FEB731967E0108942A
:10151000E11CF11CADB7BEB71296FC92EE9211978A
:1015200081E492E093838283D482158206831782BA
:101530000E946E30EDB7FEB738960FB6F894FEBF36
:101540000FBEEDBFC7010E94092810E0C8C00830D7
:1015500008F0BAC000930A0410E0C1C0053008F0DA
:10156000B5C0043031F500D000D000D0EDB7FEB7E3
:1015700031968E010F5F1F4FADB7BEB712961C9309
:101580000E9311978AE692E0938382838091B5034C
:10159000848315820E946E30EDB7FEB736960FB683
:1015A000F894FEBF0FBEEDBFC8010E94092810E0ED
:1015B00096C00093B50310E092C0023008F088C0D6
:1015C000C70103960E94E22E002321F00E94E41A34
:1015D00010E085C00E94B21C10E081C0013071F0A3
:1015E000013030F0023071F0033009F073C00EC0EA
:1015F0008AE792E00E94092810E071C00E94390D2C
:1016000010E06DC00E94F02510E069C090912504A3
:1016100081E089278093250410E061C0013069F0E2
:10162000013020F0023009F057C00EC081E08093F5
:1016300056051092610510E052C081E08093560576
:101640008093610510E04BC01092560510E047C032
:10165000033008F043C00093100482E190E0602F53
:101660000E94F63010E03BC000D000D000D0EDB7B3
:10167000FEB731968E010F5F1F4FADB7BEB7129602
:101680001C930E9311978DE892E093838283F582E9
:10169000E4820E946E30EDB7FEB736960FB6F8942E
:1016A000FEBF0FBEEDBFC8010E94092811E017C0A0
:1016B00012E015C010E013C010E011C010E00FC020
:1016C00010E00DC010E00BC012E009C012E007C02E
:1016D00012E005C012E003C012E001C012E0812F49
:1016E000E0960FB6F894DEBF0FBECDBFDF91CF916D
:1016F0001F910F91FF90EF90DF90CF900895809110
:10170000FF03882349F50E941828882309F10E94C5
:10171000212890E00E94D82F8A3019F08D3071F482
:1017200017C081E08093FF038091FE03E7E5F4E0BA
:10173000E80FF11D10821092FE030AC09091FE0383
:10174000E7E5F4E0E90FF11D80839F5F9093FE03CE
:101750008091FF03882339F01092FF0387E594E01E
:101760000E940508089580E0089588E090E00E94B6
:10177000EE308F3F09F041C088E090E061E00E94C8
:10178000F6308AE090E067E10E94F6308CE090E06D
:101790006EE10E94F6308EE090E067E00E94F63045
:1017A00080E190E06EE10E94F63082E190E062E03C
:1017B0000E94F63084E190E060E00E94F63086E11D
:1017C00090E062E00E94F63088E190E064E00E94E0
:1017D000F6308AE190E063E00E94F6308CE190E020
:1017E00066E00E94F6308EE190E061E00E94F63003
:1017F00080E290E067E00E94F63008958AE090E091
:101800000E94EE30809314048CE090E00E94EE3051
:10181000809313048EE090E00E94EE3080931204D7
:1018200080E190E00E94EE308093110482E190E02C
:101830000E94EE308093100484E190E00E94EE302C
:101840008093550586E190E00E94EE3080935D051F
:1018500088E190E00E94EE30809360058AE190E09C
:101860000E94EE3080934D058CE190E00E94EE30B6
:10187000809363058EE190E00E94EE3080935E05D8
:1018800080E290E00E94EE308093620508958AE045
:1018900090E0609114040E94F6308CE090E060913A
:1018A00013040E94F6308EE090E0609112040E94D2
:1018B000F63080E190E0609111040E94F63082E100
:1018C00090E0609110040E94F63084E190E0609115
:1018D00055050E94F63086E190E060915D050E941A
:1018E000F63088E190E0609160050E94F6308AE170
:1018F00090E060914D050E94F6308CE190E060919F
:1019000063050E94F6308EE190E060915E050E94D2
:10191000F63080E290E0609162050E94F630089512
:101920008C3019F41092B90003C091E09093B90083
:101930008093B80008950F931F93CF93DF93182FD0
:10194000ECEBF0E084EA80838081882374F000E08F
:10195000CCEBD0E081E090E00E9455180F5F8881C9
:10196000882324F00330B1F701C000E08091B90072
:10197000887F883011F08031B1F40330B0F41093D7
:10198000BB0084E88093BC00ECEBF0E0808188230E
:10199000ECF79091B900987F983149F081E090344C
:1019A00039F480E005C081E003C081E001C080E03F
:1019B000DF91CF911F910F910895CF93DF93ECEBBF
:1019C000F0E024EAA9EBB0E0CBEBD0E034E844E966
:1019D000208390819923ECF79C91987F983011F0A7
:1019E0009031B1F78883308390819923ECF79C91F3
:1019F000987F903211F0983529F44083908194FDBE
:101A0000FDCFE6CFDF91CF9108950E949B0C089502
:101A100084E98093BC00ECEBF0E0808184FDFDCF95
:101A200008958093BB0084E88093BC00ECEBF0E069
:101A300080818823ECF79091B900987F81E09832FB
:101A400009F480E0089584EC8093BC00ECEBF0E0B6
:101A500080818823ECF78091BB00089584E880930F
:101A6000BC00ECEBF0E080818823ECF78091BB00B8
:101A70000895AF92BF92CF92DF92FF920F931F9380
:101A8000CF93DF93CDB7DEB7E7970FB6F894DEBFFD
:101A90000FBECDBFDE01D396EEEAF2E085E0019005
:101AA0000D928150E1F78AE992E00E94092802E054
:101AB00010E0FF246E010894C11CD11C0F2EF5EA22
:101AC000AF2EF2E0BF2EF02D802F0E949B0C8823BA
:101AD000F1F400D000D000D0EDB7FEB73196ADB72D
:101AE000BEB71296DC92CE921197B382A282158372
:101AF00004830E946E308DB79EB706960FB6F89499
:101B00009EBF0FBE8DBFC6010E940928F3940E949C
:101B1000080D0E5F1F4F91E000301907A9F6FF2056
:101B200021F4CE01C3960E9409288CEA92E00E941B
:101B30000928E7960FB6F894DEBF0FBECDBFDF9140
:101B4000CF911F910F91FF90DF90CF90BF90AF90FA
:101B50000895282F2F70982F9695969596959E709C
:101B6000892F880F880F980F892F820F0895282FAB
:101B700030E086FF08C08F7025FF02C02AE001C058
:101B800020E0820F08958F7036952795369527951A
:101B9000369527952670922F990F990F290F820F4E
:101BA0000895982F92959F70990F292F220F220F39
:101BB000920F8F70890F08956AE00E94D62D82954A
:101BC000807F890F08950F931F93CF93DF93082F82
:101BD000EB0180ED0E949B0C11E0813009F010E0D8
:101BE0001123A9F4802F0E94110D11E0813009F01A
:101BF00010E0112361F481ED0E94050D11E08130A8
:101C000009F010E0112319F40E942E0D88830E9420
:101C1000080D812FDF91CF911F910F9108951F9390
:101C2000CF93DF93182FD62F80ED0E949B0CC1E03D
:101C3000813009F0C0E0CC2381F4812F0E94110D86
:101C4000C1E0813009F0C0E0CC2339F48D2F0E942F
:101C5000110DC1E0813009F0C0E00E94080D8C2F09
:101C6000DF91CF911F9108951F93CF93DF93EC01E4
:101C700080ED0E949B0C11E0813009F010E01123EF
:101C8000C1F580E00E94110D11E0813009F010E0F3
:101C9000112379F581ED0E94050D11E0813009F0E5
:101CA00010E0112331F50E94230D0E94A90D8A83B3
:101CB0000E94230D0E94A90D89830E94230D0E947A
:101CC000B70D88830E94230D8F830E94230D0E94ED
:101CD000A90D8B830E94230D0E94A90D8C830E9465
:101CE0002E0D0E94D10D90E08053984F9E838D83DE
:101CF00009C01E821D82188219821A8281E08C839B
:101D00008B838F830E94080D812FDF91CF911F91CC
:101D10000895CF93DF93C62FD42F8831C0F46C334E
:101D2000B0F44C33A0F40E94DC0D682F82E00E94D6
:101D30000F0E8C2F0E94DC0D682F81E00E940F0E89
:101D40008D2F0E94DC0D682F80E00E940F0EDF9126
:101D5000CF9108954F925F926F927F928F929F9250
:101D6000AF92BF92CF92DF92EF92FF92482E4A013C
:101D7000262F30E08EE090E0821B930B6CE070E049
:101D80000E94F62DAA24BB2480EC92E1A0E0B0E0F2
:101D9000880E991EAA1EBB1ECB01AA2797FDA095EF
:101DA000BA2F881A990AAA0ABB0ACB01880F991F71
:101DB000680F791F660F771F660F771F620F731FFB
:101DC000882777FD8095982F29E930E040E050E0A2
:101DD0000E94B72D695C71408040904025E030E062
:101DE00040E050E00E942B2E69017A01C40CD11C06
:101DF000E11CF11CC501B4012DE631E040E050E0EA
:101E00000E94B72D2B013C014C0C5D1C6E1C7F1CED
:101E1000C501B40124E030E040E050E00E942B2EE8
:101E200069017A01C40CD51CE61CF71CC501B4017C
:101E300024E630E040E050E00E942B2EC21AD30A84
:101E4000E40AF50AC501B40120E931E040E050E0C0
:101E50000E942B2EC20ED31EE41EF51EC701B60132
:101E60006C527D478040904027E030E040E050E0F9
:101E70000E94092E862FFF90EF90DF90CF90BF90A9
:101E8000AF909F908F907F906F905F904F9008954C
:101E90000F931F93CF93DF93C82FD62F81508F318D
:101EA00038F5862F81508C3018F58A01005D174077
:101EB00083E0083E1807E0F48C2F0E94AA0E682FDA
:101EC00083E00E940F0E802F0E94DC0D682F86E0B9
:101ED0000E940F0E8D2F0E94DC0D682F85E00E945E
:101EE0000F0E8C2F0E94DC0D682F84E00E940F0ED5
:101EF000DF91CF911F910F910895682F8150873006
:101F000018F483E00E940F0E08950F931F93CF9350
:101F1000DF9300D0CDB7DEB781E1BE016F5F7F4FA9
:101F20000E94E30D098110E0000F111F000F111F27
:101F3000882331F482E1BE016E5F7F4F0E94E30D82
:101F40002A81229526952695237030E0022B132BAB
:101F500011FF04C01D7F109501951F4F882311F0BC
:101F600000E010E0802F912F0F900F90DF91CF9124
:101F70001F910F910895CF92DF92EF92FF92CF932E
:101F8000DF93EC01882777FD8095982F0E943C29EC
:101F90006B017C0120E030E040E05FE30E94C82953
:101FA00020E030E048E452E40E94A1280E94092980
:101FB000DC01CB01C817D90704F1C701B60120E045
:101FC00030E040EC5FE30E94C82920E030E048E4C4
:101FD00052E40E94A12820E030E040E85FE30E9444
:101FE0003D280E940929AB01BC0181E090E04C171B
:101FF0005D072CF480E090E002C080E090E090E08B
:10200000DF91CF91FF90EF90DF90CF900895CF9226
:10201000DF92EF92FF92CF93DF93EC016456704012
:10202000882777FD8095982F0E943C296B017C01C1
:1020300020E030E040E05FE30E94C82920E030E08B
:1020400048E452E40E94A1280E940929DC01CB0146
:10205000C817D90704F1C701B60120E030E040EC11
:102060005FE30E94C82920E030E048E452E40E9487
:10207000A12820E030E040E85FE30E943D280E9474
:102080000929AB01BC0181E090E04C175D072CF4FD
:1020900080E090E002C080E090E090E0DF91CF919E
:1020A000FF90EF90DF90CF900895CF92DF92EF9264
:1020B000FF92CF93DF93EC016C597F4F882777FD18
:1020C0008095982F0E943C296B017C0120E030E034
:1020D00040E05FE30E94C82920E030E048E452E499
:1020E0000E94A1280E940929DC01CB01C817D90749
:1020F00004F1C701B60120E030E040EC5FE30E944C
:10210000C82920E030E048E452E40E94A12820E001
:1021100030E040E85FE30E943D280E940929AB01BE
:10212000BC0181E090E04C175D072CF480E090E06A
:1021300002C080E090E090E0DF91CF91FF90EF90BF
:10214000DF90CF90089582E080936B0410926C042E
:10215000089521E01B9B20E080916D0490916E0416
:10216000019690936E0480936D0480916C04853683
:1021700018F086E080936B0480916B04843009F43E
:102180005BC0853030F4823059F0833009F08BC069
:1021900034C0853009F47AC0863009F084C07DC02F
:1021A000222309F080C080916D0490916E0421E09B
:1021B0008039920728F410926E0410926D040895ED
:1021C0001092390510926C0420916C04E22FF0E01B
:1021D00080916D0490916E04EE0FFF1FE159FB4F4B
:1021E000918380832F5F20936C0410926E04109271
:1021F0006D0483E080936B040895213009F053C08F
:1022000020916C04A22FB0E080916D0490916E0437
:102210001296EBE6F4E0AA0FBB1FAE0FBF1F11969C
:102220009C938E932F5F20936C0410926E041092F7
:102230006D0484E0808308952223E1F420916C04EE
:10224000A22FB0E080916D0490916E041296EBE69F
:10225000F4E0AA0FBB1FAE0FBF1F11969C938E9385
:102260002F5F20936C0410926E0410926D0483E033
:102270008083089580916D0490916E0421E08139EE
:10228000920788F085E080936B040895222359F427
:1022900010926E0410926D04089581E080933905C8
:1022A00085E080936B0408956F927F928F929F9246
:1022B000AF92BF92CF92DF92EF92FF920F931F9354
:1022C000CF93DF935C01FC018485853009F090C0D9
:1022D000C681D7818A819B8168E273E20E940710E0
:1022E000009709F487C0F5018085918584309105B8
:1022F000F1F48C819D816AEC78E00E945510009782
:1023000009F47AC08E819F8160E372E00E94071019
:10231000009709F473C0F501158214828FEF9FEFC7
:10232000DC0180839183A283B38381E070C0843415
:1023300091050CF465C08C819D8164E971E10E9476
:102340005510009709F45EC000E010E0CC24DD24B5
:1023500076010F2EF6E06F2E7724F02D6C0E7D1E89
:1023600088249924689483F88C0E9D1EF301E00F55
:10237000F11F8081918160E372E00E940710009755
:1023800009F442C0E401C00FD11F888199816AE934
:1023900076E00E945510009779F0D701C601880FAA
:1023A000991FAA1FBB1FCC24DD247601C394C82A21
:1023B000D92AEA2AFB2A0CC08881998160E372E05D
:1023C0000E945510009711F1CC0CDD1CEE1CFF1C77
:1023D0000C5F1F4F0038110549F680E290E0F501CF
:1023E00095838483C082D182E282F38281E00FC030
:1023F00080E00DC080E00BC080E009C080E007C035
:1024000080E005C080E003C080E001C080E0DF9193
:10241000CF911F910F91FF90EF90DF90CF90BF90E1
:10242000AF909F908F907F906F900895F894209137
:102430006B047894223039F081E090E0253029F067
:1024400080E090E0089581E090E00895F89482E0C3
:1024500080936B0410926C0478940895FC01F894B6
:102460008FE694E097838683DC0113972C91208775
:10247000118620913905228713860497DC018C91FF
:1024800084877894CF010E945411882321F40E94FC
:10249000261280E0089581E00895EF92FF920F9355
:1024A0001F93CF93DF93CDB7DEB764970FB6F89441
:1024B000DEBF0FBECDBF80910204833009F4BBC0E4
:1024C000843030F4813009F482C0823078F50AC05B
:1024D000853009F487C1853008F413C1863009F0CE
:1024E00074C2EEC1809116038F3021F481E0809395
:1024F00002046BC2803121F482E08093020465C241
:10250000883030F493E09093B5038093B4035DC2B8
:10251000883009F05AC28091B5038F5F8093B5036C
:10252000843008F452C21092B5034FC210920304D3
:1025300080911603813079F483EB92E00E94F624B7
:102540001092100480E066E044E50E94742083E06D
:10255000809302043AC2823079F483EB92E00E94C5
:10256000F6241092100480E066E044E40E94742097
:1025700085E08093020429C2873069F480914E057A
:10258000882319F010925F0503C081E080935F05F6
:10259000109202041AC2883069F480914E05882393
:1025A00021F481E080935F0502C010925F051092D4
:1025B00002040BC2893009F008C281E09091250421
:1025C000911180E08093250410920204FEC1809155
:1025D0001603882349F4109203049091010481E0CA
:1025E00089278093010424C0813051F410920304A0
:1025F000809100048823E1F481E08093000418C0F6
:1026000010920304883041F0893051F0873051F442
:1026100081E08093100406C082E08093100402C021
:102620001092100482E190E0609110040E94F63054
:1026300010920204CAC1209116032A3020F02031E2
:1026400009F0C3C102C0203169F41092020482E192
:1026500090E00E94EE308093100483EB92E00E94A1
:102660008124B3C180910304882319F4233040F0FE
:10267000ACC1823011F0843019F4263008F0A5C1C5
:102680000F2EF4E0EF2EF4E0FF2EF02DF701E80F0F
:10269000F11D208300D000D000D0EDB7FEB73196F9
:1026A0008E010F5F1F4FADB7BEB712961C930E93EE
:1026B00011978BEB92E093838283248315820E948F
:1026C0006E308DB79EB706960FB6F8949EBF0FBEBC
:1026D0008DBFC8010E94092860910304F701E60F2D
:1026E000F11D808144E50E947420809103048F5F76
:1026F00080930304863008F468C184E08093020468
:1027000064C1809116038E3009F05FC18EEB92E0B8
:102710000E940928ADB7BEB750970FB6F894BEBF58
:102720000FBEADBFEDB7FEB731968E010F5F1F4FE5
:1027300012961C930E9311978DEC92E093838283F3
:102740008091040484831582809105048683178216
:102750008091060480871186809107048287138602
:1027600080910804848715868091090486871786DE
:102770000E946E308DB79EB740960FB6F8949EBFFC
:102780000FBE8DBFC8010E94092880910404880FE4
:10279000982F990F990F890F2091050490910604A5
:1027A000990F692F660F660F690F30910704630F49
:1027B00090910804990F492F440F440F490F30910D
:1027C0000904430F820F0E94890E1092020482E1D5
:1027D00090E00E94EE308093100483EB92E00E9420
:1027E0008124F3C0209116032A3020F0203109F013
:1027F000ECC002C0203169F41092020482E190E042
:102800000E94EE308093100483EB92E00E948124BA
:10281000DCC080910304882319F4243080F0D5C0F3
:10282000813041F490910404933049F4223008F04F
:10283000CCC005C0823019F4223008F0C6C00F2E7B
:10284000F4E0EF2EF4E0FF2EF02DF701E80FF11D7C
:10285000208300D000D000D0EDB7FEB731968E01B6
:102860000F5F1F4FADB7BEB712961C930E93119713
:102870008BEB92E093838283248315820E946E30D7
:102880008DB79EB706960FB6F8949EBF0FBE8DBF4C
:10289000C8010E94092860910304F701E60FF11DA9
:1028A000808144E40E947420809103048F5F8093B0
:1028B0000304863008F489C086E08093020485C052
:1028C000809116038E3009F080C08DED92E00E9459
:1028D0000928ADB7BEB71E970FB6F894BEBF0FBE9E
:1028E000ADBFEDB7FEB731968E010F5F1F4F129649
:1028F0001C930E9311978CEE92E0938382838091C8
:102900000404848315828091050486831782809154
:102910000604808711868091070482871386809140
:10292000080490E0880F991F9C01220F331F220F8B
:10293000331F820F931F8053984F20910904820FF9
:10294000911D958784870E946E308DB79EB70E9635
:102950000FB6F8949EBF0FBE8DBFC8010E94092814
:1029600080910404880F982F990F990F890F709107
:10297000050490910604990F692F660F660F690F81
:1029800020910704620F2091080430E0220F331FCA
:10299000A901440F551F440F551F240F351FA901CE
:1029A0004053584F90910904490F511D870F0E94C1
:1029B000480F1092020482E190E00E94EE30809372
:1029C000100483EB92E00E94812464960FB6F89481
:1029D000DEBF0FBECDBFDF91CF911F910F91FF9052
:1029E000EF9008950F931F93CF93DF93CDB7DEB78A
:1029F00064970FB6F894DEBF0FBECDBF8AE395E0B3
:102A00000E942E12882309F458C180913A059091B2
:102A10003B05A0913C05B0913D058D3A22E592071A
:102A20002FEFA20720E0B20709F4E8C08E3A22E5B2
:102A300092072FEFA20720E0B20708F05BC08D3DA0
:102A400022E292072FEFA20720E0B20709F4C6C0E6
:102A50008E3D22E292072FEFA20720E0B207E0F4BA
:102A60008F3E20E192072FEFA20720E0B20709F482
:102A7000E4C0873E28E192072FEFA20720E0B207CB
:102A800009F4D3C08D3F22E092072FEFA20720E088
:102A9000B20709F0E2C0AAC0873C28E392072FEFF3
:102AA000A20720E0B20709F4CCC0883C28E39207D3
:102AB0002FEFA20720E0B20750F48F3C20E39207EB
:102AC0002FEFA20720E0B20709F0C7C0AAC08D3BD4
:102AD00022E492072FEFA20720E0B20709F48AC090
:102AE000853B2AE492072FEFA20720E0B20709F006
:102AF000B4C088C0873628E992072FEFA20720E0EC
:102B0000B20709F486C0883628E992072FEFA2079A
:102B100020E0B20770F58D3922E692072FEFA20769
:102B200020E0B20709F452C08E3922E692072FEF57
:102B3000A20720E0B20750F4853A2AE592072FEF6A
:102B4000A20720E0B20709F088C07FC0873928E6D5
:102B500092072FEFA20720E0B20709F456C085388C
:102B60002AE792072FEFA20720E0B20709F075C00D
:102B700060C08F3420EB92072FEFA20720E0B2074E
:102B800009F44BC0803520EB92072FEFA20720E01D
:102B9000B20750F4873528EA92072FEFA20720E00A
:102BA000B20709F05AC016C08D3322EC92072FEFFE
:102BB000A20720E0B207B1F08F3F2FEF92072FEF6F
:102BC000A2072FEFB20709F048C043C08AE0809304
:102BD000160346C08DE08093160342C08BE08093BD
:102BE00016033EC08CE0809316033AC08EE08093BB
:102BF000160336C08FE08093160332C080E18093C5
:102C000016032EC0109216032BC081E0809316038A
:102C100027C082E08093160323C083E080931603CD
:102C20001FC084E0809316031BC085E080931603C9
:102C300017C086E08093160313C087E080931603C5
:102C40000FC088E0809316030BC089E080931603C1
:102C500007C081E18093160303C082E180931603CD
:102C600000D000D000D0EDB7FEB731968E010F5FD7
:102C70001F4FADB7BEB712961C930E9311978AEFF4
:102C800092E09383828380911603A2E0B3E0A80FC1
:102C9000B11D8C91848315820E946E308DB79EB7D2
:102CA00006960FB6F8949EBF0FBE8DBFC8010E9456
:102CB00009280E944D120E94261264960FB6F894BD
:102CC000DEBF0FBECDBFDF91CF911F910F91089551
:102CD0008F929F92AF92BF92CF92DF92EF92FF922C
:102CE0000F931F93CF93DF93CDB7DEB72A970FB61D
:102CF000F894DEBF0FBECDBFDE011196E7E1F3E031
:102D00008AE001900D928150E1F740910C045091BE
:102D10000D0460910E0470910F040F2EF0E0CF2E81
:102D2000F0E0DF2EF0E0EF2EFFEFFF2EF02DC422BB
:102D3000D522E622F7228A019B010F7010702070C5
:102D400030700F2EF4E1000F111F221F331FFA9570
:102D5000D1F7F02DDB01CA01807F9070A070B070B8
:102D6000072E7CE0880F991FAA1FBB1F7A95D1F709
:102D7000702D082B192B2A2B3B2B0C291D292E29B2
:102D80003F29DB01CA0180709F70A070B0704C01B8
:102D90005D01880C991CAA1CBB1C880C991CAA1CE0
:102DA000BB1C880C991CAA1CBB1C880C991CAA1C57
:102DB000BB1C082919292A293B29DB01CA0180707B
:102DC000907FA070B070689413F8B695A79597950A
:102DD00087951694D1F7082B192B2A2B3B2BDB0157
:102DE000CA0180709070AF70B070072E7CE0B6950D
:102DF000A795979587957A95D1F7702D082B192B64
:102E00002A2B3B2BDB01CA0180709070A07FB07031
:102E1000072E74E1B695A795979587957A95D1F782
:102E2000702D802B912BA22BB32B20910B04309172
:102E3000B303332309F4C9C0352F142FE0911004D4
:102E4000E130C9F1E13020F0E23009F0BEC068C0E5
:102E5000442371F5552311F0503351F53091280476
:102E60003930E0F4FE01E30FF11DC180DD24EE24D2
:102E7000FF24B60155274427482B592B6A2B7B2B5F
:102E800040705070BE2DAD2D9C2D88278C299D291A
:102E9000AE29BF29842B952BA62BB72B3F5F3093F0
:102EA00028043A3008F491C039E0309328048DC0EA
:102EB000109228048AC0442381F510912804FE0151
:102EC000E10FF11DC180DD24EE24FF24B60155275A
:102ED0004427842B952BA62BB72B332311F03033AB
:102EE00091F4193080F4AC01BD0140705070BE2DDA
:102EF000AD2D9C2D88278C299D29AE29BF29842B97
:102F0000952BA62BB72B1F5F109328041A3008F4BB
:102F10005CC039E03093280458C01092280455C092
:102F2000E09129044E1709F44EC00F2EFFEF8F2EAB
:102F3000FFEF9F2EF0E0AF2EFFEFBF2EF02D882287
:102F40009922AA22BB2200912804FE01E00FF11D64
:102F5000C180DD24EE24FF24D60199278827882903
:102F60009929AA29BB29E0912A045E17F9F0E62FD6
:102F700090707E2D6D2D5C2D4427842B952BA62BD8
:102F8000B72B40912B04E41711F4303349F48070CF
:102F90008C299D29AE29BF29093041F4E0932B04E7
:102FA00040912804493011F430932A0430912804C8
:102FB0003F5F309328043A3040F039E030932804E2
:102FC0001093290402C01092280448E030E85BB155
:102FD0005F735BB9532F5223531711F45D9A01C0ED
:102FE0005D9836955F9A5F98415089F7E0E240E03E
:102FF00050E060E070E82BB12F732BB98A019B0180
:10300000082319232A233B2304171507260737070C
:1030100011F45D9A01C05D9876956795579547952F
:103020005F9A5F98E15039F75E9A5E982A960FB6DC
:10303000F894DEBF0FBECDBFDF91CF911F910F91EE
:10304000FF90EF90DF90CF90BF90AF909F908F90C8
:1030500008950E94DD02DC01CB0190931B04809354
:103060001A040E94FA03DC01CB0180931C049093A4
:103070001D04A0931E04B0931F040E943D06DC01B2
:10308000CB018093160490931704A0931804B09377
:1030900019040895F894609120047091210480919E
:1030A000220490912304789408958F929F92AF9276
:1030B000BF92CF92DF92EF92FF92CF93DF93EC011A
:1030C0000E944A184B015C016E01EE24FF240E940D
:1030D0004A18DC01CB0188199909AA09BB098C158A
:1030E0009D05AE05BF0598F3DF91CF91FF90EF905E
:1030F000DF90CF90BF90AF909F908F9008951F92D8
:103100000F920FB60F9211242F933F934F935F931B
:103110006F937F938F939F93AF93BF93EF93FF939F
:103120002D9A809124048F5F809324048431B8F019
:103130000E94D2228091200490912104A091220427
:10314000B09123040196A11DB11D8093200490939A
:103150002104A0932204B0932304109224040E941B
:10316000A9102D98FF91EF91BF91AF919F918F91F1
:103170007F916F915F914F913F912F910F900FBE73
:103180000F901F90189528E090E8392F382371F0A0
:10319000289A00000000000000000000000000006D
:1031A0000000000000000000289807C0289A0000D6
:1031B000000000000000000028989695215029F793
:1031C0000895CF92DF92EF92FF920F931F93CF93C8
:1031D000DF93F894CFE4D5E00F2EF7E5EF2EF5E07E
:1031E000FF2EF02D0F2EF7E4CF2EF5E0DF2EF02D81
:1031F0008E010A5F1F4F89910E94C318F7018191C8
:103200007F010E94C318F60181916F010E94C318CB
:10321000C017D10781F77894DF91CF911F910F915B
:10322000FF90EF90DF90CF900895EF92FF920F9371
:103230001F93CF93DF93CDB7DEB728970FB6F894DF
:10324000DEBF0FBECDBF022F2983E32E3A83F42EBB
:103250004B83152F5C83262F6D837E838F83988706
:103260004E815F81633009F042C08FE163E00E94CC
:10327000AA0E90912604913031F1913020F09230D5
:1032800009F080C02CC067E00E94D62D8FE1891B19
:10329000811741F4023031F4EE2079F481E080931B
:1032A000260470C0181718F4109215046BC081170B
:1032B00020F481E08093150465C0023008F062C0FC
:1032C000109215045FC083E060E04F2D0E94890ECC
:1032D00082E08093260481E08093150453C0EE20A1
:1032E00011F01092260481E0809315044BC06A30DF
:1032F00009F03FC08FE16AE00E94AA0E9091270476
:10330000913029F1913018F09230E1F52BC067E04F
:103310000E94D62D8FE1891B811741F4033031F4CF
:10332000EE2079F481E0809327042CC0811718F4F3
:103330001092150427C0181720F481E0809315041B
:1033400021C00330F8F481E0809315041BC082E0B3
:1033500060E04F2D0E94890E82E080932704109236
:10336000150410C0043010F01092270410921504B8
:1033700009C02350283018F01092150403C081E0D2
:103380008093150428960FB6F894DEBF0FBECDBF0C
:10339000DF91CF911F910F91FF90EF900895282F0B
:1033A0006AE00E94D62D982F990F392F330F330FD3
:1033B000930F8295807F291B2F70822B089526E022
:1033C00030E0281B3109220F220F4AE050E060E074
:1033D00070E0DB01CA0104C0880F991FAA1FBB1F40
:1033E0002A95D2F740910C0450910D0460910E047F
:1033F00070910F04842B952BA62BB72B80930C0474
:1034000090930D04A0930E04B0930F0408958F922F
:103410009F92AF92BF92CF92DF92EF92FF920F9363
:103420001F93CF93DF93DC01CB01AC01BD01407052
:10343000507060747070762F8C019D010070107454
:1034400020703070682F6074C0900C04D0900D0410
:10345000E0900E04F0900F04E7E4F5E0C7E5D5E056
:103460004FE455E020E030E0C901880F991F880F34
:10347000991F4601570104C0B694A7949794879466
:103480008A95D2F7D501C4018F709070A070B0708A
:103490008A309105A105B10529F410821882DA015C
:1034A0001C9204C0DA011C93788360832F5F3F4F26
:1034B000319621964F5F5F4F26303105A9F6DF9197
:1034C000CF911F910F91FF90EF90DF90CF90BF9021
:1034D000AF909F908F900895843059F1853038F4E3
:1034E0008230C9F08330F0F48130B9F50DC08630F8
:1034F00069F1863028F1873081F560E470E480E47A
:1035000090E00E94071A089560E070E080E490E087
:103510000E94071A089560E070E480E090E00E9445
:10352000071A089560E470E080E090E00E94071AB6
:10353000089560E070E480E490E00E94071A089526
:1035400060E470E0CB010E94071A089560E470E423
:1035500080E090E00E94071A089560E070E0CB01DF
:103560000E94071A0895CF93DF93CDB7DEB728974F
:103570000FB6F894DEBF0FBECDBF80911204821744
:1035800020F490911404291788F0821721F4809177
:103590001104381768F480911404821759F481E0FB
:1035A00090911304391738F480E005C080E003C01F
:1035B00080E001C081E028960FB6F894DEBF0FBE10
:1035C000CDBFDF91CF910895853009F45EC086307C
:1035D00080F48230E1F1833030F4882301F18130CE
:1035E00009F0C4C022C08330C1F1843009F0BEC0EC
:1035F00046C0883009F473C0893038F4863009F445
:1036000056C0873009F0B2C058C08A3009F48BC068
:103610008A3008F476C08B3009F0A8C096C080913B
:103620000B04886080930B04089580910C049091A2
:103630000D04A0910E04B0910F04B06280930C04AD
:1036400090930D04A0930E04B0930F0408958091FD
:103650000B04846080930B04089580910C04909176
:103660000D04A0910E04B0910F04B06180930C047E
:1036700090930D04A0930E04B0930F0408958091CD
:103680000B04826080930B04089580910C04909148
:103690000D04A0910E04B0910F04B86080930C0447
:1036A00090930D04A0930E04B0930F04089580919D
:1036B0000B04816080930B04089580910C04909119
:1036C0000D04A0910E04B0910F04B46080930C041B
:1036D00090930D04A0930E04B0930F04089580916D
:1036E0000C0490910D04A0910E04B0910F04B068E9
:1036F00080930C0490930D04A0930E04B0930F04D8
:10370000089580910C0490910D04A0910E04B09145
:103710000F04B26080930C0490930D04A0930E04E8
:10372000B0930F04089580910C0490910D04A09122
:103730000E04B0910F04B06480930C0490930D04B8
:10374000A0930E04B0930F04089580910C049091FF
:103750000D04A0910E04B0910F04B16080930C048D
:1037600090930D04A0930E04B0930F04089588B1B4
:10377000807F88B910920B0480912C04843009F466
:1037800077C0853058F4813071F18130D0F08230CB
:1037900009F43FC0833009F0DEC054C0873009F41B
:1037A000A6C0883038F4853009F478C0863009F036
:1037B000D2C08DC0883009F4AAC0893009F0CBC0CE
:1037C000B9C010920C0410920D0410920E041092C5
:1037D0000F0480E00E94E41A81E00E94E41A81E074
:1037E00080932C04B8C081E191E1A1E1B0E0809325
:1037F0000C0490930D04A0930E04B0930F0482E088
:103800000E94E41A83E00E94E41A82E080932C0470
:10381000A2C082E292E2A2E2B0E080930C04909314
:103820000D04A0930E04B0930F0484E00E94E41AE8
:1038300085E00E94E41A88B18C6088B983E08093A7
:103840002C0489C083E393E3A3E3B0E080930C04EA
:1038500090930D04A0930E04B0930F0486E00E9491
:10386000E41A87E00E94E41A84E080932C0473C079
:1038700084E494E4A4E4B0E080930C0490930D04F9
:10388000A0930E04B0930F0488E00E94E41A89E02C
:103890000E94E41A85E080932C045DC085E595E5DF
:1038A000A5E5B0E080930C0490930D04A0930E0462
:1038B000B0930F0488B1896088B98AE00E94E41A45
:1038C0008BE00E94E41A86E080932C0444C086E6D4
:1038D00096E6A6E6B0E080930C0490930D04A093C6
:1038E0000E04B0930F0487E080932C0434C087E764
:1038F00097E7A7E7B0E080930C0490930D04A093A2
:103900000E04B0930F0488E080932C0424C088E850
:1039100098E8A8E8B0E080930C0490930D04A0937D
:103920000E04B0930F0488B18A6088B989E080934F
:103930002C0411C089E999E9A9E9BFEF80930C042F
:1039400090930D04A0930E04B0930F048FE0809326
:103950000B0410922C0480912C040E946C1A0E947B
:10396000E1180895853009F45EC0863080F4823015
:10397000E1F1833030F4882301F1813009F0C4C0D3
:1039800022C08330C1F1843009F0BEC046C0883007
:1039900009F473C0893038F4863009F456C0873092
:1039A00009F0B2C058C08A3009F48BC08A3008F4DC
:1039B00076C08B3009F0A8C096C080910B04877F39
:1039C00080930B04089580910C0490910D04A091B4
:1039D0000E04B0910F04BF7D80930C0490930D04EE
:1039E000A0930E04B0930F04089580910B048B7F75
:1039F00080930B04089580910C0490910D04A09184
:103A00000E04B0910F04BF7E80930C0490930D04BC
:103A1000A0930E04B0930F04089580910B048D7F42
:103A200080930B04089580910C0490910D04A09153
:103A30000E04B0910F04B77F80930C0490930D0493
:103A4000A0930E04B0930F04089580910B048E7F11
:103A500080930B04089580910C0490910D04A09123
:103A60000E04B0910F04BB7F80930C0490930D045F
:103A7000A0930E04B0930F04089580910C049091CC
:103A80000D04A0910E04B0910F04BF7780930C0435
:103A900090930D04A0930E04B0930F0408958091A9
:103AA0000C0490910D04A0910E04B0910F04BD7F01
:103AB00080930C0490930D04A0930E04B0930F0414
:103AC000089580910C0490910D04A0910E04B09182
:103AD0000F04BF7B80930C0490930D04A0930E04FD
:103AE000B0930F04089580910C0490910D04A0915F
:103AF0000E04B0910F04BE7F80930C0490930D04CC
:103B0000A0930E04B0930F0408958F929F92AF92EA
:103B1000BF92CF92DF92EF92FF920F931F93CF93BA
:103B2000DF93CDB7DEB728970FB6F894DEBF0FBE90
:103B3000CDBF10920C0410920D0410920E0410923E
:103B40000F0410920B04CE0101960E94340E1092C5
:103B5000B3038091B503823059F0833061F0813036
:103B600069F40E94D22E68E070E00E94F62D07C032
:103B70008B81877004C08091B40301C080E00E94F3
:103B80006C1A80912504882319F00E94B71B99C2F2
:103B900080915605882341F080916105882311F0BA
:103BA000299A23C0299821C029813A814B815C81BF
:103BB0006D817E818F8198850E94B31A882371F070
:103BC00080910004882311F0299A0FC080915F052D
:103BD000882311F0299A09C0299807C080915F05B0
:103BE000882311F4299801C0299A8091010488231F
:103BF00009F009C28B81803248F48E3108F09AC0F6
:103C00008F3079F0803109F0FEC14DC0883208F460
:103C1000FAC18A3208F4FFC08253823008F0F3C13F
:103C200064C18C810E94CF19082F8D810E94CF1909
:103C3000402F50E060E070E0032E3CE0440F551F41
:103C4000661F771F3A95D1F7302D90E0A0E0B0E0E5
:103C5000482B592B6A2B7B2B440F551F661F771F50
:103C6000440F551F661F771F440F551F661F771F90
:103C7000440F551F661F771F40930C0450930D048B
:103C800060930E0470930F0483E00E94DF1986E0B6
:103C90000E94DF198091B503833009F007C282E0EA
:103CA0000E946C1A03C288B1807F88B98E819F817F
:103CB00064E670E00E94E22DC82E862F0E94CF1984
:103CC000082F8C2D0E94CF19402F50E060E070E04B
:103CD000762F652F542F442790E0A0E0B0E0482BCA
:103CE000592B6A2B7B2B440F551F661F771F440FE0
:103CF000551F661F771F440F551F661F771F440F00
:103D0000551F661F771F40930C0450930D0460935A
:103D10000E0470930F0481E00E94DF1986E00E9478
:103D2000DF198091B503833009F0C0C182E00E94A1
:103D30006C1ABCC100911604109117040E5C1F4F41
:103D4000C80168EE73E00E94E22D862FC62E0E9405
:103D5000CF19882E9924AA24BB24880C991CAA1C4C
:103D6000BB1C880C991CAA1CBB1C880C991CAA1C87
:103D7000BB1C880C991CAA1CBB1C2C2D30E088E1B4
:103D80009CEF289FA001299F500D389F500D1124B2
:103D9000CA01800F911F64E670E00E94E22D862F19
:103DA00090E0A0E0B0E0882A992AAA2ABB2A809253
:103DB0000C0490920D04A0920E04B0920F048AE0BD
:103DC0000E94E41A88B1897F88B9409A439A81E0B9
:103DD0000E94DF1982E00E94DF1983E00E94DF1950
:103DE0008091160490911704A0911804B0911904C1
:103DF000803127E2920720E0A20720E0B20718F402
:103E000084E00E94DF198091B503833009F04EC130
:103E10000E946C1A4BC100911A0410911B040B5F95
:103E20001F4FC80164E670E00E94E22D862FC62E67
:103E30000E94CF19882E9924AA24BB24880C991C8F
:103E4000AA1CBB1C880C991CAA1CBB1C880C991CA6
:103E5000AA1CBB1C880C991CAA1CBB1C2C2D30E076
:103E60008CE99FEF289FA001299F500D389F500D8E
:103E70001124CA01800F911F6AE070E00E94E22DB8
:103E8000862F90E0A0E0B0E0882A992AAA2ABB2ACF
:103E900080920C0490920D04A0920E04B0920F0434
:103EA0008AE00E94E41A88B18C7F88B9429A439ACA
:103EB00081E00E94DF1982E00E94DF1983E00E9406
:103EC000DF1980911A0490911B0423E0883E920729
:103ED0001CF484E00E94DF198091B503833009F05F
:103EE000E5C081E00E946C1AE1C080901C049090B3
:103EF0001D04A0901E04B0901F04C501B40128EE5B
:103F000033E040E050E00E94092EC22E822F0E9432
:103F1000CF19082F2C2D30E088E19CEF289FA001BD
:103F2000299F500D389F500D1124840E951EC401F9
:103F30006AE070E00E94E22DC62E862F0E94CF1903
:103F400010E020E030E0322F212F102F0027482FE3
:103F500050E060E070E0042B152B262B372BB901C5
:103F6000A801440F551F661F771F440F551F661F7A
:103F7000771F440F551F661F771F440F551F661F7D
:103F8000771F8C2D90E0880F991F9C01220F331F03
:103F9000220F331F820F931F881A9924AA24BB244F
:103FA000482959296A297B2940930C0450930D0410
:103FB00060930E0470930F048AE00E94E41A88B1A3
:103FC0008A7F88B9419A439A81E00E94DF198091E3
:103FD0001C0490911D04A0911E04B0911F04803117
:103FE00027E2920720E0A20720E0B20718F482E05F
:103FF0000E94DF198091B503833009F057C084E037
:104000000E946C1A53C081E08093B30329813A81E6
:104010004B815C816D817E818F8198850E9415190D
:1040200089810E94CF19C82E8A810E94CF19DD2470
:10403000EE24FF24FE2CED2CDC2CCC2490E0A0E020
:10404000B0E0C82AD92AEA2AFB2A8B810E94CF191C
:10405000FE2CED2CDC2CCC2490E0A0E0B0E0C82AB3
:10406000D92AEA2AFB2AC0920C04D0920D04E092CD
:104070000E04F0920F0488B1807F88B98B8180FF95
:1040800004C088E00E94E41A03C087E00E94E41A9A
:1040900084E00E94E41A80911504882321F08BE0CB
:1040A0000E94E41A03C08BE00E94B21C81E0199BBD
:1040B00080E080934E05882311F40E946C1A0E94C0
:1040C000E11828960FB6F894DEBF0FBECDBFDF9182
:1040D000CF911F910F91FF90EF90DF90CF90BF9005
:1040E000AF909F908F900895CF93C42F633009F4C1
:1040F0009EC0643030F46130A9F1623008F066C0CF
:104100000AC0653009F4ECC0653008F4BEC0663002
:1041100009F019C10DC190E0A0E0B0E040910C049D
:1041200050910D0460910E0470910F04842B952B17
:10413000A62BB72B80930C0490930D04A0930E0430
:10414000B0930F0481E00E94DF1982E00E94DF1922
:1041500083E00E94DF1984E00E94DF1985E00E945D
:10416000DF19F1C090E0A0E0B0E040910C04509164
:104170000D0460910E0470910F04440F551F661FCB
:10418000771F440F551F661F771F440F551F661F6B
:10419000771F440F551F661F771F842B952BA62B67
:1041A000B72B80930C0490930D04A0930E04B0934E
:1041B0000F0481E00E94DF1982E00E94DF1983E092
:1041C0000E94DF1984E00E94DF19BDC090E0A0E0EA
:1041D000B0E040910C0450910D0460910E04709178
:1041E0000F04440F551F661F771F440F551F661F8E
:1041F000771F440F551F661F771F440F551F661FFB
:10420000771F842B952BA62BB72B80930C049093B0
:104210000D04A0930E04B0930F0481E00E94DF19F7
:1042200082E00E94DF1983E00E94DF198CC090E0D9
:10423000A0E0B0E040910C0450910D0460910E0498
:1042400070910F04440F551F661F771F440F551FB1
:10425000661F771F440F551F661F771F440F551F9A
:10426000661F771F842B952BA62BB72B80930C04EE
:1042700090930D04A0930E04B0930F0481E00E946C
:10428000DF1982E00E94DF195EC090E0A0E0B0E09C
:1042900040910C0450910D0460910E0470910F0434
:1042A000440F551F661F771F440F551F661F771F4A
:1042B000440F551F661F771F440F551F661F771F3A
:1042C000842B952BA62BB72B80930C0490930D0475
:1042D000A0930E04B0930F0481E00E94DF1933C055
:1042E00090E0A0E0B0E040910C0450910D0460918A
:1042F0000E0470910F04440F551F661F771F440F63
:10430000551F661F771F440F551F661F771F440FE9
:10431000551F661F771F842B952BA62BB72B8093D9
:104320000C0490930D04A0930E04B0930F040BC0E3
:1043300010920C0410920D0410920E0410920F04AF
:1043400088B1807F88B910920B04C435C1F4809184
:104350000C0490910D04A0910E04B0910F04B0686C
:1043600080930C0490930D04A0930E04B0930F045B
:1043700082E080930B0484E00E946C1A18C0C4345D
:10438000B1F480910C0490910D04A0910E04B091B1
:104390000F04B06880930C0490930D04A0930E0456
:1043A000B0930F0482E080930B040E946C1ACF91AB
:1043B0000895E0EBF0E080818260808382E080936A
:1043C000B10083E68093B3001092B200E0E7F0E022
:1043D000808182608083089523982B9884B18362C2
:1043E00084B985B18C7D85B987B18F6087B988B173
:1043F000807F88B98AB1806E8AB98BB18F718BB991
:104400000895CF93DF93CDB7DEB764970FB6F894D6
:10441000DEBF0FBECDBF0E94D9210E94A3108CE049
:104420000E94900C0E94EC218BE390E00E94D72E1A
:1044300089E190E00E9444270E944B0285E89DE1BB
:1044400061E273E040E050E028EE33E00E94F123A7
:1044500088E696E169E273E044E650E022E330E06A
:104460000E94F12382EF94E160E373E046E950E0BB
:1044700024EF31E00E94F12389E298E168E373E0E0
:104480004AEF50E028E833E10E94F12378940E943B
:10449000B50B0E94FE0B82E290E00E94EE3091E0AC
:1044A000882309F490E0909315048FE393E00E9431
:1044B00009288AE693E00E9409288DB79EB70C97D9
:1044C0000FB6F8949EBF0FBE8DBFEDB7FEB7319605
:1044D0008E010F5F1F4FADB7BEB712961C930E93A0
:1044E000119789E793E093838283809114048483F6
:1044F000158280911304868317828091120480872D
:10450000118680911104828713860E946E308DB7C8
:104510009EB70C960FB6F8949EBF0FBE8DBFC80114
:104520000E9409288E010F5F1F4F0F2EF0EAEF2E19
:10453000F3E0FF2EF02D0F2EF7E5CF2EF4E0DF2E67
:10454000F02D0F2EF1E9AF2EF3E0BF2EF02D0E94DB
:104550004B230E947F0B813019F08230C1F704C0D9
:10456000C5010E940928F3CF00D000D000D0EDB7DC
:10457000FEB73196ADB7BEB712961C930E93119746
:10458000F382E282D582C4820E946E308DB79EB7DC
:1045900006960FB6F8949EBF0FBE8DBFC8010E944D
:1045A0000928D5CF8091640590916505009709F49D
:1045B00071C080E090E060E0A4E6B5E0FC01EE0FA1
:1045C000FF1FE80FF91FEE0FFF1FEE0FFF1FEE0F8B
:1045D000FF1FE80FF91FEA0FFB1F408951894115A2
:1045E0005105A9F09C01220F331F280F391F220FFC
:1045F000331F220F331F220F331F820F931FFD0122
:10460000E80FF91F41505040518B408B2BC0FC01EB
:10461000EE0FFF1FE80FF91FEE0FFF1FEE0FFF1F3A
:10462000EE0FFF1FE80FF91FEA0FFB1F22893389E6
:1046300021503040338B228B2115310599F49C0198
:10464000220F331F280F391F220F331F220F331F52
:10465000220F331F820F931FFD01E80FF91F84897A
:104660008160848B6F5F862F90E0FC01EE0FFF1F4F
:10467000E80FF91FEE0FFF1FEE0FFF1FEE0FFF1FDA
:10468000E80FF91FEA0FFB1F208131812115310549
:1046900009F094CF08958F929F92AF92BF92CF92DC
:1046A000DF92EF92FF921F93CF93DF938091640587
:1046B00090916505009709F488C0C0E0D0E010E053
:1046C0000F2EF4E6CF2EF5E0DF2EF02DFE01EE0FDB
:1046D000FF1FEC0FFD1FEE0FFF1FEE0FFF1FEE0F72
:1046E000FF1FEC0FFD1FEC0DFD1D848983708330CF
:1046F00009F054C00E944A184B015C017E01EE0C87
:10470000FF1CEC0EFD1EEE0CFF1CEE0CFF1CEE0C55
:10471000FF1CEC0EFD1EEC0CFD1CD701ED91FC9175
:104720000995F70184898E7F848B86859785938B85
:10473000828B0E944A18AB01BC01481559056A05D5
:104740007B0558F4D501C40180959095A095B0954E
:10475000480F591F6A1F7B1F04C0481959096A096D
:104760007B09FE01EE0FFF1FEC0FFD1FEE0FFF1F79
:10477000EE0FFF1FEE0FFF1FEC0FFD1FEC0DFD1DD9
:10478000568B458B8789908DA0E0B0E08417950704
:10479000A607B70718F4EF01588F4F8B1F5FC12F83
:1047A000D0E0FE01EE0FFF1FEC0FFD1FEE0FFF1F0D
:1047B000EE0FFF1FEE0FFF1FEC0FFD1FEC0DFD1D99
:1047C00080819181009709F081CFDF91CF911F9176
:1047D000FF90EF90DF90CF90BF90AF909F908F9021
:1047E00008954F925F926F927F928F929F92AF92B5
:1047F000BF92CF92DF92EF92FF921F93CF93DF93FE
:104800007C015B016A01B90110912D04193008F097
:1048100067C080917205909173050097D9F0C0E050
:1048200044E655E0CF5F2C2F30E0C901880F991F77
:10483000820F931F880F991F880F991F880F991F48
:10484000820F931F840F951FFC0186859785009723
:1048500049F701C0C0E080E090E028EE33E040E09E
:1048600050E00E94B72D0E942B2E8C2F90E0EC017F
:10487000CC0FDD1FC80FD91FCC0FDD1FCC0FDD1FE4
:10488000CC0FDD1F4E01880E991EE401CC59DA4F82
:10489000F982E8823F872E873B8B2A8BB60180E026
:1048A00090E028EE33E040E050E00E94B72D0E94F7
:1048B0002B2E398B288B8C8982608E7F8C8B1E8A65
:1048C0001D8A188E1F8AC4018A599A4FB5014CE07F
:1048D00050E00E94F92F1F5F10932D0480E001C06B
:1048E00086E0DF91CF911F91FF90EF90DF90CF9006
:1048F000BF90AF909F908F907F906F905F904F9000
:104900000895BF92CF92DF92EF92FF920F931F9381
:10491000CF93DF936C01809172059091730500979E
:1049200009F457C0C0E0D0E010E000E00F2EF4E63C
:10493000EF2EF5E0FF2EF02DBB24B394CE01880FAF
:10494000991F8C0F9D1F880F991F880F991F880F23
:10495000991F8C0F9D1F8A599A4FB6010E94F02F04
:10496000282F392F21153105A1F4CE01880F991F69
:104970008C0F9D1F880F991F880F991F880F991FF3
:10498000C80FD91FCE0DDF1D8C8982608C8B2B2D1B
:1049900001C0202F1F5FC12FD0E0FE01EE0FFF1FCF
:1049A000EC0FFD1FEE0FFF1FEE0FFF1FEE0FFF1F9F
:1049B000EC0FFD1FEE0DFF1D86859785009729F0F2
:1049C000222309F4BBCF80E007C0222321F080E03E
:1049D00003C085E001C084E0DF91CF911F910F916A
:1049E000FF90EF90DF90CF90BF900895BF92CF924D
:1049F000DF92EF92FF920F931F93CF93DF936C019F
:104A00008091720590917305009709F457C0C0E03A
:104A1000D0E010E000E00F2EF4E6EF2EF5E0FF2EE0
:104A2000F02DBB24B394CE01880F991F8C0F9D1FCE
:104A3000880F991F880F991F880F991F8C0F9D1F32
:104A40008A599A4FB6010E94F02F282F392F21152D
:104A50003105A1F4CE01880F991F8C0F9D1F880F7F
:104A6000991F880F991F880F991FC80FD91FCE0D46
:104A7000DF1D8C898D7F8C8B2B2D01C0202F1F5F1C
:104A8000C12FD0E0FE01EE0FFF1FEC0FFD1FEE0F58
:104A9000FF1FEE0FFF1FEE0FFF1FEC0FFD1FEE0DB0
:104AA000FF1D86859785009729F0222309F4BBCF47
:104AB00080E007C0222321F080E003C085E001C030
:104AC00084E0DF91CF911F910F91FF90EF90DF90E5
:104AD000CF90BF9008958F929F92BF92CF92DF9216
:104AE000EF92FF920F931F93CF93DF936B0120916F
:104AF0007205309173052115310509F462C0BC01BE
:104B000080E090E028EE33E040E050E00E94B72DD6
:104B10000E942B2E4901C0E0D0E010E000E00F2EF3
:104B2000F4E6EF2EF5E0FF2EF02DBB24B394CE017A
:104B3000880F991F8C0F9D1F880F991F880F991F31
:104B4000880F991F8C0F9D1F8A599A4FB6010E949A
:104B5000F02F282F392F2115310599F4CE01880F18
:104B6000991F8C0F9D1F880F991F880F991F880F01
:104B7000991FC80FD91FCE0DDF1D9F868E862B2D46
:104B800001C0202F1F5FC12FD0E0FE01EE0FFF1FDD
:104B9000EC0FFD1FEE0FFF1FEE0FFF1FEE0FFF1FAD
:104BA000EC0FFD1FEE0DFF1D86859785009729F000
:104BB000222309F4BCCF80E007C0222321F080E04B
:104BC00003C085E001C084E0DF91CF911F910F9178
:104BD000FF90EF90DF90CF90BF909F908F900895BF
:104BE000AF92BF92CF92DF92EF92FF921F93CF933B
:104BF000DF93CDB7DEB7C655D0400FB6F894DEBF11
:104C00000FBECDBFDE01D396E6EDF3E084E2019066
:104C10000D928150E1F7CE01C3960E940928409180
:104C20007205509173054115510509F479C020E0D2
:104C300030E010E07E010894E11CF11C0F2EF6EB31
:104C4000AF2EF3E0BF2EF02D0F2EF4E6CF2EF5E0C1
:104C5000DF2EF02D8DB79EB70E970FB6F8949EBF3E
:104C60000FBE8DBFADB7BEB71196EDB7FEB7F282DE
:104C7000E1821396BC92AE921297C901880F991FD8
:104C8000820F931F880F991F880F991F880F991FF4
:104C9000820F931F9C012A593A4F15963C932E93ED
:104CA000149717965C934E931697F601E80FF91F29
:104CB000848918968C93189719961C921997858950
:104CC00096891B969C938E931A978789908D1D9633
:104CD0009C938E931C970E946E308DB79EB70E9654
:104CE0000FB6F8949EBF0FBE8DBFC7010E94092862
:104CF0001F5F212F30E0F901EE0FFF1FE20FF31FBE
:104D0000EE0FFF1FEE0FFF1FEE0FFF1FE20FF31F4F
:104D1000EC0DFD1D468557854115510509F09ACFCB
:104D2000CA5ADF4F0FB6F894DEBF0FBECDBFDF917A
:104D3000CF911F91FF90EF90DF90CF90BF90AF90F9
:104D400008951F920F920FB60F9211242F933F9345
:104D50004F935F938F939F93EF93FF93909174067C
:104D6000809173069817E1F080917406E0917606C1
:104D7000F0917706E80FF11D508140917406242FC1
:104D800030E08091750690E001972817390711F0FF
:104D90004F5F01C040E0409374065093C60005C0C9
:104DA000E1ECF0E080818F7D8083FF91EF919F9116
:104DB0008F915F914F913F912F910F900FBE0F9068
:104DC0001F9018951F920F920FB60F9211242F93D8
:104DD0003F934F935F938F939F93EF93FF93CF9363
:104DE000DF930F92CDB7DEB750916F06EFE6F6E096
:104DF0004291842F90E0228130E021503040821790
:104E0000930711F04F5F01C040E05417F1F080911B
:104E1000C60090916E06E0917106F0917206E90F5E
:104E2000F11D808340916E06242F30E08091700642
:104E300090E001972817390711F04F5F01C040E05B
:104E400040936E0610926D0606C08091C60089835D
:104E500081E080936D0680912E0490912F0401963D
:104E600090932F0480932E040F90DF91CF91FF91A8
:104E7000EF919F918F915F914F913F912F910F9063
:104E80000FBE0F901F901895CF93DF93CDB7DEB76D
:104E900064970FB6F894DEBF0FBECDBF9093C500E8
:104EA0008093C40088E98093C100E0ECF0E0808149
:104EB0008D7F808386E08093C200188A198A8EE1F4
:104EC0008A8B85E496E09C8B8B8BDE011696FE0127
:104ED000709685E001900D928150E1F7DE011B96FE
:104EE000FE01369685E001900D928150E1F7A3E72F
:104EF000B6E0FE013B9685E001900D928150E1F70E
:104F00001B861C868AE08D8783E696E09F878E87C6
:104F1000DE011196FE013B9685E001900D928150D5
:104F2000E1F7DE015096FE01319685E001900D9289
:104F30008150E1F7AEE6B6E0FE01709685E00190A3
:104F40000D928150E1F764960FB6F894DEBF0FBE64
:104F5000CDBFDF91CF910895CF92DF92EF92FF9274
:104F60000F931F93CF93DF93C82EC4E7D6E08E0133
:104F700001501040EE24FF246894E1F8E00EF11E89
:104F8000DD2404C081E090E00E9455185881F801AA
:104F90004081242F30E0F701808190E001972817AD
:104FA000390711F04F5F01C04D2D541759F3F89494
:104FB0009091740680917306981729F4E1ECF0E063
:104FC00080818062808380917306E0917606F09103
:104FD0007706E80FF11DC08240917306242F30E060
:104FE0008091750690E001972817390711F04F5FFF
:104FF00001C040E0409373067894DF91CF911F91F8
:105000000F91FF90EF90DF90CF9008950E94AC2712
:105010000895CF93DF93EC018881882331F02196A6
:105020000E94062889918823D9F7DF91CF910895AE
:1050300020916F0690916E0681E0291709F480E0B7
:10504000089580916F06E0917106F0917206E80F65
:10505000F11D808190916F06492F50E020917006DC
:1050600030E0215030404217530711F09F5F01C0DC
:1050700090E090936F0608955058BB27AA270ED052
:105080004DC13ED130F043D120F031F49F3F11F4B7
:105090001EF433C10EF4E095E7FB29C1E92F4FD18F
:1050A00080F3BA17620773078407950718F071F445
:1050B0009EF567C10EF4E0950B2EBA2FA02D0B01C3
:1050C000B90190010C01CA01A0011124FF27591B4D
:1050D00099F0593F50F4503E68F11A16F040A22F53
:1050E000232F342F4427585FF3CF469537952795C4
:1050F000A795F0405395C9F77EF41F16BA0B620BC3
:10510000730B840BBAF09150A1F0FF0FBB1F661F09
:10511000771F881FC2F70EC0BA0F621F731F841F4C
:1051200048F4879577956795B795F7959E3F08F072
:10513000B3CF9395880F08F09927EE0F9795879531
:1051400008950CD0EBC0E3D040F0DAD030F021F479
:105150005F3F19F0CCC0511115C1CFC0F0D098F30A
:105160009923C9F35523B1F3951B550BBB27AA27E8
:1051700062177307840738F09F5F5F4F220F331F5A
:10518000441FAA1FA9F333D00E2E3AF0E0E830D026
:1051900091505040E695001CCAF729D0FE2F27D029
:1051A000660F771F881FBB1F261737074807AB07F7
:1051B000B0E809F0BB0B802DBF01FF2793585F4F6C
:1051C0002AF09E3F510568F092C0DCC05F3FECF3CF
:1051D000983EDCF3869577956795B795F7959F5F31
:1051E000C9F7880F911D9695879597F90895E1E085
:1051F000660F771F881FBB1F621773078407BA07E4
:1052000020F0621B730B840BBA0BEE1F88F7E0953E
:10521000089504D06894B111B5C0089598D088F06D
:105220009F5790F0B92F9927B751A0F0D1F0660F92
:10523000771F881F991F1AF0BA95C9F712C0B130AD
:1052400081F09FD0B1E008959CC0672F782F882708
:10525000B85F39F0B93FCCF3869577956795B395EC
:10526000D9F73EF490958095709561957F4F8F4F5B
:105270009F4F0895E89409C097FB3EF49095809560
:10528000709561957F4F8F4F9F4F9923A9F0F92F0C
:1052900096E9BB279395F695879577956795B7958A
:1052A000F111F8CFFAF4BB0F11F460FF1BC06F5F70
:1052B0007F4F8F4F9F4F16C0882311F096E911C082
:1052C000772321F09EE8872F762F05C0662371F0A3
:1052D00096E8862F70E060E02AF09A95660F771FB7
:1052E000881FDAF7880F9695879597F9089597F9AB
:1052F0009F6780E870E060E008959FEF80EC08957C
:1053000000240A94161617061806090608950024A4
:105310000A9412161306140605060895092E03941E
:10532000000C11F4882352F0BB0F40F4BF2B11F492
:1053300060FF04C06F5F7F4F8F4F9F4F089557FDF1
:105340009058440F551F59F05F3F71F04795880FF3
:1053500097FB991F61F09F3F79F08795089512168A
:1053600013061406551FF2CF4695F1DF08C0161636
:1053700017061806991FF1CF8695710561050894E7
:105380000895E894BB2766277727CB0197F90895FE
:105390000BD0C4CFB5DF28F0BADF18F0952309F0A1
:1053A000A6CFABCF1124EECFCADFA0F3959FD1F3E8
:1053B000950F50E0551F629FF001729FBB27F00DC3
:1053C000B11D639FAA27F00DB11DAA1F649F662718
:1053D000B00DA11D661F829F2227B00DA11D621F67
:1053E000739FB00DA11D621F839FA00D611D221F21
:1053F000749F3327A00D611D231F849F600D211D05
:10540000822F762F6A2F11249F5750408AF0E1F0A7
:1054100088234AF0EE0FFF1FBB1F661F771F881FF0
:1054200091505040A9F79E3F510570F060CFAACF30
:105430005F3FECF3983EDCF3869577956795B795DB
:10544000F795E7959F5FC1F7FE2B880F911D969505
:10545000879597F90895A5E1B0E0E1E3FAE20C94AD
:10546000462E4C017F876E87FC011782168283814E
:1054700081FD04C076C34C855D8504C01E0108947F
:10548000211C311CF4019381EE85FF8593FD8591EC
:1054900093FF8191FF87EE87882309F45EC38532ED
:1054A00041F493FD859193FF8191FF87EE878532CB
:1054B00059F490E0B4014C8B5D8B0E9442304C89D2
:1054C0005D895D874C87D7CFFF24DD2410E0103243
:1054D000B0F48B3269F08C3228F4803251F0833290
:1054E00071F40BC08D3239F0803349F411602CC057
:1054F0001260146029C0186027C0106125C017FD14
:105500002EC0282F20532A3098F416FF08C08F2D64
:10551000880FF82EFF0CFF0CF80EF20E15C08D2D23
:10552000880FD82EDD0CDD0CD80ED20E10620CC008
:105530008E3221F416FD11C3106406C08C3611F4AE
:10554000106802C0883659F4EE85FF8593FD859179
:1055500093FF8191FF87EE87882309F0B8CF982FBA
:105560009554933018F41061805E06C0982F9556BC
:10557000933008F0A2C11F7E16FD02C0E6E0FE2EA9
:105580001F73853611F4106406C0863611F4106856
:1055900002C0F110FA9417FF07C0FBE3FF1548F0B3
:1055A000EF2CE39427E00DC027E02F1530F02F2DCE
:1055B00007C027E07CE3E72E04C027E067E0F62E73
:1055C000EE24CA0104969D878C87FA01608171815F
:1055D00082819381A1010E2D0E94002F5C01C98060
:1055E0002C2D30E0398B288BC0FE03C0388933FF67
:1055F00006C011FD06C012FF06C000E205C00DE2A4
:1056000003C00BE201C000E0888999898C7090701A
:10561000009709F43CC0002311F084E001C083E04E
:105620008D1558F4D81A13FD09C080E290E0B4013A
:105630000E944230DA94C9F701C0DD24002329F02A
:10564000802F90E0B4010E944230888983FD05C01C
:105650003CE6E32E30E0F32E11C028E6E22E20E0F7
:10566000F22E0CC00115110509F0805290E0B40132
:105670000E9442300894E11CF11C04C0012F10E08C
:1056800000711070F7018491882361F763C217FFDE
:105690000EC0EA0CF889F4FF04C08A81813309F452
:1056A000EA941E144CF528E02E1548F12CC016FD86
:1056B0002AC08F2D90E08A159B0544F03CEFA3167D
:1056C0003FEFB3061CF0106801C0FA94FF2049F0C8
:1056D000E2E0F0E0EC0FFD1FEF0DF11D8081803363
:1056E000A1F317FF10C0EF2CE3948F2D90E0A816C4
:1056F000B90644F4FA1807C0EE24E39404C098E015
:10570000E92E01C0FF2417FF07C01A141B043CF444
:1057100095012F5F3F4F05C025E030E002C021E03A
:1057200030E0002311F02F5F3F4FFF2029F08F2D35
:1057300090E00196280F391F8D2D90E0281739072A
:1057400014F4D21A01C0DD24612E7724C3018970BC
:105750009070009749F406C080E290E0B4010E9486
:105760004230DA94DD20C1F7002329F0802F90E049
:10577000B4010E94423063FC09C006C080E390E09F
:10578000B4010E944230DA94DD20C1F717FF48C00F
:105790008501B7FE02C000E010E066247724950181
:1057A0002E1931093B8B2A8B2501401A510A420CD4
:1057B000531C6F2D70E0EE24FF24E61AF70A3FEF2A
:1057C0000F3F130729F48EE290E0B4010E944230AB
:1057D000A016B10654F02A893B89201731072CF412
:1057E000F201E60DF71D818101C080E301501040F8
:1057F0000894611C711C0E151F052CF090E0B4017B
:105800000E944230DCCF0A151B0541F49A81963381
:1058100020F4953319F4388934FF81E390E049C0CE
:105820008A81813311F09FEEC92290E0B4010E9479
:105830004230FF2089F08EE290E0B4010E944230B5
:1058400012E0F101E10FF11D1F5F808190E0B401D2
:105850000E944230FA94A9F764FE03C085E490E008
:1058600002C085E690E0B4010E944230B7FC05C05A
:10587000A114B10441F4C4FE06C0B094A194B108CF
:10588000B3948DE201C08BE290E0B4010E944230FB
:1058900080E305C08F5FE6EFFFEFAE0EBF1EFAE0BC
:1058A000AF16B104BCF790E0B4010E944230C501CC
:1058B000C096B4010E9442304DC1833631F0833727
:1058C00089F0833509F059C022C09A012E5F3F4FFD
:1058D0003D872C87FA018081898381E0E82EF12CB5
:1058E000510113C09A012E5F3F4F3D872C87FA016B
:1058F000A080B18016FF03C06F2D70E002C06FEF73
:105900007FEFC5010E9408307C011F7714C09A0107
:105910002E5F3F4F3D872C87FA01A080B18016FF94
:1059200003C06F2D70E002C06FEF7FEFC5010E94D2
:10593000E02F7C01106813FD1CC006C080E290E0DF
:10594000B4010E944230DA948D2D90E0E816F906F9
:10595000A8F30FC0F50117FD859117FF81915F0135
:1059600090E0B4010E944230D110DA940894E1082A
:10597000F108E114F10471F7EDC0843611F08936B5
:1059800071F59A0117FF0AC02C5F3F4F3D872C87A6
:10599000FA0180819181A281B3810BC02E5F3F4FBC
:1059A0003D872C87FA0180819181AA2797FDA095D8
:1059B000BA2F012F0F76B7FF08C0B095A09590952C
:1059C00081959F4FAF4FBF4F0068BC01CD01A10132
:1059D0002AE030E00E949030E82EE21841C085377E
:1059E00021F41F7E2AE030E020C0197F8F36A9F015
:1059F000803720F4883509F0B0C00BC0803721F023
:105A0000883709F0AAC001C0106114FF09C01460F2
:105A100007C014FF08C0166006C028E030E005C0CB
:105A200020E130E002C020E132E0CA0117FF09C0E6
:105A300004969D878C87FA016081718182819381B0
:105A400008C002969D878C87FA016081718180E091
:105A500090E0A1010E949030E82EE218012F0F770C
:105A600006FF09C00E7FEF1430F404FF06C002FDEC
:105A700004C00F7E02C01E2D01C01F2D802F90E09C
:105A800004FF0CC0FE01EE0DF11D2081203311F446
:105A9000097E09C002FF06C01E5F05C086789070AF
:105AA000009709F01F5FA02EBB2403FD12C000FF6A
:105AB0000DC0FE2C1D1550F4FD0CF11A1D2D06C055
:105AC00080E290E0B4010E9442301F5F1D15C0F3D8
:105AD00004C01D1510F4D11A01C0DD24A4FE0FC0AE
