:100000000C94B5000C94D2000C94D2000C94D20045
:100010000C94D2000C94D2000C94D2000C9468146E
:100020000C94D2000C94D2000C94D2000C94D20008
:100030000C94D2000C94D2000C94D2000C94D200F8
:100040000C94D2000C94D2000C9480210C943F218B
:100050000C94D2000C94D2000C94D2000C94D200D8
:100060000C94D2000C94D2006E616E00696E660032
:1000700000407A10F35A00A0724E18090010A5D45F
:10008000E80000E87648170000E40B54020000CABC
:100090009A3B000000E1F505000080969800000002
:1000A00040420F000000A086010000001027000061
:1000B0000000E803000000006400000000000A00E7
:1000C000000000000100000000002C76D888DC67EA
:1000D0004F0823DFC1DFAE59E1B1B796E5E3E45342
:1000E000C63AE651997696E8E6C28426EB898C9B5F
:1000F00062ED407C6FFCEFBC9C9F40F2BAA56FA5FF
:10010000F490055A2AF75C936B6CF9676DC11BFC80
:10011000E0E40D47FEF520E6B500D0ED902E03009B
:10012000943577050080841E080000204E0A0000E8
:1001300000C80C333333330F986E12831141EF8DA7
:100140002114893BE65516CFFEE6DB18D1844B38E7
:100150001BF77C1D901DA4BBE424203284725E2218
:100160008100C9F124ECA1E53D2711241FBECFEF8A
:10017000D8E0DEBFCDBF14E0A0E0B1E0E8E4F7E5F1
:1001800002C005900D92AC3FB107D9F717E0ACEF74
:10019000B4E001C01D92A835B107E1F70E949A1C96
:1001A0000C94A22B0C940000CF93C82F8CEE0E94CD
:1001B0008F08813069F08C2F0E940509813051F041
:1001C0008DEE0E94F908813039F00E94220905C0A5
:1001D00080E003C080E001C080E0CF910895EF92FD
:1001E000FF921F93CF93DF93CDB7DEB7A8970FB6DB
:1001F000F894DEBF0FBECDBF8CEE0E948F08813019
:1002000009F4E1C080ED0E940509813009F4DBC0EA
:100210008DEE0E94F908182F80E091E00E94A7223D
:10022000113029F480E191E00E94A72235C08BE1D2
:1002300091E00E94A7220E942209182F8FE191E0ED
:100240000E94A722103629F48BE191E00E94A72298
:1002500023C000D000D000D0EDB7FEB731967E01AC
:100260000894E11CF11CADB7BEB71296FC92EE9259
:10027000119780E391E093838283148315820E9417
:100280000C2B8DB79EB706960FB6F8949EBF0FBE87
:100290008DBFC7010E94A7228CEE0E948F0811E03B
:1002A000813009F010E0112381F482EF0E940509EA
:1002B00011E0813009F010E0112339F481E00E944F
:1002C000050911E0813009F010E00E94FC0800D01F
:1002D00000D000D0EDB7FEB731967E010894E11C46
:1002E000F11CADB7BEB71296FC92EE9211978EE359
:1002F00091E093838283148315820E940C2B8DB727
:100300009EB706960FB6F8949EBF0FBE8DBFC7016D
:100310000E94A7228CEE0E948F0811E0813009F024
:1003200010E0112381F485EF0E94050911E081306E
:1003300009F010E0112339F480E10E94050911E071
:10034000813009F010E00E94FC0800D000D000D0FD
:10035000EDB7FEB731967E010894E11CF11CADB7F4
:10036000BEB71296FC92EE9211978AE591E09383C4
:100370008283148315820E940C2B8DB79EB706963C
:100380000FB6F8949EBF0FBE8DBFC7010E94A72273
:100390008CEE0E948F08813041F084EF0E940509A5
:1003A000813019F087E50E9405090E94FC08A89693
:1003B0000FB6F894DEBF0FBECDBFDF91CF911F9176
:1003C000FF90EF90089580E091E00E94A7222ACF4D
:1003D0002F923F924F925F926F927F928F929F9255
:1003E000AF92BF92CF92DF92EF92FF921F93CF9383
:1003F000DF93CDB7DEB76E970FB6F894DEBF0FBEB2
:10040000CDBF88E80E94D400182F89E80E94D4004C
:10041000382F20E0A12EBB24A22AB32A00D000D07E
:1004200000D0EDB7FEB731963E010894611C711CF7
:10043000ADB7BEB712967C926E92119784E791E0A9
:1004400093838283B582A4820E940C2B2DB73EB782
:100450002A5F3F4F0FB6F8943EBF0FBE2DBFC301BA
:100460000E94A7228AE80E94D400C82E8BE80E942E
:10047000D400582F40E02C2D30E02A01422A532A84
:1004800000D000D000D0EDB7FEB73196ADB7BEB703
:1004900012967C926E92119783E891E09383828307
:1004A000558244820E940C2B2DB73EB72A5F3F4FE6
:1004B0000FB6F8943EBF0FBE2DBFC3010E94A72206
:1004C0008CE80E94D400C82E8DE80E94D400382FFA
:1004D00020E0DD2419012C283D2800D000D000D0D8
:1004E000EDB7FEB73196ADB7BEB712967C926E925D
:1004F000119782E991E093838283358224820E945E
:100500000C2B2DB73EB72A5F3F4F0FB6F8943EBF76
:100510000FBE2DBFC3010E94A7228AEF0E94D40004
:10052000882E00D000D000D0EDB7FEB73196ADB721
:10053000BEB712967C926E92119781EA91E09383F6
:100540008283848215820E940C2B2DB73EB72A5FCE
:100550003F4F0FB6F8943EBF0FBE2DBFC3010E94A0
:10056000A7228BEF0E94D400182F00D000D000D01B
:10057000EDB7FEB73196ADB7BEB712967C926E92CC
:1005800011978DEA91E093838283148315820E94F0
:100590000C2B2DB73EB72A5F3F4F0FB6F8943EBFE6
:1005A0000FBE2DBFC3010E94A7228CEF0E94D40072
:1005B000C82E00D000D000D0EDB7FEB73196ADB751
:1005C000BEB712967C926E92119789EB91E093835D
:1005D0008283C48215820E940C2B2DB73EB72A5FFE
:1005E0003F4F0FB6F8943EBF0FBE2DBFC3010E9410
:1005F000A722C694C694C694C6944C2D50E060E0E1
:1006000070E0812F90E0A0E0B0E0880F991FAA1F52
:10061000BB1F880F991FAA1FBB1F880F991FAA1FF6
:10062000BB1F880F991FAA1FBB1FC82CDD24EE24F7
:10063000FF240B2EBCE0CC0CDD1CEE1CFF1CBA957D
:10064000D1F7B02DC82AD92AEA2AFB2AC42AD52AEA
:10065000E62AF72A4DB75EB7485050400FB6F894D7
:100660005EBF0FBE4DBFEDB7FEB73196ADB7BEB79B
:1006700012967C926E92119786EC91E0938382831E
:10068000C482D582E682F7820E940C2B2DB73EB73A
:10069000285F3F4F0FB6F8943EBF0FBE2DBFC3017A
:1006A0000E94A722B701A601689413F87695679572
:1006B000579547951694D1F7C501A0E0B0E04A01DF
:1006C0005B01881A990AAA0ABB0A689412F8F69480
:1006D000E794D794C7941694D1F7880F991FAA1F4F
:1006E000BB1FA7019601281B390B4A0B5B0BCA01E4
:1006F000B9019201442737FD4095542F0E94552897
:100700006B017C010B2EBBE0F694E794D794C79461
:10071000BA95D1F7B02DC501B401A50194010E948D
:100720005528052E5CE096958795779567955A959F
:10073000D1F7502D9101442737FD4095542F0E9449
:100740005528DC01CB01072E7EE0B695A79597953D
:1007500087957A95D1F7702DC80ED91EEA1EFB1E1B
:10076000D701C601880F991FAA1FBB1F880F991FA9
:10077000AA1FBB1F8C0D9D1DAE1DBF1D80589F4F16
:10078000AF4FBF4FC92EDA2EEB2EFF24E7FCFA94B1
:100790004DB75EB7485050400FB6F8945EBF0FBEDD
:1007A0004DBFEDB7FEB73196ADB7BEB712967C928E
:1007B0006E92119785ED91E093838283C482D582F6
:1007C000E682F7820E940C2B2DB73EB7285F3F4F81
:1007D0000FB6F8943EBF0FBE2DBFC3010E94A722E3
:1007E0006C2D7D2D8E2D9F2D6E960FB6F894DEBF4D
:1007F0000FBECDBFDF91CF911F91FF90EF90DF90A3
:10080000CF90BF90AF909F908F907F906F905F90B0
:100810004F903F902F9008958430F9F0853038F450
:10082000823089F08330A0F4813051F507C08630E2
:10083000F1F08630B8F0873019F51EC088EE91E0EF
:100840000E94A72208958CEE91E00E94A7220895AD
:1008500080EF91E00E94A722089584EF91E00E942A
:10086000A722089588EF91E00E94A72208958CEFB7
:1008700091E00E94A722089580E092E00E94A722C2
:100880000895CF92DF92EF92FF920F931F93CF9331
:10089000DF93CDB7DEB7E0970FB6F894DEBF0FBE9B
:1008A000CDBF7C0101960E948029082FD7018C9131
:1008B0008C3609F47EC28D3630F4833671F084367E
:1008C00009F0CAC285C0863709F4A3C2873709F484
:1008D000B6C2833709F0C0C273C2C70103960E9433
:1008E0008029D82E033051F1043028F40130A1F0D2
:1008F0000230D8F408C0053099F1053040F10630D7
:1009000009F040C036C08093360684E190E06D2D3A
:100910000E94942B10E037C080933E0686E190E061
:100920006D2D0E94942B10E02EC08093400688E12C
:1009300090E06D2D0E94942B10E025C080932F062F
:100940008AE190E06D2D0E94942B10E01CC08093F2
:1009500043068CE190E06D2D0E94942B10E013C0B3
:1009600080933F068EE190E06D2D0E94942B10E065
:100970000AC08093420680E290E06D2D0E94942B85
:1009800010E001C012E0EDB7FEB738970FB6F8944B
:10099000FEBF0FBEEDBF3196ADB7BEB71296FC924B
:1009A000EE92119784E092E0938382830483158210
:1009B000D68217820E940C2BEDB7FEB738960FB681
:1009C000F894FEBF0FBEEDBFC7010E94A72279C2F7
:1009D000023009F4B8C0033030F4002371F0013064
:1009E00009F05EC264C0043009F44DC1043008F45B
:1009F000EFC0053009F054C291C100E112E0C70117
:100A00000396B8010E94892A0E948029F82E80E06E
:100A100090E0B8010E94892A0E948029C82E80E0B7
:100A200090E0B8010E94892A0E948029E82ED92EE0
:100A300083E192E00E94A7228F2D6C2D4E2D5D2D1B
:100A40000E949E0A0E940C048DB79EB70A970FB6AB
:100A5000F8949EBF0FBE8DBFEDB7FEB731968E01E5
:100A60000F5F1F4FADB7BEB712961C930E93119731
:100A70008AE192E093838283F4821582C682178290
:100A8000E086D1860E940C2BEDB7FEB73A960FB6E2
:100A9000F894FEBF0FBEEDBFC8010E94A7228F2DA4
:100AA0006C2D4E2D5D2D0E943C0B10E00AC209E218
:100AB00012E0C7010396B8010E94892A0E9480298A
:100AC000F82E80E090E0B8010E94892A0E948029D7
:100AD000D82E80E090E0B8010E94892A0E948029E7
:100AE000E82E8DB79EB70A970FB6F8949EBF0FBE3B
:100AF0008DBFEDB7FEB731968E010F5F1F4FADB7BB
:100B0000BEB712961C930E9311978DE292E09383D9
:100B10008283F4821582D6821782E08611860E9433
:100B20000C2BEDB7FEB73A960FB6F894FEBF0FBE8A
:100B3000EDBFC8010E94A7228F2D6D2D4E2D0E9462
:100B40007D0A10E0BEC1CE0189960E94280A83E486
:100B500092E00E94A72288A90E940C048DB79EB73C
:100B600040970FB6F8949EBF0FBE8DBFEDB7FEB78E
:100B700031968E010F5F1F4FADB7BEB712961C9313
:100B80000E9311978CE492E0938382838CA58483E7
:100B900015828DA5868317828EA59FA59187808754
:100BA00089A5828713868AA5848715868BA5868763
:100BB00017860E940C2BEDB7FEB770960FB6F8940F
:100BC000FEBF0FBEEDBFC8010E94A72210E079C191
:100BD0000E94790B7C0100D000D000D0EDB7FEB7A9
:100BE00031968E010F5F1F4FADB7BEB712961C93A3
:100BF0000E9311978BE692E093838283C7019595BC
:100C0000879595958795958384830E940C2BEDB7E6
:100C1000FEB736960FB6F894FEBF0FBEEDBFC80103
:100C20000E94A722F3E0EF22FF2481E0E816F104FE
:100C3000C1F092E0E916F10424F4E114F10459F052
:100C400031C1A2E0EA16F10491F0B3E0EB16F10431
:100C500009F028C112C087E792E00E94A72210E0A5
:100C600030C18EE792E00E94A72210E02AC185E8F9
:100C700092E00E94A72210E024C18CE892E00E943A
:100C8000A72210E01EC109E212E0C7010396B801D5
:100C90000E94892A0E948029D82E80E090E0B80125
:100CA0000E94892A0E948029082FE7E1ED1508F4A7
:100CB000FBC08C3308F0FAC0D0921705809316055C
:100CC0000E943B088DB79EB708970FB6F8949EBF59
:100CD0000FBE8DBFEDB7FEB731967E010894E11CC3
:100CE000F11CADB7BEB71296FC92EE92119783E954
:100CF00092E093838283D4821582068317820E94B6
:100D00000C2BEDB7FEB738960FB6F894FEBF0FBEAA
:100D1000EDBFC7010E94A72210E0D3C009E212E094
:100D2000C7010396B8010E94892A0E948029D82E03
:100D300080E090E0B8010E94892A0E948029082F53
:100D4000F7E1FD1508F4B4C08C3308F0B3C0D092BD
:100D50001505809314050E943B088DB79EB7089730
:100D60000FB6F8949EBF0FBE8DBFEDB7FEB731969C
:100D70007E010894E11CF11CADB7BEB71296FC923F
:100D8000EE9211978EEB92E093838283D482158248
:100D9000068317820E940C2BEDB7FEB738960FB66C
:100DA000F894FEBF0FBEEDBFC7010E94A72210E05E
:100DB00088C0083008F080C000930D0510E081C0A5
:100DC0000130D1F0013030F00230D1F0033009F0C1
:100DD00075C01AC087EE92E00E94A72289EE92E0C9
:100DE0000E94A7228BEF92E00E94A7228AE293E062
:100DF0000E94A72210E065C00E942D0910E061C08A
:100E00000E948E2010E05DC081E080932C0510E0F0
:100E100058C0013059F0013018F0023091F40CC084
:100E200081E080933706109241065BC081E0809399
:100E300037068093410655C01092370652C010E025
:100E400001C012E00330E0F50093130582E190E069
:100E5000602F0E94942B35C000D000D000D0EDB799
:100E6000FEB731968E010F5F1F4FADB7BEB712961A
:100E70001C930E9311978CE493E093838283F58205
:100E8000E4820E940C2BEDB7FEB736960FB6F894AD
:100E9000FEBF0FBEEDBFC8010E94A72211E011C026
:100EA00012E00FC010E00DC010E00BC010E009C050
:100EB00010E007C010E005C012E003C012E001C05E
:100EC00012E0812FE0960FB6F894DEBF0FBECDBFC3
:100ED000DF91CF911F910F91FF90EF90DF90CF9016
:100EE000089510E0B1CF8091FD04882349F50E9458
:100EF000B622882309F10E94BF2290E00E94762A40
:100F00008A3019F08D3071F417C081E08093FD04B0
:100F10008091FC04E9E3F5E0E80FF11D10821092E6
:100F2000FC040AC09091FC04E9E3F5E0E90FF11D2F
:100F300080839F5F9093FC048091FD04882339F0A7
:100F40001092FD0489E395E00E944104089580E039
:100F5000089588E090E00E948C2B8F3F09F041C0FB
:100F600088E090E061E00E94942B8AE090E067E1E5
:100F70000E94942B8CE090E06EE10E94942B8EE016
:100F800090E067E00E94942B80E190E06EE10E9487
:100F9000942B82E190E062E00E94942B84E190E047
:100FA00060E00E94942B86E190E06FEF0E94942B0A
:100FB00088E190E06FEF0E94942B8AE190E06FEF60
:100FC0000E94942B8CE190E06FEF0E94942B8EE1B5
:100FD00090E06FEF0E94942B80E290E06FEF0E9410
:100FE000942B08958AE090E00E948C2B8093170543
:100FF0008CE090E00E948C2B809316058EE090E0B0
:101000000E948C2B8093150580E190E00E948C2B30
:101010008093140582E190E00E948C2B809313054D
:1010200084E190E00E948C2B8093360686E190E06C
:101030000E948C2B80933E0688E190E00E948C2BCE
:10104000809340068AE190E00E948C2B80932F06CB
:101050008CE190E00E948C2B809343068EE190E01F
:101060000E948C2B80933F0680E290E00E948C2BA4
:101070008093420608958AE090E0609117050E94EF
:10108000942B8CE090E0609116050E94942B8EE0EA
:1010900090E0609115050E94942B80E190E06091B2
:1010A00014050E94942B82E190E0609113050E9448
:1010B000942B84E190E0609136060E94942B86E1A7
:1010C00090E060913E060E94942B88E190E0609150
:1010D00040060E94942B8AE190E060912F060E94C6
:1010E000942B8CE190E0609143060E94942B8EE15A
:1010F00090E060913F060E94942B80E290E0609126
:1011000042060E94942B08958C3019F41092B90075
:1011100003C091E09093B9008093B80008950F93B5
:101120001F93CF93DF93182FECEBF0E084EA8083DA
:101130008081882374F000E0CCEBD0E081E090E087
:101140000E943E140F5F8881882324F00330B1F79A
:1011500001C000E08091B900887F883011F08031B3
:10116000B1F40330B0F41093BB0084E88093BC006A
:10117000ECEBF0E080818823ECF79091B900987F48
:10118000983149F081E0903439F480E005C081E085
:1011900003C081E001C080E0DF91CF911F910F91EA
:1011A0000895CF93DF93ECEBF0E024EAA9EBB0E0F5
:1011B000CBEBD0E034E844E9208390819923ECF72D
:1011C0009C91987F983011F09031B1F788833083EB
:1011D00090819923ECF79C91987F903211F098358B
:1011E00029F44083908194FDFDCFE6CFDF91CF912C
:1011F00008950E948F08089584E98093BC00ECEB69
:10120000F0E0808184FDFDCF08958093BB0084E8E9
:101210008093BC00ECEBF0E080818823ECF79091A8
:10122000B900987F81E0983209F480E0089584EC59
:101230008093BC00ECEBF0E080818823ECF7809198
:10124000BB00089584E88093BC00ECEBF0E0808163
:101250008823ECF78091BB000895AF92BF92CF92A4
:10126000DF92FF920F931F93CF93DF93CDB7DEB73B
:10127000E7970FB6F894DEBF0FBECDBFDE01D39661
:10128000EDE6F3E085E001900D928150E1F789E50C
:1012900093E00E94A72202E010E0FF246E01089470
:1012A000C11CD11C0F2EF4E6AF2EF3E0BF2EF02DA3
:1012B000802F0E948F088823F1F400D000D000D046
:1012C000EDB7FEB73196ADB7BEB71296DC92CE92AF
:1012D0001197B382A282158304830E940C2B8DB7D1
:1012E0009EB706960FB6F8949EBF0FBE8DBFC6017F
:1012F0000E94A722F3940E94FC080E5F1F4F91E00A
:1013000000301907A9F6FF2021F4CE01C3960E94F0
:10131000A7228BE693E00E94A722E7960FB6F894E7
:10132000DEBF0FBECDBFDF91CF911F910F91FF9018
:10133000DF90CF90BF90AF900895282F2F70982FF7
:101340009695969596959E70892F880F880F980F81
:10135000892F820F0895282F30E086FF08C08F70F4
:1013600025FF02C02AE001C020E0820F08958F709F
:101370003695279536952795369527952670922F81
:10138000990F990F290F820F0895982F92959F70AA
:10139000990F292F220F220F920F8F70890F089516
:1013A0006AE00E9474288295807F890F08950F93C8
:1013B0001F93CF93DF93082FEB0180ED0E948F08DE
:1013C00011E0813009F010E01123A9F4802F0E9470
:1013D000050911E0813009F010E0112361F481ED7D
:1013E0000E94F90811E0813009F010E0112319F48E
:1013F0000E94220988830E94FC08812FDF91CF91EF
:101400001F910F9108951F93CF93DF93182FD62F1D
:1014100080ED0E948F08C1E0813009F0C0E0CC234C
:1014200081F4812F0E940509C1E0813009F0C0E0FC
:10143000CC2339F48D2F0E940509C1E0813009F0D9
:10144000C0E00E94FC088C2FDF91CF911F9108957E
:101450001F93CF93DF93EC0180ED0E948F0811E082
:10146000813009F010E01123C1F580E00E940509E8
:1014700011E0813009F010E0112379F581ED0E942F
:10148000F90811E0813009F010E0112331F50E94D4
:1014900017090E949D098A830E9417090E949D09CD
:1014A00089830E9417090E94AB0988830E9417094B
:1014B0008F830E9417090E949D098B830E94170940
:1014C0000E949D098C830E9422090E94C50990E018
:1014D0008053984F9E838D8309C01E821D8218827F
:1014E00019821A8281E08C838B838F830E94FC088F
:1014F000812FDF91CF911F910895CF93DF93C62F56
:10150000D42F8831C0F46C33B0F44C33A0F40E9473
:10151000D009682F82E00E94030A8C2F0E94D00914
:10152000682F81E00E94030A8D2F0E94D009682F46
:1015300080E00E94030ADF91CF9108954F925F925D
:101540006F927F928F929F92AF92BF92CF92DF92D3
:10155000EF92FF92482E4A01262F30E08EE090E075
:10156000821B930B6CE070E00E949428AA24BB2499
:1015700080EC92E1A0E0B0E0880E991EAA1EBB1E8E
:10158000CB01AA2797FDA095BA2F881A990AAA0A13
:10159000BB0ACB01880F991F680F791F660F771F51
:1015A000660F771F620F731F882777FD8095982F2E
:1015B00029E930E040E050E00E945528695C714024
:1015C0008040904025E030E040E050E00E94C92893
:1015D00069017A01C40CD11CE11CF11CC501B401E4
:1015E0002DE631E040E050E00E9455282B013C01FF
:1015F0004C0C5D1C6E1C7F1CC501B40124E030E066
:1016000040E050E00E94C92869017A01C40CD51C51
:10161000E61CF71CC501B40124E630E040E050E0D0
:101620000E94C928C21AD30AE40AF50AC501B40106
:1016300020E931E040E050E00E94C928C20ED31EEC
:10164000E41EF51EC701B6016C527D4780409040F4
:1016500027E030E040E050E00E94A728862FFF906E
:10166000EF90DF90CF90BF90AF909F908F907F9042
:101670006F905F904F9008950F931F93CF93DF93D8
:10168000C82FD62F81508F3138F5862F81508C305E
:1016900018F58A01005D174083E0083E1807E0F462
:1016A0008C2F0E949E0A682F83E00E94030A802FDD
:1016B0000E94D009682F86E00E94030A8D2F0E94A5
:1016C000D009682F85E00E94030A8C2F0E94D00960
:1016D000682F84E00E94030ADF91CF911F910F9140
:1016E0000895682F8150873018F483E00E94030A20
:1016F00008950F931F93CF93DF9300D0CDB7DEB73C
:1017000081E1BE016F5F7F4F0E94D709098110E020
:10171000000F111F000F111F882331F482E1BE0159
:101720006E5F7F4F0E94D7092A81229526952695C4
:10173000237030E0022B132B11FF04C01D7F109586
:1017400001951F4F882311F000E010E0802F912FAA
:101750000F900F90DF91CF911F910F910895CF922D
:10176000DF92EF92FF92CF93DF93EC01882777FD12
:101770008095982F0E94DA236B017C0120E030E0F5
:1017800040E05FE30E94662420E030E048E452E459
:101790000E943F230E94A723DC01CB01C817D90771
:1017A00004F1C701B60120E030E040EC5FE30E94A5
:1017B000662420E030E048E452E40E943F2320E029
:1017C00030E040E85FE30E94DB220E94A723AB01E8
:1017D000BC0181E090E04C175D072CF480E090E0C4
:1017E00002C080E090E090E0DF91CF91FF90EF9019
:1017F000DF90CF900895CF92DF92EF92FF92CF9338
:10180000DF93EC0164567040882777FD8095982F10
:101810000E94DA236B017C0120E030E040E05FE3CE
:101820000E94662420E030E048E452E40E943F2316
:101830000E94A723DC01CB01C817D90704F1C70117
:10184000B60120E030E040EC5FE30E94662420E037
:1018500030E048E452E40E943F2320E030E040E8DA
:101860005FE30E94DB220E94A723AB01BC0181E061
:1018700090E04C175D072CF480E090E002C080E01F
:1018800090E090E0DF91CF91FF90EF90DF90CF90CC
:101890000895CF92DF92EF92FF92CF93DF93EC0106
:1018A0006C597F4F882777FD8095982F0E94DA2307
:1018B0006B017C0120E030E040E05FE30E946624A1
:1018C00020E030E048E452E40E943F230E94A72336
:1018D000DC01CB01C817D90704F1C701B60120E02C
:1018E00030E040EC5FE30E94662420E030E048E412
:1018F00052E40E943F2320E030E040E85FE30E9492
:10190000DB220E94A723AB01BC0181E090E04C17D1
:101910005D072CF480E090E002C080E090E090E071
:10192000DF91CF91FF90EF90DF90CF90089582E00C
:1019300080934D0510924E05089521E01B9B20E0F9
:1019400080914F059091500501969093500580939A
:101950004F0580914E05853618F086E080934D0541
:1019600080914D05843009F45BC0853030F48230BD
:1019700059F0833009F08BC034C0853009F47AC047
:10198000863009F084C07DC0222309F080C0809198
:101990004F059091500521E08039920728F410926C
:1019A000500510924F05089510921B0610924E0597
:1019B00020914E05E22FF0E080914F059091500567
:1019C000EE0FFF1FEF5AFA4F918380832F5F209312
:1019D0004E051092500510924F0583E080934D05FF
:1019E0000895213009F053C020914E05A22FB0E098
:1019F00080914F05909150051296EDE4F5E0AA0F05
:101A0000BB1FAE0FBF1F11969C938E932F5F209329
:101A10004E051092500510924F0584E08083089582
:101A20002223E1F420914E05A22FB0E080914F05D2
:101A3000909150051296EDE4F5E0AA0FBB1FAE0F92
:101A4000BF1F11969C938E932F5F20934E0510928B
:101A5000500510924F0583E08083089580914F05D3
:101A60009091500521E08139920788F085E08093BC
:101A70004D050895222359F41092500510924F05F8
:101A8000089581E080931B0685E080934D050895BD
:101A90006F927F928F929F92AF92BF92CF92DF927E
:101AA000EF92FF920F931F93CF93DF935C01FC01A2
:101AB0008485853009F090C0C681D7818A819B8159
:101AC00068E273E20E94FB0B009709F487C0F501FE
:101AD0008085918584309105F1F48C819D816AEC3B
:101AE00078E00E94490C009709F47AC08E819F81AA
:101AF00060E372E00E94FB0B009709F473C0F501EC
:101B0000158214828FEF9FEFDC0180839183A28383
:101B1000B38381E070C0843491050CF465C08C817E
:101B20009D8164E971E10E94490C009709F45EC04F
:101B300000E010E0CC24DD2476010F2EF6E06F2EBD
:101B40007724F02D6C0E7D1E88249924689483F8E8
:101B50008C0E9D1EF301E00FF11F8081918160E3E7
:101B600072E00E94FB0B009709F442C0E401C00F31
:101B7000D11F888199816AE976E00E94490C00971B
:101B800079F0D701C601880F991FAA1FBB1FCC246B
:101B9000DD247601C394C82AD92AEA2AFB2A0CC07C
:101BA0008881998160E372E00E94490C009711F1ED
:101BB000CC0CDD1CEE1CFF1C0C5F1F4F0038110508
:101BC00049F680E290E0F50195838483C082D1825A
:101BD000E282F38281E00FC080E00DC080E00BC0A4
:101BE00080E009C080E007C080E005C080E003C05D
:101BF00080E001C080E0DF91CF911F910F91FF90B5
:101C0000EF90DF90CF90BF90AF909F908F907F909C
:101C10006F900895F89420914D057894223039F012
:101C200081E090E0253029F080E090E0089581E0A7
:101C300090E00895F89482E080934D0510924E054F
:101C400078940895FC01F89481E595E09783868364
:101C5000DC0113972C912087118620911B06228787
:101C600013860497DC018C9184877894CF010E94BD
:101C7000480D882321F40E941A0E80E0089581E027
:101C80000895EF92FF920F931F93CF93DF93CDB7F9
:101C9000DEB764970FB6F894DEBF0FBECDBF80915C
:101CA0000505833009F4FFC0843038F4813009F42D
:101CB000C2C0823008F04DC00AC0853009F4CAC1E4
:101CC000853008F456C1863009F0B7C231C2809120
:101CD000D5038F3021F481E080930505AEC28031B9
:101CE00021F482E080930505A8C2883048F4109260
:101CF000030510920205109201058093FE049DC217
:101D0000883091F41092030580910105882331F405
:101D10001092020581E0809301058FC281E08093DB
:101D200003051092010589C2893009F086C210921C
:101D3000010580910205882331F41092030581E0AA
:101D4000809302057AC281E0809303051092020518
:101D500074C28091D503813089F41092060582E720
:101D600093E00E94941F1092130580E066E044E522
:101D70000E94081B83E0809305055FC2823089F4CE
:101D80001092060582E793E00E94941F10921305BB
:101D900080E066E044E40E94081B85E0809305052E
:101DA0004CC28730A9F480912B05882341F481E04F
:101DB00080932B0510922A051092FF0406C0809193
:101DC0002A05882311F410922B051092050535C2BF
:101DD000883009F51092060580912A05882369F458
:101DE00081E080932A0580912B05882319F081E0FA
:101DF0008093FF0410922B050BC08091FF04882371
:101E000029F081E080932B051092FF0410922A059F
:101E10001092050512C2893009F00FC280912C057D
:101E2000813019F410922C0503C081E080932C05B9
:101E30001092050502C28091D503882369F410929F
:101E4000060580910405882321F481E08093040530
:101E500027C01092040524C0813051F41092060569
:101E6000809100058823E1F481E08093000518C08B
:101E700010920605883041F0893051F0873051F4D6
:101E800081E08093130506C082E08093130502C0B1
:101E90001092130582E190E0609113050E94942B4B
:101EA00010920505CAC12091D5032A3020F02031B7
:101EB00009F0C3C102C0203169F41092050582E126
:101EC00090E00E948C2B8093130582E793E00E94A0
:101ED0001F1FB3C180910605882319F4233040F0F9
:101EE000ACC1823011F0843019F4263008F0A5C15D
:101EF0000F2EF7E0EF2EF5E0FF2EF02DF701E80FA3
:101F0000F11D208300D000D000D0EDB7FEB7319690
:101F10008E010F5F1F4FADB7BEB712961C930E9385
:101F200011978AE793E093838283248315820E942A
:101F30000C2B8DB79EB706960FB6F8949EBF0FBEBA
:101F40008DBFC8010E94A72260910605F701E60F28
:101F5000F11D808144E50E94081B809106058F5F7A
:101F600080930605863008F468C184E080930505F7
:101F700064C18091D5038E3009F05FC18DE793E095
:101F80000E94A722ADB7BEB750970FB6F894BEBF58
:101F90000FBEADBFEDB7FEB731968E010F5F1F4F7D
:101FA00012961C930E9311978CE893E0938382838F
:101FB00080910705848315828091080586831782A6
:101FC000809109058087118680910A058287138692
:101FD00080910B058487158680910C05868717866E
:101FE0000E940C2B8DB79EB740960FB6F8949EBFFB
:101FF0000FBE8DBFC8010E94A72280910705880FE0
:10200000982F990F990F890F209108059091090534
:10201000990F692F660F660F690F30910A05630FDC
:1020200090910B05990F492F440F440F490F3091A0
:102030000C05430F820F0E947D0A1092050582E174
:1020400090E00E948C2B8093130582E793E00E941E
:102050001F1FF3C02091D5032A3020F0203109F052
:10206000ECC002C0203169F41092050582E190E0D5
:102070000E948C2B8093130582E793E00E941F1F20
:10208000DCC080910605882319F4243080F0D5C087
:10209000813041F490910705933049F4223008F0E3
:1020A000CCC005C0823019F4223008F0C6C00F2E13
:1020B000F7E0EF2EF5E0FF2EF02DF701E80FF11D10
:1020C000208300D000D000D0EDB7FEB731968E014E
:1020D0000F5F1F4FADB7BEB712961C930E931197AB
:1020E0008AE793E093838283248315820E940C2BDA
:1020F0008DB79EB706960FB6F8949EBF0FBE8DBFE4
:10210000C8010E94A72260910605F701E60FF11DA4
:10211000808144E40E94081B809106058F5F8093B4
:102120000605863008F489C086E08093050585C0E1
:102130008091D5038E3009F080C08CE993E00E9435
:10214000A722ADB7BEB71E970FB6F894BEBF0FBE9D
:10215000ADBFEDB7FEB731968E010F5F1F4F1296E0
:102160001C930E9311978BEA93E093838283809163
:1021700007058483158280910805868317828091E4
:1021800009058087118680910A05828713868091D0
:102190000B0590E0880F991F9C01220F331F220F1F
:1021A000331F820F931F8053984F20910C05820F8D
:1021B000911D958784870E940C2B8DB79EB70E9634
:1021C0000FB6F8949EBF0FBE8DBFC8010E94A72214
:1021D00080910705880F982F990F990F890F70919B
:1021E000080590910905990F692F660F660F690F11
:1021F00020910A05620F20910B0530E0220F331F5A
:10220000A901440F551F440F551F240F351FA90165
:102210004053584F90910C05490F511D870F0E9454
:102220003C0B1092050582E190E00E948C2B80937C
:10223000130582E793E00E941F1F64960FB6F8947F
:10224000DEBF0FBECDBFDF91CF911F910F91FF90E9
:10225000EF9008950F931F93CF93DF93CDB7DEB721
:1022600064970FB6F894DEBF0FBECDBF8CE196E049
:102270000E94220E882309F458C180911C06909177
:102280001D06A0911E06B0911F068D3A22E5920709
:102290002FEFA20720E0B20709F4E8C08E3A22E54A
:1022A00092072FEFA20720E0B20708F05BC08D3D38
:1022B00022E292072FEFA20720E0B20709F4C6C07E
:1022C0008E3D22E292072FEFA20720E0B207E0F452
:1022D0008F3E20E192072FEFA20720E0B20709F41A
:1022E000E4C0873E28E192072FEFA20720E0B20763
:1022F00009F4D3C08D3F22E092072FEFA20720E020
:10230000B20709F0E2C0AAC0873C28E392072FEF8A
:10231000A20720E0B20709F4CCC0883C28E392076A
:102320002FEFA20720E0B20750F48F3C20E3920782
:102330002FEFA20720E0B20709F0C7C0AAC08D3B6B
:1023400022E492072FEFA20720E0B20709F48AC027
:10235000853B2AE492072FEFA20720E0B20709F09D
:10236000B4C088C0873628E992072FEFA20720E083
:10237000B20709F486C0883628E992072FEFA20732
:1023800020E0B20770F58D3922E692072FEFA20701
:1023900020E0B20709F452C08E3922E692072FEFEF
:1023A000A20720E0B20750F4853A2AE592072FEF02
:1023B000A20720E0B20709F088C07FC0873928E66D
:1023C00092072FEFA20720E0B20709F456C0853824
:1023D0002AE792072FEFA20720E0B20709F075C0A5
:1023E00060C08F3420EB92072FEFA20720E0B207E6
:1023F00009F44BC0803520EB92072FEFA20720E0B5
:10240000B20750F4873528EA92072FEFA20720E0A1
:10241000B20709F05AC016C08D3322EC92072FEF95
:10242000A20720E0B207B1F08F3F2FEF92072FEF06
:10243000A2072FEFB20709F048C043C08AE080939B
:10244000D50346C08DE08093D50342C08BE08093D6
:10245000D5033EC08CE08093D5033AC08EE08093D4
:10246000D50336C08FE08093D50332C080E18093DE
:10247000D5032EC01092D5032BC081E08093D503E5
:1024800027C082E08093D50323C083E08093D503E7
:102490001FC084E08093D5031BC085E08093D503E3
:1024A00017C086E08093D50313C087E08093D503DF
:1024B0000FC088E08093D5030BC089E08093D503DB
:1024C00007C081E18093D50303C082E18093D503E7
:1024D00000D000D000D0EDB7FEB731968E010F5F6F
:1024E0001F4FADB7BEB712961C930E93119789EB91
:1024F00093E0938382838091D503A1ECB3E0A80F8E
:10250000B11D8C91848315820E940C2B8DB79EB7D0
:1025100006960FB6F8949EBF0FBE8DBFC8010E94ED
:10252000A7220E94410E0E941A0E64960FB6F894DC
:10253000DEBF0FBECDBFDF91CF911F910F910895E8
:10254000CF92DF92EF92FF920F931F93CF93DF937F
:10255000CDB7DEB72A970FB6F894DEBF0FBECDBF5A
:10256000DE011196E6EDF3E08AE001900D928150D4
:10257000E1F780910F0590911005A0911105B091A0
:1025800012050F2EF0E0CF2EF0E0DF2EF0E0EF2E60
:10259000FFEFFF2EF02DC822D922EA22FB228C0168
:1025A0009D010F701070207030700F2EF4E1000F3D
:1025B000111F221F331FFA95D1F7F02DAC01BD0179
:1025C000407F507060707070032E3CE0440F551FC8
:1025D000661F771F3A95D1F7302D042B152B262B2C
:1025E000372B0C291D292E293F29AC01BD01407034
:1025F0005F7060707070440F551F661F771F440F27
:10260000551F661F771F440F551F661F771F440F06
:10261000551F661F771F042B152B262B372BAC015C
:10262000BD014070507F60707070689413F87695AB
:102630006795579547951694D1F7042B152B262BA4
:10264000372BAC01BD01407050706F707070032E5D
:102650003CE076956795579547953A95D1F7302D9B
:10266000042B152B262B372BAC01BD01407050706D
:10267000607F7070032E34E1769567955795479586
:102680003A95D1F7302D402B512B622B732B209193
:102690000E053091B204332309F4A2C0392F809182
:1026A0001305813049F0813020F0823009F048C0B4
:1026B00023C010922F0544C09923D9F430912F05DF
:1026C000FE01E30FF11D818190E0A0E0B0E0BA2FA0
:1026D000A92F982F8827482B592B6A2B7B2B832FC8
:1026E0008F5F80932F058A3058F189E080932F0502
:1026F00027C010922F0524C0809130059817F1F063
:10270000507000912F05FE01E00FF11D818190E0D6
:10271000A0E0B0E0BA2FA92F982F8827482B592B7B
:102720006A2B7B2B802F8F5F80932F058A3040F0A0
:1027300089E080932F053093300502C010922F0559
:10274000362F80911305813049F0813020F082309E
:1027500009F046C022C01092310542C06623D1F470
:1027600030913105FE01E30FF11D818190E0A0E081
:10277000B0E0DC0199278827482B592B6A2B7B2B4B
:10278000832F8F5F809331058A3050F189E08093E9
:10279000310526C01092310523C08091320568179B
:1027A000E9F0607000913105FE01E00FF11D8181BB
:1027B00090E0A0E0B0E0DC0199278827482B592B56
:1027C0006A2B7B2B802F8F5F809331058A3040F0FE
:1027D00089E0809331053093320502C010923105B3
:1027E00098E080E83BB13F733BB9382F322338176C
:1027F00011F45D9A01C05D9886955F9A5F9891503B
:1028000089F7E0E280E090E0A0E0B0E82BB12F7320
:102810002BB98C019D010423152326233723081788
:1028200019072A073B0711F45D9A01C05D98B69518
:10283000A795979587955F9A5F98E15039F75E9ACB
:102840005E982A960FB6F894DEBF0FBECDBFDF911B
:10285000CF911F910F91FF90EF90DF90CF9008954F
:102860000E94E8010895F89460912505709126056D
:102870008091270590912805789408958F929F92D2
:10288000AF92BF92CF92DF92EF92FF92CF93DF93FE
:10289000EC010E9433144B015C016E01EE24FF2415
:1028A0000E943314DC01CB0188199909AA09BB09DC
:1028B0008C159D05AE05BF0598F3DF91CF91FF9074
:1028C000EF90DF90CF90BF90AF909F908F90089542
:1028D0001F920F920FB60F9211242F933F934F9395
:1028E0005F936F937F938F939F93AF93BF93EF9378
:1028F000FF932D9A809129058F5F8093290584315C
:10290000B8F00E94701D8091250590912605A09138
:102910002705B09128050196A11DB11D80932505BD
:1029200090932605A0932705B093280510922905BA
:102930000E949D0C2D98FF91EF91BF91AF919F91B7
:102940008F917F916F915F914F913F912F910F9058
:102950000FBE0F901F90189528E090E8392F38236C
:1029600071F0289A00000000000000000000000044
:1029700000000000000000000000289807C0289A0E
:1029800000000000000000000000289896952150EB
:1029900029F70895CF92DF92EF92FF920F931F9342
:1029A000CF93DF93F894C0E3D6E00F2EF8E3EF2E39
:1029B000F6E0FF2EF02D0F2EF9E2CF2EF6E0DF2EFF
:1029C000F02D8E010A5F1F4F89910E94AC14F70110
:1029D00081917F010E94AC14F60181916F010E94E8
:1029E000AC14C017D10781F77894DF91CF911F9174
:1029F0000F91FF90EF90DF90CF900895CF93DF93EA
:102A0000E0E3F6E0A8E3B6E0C9E2D6E09F012A5F82
:102A10003F4F61938D934993E217F307D1F70E94DB
:102A2000CA14DF91CF910895BF92CF92DF92EF92B7
:102A3000FF920F931F93CF93DF93CDB7DEB76C97C1
:102A40000FB6F894DEBF0FBECDBFE22E2D8BC32E86
:102A50003E8BD42E4F8BF52E588F262F698F7A8F71
:102A60008B8F9C8F4A8D5B8D633009F067C08FE13F
:102A700063E00E949E0A67E00E9474288FE1B82EEE
:102A8000B91A00D000D000D0EDB7FEB731968E0154
:102A90000F5F1F4FADB7BEB712961C930E931197E1
:102AA00080EE93E093838283B48215820E940C2B84
:102AB0008DB79EB706960FB6F8949EBF0FBE8DBF1A
:102AC000C8010E94A72280912D05813019F1813023
:102AD00020F0823009F0A3C029C0BF1449F492E06D
:102AE000E91631F4CC2079F481E080932D0597C06C
:102AF000FB1418F41092180592C0BF1420F481E062
:102B0000809318058CC0A1E0AE1508F488C010921F
:102B1000180585C083E060E04D2D0E947D0A82E0AB
:102B200080932D0581E08093180579C0CC2011F0A9
:102B300010922D0581E08093180571C06A3009F06C
:102B400065C08FE16AE00E949E0A67E00E947428D7
:102B50008FE1B82EB91A00D000D000D0EDB7FEB783
:102B600031968E010F5F1F4FADB7BEB712961C9303
:102B70000E9311978BEE93E093838283B482158238
:102B80000E940C2B8DB79EB706960FB6F8949EBF89
:102B90000FBE8DBFC8010E94A72280912E058130F3
:102BA00011F1813018F08230D1F528C0BF1449F4FA
:102BB00093E0E91631F4CC2079F481E080932E057E
:102BC0002EC0BF1418F41092180529C0FB1420F46D
:102BD00081E08093180523C0A2E0AE1500F181E0EA
:102BE000809318051CC082E060E04D2D0E947D0A94
:102BF00082E080932E051092180511C0B3E0BE1537
:102C000010F410922E051092180509C02350283098
:102C100018F01092180503C081E0809318056C9697
:102C20000FB6F894DEBF0FBECDBFDF91CF911F91DD
:102C30000F91FF90EF90DF90CF90BF900895282FD5
:102C40006AE00E947428982F990F392F330F330FA1
:102C5000930F8295807F291B2F70822B08950F93ED
:102C60001F938823E1F460E040E00E94FE1488B1E5
:102C7000807F88B980910F0590911005A091110572
:102C8000B09112058A6A9A6AAA6AB07080930F0599
:102C900090931005A0931105B09312052BC026E068
:102CA00030E08901081B1109C801880F880F4AE02C
:102CB00050E060E070E08A019B0104C0000F111F2A
:102CC000221F331F8A95D2F7D901C80140910F0501
:102CD000509110056091110570911205842B952B70
:102CE000A62BB72B80930F0590931005A093110589
:102CF000B09312051F910F91089588B1807F88B914
:102D000080913305843009F462C0853050F48130FD
:102D100059F18130C8F08230B9F1833009F0BBC07D
:102D200046C0873009F486C0883038F4853009F40D
:102D30005EC0863009F0AFC06DC0883009F48AC02B
:102D4000893009F0A8C099C080E090E0A0E0B1E02F
:102D500080930F0590931005A0931105B093120571
:102D600081E080933305089581E191E1A1E1B2E032
:102D700080930F0590931005A0931105B093120551
:102D800082E080933305089582E292E2A2E2B0E409
:102D900080930F0590931005A0931105B093120531
:102DA00088B18C6088B983E080933305089583E30C
:102DB00093E3A3E3B4E080930F0590931005A093F1
:102DC0001105B093120584E080933305089584E4DF
:102DD00094E4A4E4B8E080930F0590931005A093C9
:102DE0001105B093120585E080933305089585E5BC
:102DF00095E5A5E5B0E880930F0590931005A093A5
:102E00001105B093120588B1896088B986E0809376
:102E10003305089586E696E6A6E6B0E180930F05B1
:102E200090931005A0931105B093120587E080934D
:102E30003305089587E797E7A7E7B0E280930F058A
:102E400090931005A0931105B093120588E080932C
:102E50003305089588E898E8A8E8BFEF80930F0548
:102E600090931005A0931105B093120588B18A6064
:102E700088B989E080933305089589E999E9A9E93A
:102E8000BFEF80930F0590931005A0931105B093A9
:102E90001205109233050895662331F00E947029BF
:102EA0006CE370E00E94942867E00E9474289330DD
:102EB00001F1943028F4913081F09230A0F407C0F1
:102EC000953019F19530D8F0963059F524C08FEF30
:102ED0006FEF4FEF0E94FE1408958FEF60E040E027
:102EE0000E94FE14089580E06FEF40E00E94FE14FF
:102EF000089580E060E04FEF0E94FE1408958FEF88
:102F00006FEF40E00E94FE1408958FEF60E04FEFF6
:102F10000E94FE14089580E06FEF4FEF0E94FE14B0
:102F2000089580E060E040E00E94FE140895CF9391
:102F3000DF93CDB7DEB728970FB6F894DEBF0FBE8C
:102F4000CDBF80911505821720F4909117052917A0
:102F500088F0821721F480911405381768F4809165
:102F60001705821759F481E090911605391738F446
:102F700080E005C080E003C080E001C081E02896C9
:102F80000FB6F894DEBF0FBECDBFDF91CF9108958D
:102F90006F927F928F929F92AF92BF92CF92DF9269
:102FA000EF92FF920F931F93CF93DF93CDB7DEB7CE
:102FB000E0970FB6F894DEBF0FBECDBF10920F059D
:102FC00010921005109211051092120510920E0524
:102FD000CE0101960E94280A1092B2048091020547
:102FE000882329F08B8161E00E944C1751C08091A9
:102FF0000105882329F08B8160E00E944C1748C0AE
:1030000080910305882309F043C08091FE0483303A
:1030100011F1843028F4813091F08230B0F409C08D
:10302000853029F18530E8F0863039F1873081F537
:103030002AC080E060E040E00E94FE1429C08FEFCB
:1030400060E040E00E94FE1423C080E06FEF40E0AB
:103050000E94FE141DC080E060E04FEF0E94FE144D
:1030600017C08FEF6FEF40E00E94FE1411C08FEF8A
:1030700060E04FEF0E94FE140BC080E06FEF4FEF57
:103080000E94FE1405C08FEF6FEF4FEF0E94FE14F9
:1030900080912C05882319F00E947D16A4C280918E
:1030A0003706882341F080914106882311F0299A40
:1030B0009AC2299898C229813A814B815C816D819D
:1030C0007E818F8198850E949717882311F0299817
:1030D0008AC2299A8B81833138F4813108F05FC02C
:1030E0008F3008F4FBC10BC0883208F4F7C18A3274
:1030F00008F4A0C08253823008F0F0C133C12981A6
:103100003A814B815C816D817E818F8198850E949F
:1031100014158C810E941F16082F8D810E941F1686
:10312000402F50E060E070E0032E3CE0440F551F5C
:10313000661F771F3A95D1F7302D90E0A0E0B0E000
:10314000482B592B6A2B7B2BDB01CA01880F991F57
:10315000AA1FBB1F880F991FAA1FBB1F880F991F8B
:10316000AA1FBB1F880F991FAA1FBB1F80930F05A3
:1031700090931005A0931105B093120583E00E946F
:103180002F1686E00E942F1680910305882309F4EC
:103190002AC280E06FEF40E00E94FE1424C288B192
:1031A000807F88B98E819F8164E670E00E948028CC
:1031B000C82E862F0E941F16082F8C2D0E941F16C6
:1031C000402F50E060E070E0762F652F542F4427A9
:1031D00090E0A0E0B0E0482B592B6A2B7B2BDB0161
:1031E000CA01880F991FAA1FBB1F880F991FAA1F0A
:1031F000BB1F880F991FAA1FBB1F880F991FAA1FEB
:10320000BB1F80930F0590931005A0931105B093F9
:10321000120581E00E942F1686E00E942F168091F1
:103220000305882309F4DFC180E06FEF40E00E94CE
:10323000FE14D9C1C0901D05D0901E05E0901F0559
:10324000F0902005C701B60120E030E040E251E4F3
:103250000E9466240E94AC23B62E862F0E941F1661
:10326000082F8B2C9924B401882777FD8095982FFF
:103270000E94DA239B01AC01C701B6010E94DA2249
:1032800020E030E040E251E40E9466240E94AC233A
:10329000462F50E060E070E07064802F90E0A0E086
:1032A000B0E0880F991FAA1FBB1F880F991FAA1F84
:1032B000BB1F880F991FAA1FBB1F880F991FAA1F2A
:1032C000BB1F842B952BA62BB72B80930F059093B8
:1032D0001005A0931105B093120588B18C7F88B9B1
:1032E000429A439A81E00E942F1682E00E942F1694
:1032F00083E00E942F1686EF93E00E94A72200D061
:1033000000D000D0EDB7FEB731968E01075F1F4F9A
:10331000ADB7BEB712961C930E93119787E094E059
:1033200093838283958284820E940C2B8DB79EB7F3
:1033300006960FB6F8949EBF0FBE8DBFC8010E94BF
:10334000A72299E09B1518F084E00E942F16809127
:103350000305882309F447C18FEF60E040E00E9435
:10336000FE1441C1C0902105D0902205E0902305B4
:10337000F0902405C701B60120E030E048EC52E4AB
:103380000E943F230E94AC23B62E862F0E941F1658
:10339000882E6B2C772484E690E0689EB001699EAD
:1033A000700D789E700D1124882777FD8095982FD9
:1033B0000E94DA239B01AC01C701B6010E94DA2208
:1033C0000E94AC23862F0E941F16A82EC701B601AB
:1033D0000E94A723882777FD8095982F0E94DA23E3
:1033E0009B01AC01C701B6010E94DA2220E030E067
:1033F00040E251E40E9466240E94AC23062F10E0B4
:1034000020E030E03064482D50E060E070E0762F3E
:10341000652F542F44278A2D90E0A0E0B0E0842B44
:10342000952BA62BB72B880F991FAA1FBB1F880FA0
:10343000991FAA1FBB1F880F991FAA1FBB1F880FA8
:10344000991FAA1FBB1F082B192B2A2B3B2B00935C
:103450000F0510931005209311053093120588B1C4
:103460008A7F88B9419A439A81E00E942F168BE0A7
:1034700094E00E94A72200D000D000D0EDB7FEB7A4
:1034800031968E01075F1F4FADB7BEB712961C93E2
:103490000E93119787E094E0938382837582648210
:1034A0000E940C2B8DB79EB706960FB6F8949EBF60
:1034B0000FBE8DBFC8010E94A72299E09B1518F08E
:1034C00082E00E942F1680910305882309F48BC0A7
:1034D0008FEF60E04FEF0E94FE1485C081E0809383
:1034E000B20429813A814B815C816D817E818F811B
:1034F00098850E94141589810E941F16082F8A81C1
:103500000E941F16402F50E060E070E0762F652F7C
:10351000542F4427C82EDD24EE24FF24C42AD52AA4
:10352000E62AF72A8B810E941F16FE2CED2CDC2C3C
:10353000CC2490E0A0E0B0E0C82AD92AEA2AFB2AED
:10354000C0920F05D0921005E0921105F09212057D
:1035500088B1807F88B980910305882329F08FEF97
:103560006FEF40E00E94FE148B8180FF12C08091BB
:103570000F0590911005A0911105B0911205B4604E
:1035800080930F0590931005A0931105B093120539
:1035900011C080910F0590911005A0911105B09177
:1035A0001205B06880930F0590931005A093110544
:1035B000B09312058A8180FF04C082E080930E05DB
:1035C00003C082E080930E0580911805882331F0B6
:1035D00080910E05886080930E0505C080910E05D0
:1035E000877F80930E05E0960FB6F894DEBF0FBE7E
:1035F000CDBFDF91CF911F910F91FF90EF90DF90A2
:10360000CF90BF90AF909F908F907F906F900895D4
:10361000CF93C42F633009F49EC0643030F461301E
:10362000A9F1623008F066C00AC0653009F4ECC048
:10363000653008F4BEC0663009F019C10DC190E0D4
:10364000A0E0B0E040910F05509110056091110588
:1036500070911205842B952BA62BB72B80930F0509
:1036600090931005A0931105B093120581E00E947C
:103670002F1682E00E942F1683E00E942F1684E00E
:103680000E942F1685E00E942F16F1C090E0A0E066
:10369000B0E040910F0550911005609111057091B7
:1036A0001205440F551F661F771F440F551F661FD5
:1036B000771F440F551F661F771F440F551F661F46
:1036C000771F842B952BA62BB72B80930F059093F8
:1036D0001005A0931105B093120581E00E942F16EA
:1036E00082E00E942F1683E00E942F1684E00E9441
:1036F0002F16BDC090E0A0E0B0E040910F055091C2
:1037000010056091110570911205440F551F661F39
:10371000771F440F551F661F771F440F551F661FE5
:10372000771F440F551F661F771F842B952BA62BE1
:10373000B72B80930F0590931005A0931105B093BC
:10374000120581E00E942F1682E00E942F1683E06E
:103750000E942F168CC090E0A0E0B0E040910F05D1
:10376000509110056091110570911205440F551F7D
:10377000661F771F440F551F661F771F440F551F85
:10378000661F771F440F551F661F771F842B952BCD
:10379000A62BB72B80930F0590931005A0931105CE
:1037A000B093120581E00E942F1682E00E942F162E
:1037B0005EC090E0A0E0B0E040910F055091100590
:1037C0006091110570911205440F551F661F771FF8
:1037D000440F551F661F771F440F551F661F771F25
:1037E000440F551F661F771F842B952BA62BB72BD5
:1037F00080930F0590931005A0931105B0931205C7
:1038000081E00E942F1633C090E0A0E0B0E040912C
:103810000F05509110056091110570911205440F2C
:10382000551F661F771F440F551F661F771F440FD4
:10383000551F661F771F440F551F661F771F842B68
:10384000952BA62BB72B80930F0590931005A09373
:103850001105B09312050BC010920F0510921005C0
:10386000109211051092120588B1807F88B91092CC
:103870000E05C435D1F480910F0590911005A091EB
:103880001105B0911205B06880930F059093100553
:10389000A0931105B093120582E080930E058FEF7F
:1038A0006FEF40E00E94FE141BC0C434C9F4809145
:1038B0000F0590911005A0911105B0911205B06807
:1038C00080930F0590931005A0931105B0931205F6
:1038D00082E080930E0580E06FEF40E00E94FE14CE
:1038E000CF910895E0EBF0E080818260808382E0F8
:1038F0008093B10083E68093B3001092B200E0E7BA
:10390000F0E0808182608083089523982B9884B1B1
:10391000836284B985B18C7D85B987B18F6087B9A1
:1039200088B1807F88B98AB1806E8AB98BB18F7176
:103930008BB90895CF93DF93CDB7DEB764970FB6F9
:10394000F894DEBF0FBECDBF0E94721C0E94970C80
:103950008CE00E9484080E94851C8BE390E00E940A
:10396000752989E190E00E94E2210E94EF0088EC35
:1039700097E160E274E040E050E028EE33E00E941E
:103980008F1E80EA92E168E274E044E650E022E3B0
:1039900030E00E948F1E8AE291E16FE274E046E916
:1039A00050E024EF31E00E948F1E80E394E167E352
:1039B00074E04AEF50E028E833E10E948F1E7894CB
:1039C0000E94A9070E94F20782E290E00E948C2BDD
:1039D00091E0882309F490E0909318058EE394E039
:1039E0000E94A72289E694E00E94A7228DB79EB785
:1039F0000C970FB6F8949EBF0FBE8DBFEDB7FEB704
:103A000031968E010F5F1F4FADB7BEB712961C9354
:103A10000E93119788E794E0938382838091170532
:103A200084831582809116058683178280911505FF
:103A30008087118680911405828713860E940C2B43
:103A40008DB79EB70C960FB6F8949EBF0FBE8DBF74
:103A5000C8010E94A72280E060E040E00E94FE14BE
:103A60008E010F5F1F4F0F2EFFE9EF2EF4E0FF2EA8
:103A7000F02D0F2EF9E3CF2EF5E0DF2EF02D0F2ED7
:103A8000F0E9AF2EF4E0BF2EF02D0E94E91D0E9458
:103A90007307813019F08230C1F704C0C5010E945C
:103AA000A722F3CF00D000D000D0EDB7FEB73196FB
:103AB000ADB7BEB712961C930E931197F382E282B4
:103AC000D582C4820E940C2B8DB79EB706960FB686
:103AD000F8949EBF0FBE8DBFC8010E94A722D5CF0C
:103AE0008091440690914506009709F471C080E0EA
:103AF00090E060E0A4E4B6E0FC01EE0FFF1FE80FE9
:103B0000F91FEE0FFF1FEE0FFF1FEE0FFF1FE80F55
:103B1000F91FEA0FFB1F4089518941155105A9F092
:103B20009C01220F331F280F391F220F331F220F32
:103B3000331F220F331F820F931FFD01E80FF91F60
:103B400041505040518B408B2BC0FC01EE0FFF1FAA
:103B5000E80FF91FEE0FFF1FEE0FFF1FEE0FFF1F05
:103B6000E80FF91FEA0FFB1F2289338921503040EB
:103B7000338B228B2115310599F49C01220F331FC1
:103B8000280F391F220F331F220F331F220F331F1D
:103B9000820F931FFD01E80FF91F84898160848BD8
:103BA0006F5F862F90E0FC01EE0FFF1FE80FF91FFB
:103BB000EE0FFF1FEE0FFF1FEE0FFF1FE80FF91FA5
:103BC000EA0FFB1F208131812115310509F094CFC7
:103BD00008958F929F92AF92BF92CF92DF92EF9211
:103BE000FF921F93CF93DF938091440690914506F7
:103BF000009709F488C0C0E0D0E010E00F2EF4E494
:103C0000CF2EF6E0DF2EF02DFE01EE0FFF1FEC0FA2
:103C1000FD1FEE0FFF1FEE0FFF1FEE0FFF1FEC0F3C
:103C2000FD1FEC0DFD1D84898370833009F054C0A5
:103C30000E9433144B015C017E01EE0CFF1CEC0E64
:103C4000FD1EEE0CFF1CEE0CFF1CEE0CFF1CEC0E20
:103C5000FD1EEC0CFD1CD701ED91FC910995F701BF
:103C600084898E7F848B86859785938B828B0E9437
:103C70003314AB01BC01481559056A057B0558F49E
:103C8000D501C40180959095A095B095480F591F16
:103C90006A1F7B1F04C0481959096A097B09FE0184
:103CA000EE0FFF1FEC0FFD1FEE0FFF1FEE0FFF1FAC
:103CB000EE0FFF1FEC0FFD1FEC0DFD1D568B458B0E
:103CC0008789908DA0E0B0E084179507A607B70715
:103CD00018F4EF01588F4F8B1F5FC12FD0E0FE010A
:103CE000EE0FFF1FEC0FFD1FEE0FFF1FEE0FFF1F6C
:103CF000EE0FFF1FEC0FFD1FEC0DFD1D808191816C
:103D0000009709F081CFDF91CF911F91FF90EF9045
:103D1000DF90CF90BF90AF909F908F9008954F927B
:103D20005F926F927F928F929F92AF92BF92CF924B
:103D3000DF92EF92FF921F93CF93DF937C015B01A1
:103D40006A01B90110913405193008F067C08091FB
:103D50005206909153060097D9F0C0E044E456E033
:103D6000CF5F2C2F30E0C901880F991F820F931F5E
:103D7000880F991F880F991F880F991F820F931F13
:103D8000840F951FFC0186859785009749F701C030
:103D9000C0E080E090E028EE33E040E050E00E9498
:103DA00055280E94C9288C2F90E0EC01CC0FDD1F14
:103DB000C80FD91FCC0FDD1FCC0FDD1FCC0FDD1FAF
:103DC0004E01880E991EE401CC5BD94FF982E8823E
:103DD0003F872E873B8B2A8BB60180E090E028EE50
:103DE00033E040E050E00E9455280E94C928398BFA
:103DF000288B8C8982608E7F8C8B1E8A1D8A188E00
:103E00001F8AC4018A5B994FB5014CE050E00E94C3
:103E1000972A1F5F1093340580E001C086E0DF9190
:103E2000CF911F91FF90EF90DF90CF90BF90AF9018
:103E30009F908F907F906F905F904F900895BF926A
:103E4000CF92DF92EF92FF920F931F93CF93DF9366
:103E50006C018091520690915306009709F457C067
:103E6000C0E0D0E010E000E00F2EF4E4EF2EF6E02A
:103E7000FF2EF02DBB24B394CE01880F991F8C0F19
:103E80009D1F880F991F880F991F880F991F8C0FEE
:103E90009D1F8A5B994FB6010E948E2A282F392FC9
:103EA00021153105A1F4CE01880F991F8C0F9D1F9C
:103EB000880F991F880F991F880F991FC80FD91F46
:103EC000CE0DDF1D8C8982608C8B2B2D01C0202FA5
:103ED0001F5FC12FD0E0FE01EE0FFF1FEC0FFD1F93
:103EE000EE0FFF1FEE0FFF1FEE0FFF1FEC0FFD1F6A
:103EF000EE0DFF1D86859785009729F0222309F492
:103F0000BBCF80E007C0222321F080E003C085E022
:103F100001C084E0DF91CF911F910F91FF90EF904E
:103F2000DF90CF90BF900895BF92CF92DF92EF9233
:103F3000FF920F931F93CF93DF936C0180915206F2
:103F400090915306009709F457C0C0E0D0E010E00C
:103F500000E00F2EF4E4EF2EF6E0FF2EF02DBB2450
:103F6000B394CE01880F991F8C0F9D1F880F991F46
:103F7000880F991F880F991F8C0F9D1F8A5B994F7F
:103F8000B6010E948E2A282F392F21153105A1F460
:103F9000CE01880F991F8C0F9D1F880F991F880FC6
:103FA000991F880F991FC80FD91FCE0DDF1D8C894F
:103FB0008D7F8C8B2B2D01C0202F1F5FC12FD0E058
:103FC000FE01EE0FFF1FEC0FFD1FEE0FFF1FEE0FA8
:103FD000FF1FEE0FFF1FEC0FFD1FEE0DFF1D86856F
:103FE0009785009729F0222309F4BBCF80E007C012
:103FF000222321F080E003C085E001C084E0DF914E
:10400000CF911F910F91FF90EF90DF90CF90BF90D5
:1040100008958F929F92BF92CF92DF92EF92FF927C
:104020000F931F93CF93DF936B0120915206309132
:1040300053062115310509F462C0BC0180E090E00F
:1040400028EE33E040E050E00E9455280E94C92845
:104050004901C0E0D0E010E000E00F2EF4E4EF2EC4
:10406000F6E0FF2EF02DBB24B394CE01880F991FEC
:104070008C0F9D1F880F991F880F991F880F991FFC
:104080008C0F9D1F8A5B994FB6010E948E2A282FA4
:10409000392F2115310599F4CE01880F991F8C0F06
:1040A0009D1F880F991F880F991F880F991FC80F90
:1040B000D91FCE0DDF1D9F868E862B2D01C0202F90
:1040C0001F5FC12FD0E0FE01EE0FFF1FEC0FFD1FA1
:1040D000EE0FFF1FEE0FFF1FEE0FFF1FEC0FFD1F78
:1040E000EE0DFF1D86859785009729F0222309F4A0
:1040F000BCCF80E007C0222321F080E003C085E030
:1041000001C084E0DF91CF911F910F91FF90EF905C
:10411000DF90CF90BF909F908F900895AF92BF9205
:10412000CF92DF92EF92FF921F93CF93DF93CDB7A1
:10413000DEB7C655D0400FB6F894DEBF0FBECDBF78
:10414000DE01D396E3EDF4E084E201900D9281501C
:10415000E1F7CE01C3960E94A722409152065091EA
:1041600053064115510509F479C020E030E010E014
:104170007E010894E11CF11C0F2EF3EBAF2EF4E04E
:10418000BF2EF02D0F2EF4E4CF2EF6E0DF2EF02D13
:104190008DB79EB70E970FB6F8949EBF0FBE8DBF1A
:1041A000ADB7BEB71196EDB7FEB7F282E1821396B6
:1041B000BC92AE921297C901880F991F820F931F6C
:1041C000880F991F880F991F880F991F820F931FBF
:1041D0009C012A5B394F15963C932E9314971796A2
:1041E0005C934E931697F601E80FF91F8489189691
:1041F0008C93189719961C921997858996891B9606
:104200009C938E931A978789908D1D969C938E937D
:104210001C970E940C2B8DB79EB70E960FB6F89484
:104220009EBF0FBE8DBFC7010E94A7221F5F212F17
:1042300030E0F901EE0FFF1FE20FF31FEE0FFF1F3B
:10424000EE0FFF1FEE0FFF1FE20FF31FEC0DFD1D22
:10425000468557854115510509F09ACFCA5ADF4F57
:104260000FB6F894DEBF0FBECDBFDF91CF911F9187
:10427000FF90EF90DF90CF90BF90AF9008951F9286
:104280000F920FB60F9211242F933F934F935F938A
:104290008F939F93EF93FF939091540780915307CF
:1042A0009817E1F080915407E0915607F091570775
:1042B000E80FF11D508140915407242F30E0809188
:1042C000550790E001972817390711F04F5F01C09B
:1042D00040E0409354075093C60005C0E1ECF0E085
:1042E00080818F7D8083FF91EF919F918F915F916E
:1042F0004F913F912F910F900FBE0F901F901895E7
:104300001F920F920FB60F9211242F933F934F934A
:104310005F938F939F93EF93FF93CF93DF930F92CE
:10432000CDB7DEB750914F07EFE4F7E04291842F0D
:1043300090E0228130E0215030408217930711F045
:104340004F5F01C040E05417F1F08091C60090919A
:104350004E07E0915107F0915207E90FF11D80835C
:1043600040914E07242F30E08091500790E0019754
:104370002817390711F04F5F01C040E040934E0706
:1043800010924D0706C08091C600898381E080931A
:104390004D0780913505909136050196909336052D
:1043A000809335050F90DF91CF91FF91EF919F9111
:1043B0008F915F914F913F912F910F900FBE0F9072
:1043C0001F901895CF93DF93CDB7DEB764970FB6E4
:1043D000F894DEBF0FBECDBF9093C5008093C4009C
:1043E00088E98093C100E0ECF0E080818D7F8083DC
:1043F00086E08093C200188A198A8EE18A8B85E252
:1044000097E09C8B8B8BDE011696FE01709685E003
:1044100001900D928150E1F7DE011B96FE01369668
:1044200085E001900D928150E1F7A3E5B7E0FE0130
:104430003B9685E001900D928150E1F71B861C862A
:104440008AE08D8783E497E09F878E87DE0111964F
:10445000FE013B9685E001900D928150E1F7DE016F
:104460005096FE01319685E001900D928150E1F762
:10447000AEE4B7E0FE01709685E001900D928150A8
:10448000E1F764960FB6F894DEBF0FBECDBFDF91A3
:10449000CF910895CF92DF92EF92FF920F931F93E7
:1044A000CF93DF93C82EC4E5D7E08E0101501040B2
:1044B000EE24FF246894E1F8E00EF11EDD2404C030
:1044C00081E090E00E943E145881F8014081242F41
:1044D00030E0F701808190E001972817390711F04B
:1044E0004F5F01C04D2D541759F3F8949091540724
:1044F00080915307981729F4E1ECF0E08081806205
:10450000808380915307E0915607F0915707E80F99
:10451000F11DC08240915307242F30E08091550750
:1045200090E001972817390711F04F5F01C040E074
:10453000409353077894DF91CF911F910F91FF9093
:10454000EF90DF90CF9008950E944A220895CF9374
:10455000DF93EC018881882331F021960E94A42208
:1045600089918823D9F7DF91CF91089520914F0742
:1045700090914E0781E0291709F480E00895809119
:104580004F07E0915107F0915207E80FF11D80812C
:1045900090914F07492F50E02091500730E0215073
:1045A00030404217530711F09F5F01C090E0909395
:1045B0004F0708955058BB27AA270ED04DC13ED1B2
:1045C00030F043D120F031F49F3F11F41EF433C199
:1045D0000EF4E095E7FB29C1E92F4FD180F3BA171C
:1045E000620773078407950718F071F49EF567C199
:1045F0000EF4E0950B2EBA2FA02D0B01B9019001FE
:104600000C01CA01A0011124FF27591B99F0593F41
:1046100050F4503E68F11A16F040A22F232F342F89
:104620004427585FF3CF469537952795A795F040D7
:104630005395C9F77EF41F16BA0B620B730B840BEC
:10464000BAF09150A1F0FF0FBB1F661F771F881FA4
:10465000C2F70EC0BA0F621F731F841F48F48795FC
:1046600077956795B795F7959E3F08F0B3CF9395EB
:10467000880F08F09927EE0F9795879508950CD02D
:10468000EBC0E3D040F0DAD030F021F45F3F19F016
:10469000CCC0511115C1CFC0F0D098F39923C9F304
:1046A0005523B1F3951B550BBB27AA276217730738
:1046B000840738F09F5F5F4F220F331F441FAA1FEC
:1046C000A9F333D00E2E3AF0E0E830D091505040AC
:1046D000E695001CCAF729D0FE2F27D0660F771F5A
:1046E000881FBB1F261737074807AB07B0E809F03C
:1046F000BB0B802DBF01FF2793585F4F2AF09E3FD1
:10470000510568F092C0DCC05F3FECF3983EDCF3EB
:10471000869577956795B795F7959F5FC9F7880F49
:10472000911D9695879597F90895E1E0660F771F9B
:10473000881FBB1F621773078407BA0720F0621B2C
:10474000730B840BBA0BEE1F88F7E095089504D025
:104750006894B111B5C0089598D088F09F5790F033
:10476000B92F9927B751A0F0D1F0660F771F881F96
:10477000991F1AF0BA95C9F712C0B13081F09FD0D5
:10478000B1E008959CC0672F782F8827B85F39F073
:10479000B93FCCF3869577956795B395D9F73EF4F5
:1047A00090958095709561957F4F8F4F9F4F08959D
:1047B000E89409C097FB3EF49095809570956195BB
:1047C0007F4F8F4F9F4F9923A9F0F92F96E9BB2771
:1047D0009395F695879577956795B795F111F8CFED
:1047E000FAF4BB0F11F460FF1BC06F5F7F4F8F4F58
:1047F0009F4F16C0882311F096E911C0772321F04E
:104800009EE8872F762F05C0662371F096E8862FE5
:1048100070E060E02AF09A95660F771F881FDAF73C
:10482000880F9695879597F9089597F99F6780E87F
:1048300070E060E008959FEF80EC089500240A94F2
:104840001616170618060906089500240A9412166B
:104850001306140605060895092E0394000C11F49E
:10486000882352F0BB0F40F4BF2B11F460FF04C04B
:104870006F5F7F4F8F4F9F4F089557FD9058440FA4
:10488000551F59F05F3F71F04795880F97FB991FAF
:1048900061F09F3F79F0879508951216130614066C
:1048A000551FF2CF4695F1DF08C0161617061806F9
:1048B000991FF1CF86957105610508940895E894D4
:1048C000BB2766277727CB0197F908950BD0C4CF74
:1048D000B5DF28F0BADF18F0952309F0A6CFABCFEB
:1048E0001124EECFCADFA0F3959FD1F3950F50E0CE
:1048F000551F629FF001729FBB27F00DB11D639F92
:10490000AA27F00DB11DAA1F649F6627B00DA11D37
:10491000661F829F2227B00DA11D621F739FB00DDD
:10492000A11D621F839FA00D611D221F749F33274D
:10493000A00D611D231F849F600D211D822F762FE6
:104940006A2F11249F5750408AF0E1F088234AF0E3
:10495000EE0FFF1FBB1F661F771F881F915050402F
:10496000A9F79E3F510570F060CFAACF5F3FECF3EF
:10497000983EDCF3869577956795B795F795E7951B
:104980009F5FC1F7FE2B880F911D9695879597F92C
:104990000895A5E1B0E0EFECF4E20C94E4284C01BA
:1049A0007F876E87FC0117821682838181FD04C098
:1049B00076C34C855D8504C01E010894211C311C02
:1049C000F4019381EE85FF8593FD859193FF81919D
:1049D000FF87EE87882309F45EC3853241F493FD97
:1049E000859193FF8191FF87EE87853259F490E09E
:1049F000B4014C8B5D8B0E94E02A4C895D895D87F8
:104A00004C87D7CFFF24DD2410E01032B0F48B3276
:104A100069F08C3228F4803251F0833271F40BC08B
:104A20008D3239F0803349F411602CC0126014606B
:104A300029C0186027C0106125C017FD2EC0282F7F
:104A400020532A3098F416FF08C08F2D880FF82EB7
:104A5000FF0CFF0CF80EF20E15C08D2D880FD82E0E
:104A6000DD0CDD0CD80ED20E10620CC08E3221F49B
:104A700016FD11C3106406C08C3611F4106802C014
:104A8000883659F4EE85FF8593FD859193FF8191DA
:104A9000FF87EE87882309F0B8CF982F955493307D
:104AA00018F41061805E06C0982F9556933008F078
:104AB000A2C11F7E16FD02C0E6E0FE2E1F738536E2
:104AC00011F4106406C0863611F4106802C0F110AB
:104AD000FA9417FF07C0FBE3FF1548F0EF2CE394AF
:104AE00027E00DC027E02F1530F02F2D07C027E05D
:104AF0007CE3E72E04C027E067E0F62EEE24CA012F
:104B000004969D878C87FA016081718182819381EF
:104B1000A1010E2D0E949E295C01C9802C2D30E040
:104B2000398B288BC0FE03C0388933FF06C011FDC6
:104B300006C012FF06C000E205C00DE203C00BE292
:104B400001C000E0888999898C709070009709F401
:104B50003CC0002311F084E001C083E08D1558F4BF
:104B6000D81A13FD09C080E290E0B4010E94E02A47
:104B7000DA94C9F701C0DD24002329F0802F90E0EA
:104B8000B4010E94E02A888983FD05C03CE6E32E3B
:104B900030E0F32E11C028E6E22E20E0F22E0CC009
:104BA0000115110509F0805290E0B4010E94E02A3D
:104BB0000894E11CF11C04C0012F10E0007110707A
:104BC000F7018491882361F763C217FF0EC0EA0CD6
:104BD000F889F4FF04C08A81813309F4EA941E1431
:104BE0004CF528E02E1548F12CC016FD2AC08F2D5B
:104BF00090E08A159B0544F03CEFA3163FEFB30607
:104C00001CF0106801C0FA94FF2049F0E2E0F0E0E7
:104C1000EC0FFD1FEF0DF11D80818033A1F317FF15
:104C200010C0EF2CE3948F2D90E0A816B90644F441
:104C3000FA1807C0EE24E39404C098E0E92E01C0FE
:104C4000FF2417FF07C01A141B043CF495012F5FC3
:104C50003F4F05C025E030E002C021E030E00023F6
:104C600011F02F5F3F4FFF2029F08F2D90E001962C
:104C7000280F391F8D2D90E02817390714F4D21A08
:104C800001C0DD24612E7724C301897090700097E4
:104C900049F406C080E290E0B4010E94E02ADA9470
:104CA000DD20C1F7002329F0802F90E0B4010E949D
:104CB000E02A63FC09C006C080E390E0B4010E94D2
:104CC000E02ADA94DD20C1F717FF48C08501B7FE5E
:104CD00002C000E010E06624772495012E19310906
:104CE0003B8B2A8B2501401A510A420C531C6F2D15
:104CF00070E0EE24FF24E61AF70A3FEF0F3F130798
:104D000029F48EE290E0B4010E94E02AA016B106D8
:104D100054F02A893B89201731072CF4F201E60D63
:104D2000F71D818101C080E3015010400894611C8F
:104D3000711C0E151F052CF090E0B4010E94E02AB2
:104D4000DCCF0A151B0541F49A81963320F4953384
:104D500019F4388934FF81E390E049C08A818133B6
:104D600011F09FEEC92290E0B4010E94E02AFF20DA
:104D700089F08EE290E0B4010E94E02A12E0F10195
:104D8000E10FF11D1F5F808190E0B4010E94E02AD5
:104D9000FA94A9F764FE03C085E490E002C085E6BA
:104DA00090E0B4010E94E02AB7FC05C0A114B10450
:104DB00041F4C4FE06C0B094A194B108B3948DE24E
:104DC00001C08BE290E0B4010E94E02A80E305C0BC
:104DD0008F5FE6EFFFEFAE0EBF1EFAE0AF16B10435
:104DE000BCF790E0B4010E94E02AC501C096B4016E
:104DF0000E94E02A4DC1833631F0833789F0833534
:104E000009F059C022C09A012E5F3F4F3D872C8781
:104E1000FA018081898381E0E82EF12C510113C0D1
:104E20009A012E5F3F4F3D872C87FA01A080B18009
:104E300016FF03C06F2D70E002C06FEF7FEFC5015A
:104E40000E94A62A7C011F7714C09A012E5F3F4F53
:104E50003D872C87FA01A080B18016FF03C06F2D1B
:104E600070E002C06FEF7FEFC5010E947E2A7C01D7
:104E7000106813FD1CC006C080E290E0B4010E94DF
:104E8000E02ADA948D2D90E0E816F906A8F30FC019
:104E9000F50117FD859117FF81915F0190E0B40145
:104EA0000E94E02AD110DA940894E108F108E11494
:104EB000F10471F7EDC0843611F0893671F59A016D
:104EC00017FF0AC02C5F3F4F3D872C87FA01808176
:104ED0009181A281B3810BC02E5F3F4F3D872C870C
:104EE000FA0180819181AA2797FDA095BA2F012F01
:104EF0000F76B7FF08C0B095A095909581959F4F0C
:104F0000AF4FBF4F0068BC01CD01A1012AE030E0E6
:104F10000E942E2BE82EE21841C0853721F41F7E17
:104F20002AE030E020C0197F8F36A9F0803720F4C6
:104F3000883509F0B0C00BC0803721F0883709F000
:104F4000AAC001C0106114FF09C0146007C014FF9B
:104F500008C0166006C028E030E005C020E130E05F
:104F600002C020E132E0CA0117FF09C004969D8704
:104F70008C87FA01608171818281938108C00296D9
:104F80009D878C87FA016081718180E090E0A101AA
:104F90000E942E2BE82EE218012F0F7706FF09C082
:104FA0000E7FEF1430F404FF06C002FD04C00F7E34
:104FB00002C01E2D01C01F2D802F90E004FF0CC0E9
:104FC000FE01EE0DF11D2081203311F4097E09C090
:104FD00002FF06C01E5F05C086789070009709F03A
:104FE0001F5FA02EBB2403FD12C000FF0DC0FE2CCE
:104FF0001D1550F4FD0CF11A1D2D06C080E290E045
:10500000B4010E94E02A1F5F1D15C0F304C01D15E6
:1050100010F4D11A01C0DD24A4FE0FC080E390E09B
:10502000B4010E94E02AA2FE1FC0A1FE03C088E5D1
:1050300090E010C088E790E00DC0C50186789070C0
:10504000009791F0A1FC02C080E201C08BE207FD55
:105050008DE290E0B4010E94E02A06C080E390E077
:10506000B4010E94E02AFA94EF14C0F3EA94F1012B
:10507000EE0DF11D808190E0B4010E94E02AEE2047
:10508000A9F706C080E290E0B4010E94E02ADA9419
:10509000DD20C1F78ECCF4018681978102C08FEFAD
:1050A0009FEF6596E2E10C940029629FD001739F07
:1050B000F001829FE00DF11D649FE00DF11D929FB4
:1050C000F00D839FF00D749FF00D659FF00D9927F3
:1050D000729FB00DE11DF91F639FB00DE11DF91F17
:1050E000BD01CF0111240895991B79E004C0991FD7
:1050F000961708F0961B881F7A95C9F78095089532
:10510000AA1BBB1B51E107C0AA1FBB1FA617B707ED
:1051100010F0A61BB70B881F991F5A95A9F7809509
:105120009095BC01CD01089597FB092E07260AD062
:1051300077FD04D0E5DF06D000201AF47095619564
:105140007F4F0895F6F7909581959F4F0895A1E2BE
:105150001A2EAA1BBB1BFD010DC0AA1FBB1FEE1FF1
:10516000FF1FA217B307E407F50720F0A21BB30B3C
:10517000E40BF50B661F771F881F991F1A9469F7B8
:1051800060957095809590959B01AC01BD01CF0114
:10519000089597FB092E05260ED057FD04D0D7DFC2
:1051A0000AD0001C38F450954095309521953F4F1A
:1051B0004F4F5F4F0895F6F79095809570956195E4
:1051C0007F4F8F4F9F4F08952F923F924F925F9244
:1051D0006F927F928F929F92AF92BF92CF92DF9207
:1051E000EF92FF920F931F93CF93DF93CDB7DEB76C
:1051F000CA1BDB0B0FB6F894DEBF0FBECDBF099400
:105200002A88398848885F846E847D848C849B8456
:10521000AA84B984C884DF80EE80FD800C811B8164
:10522000AA81B981CE0FD11D0FB6F894DEBF0FBE93
:10523000CDBFED0108958F929F92AF92BF92CF9212
:10524000DF92EF92FF92CF93DF93EC0188819981F7
:10525000AA81BB810097A105B10521F484E299EDF3
:10526000ABE5B7E0BC01CD012DE133EF41E050E00B
:105270000E94C92849015A0127EA31E440E050E080
:105280000E9455286B017C01C501B4012CEE34EF5E
:105290004FEF5FEF0E945528DC01CB01C80ED91EED
:1052A000EA1EFB1EF7FE08C08FEF9FEFAFEFBFE7D0
:1052B000C80ED91EEA1EFB1EC882D982EA82FB8272
:1052C000C6019F77DF91CF91FF90EF90DF90CF9055
:1052D000BF90AF909F908F9008950E941B290895D2
:1052E00087EF94E00E941B290895A0E0B0E080932E
:1052F000F7049093F804A093F904B093FA04089586
:10530000FC0188279927E89421912032E9F329307C
:1053100010F02E30C8F32B3241F02D3239F468945E
:1053200004C00E94D82A820F911D219120532A3057
:10533000C0F31EF4909581959F4F0895283008F092
:1053400027E03327DA01990F311D87FD9160009620
:105350006105710539F432602E5F3D9330E32A9583
:10536000E1F708959F3F30F080387105610509F03D
:105370003C5F3C5F3D93913008F08068911DDF9366
:10538000CF931F930F93FF92EF92192F987F9695CB
:10539000E92F96959695E90FFF27E653FF4F99273A
:1053A0003327EE24FF24A701E70105900894079412
:1053B00028F4360FE71EF81E491F511D660F771F90
:1053C000881F991F0694A1F70590079428F4E70E0B
:1053D000F81E491F561FC11D770F881F991F661F92
:1053E0000694A1F70590079428F4F80E491F561F5C
:1053F000C71FD11D880F991F661F771F0694A1F73D
:105400000590079420F4490F561FC71FD81F990F06
:10541000661F771F881F0694A9F78491109517704F
:1054200041F0D695C79557954795F794E7941A9507
:10543000C1F7E0E7F0E0689415901591359165911A
:10544000959105907FE27395E118F10A430B560B95
:10545000C90BD009C0F7E10CF11E431F561FC91F2D
:10546000D01D7EF4703311F48A95E6CFE894015094
:1054700030F0080F0AF40027021708F4202F2395B4
:10548000022F7A3328F079E37D932A95E9F710C04B
:105490007D932A9589F60694979567953795179584
:1054A0001794E118F10A430B560BC90BD00998F079
:1054B00023957E9173957A3308F070E37C932013E3
:1054C000B8F77E9170617D9330F0839571E37D93A1
:1054D00070E32A95E1F71124EF90FF900F911F914F
:1054E000CF91DF91992787FD9095089591110895A7
:1054F00081548A5108F4805E855A0895FC01059014
:10550000615070400110D8F7809590958E0F9F1FC5
:10551000089547E355E00E94B12A0895FB01DC019C
:105520008D91019080190110D9F3990B0895FB0119
:10553000DC014150504048F001900D920020C9F725
:1055400001C01D9241505040E0F70895FC016150A8
:10555000704001900110D8F7809590958E0F9F1F95
:105560000895FA01A191B081009719F41097E1F024
:10557000CD01DC01CD010D90002011F4C00113C05C
:10558000FB012191222319F02015D9F7F3CFFB015C
:105590002191201519F41E92119606C02223C1F7FD
:1055A0000D900020A1F7D001FA01A193B0830895D6
:1055B0007AE0979F902D879F802D910D112408955B
:1055C0000F931F93CF93DF938C01EB018B8181FFAE
:1055D0001BC082FF0DC02E813F818C819D812817C9
:1055E000390764F4E881F9810193F983E88306C0FF
:1055F000E885F985802F0995009731F48E819F8188
:1056000001969F838E8302C00FEF1FEFC801DF91C9
:10561000CF911F910F910895AEE0B0E0E2E1FBE27F
:105620000C94F2280D891E8986E08C831A830983E5
:105630008FEF9FE79E838D83AE01475E5F4FCE0164
:1056400001966F89788D0E94C924EF81F885E00F5B
:10565000F11F10822E96E4E00C940E29FA01AA277D
:10566000283051F1203181F1E8946F936E7F6E5FA5
:105670007F4F8F4F9F4FAF4FB1E03ED0B4E03CD053
:10568000670F781F891F9A1FA11D680F791F8A1F36
:10569000911DA11D6A0F711D811D911DA11D20D09D
:1056A00009F468943F912AE0269F11243019305D57
:1056B0003193DEF6CF010895462F4770405D419348
:1056C000B3E00FD0C9F7F6CF462F4F70405D4A3395
:1056D00018F0495D31FD4052419302D0A9F7EACF5D
:1056E000B4E0A6959795879577956795BA95C9F78C
:1056F00000976105710508959B01AC010A2E06947F
:105700005795479537952795BA95C9F7620F731F37
:10571000841F951FA01D0895F999FECF92BD81BDEC
:10572000F89A992780B50895262FF999FECF1FBAC8
:1057300092BD81BD20BD0FB6F894FA9AF99A0FBEBA
:0857400001960895F894FFCFD3
:10574800626D653238305F696E697428293A2000C5
:105758006932632D6572726F720A006F6B0A00629C
:105768006D6532383020636869702D69643A2000AD
:105778006572726F72202830782578290A00424DA8
:10578800453238305F5245475F4354524C5F485565
:105798004D203D20253031640A00424D45323830D5
:1057A8005F5245475F434F4E464947203D202530CD
:1057B80031640A006469675F5431203D20307825E0
:1057C800780A006469675F5432203D203078257874
:1057D8000A006469675F5433203D20307825780AD1
:1057E800006D73625F74203D2025780A006C736237
:1057F8005F74203D2025780A00786C73625F7420FE
:105808003D2025780A006164635F54203D2030788C
:10581800256C780A0054656D7065726174757265DF
:10582800203D20256C640A004D6F6E00547565009C
:1058380057656400546875004672690053617400C6
:1058480053756E00636F6C5B25645D3D25640A00CB
:105858003A2D00446174653A200020253032642DC9
:10586800253032642D25640A003A2D2E0054696DC6
:10587800653A20253032643A253032643A25303290
:10588800640A004453333233313A20002025303241
:10589800642D253032642D25642C20253032643A5D
:1058A800253032643A253032640A004453333233A7
:1058B800313A2025642E00303020B0430A003235BA
:1058C80020B0430A00353020B0430A00373520B0F5
:1058D800430A0053746172742D54696D6520666FB4
:1058E8007220626C616E6B696E67204E69786965BB
:1058F800733A20253032643A253032640A00456E06
:10590800642D54696D6520666F7220626C616E6BE0
:10591800696E67204E69786965733A20253032646C
:105928003A253032640A000A004E697869652062B7
:105938006F6172642076302E320A004D616E756692
:105948006163747572656420627920582D4C656EA8
:105958007420456C656374726F6E69637320616E41
:10596800642076644C6F67740A00436F70797269BB
:105978006768742070726F746563746564206279F7
:10598800204475746368206C61770A004552522E72
:10599800434D445B25735D0A004932432D736361AF
:1059A8006E3A2000307825307820000A006E6F6E3D
:1059B8006500446973706C617900256400536574EF
:1059C8002D54696D6520455845433A002564256482
:1059D8003A256425643A256425640A005365742DC4
:1059E8004461746520455845433A00256425642D73
:1059F800256425642D25640A0069725B25635D0AA8
:105A08000030313233343536373839554C52444FFB
:105A18004148583F00120B16212C37424D5863005D
:105A28006C73756E30333D25640A006C73756E3186
:105A3800303D25640A00426C616E6B5F7A65726F57
:105A48002054656D70200025640A00426C616E6BFD
:105A58005F7A65726F205072657373757265200086
:105A6800446973706C6179005570646174650049AC
:105A7800525F7265637600424D45323830004E6998
:105A880078696520626F6172642076302E33302C1D
:105A980020456D696C652C204D617274696A6E2CA5
:105AA80020526F6E616C640A00426C616E6B696EA5
:105AB800672066726F6D2000253032643A253032D7
:105AC8006420746F20253032643A253032640A002D
