:100000000C94B5000C94D2000C94D2000C94D20045
:100010000C94D2000C94D2000C94D2000C94B91819
:100020000C94D2000C94D2000C94D2000C94D20008
:100030000C94D2000C94D2000C94D2000C94D200F8
:100040000C94D2000C94D2000C9486270C94452773
:100050000C94D2000C94D2000C94D2000C94D200D8
:100060000C94D2000C94D2006E616E00696E660032
:1000700000407A10F35A00A0724E18090010A5D45F
:10008000E80000E87648170000E40B54020000CABC
:100090009A3B000000E1F505000080969800000002
:1000A00040420F000000A086010000001027000061
:1000B0000000E803000000006400000000000A00E7
:1000C000000000000100000000002C76D888DC67EA
:1000D0004F0823DFC1DFAE59E1B1B796E5E3E45342
:1000E000C63AE651997696E8E6C28426EB898C9B5F
:1000F00062ED407C6FFCEFBC9C9F40F2BAA56FA5FF
:10010000F490055A2AF75C936B6CF9676DC11BFC80
:10011000E0E40D47FEF520E6B500D0ED902E03009B
:10012000943577050080841E080000204E0A0000E8
:1001300000C80C333333330F986E12831141EF8DA7
:100140002114893BE65516CFFEE6DB18D1844B38E7
:100150001BF77C1D901DA4BBE424203284725E2218
:100160008100C9F124ECA1E53D2711241FBECFEF8A
:10017000D8E0DEBFCDBF14E0A0E0B1E0E4E5F3E6F7
:1001800002C005900D92A431B107D9F716E0A4E1A1
:10019000B4E001C01D92AF38B107E1F70E94A5227B
:1001A0000C94A8310C9400001F93CF93DF93182F69
:1001B000D62F8CEE0E94DF0CC1E0813009F0C0E048
:1001C000CC2381F4812F0E94550DC1E0813009F0CC
:1001D000C0E0CC2339F48D2F0E94550DC1E0813051
:1001E00009F0C0E00E944C0D8C2FDF91CF911F9140
:1001F00008951F93CF93DF93182FEB018CEE0E948D
:10020000DF0C91E0813009F090E09883992301F5AB
:10021000812F0E94550D91E0813009F090E0988384
:100220009923B1F48DEE0E94490D91E0813009F0DF
:1002300090E09883992321F40E94720DC82F01C089
:10024000C0E00E944C0D8C2FDF91CF911F9108953B
:10025000C0E0F7CF0F931F93CF93DF93082FEB01ED
:100260000E94F900182F802F8F5FBE010E94F900B5
:10027000382F20E0812F90E0282B392B822F932FCD
:10028000DF91CF911F910F910895CF92DF92FF924E
:100290000F931F93CF93DF93F82E162FE901188247
:1002A000662389F0C42ED52E00E0802F8F0DBE016D
:1002B0000E94F900F60181936F010F5F011719F099
:1002C0008881882391F3DF91CF911F910F91FF9047
:1002D000DF90CF9008950F931F93CF93DF930F92EA
:1002E000CDB7DEB7198288E8BE016F5F7F4F0E94ED
:1002F0002A0190934D0480934C048AE8BE016F5FFD
:100300007F4F0E942A0190935104809350048CE8FF
:10031000BE016F5F7F4F0E942A0190936604809315
:1003200065048EE8BE016F5F7F4F0E942A019093A3
:100330005B0480935A0480E9BE016F5F7F4F0E9487
:100340002A01909354048093530482E9BE016F5FA5
:100350007F4F0E942A0190935D0480935C0484E99E
:10036000BE016F5F7F4F0E942A01909356048093D5
:10037000550486E9BE016F5F7F4F0E942A0190936A
:1003800059048093580488E9BE016F5F7F4F0E9433
:100390002A0190936804809367048AE9BE016F5F25
:1003A0007F4F0E942A0190934B0480934A048CE96A
:1003B000BE016F5F7F4F0E942A0190935F0480937C
:1003C0005E048EE9BE016F5F7F4F0E942A01909309
:1003D00064048093630481EABE016F5F7F4F0E94D3
:1003E000F9008093520481EEBE016F5F7F4F0E943F
:1003F0002A0190936A048093690483EEBE016F5FC3
:100400007F4F0E94F9008093620484EEBE016F5F0B
:100410007F4F0E94F900082F85EEBE016F5F7F4F6E
:100420000E94F900182F282F30E02F703070802F95
:1004300090E082959295907F9827807F9827822BD5
:10044000932B90934F0480934E0486EEBE016F5F12
:100450007F4F0E94F90012951F70212F30E090E02D
:1004600082959295907F9827807F9827282B392B0B
:10047000309361042093600487EEBE016F5F7F4F6D
:100480000E94F9008093570489810F90DF91CF91EA
:100490001F910F910895EF92FF921F93CF93DF93D7
:1004A000CDB7DEB76F970FB6F894DEBF0FBECDBFE6
:1004B000198280EDBE016F5F7F4F0E94F900182FF7
:1004C00080E091E00E94AD288981882329F080E1B5
:1004D00091E00E94AD2857C089E191E00E94AD28CB
:1004E000103661F586E291E00E94AD2880EE66EB61
:1004F0000E94D400898382E090E00E948F18898155
:10050000882309F040C08AE291E00E94AD280E9451
:100510006B0191E0882309F490E0998385E391E0F1
:100520000E94AD288981882321F08DE391E00E940B
:10053000AD2886E291E00E94AD2825C000D000D011
:1005400000D0EDB7FEB73196EE24FF246894E1F8B1
:10055000EC0EFD1EADB7BEB71296FC92EE9211974F
:1005600082E491E093838283148315820E94123186
:100570008DB79EB706960FB6F8949EBF0FBE8DBF7F
:10058000C7010E94AD2882EF61E00E94D4008983F8
:1005900085EF60E10E94D400898384EF67E50E94C3
:1005A000D4006F960FB6F894DEBF0FBECDBFDF91BB
:1005B000CF911F91FF90EF9008958F929F92AF92ED
:1005C000BF92CF92DF92EF92FF920F931F93CF9340
:1005D000DF93CDB7DEB76F970FB6F894DEBF0FBECF
:1005E000CDBF1F8E8AEFBE01615E7F4F0E94F90072
:1005F000082F8BEFBE01615E7F4F0E94F900C82E6D
:100600008CEFBE01615E7F4F0E94F900DD24EE2475
:10061000FF24CC0CDD1CEE1CFF1CCC0CDD1CEE1CE6
:10062000FF1CCC0CDD1CEE1CFF1CCC0CDD1CEE1CDE
:10063000FF1C402F50E060E070E0032E3CE0440FD0
:10064000551F661F771F3A95D1F7302D4C295D292C
:100650006E297F2982958F7090E0A0E0B0E0482B52
:10066000592B6A2B7B2B80914C0490914D04A0E078
:10067000B0E06A017B01689413F8F594E794D7948D
:10068000C7941694D1F7C81AD90AEA0AFB0A6894E3
:1006900012F875956795579547951694D1F7880F79
:1006A000991FAA1FBB1F8A019B01081B190B2A0B4C
:1006B0003B0BC901B80120915004309151044427EB
:1006C00037FD4095542F0E945B2E4B015C01072E95
:1006D0007BE0B594A794979487947A95D1F7702D81
:1006E000C701B601A70196010E945B2E052E5CE0B2
:1006F00095958795779567955A95D1F7502D2091C7
:10070000650430916604442737FD4095542F0E94BC
:100710005B2E6B017C010B2EBEE0F594E794D79421
:10072000C794BA95D1F7B02D8C0C9D1CAE1CBF1C84
:1007300080926B0490926C04A0926D04B0926E044F
:10074000D501C401880F991FAA1FBB1F880F991FCD
:10075000AA1FBB1F880D991DAA1DBB1D80589F4F46
:10076000AF4FBF4FC92EDA2EEB2EFF24E7FCFA94D1
:100770002DB73EB7285030400FB6F8943EBF0FBE9D
:100780002DBFEDB7FEB731968E010F5F1F4FADB78E
:10079000BEB712961C930E93119780E591E0938358
:1007A0008283C482D582E682F7820E9412312DB7FD
:1007B0003EB7285F3F4F0FB6F8943EBF0FBE2DBF28
:1007C000C8010E94AD286C2D7D2D8E2D9F2D6F961A
:1007D0000FB6F894DEBF0FBECDBFDF91CF911F9152
:1007E0000F91FF90EF90DF90CF90BF90AF909F90D0
:1007F0008F9008953F924F925F926F927F928F9267
:100800009F92AF92BF92CF92DF92EF92FF920F939F
:100810001F93CF93DF93CDB7DEB7AD970FB6F894A4
:10082000DEBF0FBECDBF1F8E87EFBE01615E7F4F63
:100830000E94F900382E88EFBE01615E7F4F0E9452
:10084000F900182F89EFBE01615E7F4F0E94F90009
:10085000082F80906B0490906C04A0906D04B09071
:100860006E04B594A7949794879480E096E0AFEFD8
:10087000BFEF880E991EAA1EBB1EA50194015595B7
:100880004795379527955595479537952795CA01EB
:10089000B9010E945B2E68A379A38AA39BA3A091B0
:1008A0006704B0916804BDA3ACA3E0915804F09133
:1008B0005904FFA3EEA3209155043091560439A7A3
:1008C00028A760915C0470915D04882777FD80956E
:1008D000982F28A139A14AA15BA1012E1DE05595B1
:1008E0004795379527951A95D1F7102D0E945B2EC5
:1008F0006B017C01689412F8F594E794D794C7943F
:100900001694D1F76091530470915404882777FDB1
:100910008095982FA50194010E945B2EDC01CB01EC
:10092000B595A795979587958C0D9D1DAE1DBF1DFF
:10093000072E72E1B595A795979587957A95D1F78A
:10094000702DBC01CD01605070488F4F9F4F20919A
:100950005A0430915B0440E050E00E945B2EDC01C1
:10096000CB012C013D01032E3FE075946794579411
:1009700047943A95D1F7302D411451046104710424
:1009800009F45CC1812F90E0A0E0B0E0880F991FCE
:10099000AA1FBB1F880F991FAA1FBB1F880F991F73
:1009A000AA1FBB1F880F991FAA1FBB1F432D50E012
:1009B00060E070E0032E3CE0440F551F661F771F78
:1009C0003A95D1F7302D482B592B6A2B7B2B02956A
:1009D0000F70802F90E0A0E0B0E08A019B01082B0F
:1009E000192B2A2B3B2B0AA71BA72CA73DA768A1D5
:1009F00079A18AA19BA1052E5BE0959587957795B6
:100A000067955A95D1F7502D0CA11DA19801442747
:100A100037FD4095542F0E945B2E6B017C010EA187
:100A20001FA1B801882777FD8095982FA501940113
:100A30000E945B2EDC01CB01880F991FAA1FBB1FF0
:100A4000C80ED91EEA1EFB1EF594E794D794C794EE
:100A5000F594E794D794C7948AA59BA5ACA5BDA5AA
:100A6000B095A095909581959F4FAF4FBF4F08A52A
:100A700019A5A801662757FD6095762FBA0155275D
:100A80004427C40ED51EE61EF71E0B2EBCE0F594BF
:100A9000E794D794C794BA95D1F7B02D8C199D09D6
:100AA000AE09BF09BC01CD0125E33CE040E050E0C8
:100AB0000E945B2EDC01CB0180509040A04BBC43D8
:100AC0006AF0BC01CD01660F771F881F991FA30133
:100AD00092010E94AD2E69017A010CC0BC01CD01CA
:100AE000A30192010E94AD2E69017A01CC0CDD1C9C
:100AF000EE1CFF1CA7019601689412F856954795C5
:100B0000379527951694D1F78091630490916404EA
:100B10004C01AA2497FCA094BA2CCA01B9010E94E6
:100B20005B2EDC01CB019C01AD01012E1DE0569531
:100B30004795379527951A95D1F7102DC501B40122
:100B40000E945B2E4B015C01072E7CE0B594A794BC
:100B5000979487947A95D1F7702DC701B601969531
:100B60008795779567959695879577956795209161
:100B70005E0430915F04442737FD4095542F0E9456
:100B80005B2EDC01CB01072E7DE0B595A7959795EF
:100B900087957A95D1F7702D880E991EAA1EBB1ED7
:100BA00080914A0490914B04AA2797FDA095BA2FF3
:100BB000880E991EAA1EBB1E689413F8B594A794BC
:100BC000979487941694D1F7C80CD91CEA1CFB1C87
:100BD000C701B6012AE030E040E050E00E94AD2EAF
:100BE000C22ED32EE42EF52E8DB79EB708970FB6E2
:100BF000F8949EBF0FBE8DBFEDB7FEB731968E0144
:100C00000F5F1F4FADB7BEB712961C930E9311978F
:100C100089E591E0938382832483358346835783D8
:100C20000E941231EDB7FEB738960FB6F894FEBFAA
:100C30000FBEEDBFC8010E94AD2803C0CC24DD2447
:100C400076016C2D7D2D8E2D9F2DAD960FB6F894CF
:100C5000DEBF0FBECDBFDF91CF911F910F91FF90EF
:100C6000EF90DF90CF90BF90AF909F908F907F904C
:100C70006F905F904F903F9008954F925F926F9268
:100C80007F928F929F92AF92BF92CF92DF92EF921C
:100C9000FF920F931F93CF93DF93CDB7DEB76F977C
:100CA0000FB6F894DEBF0FBECDBF1F8E8DEFBE0115
:100CB000615E7F4F0E94F900182F8EEFBE01615ECA
:100CC0007F4F0E94F900082F80916B0490916C0473
:100CD000A0916D04B0916E040F2EF0E0CF2EF4EDD4
:100CE000DF2EFEEFEF2EFFEFFF2EF02DC80ED91EE8
:100CF000EA1EFB1E2091600430916104442737FDF9
:100D00004095542FC701B6010E945B2EDC01CB0138
:100D100040E050E460E070E04A015B01881A990A03
:100D2000AA0ABB0A412F50E060E070E0762F652FE1
:100D3000542F442710E020E030E0402B512B622B51
:100D4000732B032E3EE0440F551F661F771F3A9505
:100D5000D1F7302D80914E0490914F04AA2797FD32
:100D6000A095BA2F072E74E1880F991FAA1FBB1FE9
:100D70007A95D1F7702D481B590B6A0B7B0B840EAB
:100D8000951EA61EB71E24013501032E3FE0769462
:100D90006794579447943A95D1F7302D2091620487
:100DA00030E040E050E0C701B6010E945B2E4B01ED
:100DB0005C01072E7BE0B694A794979487947A956C
:100DC000D1F7702D80E090E8A0E0B0E0880E991E89
:100DD000AA1EBB1E20915704332727FD3095432FB1
:100DE000532FC701B6010E945B2EDC01CB019C0191
:100DF000AD01012E1AE056954795379527951A951E
:100E0000D1F7102DC501B4010E945B2E052E5AE0CA
:100E100096958795779567955A95D1F7502D60509F
:100E20007040804E9F4F2091690430916A0444279E
:100E300037FD4095542F0E945B2EDC01CB01805082
:100E4000904EAF4FBF4F9C01AD01012E1EE0569555
:100E50004795379527951A95D1F7102DC301B20103
:100E60000E945B2E6B017C019B01AC01012E1FE0F7
:100E700056954795379527951A95D1F7102DCA01A4
:100E8000B9010E945B2E689416F896958795779520
:100E900067951694D1F72091520430E040E050E07D
:100EA0000E945B2EDC01CB01689413F8B695A795E0
:100EB000979587951694D1F7C81AD90AEA0AFB0ABA
:100EC00091E0C91690E0D90690E0E90699E1F906AB
:100ED00050F00F2EF0E0CF2EF0E0DF2EF0E0EF2EFE
:100EE000F9E1FF2EF02DC701B601052E5CE09695C5
:100EF0008795779567955A95D1F7502D2DE730E076
:100F000040E050E00E945B2E6B017C01689416F873
:100F1000F694E794D794C7941694D1F7ADB7BEB7BB
:100F200018970FB6F894BEBF0FBEADBFEDB7FEB7B2
:100F300031968E010F5F1F4F12961C930E931197DF
:100F400082E691E093838283C482D582E682F7822F
:100F50000E9412318DB79EB708960FB6F8949EBFC7
:100F60000FBE8DBFC8010E94AD286C2D7D2D8E2D2A
:100F70009F2D6F960FB6F894DEBF0FBECDBFDF91E9
:100F8000CF911F910F91FF90EF90DF90CF90BF9086
:100F9000AF909F908F907F906F905F904F9008954B
:100FA0008430F9F0853038F4823089F08330A0F451
:100FB000813051F507C08630F1F08630B8F08730C7
:100FC00019F51EC08BE691E00E94AD2808958FE6CA
:100FD00091E00E94AD28089583E791E00E94AD283A
:100FE000089587E791E00E94AD2808958BE791E08E
:100FF0000E94AD2808958FE791E00E94AD280895E2
:1010000083E891E00E94AD280895CF92DF92EF929D
:10101000FF920F931F93CF93DF93CDB7DEB7E09787
:101020000FB6F894DEBF0FBECDBF7C0101960E94C3
:10103000862F082FD7018C918D3609F4C4C28E36C5
:1010400050F4843609F492C08C3609F4B5C2833664
:1010500009F03FC310C0833709F4F5C2843720F488
:10106000803709F036C3DEC2863709F40CC38737F0
:1010700009F02FC322C3C70103960E94862FD82EE2
:10108000033051F1043028F40130A1F00230D8F4DB
:1010900008C0053099F1053040F1063009F040C034
:1010A00036C080936D0584E190E06D2D0E949A31E9
:1010B00010E037C08093750586E190E06D2D0E94A9
:1010C0009A3110E02EC08093770588E190E06D2D75
:1010D0000E949A3110E025C0809365058AE190E076
:1010E0006D2D0E949A3110E01CC080937A058CE12E
:1010F00090E06D2D0E949A3110E013C08093760528
:101100008EE190E06D2D0E949A3110E00AC080932C
:10111000790580E290E06D2D0E949A3110E001C0C7
:1011200012E0EDB7FEB738970FB6F894FEBF0FBECA
:10113000EDBF3196ADB7BEB71296FC92EE92119705
:1011400087E891E09383828304831582D682178295
:101150000E941231EDB7FEB738960FB6F894FEBF75
:101160000FBEEDBFC7010E94AD28EEC2023009F4E8
:10117000BAC0033030F4002371F0013009F0CDC261
:1011800065C0043009F483C1043008F425C105307A
:1011900009F0C3C2C5C103E911E0C7010396B80154
:1011A0000E948F300E94862FE82E80E090E0B801E8
:1011B0000E948F300E94862FD82E80E090E0B801E8
:1011C0000E948F300E94862FF82EC92E86E991E06A
:1011D0000E94AD288E2D6D2D4F2D5C2D0E94EE0EA0
:1011E0000E94D0072DB73EB72A5030400FB6F89472
:1011F0003EBF0FBE2DBFEDB7FEB731968E010F5F1C
:101200001F4FADB7BEB712961C930E9311978DE981
:1012100091E093838283E4821582D6821782F086DE
:10122000C1860E941231EDB7FEB73A960FB6F89418
:10123000FEBF0FBEEDBFC8010E94AD288E2D6D2DE3
:101240004F2D5C2D0E948C0F10E07EC20CEA11E045
:10125000C7010396B8010E948F300E94862FF82E96
:1012600080E090E0B8010E948F300E94862FD82E37
:1012700080E090E0B8010E948F300E94862FE82E17
:101280002DB73EB72A5030400FB6F8943EBF0FBE80
:101290002DBFEDB7FEB731968E010F5F1F4FADB773
:1012A000BEB712961C930E93119780EB91E0938337
:1012B0008283F4821582D6821782E08611860E948C
:1012C0001231EDB7FEB73A960FB6F894FEBF0FBED7
:1012D000EDBFC8010E94AD288F2D6D2D4E2D0E94AF
:1012E000CD0E10E031C2CE0189960E94780E86ECB8
:1012F00091E00E94AD2888A90E94D0072DB73EB783
:10130000205130400FB6F8943EBF0FBE2DBFEDB751
:10131000FEB731968E010F5F1F4FADB7BEB7129665
:101320001C930E9311978FEC91E0938382838CA58D
:10133000848315828DA5868317828EA59FA59187AC
:10134000808789A5828713868AA5848715868BA5C1
:10135000868717860E941231EDB7FEB770960FB6DA
:10136000F894FEBF0FBEEDBFC8010E94AD28F090FB
:101370002B0429A53AA54BA55CA56DA57EA58FA537
:1013800098A90E943B1B2DB73EB7285030400FB69E
:10139000F8943EBF0FBE2DBFEDB7FEB73196ADB787
:1013A000BEB712961C930E9311972DEE31E0338346
:1013B0002283F4821582868317820E941231EDB750
:1013C000FEB738960FB6F894FEBF0FBEEDBFC8014A
:1013D0000E94AD2810E0B8C10E94C90F7C0100D066
:1013E00000D000D0EDB7FEB731968E010F5F1F4FD2
:1013F000ADB7BEB712961C930E93119783E092E09F
:1014000093838283C7019595879595958795958355
:1014100084830E941231EDB7FEB736960FB6F8946A
:10142000FEBF0FBEEDBFC8010E94AD28F3E0EF2262
:10143000FF2421E0E216F104C1F032E0E316F104EA
:1014400024F4E114F10459F06AC182E0E816F104D1
:1014500091F093E0E916F10409F061C112C08FE048
:1014600092E00E94AD2810E06FC186E192E00E94F8
:10147000AD2810E069C18DE192E00E94AD2810E036
:1014800063C184E292E00E94AD2810E05DC10CEAE5
:1014900011E0C7010396B8010E948F300E94862F89
:1014A000D82E80E090E0B8010E948F300E94862FF5
:1014B000082FA7E1AD1508F434C18C3308F033C10F
:1014C000D0922A04809329040E948B0CEDB7FEB7BA
:1014D00038970FB6F894FEBF0FBEEDBF31967E0170
:1014E0000894E11CF11CADB7BEB71296FC92EE92C7
:1014F00011978BE292E093838283D48215820683D4
:1015000017820E941231EDB7FEB738960FB6F894E5
:10151000FEBF0FBEEDBFC7010E94AD2810E014C191
:101520000CEA11E0C7010396B8010E948F300E94B7
:10153000862FD82E80E090E0B8010E948F300E9464
:10154000862F082FF7E1FD1508F4EFC08C3308F063
:10155000EEC0D0922804809327040E948B0C2DB7F4
:101560003EB7285030400FB6F8943EBF0FBE2DBF97
:10157000EDB7FEB731967E010894E11CF11CADB7C2
:10158000BEB71296FC92EE92119786E592E0938395
:101590008283D4821582068317820E941231EDB7AE
:1015A000FEB738960FB6F894FEBF0FBEEDBFC70169
:1015B0000E94AD2810E0C8C0083008F0BAC00093FF
:1015C000200410E0C1C0053008F0B5C0043031F58A
:1015D00000D000D000D0EDB7FEB731968E010F5F7E
:1015E0001F4FADB7BEB712961C930E9311978FE79E
:1015F00092E0938382838091CA03848315820E9440
:101600001231EDB7FEB736960FB6F894FEBF0FBE97
:10161000EDBFC8010E94AD2810E096C00093CA0338
:1016200010E092C0023008F088C0C70103960E9403
:10163000862F002321F00E94881B10E085C00E94A5
:10164000561D10E081C0013071F0013030F00230E1
:1016500071F0033009F073C00EC08FE892E00E9471
:10166000AD2810E071C00E947D0D10E06DC00E9499
:10167000942610E069C090913D0481E08927809311
:101680003D0410E061C0013069F0013020F002300B
:1016900009F057C00EC081E080936E051092780566
:1016A00010E052C081E080936E058093780510E0D1
:1016B0004BC010926E0510E047C0033008F043C0E5
:1016C0000093260482E190E0602F0E949A3110E09E
:1016D0003BC000D000D000D0EDB7FEB731968E01F0
:1016E0000F5F1F4FADB7BEB712961C930E931197A5
:1016F00082EA92E093838283F582E4820E9412312F
:10170000EDB7FEB736960FB6F894FEBF0FBEEDBF2D
:10171000C8010E94AD2811E017C012E015C010E00A
:1017200013C010E011C010E00FC010E00DC010E0B9
:101730000BC012E009C012E007C012E005C012E0C1
:1017400003C012E001C012E0812FE0960FB6F894BA
:10175000DEBF0FBECDBFDF91CF911F910F91FF90E4
:10176000EF90DF90CF90089580911504882349F57C
:101770000E94BC28882309F10E94C52890E00E949D
:101780007C308A3019F08D3071F417C081E080937D
:10179000150480911404EFE6F4E0E80FF11D1082C7
:1017A000109214040AC090911404EFE6F4E0E90FDB
:1017B000F11D80839F5F909314048091150488230A
:1017C00039F0109215048FE694E00E940508089500
:1017D00080E0089588E090E00E9492318F3F09F008
:1017E00046C088E090E061E00E949A318AE090E093
:1017F00067E10E949A318CE090E06EE10E949A319C
:101800008EE090E067E00E949A3180E190E06EE126
:101810000E949A3182E190E062E00E949A3184E174
:1018200090E060E00E949A3186E190E062E00E94E0
:101830009A3188E190E064E00E949A318AE190E078
:1018400063E00E949A318CE190E066E00E949A3158
:101850008EE190E061E00E949A3180E290E067E0E2
:101860000E949A3182E290E060E00E949A310895ED
:101870008AE090E00E94923180932A048CE090E00C
:101880000E949231809329048EE090E00E94923170
:101890008093280480E190E00E9492318093270495
:1018A00082E190E00E9492318093260484E190E0EE
:1018B0000E94923180936D0586E190E00E94923102
:1018C0008093750588E190E00E94923180937705BE
:1018D0008AE190E00E949231809365058CE190E06E
:1018E0000E94923180937A058EE190E00E949231BD
:1018F0008093760580E290E00E9492318093790592
:1019000082E290E00E94923191E0882309F490E015
:1019100090932B0408958AE090E060912A040E943D
:101920009A318CE090E0609129040E949A318EE017
:1019300090E0609128040E949A3180E190E06091EB
:1019400027040E949A3182E190E0609126040E946F
:101950009A3184E190E060916D050E949A3186E1B0
:1019600090E0609175050E949A3188E190E0609165
:1019700077050E949A318AE190E0609165050E94A6
:101980009A318CE190E060917A050E949A318EE163
:1019900090E0609176050E949A3182E290E0609139
:1019A0002B040E949A3108958C3019F41092B900DA
:1019B00003C091E09093B9008093B80008950F930D
:1019C0001F93CF93DF93182FECEBF0E084EA808332
:1019D0008081882374F000E0CCEBD0E081E090E0DF
:1019E0000E948F180F5F8881882324F00330B1F79D
:1019F00001C000E08091B900887F883011F080310B
:101A0000B1F40330B0F41093BB0084E88093BC00C1
:101A1000ECEBF0E080818823ECF79091B900987F9F
:101A2000983149F081E0903439F480E005C081E0DC
:101A300003C081E001C080E0DF91CF911F910F9141
:101A40000895CF93DF93ECEBF0E024EAA9EBB0E04C
:101A5000CBEBD0E034E844E9208390819923ECF784
:101A60009C91987F983011F09031B1F78883308342
:101A700090819923ECF79C91987F903211F09835E2
:101A800029F44083908194FDFDCFE6CFDF91CF9183
:101A900008950E94DF0C089584E98093BC00ECEB6C
:101AA000F0E0808184FDFDCF08958093BB0084E841
:101AB0008093BC00ECEBF0E080818823ECF7909100
:101AC000B900987F81E0983209F480E0089584ECB1
:101AD0008093BC00ECEBF0E080818823ECF78091F0
:101AE000BB00089584E88093BC00ECEBF0E08081BB
:101AF0008823ECF78091BB000895AF92BF92CF92FC
:101B0000DF92FF920F931F93CF93DF93CDB7DEB792
:101B1000E7970FB6F894DEBF0FBECDBFDE01D396B8
:101B2000E3ECF2E085E001900D928150E1F78FEA5D
:101B300092E00E94AD2802E010E0FF246E010894BC
:101B4000C11CD11C0F2EFAEBAF2EF2E0BF2EF02DF0
:101B5000802F0E94DF0C8823F1F400D000D000D049
:101B6000EDB7FEB73196ADB7BEB71296DC92CE9206
:101B70001197B382A282158304830E9412318DB71C
:101B80009EB706960FB6F8949EBF0FBE8DBFC601D6
:101B90000E94AD28F3940E944C0D0E5F1F4F91E000
:101BA00000301907A9F6FF2021F4CE01C3960E9448
:101BB000AD2881EC92E00E94AD28E7960FB6F8942C
:101BC000DEBF0FBECDBFDF91CF911F910F91FF9070
:101BD000DF90CF90BF90AF900895282F2F70982F4F
:101BE0009695969596959E70892F880F880F980FD9
:101BF000892F820F0895282F30E086FF08C08F704C
:101C000025FF02C02AE001C020E0820F08958F70F6
:101C10003695279536952795369527952670922FD8
:101C2000990F990F290F820F0895982F92959F7001
:101C3000990F292F220F220F920F8F70890F08956D
:101C40006AE00E947A2E8295807F890F08950F9313
:101C50001F93CF93DF93082FEB0180ED0E94DF0CE1
:101C600011E0813009F010E01123A9F4802F0E94C7
:101C7000550D11E0813009F010E0112361F481ED80
:101C80000E94490D11E0813009F010E0112319F490
:101C90000E94720D88830E944C0D812FDF91CF919D
:101CA0001F910F9108951F93CF93DF93182FD62F75
:101CB00080ED0E94DF0CC1E0813009F0C0E0CC2350
:101CC00081F4812F0E94550DC1E0813009F0C0E000
:101CD000CC2339F48D2F0E94550DC1E0813009F0DD
:101CE000C0E00E944C0D8C2FDF91CF911F91089581
:101CF0001F93CF93DF93EC0180ED0E94DF0C11E086
:101D0000813009F010E01123C1F580E00E94550DEB
:101D100011E0813009F010E0112379F581ED0E9486
:101D2000490D11E0813009F010E0112331F50E94D6
:101D3000670D0E94ED0D8A830E94670D0E94ED0DD4
:101D400089830E94670D0E94FB0D88830E94670DA6
:101D50008F830E94670D0E94ED0D8B830E94670D9B
:101D60000E94ED0D8C830E94720D0E94150E90E072
:101D70008053984F9E838D8309C01E821D821882D6
:101D800019821A8281E08C838B838F830E944C0D91
:101D9000812FDF91CF911F910895CF93DF93C62FAD
:101DA000D42F8831C0F46C33B0F44C33A0F40E94CB
:101DB000200E682F82E00E94530E8C2F0E94200E6E
:101DC000682F81E00E94530E8D2F0E94200E682FF5
:101DD00080E00E94530EDF91CF9108954F925F9261
:101DE0006F927F928F929F92AF92BF92CF92DF922B
:101DF000EF92FF92482E4A01262F30E08EE090E0CD
:101E0000821B930B6CE070E00E949A2EAA24BB24E4
:101E100080EC92E1A0E0B0E0880E991EAA1EBB1EE5
:101E2000CB01AA2797FDA095BA2F881A990AAA0A6A
:101E3000BB0ACB01880F991F680F791F660F771FA8
:101E4000660F771F620F731F882777FD8095982F85
:101E500029E930E040E050E00E945B2E695C71406F
:101E60008040904025E030E040E050E00E94CF2EDE
:101E700069017A01C40CD11CE11CF11CC501B4013B
:101E80002DE631E040E050E00E945B2E2B013C014A
:101E90004C0C5D1C6E1C7F1CC501B40124E030E0BD
:101EA00040E050E00E94CF2E69017A01C40CD51C9D
:101EB000E61CF71CC501B40124E630E040E050E028
:101EC0000E94CF2EC21AD30AE40AF50AC501B40152
:101ED00020E931E040E050E00E94CF2EC20ED31E38
:101EE000E41EF51EC701B6016C527D47804090404C
:101EF00027E030E040E050E00E94AD2E862FFF90BA
:101F0000EF90DF90CF90BF90AF909F908F907F9099
:101F10006F905F904F9008950F931F93CF93DF932F
:101F2000C82FD62F81508F3138F5862F81508C30B5
:101F300018F58A01005D174083E0083E1807E0F4B9
:101F40008C2F0E94EE0E682F83E00E94530E802F8C
:101F50000E94200E682F86E00E94530E8D2F0E9453
:101F6000200E682F85E00E94530E8C2F0E94200EB9
:101F7000682F84E00E94530EDF91CF911F910F9143
:101F80000895682F8150873018F483E00E94530E23
:101F900008950F931F93CF93DF9300D0CDB7DEB793
:101FA00081E1BE016F5F7F4F0E94270E098110E023
:101FB000000F111F000F111F882331F482E1BE01B1
:101FC0006E5F7F4F0E94270E2A81229526952695C7
:101FD000237030E0022B132B11FF04C01D7F1095DE
:101FE00001951F4F882311F000E010E0802F912F02
:101FF0000F900F90DF91CF911F910F910895CF9285
:10200000DF92EF92FF92CF93DF93EC01882777FD69
:102010008095982F0E94E0296B017C0120E030E040
:1020200040E05FE30E946C2A20E030E048E452E4A4
:102030000E9445290E94AD29DC01CB01C817D907B0
:1020400004F1C701B60120E030E040EC5FE30E94FC
:102050006C2A20E030E048E452E40E94452920E068
:1020600030E040E85FE30E94E1280E94AD29AB0127
:10207000BC0181E090E04C175D072CF480E090E01B
:1020800002C080E090E090E0DF91CF91FF90EF9070
:10209000DF90CF900895CF92DF92EF92FF92CF938F
:1020A000DF93EC0164567040882777FD8095982F68
:1020B0000E94E0296B017C0120E030E040E05FE31A
:1020C0000E946C2A20E030E048E452E40E94452956
:1020D0000E94AD29DC01CB01C817D90704F1C70163
:1020E000B60120E030E040EC5FE30E946C2A20E083
:1020F00030E048E452E40E94452920E030E040E826
:102100005FE30E94E1280E94AD29AB01BC0181E0A0
:1021100090E04C175D072CF480E090E002C080E076
:1021200090E090E0DF91CF91FF90EF90DF90CF9023
:102130000895CF92DF92EF92FF92CF93DF93EC015D
:102140006C597F4F882777FD8095982F0E94E02952
:102150006B017C0120E030E040E05FE30E946C2AEC
:1021600020E030E048E452E40E9445290E94AD2975
:10217000DC01CB01C817D90704F1C701B60120E083
:1021800030E040EC5FE30E946C2A20E030E048E45D
:1021900052E40E94452920E030E040E85FE30E94DD
:1021A000E1280E94AD29AB01BC0181E090E04C1711
:1021B0005D072CF480E090E002C080E090E090E0C9
:1021C000DF91CF91FF90EF90DF90CF90089582E064
:1021D0008093830410928404089521E01B9B20E0E7
:1021E0008091850490918604019690938604809353
:1021F000850480918404853618F086E080938304FA
:1022000080918304843009F45BC0853030F48230DF
:1022100059F0833009F08BC034C0853009F47AC09E
:10222000863009F084C07DC0222309F080C08091EF
:1022300085049091860421E08039920728F4109259
:10224000860410928504089510925105109284041A
:1022500020918404E22FF0E080918504909186041F
:10226000EE0FFF1FE957FB4F918380832F5F209371
:102270008404109286041092850483E08093830482
:102280000895213009F053C020918404A22FB0E0BA
:1022900080918504909186041296E3E8F4E0AA0FF9
:1022A000BB1FAE0FBF1F11969C938E932F5F209381
:1022B0008404109286041092850484E0808308953B
:1022C0002223E1F420918404A22FB0E080918504C0
:1022D000909186041296E3E8F4E0AA0FBB1FAE0FBC
:1022E000BF1F11969C938E932F5F209384041092AE
:1022F00086041092850483E080830895809185048C
:102300009091860421E08139920788F085E08093DE
:1023100083040895222359F41092860410928504B0
:10232000089581E08093510585E0809383040895AA
:102330006F927F928F929F92AF92BF92CF92DF92D5
:10234000EF92FF920F931F93CF93DF935C01FC01F9
:102350008485853009F090C0C681D7818A819B81B0
:1023600068E273E20E944B10009709F487C0F50100
:102370008085918584309105F1F48C819D816AEC92
:1023800078E00E949910009709F47AC08E819F81AD
:1023900060E372E00E944B10009709F473C0F501EE
:1023A000158214828FEF9FEFDC0180839183A283DB
:1023B000B38381E070C0843491050CF465C08C81D6
:1023C0009D8164E971E10E949910009709F45EC053
:1023D00000E010E0CC24DD2476010F2EF6E06F2E15
:1023E0007724F02D6C0E7D1E88249924689483F840
:1023F0008C0E9D1EF301E00FF11F8081918160E33F
:1024000072E00E944B10009709F442C0E401C00F33
:10241000D11F888199816AE976E00E94991000971E
:1024200079F0D701C601880F991FAA1FBB1FCC24C2
:10243000DD247601C394C82AD92AEA2AFB2A0CC0D3
:102440008881998160E372E00E949910009711F1F0
:10245000CC0CDD1CEE1CFF1C0C5F1F4F003811055F
:1024600049F680E290E0F50195838483C082D182B1
:10247000E282F38281E00FC080E00DC080E00BC0FB
:1024800080E009C080E007C080E005C080E003C0B4
:1024900080E001C080E0DF91CF911F910F91FF900C
:1024A000EF90DF90CF90BF90AF909F908F907F90F4
:1024B0006F900895F894209183047894223039F035
:1024C00081E090E0253029F080E090E0089581E0FF
:1024D00090E00895F89482E080938304109284043D
:1024E00078940895FC01F89487E894E097838683B4
:1024F000DC0113972C9120871186209151052287AA
:1025000013860497DC018C9184877894CF010E9414
:102510009811882321F40E946A1280E0089581E0D6
:102520000895EF92FF920F931F93CF93DF93CDB750
:10253000DEB764970FB6F894DEBF0FBECDBF8091B3
:102540001804833009F4B1C0843030F4813009F4C8
:102550007AC0823078F50AC0853009F47DC18530B3
:1025600008F409C1863009F06AC2E4C180912B03E6
:102570008F3021F481E08093180461C2803121F40E
:1025800082E0809318045BC2883030F493E090932B
:10259000CA038093C90353C2883009F050C28091A6
:1025A000CA038F5F8093CA03843008F448C2109234
:1025B000CA0345C21092190480912B03813079F42B
:1025C00088EC92E00E949A251092260480E066E052
:1025D00044E50E94182183E08093180430C28230C1
:1025E00079F488EC92E00E949A251092260480E00B
:1025F00066E044E40E94182185E0809318041FC21D
:10260000873049F490913C0481E0892780933C0411
:102610001092180414C2883049F490913B0481E070
:10262000892780933B041092180409C2893009F06D
:1026300006C281E090913D04911180E080933D04B9
:1026400010921804FCC180912B03882349F4109246
:1026500019049091170481E089278093170422C000
:10266000813041F4109219049091160489278093C7
:10267000160418C010921904883041F0893051F0C6
:10268000873051F481E08093260406C082E0809375
:10269000260402C01092260482E190E06091260494
:1026A0000E949A3110921804CAC120912B032A303B
:1026B00020F0203109F0C3C102C0203169F410922A
:1026C000180482E190E00E9492318093260488EC05
:1026D00092E00E942525B3C180911904882319F442
:1026E000233040F0ACC1823011F0843019F4263030
:1026F00008F0A5C10F2EFAE1EF2EF4E0FF2EF02D29
:10270000F701E80FF11D208300D000D000D0EDB715
:10271000FEB731968E010F5F1F4FADB7BEB7129651
:102720001C930E93119780ED92E093838283248310
:1027300015820E9412318DB79EB706960FB6F89497
:102740009EBF0FBE8DBFC8010E94AD2860911904C5
:10275000F701E60FF11D808144E50E941821809168
:1027600019048F5F80931904863008F468C184E0EF
:102770008093180464C180912B038E3009F05FC1EF
:1027800083ED92E00E94AD28ADB7BEB750970FB66B
:10279000F894BEBF0FBEADBFEDB7FEB731968E0148
:1027A0000F5F1F4F12961C930E93119782EE92E0CB
:1027B0009383828380911A048483158280911B0401
:1027C0008683178280911C048087118680911D0466
:1027D0008287138680911E048487158680911F044A
:1027E000868717860E9412318DB79EB740960FB626
:1027F000F8949EBF0FBE8DBFC8010E94AD28809186
:102800001A04880F982F990F990F890F20911B0494
:1028100090911C04990F692F660F660F690F309114
:102820001D04630F90911E04990F492F440F440F0C
:10283000490F30911F04430F820F0E94CD0E10925A
:10284000180482E190E00E9492318093260488EC83
:1028500092E00E942525F3C020912B032A3020F01E
:10286000203109F0ECC002C0203169F41092180444
:1028700082E190E00E9492318093260488EC92E0FD
:102880000E942525DCC080911904882319F4243086
:1028900080F0D5C0813041F490911A04933049F40E
:1028A000223008F0CCC005C0823019F4223008F084
:1028B000C6C00F2EFAE1EF2EF4E0FF2EF02DF70147
:1028C000E80FF11D208300D000D000D0EDB7FEB797
:1028D00031968E010F5F1F4FADB7BEB712961C9396
:1028E0000E93119780ED92E0938382832483158267
:1028F0000E9412318DB79EB706960FB6F8949EBF10
:102900000FBE8DBFC8010E94AD2860911904F70168
:10291000E60FF11D808144E40E9418218091190482
:102920008F5F80931904863008F489C086E0809315
:10293000180485C080912B038E3009F080C082EF8F
:1029400092E00E94AD28ADB7BEB71E970FB6F894BF
:10295000BEBF0FBEADBFEDB7FEB731968E010F5FA4
:102960001F4F12961C930E93119781E093E093836F
:10297000828380911A048483158280911B0486834C
:10298000178280911C048087118680911D048287A4
:10299000138680911E0490E0880F991F9C01220FDE
:1029A000331F220F331F820F931F8053984F2091A4
:1029B0001F04820F911D958784870E9412318DB765
:1029C0009EB70E960FB6F8949EBF0FBE8DBFC8017E
:1029D0000E94AD2880911A04880F982F990F990FA3
:1029E000890F70911B0490911C04990F692F660F39
:1029F000660F690F20911D04620F20911E0430E0C4
:102A0000220F331FA901440F551F440F551F240FD8
:102A1000351FA9014053584F90911F04490F511D74
:102A2000870F0E948C0F1092180482E190E00E94A0
:102A300092318093260488EC92E00E9425256496CA
:102A40000FB6F894DEBF0FBECDBFDF91CF911F91BF
:102A50000F91FF90EF9008950F931F93CF93DF9303
:102A6000CDB7DEB764970FB6F894DEBF0FBECDBF0B
:102A700082E595E00E947212882309F458C1809182
:102A8000520590915305A0915405B09155058D3A8A
:102A900022E592072FEFA20720E0B20709F4E8C071
:102AA0008E3A22E592072FEFA20720E0B20708F046
:102AB0005BC08D3D22E292072FEFA20720E0B20714
:102AC00009F4C6C08E3D22E292072FEFA20720E054
:102AD000B207E0F48F3E20E192072FEFA20720E03B
:102AE000B20709F4E4C0873E28E192072FEFA2075E
:102AF00020E0B20709F4D3C08D3F22E092072FEF08
:102B0000A20720E0B20709F0E2C0AAC0873C28E390
:102B100092072FEFA20720E0B20709F4CCC0883C4F
:102B200028E392072FEFA20720E0B20750F48F3C72
:102B300020E392072FEFA20720E0B20709F0C7C0F9
:102B4000AAC08D3B22E492072FEFA20720E0B20734
:102B500009F48AC0853B2AE492072FEFA20720E000
:102B6000B20709F0B4C088C0873628E992072FEF72
:102B7000A20720E0B20709F486C0883628E9920748
:102B80002FEFA20720E0B20770F58D3922E69207F9
:102B90002FEFA20720E0B20709F452C08E3922E6D7
:102BA00092072FEFA20720E0B20750F4853A2AE5FA
:102BB00092072FEFA20720E0B20709F088C07FC07C
:102BC000873928E692072FEFA20720E0B20709F421
:102BD00056C085382AE792072FEFA20720E0B207F8
:102BE00009F075C060C08F3420EB92072FEFA20769
:102BF00020E0B20709F44BC0803520EB92072FEF9D
:102C0000A20720E0B20750F4873528EA92072FEF99
:102C1000A20720E0B20709F05AC016C08D3322EC9B
:102C200092072FEFA20720E0B207B1F08F3F2FEFFE
:102C300092072FEFA2072FEFB20709F048C043C059
:102C40008AE080932B0346C08DE080932B0342C023
:102C50008BE080932B033EC08CE080932B033AC023
:102C60008EE080932B0336C08FE080932B0332C01D
:102C700080E180932B032EC010922B032BC081E0A8
:102C800080932B0327C082E080932B0323C083E033
:102C900080932B031FC084E080932B031BC085E02F
:102CA00080932B0317C086E080932B0313C087E02B
:102CB00080932B030FC088E080932B030BC089E027
:102CC00080932B0307C081E180932B0303C082E133
:102CD00080932B0300D000D000D0EDB7FEB7319623
:102CE0008E010F5F1F4FADB7BEB712961C930E93A8
:102CF00011978FE093E09383828380912B03A7E168
:102D0000B3E0A80FB11D8C91848315820E9412310B
:102D10008DB79EB706960FB6F8949EBF0FBE8DBFB7
:102D2000C8010E94AD280E9491120E946A12649606
:102D30000FB6F894DEBF0FBECDBFDF91CF911F91CC
:102D40000F9108958F929F92AF92BF92CF92DF9290
:102D5000EF92FF920F931F93CF93DF93CDB7DEB720
:102D60002A970FB6F894DEBF0FBECDBFDE011196D5
:102D7000ECE2F3E08AE001900D928150E1F740919E
:102D800022045091230460912404709125040F2E95
:102D9000F0E0CF2EF0E0DF2EF0E0EF2EFFEFFF2E81
:102DA000F02DC422D522E622F7228A019B010F7062
:102DB0001070207030700F2EF4E1000F111F221FD1
:102DC000331FFA95D1F7F02DDB01CA01807F907097
:102DD000A070B070072E7CE0880F991FAA1FBB1F40
:102DE0007A95D1F7702D082B192B2A2B3B2B0C2908
:102DF0001D292E293F29DB01CA0180709F70A07018
:102E0000B0704C015D01880C991CAA1CBB1C880C7D
:102E1000991CAA1CBB1C880C991CAA1CBB1C880CE6
:102E2000991CAA1CBB1C082919292A293B29DB014A
:102E3000CA018070907FA070B070689413F8B69546
:102E4000A795979587951694D1F7082B192B2A2BC0
:102E50003B2BDB01CA0180709070AF70B070072E01
:102E60007CE0B695A795979587957A95D1F7702DC3
:102E7000082B192B2A2B3B2BDB01CA018070907089
:102E8000A07FB070072E74E1B695A79597958795AA
:102E90007A95D1F7702D802B912BA22BB32B2091FB
:102EA00021043091C803332309F4C9C0352F142FEE
:102EB000E0912604E130C9F1E13020F0E23009F080
:102EC000BEC068C0442371F5552311F0503351F54D
:102ED000309140043930E0F4FE01E30FF11DC18070
:102EE000DD24EE24FF24B60155274427482B592B17
:102EF0006A2B7B2B40705070BE2DAD2D9C2D8827EA
:102F00008C299D29AE29BF29842B952BA62BB72B65
:102F10003F5F309340043A3008F491C039E0309379
:102F200040048DC0109240048AC0442381F5109162
:102F30004004FE01E10FF11DC180DD24EE24FF24D9
:102F4000B60155274427842B952BA62BB72B33236B
:102F500011F0303391F4193080F4AC01BD014070B0
:102F60005070BE2DAD2D9C2D88278C299D29AE2912
:102F7000BF29842B952BA62BB72B1F5F10934004E2
:102F80001A3008F45CC039E03093400458C0109205
:102F9000400455C0E09141044E1709F44EC00F2E75
:102FA000FFEF8F2EFFEF9F2EF0E0AF2EFFEFBF2E33
:102FB000F02D88229922AA22BB2200914004FE0112
:102FC000E00FF11DC180DD24EE24FF24D6019927F6
:102FD000882788299929AA29BB29E09142045E17EC
:102FE000F9F0E62F90707E2D6D2D5C2D4427842BFB
:102FF000952BA62BB72B40914304E41711F43033E3
:1030000049F480708C299D29AE29BF29093041F4EB
:10301000E093430440914004493011F4309342045A
:10302000309140043F5F309340043A3040F039E043
:10303000309340041093410402C01092400448E0D1
:1030400030E85BB15F735BB9532F5223531711F410
:103050005D9A01C05D9836955F9A5F98415089F7F7
:10306000E0E240E050E060E070E82BB12F732BB954
:103070008A019B01082319232A233B2304171507E0
:103080002607370711F45D9A01C05D98769567951C
:10309000579547955F9A5F98E15039F75E9A5E9829
:1030A0002A960FB6F894DEBF0FBECDBFDF91CF9149
:1030B0001F910F91FF90EF90DF90CF90BF90AF9056
:1030C0009F908F9008950E94DD02DC01CB019093C8
:1030D0003104809330040E94FA03DC01CB01809319
:1030E000320490933304A0933404B09335040E94C7
:1030F0003D06DC01CB0180932C0490932D04A0931A
:103100002E04B0932F040895F894609136047091C2
:1031100037048091380490913904789408958F92FF
:103120009F92AF92BF92CF92DF92EF92FF92CF9396
:10313000DF93EC010E9484184B015C016E01EE24C8
:10314000FF240E948418DC01CB0188199909AA097F
:10315000BB098C159D05AE05BF0598F3DF91CF9196
:10316000FF90EF90DF90CF90BF90AF909F908F90A7
:1031700008951F920F920FB60F9211242F933F9331
:103180004F935F936F937F938F939F93AF93BF936F
:10319000EF93FF932D9A80913A048F5F80933A04C6
:1031A0008431B8F00E9476238091360490913704E0
:1031B000A0913804B09139040196A11DB11D8093EE
:1031C000360490933704A0933804B09339041092D6
:1031D0003A040E94ED102D98FF91EF91BF91AF91AD
:1031E0009F918F917F916F915F914F913F912F911F
:1031F0000F900FBE0F901F90189528E090E8392F80
:10320000382371F0289A0000000000000000000040
:10321000000000000000000000000000289807C027
:10322000289A0000000000000000000028989695F1
:10323000215029F70895CF92DF92EF92FF920F93DA
:103240001F93CF93DF93F894C7E6D5E00F2EFFE6E8
:10325000EF2EF5E0FF2EF02D0F2EFFE5CF2EF5E03F
:10326000DF2EF02D8E010A5F1F4F89910E94FD18FD
:10327000F70181917F010E94FD18F60181916F0194
:103280000E94FD18C017D10781F77894DF91CF9184
:103290001F910F91FF90EF90DF90CF900895EF92E4
:1032A000FF920F931F93CF93DF93CDB7DEB728978D
:1032B0000FB6F894DEBF0FBECDBF122F2983F32EB9
:1032C0003A83042F4B83E52E5C83262F6D837E8308
:1032D0008F8398874E815F81633009F042C08FE110
:1032E00063E00E94EE0E90913E04913031F19130F6
:1032F00020F0923009F081C02CC067E00E947A2E45
:103300008FE1891B8E1541F4123031F4FF2079F4DE
:1033100081E080933E0471C0E81618F410922B04EB
:1033200098C08E1520F481E080932B0497C0123052
:1033300008F063C010922B048CC083E060E0402F43
:103340000E94CD0E82E080933E0481E080932B04A6
:1033500085C0FF2011F010923E0481E080932B0481
:103360007DC06A3009F03FC08FE16AE00E94EE0E36
:1033700090913F04913029F1913018F09230E9F5A5
:103380002BC067E00E947A2E8FE1891B8E1541F4D5
:10339000133031F4FF2079F481E080933F042DC095
:1033A0008E1518F410922B0454C0E81620F481E016
:1033B00080932B0453C0133000F581E080932B04DD
:1033C0004DC082E060E0402F0E94CD0E82E08093ED
:1033D0003F0410922B043DC0143010F010923F04B3
:1033E00010922B0436C02350283018F010922B0472
:1033F00030C081E080932B0431C082E290E00E94D3
:10340000923190912B04992391F0882361F5173123
:1034100018F4812F8F5F01C080E06F2D402F0E9434
:10342000CD0E82E290E061E00E949A311CC08823B8
:10343000D1F0112319F0812F815001C087E16F2D48
:10344000402F0E94CD0E82E290E060E00E949A310F
:103450000AC082E290E00E949231E9CF82E290E0DD
:103460000E949231D2CF28960FB6F894DEBF0FBEDD
:10347000CDBFDF91CF911F910F91FF90EF900895F5
:10348000282F6AE00E947A2E982F990F392F330F38
:10349000330F930F8295807F291B2F70822B089505
:1034A00026E030E0281B3109220F220F4AE050E0CD
:1034B00060E070E0DB01CA0104C0880F991FAA1FF9
:1034C000BB1F2A95D2F740912204509123046091AA
:1034D000240470912504842B952BA62BB72B809365
:1034E000220490932304A0932404B0932504089508
:1034F0008F929F92AF92BF92CF92DF92EF92FF9204
:103500000F931F93CF93DF93DC01CB01AC01BD017F
:103510004070507060747070762F8C019D01007047
:10352000107420703070682F6074C0902204D090A6
:103530002304E0902404F0902504EFE5F5E0CFE6C5
:10354000D5E047E655E020E030E0C901880F991F3B
:10355000880F991F4601570104C0B694A794979409
:1035600087948A95D2F7D501C4018F709070A070AE
:10357000B0708A309105A105B10529F41082188236
:10358000DA011C9204C0DA011C93788360832F5FF8
:103590003F4F319621964F5F5F4F26303105A9F698
:1035A000DF91CF911F910F91FF90EF90DF90CF901F
:1035B000BF90AF909F908F900895843059F18530DF
:1035C00038F48230C9F08330F0F48130B9F50DC0A1
:1035D000863069F1863028F1873081F560E470E447
:1035E00080E490E00E94781A089560E070E080E442
:1035F00090E00E94781A089560E070E480E090E026
:103600000E94781A089560E470E080E090E00E94E3
:10361000781A089560E070E480E490E00E94781ADF
:10362000089560E470E0CB010E94781A089560E488
:1036300070E480E090E00E94781A089560E070E005
:10364000CB010E94781A089590E0880F991F880F87
:10365000991FAC01440F551F9A01220F331F860F8B
:10366000911D840F951F820F931FB901660F771F5D
:10367000860F971F0895EF92FF920F931F93CF939A
:10368000DF93CDB7DEB728970FB6F894DEBF0FBE35
:10369000CDBF822F632F0E94241B7C0180912A04BE
:1036A000609129040E94241B8C0180912804609160
:1036B00027040E94241B0817190760F0E016F10682
:1036C000A8F421E030E08E159F0510F420E030E0F2
:1036D000C90111C0E016F10660F021E030E0E81603
:1036E000F90610F020E030E0C90105C081E090E06B
:1036F00002C080E090E028960FB6F894DEBF0FBEBF
:10370000CDBFDF91CF911F910F91FF90EF90089562
:10371000853009F45EC0863080F48230E1F1833078
:1037200030F4882301F1813009F0C4C022C0833015
:10373000C1F1843009F0BEC046C0883009F473C0BE
:10374000893038F4863009F456C0873009F0B2C0A9
:1037500058C08A3009F48BC08A3008F476C08B30A8
:1037600009F0A8C096C0809121048860809321044C
:1037700008958091220490912304A0912404B09193
:103780002504B0628093220490932304A093240420
:10379000B0932504089580912104846080932104CE
:1037A00008958091220490912304A0912404B09163
:1037B0002504B0618093220490932304A0932404F1
:1037C000B0932504089580912104826080932104A0
:1037D00008958091220490912304A0912404B09133
:1037E0002504B8608093220490932304A0932404BA
:1037F000B093250408958091210481608093210471
:1038000008958091220490912304A0912404B09102
:103810002504B4608093220490932304A09324048D
:10382000B093250408958091220490912304A091DF
:103830002404B0912504B06880932204909323045B
:10384000A0932404B09325040895809122049091BC
:103850002304A0912404B0912504B2608093220433
:1038600090932304A0932404B09325040895809199
:10387000220490912304A0912404B0912504B06403
:103880008093220490932304A0932404B0932504EE
:1038900008958091220490912304A0912404B09172
:1038A0002504B1608093220490932304A093240400
:1038B000B0932504089588B1807F88B910922104BF
:1038C00080914404843009F477C0853058F4813005
:1038D00071F18130D0F0823009F43FC0833009F0BB
:1038E000DEC054C0873009F4A6C0883038F4853073
:1038F00009F478C0863009F0D2C08DC0883009F450
:10390000AAC0893009F0CBC0B9C01092220410922D
:103910002304109224041092250480E00E94881B46
:1039200081E00E94881B81E080934404B8C081E15B
:1039300091E1A1E1B0E08093220490932304A0934D
:103940002404B093250482E00E94881B83E00E9437
:10395000881B82E080934404A2C082E292E2A2E249
:10396000B0E08093220490932304A0932404B093A6
:10397000250484E00E94881B85E00E94881B88B192
:103980008C6088B983E08093440489C083E393E327
:10399000A3E3B0E08093220490932304A093240433
:1039A000B093250486E00E94881B87E00E94881B54
:1039B00084E08093440473C084E494E4A4E4B0E01D
:1039C0008093220490932304A0932404B0932504AD
:1039D00088E00E94881B89E00E94881B85E0809314
:1039E00044045DC085E595E5A5E5B0E0809322043B
:1039F00090932304A0932404B093250488B1896094
:103A000088B98AE00E94881B8BE00E94881B86E0B0
:103A10008093440444C086E696E6A6E6B0E0809330
:103A2000220490932304A0932404B093250487E0F8
:103A30008093440434C087E797E7A7E7B0E080931A
:103A4000220490932304A0932404B093250488E0D7
:103A50008093440424C088E898E8A8E8B0E0809304
:103A6000220490932304A0932404B093250488B1E6
:103A70008A6088B989E08093440411C089E999E992
:103A8000A9E9BFEF8093220490932304A093240418
:103A9000B09325048FE08093210410924404809118
:103AA00044040E94DD1A0E941B190895853009F410
:103AB0005EC0863080F48230E1F1833030F48823B8
:103AC00001F1813009F0C4C022C08330C1F18430DB
:103AD00009F0BEC046C0883009F473C0893038F49C
:103AE000863009F456C0873009F0B2C058C08A3019
:103AF00009F48BC08A3008F476C08B3009F0A8C076
:103B000096C080912104877F80932104089580913D
:103B1000220490912304A0912404B0912504BF7D38
:103B20008093220490932304A0932404B09325044B
:103B30000895809121048B7F8093210408958091C2
:103B4000220490912304A0912404B0912504BF7E07
:103B50008093220490932304A0932404B09325041B
:103B60000895809121048D7F809321040895809190
:103B7000220490912304A0912404B0912504B77FDE
:103B80008093220490932304A0932404B0932504EB
:103B90000895809121048E7F80932104089580915F
:103BA000220490912304A0912404B0912504BB7FAA
:103BB0008093220490932304A0932404B0932504BB
:103BC00008958091220490912304A0912404B0913F
:103BD0002504BF778093220490932304A0932404A8
:103BE000B093250408958091220490912304A0911C
:103BF0002404B0912504BD7F809322049093230474
:103C0000A0932404B09325040895809122049091F8
:103C10002304A0912404B0912504BF7B8093220447
:103C200090932304A0932404B093250408958091D5
:103C3000220490912304A0912404B0912504BE7F16
:103C40008093220490932304A0932404B09325042A
:103C500008958F929F92AF92BF92CF92DF92EF9290
:103C6000FF920F931F93CF93DF93CDB7DEB72897C3
:103C70000FB6F894DEBF0FBECDBF10922204109293
:103C80002304109224041092250410922104CE01E2
:103C900001960E94780E1092C8038091CA03823068
:103CA00059F0833061F0813069F40E94762F68E02A
:103CB00070E00E949A2E07C08B81877004C08091AB
:103CC000C90301C080E00E94DD1A80913D04882371
:103CD00019F00E945B1C99C280916E05882341F007
:103CE00080917805882311F0299A23C0299821C052
:103CF00029813A814B815C816D817E818F8198859C
:103D00000E943B1B882371F080911604882311F0D8
:103D1000299A0FC080913C04882311F0299A09C088
:103D2000299807C080913B04882311F0299801C08D
:103D3000299A80911704882309F009C28B81803267
:103D400048F48E3108F09AC08F3079F0803109F054
:103D5000FEC14DC0883208F4FAC18A3208F4FFC0AF
:103D60008253823008F0F3C164C18C810E94401AF2
:103D7000082F8D810E94401A402F50E060E070E0D3
:103D8000032E3CE0440F551F661F771F3A95D1F76D
:103D9000302D90E0A0E0B0E0482B592B6A2B7B2B14
:103DA000440F551F661F771F440F551F661F771F4F
:103DB000440F551F661F771F440F551F661F771F3F
:103DC00040932204509323046093240470932504A9
:103DD00083E00E94501A86E00E94501A8091CA0324
:103DE000833009F007C282E00E94DD1A03C288B165
:103DF000807F88B98E819F8164E670E00E94862E64
:103E0000C82E862F0E94401A082F8C2D0E94401A1F
:103E1000402F50E060E070E0762F652F542F44274C
:103E200090E0A0E0B0E0482B592B6A2B7B2B440F8D
:103E3000551F661F771F440F551F661F771F440FBE
:103E4000551F661F771F440F551F661F771F40932E
:103E5000220450932304609324047093250481E08A
:103E60000E94501A86E00E94501A8091CA03833043
:103E700009F0C0C182E00E94DD1ABCC100912C048F
:103E800010912D040E5C1F4FC80168EE73E00E9474
:103E9000862E862FC62E0E94401A882E9924AA2488
:103EA000BB24880C991CAA1CBB1C880C991CAA1C3E
:103EB000BB1C880C991CAA1CBB1C880C991CAA1C36
:103EC000BB1C2C2D30E088E19CEF289FA001299F8E
:103ED000500D389F500D1124CA01800F911F64E6C8
:103EE00070E00E94862E862F90E0A0E0B0E0882A45
:103EF000992AAA2ABB2A8092220490922304A09293
:103F00002404B09225048AE00E94881B88B1897F2E
:103F100088B9409A439A81E00E94501A82E00E9438
:103F2000501A83E00E94501A80912C0490912D0425
:103F3000A0912E04B0912F04803127E2920720E057
:103F4000A20720E0B20718F484E00E94501A809182
:103F5000CA03833009F04EC10E94DD1A4BC10091A3
:103F60003004109131040B5F1F4FC80164E670E00C
:103F70000E94862E862FC62E0E94401A882E9924D3
:103F8000AA24BB24880C991CAA1CBB1C880C991C55
:103F9000AA1CBB1C880C991CAA1CBB1C880C991C55
:103FA000AA1CBB1C2C2D30E08CE99FEF289FA001A0
:103FB000299F500D389F500D1124CA01800F911F69
:103FC0006AE070E00E94862E862F90E0A0E0B0E0CC
:103FD000882A992AAA2ABB2A809222049092230432
:103FE000A0922404B09225048AE00E94881B88B124
:103FF0008C7F88B9429A439A81E00E94501A82E0ED
:104000000E94501A83E00E94501A809130049091CF
:10401000310423E0883E92071CF484E00E94501A89
:104020008091CA03833009F0E5C081E00E94DD1A67
:10403000E1C08090320490903304A0903404B0909A
:104040003504C501B40128EE33E040E050E00E94A1
:10405000AD2EC22E822F0E94401A082F2C2D30E048
:1040600088E19CEF289FA001299F500D389F500D9B
:104070001124840E951EC4016AE070E00E94862E11
:10408000C62E862F0E94401A10E020E030E0322F2A
:10409000212F102F0027482F50E060E070E0042B04
:1040A000152B262B372BB901A801440F551F661F6E
:1040B000771F440F551F661F771F440F551F661F3C
:1040C000771F440F551F661F771F8C2D90E0880FB8
:1040D000991F9C01220F331F220F331F820F931F42
:1040E000881A9924AA24BB24482959296A297B299A
:1040F0004093220450932304609324047093250476
:104100008AE00E94881B88B18A7F88B9419A439AC5
:1041100081E00E94501A8091320490913304A09162
:104120003404B0913504803127E2920720E0A207E1
:1041300020E0B20718F482E00E94501A8091CA036E
:10414000833009F057C084E00E94DD1A53C081E03B
:104150008093C80329813A814B815C816D817E8186
:104160008F8198850E944F1989810E94401AC82E1C
:104170008A810E94401ADD24EE24FF24FE2CED2CBF
:10418000DC2CCC2490E0A0E0B0E0C82AD92AEA2AAE
:10419000FB2A8B810E94401AFE2CED2CDC2CCC24B7
:1041A00090E0A0E0B0E0C82AD92AEA2AFB2AC0920F
:1041B0002204D0922304E0922404F092250488B1D2
:1041C000807F88B98B8180FF04C088E00E94881BB3
:1041D00003C087E00E94881B84E00E94881B8091B6
:1041E0002B04882321F08BE00E94881B03C08BE006
:1041F0000E94561D81E0199B80E08093660588230C
:1042000011F40E94DD1A0E941B1928960FB6F8942B
:10421000DEBF0FBECDBFDF91CF911F910F91FF90F9
:10422000EF90DF90CF90BF90AF909F908F900895C8
:10423000CF93C42F633009F49EC0643030F46130F2
:10424000A9F1623008F066C00AC0653009F4ECC01C
:10425000653008F4BEC0663009F019C10DC190E0A8
:10426000A0E0B0E040912204509123046091240426
:1042700070912504842B952BA62BB72B80932204B9
:1042800090932304A0932404B093250481E00E941A
:10429000501A82E00E94501A83E00E94501A84E073
:1042A0000E94501A85E00E94501AF1C090E0A0E0F0
:1042B000B0E0409122045091230460912404709155
:1042C0002504440F551F661F771F440F551F661F97
:1042D000771F440F551F661F771F440F551F661F1A
:1042E000771F842B952BA62BB72B809322049093BA
:1042F0002304A0932404B093250481E00E94501A63
:1043000082E00E94501A83E00E94501A84E00E94CA
:10431000501ABDC090E0A0E0B0E04091220450915E
:1043200023046091240470912504440F551F661FD7
:10433000771F440F551F661F771F440F551F661FB9
:10434000771F440F551F661F771F842B952BA62BB5
:10435000B72B8093220490932304A0932404B0935A
:10436000250481E00E94501A82E00E94501A83E0E6
:104370000E94501A8CC090E0A0E0B0E0409122046E
:10438000509123046091240470912504440F551F1B
:10439000661F771F440F551F661F771F440F551F59
:1043A000661F771F440F551F661F771F842B952BA1
:1043B000A62BB72B8093220490932304A09324046C
:1043C000B093250481E00E94501A82E00E94501AA6
:1043D0005EC090E0A0E0B0E0409122045091230440
:1043E0006091240470912504440F551F661F771FA8
:1043F000440F551F661F771F440F551F661F771FF9
:10440000440F551F661F771F842B952BA62BB72BA8
:104410008093220490932304A0932404B093250452
:1044200081E00E94501A33C090E0A0E0B0E04091DB
:104430002204509123046091240470912504440FB8
:10444000551F661F771F440F551F661F771F440FA8
:10445000551F661F771F440F551F661F771F842B3C
:10446000952BA62BB72B8093220490932304A09323
:104470002404B09325040BC010922204109223044C
:10448000109224041092250488B1807F88B910927C
:104490002104C435C1F48091220490912304A09199
:1044A0002404B0912504B0688093220490932304DF
:1044B000A0932404B093250482E08093210484E037
:1044C0000E94DD1A18C0C434B1F480912204909186
:1044D0002304A0912404B0912504B06880932204A1
:1044E00090932304A0932404B093250482E0809346
:1044F00021040E94DD1ACF910895E0EBF0E0808165
:104500008260808382E08093B10083E68093B30071
:104510001092B200E0E7F0E080818260808308952D
:1045200023982B9884B1836284B985B18C7D85B939
:1045300087B18F6087B988B1807F88B98AB1806E72
:104540008AB98BB18F718BB90895CF93DF93CDB7B3
:10455000DEB764970FB6F894DEBF0FBECDBF0E94E2
:104560007D220E94E7108CE00E94D40C0E949022D1
:104570008BE390E00E947B2F89E190E00E94E82786
:104580000E944B0289E29EE166E373E040E050E066
:1045900028EE33E00E94952482EA96E16EE373E010
:1045A00044E650E022E330E00E9495248CE295E15D
:1045B00065E473E046E950E024EF31E00E94952481
:1045C00083E698E16DE473E04AEF50E028E833E1D8
:1045D0000E94952478940E94EA0B0E94380C82E293
:1045E00090E00E94923191E0882309F490E090934A
:1045F0002B0484E593E00E94AD288FE793E00E94AE
:10460000AD288DB79EB70C970FB6F8949EBF0FBE1E
:104610008DBFEDB7FEB731968E010F5F1F4FADB75F
:10462000BEB712961C930E9311978EE893E0938376
:10463000828380912A048483158280912904868351
:1046400017828091280480871186809127048287B1
:1046500013860E9412318DB79EB70C960FB6F89450
:104660009EBF0FBE8DBFC8010E94AD288E010F5F97
:104670001F4F0F2EF5EBEF2EF3E0FF2EF02D0F2E38
:10468000FFE6CF2EF4E0DF2EF02D0F2EF6EAAF2E50
:10469000F3E0BF2EF02D0E94EF230E94B40B813077
:1046A00019F08230C1F704C0C5010E94AD28F3CFD4
:1046B00000D000D000D0EDB7FEB73196ADB7BEB791
:1046C00012961C930E931197F382E282D582C482D4
:1046D0000E9412318DB79EB706960FB6F8949EBF12
:1046E0000FBE8DBFC8010E94AD28D5CF80917B053C
:1046F00090917C05009709F471C080E090E060E043
:10470000ABE7B5E0FC01EE0FFF1FE80FF91FEE0F5E
:10471000FF1FEE0FFF1FEE0FFF1FE80FF91FEA0F3D
:10472000FB1F4089518941155105A9F09C01220FB9
:10473000331F280F391F220F331F220F331F220F61
:10474000331F820F931FFD01E80FF91F41505040A6
:10475000518B408B2BC0FC01EE0FFF1FE80FF91FA0
:10476000EE0FFF1FEE0FFF1FEE0FFF1FE80FF91FE9
:10477000EA0FFB1F2289338921503040338B228B73
:104780002115310599F49C01220F331F280F391F81
:10479000220F331F220F331F220F331F820F931F4D
:1047A000FD01E80FF91F84898160848B6F5F862F7C
:1047B00090E0FC01EE0FFF1FE80FF91FEE0FFF1F47
:1047C000EE0FFF1FEE0FFF1FE80FF91FEA0FFB1F91
:1047D000208131812115310509F094CF08958F9200
:1047E0009F92AF92BF92CF92DF92EF92FF921F9370
:1047F000CF93DF9380917B0590917C05009709F41E
:1048000088C0C0E0D0E010E00F2EFBE7CF2EF5E02F
:10481000DF2EF02DFE01EE0FFF1FEC0FFD1FEE0F40
:10482000FF1FEE0FFF1FEE0FFF1FEC0FFD1FEC0D24
:10483000FD1D84898370833009F054C00E94841860
:104840004B015C017E01EE0CFF1CEC0EFD1EEE0C1C
:10485000FF1CEE0CFF1CEE0CFF1CEC0EFD1EEC0C06
:10486000FD1CD701ED91FC910995F70184898E7F9C
:10487000848B86859785938B828B0E948418AB01ED
:10488000BC01481559056A057B0558F4D501C401DA
:1048900080959095A095B095480F591F6A1F7B1F72
:1048A00004C0481959096A097B09FE01EE0FFF1F70
:1048B000EC0FFD1FEE0FFF1FEE0FFF1FEE0FFF1F90
:1048C000EC0FFD1FEC0DFD1D568B458B8789908DE0
:1048D000A0E0B0E084179507A607B70718F4EF012A
:1048E000588F4F8B1F5FC12FD0E0FE01EE0FFF1FCF
:1048F000EC0FFD1FEE0FFF1FEE0FFF1FEE0FFF1F50
:10490000EC0FFD1FEC0DFD1D80819181009709F0DA
:1049100081CFDF91CF911F91FF90EF90DF90CF90EB
:10492000BF90AF909F908F9008954F925F926F923B
:104930007F928F929F92AF92BF92CF92DF92EF922F
:10494000FF921F93CF93DF937C015B016A01B90152
:1049500010914504193008F067C080918905909145
:104960008A050097D9F0C0E04BE755E0CF5F2C2FC8
:1049700030E0C901880F991F820F931F880F991F7C
:10498000880F991F880F991F820F931F840F951FFF
:10499000FC0186859785009749F701C0C0E080E05B
:1049A00090E028EE33E040E050E00E945B2E0E9451
:1049B000CF2E8C2F90E0EC01CC0FDD1FC80FD91F3C
:1049C000CC0FDD1FCC0FDD1FCC0FDD1F4E01880E7D
:1049D000991EE401C558DA4FF982E8823F872E8795
:1049E0003B8B2A8BB60180E090E028EE33E040E07C
:1049F00050E00E945B2E0E94CF2E398B288B8C8931
:104A000082608E7F8C8B1E8A1D8A188E1F8AC4013D
:104A100083589A4FB5014CE050E00E949D301F5FD3
:104A20001093450480E001C086E0DF91CF911F9193
:104A3000FF90EF90DF90CF90BF90AF909F908F90BE
:104A40007F906F905F904F900895BF92CF92DF92CA
:104A5000EF92FF920F931F93CF93DF936C0180919E
:104A6000890590918A05009709F457C0C0E0D0E00D
:104A700010E000E00F2EFBE7EF2EF5E0FF2EF02D0B
:104A8000BB24B394CE01880F991F8C0F9D1F880FF4
:104A9000991F880F991F880F991F8C0F9D1F83588E
:104AA0009A4FB6010E949430282F392F21153105D5
:104AB000A1F4CE01880F991F8C0F9D1F880F991F9D
:104AC000880F991F880F991FC80FD91FCE0DDF1DA2
:104AD0008C8982608C8B2B2D01C0202F1F5FC12FF2
:104AE000D0E0FE01EE0FFF1FEC0FFD1FEE0FFF1FCA
:104AF000EE0FFF1FEE0FFF1FEC0FFD1FEE0DFF1D52
:104B000086859785009729F0222309F4BBCF80E0A2
:104B100007C0222321F080E003C085E001C084E0CB
:104B2000DF91CF911F910F91FF90EF90DF90CF9089
:104B3000BF900895BF92CF92DF92EF92FF920F93B2
:104B40001F93CF93DF936C018091890590918A0523
:104B5000009709F457C0C0E0D0E010E000E00F2E4D
:104B6000FBE7EF2EF5E0FF2EF02DBB24B394CE0132
:104B7000880F991F8C0F9D1F880F991F880F991FF1
:104B8000880F991F8C0F9D1F83589A4FB6010E9462
:104B90009430282F392F21153105A1F4CE01880F2B
:104BA000991F8C0F9D1F880F991F880F991F880FC1
:104BB000991FC80FD91FCE0DDF1D8C898D7F8C8B5F
:104BC0002B2D01C0202F1F5FC12FD0E0FE01EE0F63
:104BD000FF1FEC0FFD1FEE0FFF1FEE0FFF1FEE0F6D
:104BE000FF1FEC0FFD1FEE0DFF1D868597850097BB
:104BF00029F0222309F4BBCF80E007C0222321F053
:104C000080E003C085E001C084E0DF91CF911F9177
:104C10000F91FF90EF90DF90CF90BF9008958F920B
:104C20009F92BF92CF92DF92EF92FF920F931F93CA
:104C3000CF93DF936B012091890530918A0521156F
:104C4000310509F462C0BC0180E090E028EE33E059
:104C500040E050E00E945B2E0E94CF2E4901C0E050
:104C6000D0E010E000E00F2EFBE7EF2EF5E0FF2E86
:104C7000F02DBB24B394CE01880F991F8C0F9D1F7C
:104C8000880F991F880F991F880F991F8C0F9D1FE0
:104C900083589A4FB6010E949430282F392F21153E
:104CA000310599F4CE01880F991F8C0F9D1F880F35
:104CB000991F880F991F880F991FC80FD91FCE0DF4
:104CC000DF1D9F868E862B2D01C0202F1F5FC12FD9
:104CD000D0E0FE01EE0FFF1FEC0FFD1FEE0FFF1FD8
:104CE000EE0FFF1FEE0FFF1FEC0FFD1FEE0DFF1D60
:104CF00086859785009729F0222309F4BCCF80E0B0
:104D000007C0222321F080E003C085E001C084E0D9
:104D1000DF91CF911F910F91FF90EF90DF90CF9097
:104D2000BF909F908F900895AF92BF92CF92DF92E5
:104D3000EF92FF921F93CF93DF93CDB7DEB7C655A7
:104D4000D0400FB6F894DEBF0FBECDBFDE01D396C4
:104D5000EBEEF3E084E201900D928150E1F7CE0199
:104D6000C3960E94AD284091890550918A0541154E
:104D7000510509F479C020E030E010E07E0108948C
:104D8000E11CF11C0F2EFBECAF2EF3E0BF2EF02D3B
:104D90000F2EFBE7CF2EF5E0DF2EF02D8DB79EB75F
:104DA0000E970FB6F8949EBF0FBE8DBFADB7BEB7BE
:104DB0001196EDB7FEB7F282E1821396BC92AE92E5
:104DC0001297C901880F991F820F931F880F991F8F
:104DD000880F991F880F991F820F931F9C012358DA
:104DE0003A4F15963C932E93149717965C934E93D7
:104DF0001697F601E80FF91F848918968C93189777
:104E000019961C921997858996891B969C938E9367
:104E10001A978789908D1D969C938E931C970E945C
:104E200012318DB79EB70E960FB6F8949EBF0FBE87
:104E30008DBFC7010E94AD281F5F212F30E0F9010F
:104E4000EE0FFF1FE20FF31FEE0FFF1FEE0FFF1F0E
:104E5000EE0FFF1FE20FF31FEC0DFD1D468557857A
:104E60004115510509F09ACFCA5ADF4F0FB6F89491
:104E7000DEBF0FBECDBFDF91CF911F91FF90EF90AE
:104E8000DF90CF90BF90AF9008951F920F920FB612
:104E90000F9211242F933F934F935F938F939F9380
:104EA000EF93FF9390918B0680918A069817E1F01B
:104EB00080918B06E0918D06F0918E06E80FF11D32
:104EC000508140918B06242F30E080918C0690E039
:104ED00001972817390711F04F5F01C040E0409358
:104EE0008B065093C60005C0E1ECF0E080818F7D19
:104EF0008083FF91EF919F918F915F914F913F91AF
:104F00002F910F900FBE0F901F9018951F920F9228
:104F10000FB60F9211242F933F934F935F938F936C
:104F20009F93EF93FF93CF93DF930F92CDB7DEB7AD
:104F300050918606E6E8F6E04291842F90E02281C7
:104F400030E0215030408217930711F04F5F01C0CD
:104F500040E05417F1F08091C60090918506E091F1
:104F60008806F0918906E90FF11D8083409185063E
:104F7000242F30E08091870690E0019728173907A9
:104F800011F04F5F01C040E0409385061092840607
:104F900006C08091C600898381E080938406809159
:104FA00046049091470401969093470480934604E9
:104FB0000F90DF91CF91FF91EF919F918F915F9132
:104FC0004F913F912F910F900FBE0F901F9018950A
:104FD000CF93DF93CDB7DEB764970FB6F894DEBFFB
:104FE0000FBECDBF9093C5008093C40088E9809325
:104FF000C100E0ECF0E080818D7F808386E08093CB
:10500000C200188A198A8EE18A8B8CE596E09C8B07
:105010008B8BDE011696FE01709685E001900D9255
:105020008150E1F7DE011B96FE01369685E0019086
:105030000D928150E1F7AAE8B6E0FE013B9685E0CB
:1050400001900D928150E1F71B861C868AE08D87C6
:105050008AE796E09F878E87DE011196FE013B96D8
:1050600085E001900D928150E1F7DE015096FE013E
:10507000319685E001900D928150E1F7A5E8B6E008
:10508000FE01709685E001900D928150E1F76496E3
:105090000FB6F894DEBF0FBECDBFDF91CF9108955C
:1050A000CF92DF92EF92FF920F931F93CF93DF93F4
:1050B000C82ECBE8D6E08E0101501040EE24FF242C
:1050C0006894E1F8E00EF11EDD2404C081E090E078
:1050D0000E948F185881F8014081242F30E0F70199
:1050E000808190E001972817390711F04F5F01C0C8
:1050F0004D2D541759F3F89490918B0680918A06A0
:10510000981729F4E1ECF0E080818062808380913F
:105110008A06E0918D06F0918E06E80FF11DC0829F
:1051200040918A06242F30E080918C0690E0019710
:105130002817390711F04F5F01C040E040938A06FD
:105140007894DF91CF911F910F91FF90EF90DF90B6
:10515000CF9008950E9450280895CF93DF93EC01DB
:105160008881882331F021960E94AA28899188237A
:10517000D9F7DF91CF910895209186069091850609
:1051800081E0291709F480E0089580918606E09176
:105190008806F0918906E80FF11D808190918606BE
:1051A000492F50E02091870630E0215030404217CF
:1051B000530711F09F5F01C090E090938606089519
:1051C0005058BB27AA270ED04DC13ED130F043D155
:1051D00020F031F49F3F11F41EF433C10EF4E0953A
:1051E000E7FB29C1E92F4FD180F3BA176207730794
:1051F0008407950718F071F49EF567C10EF4E095E9
:105200000B2EBA2FA02D0B01B90190010C01CA0180
:10521000A0011124FF27591B99F0593F50F4503E2B
:1052200068F11A16F040A22F232F342F4427585F1D
:10523000F3CF469537952795A795F0405395C9F735
:105240007EF41F16BA0B620B730B840BBAF09150ED
:10525000A1F0FF0FBB1F661F771F881FC2F70EC08C
:10526000BA0F621F731F841F48F48795779567955F
:10527000B795F7959E3F08F0B3CF9395880F08F048
:105280009927EE0F9795879508950CD0EBC0E3D042
:1052900040F0DAD030F021F45F3F19F0CCC051116A
:1052A00015C1CFC0F0D098F39923C9F35523B1F3BA
:1052B000951B550BBB27AA2762177307840738F085
:1052C0009F5F5F4F220F331F441FAA1FA9F333D0E4
:1052D0000E2E3AF0E0E830D091505040E695001C98
:1052E000CAF729D0FE2F27D0660F771F881FBB1F54
:1052F000261737074807AB07B0E809F0BB0B802D2E
:10530000BF01FF2793585F4F2AF09E3F510568F079
:1053100092C0DCC05F3FECF3983EDCF38695779556
:105320006795B795F7959F5FC9F7880F911D96957B
:10533000879597F90895E1E0660F771F881FBB1FD7
:10534000621773078407BA0720F0621B730B840B84
:10535000BA0BEE1F88F7E095089504D06894B11158
:10536000B5C0089598D088F09F5790F0B92F99272D
:10537000B751A0F0D1F0660F771F881F991F1AF060
:10538000BA95C9F712C0B13081F09FD0B1E008954D
:105390009CC0672F782F8827B85F39F0B93FCCF3CE
:1053A000869577956795B395D9F73EF49095809556
:1053B000709561957F4F8F4F9F4F0895E89409C076
:1053C00097FB3EF490958095709561957F4F8F4F38
:1053D0009F4F9923A9F0F92F96E9BB279395F6954E
:1053E000879577956795B795F111F8CFFAF4BB0FCC
:1053F00011F460FF1BC06F5F7F4F8F4F9F4F16C030
:10540000882311F096E911C0772321F09EE8872FB9
:10541000762F05C0662371F096E8862F70E060E075
:105420002AF09A95660F771F881FDAF7880F9695EE
:10543000879597F9089597F99F6780E870E060E095
:1054400008959FEF80EC089500240A94161617061D
:1054500018060906089500240A9412161306140665
:1054600005060895092E0394000C11F4882352F0C8
:10547000BB0F40F4BF2B11F460FF04C06F5F7F4F80
:105480008F4F9F4F089557FD9058440F551F59F067
:105490005F3F71F04795880F97FB991F61F09F3F21
:1054A00079F087950895121613061406551FF2CF4A
:1054B0004695F1DF08C0161617061806991FF1CF9A
:1054C00086957105610508940895E894BB276627C1
:1054D0007727CB0197F908950BD0C4CFB5DF28F01B
:1054E000BADF18F0952309F0A6CFABCF1124EECF89
:1054F000CADFA0F3959FD1F3950F50E0551F629F2F
:10550000F001729FBB27F00DB11D639FAA27F00D1C
:10551000B11DAA1F649F6627B00DA11D661F829F43
:105520002227B00DA11D621F739FB00DA11D621F28
:10553000839FA00D611D221F749F3327A00D611D45
:10554000231F849F600D211D822F762F6A2F112427
:105550009F5750408AF0E1F088234AF0EE0FFF1F7A
:10556000BB1F661F771F881F91505040A9F79E3FB1
:10557000510570F060CFAACF5F3FECF3983EDCF3AB
:10558000869577956795B795F795E7959F5FC1F7EE
:10559000FE2B880F911D9695879597F90895A5E1A3
:1055A000B0E0E5EDFAE20C94EA2E4C017F876E87BD
:1055B000FC0117821682838181FD04C076C34C856D
:1055C0005D8504C01E010894211C311CF4019381E7
:1055D000EE85FF8593FD859193FF8191FF87EE878F
:1055E000882309F45EC3853241F493FD859193FFCE
:1055F0008191FF87EE87853259F490E0B4014C8B9E
:105600005D8B0E94E6304C895D895D874C87D7CFE2
:10561000FF24DD2410E01032B0F48B3269F08C32BC
:1056200028F4803251F0833271F40BC08D3239F09E
:10563000803349F411602CC01260146029C01860D6
:1056400027C0106125C017FD2EC0282F20532A30F7
:1056500098F416FF08C08F2D880FF82EFF0CFF0C52
:10566000F80EF20E15C08D2D880FD82EDD0CDD0C36
:10567000D80ED20E10620CC08E3221F416FD11C36A
:10568000106406C08C3611F4106802C0883659F4D4
:10569000EE85FF8593FD859193FF8191FF87EE87CE
:1056A000882309F0B8CF982F9554933018F41061DF
:1056B000805E06C0982F9556933008F0A2C11F7ED9
:1056C00016FD02C0E6E0FE2E1F73853611F410644D
:1056D00006C0863611F4106802C0F110FA9417FF64
:1056E00007C0FBE3FF1548F0EF2CE39427E00DC063
:1056F00027E02F1530F02F2D07C027E07CE3E72EA1
:1057000004C027E067E0F62EEE24CA0104969D87C8
:105710008C87FA016081718182819381A1010E2DB4
:105720000E94A42F5C01C9802C2D30E0398B288B7E
:10573000C0FE03C0388933FF06C011FD06C012FF4A
:1057400006C000E205C00DE203C00BE201C000E0AC
:10575000888999898C709070009709F43CC0002367
:1057600011F084E001C083E08D1558F4D81A13FDC0
:1057700009C080E290E0B4010E94E630DA94C9F7F3
:1057800001C0DD24002329F0802F90E0B4010E94A5
:10579000E630888983FD05C03CE6E32E30E0F32E39
:1057A00011C028E6E22E20E0F22E0CC001151105F2
:1057B00009F0805290E0B4010E94E6300894E11CA8
:1057C000F11C04C0012F10E000711070F7018491EA
:1057D000882361F763C217FF0EC0EA0CF889F4FF53
:1057E00004C08A81813309F4EA941E144CF528E040
:1057F0002E1548F12CC016FD2AC08F2D90E08A1579
:105800009B0544F03CEFA3163FEFB3061CF0106875
:1058100001C0FA94FF2049F0E2E0F0E0EC0FFD1F38
:10582000EF0DF11D80818033A1F317FF10C0EF2C25
:10583000E3948F2D90E0A816B90644F4FA1807C037
:10584000EE24E39404C098E0E92E01C0FF2417FF82
:1058500007C01A141B043CF495012F5F3F4F05C08D
:1058600025E030E002C021E030E0002311F02F5F9E
:105870003F4FFF2029F08F2D90E00196280F391F10
:105880008D2D90E02817390714F4D21A01C0DD24B9
:10589000612E7724C30189709070009749F406C087
:1058A00080E290E0B4010E94E630DA94DD20C1F796
:1058B000002329F0802F90E0B4010E94E63063FCC1
:1058C00009C006C080E390E0B4010E94E630DA949B
:1058D000DD20C1F717FF48C08501B7FE02C000E018
:1058E00010E06624772495012E1931093B8B2A8B11
:1058F0002501401A510A420C531C6F2D70E0EE2412
:10590000FF24E61AF70A3FEF0F3F130729F48EE250
:1059100090E0B4010E94E630A016B10654F02A8946
:105920003B89201731072CF4F201E60DF71D818128
:1059300001C080E3015010400894611C711C0E15D9
:105940001F052CF090E0B4010E94E630DCCF0A1570
:105950001B0541F49A81963320F4953319F4388964
:1059600034FF81E390E049C08A81813311F09FEEDA
:10597000C92290E0B4010E94E630FF2089F08EE257
:1059800090E0B4010E94E63012E0F101E10FF11D58
:105990001F5F808190E0B4010E94E630FA94A9F77D
:1059A00064FE03C085E490E002C085E690E0B401A7
:1059B0000E94E630B7FC05C0A114B10441F4C4FE56
:1059C00006C0B094A194B108B3948DE201C08BE2FB
:1059D00090E0B4010E94E63080E305C08F5FE6EFFF
:1059E000FFEFAE0EBF1EFAE0AF16B104BCF790E0B9
:1059F000B4010E94E630C501C096B4010E94E630B1
:105A00004DC1833631F0833789F0833509F059C0B1
:105A100022C09A012E5F3F4F3D872C87FA0180817B
:105A2000898381E0E82EF12C510113C09A012E5F89
:105A30003F4F3D872C87FA01A080B18016FF03C03D
:105A40006F2D70E002C06FEF7FEFC5010E94AC3098
:105A50007C011F7714C09A012E5F3F4F3D872C8732
:105A6000FA01A080B18016FF03C06F2D70E002C064
:105A70006FEF7FEFC5010E9484307C01106813FD39
:105A80001CC006C080E290E0B4010E94E630DA94C7
:105A90008D2D90E0E816F906A8F30FC0F50117FD6B
:105AA000859117FF81915F0190E0B4010E94E6307B
:105AB000D110DA940894E108F108E114F10471F7C7
:105AC000EDC0843611F0893671F59A0117FF0AC0CE
:105AD0002C5F3F4F3D872C87FA0180819181A28105
