:100000000C94B5000C94D2000C94D2000C94D20045
:100010000C94D2000C94D2000C94D2000C945A1878
:100020000C94D2000C94D2000C94D2000C94D20008
:100030000C94D2000C94D2000C94D2000C94D200F8
:100040000C94D2000C94D2000C949A240C94592451
:100050000C94D2000C94D2000C94D2000C94D200D8
:100060000C94D2000C94D2006E616E00696E660032
:1000700000407A10F35A00A0724E18090010A5D45F
:10008000E80000E87648170000E40B54020000CABC
:100090009A3B000000E1F505000080969800000002
:1000A00040420F000000A086010000001027000061
:1000B0000000E803000000006400000000000A00E7
:1000C000000000000100000000002C76D888DC67EA
:1000D0004F0823DFC1DFAE59E1B1B796E5E3E45342
:1000E000C63AE651997696E8E6C28426EB898C9B5F
:1000F00062ED407C6FFCEFBC9C9F40F2BAA56FA5FF
:10010000F490055A2AF75C936B6CF9676DC11BFC80
:10011000E0E40D47FEF520E6B500D0ED902E03009B
:10012000943577050080841E080000204E0A0000E8
:1001300000C80C333333330F986E12831141EF8DA7
:100140002114893BE65516CFFEE6DB18D1844B38E7
:100150001BF77C1D901DA4BBE424203284725E2218
:100160008100C9F124ECA1E53D2711241FBECFEF8A
:10017000D8E0DEBFCDBF13E0A0E0B1E0ECE7FDE5E5
:1001800002C005900D92AE3FB107D9F716E0AEEF71
:10019000B3E001C01D92A937B107E1F70E94B91F72
:1001A0000C94BC2E0C9400001F93CF93DF93182F58
:1001B000D62F8CEE0E94820CC1E0813009F0C0E0A5
:1001C000CC2381F4812F0E94F80CC1E0813009F02A
:1001D000C0E0CC2339F48D2F0E94F80CC1E08130AF
:1001E00009F0C0E00E94EF0C8C2FDF91CF911F919E
:1001F00008951F93CF93DF93182FEB018CEE0E948D
:10020000820C91E0813009F090E09883992301F508
:10021000812F0E94F80C91E0813009F090E09883E2
:100220009923B1F48DEE0E94EC0C91E0813009F03D
:1002300090E09883992321F40E94150DC82F01C0E6
:10024000C0E00E94EF0C8C2FDF91CF911F91089599
:10025000C0E0F7CF0F931F93CF93DF93082FEB01ED
:100260000E94F900182F802F8F5FBE010E94F900B5
:10027000382F20E0812F90E0282B392B822F932FCD
:10028000DF91CF911F910F910895CF92DF92FF924E
:100290000F931F93CF93DF93F82E162FE901188247
:1002A000662389F0C42ED52E00E0802F8F0DBE016D
:1002B0000E94F900F60181936F010F5F011719F099
:1002C0008881882391F3DF91CF911F910F91FF9047
:1002D000DF90CF9008950F931F93CF93DF930F92EA
:1002E000CDB7DEB7198288E8BE016F5F7F4F0E94ED
:1002F0002A0190933804809337048AE8BE016F5F27
:100300007F4F0E942A0190933C0480933B048CE829
:10031000BE016F5F7F4F0E942A019093510480932A
:1003200050048EE8BE016F5F7F4F0E942A019093B8
:1003300046048093450480E9BE016F5F7F4F0E94B1
:100340002A0190933F0480933E0482E9BE016F5FCF
:100350007F4F0E942A01909348048093470484E9C8
:10036000BE016F5F7F4F0E942A01909341048093EA
:10037000400486E9BE016F5F7F4F0E942A0190937F
:1003800044048093430488E9BE016F5F7F4F0E945D
:100390002A0190935304809352048AE9BE016F5F4F
:1003A0007F4F0E942A0190933604809335048CE994
:1003B000BE016F5F7F4F0E942A0190934A04809391
:1003C00049048EE9BE016F5F7F4F0E942A0190931E
:1003D0004F0480934E0481EABE016F5F7F4F0E94FD
:1003E000F90080933D0481EEBE016F5F7F4F0E9454
:1003F0002A01909355048093540483EEBE016F5FED
:100400007F4F0E94F90080934D0484EEBE016F5F20
:100410007F4F0E94F900082F85EEBE016F5F7F4F6E
:100420000E94F900182F282F30E02F703070802F95
:1004300090E082959295907F9827807F9827822BD5
:10044000932B90933A048093390486EEBE016F5F3C
:100450007F4F0E94F90012951F70212F30E090E02D
:1004600082959295907F9827807F9827282B392B0B
:1004700030934C0420934B0487EEBE016F5F7F4F97
:100480000E94F9008093420489810F90DF91CF91FF
:100490001F910F910895EF92FF921F93CF93DF93D7
:1004A000CDB7DEB76F970FB6F894DEBF0FBECDBFE6
:1004B000198280EDBE016F5F7F4F0E94F900182FF7
:1004C00080E091E00E94C1258981882329F080E1A4
:1004D00091E00E94C12557C089E191E00E94C125A9
:1004E000103661F586E291E00E94C12580EE66EB50
:1004F0000E94D400898382E090E00E9430188981B4
:10050000882309F040C08AE291E00E94C1250E9440
:100510006B0191E0882309F490E0998385E391E0F1
:100520000E94C1258981882321F08DE391E00E94FA
:10053000C12586E291E00E94C12525C000D000D0EF
:1005400000D0EDB7FEB73196EE24FF246894E1F8B1
:10055000EC0EFD1EADB7BEB71296FC92EE9211974F
:1005600082E491E093838283148315820E94262E75
:100570008DB79EB706960FB6F8949EBF0FBE8DBF7F
:10058000C7010E94C12582EF61E00E94D4008983E7
:1005900085EF60E10E94D400898384EF67E50E94C3
:1005A000D4006F960FB6F894DEBF0FBECDBFDF91BB
:1005B000CF911F91FF90EF9008958F929F92AF92ED
:1005C000BF92CF92DF92EF92FF920F931F93CF9340
:1005D000DF93CDB7DEB76F970FB6F894DEBF0FBECF
:1005E000CDBF1F8E8AEFBE01615E7F4F0E94F90072
:1005F000082F8BEFBE01615E7F4F0E94F900C82E6D
:100600008CEFBE01615E7F4F0E94F900DD24EE2475
:10061000FF24CC0CDD1CEE1CFF1CCC0CDD1CEE1CE6
:10062000FF1CCC0CDD1CEE1CFF1CCC0CDD1CEE1CDE
:10063000FF1C402F50E060E070E0032E3CE0440FD0
:10064000551F661F771F3A95D1F7302D4C295D292C
:100650006E297F2982958F7090E0A0E0B0E0482B52
:10066000592B6A2B7B2B8091370490913804A0E0A2
:10067000B0E06A017B01689413F8F594E794D7948D
:10068000C7941694D1F7C81AD90AEA0AFB0A6894E3
:1006900012F875956795579547951694D1F7880F79
:1006A000991FAA1FBB1F8A019B01081B190B2A0B4C
:1006B0003B0BC901B80120913B0430913C04442715
:1006C00037FD4095542F0E946F2B4B015C01072E84
:1006D0007BE0B594A794979487947A95D1F7702D81
:1006E000C701B601A70196010E946F2B052E5CE0A1
:1006F00095958795779567955A95D1F7502D2091C7
:10070000500430915104442737FD4095542F0E94E6
:100710006F2B6B017C010B2EBEE0F594E794D79410
:10072000C794BA95D1F7B02D8C0C9D1CAE1CBF1C84
:100730008092560490925704A0925804B0925904A3
:10074000D501C401880F991FAA1FBB1F880F991FCD
:10075000AA1FBB1F880D991DAA1DBB1D80589F4F46
:10076000AF4FBF4FC92EDA2EEB2EFF24E7FCFA94D1
:100770002DB73EB7285030400FB6F8943EBF0FBE9D
:100780002DBFEDB7FEB731968E010F5F1F4FADB78E
:10079000BEB712961C930E93119780E591E0938358
:1007A0008283C482D582E682F7820E94262E2DB7EC
:1007B0003EB7285F3F4F0FB6F8943EBF0FBE2DBF28
:1007C000C8010E94C1256C2D7D2D8E2D9F2D6F9609
:1007D0000FB6F894DEBF0FBECDBFDF91CF911F9152
:1007E0000F91FF90EF90DF90CF90BF90AF909F90D0
:1007F0008F9008953F924F925F926F927F928F9267
:100800009F92AF92BF92CF92DF92EF92FF920F939F
:100810001F93CF93DF93CDB7DEB7AD970FB6F894A4
:10082000DEBF0FBECDBF1F8E87EFBE01615E7F4F63
:100830000E94F900382E88EFBE01615E7F4F0E9452
:10084000F900182F89EFBE01615E7F4F0E94F90009
:10085000082F8090560490905704A0905804B090B0
:100860005904B594A7949794879480E096E0AFEFED
:10087000BFEF880E991EAA1EBB1EA50194015595B7
:100880004795379527955595479537952795CA01EB
:10089000B9010E946F2B68A379A38AA39BA3A0919F
:1008A0005204B0915304BDA3ACA3E0914304F09172
:1008B0004404FFA3EEA3209140043091410439A7E2
:1008C00028A76091470470914804882777FD809598
:1008D000982F28A139A14AA15BA1012E1DE05595B1
:1008E0004795379527951A95D1F7102D0E946F2BB4
:1008F0006B017C01689412F8F594E794D794C7943F
:100900001694D1F760913E0470913F04882777FDDB
:100910008095982FA50194010E946F2BDC01CB01DB
:10092000B595A795979587958C0D9D1DAE1DBF1DFF
:10093000072E72E1B595A795979587957A95D1F78A
:10094000702DBC01CD01605070488F4F9F4F20919A
:1009500045043091460440E050E00E946F2BDC01DA
:10096000CB012C013D01032E3FE075946794579411
:1009700047943A95D1F7302D411451046104710424
:1009800009F45CC1812F90E0A0E0B0E0880F991FCE
:10099000AA1FBB1F880F991FAA1FBB1F880F991F73
:1009A000AA1FBB1F880F991FAA1FBB1F432D50E012
:1009B00060E070E0032E3CE0440F551F661F771F78
:1009C0003A95D1F7302D482B592B6A2B7B2B02956A
:1009D0000F70802F90E0A0E0B0E08A019B01082B0F
:1009E000192B2A2B3B2B0AA71BA72CA73DA768A1D5
:1009F00079A18AA19BA1052E5BE0959587957795B6
:100A000067955A95D1F7502D0CA11DA19801442747
:100A100037FD4095542F0E946F2B6B017C010EA176
:100A20001FA1B801882777FD8095982FA501940113
:100A30000E946F2BDC01CB01880F991FAA1FBB1FDF
:100A4000C80ED91EEA1EFB1EF594E794D794C794EE
:100A5000F594E794D794C7948AA59BA5ACA5BDA5AA
:100A6000B095A095909581959F4FAF4FBF4F08A52A
:100A700019A5A801662757FD6095762FBA0155275D
:100A80004427C40ED51EE61EF71E0B2EBCE0F594BF
:100A9000E794D794C794BA95D1F7B02D8C199D09D6
:100AA000AE09BF09BC01CD0125E33CE040E050E0C8
:100AB0000E946F2BDC01CB0180509040A04BBC43C7
:100AC0006AF0BC01CD01660F771F881F991FA30133
:100AD00092010E94C12B69017A010CC0BC01CD01B9
:100AE000A30192010E94C12B69017A01CC0CDD1C8B
:100AF000EE1CFF1CA7019601689412F856954795C5
:100B0000379527951694D1F780914E0490914F0414
:100B10004C01AA2497FCA094BA2CCA01B9010E94E6
:100B20006F2BDC01CB019C01AD01012E1DE0569520
:100B30004795379527951A95D1F7102DC501B40122
:100B40000E946F2B4B015C01072E7CE0B594A794AB
:100B5000979487947A95D1F7702DC701B601969531
:100B60008795779567959695879577956795209161
:100B7000490430914A04442737FD4095542F0E9480
:100B80006F2BDC01CB01072E7DE0B595A7959795DE
:100B900087957A95D1F7702D880E991EAA1EBB1ED7
:100BA0008091350490913604AA2797FDA095BA2F1D
:100BB000880E991EAA1EBB1E689413F8B594A794BC
:100BC000979487941694D1F7C80CD91CEA1CFB1C87
:100BD000C701B6012AE030E040E050E00E94C12B9E
:100BE000C22ED32EE42EF52E8DB79EB708970FB6E2
:100BF000F8949EBF0FBE8DBFEDB7FEB731968E0144
:100C00000F5F1F4FADB7BEB712961C930E9311978F
:100C100089E591E0938382832483358346835783D8
:100C20000E94262EEDB7FEB738960FB6F894FEBF99
:100C30000FBEEDBFC8010E94C12503C0CC24DD2436
:100C400076016C2D7D2D8E2D9F2DAD960FB6F894CF
:100C5000DEBF0FBECDBFDF91CF911F910F91FF90EF
:100C6000EF90DF90CF90BF90AF909F908F907F904C
:100C70006F905F904F903F9008954F925F926F9268
:100C80007F928F929F92AF92BF92CF92DF92EF921C
:100C9000FF920F931F93CF93DF93CDB7DEB76F977C
:100CA0000FB6F894DEBF0FBECDBF1F8E8DEFBE0115
:100CB000615E7F4F0E94F900182F8EEFBE01615ECA
:100CC0007F4F0E94F900082F80915604909157049D
:100CD000A0915804B09159040F2EF0E0CF2EF4EDFE
:100CE000DF2EFEEFEF2EFFEFFF2EF02DC80ED91EE8
:100CF000EA1EFB1E20914B0430914C04442737FD23
:100D00004095542FC701B6010E946F2BDC01CB0127
:100D100040E050E460E070E04A015B01881A990A03
:100D2000AA0ABB0A412F50E060E070E0762F652FE1
:100D3000542F442710E020E030E0402B512B622B51
:100D4000732B032E3EE0440F551F661F771F3A9505
:100D5000D1F7302D8091390490913A04AA2797FD5C
:100D6000A095BA2F072E74E1880F991FAA1FBB1FE9
:100D70007A95D1F7702D481B590B6A0B7B0B840EAB
:100D8000951EA61EB71E24013501032E3FE0769462
:100D90006794579447943A95D1F7302D20914D049C
:100DA00030E040E050E0C701B6010E946F2B4B01DC
:100DB0005C01072E7BE0B694A794979487947A956C
:100DC000D1F7702D80E090E8A0E0B0E0880E991E89
:100DD000AA1EBB1E20914204332727FD3095432FC6
:100DE000532FC701B6010E946F2BDC01CB019C0180
:100DF000AD01012E1AE056954795379527951A951E
:100E0000D1F7102DC501B4010E946F2B052E5AE0B9
:100E100096958795779567955A95D1F7502D60509F
:100E20007040804E9F4F20915404309155044427C8
:100E300037FD4095542F0E946F2BDC01CB01805071
:100E4000904EAF4FBF4F9C01AD01012E1EE0569555
:100E50004795379527951A95D1F7102DC301B20103
:100E60000E946F2B6B017C019B01AC01012E1FE0E6
:100E700056954795379527951A95D1F7102DCA01A4
:100E8000B9010E946F2B689416F89695879577950F
:100E900067951694D1F720913D0430E040E050E092
:100EA0000E946F2BDC01CB01689413F8B695A795CF
:100EB000979587951694D1F7C81AD90AEA0AFB0ABA
:100EC00091E0C91690E0D90690E0E90699E1F906AB
:100ED00050F00F2EF0E0CF2EF0E0DF2EF0E0EF2EFE
:100EE000F9E1FF2EF02DC701B601052E5CE09695C5
:100EF0008795779567955A95D1F7502D2DE730E076
:100F000040E050E00E946F2B6B017C01689416F862
:100F1000F694E794D794C7941694D1F7ADB7BEB7BB
:100F200018970FB6F894BEBF0FBEADBFEDB7FEB7B2
:100F300031968E010F5F1F4F12961C930E931197DF
:100F400082E691E093838283C482D582E682F7822F
:100F50000E94262E8DB79EB708960FB6F8949EBFB6
:100F60000FBE8DBFC8010E94C1256C2D7D2D8E2D19
:100F70009F2D6F960FB6F894DEBF0FBECDBFDF91E9
:100F8000CF911F910F91FF90EF90DF90CF90BF9086
:100F9000AF909F908F907F906F905F904F9008954B
:100FA0008430F9F0853038F4823089F08330A0F451
:100FB000813051F507C08630F1F08630B8F08730C7
:100FC00019F51EC08BE691E00E94C12508958FE6B9
:100FD00091E00E94C125089583E791E00E94C12518
:100FE000089587E791E00E94C12508958BE791E07D
:100FF0000E94C12508958FE791E00E94C1250895C0
:1010000083E891E00E94C1250895CF92DF92EF928C
:10101000FF920F931F93CF93DF93CDB7DEB7E09787
:101020000FB6F894DEBF0FBECDBF7C0101960E94C3
:101030009A2C082FD7018C918D3609F489C28E36EF
:1010400050F4843609F48CC08C3609F47AC28336A5
:1010500009F0F3C20AC0863709F4C9C2873709F418
:10106000E0C2833709F0E9C2A2C2C70103960E9419
:101070009A2CD82E033051F1043028F40130A1F01D
:101080000230D8F408C0053099F1053040F106303F
:1010900009F040C036C08093570584E190E06D2D83
:1010A0000E94AE2E10E037C080935F0586E190E08D
:1010B0006D2D0E94AE2E10E02EC08093610588E158
:1010C00090E06D2D0E94AE2E10E025C0809350055B
:1010D0008AE190E06D2D0E94AE2E10E01CC080933E
:1010E00064058CE190E06D2D0E94AE2E10E013C0DF
:1010F000809360058EE190E06D2D0E94AE2E10E091
:101100000AC08093630580E290E06D2D0E94AE2EB0
:1011100010E001C012E0EDB7FEB738970FB6F894B3
:10112000FEBF0FBEEDBF3196ADB7BEB71296FC92B3
:10113000EE92119787E891E093838283048315826E
:10114000D68217820E94262EEDB7FEB738960FB6CC
:10115000F894FEBF0FBEEDBFC7010E94C125A6C215
:10116000023009F4B8C0033030F4002371F00130CC
:1011700009F087C264C0043009F44DC1043008F49A
:10118000EFC0053009F07DC291C103E911E0C7014C
:101190000396B8010E94A32D0E949A2CF82E80E09D
:1011A00090E0B8010E94A32D0E949A2CC82E80E0E6
:1011B00090E0B8010E94A32D0E949A2CE82ED92E0F
:1011C00086E991E00E94C1258F2D6C2D4E2D5D2D5D
:1011D0000E94910E0E94D0078DB79EB70A970FB656
:1011E000F8949EBF0FBE8DBFEDB7FEB731968E014E
:1011F0000F5F1F4FADB7BEB712961C930E9311979A
:101200008DE991E093838283F4821582C6821782EE
:10121000E086D1860E94262EEDB7FEB73A960FB62D
:10122000F894FEBF0FBEEDBFC8010E94C1258F2DEF
:101230006C2D4E2D5D2D0E942F0F10E037C20CEA51
:1012400011E0C7010396B8010E94A32D0E949A2CB9
:10125000F82E80E090E0B8010E94A32D0E949A2C05
:10126000E82E80E090E0B8010E94A32D0E949A2C05
:10127000D82E8DB79EB70A970FB6F8949EBF0FBEB3
:101280008DBFEDB7FEB731968E010F5F1F4FADB723
:10129000BEB712961C930E93119780EB91E0938347
:1012A0008283F4821582E6821782D08611860E949C
:1012B000262EEDB7FEB73A960FB6F894FEBF0FBED6
:1012C000EDBFC8010E94C1258F2D6E2D4D2D0E94AE
:1012D000700E10E0EBC1CE0189960E941B0E86ECC9
:1012E00091E00E94C12588A90E94D0078DB79EB7C2
:1012F00040970FB6F8949EBF0FBE8DBFEDB7FEB7F7
:1013000031968E010F5F1F4FADB7BEB712961C937B
:101310000E9311978FEC91E0938382838CA5848345
:1013200015828DA5868317828EA59FA591878087BC
:1013300089A5828713868AA5848715868BA58687CB
:1013400017860E94262EEDB7FEB770960FB6F8945A
:10135000FEBF0FBEEDBFC8010E94C12510E0A6C1AF
:101360000E946C0F7C0100D000D000D0EDB7FEB71A
:1013700031968E010F5F1F4FADB7BEB712961C930B
:101380000E9311978EEE91E093838283C70195951A
:10139000879595958795958384830E94262EEDB732
:1013A000FEB736960FB6F894FEBF0FBEEDBFC8016C
:1013B0000E94C125F3E0EF22FF2481E0E816F1044A
:1013C000C1F092E0E916F10424F4E114F10459F0BB
:1013D0005AC1A2E0EA16F10491F0B3E0EB16F10471
:1013E00009F051C112C08AEF91E00E94C12510E0BE
:1013F0005DC181E092E00E94C12510E057C188E004
:1014000092E00E94C12510E051C18FE092E00E945D
:10141000C12510E04BC10CEA11E0C7010396B801E9
:101420000E94A32D0E949A2CD82E80E090E0B80153
:101430000E94A32D0E949A2C082FE7E1ED1508F4D5
:1014400024C18C3308F023C1D09215048093140476
:101450000E942E0C8DB79EB708970FB6F8949EBFCA
:101460000FBE8DBFEDB7FEB731967E010894E11C2B
:10147000F11CADB7BEB71296FC92EE92119786E1C1
:1014800092E093838283D4821582068317820E941E
:10149000262EEDB7FEB738960FB6F894FEBF0FBEF6
:1014A000EDBFC7010E94C12510E000C10CEA11E0A8
:1014B000C7010396B8010E94A32D0E949A2CD82E32
:1014C00080E090E0B8010E94A32D0E949A2C082F82
:1014D000F7E1FD1508F4DDC08C3308F0DCC0D092D4
:1014E0001304809312040E942E0C8DB79EB70897A8
:1014F0000FB6F8949EBF0FBE8DBFEDB7FEB7319605
:101500007E010894E11CF11CADB7BEB71296FC92A7
:10151000EE92119781E492E093838283D4821582C4
:10152000068317820E94262EEDB7FEB738960FB6B7
:10153000F894FEBF0FBEEDBFC7010E94C12510E0A9
:10154000B5C0083008F0A9C000930B0410E0AEC08D
:10155000053008F0A4C0043031F500D000D000D030
:10156000EDB7FEB731968E010F5F1F4FADB7BEB717
:1015700012961C930E9311978AE692E093838283CE
:101580008091B503848315820E94262EEDB7FEB7A5
:1015900036960FB6F894FEBF0FBEEDBFC8010E948D
:1015A000C12510E083C00093B50310E07FC0013077
:1015B00071F0013030F0023071F0033009F071C089
:1015C0000EC08AE792E00E94C12510E06FC00E9421
:1015D000200D10E06BC00E94A82310E067C090911E
:1015E000280481E089278093280410E05FC001303F
:1015F00069F0013020F0023009F055C00EC081E0E2
:10160000809358051092620510E050C081E08093ED
:1016100058058093620510E049C01092580510E00B
:1016200045C0033008F041C00093110482E190E00E
:10163000602F0E94AE2E10E039C000D000D000D044
:10164000EDB7FEB731968E010F5F1F4FADB7BEB736
:1016500012961C930E9311978DE892E093838283E8
:10166000F582E4820E94262EEDB7FEB736960FB6BD
:10167000F894FEBF0FBEEDBFC8010E94C12511E066
:1016800015C012E013C010E011C010E00FC010E050
:101690000DC010E00BC010E009C012E007C012E05E
:1016A00005C012E003C012E001C012E0812FE096F5
:1016B0000FB6F894DEBF0FBECDBFDF91CF911F9163
:1016C0000F91FF90EF90DF90CF9008958091FF03EE
:1016D000882349F50E94D025882309F10E94D92545
:1016E00090E00E94902D8A3019F08D3071F417C06F
:1016F00081E08093FF038091FE03EAE5F4E0E80FC8
:10170000F11D10821092FE030AC09091FE03EAE5DB
:10171000F4E0E90FF11D80839F5F9093FE038091B9
:10172000FF03882339F01092FF038AE594E00E94BA
:101730000508089580E0089588E090E00E94A62EB4
:101740008F3F09F041C088E090E061E00E94AE2E3A
:101750008AE090E067E10E94AE2E8CE090E06EE1BE
:101760000E94AE2E8EE090E067E00E94AE2E80E1F7
:1017700090E06EE10E94AE2E82E190E062E00E9475
:10178000AE2E84E190E060E00E94AE2E86E190E013
:1017900062E00E94AE2E88E190E064E00E94AE2EEE
:1017A0008AE190E063E00E94AE2E8CE190E066E07A
:1017B0000E94AE2E8EE190E061E00E94AE2E80E2AB
:1017C00090E067E00E94AE2E08958AE090E00E94CB
:1017D000A62E809315048CE090E00E94A62E8093A4
:1017E00014048EE090E00E94A62E8093130480E102
:1017F00090E00E94A62E8093120482E190E00E9465
:10180000A62E8093110484E190E00E94A62E80937E
:10181000570586E190E00E94A62E80935F0588E13F
:1018200090E00E94A62E809361058AE190E00E94DC
:10183000A62E809350058CE190E00E94A62E809306
:1018400064058EE190E00E94A62E8093600580E200
:1018500090E00E94A62E8093630508958AE090E0B0
:10186000609115040E94AE2E8CE090E0609114040B
:101870000E94AE2E8EE090E0609113040E94AE2E86
:1018800080E190E0609112040E94AE2E82E190E02F
:10189000609111040E94AE2E84E190E060915705A2
:1018A0000E94AE2E86E190E060915F050E94AE2E10
:1018B00088E190E0609161050E94AE2E8AE190E09F
:1018C000609150050E94AE2E8CE190E0609164051D
:1018D0000E94AE2E8EE190E0609160050E94AE2ED7
:1018E00080E290E0609163050E94AE2E08958C30F6
:1018F00019F41092B90003C091E09093B90080935D
:10190000B80008950F931F93CF93DF93182FECEB3C
:10191000F0E084EA80838081882374F000E0CCEBDF
:10192000D0E081E090E00E9430180F5F888188232A
:1019300024F00330B1F701C000E08091B900887F46
:10194000883011F08031B1F40330B0F41093BB0053
:1019500084E88093BC00ECEBF0E080818823ECF716
:101960009091B900987F983149F081E0903439F432
:1019700080E005C081E003C081E001C080E0DF912C
:10198000CF911F910F910895CF93DF93ECEBF0E08F
:1019900024EAA9EBB0E0CBEBD0E034E844E92083C3
:1019A00090819923ECF79C91987F983011F09031B9
:1019B000B1F78883308390819923ECF79C91987FCD
:1019C000903211F0983529F44083908194FDFDCF39
:1019D000E6CFDF91CF9108950E94820C089584E9AB
:1019E0008093BC00ECEBF0E0808184FDFDCF089596
:1019F0008093BB0084E88093BC00ECEBF0E0808136
:101A00008823ECF79091B900987F81E0983209F42F
:101A100080E0089584EC8093BC00ECEBF0E08081E2
:101A20008823ECF78091BB00089584E88093BC0084
:101A3000ECEBF0E080818823ECF78091BB00089507
:101A4000AF92BF92CF92DF92FF920F931F93CF93EB
:101A5000DF93CDB7DEB7E7970FB6F894DEBF0FBEC2
:101A6000CDBFDE01D396EEEAF2E085E001900D9263
:101A70008150E1F78AE992E00E94C12502E010E07E
:101A8000FF246E010894C11CD11C0F2EF5EAAF2E65
:101A9000F2E0BF2EF02D802F0E94820C8823F1F4FB
:101AA00000D000D000D0EDB7FEB73196ADB7BEB7CD
:101AB0001296DC92CE921197B382A2821583048390
:101AC0000E94262E8DB79EB706960FB6F8949EBF3D
:101AD0000FBE8DBFC6010E94C125F3940E94EF0C7A
:101AE0000E5F1F4F91E000301907A9F6FF2021F487
:101AF000CE01C3960E94C1258CEA92E00E94C125C6
:101B0000E7960FB6F894DEBF0FBECDBFDF91CF9141
:101B10001F910F91FF90DF90CF90BF90AF900895ED
:101B2000282F2F70982F9695969596959E70892FB1
:101B3000880F880F980F892F820F0895282F30E083
:101B400086FF08C08F7025FF02C02AE001C020E098
:101B5000820F08958F70369527953695279536957F
:101B600027952670922F990F990F290F820F0895AC
:101B7000982F92959F70990F292F220F220F920F65
:101B80008F70890F08956AE00E948E2B8295807F66
:101B9000890F08950F931F93CF93DF93082FEB01C5
:101BA00080ED0E94820C11E0813009F010E01123D9
:101BB000A9F4802F0E94F80C11E0813009F010E0A8
:101BC000112361F481ED0E94EC0C11E0813009F0E9
:101BD00010E0112319F40E94150D88830E94EF0C68
:101BE000812FDF91CF911F910F9108951F93CF9374
:101BF000DF93182FD62F80ED0E94820CC1E0813038
:101C000009F0C0E0CC2381F4812F0E94F80CC1E0E0
:101C1000813009F0C0E0CC2339F48D2F0E94F80CFC
:101C2000C1E0813009F0C0E00E94EF0C8C2FDF9101
:101C3000CF911F9108951F93CF93DF93EC0180ED17
:101C40000E94820C11E0813009F010E01123C1F5EF
:101C500080E00E94F80C11E0813009F010E01123BF
:101C600079F581ED0E94EC0C11E0813009F010E073
:101C7000112331F50E940A0D0E94900D8A830E9463
:101C80000A0D0E94900D89830E940A0D0E949E0DEC
:101C900088830E940A0D8F830E940A0D0E94900D76
:101CA0008B830E940A0D0E94900D8C830E94150D5B
:101CB0000E94B80D90E08053984F9E838D8309C099
:101CC0001E821D82188219821A8281E08C838B8386
:101CD0008F830E94EF0C812FDF91CF911F91089588
:101CE000CF93DF93C62FD42F8831C0F46C33B0F478
:101CF0004C33A0F40E94C30D682F82E00E94F60DC1
:101D00008C2F0E94C30D682F81E00E94F60D8D2F4D
:101D10000E94C30D682F80E00E94F60DDF91CF91E5
:101D200008954F925F926F927F928F929F92AF929F
:101D3000BF92CF92DF92EF92FF92482E4A01262F58
:101D400030E08EE090E0821B930B6CE070E00E942C
:101D5000AE2BAA24BB2480EC92E1A0E0B0E0880E78
:101D6000991EAA1EBB1ECB01AA2797FDA095BA2FCC
:101D7000881A990AAA0ABB0ACB01880F991F680F13
:101D8000791F660F771F660F771F620F731F8827F3
:101D900077FD8095982F29E930E040E050E00E94DF
:101DA0006F2B695C71408040904025E030E040E05E
:101DB00050E00E94E32B69017A01C40CD11CE11CA4
:101DC000F11CC501B4012DE631E040E050E00E9475
:101DD0006F2B2B013C014C0C5D1C6E1C7F1CC50144
:101DE000B40124E030E040E050E00E94E32B6901C0
:101DF0007A01C40CD51CE61CF71CC501B40124E60D
:101E000030E040E050E00E94E32BC21AD30AE40A1B
:101E1000F50AC501B40120E931E040E050E00E943C
:101E2000E32BC20ED31EE41EF51EC701B6016C5291
:101E30007D478040904027E030E040E050E00E9445
:101E4000C12B862FFF90EF90DF90CF90BF90AF9087
:101E50009F908F907F906F905F904F9008950F9319
:101E60001F93CF93DF93C82FD62F81508F3138F532
:101E7000862F81508C3018F58A01005D174083E071
:101E8000083E1807E0F48C2F0E94910E682F83E023
:101E90000E94F60D802F0E94C30D682F86E00E94DD
:101EA000F60D8D2F0E94C30D682F85E00E94F60D60
:101EB0008C2F0E94C30D682F84E00E94F60DDF91E5
:101EC000CF911F910F910895682F8150873018F49A
:101ED00083E00E94F60D08950F931F93CF93DF9335
:101EE00000D0CDB7DEB781E1BE016F5F7F4F0E94AA
:101EF000CA0D098110E0000F111F000F111F882368
:101F000031F482E1BE016E5F7F4F0E94CA0D2A81CB
:101F1000229526952695237030E0022B132B11FF76
:101F200004C01D7F109501951F4F882311F000E01C
:101F300010E0802F912F0F900F90DF91CF911F9184
:101F40000F910895CF92DF92EF92FF92CF93DF939C
:101F5000EC01882777FD8095982F0E94F4266B016D
:101F60007C0120E030E040E05FE30E94802720E039
:101F700030E048E452E40E9459260E94C126DC0168
:101F8000CB01C817D90704F1C701B60120E030E042
:101F900040EC5FE30E94802720E030E048E452E418
:101FA0000E94592620E030E040E85FE30E94F525DA
:101FB0000E94C126AB01BC0181E090E04C175D0797
:101FC0002CF480E090E002C080E090E090E0DF91AF
:101FD000CF91FF90EF90DF90CF900895CF92DF9256
:101FE000EF92FF92CF93DF93EC0164567040882705
:101FF00077FD8095982F0E94F4266B017C0120E0EC
:1020000030E040E05FE30E94802720E030E048E4D9
:1020100052E40E9459260E94C126DC01CB01C81758
:10202000D90704F1C701B60120E030E040EC5FE3DE
:102030000E94802720E030E048E452E40E945926C4
:1020400020E030E040E85FE30E94F5250E94C126D1
:10205000AB01BC0181E090E04C175D072CF480E0FF
:1020600090E002C080E090E090E0DF91CF91FF909F
:10207000EF90DF90CF900895CF92DF92EF92FF9292
:10208000CF93DF93EC016C597F4F882777FD8095C4
:10209000982F0E94F4266B017C0120E030E040E0A4
:1020A0005FE30E94802720E030E048E452E40E9491
:1020B00059260E94C126DC01CB01C817D90704F1BB
:1020C000C701B60120E030E040EC5FE30E948027CA
:1020D00020E030E048E452E40E94592620E030E05D
:1020E00040E85FE30E94F5250E94C126AB01BC01D8
:1020F00081E090E04C175D072CF480E090E002C096
:1021000080E090E090E0DF91CF91FF90EF90DF9042
:10211000CF90089582E080936E0410926F0408952A
:1021200021E01B9B20E08091700490917104019646
:10213000909371048093700480916F04853618F039
:1021400086E080936E0480916E04843009F45BC055
:10215000853030F4823059F0833009F08BC034C0C0
:10216000853009F47AC0863009F084C07DC022230E
:1021700009F080C0809170049091710421E0803951
:10218000920728F41092710410927004089510922E
:102190003C0510926F0420916F04E22FF0E08091D3
:1021A000700490917104EE0FFF1FEE58FB4F918366
:1021B00080832F5F20936F0410927104109270043B
:1021C00083E080936E040895213009F053C020917C
:1021D0006F04A22FB0E08091700490917104129668
:1021E000EEE6F4E0AA0FBB1FAE0FBF1F11969C9343
:1021F0008E932F5F20936F041092710410927004DD
:1022000084E0808308952223E1F420916F04A22FBB
:10221000B0E080917004909171041296EEE6F4E0C3
:10222000AA0FBB1FAE0FBF1F11969C938E932F5FFB
:1022300020936F04109271041092700483E08083E5
:102240000895809170049091710421E08139920782
:1022500088F085E080936E040895222359F410924B
:10226000710410927004089581E080933C0585E02C
:1022700080936E0408956F927F928F929F92AF9297
:10228000BF92CF92DF92EF92FF920F931F93CF9363
:10229000DF935C01FC018485853009F090C0C68124
:1022A000D7818A819B8168E273E20E94EE0F0097DA
:1022B00009F487C0F5018085918584309105F1F49A
:1022C0008C819D816AEC78E00E943C10009709F4B3
:1022D0007AC08E819F8160E372E00E94EE0F0097CA
:1022E00009F473C0F501158214828FEF9FEFDC01B2
:1022F00080839183A283B38381E070C0843491058D
:102300000CF465C08C819D8164E971E10E943C10F0
:10231000009709F45EC000E010E0CC24DD247601D3
:102320000F2EF6E06F2E7724F02D6C0E7D1E882484
:102330009924689483F88C0E9D1EF301E00FF11F21
:102340008081918160E372E00E94EE0F009709F4B2
:1023500042C0E401C00FD11F888199816AE976E00B
:102360000E943C10009779F0D701C601880F991F91
:10237000AA1FBB1FCC24DD247601C394C82AD92A06
:10238000EA2AFB2A0CC08881998160E372E00E94EE
:102390003C10009711F1CC0CDD1CEE1CFF1C0C5FF7
:1023A0001F4F0038110549F680E290E0F501958352
:1023B0008483C082D182E282F38281E00FC080E018
:1023C0000DC080E00BC080E009C080E007C080E065
:1023D00005C080E003C080E001C080E0DF91CF91C4
:1023E0001F910F91FF90EF90DF90CF90BF90AF9033
:1023F0009F908F907F906F900895F89420916E0435
:102400007894223039F081E090E0253029F080E0A6
:1024100090E0089581E090E00895F89482E0809340
:102420006E0410926F0478940895FC01F89482E78A
:1024300094E097838683DC0113972C912087118683
:1024400020913C05228713860497DC018C918487B8
:102450007894CF010E943B11882321F40E940D1231
:1024600080E0089581E00895EF92FF920F931F930B
:10247000CF93DF93CDB7DEB764970FB6F894DEBF86
:102480000FBECDBF80910304833009F4E0C08430D7
:1024900030F4813009F4A3C0823078F50AC0853069
:1024A00009F4ACC1853008F438C1863009F099C20E
:1024B00013C2809116038F3021F481E080930304CE
:1024C00090C2803121F482E0809303048AC2883074
:1024D00030F493E09093B5038093B40382C28830C4
:1024E00009F07FC28091B5038F5F8093B50384307C
:1024F00008F477C21092B50374C28091160381303C
:1025000089F41092040483EB92E00E94AE221092B0
:10251000110480E066E044E50E942C1E83E0809375
:1025200003045FC2823089F41092040483EB92E0CA
:102530000E94AE221092110480E066E044E40E9402
:102540002C1E85E0809303044CC28730A9F480914F
:102550002704882341F481E0809327041092260405
:102560001092000406C080912604882311F4109272
:1025700027041092030435C2883009F51092040430
:1025800080912604882369F481E080932604809159
:102590002704882319F081E0809300041092270417
:1025A0000BC080910004882329F081E080932704E8
:1025B00010920004109226041092030412C2893073
:1025C00009F00FC280912804813019F41092280478
:1025D00003C081E0809328041092030402C280911A
:1025E0001603882369F4109204048091020488235E
:1025F00021F481E08093020427C01092020424C0D9
:10260000813051F410920404809101048823E1F494
:1026100081E08093010418C010920404883041F0D6
:10262000893051F0873051F481E08093110406C065
:1026300082E08093110402C01092110482E190E0C4
:10264000609111040E94AE2E10920304CAC1209121
:1026500016032A3020F0203109F0C3C102C0203116
:1026600069F41092030482E190E00E94A62E809308
:10267000110483EB92E00E943922B3C180910404DB
:10268000882319F4233040F0ACC1823011F084303B
:1026900019F4263008F0A5C10F2EF5E0EF2EF4E076
:1026A000FF2EF02DF701E80FF11D208300D000D0A0
:1026B00000D0EDB7FEB731968E010F5F1F4FADB75B
:1026C000BEB712961C930E9311978BEB92E09383F7
:1026D0008283248315820E94262E8DB79EB706968C
:1026E0000FB6F8949EBF0FBE8DBFC8010E94C125D2
:1026F00060910404F701E60FF11D808144E50E941A
:102700002C1E809104048F5F80930404863008F4AB
:1027100068C184E08093030464C1809116038E3005
:1027200009F05FC18EEB92E00E94C125ADB7BEB744
:1027300050970FB6F894BEBF0FBEADBFEDB7FEB752
:1027400031968E010F5F1F4F12961C930E931197B7
:102750008DEC92E0938382838091050484831582BB
:1027600080910604868317828091070480871186F2
:1027700080910804828713868091090484871586D6
:1027800080910A04868717860E94262E8DB79EB7F1
:1027900040960FB6F8949EBF0FBE8DBFC8010E9431
:1027A000C12580910504880F982F990F990F890FE3
:1027B0002091060490910704990F692F660F660F08
:1027C000690F30910804630F90910904990F492F04
:1027D000440F440F490F30910A04430F820F0E94A7
:1027E000700E1092030482E190E00E94A62E809366
:1027F000110483EB92E00E943922F3C0209116036A
:102800002A3020F0203109F0ECC002C0203169F4F8
:102810001092030482E190E00E94A62E809311049E
:1028200083EB92E00E943922DCC08091040488236B
:1028300019F4243080F0D5C0813041F49091050422
:10284000933049F4223008F0CCC005C0823019F42E
:10285000223008F0C6C00F2EF5E0EF2EF4E0FF2E78
:10286000F02DF701E80FF11D208300D000D000D03B
:10287000EDB7FEB731968E010F5F1F4FADB7BEB7F4
:1028800012961C930E9311978BEB92E093838283A5
:10289000248315820E94262E8DB79EB706960FB60A
:1028A000F8949EBF0FBE8DBFC8010E94C1256091E4
:1028B0000404F701E60FF11D808144E40E942C1E00
:1028C000809104048F5F80930404863008F489C0EB
:1028D00086E08093030485C0809116038E3009F052
:1028E00080C08DED92E00E94C125ADB7BEB71E97A6
:1028F0000FB6F894BEBF0FBEADBFEDB7FEB73196B1
:102900008E010F5F1F4F12961C930E9311978CEE42
:1029100092E0938382838091050484831582809161
:102920000604868317828091070480871186809130
:102930000804828713868091090490E0880F991F0C
:102940009C01220F331F220F331F820F931F8053CE
:10295000984F20910A04820F911D958784870E94C9
:10296000262E8DB79EB70E960FB6F8949EBF0FBE5B
:102970008DBFC8010E94C12580910504880F982F42
:10298000990F990F890F7091060490910704990F80
:10299000692F660F660F690F20910804620F20915E
:1029A000090430E0220F331FA901440F551F440FC3
:1029B000551F240F351FA9014053584F90910A0409
:1029C000490F511D870F0E942F0F1092030482E1BF
:1029D00090E00E94A62E8093110483EB92E00E9467
:1029E000392264960FB6F894DEBF0FBECDBFDF91DB
:1029F000CF911F910F91FF90EF9008950F931F9328
:102A0000CF93DF93CDB7DEB764970FB6F894DEBFF0
:102A10000FBECDBF8DE395E00E941512882309F407
:102A200058C180913D0590913E05A0913F05B09120
:102A300040058D3A22E592072FEFA20720E0B2076A
:102A400009F4E8C08E3A22E592072FEFA20720E0B2
:102A5000B20708F05BC08D3D22E292072FEFA2077C
:102A600020E0B20709F4C6C08E3D22E292072FEFA4
:102A7000A20720E0B207E0F48F3E20E192072FEF9B
:102A8000A20720E0B20709F4E4C0873E28E19207DC
:102A90002FEFA20720E0B20709F4D3C08D3F22E058
:102AA00092072FEFA20720E0B20709F0E2C0AAC008
:102AB000873C28E392072FEFA20720E0B20709F432
:102AC000CCC0883C28E392072FEFA20720E0B20792
:102AD00050F48F3C20E392072FEFA20720E0B207CB
:102AE00009F0C7C0AAC08D3B22E492072FEFA207CE
:102AF00020E0B20709F48AC0853B2AE492072FEF51
:102B0000A20720E0B20709F0B4C088C0873628E9E0
:102B100092072FEFA20720E0B20709F486C088369B
:102B200028E992072FEFA20720E0B20770F58D3950
:102B300022E692072FEFA20720E0B20709F452C065
:102B40008E3922E692072FEFA20720E0B20750F459
:102B5000853A2AE592072FEFA20720E0B20709F095
:102B600088C07FC0873928E692072FEFA20720E0B0
:102B7000B20709F456C085382AE792072FEFA2075B
:102B800020E0B20709F075C060C08F3420EB9207D7
:102B90002FEFA20720E0B20709F44BC0803520EBED
:102BA00092072FEFA20720E0B20750F4873528EAFA
:102BB00092072FEFA20720E0B20709F05AC016C013
:102BC0008D3322EC92072FEFA20720E0B207B1F07D
:102BD0008F3F2FEF92072FEFA2072FEFB20709F0D9
:102BE00048C043C08AE08093160346C08DE08093BE
:102BF000160342C08BE0809316033EC08CE08093A6
:102C000016033AC08EE08093160336C08FE080939F
:102C1000160332C080E1809316032EC01092160373
:102C20002BC081E08093160327C082E080931603B7
:102C300023C083E0809316031FC084E080931603B3
:102C40001BC085E08093160317C086E080931603AF
:102C500013C087E0809316030FC088E080931603AB
:102C60000BC089E08093160307C081E180931603AF
:102C700003C082E18093160300D000D000D0EDB7EE
:102C8000FEB731968E010F5F1F4FADB7BEB71296DC
:102C90001C930E9311978AEF92E093838283809125
:102CA0001603A2E0B3E0A80FB11D8C9184831582B6
:102CB0000E94262E8DB79EB706960FB6F8949EBF3B
:102CC0000FBE8DBFC8010E94C1250E9434120E9410
:102CD0000D1264960FB6F894DEBF0FBECDBFDF9124
:102CE000CF911F910F910895CF92DF92EF92FF92B3
:102CF0000F931F93CF93DF93CDB7DEB72A970FB60D
:102D0000F894DEBF0FBECDBFDE011196E7E1F3E020
:102D10008AE001900D928150E1F780910D0490912D
:102D20000E04A0910F04B09110040F2EF0E0CF2EEE
:102D3000F0E0DF2EF0E0EF2EFFEFFF2EF02DC822A7
:102D4000D922EA22FB228C019D010F7010702070A5
:102D500030700F2EF4E1000F111F221F331FFA9560
:102D6000D1F7F02DAC01BD01407F507060707070E4
:102D7000032E3CE0440F551F661F771F3A95D1F78D
:102D8000302D042B152B262B372B0C291D292E29F2
:102D90003F29AC01BD0140705F7060707070440FDE
:102DA000551F661F771F440F551F661F771F440F5F
:102DB000551F661F771F440F551F661F771F042B73
:102DC000152B262B372BAC01BD014070507F607056
:102DD0007070689413F87695679557954795169493
:102DE000D1F7042B152B262B372BAC01BD014070DE
:102DF00050706F707070032E3CE076956795579514
:102E000047953A95D1F7302D042B152B262B372BD0
:102E1000AC01BD0140705070607F7070032E34E1D2
:102E200076956795579547953A95D1F7302D402B74
:102E3000512B622B732B20910C043091B30333235D
:102E400009F4A2C0392F80911104813049F08130FA
:102E500020F0823009F048C023C010922B0444C0F7
:102E60009923D9F430912B04FE01E30FF11D8181E8
:102E700090E0A0E0B0E0BA2FA92F982F8827482B28
:102E8000592B6A2B7B2B832F8F5F80932B048A30E7
:102E900058F189E080932B0427C010922B0424C0A2
:102EA00080912C049817F1F0507000912B04FE01D2
:102EB000E00FF11D818190E0A0E0B0E0BA2FA92FD2
:102EC000982F8827482B592B6A2B7B2B802F8F5FBD
:102ED00080932B048A3040F089E080932B04309358
:102EE0002C0402C010922B04362F809111048130E3
:102EF00049F0813020F0823009F046C022C01092A3
:102F00002D0442C06623D1F430912D04FE01E30F5D
:102F1000F11D818190E0A0E0B0E0DC0199278827D5
:102F2000482B592B6A2B7B2B832F8F5F80932D048B
:102F30008A3050F189E080932D0426C010922D0430
:102F400023C080912E046817E9F0607000912D0471
:102F5000FE01E00FF11D818190E0A0E0B0E0DC0116
:102F600099278827482B592B6A2B7B2B802F8F5F23
:102F700080932D048A3040F089E080932D043093B3
:102F80002E0402C010922D0498E080E83BB13F73FC
:102F90003BB9382F3223381711F45D9A01C05D9880
:102FA00086955F9A5F98915089F7E0E280E090E023
:102FB000A0E0B0E82BB12F732BB98C019D01042345
:102FC000152326233723081719072A073B0711F46F
:102FD0005D9A01C05D98B695A795979587955F9A7C
:102FE0005F98E15039F75E9A5E982A960FB6F8948A
:102FF000DEBF0FBECDBFDF91CF911F910F91FF902C
:10300000EF90DF90CF9008950E94DD02DC01CB01AC
:1030100090931C0480931B040E94FA03DC01CB01F3
:1030200080931D0490931E04A0931F04B09320046A
:103030000E943D06DC01CB01809317049093180495
:10304000A0931904B0931A040895F8946091210490
:10305000709122048091230490912404789408951F
:103060008F929F92AF92BF92CF92DF92EF92FF9298
:10307000CF93DF93EC010E9425184B015C016E0198
:10308000EE24FF240E942518DC01CB018819990940
:10309000AA09BB098C159D05AE05BF0598F3DF9104
:1030A000CF91FF90EF90DF90CF90BF90AF909F9027
:1030B0008F9008951F920F920FB60F9211242F93A5
:1030C0003F934F935F936F937F938F939F93AF93B0
:1030D000BF93EF93FF932D9A809125048F5F809388
:1030E00025048431B8F00E948A20809121049091B7
:1030F0002204A0912304B09124040196A11DB11DC6
:103100008093210490932204A0932304B093240479
:10311000109225040E9490102D98FF91EF91BF917D
:10312000AF919F918F917F916F915F914F913F915F
:103130002F910F900FBE0F901F901895CF93DF9394
:10314000E1E5F5E0A9E5B5E0CAE4D5E09F012A5F35
:103150003F4F71938D936993E217F307D1F7DF9196
:10316000CF91089528E090E8392F382371F0289AFC
:10317000000000000000000000000000000000004F
:10318000000000000000289807C0289A00000000F6
:1031900000000000000028989695215029F7089516
:1031A000CF92DF92EF92FF920F931F93CF93DF9313
:1031B000F894C1E5D5E00F2EF9E5EF2EF5E0FF2EEE
:1031C000F02D0F2EFAE4CF2EF5E0DF2EF02D8E013C
:1031D0000A5F1F4F89910E94B218F70181917F0108
:1031E0000E94B218F60181916F010E94B218C017B7
:1031F000D10781F77894DF91CF911F910F91FF90C4
:10320000EF90DF90CF900895EF92FF920F931F936E
:10321000CF93DF93CDB7DEB728970FB6F894DEBF14
:103220000FBECDBF022F2983E32E3A83F42E4B83AA
:10323000152F5C83262F6D837E838F8398874E8125
:103240005F81633009F042C08FE163E00E94910E1C
:1032500090912904913031F1913020F0923009F0B1
:1032600080C02CC067E00E948E2B8FE1891B8117E4
:1032700041F4023031F4EE2079F481E080932904A6
:1032800070C0181718F4109216046BC0811720F440
:1032900081E08093160465C0023008F062C010928D
:1032A00016045FC083E060E04F2D0E94700E82E044
:1032B0008093290481E08093160453C0EE2011F01E
:1032C0001092290481E0809316044BC06A3009F003
:1032D0003FC08FE16AE00E94910E90912A049130E4
:1032E00029F1913018F09230E1F52BC067E00E948F
:1032F0008E2B8FE1891B811741F4033031F4EE20CE
:1033000079F481E080932A042CC0811718F410927C
:10331000160427C0181720F481E08093160421C0FA
:103320000330F8F481E0809316041BC082E060E073
:103330004F2D0E94700E82E080932A041092160492
:1033400010C0043010F010922A041092160409C024
:103350002350283018F01092160403C081E08093A7
:10336000160428960FB6F894DEBF0FBECDBFDF91CE
:10337000CF911F910F91FF90EF900895282F6AE051
:103380000E948E2B982F990F392F330F330F930FE5
:103390008295807F291B2F70822B089588B1807FB2
:1033A00088B980912F04843009F462C0853050F4CC
:1033B000813059F18130C8F08230B9F1833009F0A1
:1033C000BBC046C0873009F486C0883038F48530E9
:1033D00009F45EC0863009F0AFC06DC0883009F4D2
:1033E0008AC0893009F0A8C099C080E090E0A0E0D0
:1033F000B1E080930D0490930E04A0930F04B0935A
:10340000100481E080932F04089581E191E1A1E10E
:10341000B2E080930D0490930E04A0930F04B09338
:10342000100482E080932F04089582E292E2A2E2E7
:10343000B0E480930D0490930E04A0930F04B09316
:10344000100488B18C6088B983E080932F040895BC
:1034500083E393E3A3E3B4E080930D0490930E041D
:10346000A0930F04B093100484E080932F04089578
:1034700084E494E4A4E4B8E080930D0490930E04F3
:10348000A0930F04B093100485E080932F04089557
:1034900085E595E5A5E5B0E880930D0490930E04CD
:1034A000A0930F04B093100488B1896088B986E0B6
:1034B00080932F04089586E696E6A6E6B0E1809311
:1034C0000D0490930E04A0930F04B093100487E0B2
:1034D00080932F04089587E797E7A7E7B0E28093EA
:1034E0000D0490930E04A0930F04B093100488E091
:1034F00080932F04089588E898E8A8E8BFEF8093A8
:103500000D0490930E04A0930F04B093100488B19F
:103510008A6088B989E080932F04089589E999E940
:10352000A9E9BFEF80930D0490930E04A0930F04BC
:10353000B093100410922F040895843059F185300F
:1035400038F48230C9F08330F0F48130B9F50DC021
:10355000863069F1863028F1873081F56FEF7FEF93
:103560008FEF90E00E949E18089560E070E08FEF6A
:1035700090E00E949E18089560E07FEF80E090E068
:103580000E949E1808956FEF70E080E090E00E9426
:103590009E18089560E07FEF8FEF90E00E949E18E4
:1035A00008956FEF70E0CB010E949E1808956FEFB1
:1035B0007FEF80E090E00E949E18089560E070E048
:1035C000CB010E949E1808950F931F938823D1F476
:1035D0000E949D1A88B1807F88B980910D049091D6
:1035E0000E04A0910F04B09110048A6A9A6AAA6A24
:1035F000B07080930D0490930E04A0930F04B093C9
:1036000010042BC026E030E08901081B1109C80115
:10361000880F880F4AE050E060E070E08A019B016B
:1036200004C0000F111F221F331F8A95D2F7D90142
:10363000C80140910D0450910E0460910F047091E7
:103640001004842B952BA62BB72B80930D049093FD
:103650000E04A0930F04B09310041F910F910895CE
:10366000CF93DF93CDB7DEB728970FB6F894DEBFC0
:103670000FBECDBF80911304821720F490911504E2
:10368000291788F0821721F480911204381768F402
:1036900080911504821759F481E090911404391730
:1036A00038F480E005C080E003C080E001C081E024
:1036B00028960FB6F894DEBF0FBECDBFDF91CF9135
:1036C0000895CF92DF92EF92FF920F931F93CF93C3
:1036D000DF93CDB7DEB728970FB6F894DEBF0FBEE5
:1036E000CDBF10920D0410920E0410920F04109290
:1036F000100410920C04CE0101960E941B0E109231
:10370000B3038091B503823059F0833061F081308A
:1037100069F40E948A2C68E070E00E94AE2B07C01A
:103720008B81877004C08091B40301C080E00E9447
:103730009D1A80912804882319F00E94CE197DC219
:1037400080915805882341F080916205882311F00B
:10375000299A11C029980FC029813A814B815C8137
:103760006D817E818F8198850E94301B882311F0A6
:10377000299801C0299A8B81803260F48E3108F03B
:10378000A7C08F3008F4E3C1813178F0833108F0AD
:10379000DEC157C0883208F4DAC18A3208F412C197
:1037A0008253823008F0D3C159C129813A814B81BB
:1037B0005C816D817E818F8198850E9404198C8146
:1037C0000E94BE19182F8D810E94BE19412F50E012
:1037D00060E070E0032E3CE0440F551F661F771F2A
:1037E0003A95D1F7302D90E0A0E0B0E0482B592B6E
:1037F0006A2B7B2B440F551F661F771F440F551FE5
:10380000661F771F440F551F661F771F440F551FF4
:10381000661F771F40930D0450930E0460930F04AE
:103820007093100483E00E94E41A86E00E94E41A78
:103830008091B503833009F0FEC182E00E949D1A99
:10384000FAC188B1807F88B98E819F8164E670E07B
:103850000E949A2B082F862F0E94BE19182F802FA6
:103860000E94BE19412F50E060E070E0762F652F76
:10387000542F442790E0A0E0B0E0482B592B6A2B4E
:103880007B2B440F551F661F771F440F551F661F64
:10389000771F440F551F661F771F440F551F661F64
:1038A000771F40930D0450930E0460930F047093A0
:1038B000100481E00E94E41A86E00E94E41A8091DC
:1038C000B503833009F0B7C182E00E949D1AB3C1ED
:1038D000C0901704709118048091190490911A04F3
:1038E0006C2D28EE33E040E050E00E94C12B122FF7
:1038F000822F0E94BE19082F88EE189F102D1124C8
:10390000C11A8C2D6AE00E948E2B182F0E94BE19BE
:10391000402F50E060E070E0762F652F542F442751
:1039200090E0A0E0B0E0482B592B6A2B7B2B440F92
:10393000551F661F771F440F551F661F771F440FC3
:10394000551F661F771F440F551F661F771F110FE6
:10395000812F880F880F180FC11ADD24EE24FF2451
:10396000C42AD52AE62AF72AC0920D04D0920E0462
:10397000E0920F04F092100481E080930C0488B16F
:10398000897F88B9409A439A81E00E94E41A809125
:10399000170490911804A0911904B0911A04803171
:1039A00027E2920720E0A20720E0B20718F482E0A5
:1039B0000E94E41A8091B503833009F03CC10E9453
:1039C0009D1A39C100911B0490911C04802F64E65C
:1039D00070E00E94AE2B862FC62E0E94BE19182FB3
:1039E0008CE9C89E802D1124800F0E94BE1990E0A2
:1039F000A0E0B0E0B068412F50E060E070E0762FCA
:103A0000652F542F4427842B952BA62BB72B8093FF
:103A10000D0490930E04A0930F04B093100488B18A
:103A20008C7F88B9429A439A81E00E94E41A82E02E
:103A30000E94E41A80911B0490911C0423E0883EAC
:103A400092071CF483E00E94E41A8091B50383304E
:103A500009F0F1C081E00E949D1AEDC010911D0493
:103A600070911E0480911F0490912004612F28EE14
:103A700033E040E050E00E94C12B022F822F0E94D1
:103A8000BE19C82E88EE089F002D1124101B812F0F
:103A90006AE00E948E2B082F0E94BE19000F902F03
:103AA000990F990F090F101B412F50E060E070E053
:103AB0007064DD24EE24FF24FE2CED2CDC2CCC24C1
:103AC00090E0A0E0B0E0C82AD92AEA2AFB2ACC0C70
:103AD000DD1CEE1CFF1CCC0CDD1CEE1CFF1CCC0CFA
:103AE000DD1CEE1CFF1CCC0CDD1CEE1CFF1C4C294D
:103AF0005D296E297F2940930D0450930E04609335
:103B00000F047093100488B18A7F88B9419A439A50
:103B100081E00E94E41A80911D0490911E04A091FE
:103B20001F04B0912004803127E2920720E0A20711
:103B300020E0B20718F482E00E94E41A8091B503F5
:103B4000833009F078C086E00E949D1A74C081E03D
:103B50008093B30329813A814B815C816D817E81A1
:103B60008F8198850E94041989810E94BE19C82EF0
:103B70008A810E94BE19DD24EE24FF24FE2CED2C48
:103B8000DC2CCC2490E0A0E0B0E0C82AD92AEA2AB4
:103B9000FB2A8B810E94BE19FE2CED2CDC2CCC2440
:103BA00090E0A0E0B0E0C82AD92AEA2AFB2AC09215
:103BB0000D04D0920E04E0920F04F092100488B12C
:103BC000807F88B98B8180FF0CC0D701C601B460AB
:103BD00080930D0490930E04A0930F04B0931004EF
:103BE00011C080910D0490910E04A0910F04B0912A
:103BF0001004B06880930D0490930E04A0930F04FA
:103C0000B09310048A8180FF04C082E080930C048A
:103C100003C082E080930C0480911604882331F065
:103C200080910C04886080930C0405C080910C0482
:103C3000877F80930C040E94D01828960FB6F894C2
:103C4000DEBF0FBECDBFDF91CF911F910F91FF90CF
:103C5000EF90DF90CF900895CF93C42F633009F495
:103C60009EC0643030F46130A9F1623008F066C063
:103C70000AC0653009F4ECC0653008F4BEC0663097
:103C800009F019C10DC190E0A0E0B0E040910D0431
:103C900050910E0460910F0470911004842B952BA9
:103CA000A62BB72B80930D0490930E04A0930F04C2
:103CB000B093100481E00E94E41A82E00E94E41AAA
:103CC00083E00E94E41A84E00E94E41A85E00E94E6
:103CD000E41AF1C090E0A0E0B0E040910D045091F2
:103CE0000E0460910F0470911004440F551F661F5D
:103CF000771F440F551F661F771F440F551F661F00
:103D0000771F440F551F661F771F842B952BA62BFB
:103D1000B72B80930D0490930E04A0930F04B093DF
:103D2000100481E00E94E41A82E00E94E41A83E019
:103D30000E94E41A84E00E94E41ABDC090E0A0E072
:103D4000B0E040910D0450910E0460910F04709109
:103D50001004440F551F661F771F440F551F661F21
:103D6000771F440F551F661F771F440F551F661F8F
:103D7000771F842B952BA62BB72B80930D04909344
:103D80000E04A0930F04B093100481E00E94E41A83
:103D900082E00E94E41A83E00E94E41A8CC090E062
:103DA000A0E0B0E040910D0450910E0460910F042A
:103DB00070911004440F551F661F771F440F551F45
:103DC000661F771F440F551F661F771F440F551F2F
:103DD000661F771F842B952BA62BB72B80930D0482
:103DE00090930E04A0930F04B093100481E00E94FE
:103DF000E41A82E00E94E41A5EC090E0A0E0B0E025
:103E000040910D0450910E0460910F0470911004C4
:103E1000440F551F661F771F440F551F661F771FDE
:103E2000440F551F661F771F440F551F661F771FCE
:103E3000842B952BA62BB72B80930D0490930E0407
:103E4000A0930F04B093100481E00E94E41A33C0E1
:103E500090E0A0E0B0E040910D0450910E0460911C
:103E60000F0470911004440F551F661F771F440FF5
:103E7000551F661F771F440F551F661F771F440F7E
:103E8000551F661F771F842B952BA62BB72B80936E
:103E90000D0490930E04A0930F04B09310040BC074
:103EA00010920D0410920E0410920F041092100440
:103EB00088B1807F88B910920C04C435C1F4809118
:103EC0000D0490910E04A0910F04B0911004B068FD
:103ED00080930D0490930E04A0930F04B0931004EC
:103EE00082E080930C0484E00E949D1A18C0C434C0
:103EF000B1F480910D0490910E04A0910F04B09143
:103F00001004B06880930D0490930E04A0930F04E6
:103F1000B093100482E080930C040E949D1ACF910C
:103F20000895E0EBF0E080818260808382E08093FE
:103F3000B10083E68093B3001092B200E0E7F0E0B6
:103F4000808182608083089523982B9884B1836256
:103F500084B985B18C7D85B987B18F6087B988B107
:103F6000807F88B98AB1806E8AB98BB18F718BB925
:103F70000895CF93DF93CDB7DEB764970FB6F8946B
:103F8000DEBF0FBECDBF0E94911F0E948A108CE041
:103F90000E94770C0E94A41F8BE390E00E948F2C5C
:103FA00089E190E00E94FC240E944B0281E69BE1A3
:103FB00061E273E040E050E028EE33E00E94A92186
:103FC00084E796E169E273E044E650E022E330E002
:103FD0000E94A9218EEF94E160E373E046E950E08E
:103FE00024EF31E00E94A92184E098E168E373E0C6
:103FF0004AEF50E028E833E10E94A92178940E941A
:104000009C0B0E94E50B82E290E00E94A62E91E0BC
:10401000882309F490E0909316048FE393E00E94C4
:10402000C1258AE693E00E94C1258DB79EB70C9703
:104030000FB6F8949EBF0FBE8DBFEDB7FEB7319699
:104040008E010F5F1F4FADB7BEB712961C930E9334
:10405000119789E793E09383828380911504848389
:1040600015828091140486831782809113048087BF
:10407000118680911204828713860E94262E8DB7A6
:104080009EB70C960FB6F8949EBF0FBE8DBFC801A9
:104090000E94C1258E010F5F1F4F0F2EF0EAEF2EF9
:1040A000F3E0FF2EF02D0F2EFAE5CF2EF4E0DF2EF9
:1040B000F02D0F2EF1E9AF2EF3E0BF2EF02D0E9470
:1040C00003210E94660B813019F08230C1F704C0D1
:1040D000C5010E94C125F3CF00D000D000D0EDB7BC
:1040E000FEB73196ADB7BEB712961C930E931197DB
:1040F000F382E282D582C4820E94262E8DB79EB7BB
:1041000006960FB6F8949EBF0FBE8DBFC8010E94E1
:10411000C125D5CF8091650590916605009709F47A
:1041200071C080E090E060E0A5E6B5E0FC01EE0F34
:10413000FF1FE80FF91FEE0FFF1FEE0FFF1FEE0F1F
:10414000FF1FE80FF91FEA0FFB1F40895189411536
:104150005105A9F09C01220F331F280F391F220F90
:10416000331F220F331F220F331F820F931FFD01B6
:10417000E80FF91F41505040518B408B2BC0FC0180
:10418000EE0FFF1FE80FF91FEE0FFF1FEE0FFF1FCF
:10419000EE0FFF1FE80FF91FEA0FFB1F228933897B
:1041A00021503040338B228B2115310599F49C012D
:1041B000220F331F280F391F220F331F220F331FE7
:1041C000220F331F820F931FFD01E80FF91F84890F
:1041D0008160848B6F5F862F90E0FC01EE0FFF1FE4
:1041E000E80FF91FEE0FFF1FEE0FFF1FEE0FFF1F6F
:1041F000E80FF91FEA0FFB1F2081318121153105DE
:1042000009F094CF08958F929F92AF92BF92CF9270
:10421000DF92EF92FF921F93CF93DF93809165051A
:1042200090916605009709F488C0C0E0D0E010E0E6
:104230000F2EF5E6CF2EF5E0DF2EF02DFE01EE0F6E
:10424000FF1FEC0FFD1FEE0FFF1FEE0FFF1FEE0F06
:10425000FF1FEC0FFD1FEC0DFD1D84898370833063
:1042600009F054C00E9425184B015C017E01EE0C40
:10427000FF1CEC0EFD1EEE0CFF1CEE0CFF1CEE0CEA
:10428000FF1CEC0EFD1EEC0CFD1CD701ED91FC910A
:104290000995F70184898E7F848B86859785938B1A
:1042A000828B0E942518AB01BC01481559056A058F
:1042B0007B0558F4D501C40180959095A095B095E3
:1042C000480F591F6A1F7B1F04C0481959096A0902
:1042D0007B09FE01EE0FFF1FEC0FFD1FEE0FFF1F0E
:1042E000EE0FFF1FEE0FFF1FEC0FFD1FEC0DFD1D6E
:1042F000568B458B8789908DA0E0B0E08417950799
:10430000A607B70718F4EF01588F4F8B1F5FC12F17
:10431000D0E0FE01EE0FFF1FEC0FFD1FEE0FFF1FA1
:10432000EE0FFF1FEE0FFF1FEC0FFD1FEC0DFD1D2D
:1043300080819181009709F081CFDF91CF911F910A
:10434000FF90EF90DF90CF90BF90AF909F908F90B5
:1043500008954F925F926F927F928F929F92AF9249
:10436000BF92CF92DF92EF92FF921F93CF93DF9392
:104370007C015B016A01B90110913004193008F029
:1043800067C080917305909174050097D9F0C0E0E3
:1043900045E655E0CF5F2C2F30E0C901880F991F0B
:1043A000820F931F880F991F880F991F880F991FDD
:1043B000820F931F840F951FFC01868597850097B8
:1043C00049F701C0C0E080E090E028EE33E040E033
:1043D00050E00E946F2B0E94E32B8C2F90E0EC01A9
:1043E000CC0FDD1FC80FD91FCC0FDD1FCC0FDD1F79
:1043F000CC0FDD1F4E01880E991EE401CB59DA4F18
:10440000F982E8823F872E873B8B2A8BB60180E0BA
:1044100090E028EE33E040E050E00E946F2B0E94D5
:10442000E32B398B288B8C8982608E7F8C8B1E8A44
:104430001D8A188E1F8AC40189599A4FB5014CE014
:1044400050E00E94B12D1F5F1093300480E001C046
:1044500086E0DF91CF911F91FF90EF90DF90CF909A
:10446000BF90AF909F908F907F906F905F904F9094
:104470000895BF92CF92DF92EF92FF920F931F9316
:10448000CF93DF936C018091730590917405009731
:1044900009F457C0C0E0D0E010E000E00F2EF5E6D0
:1044A000EF2EF5E0FF2EF02DBB24B394CE01880F44
:1044B000991F8C0F9D1F880F991F880F991F880FB8
:1044C000991F8C0F9D1F89599A4FB6010E94A82DE4
:1044D000282F392F21153105A1F4CE01880F991FFE
:1044E0008C0F9D1F880F991F880F991F880F991F88
:1044F000C80FD91FCE0DDF1D8C8982608C8B2B2DB0
:1045000001C0202F1F5FC12FD0E0FE01EE0FFF1F63
:10451000EC0FFD1FEE0FFF1FEE0FFF1FEE0FFF1F33
:10452000EC0FFD1FEE0DFF1D86859785009729F086
:10453000222309F4BBCF80E007C0222321F080E0D2
:1045400003C085E001C084E0DF91CF911F910F91FE
:10455000FF90EF90DF90CF90BF900895BF92CF92E1
:10456000DF92EF92FF920F931F93CF93DF936C0133
:104570008091730590917405009709F457C0C0E0CD
:10458000D0E010E000E00F2EF5E6EF2EF5E0FF2E74
:10459000F02DBB24B394CE01880F991F8C0F9D1F63
:1045A000880F991F880F991F880F991F8C0F9D1FC7
:1045B00089599A4FB6010E94A82D282F392F21150D
:1045C0003105A1F4CE01880F991F8C0F9D1F880F14
:1045D000991F880F991F880F991FC80FD91FCE0DDB
:1045E000DF1D8C898D7F8C8B2B2D01C0202F1F5FB1
:1045F000C12FD0E0FE01EE0FFF1FEC0FFD1FEE0FED
:10460000FF1FEE0FFF1FEE0FFF1FEC0FFD1FEE0D44
:10461000FF1D86859785009729F0222309F4BBCFDB
:1046200080E007C0222321F080E003C085E001C0C4
:1046300084E0DF91CF911F910F91FF90EF90DF9079
:10464000CF90BF9008958F929F92BF92CF92DF92AA
:10465000EF92FF920F931F93CF93DF936B01209103
:104660007305309174052115310509F462C0BC0150
:1046700080E090E028EE33E040E050E00E946F2BB5
:104680000E94E32B4901C0E0D0E010E000E00F2ED3
:10469000F5E6EF2EF5E0FF2EF02DBB24B394CE010E
:1046A000880F991F8C0F9D1F880F991F880F991FC6
:1046B000880F991F8C0F9D1F89599A4FB6010E9430
:1046C000A82D282F392F2115310599F4CE01880FF7
:1046D000991F8C0F9D1F880F991F880F991F880F96
:1046E000991FC80FD91FCE0DDF1D9F868E862B2DDB
:1046F00001C0202F1F5FC12FD0E0FE01EE0FFF1F72
:10470000EC0FFD1FEE0FFF1FEE0FFF1FEE0FFF1F41
:10471000EC0FFD1FEE0DFF1D86859785009729F094
:10472000222309F4BCCF80E007C0222321F080E0DF
:1047300003C085E001C084E0DF91CF911F910F910C
:10474000FF90EF90DF90CF90BF909F908F90089553
:10475000AF92BF92CF92DF92EF92FF921F93CF93CF
:10476000DF93CDB7DEB7C655D0400FB6F894DEBFA5
:104770000FBECDBFDE01D396E6EDF3E084E20190FB
:104780000D928150E1F7CE01C3960E94C125409160
:104790007305509174054115510509F479C020E065
:1047A00030E010E07E010894E11CF11C0F2EF6EBC6
:1047B000AF2EF3E0BF2EF02D0F2EF5E6CF2EF5E055
:1047C000DF2EF02D8DB79EB70E970FB6F8949EBFD3
:1047D0000FBE8DBFADB7BEB71196EDB7FEB7F28273
:1047E000E1821396BC92AE921297C901880F991F6D
:1047F000820F931F880F991F880F991F880F991F89
:10480000820F931F9C0129593A4F15963C932E9382
:10481000149717965C934E931697F601E80FF91FBD
:10482000848918968C93189719961C9219978589E4
:1048300096891B969C938E931A978789908D1D96C7
:104840009C938E931C970E94262E8DB79EB70E9632
:104850000FB6F8949EBF0FBE8DBFC7010E94C12541
:104860001F5F212F30E0F901EE0FFF1FE20FF31F52
:10487000EE0FFF1FEE0FFF1FEE0FFF1FE20FF31FE4
:10488000EC0DFD1D468557854115510509F09ACF60
:10489000CA5ADF4F0FB6F894DEBF0FBECDBFDF910F
:1048A000CF911F91FF90EF90DF90CF90BF90AF908E
:1048B00008951F920F920FB60F9211242F933F93DA
:1048C0004F935F938F939F93EF93FF939091750610
:1048D000809174069817E1F080917506E091770653
:1048E000F0917806E80FF11D508140917506242F54
:1048F00030E08091760690E001972817390711F093
:104900004F5F01C040E0409375065093C60005C05C
:10491000E1ECF0E080818F7D8083FF91EF919F91AA
:104920008F915F914F913F912F910F900FBE0F90FC
:104930001F9018951F920F920FB60F9211242F936C
:104940003F934F935F938F939F93EF93FF93CF93F7
:10495000DF930F92CDB7DEB750917006E0E7F6E037
:104960004291842F90E0228130E021503040821724
:10497000930711F04F5F01C040E05417F1F08091B0
:10498000C60090916F06E0917206F0917306E90FF0
:10499000F11D808340916F06242F30E080917106D5
:1049A00090E001972817390711F04F5F01C040E0F0
:1049B00040936F0610926E0606C08091C6008983F0
:1049C00081E080936E0680913104909132040196CB
:1049D00090933204809331040F90DF91CF91FF9137
:1049E000EF919F918F915F914F913F912F910F90F8
:1049F0000FBE0F901F901895CF93DF93CDB7DEB702
:104A000064970FB6F894DEBF0FBECDBF9093C5007C
:104A10008093C40088E98093C100E0ECF0E08081DD
:104A20008D7F808386E08093C200188A198A8EE188
:104A30008A8B86E496E09C8B8B8BDE011696FE01BA
:104A4000709685E001900D928150E1F7DE011B9692
:104A5000FE01369685E001900D928150E1F7A4E7C2
:104A6000B6E0FE013B9685E001900D928150E1F7A2
:104A70001B861C868AE08D8784E696E09F878E875A
:104A8000DE011196FE013B9685E001900D9281506A
:104A9000E1F7DE015096FE01319685E001900D921E
:104AA0008150E1F7AFE6B6E0FE01709685E0019037
:104AB0000D928150E1F764960FB6F894DEBF0FBEF9
:104AC000CDBFDF91CF910895CF92DF92EF92FF9209
:104AD0000F931F93CF93DF93C82EC5E7D6E08E01C7
:104AE00001501040EE24FF246894E1F8E00EF11E1E
:104AF000DD2404C081E090E00E9430185881F80164
:104B00004081242F30E0F701808190E00197281741
:104B1000390711F04F5F01C04D2D541759F3F89428
:104B20009091750680917406981729F4E1ECF0E0F5
:104B300080818062808380917406E0917706F09195
:104B40007806E80FF11DC08240917406242F30E0F2
:104B50008091760690E001972817390711F04F5F92
:104B600001C040E0409374067894DF91CF911F918B
:104B70000F91FF90EF90DF90CF9008950E946425F1
:104B80000895CF93DF93EC018881882331F021963B
:104B90000E94BE2589918823D9F7DF91CF9108958E
:104BA0002091700690916F0681E0291709F480E04A
:104BB000089580917006E0917206F0917306E80FF7
:104BC000F11D808190917006492F50E0209171066F
:104BD00030E0215030404217530711F09F5F01C071
:104BE00090E09093700608955058BB27AA270ED0E6
:104BF0004DC13ED130F043D120F031F49F3F11F44C
:104C00001EF433C10EF4E095E7FB29C1E92F4FD123
:104C100080F3BA17620773078407950718F071F4D9
:104C20009EF567C10EF4E0950B2EBA2FA02D0B0157
:104C3000B90190010C01CA01A0011124FF27591BE1
:104C400099F0593F50F4503E68F11A16F040A22FE7
:104C5000232F342F4427585FF3CF46953795279558
:104C6000A795F0405395C9F77EF41F16BA0B620B57
:104C7000730B840BBAF09150A1F0FF0FBB1F661F9E
:104C8000771F881FC2F70EC0BA0F621F731F841FE1
:104C900048F4879577956795B795F7959E3F08F007
:104CA000B3CF9395880F08F09927EE0F97958795C6
:104CB00008950CD0EBC0E3D040F0DAD030F021F40E
:104CC0005F3F19F0CCC0511115C1CFC0F0D098F39F
:104CD0009923C9F35523B1F3951B550BBB27AA277D
:104CE00062177307840738F09F5F5F4F220F331FEF
:104CF000441FAA1FA9F333D00E2E3AF0E0E830D0BB
:104D000091505040E695001CCAF729D0FE2F27D0BD
:104D1000660F771F881FBB1F261737074807AB078B
:104D2000B0E809F0BB0B802DBF01FF2793585F4F00
:104D30002AF09E3F510568F092C0DCC05F3FECF363
:104D4000983EDCF3869577956795B795F7959F5FC5
:104D5000C9F7880F911D9695879597F90895E1E019
:104D6000660F771F881FBB1F621773078407BA0778
:104D700020F0621B730B840BBA0BEE1F88F7E095D3
:104D8000089504D06894B111B5C0089598D088F002
:104D90009F5790F0B92F9927B751A0F0D1F0660F27
:104DA000771F881F991F1AF0BA95C9F712C0B13042
:104DB00081F09FD0B1E008959CC0672F782F88279D
:104DC000B85F39F0B93FCCF3869577956795B39581
:104DD000D9F73EF490958095709561957F4F8F4FF0
:104DE0009F4F0895E89409C097FB3EF490958095F5
:104DF000709561957F4F8F4F9F4F9923A9F0F92FA1
:104E000096E9BB279395F695879577956795B7951E
:104E1000F111F8CFFAF4BB0F11F460FF1BC06F5F04
:104E20007F4F8F4F9F4F16C0882311F096E911C016
:104E3000772321F09EE8872F762F05C0662371F037
:104E400096E8862F70E060E02AF09A95660F771F4B
:104E5000881FDAF7880F9695879597F9089597F93F
:104E60009F6780E870E060E008959FEF80EC089510
:104E700000240A9416161706180609060895002439
:104E80000A9412161306140605060895092E0394B3
:104E9000000C11F4882352F0BB0F40F4BF2B11F427
:104EA00060FF04C06F5F7F4F8F4F9F4F089557FD86
:104EB0009058440F551F59F05F3F71F04795880F88
:104EC00097FB991F61F09F3F79F08795089512161F
:104ED00013061406551FF2CF4695F1DF08C01616CB
:104EE00017061806991FF1CF86957105610508947C
:104EF0000895E894BB2766277727CB0197F9089593
:104F00000BD0C4CFB5DF28F0BADF18F0952309F035
:104F1000A6CFABCF1124EECFCADFA0F3959FD1F37C
:104F2000950F50E0551F629FF001729FBB27F00D57
:104F3000B11D639FAA27F00DB11DAA1F649F6627AC
:104F4000B00DA11D661F829F2227B00DA11D621FFB
:104F5000739FB00DA11D621F839FA00D611D221FB5
:104F6000749F3327A00D611D231F849F600D211D99
:104F7000822F762F6A2F11249F5750408AF0E1F03C
:104F800088234AF0EE0FFF1FBB1F661F771F881F85
:104F900091505040A9F79E3F510570F060CFAACFC5
:104FA0005F3FECF3983EDCF3869577956795B79570
:104FB000F795E7959F5FC1F7FE2B880F911D96959A
:104FC000879597F90895A5E1B0E0E9EEF7E20C9432
:104FD000FE2B4C017F876E87FC011782168283812E
:104FE00081FD04C076C34C855D8504C01E01089414
:104FF000211C311CF4019381EE85FF8593FD859181
:1050000093FF8191FF87EE87882309F45EC3853281
:1050100041F493FD859193FF8191FF87EE8785325F
:1050200059F490E0B4014C8B5D8B0E94FA2D4C89B1
:105030005D895D874C87D7CFFF24DD2410E01032D7
:10504000B0F48B3269F08C3228F4803251F0833224
:1050500071F40BC08D3239F0803349F411602CC0EB
:105060001260146029C0186027C0106125C017FDA8
:105070002EC0282F20532A3098F416FF08C08F2DF9
:10508000880FF82EFF0CFF0CF80EF20E15C08D2DB8
:10509000880FD82EDD0CDD0CD80ED20E10620CC09D
:1050A0008E3221F416FD11C3106406C08C3611F443
:1050B000106802C0883659F4EE85FF8593FD85910E
:1050C00093FF8191FF87EE87882309F0B8CF982F4F
:1050D0009554933018F41061805E06C0982F955651
:1050E000933008F0A2C11F7E16FD02C0E6E0FE2E3E
:1050F0001F73853611F4106406C0863611F41068EB
:1051000002C0F110FA9417FF07C0FBE3FF1548F047
:10511000EF2CE39427E00DC027E02F1530F02F2D62
:1051200007C027E07CE3E72E04C027E067E0F62E07
:10513000EE24CA0104969D878C87FA0160817181F3
:1051400082819381A1010E2D0E94B82C5C01C9803F
:105150002C2D30E0398B288BC0FE03C0388933FFFB
:1051600006C011FD06C012FF06C000E205C00DE238
:1051700003C00BE201C000E0888999898C709070AF
:10518000009709F43CC0002311F084E001C083E0E3
:105190008D1558F4D81A13FD09C080E290E0B401CF
:1051A0000E94FA2DDA94C9F701C0DD24002329F00A
:1051B000802F90E0B4010E94FA2D888983FD05C0FC
:1051C0003CE6E32E30E0F32E11C028E6E22E20E08C
:1051D000F22E0CC00115110509F0805290E0B401C7
:1051E0000E94FA2D0894E11CF11C04C0012F10E06C
:1051F00000711070F7018491882361F763C217FF73
:105200000EC0EA0CF889F4FF04C08A81813309F4E6
:10521000EA941E144CF528E02E1548F12CC016FD1A
:105220002AC08F2D90E08A159B0544F03CEFA31611
:105230003FEFB3061CF0106801C0FA94FF2049F05C
:10524000E2E0F0E0EC0FFD1FEF0DF11D80818033F7
:10525000A1F317FF10C0EF2CE3948F2D90E0A81658
:10526000B90644F4FA1807C0EE24E39404C098E0A9
:10527000E92E01C0FF2417FF07C01A141B043CF4D9
:1052800095012F5F3F4F05C025E030E002C021E0CF
:1052900030E0002311F02F5F3F4FFF2029F08F2DCA
:1052A00090E00196280F391F8D2D90E028173907BF
:1052B00014F4D21A01C0DD24612E7724C301897051
:1052C0009070009749F406C080E290E0B4010E941B
:1052D000FA2DDA94DD20C1F7002329F0802F90E029
:1052E000B4010E94FA2D63FC09C006C080E390E07F
:1052F000B4010E94FA2DDA94DD20C1F717FF48C0EF
:105300008501B7FE02C000E010E066247724950115
:105310002E1931093B8B2A8B2501401A510A420C68
:10532000531C6F2D70E0EE24FF24E61AF70A3FEFBE
:105330000F3F130729F48EE290E0B4010E94FA2D8A
:10534000A016B10654F02A893B89201731072CF4A6
:10535000F201E60DF71D818101C080E3015010408C
:105360000894611C711C0E151F052CF090E0B4010F
:105370000E94FA2DDCCF0A151B0541F49A81963361
:1053800020F4953319F4388934FF81E390E049C063
:105390008A81813311F09FEEC92290E0B4010E940E
:1053A000FA2DFF2089F08EE290E0B4010E94FA2DE0
:1053B00012E0F101E10FF11D1F5F808190E0B40167
:1053C0000E94FA2DFA94A9F764FE03C085E490E0E8
:1053D00002C085E690E0B4010E94FA2DB7FC05C03A
:1053E000A114B10441F4C4FE06C0B094A194B10864
:1053F000B3948DE201C08BE290E0B4010E94FA2DDB
:1054000080E305C08F5FE6EFFFEFAE0EBF1EFAE050
:10541000AF16B104BCF790E0B4010E94FA2DC501AB
:10542000C096B4010E94FA2D4DC1833631F0833706
:1054300089F0833509F059C022C09A012E5F3F4F91
:105440003D872C87FA018081898381E0E82EF12C49
:10545000510113C09A012E5F3F4F3D872C87FA01FF
:10546000A080B18016FF03C06F2D70E002C06FEF07
:105470007FEFC5010E94C02D7C011F7714C09A01E7
:105480002E5F3F4F3D872C87FA01A080B18016FF29
:1054900003C06F2D70E002C06FEF7FEFC5010E9467
:1054A000982D7C01106813FD1CC006C080E290E0BE
:1054B000B4010E94FA2DDA948D2D90E0E816F906D9
:1054C000A8F30FC0F50117FD859117FF81915F01CA
:1054D00090E0B4010E94FA2DD110DA940894E1080A
:1054E000F108E114F10471F7EDC0843611F089364A
:1054F00071F59A0117FF0AC02C5F3F4F3D872C873B
:10550000FA0180819181A281B3810BC02E5F3F4F50
:105510003D872C87FA0180819181AA2797FDA0956C
:10552000BA2F012F0F76B7FF08C0B095A0959095C0
:1055300081959F4FAF4FBF4F0068BC01CD01A101C6
:105540002AE030E00E94482EE82EE21841C085375C
:1055500021F41F7E2AE030E020C0197F8F36A9F0A9
:10556000803720F4883509F0B0C00BC0803721F0B7
:10557000883709F0AAC001C0106114FF09C0146087
:1055800007C014FF08C0166006C028E030E005C060
:1055900020E130E002C020E132E0CA0117FF09C07B
:1055A00004969D878C87FA01608171818281938145
:1055B00008C002969D878C87FA016081718180E026
:1055C00090E0A1010E94482EE82EE218012F0F77EB
:1055D00006FF09C00E7FEF1430F404FF06C002FD81
:1055E00004C00F7E02C01E2D01C01F2D802F90E031
:1055F00004FF0CC0FE01EE0DF11D2081203311F4DB
:10560000097E09C002FF06C01E5F05C08678907043
:10561000009709F01F5FA02EBB2403FD12C000FFFE
:105620000DC0FE2C1D1550F4FD0CF11A1D2D06C0E9
:1056300080E290E0B4010E94FA2D1F5F1D15C0F3B7
:1056400004C01D1510F4D11A01C0DD24A4FE0FC042
:1056500080E390E0B4010E94FA2DA2FE1FC0A1FEDB
:1056600003C088E590E010C088E790E00DC0C50158
:1056700086789070009791F0A1FC02C080E201C092
:105680008BE207FD8DE290E0B4010E94FA2D06C086
:1056900080E390E0B4010E94FA2DFA94EF14C0F375
:1056A000EA94F101EE0DF11D808190E0B4010E94B9
:1056B000FA2DEE20A9F706C080E290E0B4010E9426
:1056C000FA2DDA94DD20C1F78ECCF4018681978122
:1056D00002C08FEF9FEF6596E2E10C941A2C629F57
:1056E000D001739FF001829FE00DF11D649FE00DDA
:1056F000F11D929FF00D839FF00D749FF00D659F3B
:10570000F00D9927729FB00DE11DF91F639FB00D39
:10571000E11DF91FBD01CF0111240895991B79E006
:1057200004C0991F961708F0961B881F7A95C9F731
:1057300080950895AA1BBB1B51E107C0AA1FBB1F80
:10574000A617B70710F0A61BB70B881F991F5A950D
:10575000A9F780959095BC01CD01089597FB092E7E
:1057600007260AD077FD04D0E5DF06D000201AF422
:10577000709561957F4F0895F6F7909581959F4FAD
:105780000895A1E21A2EAA1BBB1BFD010DC0AA1F82
:10579000BB1FEE1FFF1FA217B307E407F50720F09A
:1057A000A21BB30BE40BF50B661F771F881F991F15
:1057B0001A9469F760957095809590959B01AC015E
:1057C000BD01CF01089597FB092E05260ED057FD88
:1057D00004D0D7DF0AD0001C38F45095409530959E
:1057E00021953F4F4F4F5F4F0895F6F79095809565
:1057F000709561957F4F8F4F9F4F08952F923F92E5
:105800004F925F926F927F928F929F92AF92BF92D0
:10581000CF92DF92EF92FF920F931F93CF93DF937C
:10582000CDB7DEB7CA1BDB0B0FB6F894DEBF0FBED9
:10583000CDBF09942A88398848885F846E847D8426
:105840008C849B84AA84B984C884DF80EE80FD8028
:105850000C811B81AA81B981CE0FD11D0FB6F8949E
:10586000DEBF0FBECDBFED0108958F929F92AF9224
:10587000BF92CF92DF92EF92FF92CF93DF93EC0132
:1058800088819981AA81BB810097A105B10521F486
:1058900084E299EDABE5B7E0BC01CD012DE133EF3A
:1058A00041E050E00E94E32B49015A0127EA31E42C
:1058B00040E050E00E946F2B6B017C01C501B401F8
:1058C0002CEE34EF4FEF5FEF0E946F2BDC01CB012A
:1058D000C80ED91EEA1EFB1EF7FE08C08FEF9FEF11
:1058E000AFEFBFE7C80ED91EEA1EFB1EC882D982E1
:1058F000EA82FB82C6019F77DF91CF91FF90EF9004
:10590000DF90CF90BF90AF909F908F9008950E94AE
:10591000352C08958AEF93E00E94352C0895A0E07D
:10592000B0E08093FA039093FB03A093FC03B09341
:10593000FD030895FC0188279927E89421912032DE
:10594000E9F3293010F02E30C8F32B3241F02D321C
:1059500039F4689404C00E94F22D820F911D2191A8
:1059600020532A30C0F31EF4909581959F4F0895DF
:10597000283008F027E03327DA01990F311D87FD21
:10598000916000966105710539F432602E5F3D9398
:1059900030E32A95E1F708959F3F30F08038710594
:1059A000610509F03C5F3C5F3D93913008F08068F1
:1059B000911DDF93CF931F930F93FF92EF92192FB7
:1059C000987F9695E92F96959695E90FFF27E653D0
:1059D000FF4F99273327EE24FF24A701E701059005
:1059E0000894079428F4360FE71EF81E491F511D2E
:1059F000660F771F881F991F0694A1F705900794DB
:105A000028F4E70EF81E491F561FC11D770F881F87
:105A1000991F661F0694A1F70590079428F4F80EC5
:105A2000491F561FC71FD11D880F991F661F771F5B
:105A30000694A1F70590079420F4490F561FC71F3D
:105A4000D81F990F661F771F881F0694A9F78491A6
:105A50001095177041F0D695C79557954795F794CF
:105A6000E7941A95C1F7E0E7F0E068941590159176
:105A700035916591959105907FE27395E118F10A52
:105A8000430B560BC90BD009C0F7E10CF11E431FA5
:105A9000561FC91FD01D7EF4703311F48A95E6CFCE
:105AA000E894015030F0080F0AF40027021708F4B8
:105AB000202F2395022F7A3328F079E37D932A95BE
:105AC000E9F710C07D932A9589F606949795679516
:105AD000379517951794E118F10A430B560BC90B2C
